{
  "_format": "hh-sol-artifact-1",
  "contractName": "CertificateNFT",
  "sourceName": "contracts/CertificateNFT.sol",
  "abi": [
    {
      "inputs": [],
      "stateMutability": "nonpayable",
      "type": "constructor"
    },
    {
      "inputs": [],
      "name": "AccessControlBadConfirmation",
      "type": "error"
    },
    {
      "inputs": [
        {
          "internalType": "address",
          "name": "account",
          "type": "address"
        },
        {
          "internalType": "bytes32",
          "name": "neededRole",
          "type": "bytes32"
        }
      ],
      "name": "AccessControlUnauthorizedAccount",
      "type": "error"
    },
    {
      "inputs": [
        {
          "internalType": "address",
          "name": "sender",
          "type": "address"
        },
        {
          "internalType": "uint256",
          "name": "tokenId",
          "type": "uint256"
        },
        {
          "internalType": "address",
          "name": "owner",
          "type": "address"
        }
      ],
      "name": "ERC721IncorrectOwner",
      "type": "error"
    },
    {
      "inputs": [
        {
          "internalType": "address",
          "name": "operator",
          "type": "address"
        },
        {
          "internalType": "uint256",
          "name": "tokenId",
          "type": "uint256"
        }
      ],
      "name": "ERC721InsufficientApproval",
      "type": "error"
    },
    {
      "inputs": [
        {
          "internalType": "address",
          "name": "approver",
          "type": "address"
        }
      ],
      "name": "ERC721InvalidApprover",
      "type": "error"
    },
    {
      "inputs": [
        {
          "internalType": "address",
          "name": "operator",
          "type": "address"
        }
      ],
      "name": "ERC721InvalidOperator",
      "type": "error"
    },
    {
      "inputs": [
        {
          "internalType": "address",
          "name": "owner",
          "type": "address"
        }
      ],
      "name": "ERC721InvalidOwner",
      "type": "error"
    },
    {
      "inputs": [
        {
          "internalType": "address",
          "name": "receiver",
          "type": "address"
        }
      ],
      "name": "ERC721InvalidReceiver",
      "type": "error"
    },
    {
      "inputs": [
        {
          "internalType": "address",
          "name": "sender",
          "type": "address"
        }
      ],
      "name": "ERC721InvalidSender",
      "type": "error"
    },
    {
      "inputs": [
        {
          "internalType": "uint256",
          "name": "tokenId",
          "type": "uint256"
        }
      ],
      "name": "ERC721NonexistentToken",
      "type": "error"
    },
    {
      "inputs": [],
      "name": "EnforcedPause",
      "type": "error"
    },
    {
      "inputs": [],
      "name": "ExpectedPause",
      "type": "error"
    },
    {
      "anonymous": false,
      "inputs": [
        {
          "indexed": true,
          "internalType": "address",
          "name": "owner",
          "type": "address"
        },
        {
          "indexed": true,
          "internalType": "address",
          "name": "approved",
          "type": "address"
        },
        {
          "indexed": true,
          "internalType": "uint256",
          "name": "tokenId",
          "type": "uint256"
        }
      ],
      "name": "Approval",
      "type": "event"
    },
    {
      "anonymous": false,
      "inputs": [
        {
          "indexed": true,
          "internalType": "address",
          "name": "owner",
          "type": "address"
        },
        {
          "indexed": true,
          "internalType": "address",
          "name": "operator",
          "type": "address"
        },
        {
          "indexed": false,
          "internalType": "bool",
          "name": "approved",
          "type": "bool"
        }
      ],
      "name": "ApprovalForAll",
      "type": "event"
    },
    {
      "anonymous": false,
      "inputs": [
        {
          "indexed": false,
          "internalType": "uint256",
          "name": "_fromTokenId",
          "type": "uint256"
        },
        {
          "indexed": false,
          "internalType": "uint256",
          "name": "_toTokenId",
          "type": "uint256"
        }
      ],
      "name": "BatchMetadataUpdate",
      "type": "event"
    },
    {
      "anonymous": false,
      "inputs": [
        {
          "indexed": true,
          "internalType": "uint256",
          "name": "tokenId",
          "type": "uint256"
        },
        {
          "indexed": true,
          "internalType": "address",
          "name": "student",
          "type": "address"
        },
        {
          "indexed": true,
          "internalType": "string",
          "name": "courseName",
          "type": "string"
        },
        {
          "indexed": false,
          "internalType": "string",
          "name": "studentName",
          "type": "string"
        },
        {
          "indexed": false,
          "internalType": "string",
          "name": "grade",
          "type": "string"
        },
        {
          "indexed": false,
          "internalType": "string",
          "name": "ipfsHash",
          "type": "string"
        },
        {
          "indexed": false,
          "internalType": "uint256",
          "name": "timestamp",
          "type": "uint256"
        }
      ],
      "name": "CertificateIssued",
      "type": "event"
    },
    {
      "anonymous": false,
      "inputs": [
        {
          "indexed": true,
          "internalType": "uint256",
          "name": "tokenId",
          "type": "uint256"
        },
        {
          "indexed": true,
          "internalType": "address",
          "name": "student",
          "type": "address"
        },
        {
          "indexed": true,
          "internalType": "address",
          "name": "admin",
          "type": "address"
        }
      ],
      "name": "CertificateRevoked",
      "type": "event"
    },
    {
      "anonymous": false,
      "inputs": [
        {
          "indexed": true,
          "internalType": "uint256",
          "name": "tokenId",
          "type": "uint256"
        },
        {
          "indexed": false,
          "internalType": "bool",
          "name": "isValid",
          "type": "bool"
        }
      ],
      "name": "CertificateVerified",
      "type": "event"
    },
    {
      "anonymous": false,
      "inputs": [
        {
          "indexed": false,
          "internalType": "uint256",
          "name": "_tokenId",
          "type": "uint256"
        }
      ],
      "name": "MetadataUpdate",
      "type": "event"
    },
    {
      "anonymous": false,
      "inputs": [
        {
          "indexed": false,
          "internalType": "address",
          "name": "account",
          "type": "address"
        }
      ],
      "name": "Paused",
      "type": "event"
    },
    {
      "anonymous": false,
      "inputs": [
        {
          "indexed": true,
          "internalType": "bytes32",
          "name": "role",
          "type": "bytes32"
        },
        {
          "indexed": true,
          "internalType": "bytes32",
          "name": "previousAdminRole",
          "type": "bytes32"
        },
        {
          "indexed": true,
          "internalType": "bytes32",
          "name": "newAdminRole",
          "type": "bytes32"
        }
      ],
      "name": "RoleAdminChanged",
      "type": "event"
    },
    {
      "anonymous": false,
      "inputs": [
        {
          "indexed": true,
          "internalType": "bytes32",
          "name": "role",
          "type": "bytes32"
        },
        {
          "indexed": true,
          "internalType": "address",
          "name": "account",
          "type": "address"
        },
        {
          "indexed": true,
          "internalType": "address",
          "name": "sender",
          "type": "address"
        }
      ],
      "name": "RoleGranted",
      "type": "event"
    },
    {
      "anonymous": false,
      "inputs": [
        {
          "indexed": true,
          "internalType": "bytes32",
          "name": "role",
          "type": "bytes32"
        },
        {
          "indexed": true,
          "internalType": "address",
          "name": "account",
          "type": "address"
        },
        {
          "indexed": true,
          "internalType": "address",
          "name": "sender",
          "type": "address"
        }
      ],
      "name": "RoleRevoked",
      "type": "event"
    },
    {
      "anonymous": false,
      "inputs": [
        {
          "indexed": true,
          "internalType": "uint256",
          "name": "tokenId",
          "type": "uint256"
        },
        {
          "indexed": true,
          "internalType": "address",
          "name": "student",
          "type": "address"
        },
        {
          "indexed": true,
          "internalType": "string",
          "name": "serialNo",
          "type": "string"
        },
        {
          "indexed": false,
          "internalType": "string",
          "name": "memoNo",
          "type": "string"
        },
        {
          "indexed": false,
          "internalType": "string",
          "name": "regdNo",
          "type": "string"
        },
        {
          "indexed": false,
          "internalType": "string",
          "name": "branch",
          "type": "string"
        },
        {
          "indexed": false,
          "internalType": "string",
          "name": "examination",
          "type": "string"
        },
        {
          "indexed": false,
          "internalType": "uint256",
          "name": "sgpa",
          "type": "uint256"
        },
        {
          "indexed": false,
          "internalType": "uint256",
          "name": "timestamp",
          "type": "uint256"
        }
      ],
      "name": "SemesterCertificateIssued",
      "type": "event"
    },
    {
      "anonymous": false,
      "inputs": [
        {
          "indexed": true,
          "internalType": "uint256",
          "name": "tokenId",
          "type": "uint256"
        },
        {
          "indexed": true,
          "internalType": "address",
          "name": "student",
          "type": "address"
        },
        {
          "indexed": true,
          "internalType": "address",
          "name": "admin",
          "type": "address"
        }
      ],
      "name": "SemesterCertificateRevoked",
      "type": "event"
    },
    {
      "anonymous": false,
      "inputs": [
        {
          "indexed": true,
          "internalType": "address",
          "name": "from",
          "type": "address"
        },
        {
          "indexed": true,
          "internalType": "address",
          "name": "to",
          "type": "address"
        },
        {
          "indexed": true,
          "internalType": "uint256",
          "name": "tokenId",
          "type": "uint256"
        }
      ],
      "name": "Transfer",
      "type": "event"
    },
    {
      "anonymous": false,
      "inputs": [
        {
          "indexed": false,
          "internalType": "address",
          "name": "account",
          "type": "address"
        }
      ],
      "name": "Unpaused",
      "type": "event"
    },
    {
      "inputs": [],
      "name": "ADMIN_ROLE",
      "outputs": [
        {
          "internalType": "bytes32",
          "name": "",
          "type": "bytes32"
        }
      ],
      "stateMutability": "view",
      "type": "function"
    },
    {
      "inputs": [],
      "name": "DEFAULT_ADMIN_ROLE",
      "outputs": [
        {
          "internalType": "bytes32",
          "name": "",
          "type": "bytes32"
        }
      ],
      "stateMutability": "view",
      "type": "function"
    },
    {
      "inputs": [],
      "name": "MINTER_ROLE",
      "outputs": [
        {
          "internalType": "bytes32",
          "name": "",
          "type": "bytes32"
        }
      ],
      "stateMutability": "view",
      "type": "function"
    },
    {
      "inputs": [
        {
          "internalType": "address",
          "name": "to",
          "type": "address"
        },
        {
          "internalType": "uint256",
          "name": "tokenId",
          "type": "uint256"
        }
      ],
      "name": "approve",
      "outputs": [],
      "stateMutability": "nonpayable",
      "type": "function"
    },
    {
      "inputs": [
        {
          "internalType": "address",
          "name": "owner",
          "type": "address"
        }
      ],
      "name": "balanceOf",
      "outputs": [
        {
          "internalType": "uint256",
          "name": "",
          "type": "uint256"
        }
      ],
      "stateMutability": "view",
      "type": "function"
    },
    {
      "inputs": [
        {
          "components": [
            {
              "internalType": "string",
              "name": "courseCode",
              "type": "string"
            },
            {
              "internalType": "string",
              "name": "courseTitle",
              "type": "string"
            },
            {
              "internalType": "string",
              "name": "gradeSecured",
              "type": "string"
            },
            {
              "internalType": "uint256",
              "name": "gradePoints",
              "type": "uint256"
            },
            {
              "internalType": "string",
              "name": "status",
              "type": "string"
            },
            {
              "internalType": "uint256",
              "name": "creditsObtained",
              "type": "uint256"
            }
          ],
          "internalType": "struct CertificateNFT.Course[]",
          "name": "courses",
          "type": "tuple[]"
        }
      ],
      "name": "calculateSGPA",
      "outputs": [
        {
          "internalType": "uint256",
          "name": "",
          "type": "uint256"
        }
      ],
      "stateMutability": "pure",
      "type": "function"
    },
    {
      "inputs": [
        {
          "internalType": "uint256",
          "name": "",
          "type": "uint256"
        }
      ],
      "name": "certificates",
      "outputs": [
        {
          "internalType": "string",
          "name": "studentName",
          "type": "string"
        },
        {
          "internalType": "string",
          "name": "courseName",
          "type": "string"
        },
        {
          "internalType": "string",
          "name": "grade",
          "type": "string"
        },
        {
          "internalType": "string",
          "name": "ipfsHash",
          "type": "string"
        },
        {
          "internalType": "string",
          "name": "department",
          "type": "string"
        },
        {
          "internalType": "uint256",
          "name": "issueDate",
          "type": "uint256"
        },
        {
          "internalType": "bool",
          "name": "isRevoked",
          "type": "bool"
        },
        {
          "internalType": "address",
          "name": "issuer",
          "type": "address"
        }
      ],
      "stateMutability": "view",
      "type": "function"
    },
    {
      "inputs": [
        {
          "internalType": "uint256",
          "name": "tokenId",
          "type": "uint256"
        }
      ],
      "name": "getApproved",
      "outputs": [
        {
          "internalType": "address",
          "name": "",
          "type": "address"
        }
      ],
      "stateMutability": "view",
      "type": "function"
    },
    {
      "inputs": [
        {
          "internalType": "uint256",
          "name": "tokenId",
          "type": "uint256"
        }
      ],
      "name": "getCertificateData",
      "outputs": [
        {
          "components": [
            {
              "internalType": "string",
              "name": "studentName",
              "type": "string"
            },
            {
              "internalType": "string",
              "name": "courseName",
              "type": "string"
            },
            {
              "internalType": "string",
              "name": "grade",
              "type": "string"
            },
            {
              "internalType": "string",
              "name": "ipfsHash",
              "type": "string"
            },
            {
              "internalType": "string",
              "name": "department",
              "type": "string"
            },
            {
              "internalType": "uint256",
              "name": "issueDate",
              "type": "uint256"
            },
            {
              "internalType": "bool",
              "name": "isRevoked",
              "type": "bool"
            },
            {
              "internalType": "address",
              "name": "issuer",
              "type": "address"
            }
          ],
          "internalType": "struct CertificateNFT.CertificateData",
          "name": "",
          "type": "tuple"
        }
      ],
      "stateMutability": "view",
      "type": "function"
    },
    {
      "inputs": [
        {
          "internalType": "bytes32",
          "name": "role",
          "type": "bytes32"
        }
      ],
      "name": "getRoleAdmin",
      "outputs": [
        {
          "internalType": "bytes32",
          "name": "",
          "type": "bytes32"
        }
      ],
      "stateMutability": "view",
      "type": "function"
    },
    {
      "inputs": [
        {
          "internalType": "uint256",
          "name": "tokenId",
          "type": "uint256"
        }
      ],
      "name": "getSemesterCertificate",
      "outputs": [
        {
          "components": [
            {
              "internalType": "string",
              "name": "studentName",
              "type": "string"
            },
            {
              "internalType": "string",
              "name": "serialNo",
              "type": "string"
            },
            {
              "internalType": "string",
              "name": "memoNo",
              "type": "string"
            },
            {
              "internalType": "string",
              "name": "regdNo",
              "type": "string"
            },
            {
              "internalType": "string",
              "name": "branch",
              "type": "string"
            },
            {
              "internalType": "string",
              "name": "examination",
              "type": "string"
            },
            {
              "internalType": "string",
              "name": "monthYearExams",
              "type": "string"
            },
            {
              "internalType": "string",
              "name": "aadharNo",
              "type": "string"
            },
            {
              "internalType": "string",
              "name": "studentPhoto",
              "type": "string"
            },
            {
              "components": [
                {
                  "internalType": "string",
                  "name": "courseCode",
                  "type": "string"
                },
                {
                  "internalType": "string",
                  "name": "courseTitle",
                  "type": "string"
                },
                {
                  "internalType": "string",
                  "name": "gradeSecured",
                  "type": "string"
                },
                {
                  "internalType": "uint256",
                  "name": "gradePoints",
                  "type": "uint256"
                },
                {
                  "internalType": "string",
                  "name": "status",
                  "type": "string"
                },
                {
                  "internalType": "uint256",
                  "name": "creditsObtained",
                  "type": "uint256"
                }
              ],
              "internalType": "struct CertificateNFT.Course[]",
              "name": "courses",
              "type": "tuple[]"
            },
            {
              "internalType": "uint256",
              "name": "totalCredits",
              "type": "uint256"
            },
            {
              "internalType": "uint256",
              "name": "sgpa",
              "type": "uint256"
            },
            {
              "internalType": "string",
              "name": "mediumOfInstruction",
              "type": "string"
            },
            {
              "internalType": "uint256",
              "name": "issueDate",
              "type": "uint256"
            },
            {
              "internalType": "address",
              "name": "issuer",
              "type": "address"
            },
            {
              "internalType": "bool",
              "name": "isRevoked",
              "type": "bool"
            }
          ],
          "internalType": "struct CertificateNFT.SemesterCertificate",
          "name": "",
          "type": "tuple"
        }
      ],
      "stateMutability": "view",
      "type": "function"
    },
    {
      "inputs": [
        {
          "internalType": "address",
          "name": "student",
          "type": "address"
        }
      ],
      "name": "getStudentCertificates",
      "outputs": [
        {
          "internalType": "uint256[]",
          "name": "",
          "type": "uint256[]"
        }
      ],
      "stateMutability": "view",
      "type": "function"
    },
    {
      "inputs": [
        {
          "internalType": "address",
          "name": "student",
          "type": "address"
        }
      ],
      "name": "getStudentSemesterCertificates",
      "outputs": [
        {
          "internalType": "uint256[]",
          "name": "",
          "type": "uint256[]"
        }
      ],
      "stateMutability": "view",
      "type": "function"
    },
    {
      "inputs": [
        {
          "internalType": "bytes32",
          "name": "role",
          "type": "bytes32"
        },
        {
          "internalType": "address",
          "name": "account",
          "type": "address"
        }
      ],
      "name": "grantRole",
      "outputs": [],
      "stateMutability": "nonpayable",
      "type": "function"
    },
    {
      "inputs": [
        {
          "internalType": "bytes32",
          "name": "role",
          "type": "bytes32"
        },
        {
          "internalType": "address",
          "name": "account",
          "type": "address"
        }
      ],
      "name": "hasRole",
      "outputs": [
        {
          "internalType": "bool",
          "name": "",
          "type": "bool"
        }
      ],
      "stateMutability": "view",
      "type": "function"
    },
    {
      "inputs": [
        {
          "internalType": "address",
          "name": "owner",
          "type": "address"
        },
        {
          "internalType": "address",
          "name": "operator",
          "type": "address"
        }
      ],
      "name": "isApprovedForAll",
      "outputs": [
        {
          "internalType": "bool",
          "name": "",
          "type": "bool"
        }
      ],
      "stateMutability": "view",
      "type": "function"
    },
    {
      "inputs": [
        {
          "internalType": "string",
          "name": "memoNo",
          "type": "string"
        }
      ],
      "name": "isMemoNumberUsed",
      "outputs": [
        {
          "internalType": "bool",
          "name": "",
          "type": "bool"
        }
      ],
      "stateMutability": "view",
      "type": "function"
    },
    {
      "inputs": [
        {
          "internalType": "string",
          "name": "serialNo",
          "type": "string"
        }
      ],
      "name": "isSerialNumberUsed",
      "outputs": [
        {
          "internalType": "bool",
          "name": "",
          "type": "bool"
        }
      ],
      "stateMutability": "view",
      "type": "function"
    },
    {
      "inputs": [
        {
          "internalType": "address",
          "name": "student",
          "type": "address"
        },
        {
          "internalType": "string",
          "name": "courseName",
          "type": "string"
        },
        {
          "internalType": "string",
          "name": "grade",
          "type": "string"
        },
        {
          "internalType": "string",
          "name": "ipfsHash",
          "type": "string"
        }
      ],
      "name": "mintCertificate",
      "outputs": [
        {
          "internalType": "uint256",
          "name": "",
          "type": "uint256"
        }
      ],
      "stateMutability": "nonpayable",
      "type": "function"
    },
    {
      "inputs": [
        {
          "internalType": "address",
          "name": "student",
          "type": "address"
        },
        {
          "internalType": "string",
          "name": "serialNo",
          "type": "string"
        },
        {
          "internalType": "string",
          "name": "memoNo",
          "type": "string"
        },
        {
          "components": [
            {
              "internalType": "string",
              "name": "studentName",
              "type": "string"
            },
            {
              "internalType": "string",
              "name": "serialNo",
              "type": "string"
            },
            {
              "internalType": "string",
              "name": "memoNo",
              "type": "string"
            },
            {
              "internalType": "string",
              "name": "regdNo",
              "type": "string"
            },
            {
              "internalType": "string",
              "name": "branch",
              "type": "string"
            },
            {
              "internalType": "string",
              "name": "examination",
              "type": "string"
            },
            {
              "internalType": "string",
              "name": "monthYearExams",
              "type": "string"
            },
            {
              "internalType": "string",
              "name": "aadharNo",
              "type": "string"
            },
            {
              "internalType": "string",
              "name": "studentPhoto",
              "type": "string"
            },
            {
              "components": [
                {
                  "internalType": "string",
                  "name": "courseCode",
                  "type": "string"
                },
                {
                  "internalType": "string",
                  "name": "courseTitle",
                  "type": "string"
                },
                {
                  "internalType": "string",
                  "name": "gradeSecured",
                  "type": "string"
                },
                {
                  "internalType": "uint256",
                  "name": "gradePoints",
                  "type": "uint256"
                },
                {
                  "internalType": "string",
                  "name": "status",
                  "type": "string"
                },
                {
                  "internalType": "uint256",
                  "name": "creditsObtained",
                  "type": "uint256"
                }
              ],
              "internalType": "struct CertificateNFT.Course[]",
              "name": "courses",
              "type": "tuple[]"
            },
            {
              "internalType": "uint256",
              "name": "totalCredits",
              "type": "uint256"
            },
            {
              "internalType": "uint256",
              "name": "sgpa",
              "type": "uint256"
            },
            {
              "internalType": "string",
              "name": "mediumOfInstruction",
              "type": "string"
            },
            {
              "internalType": "uint256",
              "name": "issueDate",
              "type": "uint256"
            },
            {
              "internalType": "address",
              "name": "issuer",
              "type": "address"
            },
            {
              "internalType": "bool",
              "name": "isRevoked",
              "type": "bool"
            }
          ],
          "internalType": "struct CertificateNFT.SemesterCertificate",
          "name": "certData",
          "type": "tuple"
        }
      ],
      "name": "mintSemesterCertificate",
      "outputs": [
        {
          "internalType": "uint256",
          "name": "",
          "type": "uint256"
        }
      ],
      "stateMutability": "nonpayable",
      "type": "function"
    },
    {
      "inputs": [],
      "name": "name",
      "outputs": [
        {
          "internalType": "string",
          "name": "",
          "type": "string"
        }
      ],
      "stateMutability": "view",
      "type": "function"
    },
    {
      "inputs": [
        {
          "internalType": "uint256",
          "name": "tokenId",
          "type": "uint256"
        }
      ],
      "name": "ownerOf",
      "outputs": [
        {
          "internalType": "address",
          "name": "",
          "type": "address"
        }
      ],
      "stateMutability": "view",
      "type": "function"
    },
    {
      "inputs": [],
      "name": "pause",
      "outputs": [],
      "stateMutability": "nonpayable",
      "type": "function"
    },
    {
      "inputs": [],
      "name": "paused",
      "outputs": [
        {
          "internalType": "bool",
          "name": "",
          "type": "bool"
        }
      ],
      "stateMutability": "view",
      "type": "function"
    },
    {
      "inputs": [
        {
          "internalType": "bytes32",
          "name": "role",
          "type": "bytes32"
        },
        {
          "internalType": "address",
          "name": "callerConfirmation",
          "type": "address"
        }
      ],
      "name": "renounceRole",
      "outputs": [],
      "stateMutability": "nonpayable",
      "type": "function"
    },
    {
      "inputs": [
        {
          "internalType": "uint256",
          "name": "tokenId",
          "type": "uint256"
        }
      ],
      "name": "revokeCertificate",
      "outputs": [],
      "stateMutability": "nonpayable",
      "type": "function"
    },
    {
      "inputs": [
        {
          "internalType": "bytes32",
          "name": "role",
          "type": "bytes32"
        },
        {
          "internalType": "address",
          "name": "account",
          "type": "address"
        }
      ],
      "name": "revokeRole",
      "outputs": [],
      "stateMutability": "nonpayable",
      "type": "function"
    },
    {
      "inputs": [
        {
          "internalType": "uint256",
          "name": "tokenId",
          "type": "uint256"
        }
      ],
      "name": "revokeSemesterCertificate",
      "outputs": [],
      "stateMutability": "nonpayable",
      "type": "function"
    },
    {
      "inputs": [
        {
          "internalType": "address",
          "name": "from",
          "type": "address"
        },
        {
          "internalType": "address",
          "name": "to",
          "type": "address"
        },
        {
          "internalType": "uint256",
          "name": "tokenId",
          "type": "uint256"
        }
      ],
      "name": "safeTransferFrom",
      "outputs": [],
      "stateMutability": "nonpayable",
      "type": "function"
    },
    {
      "inputs": [
        {
          "internalType": "address",
          "name": "from",
          "type": "address"
        },
        {
          "internalType": "address",
          "name": "to",
          "type": "address"
        },
        {
          "internalType": "uint256",
          "name": "tokenId",
          "type": "uint256"
        },
        {
          "internalType": "bytes",
          "name": "data",
          "type": "bytes"
        }
      ],
      "name": "safeTransferFrom",
      "outputs": [],
      "stateMutability": "nonpayable",
      "type": "function"
    },
    {
      "inputs": [
        {
          "internalType": "uint256",
          "name": "",
          "type": "uint256"
        }
      ],
      "name": "semesterCertificates",
      "outputs": [
        {
          "internalType": "string",
          "name": "studentName",
          "type": "string"
        },
        {
          "internalType": "string",
          "name": "serialNo",
          "type": "string"
        },
        {
          "internalType": "string",
          "name": "memoNo",
          "type": "string"
        },
        {
          "internalType": "string",
          "name": "regdNo",
          "type": "string"
        },
        {
          "internalType": "string",
          "name": "branch",
          "type": "string"
        },
        {
          "internalType": "string",
          "name": "examination",
          "type": "string"
        },
        {
          "internalType": "string",
          "name": "monthYearExams",
          "type": "string"
        },
        {
          "internalType": "string",
          "name": "aadharNo",
          "type": "string"
        },
        {
          "internalType": "string",
          "name": "studentPhoto",
          "type": "string"
        },
        {
          "internalType": "uint256",
          "name": "totalCredits",
          "type": "uint256"
        },
        {
          "internalType": "uint256",
          "name": "sgpa",
          "type": "uint256"
        },
        {
          "internalType": "string",
          "name": "mediumOfInstruction",
          "type": "string"
        },
        {
          "internalType": "uint256",
          "name": "issueDate",
          "type": "uint256"
        },
        {
          "internalType": "address",
          "name": "issuer",
          "type": "address"
        },
        {
          "internalType": "bool",
          "name": "isRevoked",
          "type": "bool"
        }
      ],
      "stateMutability": "view",
      "type": "function"
    },
    {
      "inputs": [
        {
          "internalType": "address",
          "name": "operator",
          "type": "address"
        },
        {
          "internalType": "bool",
          "name": "approved",
          "type": "bool"
        }
      ],
      "name": "setApprovalForAll",
      "outputs": [],
      "stateMutability": "nonpayable",
      "type": "function"
    },
    {
      "inputs": [
        {
          "internalType": "string",
          "name": "baseURI",
          "type": "string"
        }
      ],
      "name": "setBaseURI",
      "outputs": [],
      "stateMutability": "nonpayable",
      "type": "function"
    },
    {
      "inputs": [
        {
          "internalType": "address",
          "name": "",
          "type": "address"
        },
        {
          "internalType": "uint256",
          "name": "",
          "type": "uint256"
        }
      ],
      "name": "studentCertificates",
      "outputs": [
        {
          "internalType": "uint256",
          "name": "",
          "type": "uint256"
        }
      ],
      "stateMutability": "view",
      "type": "function"
    },
    {
      "inputs": [
        {
          "internalType": "address",
          "name": "",
          "type": "address"
        },
        {
          "internalType": "uint256",
          "name": "",
          "type": "uint256"
        }
      ],
      "name": "studentSemesterCerts",
      "outputs": [
        {
          "internalType": "uint256",
          "name": "",
          "type": "uint256"
        }
      ],
      "stateMutability": "view",
      "type": "function"
    },
    {
      "inputs": [
        {
          "internalType": "bytes4",
          "name": "interfaceId",
          "type": "bytes4"
        }
      ],
      "name": "supportsInterface",
      "outputs": [
        {
          "internalType": "bool",
          "name": "",
          "type": "bool"
        }
      ],
      "stateMutability": "view",
      "type": "function"
    },
    {
      "inputs": [],
      "name": "symbol",
      "outputs": [
        {
          "internalType": "string",
          "name": "",
          "type": "string"
        }
      ],
      "stateMutability": "view",
      "type": "function"
    },
    {
      "inputs": [
        {
          "internalType": "uint256",
          "name": "tokenId",
          "type": "uint256"
        }
      ],
      "name": "tokenURI",
      "outputs": [
        {
          "internalType": "string",
          "name": "",
          "type": "string"
        }
      ],
      "stateMutability": "view",
      "type": "function"
    },
    {
      "inputs": [
        {
          "internalType": "address",
          "name": "from",
          "type": "address"
        },
        {
          "internalType": "address",
          "name": "to",
          "type": "address"
        },
        {
          "internalType": "uint256",
          "name": "tokenId",
          "type": "uint256"
        }
      ],
      "name": "transferFrom",
      "outputs": [],
      "stateMutability": "nonpayable",
      "type": "function"
    },
    {
      "inputs": [],
      "name": "unpause",
      "outputs": [],
      "stateMutability": "nonpayable",
      "type": "function"
    },
    {
      "inputs": [
        {
          "internalType": "uint256",
          "name": "tokenId",
          "type": "uint256"
        },
        {
          "internalType": "string",
          "name": "studentName",
          "type": "string"
        },
        {
          "internalType": "string",
          "name": "department",
          "type": "string"
        }
      ],
      "name": "updateCertificateDetails",
      "outputs": [],
      "stateMutability": "nonpayable",
      "type": "function"
    },
    {
      "inputs": [
        {
          "internalType": "uint256",
          "name": "tokenId",
          "type": "uint256"
        },
        {
          "internalType": "string",
          "name": "studentPhoto",
          "type": "string"
        }
      ],
      "name": "updateSemesterCertificatePhoto",
      "outputs": [],
      "stateMutability": "nonpayable",
      "type": "function"
    },
    {
      "inputs": [
        {
          "internalType": "string",
          "name": "",
          "type": "string"
        }
      ],
      "name": "usedHashes",
      "outputs": [
        {
          "internalType": "bool",
          "name": "",
          "type": "bool"
        }
      ],
      "stateMutability": "view",
      "type": "function"
    },
    {
      "inputs": [
        {
          "internalType": "string",
          "name": "",
          "type": "string"
        }
      ],
      "name": "usedMemoNumbers",
      "outputs": [
        {
          "internalType": "bool",
          "name": "",
          "type": "bool"
        }
      ],
      "stateMutability": "view",
      "type": "function"
    },
    {
      "inputs": [
        {
          "internalType": "string",
          "name": "",
          "type": "string"
        }
      ],
      "name": "usedSerialNumbers",
      "outputs": [
        {
          "internalType": "bool",
          "name": "",
          "type": "bool"
        }
      ],
      "stateMutability": "view",
      "type": "function"
    },
    {
      "inputs": [
        {
          "internalType": "uint256",
          "name": "tokenId",
          "type": "uint256"
        }
      ],
      "name": "verifyCertificate",
      "outputs": [
        {
          "components": [
            {
              "internalType": "string",
              "name": "studentName",
              "type": "string"
            },
            {
              "internalType": "string",
              "name": "courseName",
              "type": "string"
            },
            {
              "internalType": "string",
              "name": "grade",
              "type": "string"
            },
            {
              "internalType": "string",
              "name": "ipfsHash",
              "type": "string"
            },
            {
              "internalType": "string",
              "name": "department",
              "type": "string"
            },
            {
              "internalType": "uint256",
              "name": "issueDate",
              "type": "uint256"
            },
            {
              "internalType": "bool",
              "name": "isRevoked",
              "type": "bool"
            },
            {
              "internalType": "address",
              "name": "issuer",
              "type": "address"
            }
          ],
          "internalType": "struct CertificateNFT.CertificateData",
          "name": "certificateData",
          "type": "tuple"
        },
        {
          "internalType": "bool",
          "name": "isValid",
          "type": "bool"
        }
      ],
      "stateMutability": "view",
      "type": "function"
    },
    {
      "inputs": [
        {
          "internalType": "uint256",
          "name": "tokenId",
          "type": "uint256"
        }
      ],
      "name": "verifySemesterCertificate",
      "outputs": [
        {
          "components": [
            {
              "internalType": "string",
              "name": "studentName",
              "type": "string"
            },
            {
              "internalType": "string",
              "name": "serialNo",
              "type": "string"
            },
            {
              "internalType": "string",
              "name": "memoNo",
              "type": "string"
            },
            {
              "internalType": "string",
              "name": "regdNo",
              "type": "string"
            },
            {
              "internalType": "string",
              "name": "branch",
              "type": "string"
            },
            {
              "internalType": "string",
              "name": "examination",
              "type": "string"
            },
            {
              "internalType": "string",
              "name": "monthYearExams",
              "type": "string"
            },
            {
              "internalType": "string",
              "name": "aadharNo",
              "type": "string"
            },
            {
              "internalType": "string",
              "name": "studentPhoto",
              "type": "string"
            },
            {
              "components": [
                {
                  "internalType": "string",
                  "name": "courseCode",
                  "type": "string"
                },
                {
                  "internalType": "string",
                  "name": "courseTitle",
                  "type": "string"
                },
                {
                  "internalType": "string",
                  "name": "gradeSecured",
                  "type": "string"
                },
                {
                  "internalType": "uint256",
                  "name": "gradePoints",
                  "type": "uint256"
                },
                {
                  "internalType": "string",
                  "name": "status",
                  "type": "string"
                },
                {
                  "internalType": "uint256",
                  "name": "creditsObtained",
                  "type": "uint256"
                }
              ],
              "internalType": "struct CertificateNFT.Course[]",
              "name": "courses",
              "type": "tuple[]"
            },
            {
              "internalType": "uint256",
              "name": "totalCredits",
              "type": "uint256"
            },
            {
              "internalType": "uint256",
              "name": "sgpa",
              "type": "uint256"
            },
            {
              "internalType": "string",
              "name": "mediumOfInstruction",
              "type": "string"
            },
            {
              "internalType": "uint256",
              "name": "issueDate",
              "type": "uint256"
            },
            {
              "internalType": "address",
              "name": "issuer",
              "type": "address"
            },
            {
              "internalType": "bool",
              "name": "isRevoked",
              "type": "bool"
            }
          ],
          "internalType": "struct CertificateNFT.SemesterCertificate",
          "name": "certificateData",
          "type": "tuple"
        },
        {
          "internalType": "bool",
          "name": "isValid",
          "type": "bool"
        }
      ],
      "stateMutability": "view",
      "type": "function"
    }
  ],
  "bytecode": "0x60803462000346576001600160401b0390604090808201838111828210176200033057825260128152602092715669676e616e20436572746966696361746560701b848301528251838101818110838211176200033057845260068152652b24a3a720a760d11b85820152825190828211620003305760008054926001958685811c9516801562000325575b8986101462000311578190601f95868111620002be575b5089908683116001146200025a5784926200024e575b5050600019600383901b1c191690861b1781555b81519384116200023a5784548581811c911680156200022f575b888210146200021b57838111620001d3575b50869284116001146200016d5783949596509262000161575b5050600019600383901b1c191690821b1790555b60ff19600854166008556200013a336200034b565b506200014633620003cc565b5062000152336200046f565b50516156a090816200050e8239f35b01519050388062000111565b9190601f1984169685845280842093905b888210620001bb5750508385969710620001a1575b505050811b01905562000125565b015160001960f88460031b161c1916905538808062000193565b8087859682949686015181550195019301906200017e565b8582528782208480870160051c8201928a881062000211575b0160051c019086905b82811062000205575050620000f8565b838155018690620001f5565b92508192620001ec565b634e487b7160e01b82526022600452602482fd5b90607f1690620000e6565b634e487b7160e01b81526041600452602490fd5b015190503880620000b8565b8480528a85208994509190601f198416865b8d828210620002a757505084116200028d575b505050811b018155620000cc565b015160001960f88460031b161c191690553880806200027f565b8385015186558c979095019493840193016200026c565b9091508380528984208680850160051c8201928c861062000307575b918a91869594930160051c01915b828110620002f8575050620000a2565b8681558594508a9101620002e8565b92508192620002da565b634e487b7160e01b83526022600452602483fd5b94607f16946200008b565b634e487b7160e01b600052604160045260246000fd5b600080fd5b6001600160a01b031660008181527f6d5257204ebe7d88fd91ae87941cb2dd9d8062b64ae5a2bd2d28ec40b9fbf6df602052604081205490919060ff16620003c85781805260076020526040822081835260205260408220600160ff19825416179055339160008051602062005bae8339815191528180a4600190565b5090565b6001600160a01b031660008181527fa70365933f78520ef41d6645ba61e509916296603327302d41466c063e8e260860205260408120549091907fa49807205ce4d355092ef5a8a18f56e8913cf4a201fbe287825b095693c217759060ff166200046a5780835260076020526040832082845260205260408320600160ff1982541617905560008051602062005bae833981519152339380a4600190565b505090565b6001600160a01b031660008181527fa4bfd7afe708e2e87e7f0e2ad9b4d545417e0f795f57b5c5ab5d799c565a04f460205260408120549091907f9f2df0fed2c77648de5860a4cc508cd0818c85b8b8a1ab4ceeef8d981c8956a69060ff166200046a5780835260076020526040832082845260205260408320600160ff1982541617905560008051602062005bae833981519152339380a460019056fe608080604052600436101561001357600080fd5b60003560e01c90816301ffc9a714613d005750806306f5497e14613c5257806306fdde0314613baf578063081812fc14613b70578063095ea7b314613a6f5780631692a94214613a3c5780631f7ca1441461055157806320d993b7146138ef578063234f8d671461385a57806323b872dd146138d8578063248a9ca3146138a95780632b0ec45e1461385a5780632b62a74c146137925780632f2ff15d1461375357806331494bbb1461367357806336568abe146136145780633b01aa481461359c5780633f4ba83a1461351a5780634055e0e114611c7f57806342842e0e14611c515780635153a7d214611ab557806355f804b31461193b5780635c975abb146119185780636352211e146118e9578063663b3e221461180057806370a082311461178f57806375b238fc146117545780638456cb59146116fa57806391d14854146116ac578063929c01fd14610c9757806395d89b4114610bb85780639d093afa14610905578063a217fddf146108e9578063a22cb46514610823578063a6f569fc146107e0578063b88d4fde14610775578063b8dcf6c81461072d578063bd1f5f31146106de578063c3934f0e14610688578063c87b56dd1461062f578063d5391393146105f4578063d547741f146105b3578063de7c3a3914610551578063e985e9c5146104fa578063ebc63bc014610476578063f31a9d17146102685763fe8aa2c51461022457600080fd5b346102635760203660031901126102635761025761024360043561547a565b6040519283926040845260408401906142c7565b90151560208301520390f35b600080fd5b3461026357602036600319011261026357600435610284615405565b508060005260026020526102a76001600160a01b03604060002054161515615275565b600052600e60205260406000206040516102c081613f41565b6102c982614209565b81526102d760018301614209565b60208201526102e860028301614209565b60408201526102f960038301614209565b606082015261030a60048301614209565b608082015261031b60058301614209565b60a082015261032c60068301614209565b60c082015261033d60078301614209565b60e082015261034e60088301614209565b61010082015260098201805461036381614099565b916103716040519384613f96565b818352602083019060005260206000206000915b838310610405576104018660ff600e8a89610120850152600a810154610140850152600b8101546101608501526103be600c8201614209565b610180850152600d8101546101a085015201546001600160a01b0381166101c084015260a01c1615156101e08201526040519182916020835260208301906142c7565b0390f35b6006602060019260405161041881613f5e565b61042186614209565b815261042e858701614209565b8382015261043e60028701614209565b60408201526003860154606082015261045960048701614209565b6080820152600586015460a0820152815201920192019190610385565b3461026357602080600319360112610263576001600160a01b03610498613e65565b16600052600c8152604060002090604051908181845491828152019360005281600020916000905b8282106104e357610401856104d781890382613f96565b6040519182918261405e565b8354865294850194600193840193909101906104c0565b3461026357604036600319011261026357610513613e65565b61051b613e7b565b906001600160a01b03809116600052600560205260406000209116600052602052602060ff604060002054166040519015158152f35b346102635760203660031901126102635760043567ffffffffffffffff81116102635760ff61059d602061058a8194369060040161400b565b8160405193828580945193849201613e1d565b8101601181520301902054166040519015158152f35b34610263576040366003190112610263576105f26004356105d2613e7b565b908060005260076020526105ed6001604060002001546145a8565b61464f565b005b346102635760003660031901126102635760206040517f9f2df0fed2c77648de5860a4cc508cd0818c85b8b8a1ab4ceeef8d981c8956a68152f35b346102635760203660031901126102635760043561064c8161489c565b5060005260066020526104016106656040600020614209565b600060405161067381613f7a565b52604051918291602083526020830190613e40565b34610263576040366003190112610263576106a1613e65565b6001600160a01b036024359116600052600c60205260406000208054821015610263576020916106d0916142af565b90546040519160031b1c8152f35b346102635760203660031901126102635760043567ffffffffffffffff81116102635760ff610717602061058a8194369060040161400b565b8101600d81520301902054166040519015158152f35b3461026357604036600319011261026357610746613e65565b6001600160a01b036024359116600052600f60205260406000208054821015610263576020916106d0916142af565b346102635760803660031901126102635761078e613e65565b610796613e7b565b906044356064359267ffffffffffffffff84116102635736602385011215610263576107cf6105f2943690602481600401359101613fd4565b926107db8383836146c7565b6148d7565b346102635760203660031901126102635760043567ffffffffffffffff81116102635761081b61081660209236906004016140b1565b6152e1565b604051908152f35b346102635760403660031901126102635761083c613e65565b6024359081151590818303610263576001600160a01b03169182156108b85761088a9033600052600560205260406000208460005260205260406000209060ff801983541691151516179055565b6040519081527f17307eab39ab6107e8899845ad3d59bd9653f200f220920489ca2b5937696c3160203392a3005b602483604051907f5b08ba180000000000000000000000000000000000000000000000000000000082526004820152fd5b3461026357600036600319011261026357602060405160008152f35b346102635760603660031901126102635767ffffffffffffffff6004356024358281116102635761093a90369060040161400b565b916044358181116102635761095390369060040161400b565b9261095c6144b9565b82600052602092600284526109806001600160a01b036040600020541615156150db565b80600052600b845260406000208251848111610ae357806109a183546141cf565b94601f95868111610b69575b508790868311600114610b0457600092610af9575b50508160011b916000199060031b1c19161790555b600052600b83526004604060002001928451928311610ae3576109fa84546141cf565b828111610aa0575b5080918311600114610a3d5750819293600092610a32575b5050600019600383901b1c191660019190911b179055005b015190508380610a1a565b90601f198316948460005282600020926000905b878210610a88575050836001959610610a6f575b505050811b019055005b015160001960f88460031b161c19169055838080610a65565b80600185968294968601518155019501930190610a51565b84600052816000208380860160051c820192848710610ada575b0160051c01905b818110610ace5750610a02565b60008155600101610ac1565b92508192610aba565b634e487b7160e01b600052604160045260246000fd5b0151905088806109c2565b60008581528981209350601f198516905b8a828210610b53575050908460019594939210610b3a575b505050811b0190556109d7565b015160001960f88460031b161c19169055888080610b2d565b6001859682939686015181550195019301610b15565b90915083600052876000208680850160051c8201928a8610610baf575b9085949392910160051c01905b818110610ba057506109ad565b60008155849350600101610b93565b92508192610b86565b346102635760003660031901126102635760405160006001805490610bdc826141cf565b80855291818116908115610c705750600114610c17575b61040184610c0381860382613f96565b604051918291602083526020830190613e40565b600081815292507fb10e2d527612073b26eecdfd717e6a320cf44b4afac2b0732d9fcbe2b7fa0cf65b828410610c58575050508101602001610c0382610bf3565b80546020858701810191909152909301928101610c40565b60ff191660208087019190915292151560051b85019092019250610c039150839050610bf3565b3461026357608036600319011261026357610cb0613e65565b60243567ffffffffffffffff811161026357610cd090369060040161400b565b60443567ffffffffffffffff811161026357610cf090369060040161400b565b9160643567ffffffffffffffff811161026357610d1190369060040161400b565b90610d1a61454c565b610d22614f30565b610d366001600160a01b0382161515614a1c565b82511561166857835115611624578151156115e05760ff6040516020818551610d628183858a01613e1d565b8101600d815203019020541661159c57610d7d600954614a67565b9283600955604051610d8e81613f24565b604051610d9a81613f7a565b600081528152816020820152856040820152836060820152604051610dbe81613f7a565b6000815260808201524260a0820152600060c08201523360e082015284600052600b6020526040600020815180519067ffffffffffffffff8211610ae3578190610e0884546141cf565b601f811161154c575b50602090601f83116001146114e6576000926114db575b50508160011b916000199060031b1c19161781555b602082015180519067ffffffffffffffff8211610ae3578190610e6360018501546141cf565b601f8111611488575b50602090601f83116001146114165760009261140b575b50508160011b916000199060031b1c19161760018201555b604082015180519067ffffffffffffffff8211610ae3578190610ec160028501546141cf565b601f81116113b8575b50602090601f83116001146113465760009261133b575b50508160011b916000199060031b1c19161760028201555b606082015180519067ffffffffffffffff8211610ae3578190610f1f60038501546141cf565b601f81116112e8575b50602090601f83116001146112765760009261126b575b50508160011b916000199060031b1c19161760038201555b608082015180519067ffffffffffffffff8211610ae357610f7b60048401546141cf565b601f8111611224575b509160209893918895938a90601f831160011461117957947f2242ed4813396c04bea58b1d1874b4edb999b043d0b6a9da1d585671d0802b38969460e060066001600160a01b03968661115a9761112a9761114c9c60009261116e575b50508160011b916000199060031b1c19161760048201555b60a08401516005820155019161102160c08201511515849060ff801983541691151516179055565b01517fffffffffffffffffffffff0000000000000000000000000000000000000000ff74ffffffffffffffffffffffffffffffffffffffff0083549260081b169116179055838916600052600c8c5261107e886040600020614a8c565b6110968c8b8160405193828580945193849201613e1d565b8101600d815203019020600160ff198254161790556110b5888a614b75565b6111256110c189614f66565b61111f60016040516020936110d882958301614ac6565b7f2f00000000000000000000000000000000000000000000000000000000000000815261110f825160209381948785019101613e1d565b0103601e19810184520182613f96565b89614dba565b614b55565b97604051948594608086526000608087015260a08d87015260a0860190613e40565b908482036040860152613e40565b9542606084015216940390a4604051908152f35b015190503880610fe1565b90600484016000528b6000209160005b601f198516811061120a57509460e060066001600160a01b039660018761112a9761114c9c977f2242ed4813396c04bea58b1d1874b4edb999b043d0b6a9da1d585671d0802b389e9c61115a9b601f198116106111f1575b505050811b016004820155610ff9565b015160001960f88460031b161c191690553880806111e1565b8183015184558c9950600190930192918d01918d01611189565b600484016000526020600020601f840160051c810160208510611264575b601f830160051c82018110611258575050610f84565b60008155600101611242565b5080611242565b015190508980610f3f565b9250600384016000526020600020906000935b601f19841685106112cd576001945083601f198116106112b4575b505050811b016003820155610f57565b015160001960f88460031b161c191690558980806112a4565b81810151835560209485019460019093019290910190611289565b909150600384016000526020600020601f840160051c810160208510611334575b90849392915b601f830160051c82018110611325575050610f28565b6000815585945060010161130f565b5080611309565b015190508980610ee1565b9250600284016000526020600020906000935b601f198416851061139d576001945083601f19811610611384575b505050811b016002820155610ef9565b015160001960f88460031b161c19169055898080611374565b81810151835560209485019460019093019290910190611359565b909150600284016000526020600020601f840160051c810160208510611404575b90849392915b601f830160051c820181106113f5575050610eca565b600081558594506001016113df565b50806113d9565b015190508980610e83565b9250600184016000526020600020906000935b601f198416851061146d576001945083601f19811610611454575b505050811b016001820155610e9b565b015160001960f88460031b161c19169055898080611444565b81810151835560209485019460019093019290910190611429565b909150600184016000526020600020601f840160051c8101602085106114d4575b90849392915b601f830160051c820181106114c5575050610e6c565b600081558594506001016114af565b50806114a9565b015190508980610e28565b6000858152602081209350601f198516905b818110611534575090846001959493921061151b575b505050811b018155610e3d565b015160001960f88460031b161c1916905589808061150e565b929360206001819287860151815501950193016114f8565b909150836000526020600020601f840160051c810160208510611595575b90849392915b601f830160051c82018110611586575050610e11565b60008155859450600101611570565b508061156a565b606460405162461bcd60e51b815260206004820152601660248201527f49504653206861736820616c72656164792075736564000000000000000000006044820152fd5b606460405162461bcd60e51b815260206004820152601960248201527f4950465320686173682063616e6e6f7420626520656d707479000000000000006044820152fd5b606460405162461bcd60e51b815260206004820152601560248201527f47726164652063616e6e6f7420626520656d70747900000000000000000000006044820152fd5b606460405162461bcd60e51b815260206004820152601b60248201527f436f75727365206e616d652063616e6e6f7420626520656d70747900000000006044820152fd5b34610263576040366003190112610263576116c5613e7b565b60043560005260076020526001600160a01b0360406000209116600052602052602060ff604060002054166040519015158152f35b34610263576000366003190112610263576117136144b9565b61171b614f30565b600160ff1960085416176008557f62e78cea01bee320cd4e420270b5ea74000d11b0c9f74754ebdbfc544b05a2586020604051338152a1005b346102635760003660031901126102635760206040517fa49807205ce4d355092ef5a8a18f56e8913cf4a201fbe287825b095693c217758152f35b34610263576020366003190112610263576001600160a01b036117b0613e65565b1680156117cf5760005260036020526020604060002054604051908152f35b60246040517f89c62b6400000000000000000000000000000000000000000000000000000000815260006004820152fd5b3461026357602036600319011261026357600435600052600b602052611893604060002061182d81614209565b906001600160a01b0361184260018301614209565b6118cb61185160028501614209565b6118bd61186060038701614209565b6118af61186f60048901614209565b936118a1600660058b01549a0154976040519c8d9c8d610100908181520190613e40565b8c810360208e015290613e40565b908a820360408c0152613e40565b9088820360608a0152613e40565b908682036080880152613e40565b9260a085015260ff8116151560c085015260081c1660e08301520390f35b3461026357602036600319011261026357602061190760043561489c565b6001600160a01b0360405191168152f35b3461026357600036600319011261026357602060ff600854166040519015158152f35b34610263576020806003193601126102635767ffffffffffffffff6004358181116102635761196e90369060040161400b565b916119776144b9565b8251918211610ae35761198b600a546141cf565b601f8111611a51575b5080601f83116001146119d0575081926000926119c5575b5050600019600383901b1c191660019190911b17600a55005b0151905082806119ac565b90601f19831693600a6000527fc65a7bb8d6351c1cf70c95a316cc6a92839c986682d98bc35f958f4883f9d2a8926000905b868210611a395750508360019510611a20575b505050811b01600a55005b015160001960f88460031b161c19169055828080611a15565b80600185968294968601518155019501930190611a02565b600a6000527fc65a7bb8d6351c1cf70c95a316cc6a92839c986682d98bc35f958f4883f9d2a8601f840160051c810191838510611aab575b601f0160051c01905b818110611a9f5750611994565b60008155600101611a92565b9091508190611a89565b3461026357602036600319011261026357600435600052600e6020526040600020611adf81614209565b611aeb60018301614209565b91611af860028201614209565b611b0460038301614209565b611b1060048401614209565b611b1c60058501614209565b90611b2960068601614209565b611b3560078701614209565b611b4160088801614209565b91600a88015494600b89015494600c8a01611b5b90614209565b97600d8b01549a600e0154996040519d8e809e6101e08083528201611b7f91613e40565b908082039060200152611b9191613e40565b8d810360408f0152611ba291613e40565b8c810360608e0152611bb391613e40565b8b810360808d0152611bc491613e40565b8a810360a08c0152611bd591613e40565b89810360c08b0152611be691613e40565b88810360e08a0152611bf791613e40565b878103610100890152611c0991613e40565b91610120870152610140860152848103610160860152611c2891613e40565b916101808401526001600160a01b0381166101a084015260a01c60ff1615156101c08301520390f35b34610263576105f2611c6236614029565b9060405192611c7084613f7a565b600084526107db8383836146c7565b346102635760031960803682011261026357611c99613e65565b60243567ffffffffffffffff811161026357611cb990369060040161400b565b60443567ffffffffffffffff811161026357611cd990369060040161400b565b9260649067ffffffffffffffff82351161026357610200908235360301126102635760405190611d0882613f41565b80356004013567ffffffffffffffff811161026357611d2e90600436918435010161400b565b825260248135013567ffffffffffffffff811161026357611d5690600436918435010161400b565b602083015260448135013567ffffffffffffffff811161026357611d8190600436918435010161400b565b6040830152808035013567ffffffffffffffff811161026357611dab90600436918435010161400b565b606083015267ffffffffffffffff6084823501351161026357611dd836823560848101350160040161400b565b608083015267ffffffffffffffff60a4823501351161026357611e0536823560a48101350160040161400b565b60a083015267ffffffffffffffff60c4823501351161026357611e3236823560c48101350160040161400b565b60c083015267ffffffffffffffff60e4823501351161026357611e5f36823560e48101350160040161400b565b60e083015267ffffffffffffffff610104823501351161026357611e8e3682356101048101350160040161400b565b61010083015267ffffffffffffffff610124823501351161026357611ebe368235610124810135016004016140b1565b610120830152610144813501356101408301526101648135013561016083015267ffffffffffffffff610184823501351161026357611f083682356101848101350160040161400b565b61018083015280356101a48101356101a08401526101c401356001600160a01b03811690036102635780356101c48101356101c08401526101e401358015159003610263576101e4813501356101e0830152611f6261454c565b611f6a614f30565b611f7e6001600160a01b0385161515614a1c565b8251156134d8578451156134965760ff6040516020818651611fa38183858b01613e1d565b8101601181520301902054166134545760ff6040516020818851611fca8183858d01613e1d565b81016010815203019020541661341257815151156133d057606082015151156133665761012082015151156133245750612005600954614a67565b90816009556120186101208201516152e1565b82600052600e602052604060002095825180519067ffffffffffffffff8211610ae35781906120478a546141cf565b601f81116132d4575b50602090601f83116001146132685760009261325d575b50508160011b916000199060031b1c19161787555b845167ffffffffffffffff8111610ae35761209a60018901546141cf565b601f8111613216575b50806020601f82116001146131a95760009161319e575b508160011b916000199060031b1c19161760018801555b805167ffffffffffffffff8111610ae3576120ef60028901546141cf565b601f8111613157575b50806020601f82116001146130ea576000916130df575b508160011b916000199060031b1c19161760028801555b606083015180519067ffffffffffffffff8211610ae357819061214c60038b01546141cf565b601f811161308c575b50602090601f831160011461301a5760009261300f575b50508160011b916000199060031b1c19161760038801555b608083015180519067ffffffffffffffff8211610ae35781906121aa60048b01546141cf565b601f8111612fbc575b50602090601f8311600114612f4a57600092612f3f575b50508160011b916000199060031b1c19161760048801555b60a083015180519067ffffffffffffffff8211610ae357819061220860058b01546141cf565b601f8111612eec575b50602090601f8311600114612e7a57600092612e6f575b50508160011b916000199060031b1c19161760058801555b60c083015180519067ffffffffffffffff8211610ae357819061226660068b01546141cf565b601f8111612e1c575b50602090601f8311600114612daa57600092612d9f575b50508160011b916000199060031b1c19161760068801555b60e083015180519067ffffffffffffffff8211610ae35781906122c460078b01546141cf565b601f8111612d4c575b50602090601f8311600114612cda57600092612ccf575b50508160011b916000199060031b1c19161760078801555b61010083015180519067ffffffffffffffff8211610ae357819061232360088b01546141cf565b601f8111612c7c575b50602090601f8311600114612c0a57600092612bff575b50508160011b916000199060031b1c19161760088801555b610140830151600a88015581600b88015561018083015180519067ffffffffffffffff8211610ae3578190612393600c8b01546141cf565b601f8111612bac575b50602090601f8311600114612b3a57600092612b2f575b50508160011b916000199060031b1c191617600c8801555b42600d880155600e870180547fffffffffffffffffffffff000000000000000000000000000000000000000000163360ff60a01b191617905560005b61012084015180518210156129a25781612420916152c0565b5160098901549068010000000000000000821015610ae357600182018060098c015582101561298c5760098a01600052602060002090805180519067ffffffffffffffff8211610ae357819061247b600687028601546141cf565b601f8111612937575b50602090601f83116001146128c1576000926128b6575b50508160011b916000199060031b1c191617600684028301555b602081015180519067ffffffffffffffff8211610ae35781906124e0600160068802870101546141cf565b601f811161285e575b50602090601f83116001146127e2576000926127d7575b50508160011b916000199060031b1c191617600160068502840101555b604081015180519067ffffffffffffffff8211610ae3578190612548600260068802870101546141cf565b601f811161277f575b50602090601f8311600114612703576000926126f8575b50508160011b916000199060031b1c191617600260068502840101555b606081015160036006850284010155608081015180519067ffffffffffffffff8211610ae3576125bd600460068702860101546141cf565b601f81116126ac575b50602090601f831160011461262657600593836126169897969460069460a09460009261261b575b50508160011b916000199060031b1c1916176004848802860101555b01519302010155614a67565b612407565b0151905038806125ee565b9060046006870286010160005260206000209160005b601f198516811061269457509360018460069460a0946005986126169c9b9a98601f1981161061267b575b505050811b0160048488028601015561260a565b015160001960f88460031b161c19169055388080612667565b9192602060018192868501518155019401920161263c565b6004600687028601016000526020600020601f840160051c8101602085106126f1575b601f830160051c820181106126e55750506125c6565b600081556001016126cf565b50806126cf565b015190508d80612568565b92506002600687028601016000526020600020906000935b601f1984168510612764576001945083601f1981161061274b575b505050811b0160026006850284010155612585565b015160001960f88460031b161c191690558d8080612736565b8181015183556020948501946001909301929091019061271b565b9091506002600687028601016000526020600020601f840160051c8101602085106127d0575b90849392915b601f830160051c820181106127c1575050612551565b600081558594506001016127ab565b50806127a5565b015190508d80612500565b92506001600687028601016000526020600020906000935b601f1984168510612843576001945083601f1981161061282a575b505050811b016001600685028401015561251d565b015160001960f88460031b161c191690558d8080612815565b818101518355602094850194600190930192909101906127fa565b9091506001600687028601016000526020600020601f840160051c8101602085106128af575b90849392915b601f830160051c820181106128a05750506124e9565b6000815585945060010161288a565b5080612884565b015190508d8061249b565b92506006860285016000526020600020906000935b601f198416851061291c576001945083601f19811610612903575b505050811b01600684028301556124b5565b015160001960f88460031b161c191690558d80806128f1565b818101518355602094850194600190930192909101906128d6565b9091506006860285016000526020600020601f840160051c810160208510612985575b90849392915b601f830160051c82018110612976575050612484565b60008155859450600101612960565b508061295a565b634e487b7160e01b600052603260045260246000fd5b50507e6260462507cd85b27ab0f8b3eb749422a22e01f982f4dfa3fdb78b97f7e810612aec85926001600160a01b0389612b1660209a838316600052600f8c526129f0886040600020614a8c565b6040518c818351612a048183858801613e1d565b8101601181520301902060ff199060018282541617905560016040518e8181612a338b83815193849201613e1d565b8101601081520301902091825416179055612a4e8884614b75565b612ab8612a5a89614f66565b61111f600a604051602093612a7182958301614ac6565b7f2f73656d65737465722f000000000000000000000000000000000000000000008152612aa8825160209381948785019101613e1d565b0103601519810184520182613f96565b612b0860608b01519a612afa612ad760a0608084015193015194614b55565b9c604051998a9960c08b5260c08b0190613e40565b9089820360208b0152613e40565b908782036040890152613e40565b908582036060870152613e40565b9660808401524260a084015216940390a4604051908152f35b0151905089806123b3565b9250600c8a016000526020600020906000935b601f1984168510612b91576001945083601f19811610612b78575b505050811b01600c8801556123cb565b015160001960f88460031b161c19169055898080612b68565b81810151835560209485019460019093019290910190612b4d565b909150600c8a016000526020600020601f840160051c810160208510612bf8575b90849392915b601f830160051c82018110612be957505061239c565b60008155859450600101612bd3565b5080612bcd565b015190508980612343565b925060088a016000526020600020906000935b601f1984168510612c61576001945083601f19811610612c48575b505050811b01600888015561235b565b015160001960f88460031b161c19169055898080612c38565b81810151835560209485019460019093019290910190612c1d565b90915060088a016000526020600020601f840160051c810160208510612cc8575b90849392915b601f830160051c82018110612cb957505061232c565b60008155859450600101612ca3565b5080612c9d565b0151905089806122e4565b925060078a016000526020600020906000935b601f1984168510612d31576001945083601f19811610612d18575b505050811b0160078801556122fc565b015160001960f88460031b161c19169055898080612d08565b81810151835560209485019460019093019290910190612ced565b90915060078a016000526020600020601f840160051c810160208510612d98575b90849392915b601f830160051c82018110612d895750506122cd565b60008155859450600101612d73565b5080612d6d565b015190508980612286565b925060068a016000526020600020906000935b601f1984168510612e01576001945083601f19811610612de8575b505050811b01600688015561229e565b015160001960f88460031b161c19169055898080612dd8565b81810151835560209485019460019093019290910190612dbd565b90915060068a016000526020600020601f840160051c810160208510612e68575b90849392915b601f830160051c82018110612e5957505061226f565b60008155859450600101612e43565b5080612e3d565b015190508980612228565b925060058a016000526020600020906000935b601f1984168510612ed1576001945083601f19811610612eb8575b505050811b016005880155612240565b015160001960f88460031b161c19169055898080612ea8565b81810151835560209485019460019093019290910190612e8d565b90915060058a016000526020600020601f840160051c810160208510612f38575b90849392915b601f830160051c82018110612f29575050612211565b60008155859450600101612f13565b5080612f0d565b0151905089806121ca565b925060048a016000526020600020906000935b601f1984168510612fa1576001945083601f19811610612f88575b505050811b0160048801556121e2565b015160001960f88460031b161c19169055898080612f78565b81810151835560209485019460019093019290910190612f5d565b90915060048a016000526020600020601f840160051c810160208510613008575b90849392915b601f830160051c82018110612ff95750506121b3565b60008155859450600101612fe3565b5080612fdd565b01519050898061216c565b925060038a016000526020600020906000935b601f1984168510613071576001945083601f19811610613058575b505050811b016003880155612184565b015160001960f88460031b161c19169055898080613048565b8181015183556020948501946001909301929091019061302d565b90915060038a016000526020600020601f840160051c8101602085106130d8575b90849392915b601f830160051c820181106130c9575050612155565b600081558594506001016130b3565b50806130ad565b90508201518961210f565b91506002890160005260206000206000925b601f198316841061313f576001935082601f19811610613126575b5050811b016002880155612126565b84015160001960f88460031b161c191690558980613117565b848101518255602093840193600190920191016130fc565b600289016000526020600020601f830160051c810160208410613197575b601f830160051c8201811061318b5750506120f8565b60008155600101613175565b5080613175565b9050860151896120ba565b91506001890160005260206000206000925b601f19831684106131fe576001935082601f198116106131e5575b5050811b0160018801556120d1565b88015160001960f88460031b161c1916905589806131d6565b888101518255602093840193600190920191016131bb565b600189016000526020600020601f830160051c810160208410613256575b601f830160051c8201811061324a5750506120a3565b60008155600101613234565b5080613234565b015190508980612067565b9250896000526020600020906000935b601f19841685106132b9576001945083601f198116106132a0575b505050811b01875561207c565b015160001960f88460031b161c19169055898080613293565b81810151835560209485019460019093019290910190613278565b909150896000526020600020601f840160051c81016020851061331d575b90849392915b601f830160051c8201811061330e575050612050565b600081558594506001016132f8565b50806132f2565b60405162461bcd60e51b815260206004820152601c60248201527f4174206c65617374206f6e6520636f75727365207265717569726564000000006044820152fd5b6084907f70747900000000000000000000000000000000000000000000000000000000006040519162461bcd60e51b835260206004840152602360248401527f526567697374726174696f6e206e756d6265722063616e6e6f7420626520656d6044840152820152fd5b60405162461bcd60e51b815260206004820152601c60248201527f53747564656e74206e616d652063616e6e6f7420626520656d707479000000006044820152fd5b60405162461bcd60e51b815260206004820152601860248201527f4d656d6f206e756d62657220616c7265616479207573656400000000000000006044820152fd5b60405162461bcd60e51b815260206004820152601a60248201527f53657269616c206e756d62657220616c726561647920757365640000000000006044820152fd5b60405162461bcd60e51b815260206004820152601b60248201527f4d656d6f206e756d6265722063616e6e6f7420626520656d70747900000000006044820152fd5b60405162461bcd60e51b815260206004820152601d60248201527f53657269616c206e756d6265722063616e6e6f7420626520656d7074790000006044820152fd5b34610263576000366003190112610263576135336144b9565b60085460ff8116156135725760ff19166008557f5db9ee0a495bf2e6ff9c91a7834c1ba4fdd244a5e8aa4e537bd38aeae4b073aa6020604051338152a1005b60046040517f8dfc202b000000000000000000000000000000000000000000000000000000008152fd5b3461026357602080600319360112610263576001600160a01b036135be613e65565b16600052600f8152604060002090604051908181845491828152019360005281600020916000905b8282106135fd57610401856104d781890382613f96565b8354865294850194600193840193909101906135e6565b346102635760403660031901126102635761362d613e7b565b336001600160a01b03821603613649576105f29060043561464f565b60046040517f6697b232000000000000000000000000000000000000000000000000000000008152fd5b34610263576020806003193601126102635760043590613691615171565b5081600052600281526001600160a01b03916136b583604060002054161515615275565b600052600b81526040600020916006604051936136d185613f24565b6136da81614209565b85526136e860018201614209565b848601526136f860028201614209565b604086015261370960038201614209565b606086015261371a60048201614209565b6080860152600581015460a0860152015460ff8116151560c085015260081c1660e0830152610401604051928284938452830190613e91565b34610263576040366003190112610263576105f2600435613772613e7b565b9080600052600760205261378d6001604060002001546145a8565b6145ce565b34610263576020366003190112610263576004356137ae6144b9565b8060005260026020526001600160a01b03906137d2826040600020541615156150db565b80600052600e6020526137f360ff600e6040600020015460a01c1615615126565b80600052600e602052600e6040600020017401000000000000000000000000000000000000000060ff60a01b1982541617905561382f8161489c565b339216907f852d5d4a823318018cabc1f51b12ef417cefaa75696231006c99935c2b990150600080a4005b346102635760203660031901126102635760043567ffffffffffffffff81116102635760ff613893602061058a8194369060040161400b565b8101601081520301902054166040519015158152f35b346102635760203660031901126102635760043560005260076020526020600160406000200154604051908152f35b34610263576105f26138e936614029565b916146c7565b346102635760403660031901126102635767ffffffffffffffff6004356024358281116102635761392490369060040161400b565b9161392d6144b9565b81600052602091600283526139516001600160a01b036040600020541615156150db565b600052600e82526008604060002001918351918211610ae35761397483546141cf565b601f81116139f6575b5080601f83116001146139ad5750819293600092610a32575050600019600383901b1c191660019190911b179055005b90601f198316948460005282600020926000905b8782106139de575050836001959610610a6f57505050811b019055005b806001859682949686015181550195019301906139c1565b8360005281600020601f840160051c810191838510613a32575b601f0160051c01905b818110613a26575061397d565b60008155600101613a19565b9091508190613a10565b3461026357602036600319011261026357610257613a5b6004356151ae565b604051928392604084526040840190613e91565b3461026357604036600319011261026357613a88613e65565b602435613a948161489c565b33151580613b5d575b80613b2f575b613aff5781906001600160a01b03809416938491167f8c5be1e5ebec7d5bd14f71427d1e84f3dd0314c0f7b2291e5b200ac8c7c3b925600080a460005260046020526040600020906001600160a01b0319825416179055600080f35b60246040517fa9fbf51f000000000000000000000000000000000000000000000000000000008152336004820152fd5b506001600160a01b038116600052600560205260406000203360005260205260ff6040600020541615613aa3565b50336001600160a01b0382161415613a9d565b3461026357602036600319011261026357600435613b8d8161489c565b50600052600460205260206001600160a01b0360406000205416604051908152f35b346102635760003660031901126102635760405160008054613bd0816141cf565b80845290600190818116908115610c705750600114613bf95761040184610c0381860382613f96565b600080805292507f290decd9548b62a8d60345a988386fc84ba6bc95484008f6362f93160ef3e5635b828410613c3a575050508101602001610c0382610bf3565b80546020858701810191909152909301928101613c22565b3461026357602036600319011261026357600435613c6e6144b9565b8060005260026020526001600160a01b0390613c92826040600020541615156150db565b80600052600b602052613cb060ff6006604060002001541615615126565b80600052600b6020526006604060002001600160ff19825416179055613cd58161489c565b339216907f39858852dfeb2731909c1e5b973698dd12a5e54ab07cf24f5bb3ed593b31450a600080a4005b3461026357602036600319011261026357600435906001600160e01b0319821680920361026357817f7965db0b0000000000000000000000000000000000000000000000000000000060209314908115613d5c575b5015158152f35b7f4906490600000000000000000000000000000000000000000000000000000000811491508115613d8f575b5083613d55565b7f80ac58cd00000000000000000000000000000000000000000000000000000000811491508115613df3575b8115613dc9575b5083613d88565b7f01ffc9a70000000000000000000000000000000000000000000000000000000091501483613dc2565b7f5b5e139f0000000000000000000000000000000000000000000000000000000081149150613dbb565b60005b838110613e305750506000910152565b8181015183820152602001613e20565b90602091613e5981518092818552858086019101613e1d565b601f01601f1916010190565b600435906001600160a01b038216820361026357565b602435906001600160a01b038216820361026357565b9060e06001600160a01b0381613f04613ef2613ee0613ece613ebc8951610100808b528a0190613e40565b60208a015189820360208b0152613e40565b604089015188820360408a0152613e40565b60608801518782036060890152613e40565b60808701518682036080880152613e40565b9460a081015160a086015260c0810151151560c086015201511691015290565b610100810190811067ffffffffffffffff821117610ae357604052565b610200810190811067ffffffffffffffff821117610ae357604052565b60c0810190811067ffffffffffffffff821117610ae357604052565b6020810190811067ffffffffffffffff821117610ae357604052565b90601f8019910116810190811067ffffffffffffffff821117610ae357604052565b67ffffffffffffffff8111610ae357601f01601f191660200190565b929192613fe082613fb8565b91613fee6040519384613f96565b829481845281830111610263578281602093846000960137010152565b9080601f830112156102635781602061402693359101613fd4565b90565b6060906003190112610263576001600160a01b0390600435828116810361026357916024359081168103610263579060443590565b6020908160408183019282815285518094520193019160005b828110614085575050505090565b835185529381019392810192600101614077565b67ffffffffffffffff8111610ae35760051b60200190565b81601f82011215610263578035906140c882614099565b926040926140d884519586613f96565b808552602093848087019260051b8501019383851161026357858101925b858410614107575050505050505090565b67ffffffffffffffff84358181116102635783019160c09283601f19828a0301126102635785519061413882613f5e565b8a81013584811161026357898c6141519284010161400b565b82528681013584811161026357898c61416c9284010161400b565b8b83015260609485820135858111610263578a8d61418c9285010161400b565b88840152608095868301359084015260a09182810135958611610263578c966141ba8c89809985010161400b565b908501520135908201528152019301926140f6565b90600182811c921680156141ff575b60208310146141e957565b634e487b7160e01b600052602260045260246000fd5b91607f16916141de565b906040519182600082549261421d846141cf565b90818452600194858116908160001461428c5750600114614249575b505061424792500383613f96565b565b9093915060005260209081600020936000915b81831061427457505061424793508201013880614239565b8554888401850152948501948794509183019161425c565b91505061424794506020925060ff191682840152151560051b8201013880614239565b805482101561298c5760005260206000200190600090565b906142db8251610200808452830190613e40565b6142f16020918285015184820384860152613e40565b906143086040928386015185820385870152613e40565b61431e6060918287015186820384880152613e40565b916143356080938488015187820386890152613e40565b9261434c60a09485890151888203878a0152613e40565b9061438f61437b61436960c094858c01518b8203878d0152613e40565b60e08b01518a820360e08c0152613e40565b610100808b0151908a8303908b0152613e40565b9161012095868a015196898503908a01528651958685528585019386808960051b8801019901996000965b89881061442957505050505050505050506143fa915061014080850151908401526101608085015190840152610180808501519084830390850152613e40565b916101a080820151908301526101c06001600160a01b038183015116908301526101e080910151151591015290565b909192939495969798998980886001938f8a61449d6144858f6144658495614475928d601f19908a030190525197885190808952880190613e40565b888801518782038a890152613e40565b8b8701518682038d880152613e40565b8c8601518d8601528b8601518582038d870152613e40565b9301519101529d0198019801969a9998979594939291906143ba565b3360009081527fa70365933f78520ef41d6645ba61e509916296603327302d41466c063e8e260860205260409020547fa49807205ce4d355092ef5a8a18f56e8913cf4a201fbe287825b095693c217759060ff16156145155750565b604490604051907fe2517d3f0000000000000000000000000000000000000000000000000000000082523360048301526024820152fd5b3360009081527fa4bfd7afe708e2e87e7f0e2ad9b4d545417e0f795f57b5c5ab5d799c565a04f460205260409020547f9f2df0fed2c77648de5860a4cc508cd0818c85b8b8a1ab4ceeef8d981c8956a69060ff16156145155750565b80600052600760205260406000203360005260205260ff60406000205416156145155750565b9060009180835260076020526001600160a01b036040842092169182845260205260ff6040842054161560001461464a5780835260076020526040832082845260205260408320600160ff198254161790557f2f8788117e7eff1d82e926ec794901d17c78024a50270940304540a733656f0d339380a4600190565b505090565b9060009180835260076020526001600160a01b036040842092169182845260205260ff60408420541660001461464a578083526007602052604083208284526020526040832060ff1981541690557ff6391f5c32d9c69d2a47ea670b442974b53935d1edc7fd64eb21e047a839171b339380a4600190565b90916001600160a01b03809316928315614884576000928284528260209560028752604096848888205416968791331515806147d5575b509060027fddf252ad1be2c89b69c2b068fc378daa952ba7f163c4a11628f55a4df523b3ef928461479d575b858352600381528b83206001815401905586835252898120846001600160a01b031982541617905580a416928383036147635750505050565b6064945051927f64283d7b000000000000000000000000000000000000000000000000000000008452600484015260248301526044820152fd5b6147be87600052600460205260406000206001600160a01b03198154169055565b848352600381528b8320805460001901905561472a565b91939450915080614843575b156147f1578592918791386146fe565b87868861480e576024915190637e27328960e01b82526004820152fd5b60449151907f177e802f0000000000000000000000000000000000000000000000000000000082523360048301526024820152fd5b503387148015614868575b806147e157508582526004815233858984205416146147e1565b5086825260058152878220338352815260ff888320541661484e565b6024604051633250574960e11b815260006004820152fd5b8060005260026020526001600160a01b03604060002054169081156148bf575090565b60249060405190637e27328960e01b82526004820152fd5b813b6148e4575b50505050565b6001600160a01b0394919293948093169360405193630a85bd0160e11b928386523360048701521660248501526044840152608060648401528261492e6020966084830190613e40565b039285816000958187895af18491816149d8575b506149a1575050503d600014614999573d61495c81613fb8565b9061496a6040519283613f96565b81528091843d92013e5b805192836149945760248360405190633250574960e11b82526004820152fd5b019050fd5b506060614974565b9092506001600160e01b031991945016036149c05750388080806148de565b60249060405190633250574960e11b82526004820152fd5b9091508681813d8311614a15575b6149f08183613f96565b81010312614a1157516001600160e01b031981168103614a11579038614942565b8480fd5b503d6149e6565b15614a2357565b606460405162461bcd60e51b815260206004820152601760248201527f496e76616c69642073747564656e7420616464726573730000000000000000006044820152fd5b6000198114614a765760010190565b634e487b7160e01b600052601160045260246000fd5b805468010000000000000000811015610ae357614aae916001820181556142af565b819291549060031b91821b91600019901b1916179055565b600a5460009291614ad6826141cf565b91600190818116908115614b425750600114614af157505050565b9091929350600a6000527fc65a7bb8d6351c1cf70c95a316cc6a92839c986682d98bc35f958f4883f9d2a8906000915b848310614b2f575050500190565b8181602092548587015201920191614b21565b60ff191683525050811515909102019150565b614b6d90602060405192828480945193849201613e1d565b810103902090565b6040805192614b8384613f7a565b6000908185526001600160a01b0394858516948515614da35782845260209660028852858520541683878215159283614d6b575b81885260038b528888206001815401905582885260028b52888820826001600160a01b03198254161790557fddf252ad1be2c89b69c2b068fc378daa952ba7f163c4a11628f55a4df523b3ef8880a4614d3b573b614c18575b505050505050565b85614c56918596979894955180938192630a85bd0160e11b968784523360048501528960248501526044840152608060648401526084830190613e40565b0381878a5af1849181614cfb575b50614cc2575050503d600014614cba573d614c7e81613fb8565b90614c8b84519283613f96565b81528091853d92013e5b80519384614cb457602484845190633250574960e11b82526004820152fd5b84925001fd5b506060614c95565b9092506001600160e01b03199195501603614ce4575050388080808080614c10565b602492505190633250574960e11b82526004820152fd5b9091508781813d8311614d34575b614d138183613f96565b81010312614a1157516001600160e01b031981168103614a11579038614c64565b503d614d09565b6024848651907f73c6ac6e0000000000000000000000000000000000000000000000000000000082526004820152fd5b614d8c83600052600460205260406000206001600160a01b03198154169055565b80885260038b528888208054600019019055614bb7565b602484865190633250574960e11b82526004820152fd5b91909160009080825260209160068352604081209085519067ffffffffffffffff8211614f1c57614deb83546141cf565b601f8111614ed9575b508490601f8311600114614e5557907ff8e1a15aba9398e019f0b49df1a4fde98ee17ae345cb5f6b5e2c27f5033e8ce7969783614e4a575b50508160011b916000199060031b1c19161790555b604051908152a1565b015190503880614e2c565b9196601f198816848452868420935b818110614ec257509160019391897ff8e1a15aba9398e019f0b49df1a4fde98ee17ae345cb5f6b5e2c27f5033e8ce7999a9410614ea9575b505050811b019055614e41565b015160001960f88460031b161c19169055388080614e9c565b929387600181928786015181550195019301614e64565b838252858220601f840160051c810191878510614f12575b601f0160051c01905b818110614f075750614df4565b828155600101614efa565b9091508190614ef1565b80634e487b7160e01b602492526041600452fd5b60ff60085416614f3c57565b60046040517fd93c0665000000000000000000000000000000000000000000000000000000008152fd5b806000917a184f03e93ff9f4daa797ed6e38ed64bf6a1f010000000000000000808210156150cd575b506d04ee2d6d415b85acef8100000000808310156150be575b50662386f26fc10000808310156150af575b506305f5e100808310156150a0575b5061271080831015615091575b506064821015615081575b600a80921015615077575b60019081602181860195614fff87613fb8565b9661500d6040519889613f96565b80885261501c601f1991613fb8565b01366020890137860101905b615034575b5050505090565b600019019083907f30313233343536373839616263646566000000000000000000000000000000008282061a83530491821561507257919082615028565b61502d565b9160010191614fec565b9190606460029104910191614fe1565b60049193920491019138614fd6565b60089193920491019138614fc9565b60109193920491019138614fba565b60209193920491019138614fa8565b604093508104915038614f8f565b156150e257565b606460405162461bcd60e51b815260206004820152601a60248201527f436572746966696361746520646f6573206e6f742065786973740000000000006044820152fd5b1561512d57565b606460405162461bcd60e51b815260206004820152601b60248201527f436572746966696361746520616c7265616479207265766f6b656400000000006044820152fd5b6040519061517e82613f24565b600060e0836060808252806020830152806040830152808083015260808201528260a08201528260c08201520152565b6151b6615171565b9060005260026020526001600160a01b039081604060002054161561526e5750600b60205260406000206006604051916151ef83613f24565b6151f881614209565b835261520660018201614209565b602084015261521760028201614209565b604084015261522860038201614209565b606084015261523960048201614209565b6080840152600581015460a084015201549160ff83161515928360c084015260081c1660e0820152809161526e575090600190565b9160009150565b1561527c57565b606460405162461bcd60e51b815260206004820152601460248201527f546f6b656e20646f6573206e6f742065786973740000000000000000000000006044820152fd5b805182101561298c5760209160051b010190565b91908201809211614a7657565b908151156153ff5760009182835b82518110156153e957608061530482856152c0565b510151805160208092012060408051928184019380851067ffffffffffffffff861117610ae3577f7b2ab94bb7d45041581aa3757ae020084674ccad6f75dc3750eb2ea8a92c4e9a947f500000000000000000000000000000000000000000000000000000000000000093526001815201521461538a575b61538590614a67565b6152ef565b9093606061539883856152c0565b51015160a095866153a985876152c0565b51015191828102928184041490151715614a76576153cd6153e192615385946152d4565b966153d885876152c0565b510151906152d4565b91905061537c565b509192905081156153f8570490565b5050600090565b60009150565b6040519061541282613f41565b60006101e083606080825280602083015280604083015280808301528060808301528060a08301528060c08301528060e083015280610100830152806101208301528361014083015283610160830152610180820152826101a0820152826101c08201520152565b615482615405565b9060005260026020526001600160a01b0360406000205416156156645750600e6020526040600020604051906154b782613f41565b6154c081614209565b82526154ce60018201614209565b60208301526154df60028201614209565b60408301526154f060038201614209565b606083015261550160048201614209565b608083015261551260058201614209565b60a083015261552360068201614209565b60c083015261553460078201614209565b60e083015261554560088201614209565b61010083015260098101805461555a81614099565b916155686040519384613f96565b818352602083019060005260206000206000915b8383106155f3575050505060ff91600e91610120850152600a810154610140850152600b8101546101608501526155b5600c8201614209565b610180850152600d8101546101a085015201546001600160a01b0381166101c084015260a01c16151590816101e0820152809161526e575090600190565b6006602060019260405161560681613f5e565b61560f86614209565b815261561c858701614209565b8382015261562c60028701614209565b60408201526003860154606082015261564760048701614209565b6080820152600586015460a082015281520192019201919061557c565b9060009056fea2646970667358221220b2381ffe9714cf401e400a134eae03d7212a6b2612db03456d4e9d8dff435bd164736f6c634300081400332f8788117e7eff1d82e926ec794901d17c78024a50270940304540a733656f0d",
  "linkReferences": {},
  "deployedLinkReferences": {}
}