{"contracts/ScholarshipEscrow.sol":{"ScholarshipEscrow":{"abi":[{"inputs":[{"internalType":"address","name":"_certificateNFT","type":"address"}],"stateMutability":"nonpayable","type":"constructor"},{"inputs":[],"name":"AccessControlBadConfirmation","type":"error"},{"inputs":[{"internalType":"address","name":"account","type":"address"},{"internalType":"bytes32","name":"neededRole","type":"bytes32"}],"name":"AccessControlUnauthorizedAccount","type":"error"},{"inputs":[],"name":"EnforcedPause","type":"error"},{"inputs":[],"name":"ExpectedPause","type":"error"},{"inputs":[],"name":"ReentrancyGuardReentrantCall","type":"error"},{"anonymous":false,"inputs":[{"indexed":true,"internalType":"address","name":"depositor","type":"address"},{"indexed":false,"internalType":"uint256","name":"amount","type":"uint256"},{"indexed":false,"internalType":"uint256","name":"timestamp","type":"uint256"}],"name":"FundsDeposited","type":"event"},{"anonymous":false,"inputs":[{"indexed":true,"internalType":"address","name":"admin","type":"address"},{"indexed":false,"internalType":"uint256","name":"amount","type":"uint256"},{"indexed":false,"internalType":"uint256","name":"timestamp","type":"uint256"}],"name":"FundsWithdrawn","type":"event"},{"anonymous":false,"inputs":[{"indexed":false,"internalType":"address","name":"account","type":"address"}],"name":"Paused","type":"event"},{"anonymous":false,"inputs":[{"indexed":true,"internalType":"bytes32","name":"role","type":"bytes32"},{"indexed":true,"internalType":"bytes32","name":"previousAdminRole","type":"bytes32"},{"indexed":true,"internalType":"bytes32","name":"newAdminRole","type":"bytes32"}],"name":"RoleAdminChanged","type":"event"},{"anonymous":false,"inputs":[{"indexed":true,"internalType":"bytes32","name":"role","type":"bytes32"},{"indexed":true,"internalType":"address","name":"account","type":"address"},{"indexed":true,"internalType":"address","name":"sender","type":"address"}],"name":"RoleGranted","type":"event"},{"anonymous":false,"inputs":[{"indexed":true,"internalType":"bytes32","name":"role","type":"bytes32"},{"indexed":true,"internalType":"address","name":"account","type":"address"},{"indexed":true,"internalType":"address","name":"sender","type":"address"}],"name":"RoleRevoked","type":"event"},{"anonymous":false,"inputs":[{"indexed":true,"internalType":"uint256","name":"scholarshipId","type":"uint256"},{"indexed":true,"internalType":"address","name":"student","type":"address"},{"indexed":false,"internalType":"uint256","name":"amount","type":"uint256"},{"indexed":false,"internalType":"uint256","name":"timestamp","type":"uint256"}],"name":"ScholarshipClaimed","type":"event"},{"anonymous":false,"inputs":[{"indexed":true,"internalType":"uint256","name":"scholarshipId","type":"uint256"},{"indexed":false,"internalType":"string","name":"name","type":"string"},{"indexed":false,"internalType":"uint256","name":"totalAmount","type":"uint256"},{"indexed":false,"internalType":"uint256","name":"maxRecipients","type":"uint256"},{"indexed":false,"internalType":"uint256","name":"deadline","type":"uint256"},{"indexed":false,"internalType":"uint256","name":"timestamp","type":"uint256"}],"name":"ScholarshipCreated","type":"event"},{"anonymous":false,"inputs":[{"indexed":true,"internalType":"uint256","name":"scholarshipId","type":"uint256"},{"indexed":true,"internalType":"address","name":"admin","type":"address"},{"indexed":false,"internalType":"uint256","name":"timestamp","type":"uint256"}],"name":"ScholarshipRevoked","type":"event"},{"anonymous":false,"inputs":[{"indexed":false,"internalType":"address","name":"account","type":"address"}],"name":"Unpaused","type":"event"},{"inputs":[],"name":"ADMIN_ROLE","outputs":[{"internalType":"bytes32","name":"","type":"bytes32"}],"stateMutability":"view","type":"function"},{"inputs":[],"name":"DEFAULT_ADMIN_ROLE","outputs":[{"internalType":"bytes32","name":"","type":"bytes32"}],"stateMutability":"view","type":"function"},{"inputs":[],"name":"SCHOLARSHIP_MANAGER_ROLE","outputs":[{"internalType":"bytes32","name":"","type":"bytes32"}],"stateMutability":"view","type":"function"},{"inputs":[],"name":"certificateNFT","outputs":[{"internalType":"contract CertificateNFT","name":"","type":"address"}],"stateMutability":"view","type":"function"},{"inputs":[{"internalType":"address","name":"student","type":"address"},{"internalType":"string[]","name":"requiredCourses","type":"string[]"},{"internalType":"bool","name":"requiresAll","type":"bool"}],"name":"checkCourseRequirements","outputs":[{"internalType":"bool","name":"","type":"bool"}],"stateMutability":"view","type":"function"},{"inputs":[{"internalType":"address","name":"student","type":"address"},{"internalType":"string[]","name":"allowedDepartments","type":"string[]"}],"name":"checkDepartmentRequirement","outputs":[{"internalType":"bool","name":"","type":"bool"}],"stateMutability":"view","type":"function"},{"inputs":[{"internalType":"address","name":"student","type":"address"},{"internalType":"uint256","name":"enrollmentAfter","type":"uint256"},{"internalType":"uint256","name":"enrollmentBefore","type":"uint256"}],"name":"checkEnrollmentRequirement","outputs":[{"internalType":"bool","name":"","type":"bool"}],"stateMutability":"view","type":"function"},{"inputs":[{"internalType":"uint256","name":"scholarshipId","type":"uint256"}],"name":"claimScholarship","outputs":[],"stateMutability":"nonpayable","type":"function"},{"inputs":[{"internalType":"string","name":"name","type":"string"},{"internalType":"string","name":"description","type":"string"},{"internalType":"uint256","name":"totalAmount","type":"uint256"},{"internalType":"uint256","name":"maxRecipients","type":"uint256"},{"internalType":"uint256","name":"deadline","type":"uint256"},{"internalType":"address","name":"tokenAddress","type":"address"},{"internalType":"string","name":"tokenSymbol","type":"string"},{"components":[{"internalType":"uint256","name":"minGPA","type":"uint256"},{"internalType":"string[]","name":"requiredCourses","type":"string[]"},{"internalType":"string[]","name":"allowedDepartments","type":"string[]"},{"internalType":"uint256","name":"minCertificates","type":"uint256"},{"internalType":"uint256","name":"enrollmentAfter","type":"uint256"},{"internalType":"uint256","name":"enrollmentBefore","type":"uint256"},{"internalType":"bool","name":"requiresAllCourses","type":"bool"}],"internalType":"struct ScholarshipEscrow.EligibilityCriteria","name":"criteria","type":"tuple"}],"name":"createScholarship","outputs":[{"internalType":"uint256","name":"","type":"uint256"}],"stateMutability":"payable","type":"function"},{"inputs":[],"name":"depositFunds","outputs":[],"stateMutability":"payable","type":"function"},{"inputs":[],"name":"getContractBalance","outputs":[{"internalType":"uint256","name":"","type":"uint256"}],"stateMutability":"view","type":"function"},{"inputs":[{"internalType":"bytes32","name":"role","type":"bytes32"}],"name":"getRoleAdmin","outputs":[{"internalType":"bytes32","name":"","type":"bytes32"}],"stateMutability":"view","type":"function"},{"inputs":[{"internalType":"uint256","name":"scholarshipId","type":"uint256"}],"name":"getScholarship","outputs":[{"components":[{"internalType":"string","name":"name","type":"string"},{"internalType":"string","name":"description","type":"string"},{"internalType":"uint256","name":"totalAmount","type":"uint256"},{"internalType":"uint256","name":"claimedAmount","type":"uint256"},{"internalType":"uint256","name":"remainingAmount","type":"uint256"},{"internalType":"uint256","name":"maxRecipients","type":"uint256"},{"internalType":"uint256","name":"amountPerRecipient","type":"uint256"},{"internalType":"uint256","name":"createdAt","type":"uint256"},{"internalType":"uint256","name":"deadline","type":"uint256"},{"internalType":"bool","name":"isActive","type":"bool"},{"internalType":"address","name":"createdBy","type":"address"},{"internalType":"address","name":"tokenAddress","type":"address"},{"internalType":"string","name":"tokenSymbol","type":"string"}],"internalType":"struct ScholarshipEscrow.Scholarship","name":"","type":"tuple"}],"stateMutability":"view","type":"function"},{"inputs":[{"internalType":"address","name":"student","type":"address"}],"name":"getStudentScholarships","outputs":[{"internalType":"uint256[]","name":"","type":"uint256[]"}],"stateMutability":"view","type":"function"},{"inputs":[{"internalType":"address","name":"student","type":"address"}],"name":"getTotalClaimed","outputs":[{"internalType":"uint256","name":"","type":"uint256"}],"stateMutability":"view","type":"function"},{"inputs":[{"internalType":"bytes32","name":"role","type":"bytes32"},{"internalType":"address","name":"account","type":"address"}],"name":"grantRole","outputs":[],"stateMutability":"nonpayable","type":"function"},{"inputs":[{"internalType":"bytes32","name":"role","type":"bytes32"},{"internalType":"address","name":"account","type":"address"}],"name":"hasRole","outputs":[{"internalType":"bool","name":"","type":"bool"}],"stateMutability":"view","type":"function"},{"inputs":[{"internalType":"uint256","name":"scholarshipId","type":"uint256"},{"internalType":"address","name":"student","type":"address"}],"name":"isEligibleForScholarship","outputs":[{"internalType":"bool","name":"","type":"bool"}],"stateMutability":"view","type":"function"},{"inputs":[],"name":"pause","outputs":[],"stateMutability":"nonpayable","type":"function"},{"inputs":[],"name":"paused","outputs":[{"internalType":"bool","name":"","type":"bool"}],"stateMutability":"view","type":"function"},{"inputs":[{"internalType":"bytes32","name":"role","type":"bytes32"},{"internalType":"address","name":"callerConfirmation","type":"address"}],"name":"renounceRole","outputs":[],"stateMutability":"nonpayable","type":"function"},{"inputs":[{"internalType":"bytes32","name":"role","type":"bytes32"},{"internalType":"address","name":"account","type":"address"}],"name":"revokeRole","outputs":[],"stateMutability":"nonpayable","type":"function"},{"inputs":[{"internalType":"uint256","name":"scholarshipId","type":"uint256"}],"name":"revokeScholarship","outputs":[],"stateMutability":"nonpayable","type":"function"},{"inputs":[{"internalType":"uint256","name":"","type":"uint256"},{"internalType":"address","name":"","type":"address"}],"name":"scholarshipClaims","outputs":[{"internalType":"bool","name":"","type":"bool"}],"stateMutability":"view","type":"function"},{"inputs":[{"internalType":"uint256","name":"","type":"uint256"}],"name":"scholarshipCriteria","outputs":[{"internalType":"uint256","name":"minGPA","type":"uint256"},{"internalType":"uint256","name":"minCertificates","type":"uint256"},{"internalType":"uint256","name":"enrollmentAfter","type":"uint256"},{"internalType":"uint256","name":"enrollmentBefore","type":"uint256"},{"internalType":"bool","name":"requiresAllCourses","type":"bool"}],"stateMutability":"view","type":"function"},{"inputs":[{"internalType":"uint256","name":"","type":"uint256"}],"name":"scholarships","outputs":[{"internalType":"string","name":"name","type":"string"},{"internalType":"string","name":"description","type":"string"},{"internalType":"uint256","name":"totalAmount","type":"uint256"},{"internalType":"uint256","name":"claimedAmount","type":"uint256"},{"internalType":"uint256","name":"remainingAmount","type":"uint256"},{"internalType":"uint256","name":"maxRecipients","type":"uint256"},{"internalType":"uint256","name":"amountPerRecipient","type":"uint256"},{"internalType":"uint256","name":"createdAt","type":"uint256"},{"internalType":"uint256","name":"deadline","type":"uint256"},{"internalType":"bool","name":"isActive","type":"bool"},{"internalType":"address","name":"createdBy","type":"address"},{"internalType":"address","name":"tokenAddress","type":"address"},{"internalType":"string","name":"tokenSymbol","type":"string"}],"stateMutability":"view","type":"function"},{"inputs":[{"internalType":"address","name":"","type":"address"},{"internalType":"uint256","name":"","type":"uint256"}],"name":"studentScholarships","outputs":[{"internalType":"uint256","name":"","type":"uint256"}],"stateMutability":"view","type":"function"},{"inputs":[{"internalType":"bytes4","name":"interfaceId","type":"bytes4"}],"name":"supportsInterface","outputs":[{"internalType":"bool","name":"","type":"bool"}],"stateMutability":"view","type":"function"},{"inputs":[{"internalType":"address","name":"","type":"address"}],"name":"totalClaimed","outputs":[{"internalType":"uint256","name":"","type":"uint256"}],"stateMutability":"view","type":"function"},{"inputs":[],"name":"unpause","outputs":[],"stateMutability":"nonpayable","type":"function"},{"inputs":[{"internalType":"uint256","name":"amount","type":"uint256"}],"name":"withdrawFunds","outputs":[],"stateMutability":"nonpayable","type":"function"},{"stateMutability":"payable","type":"receive"}],"evm":{"bytecode":{"linkReferences":{},"object":"608034620000ab57601f62002f3d38819003918201601f19168301916001600160401b03831184841017620000b057808492602094604052833981010312620000ab57516001600160a01b03811690819003620000ab576001805460ff191681556002556200006e33620000c6565b506200007a3362000146565b506200008633620001e8565b50600980546001600160a01b031916919091179055604051612c979081620002868239f35b600080fd5b634e487b7160e01b600052604160045260246000fd5b6001600160a01b031660008181527fad3228b676f7d3cd4284a5443f17f1962b36e491b30a40b2405849e597ba5fb5602052604081205490919060ff166200014257818052816020526040822081835260205260408220600160ff19825416179055339160008051602062002f1d8339815191528180a4600190565b5090565b6001600160a01b031660008181527f7d7ffb7a348e1c6a02869081a26547b49160dd3df72d1d75a570eb9b698292ec60205260408120549091907fa49807205ce4d355092ef5a8a18f56e8913cf4a201fbe287825b095693c217759060ff16620001e357808352826020526040832082845260205260408320600160ff1982541617905560008051602062002f1d833981519152339380a4600190565b505090565b6001600160a01b031660008181527f2be4733a403b4fa43fe419b79f643ea84b696c2296fa963fa7ae1e04f197984460205260408120549091907f10611feacf75d15e8cdab75bab566e5fa2cfa0efaea1e2ce4eddab65ac96f5a29060ff16620001e357808352826020526040832082845260205260408320600160ff1982541617905560008051602062002f1d833981519152339380a460019056fe608080604052600436101561004f575b50361561001b57600080fd5b6040513481524260208201527fbee4fe3675934fca827426c793623996a3079255089bda3a717019ffc5db276560403392a2005b60003560e01c90816301ffc9a714611da0575080630d7bd1d814611d7a578063155dd5ee14611c6c578063248a9ca314611c3d5780632f2ff15d14611bfe57806334e617a11461175857806336568abe146116f957806339dc58c6146115fd5780633b71498a146115c25780633f4ba83a14611540578063522bf1d4146101b15780635243a69e146108bc5780635c975abb146108995780636f9fb98a1461087d5780637322333c1461082757806375b238fc146107ec57806381336d0c146107385780638456cb59146106df5780638a8642161461069a57806391aec72a1461067357806391d14854146106255780639e1d1d02146105d7578063a217fddf146105bb578063a3bf4f4c146103a4578063a703178f14610347578063d547741f14610306578063dd51875014610296578063e2c41dbc14610277578063e51735911461024c578063ebd347ec146101f05763ef5d9ae8146101b1573861000f565b346101eb5760203660031901126101eb576001600160a01b036101d2611e54565b1660005260066020526020604060002054604051908152f35b600080fd5b346101eb5760603660031901126101eb57610209611e54565b60243567ffffffffffffffff81116101eb57610229903690600401612068565b9060443580151581036101eb576020926102429261275d565b6040519015158152f35b346101eb5760603660031901126101eb57602061024261026a611e54565b6044359060243590612b5f565b60003660031901126101eb5761028b6122ff565b61001b34151561228e565b346101eb5760203660031901126101eb576004356102b2612117565b806000526004602052600960406000200180546102d160ff8216612335565b60ff19169055604051904282527ff26427fe718f7a208b96aa3006e1f4bfb0ae8ab9934ec808c98fd863ff47d99560203393a3005b346101eb5760403660031901126101eb57610345600435610325611e3e565b90806000526000602052610340600160406000200154612173565b612218565b005b346101eb5760203660031901126101eb57600435600052600860205260a06040600020805490600381015490600481015460ff60066005840154930154169260405194855260208501526040840152606083015215156080820152f35b346101eb5760203660031901126101eb5760606101806040516103c681611ec0565b8281528260208201526000604082015260008382015260006080820152600060a0820152600060c0820152600060e08201526000610100820152600061012082015260006101408201526000610160820152015260043560005260046020526105b760406000206104df600b6040519261043f84611ec0565b61044881611eff565b845261045660018201611eff565b6020850152600281015460408501526003810154606085015260048101546080850152600581015460a0850152600681015460c0850152600781015460e085015260088101546101008501526001600160a01b03600982015460ff8116151561012087015260081c166101408501526001600160a01b03600a8201541661016085015201611eff565b6101808201526040519182916020835261018061052361050d83516101a060208801526101c0870190611fc8565b6020840151868203601f19016040880152611fc8565b916040810151606086015260608101516080860152608081015160a086015260a081015160c086015260c081015160e086015260e081015161010086015261010081015161012086015261012081015115156101408601526001600160a01b03610140820151166101608601526001600160a01b0361016082015116828601520151601f19848303016101a0850152611fc8565b0390f35b346101eb5760003660031901126101eb57602060405160008152f35b346101eb5760403660031901126101eb576105f0611e3e565b60043560005260076020526001600160a01b0360406000209116600052602052602060ff604060002054166040519015158152f35b346101eb5760403660031901126101eb5761063e611e3e565b60043560005260006020526001600160a01b0360406000209116600052602052602060ff604060002054166040519015158152f35b346101eb5760003660031901126101eb5760206001600160a01b0360095416604051908152f35b346101eb5760403660031901126101eb576106b3611e54565b60243567ffffffffffffffff81116101eb576020916106d9610242923690600401612068565b906129f9565b346101eb5760003660031901126101eb576106f8612117565b6107006122ff565b600160ff19815416176001557f62e78cea01bee320cd4e420270b5ea74000d11b0c9f74754ebdbfc544b05a2586020604051338152a1005b346101eb576020806003193601126101eb576001600160a01b0361075a611e54565b1660005260058152604060002060405190818382549182815201908192600052846000209060005b868282106107d857868661079882880383611edd565b604051928392818401908285525180915260408401929160005b8281106107c157505050500390f35b8351855286955093810193928101926001016107b2565b835485529093019260019283019201610782565b346101eb5760003660031901126101eb5760206040517fa49807205ce4d355092ef5a8a18f56e8913cf4a201fbe287825b095693c217758152f35b346101eb5760403660031901126101eb57610840611e54565b6001600160a01b0360243591166000526005602052604060002080548210156101eb5760209161086f916120e9565b90546040519160031b1c8152f35b346101eb5760003660031901126101eb57602047604051908152f35b346101eb5760003660031901126101eb57602060ff600154166040519015158152f35b600319610100368201126101eb5760043567ffffffffffffffff81116101eb576108ea903690600401612009565b9060243567ffffffffffffffff81116101eb5761090b903690600401612009565b9060a435916001600160a01b03831683036101eb5760c43567ffffffffffffffff81116101eb57610940903690600401612009565b9167ffffffffffffffff60e435116101eb5760e09060e435360301126101eb576040519161096d83611ea4565b60e435600401358352602460e435013567ffffffffffffffff81116101eb5761099e906004369160e4350101612068565b602084015267ffffffffffffffff604460e4350135116101eb576109cd3660e435604481013501600401612068565b604084015260e435606481013560608501526084810135608085015260a481013560a085015260c4013580151590036101eb5760e43560c4013560c08401523360009081527f2be4733a403b4fa43fe419b79f643ea84b696c2296fa963fa7ae1e04f197984460205260409020547f10611feacf75d15e8cdab75bab566e5fa2cfa0efaea1e2ce4eddab65ac96f5a29060ff16156115095750610a6e6122ff565b610a7b604435151561228e565b6064351561149f5742608435111561145b57845115611417576001600160a01b038416156113c9575b6001600160a01b03610ab76003546122d9565b948560035560405193610ac985611ec0565b8785526020850152604435604085015260006060850152604435608085015260643560a08501526064356044350460c08501524260e085015260843561010085015260016101208501523361014085015216610160830152610180820152826000526004602052604060002090805180519067ffffffffffffffff8211610fa0578190610b568554611e6a565b601f8111611397575b50602090601f831160011461132b57600092611320575b50508160011b916000199060031b1c19161782555b602081015180519067ffffffffffffffff8211610fa057610baf6001850154611e6a565b601f81116112eb575b50602090601f8311600114611277576101809392916000918361126c575b50508160011b916000199060031b1c19161760018401555b60408101516002840155606081015160038401556080810151600484015560a0810151600584015560c0810151600684015560e08101516007840155610100810151600884015560098301610c566101208301511515829060ff801983541691151516179055565b6101408201517fffffffffffffffffffffff0000000000000000000000000000000000000000ff74ffffffffffffffffffffffffffffffffffffffff0083549260081b169116179055600a83016001600160a01b03610160830151167fffffffffffffffffffffffff0000000000000000000000000000000000000000825416179055015180519067ffffffffffffffff8211610fa057610cfa600b840154611e6a565b601f8111611237575b50602090601f83116001146111c757600b9291600091836111bc575b50508160011b916000199060031b1c1916179101555b816000526008602052604060002090805182556020810151805190680100000000000000008211610fa0576001840154826001860155808310611144575b5060200190600184016000526020600020916000905b82821061102e57505050506040810151805190680100000000000000008211610fa0576002840154826002860155808310610fb6575b5060200190600284016000526020600020916000905b828210610e7f57602087807ffb7d30f4038456fa76a49e3e268621c565e0e045b6e0f73e0b82d5914f82115a610e578c610e438c600660c08e606081015160038501556080810151600485015560a081015160058501550151151591019060ff801983541691151516179055565b60405191829160a0835260a0830190611fc8565b60443587830152606435604083015260843560608301524260808301520390a2604051908152f35b805180519067ffffffffffffffff8211610fa057610e9d8654611e6a565b601f8111610f63575b50602090601f8311600114610ef3579282600194936020938695600092610ee8575b5050600019600383901b1c191690841b1787555b01940191019092610dd5565b015190508d80610ec8565b908660005260206000209160005b601f1985168110610f4b575083602093600196938796938794601f19811610610f32575b505050811b018755610edc565b015160001960f88460031b161c191690558d8080610f25565b91926020600181928685015181550194019201610f01565b610f9090876000526020600020601f850160051c81019160208610610f96575b601f0160051c01906122e8565b8a610ea6565b9091508190610f83565b634e487b7160e01b600052604160045260246000fd5b600285016000526020600020908382015b8183018110610fd7575050610dbf565b80610fe460019254611e6a565b80610ff1575b5001610fc7565b601f811183146110075750600081555b8a610fea565b600090828252611025601f60208420920160051c82018583016122e8565b81835555611001565b805180519067ffffffffffffffff8211610fa05761104c8654611e6a565b601f8111611112575b50602090601f83116001146110a2579282600194936020938695600092611097575b5050600019600383901b1c191690841b1787555b01940191019092610d89565b015190508d80611077565b908660005260206000209160005b601f19851681106110fa575083602093600196938796938794601f198116106110e1575b505050811b01875561108b565b015160001960f88460031b161c191690558d80806110d4565b919260206001819286850151815501940192016110b0565b61113e90876000526020600020601f850160051c81019160208610610f9657601f0160051c01906122e8565b8a611055565b600185016000526020600020908382015b8183018110611165575050610d73565b8061117260019254611e6a565b8061117f575b5001611155565b601f811183146111955750600081555b8a611178565b6000908282526111b3601f60208420920160051c82018583016122e8565b8183555561118f565b015190508780610d1f565b90600b840160005260206000209160005b601f198516811061121f5750918391600193600b95601f19811610611206575b505050811b01910155610d35565b015160001960f88460031b161c191690558780806111f8565b919260206001819286850151815501940192016111d8565b61126690600b85016000526020600020601f850160051c81019160208610610f9657601f0160051c01906122e8565b86610d03565b015190508880610bd6565b906001850160005260206000209160005b601f19851681106112d357509183916001936101809695601f198116106112ba575b505050811b016001840155610bee565b015160001960f88460031b161c191690558880806112aa565b91926020600181928685015181550194019201611288565b61131a90600186016000526020600020601f850160051c81019160208610610f9657601f0160051c01906122e8565b87610bb8565b015190508780610b76565b9250846000526020600020906000935b601f198416851061137c576001945083601f19811610611363575b505050811b018255610b8b565b015160001960f88460031b161c19169055878080611356565b8181015183556020948501946001909301929091019061133b565b6113c390866000526020600020601f850160051c81019160208610610f9657601f0160051c01906122e8565b88610b5f565b604435341015610aa457606460405162461bcd60e51b815260206004820152601560248201527f496e73756666696369656e74204554482073656e7400000000000000000000006044820152fd5b606460405162461bcd60e51b815260206004820152601460248201527f4e616d652063616e6e6f7420626520656d7074790000000000000000000000006044820152fd5b606460405162461bcd60e51b815260206004820152601e60248201527f446561646c696e65206d75737420626520696e207468652066757475726500006044820152fd5b608460405162461bcd60e51b815260206004820152602560248201527f4d617820726563697069656e7473206d7573742062652067726561746572207460448201527f68616e20300000000000000000000000000000000000000000000000000000006064820152fd5b604490604051907fe2517d3f0000000000000000000000000000000000000000000000000000000082523360048301526024820152fd5b346101eb5760003660031901126101eb57611559612117565b60015460ff8116156115985760ff19166001557f5db9ee0a495bf2e6ff9c91a7834c1ba4fdd244a5e8aa4e537bd38aeae4b073aa6020604051338152a1005b60046040517f8dfc202b000000000000000000000000000000000000000000000000000000008152fd5b346101eb5760003660031901126101eb5760206040517f10611feacf75d15e8cdab75bab566e5fa2cfa0efaea1e2ce4eddab65ac96f5a28152f35b346101eb5760203660031901126101eb576004356000526004602052604060002061162781611eff565b61163360018301611eff565b91600281015460038201549160048101546005820154600683015460078401546008850154916009860154936001600160a01b039586600a8901541697600b0161167c90611eff565b996040519c8d9c8d6101a0908181520161169591611fc8565b8d810360208f01526116a691611fc8565b9960408d015260608c015260808b015260a08a015260c089015260e088015261010087015260ff8116151561012087015260081c166101408501526101608401528281036101808401526105b791611fc8565b346101eb5760403660031901126101eb57611712611e3e565b336001600160a01b0382160361172e5761034590600435612218565b60046040517f6697b232000000000000000000000000000000000000000000000000000000008152fd5b346101eb576020806003193601126101eb576004356117756122ff565b61177d6123bd565b80600052600482526040600020916009830161179c60ff825416612335565b60088401544211611bba578260005260078252604060002033600052825260ff60406000205416611b7757600484018054948515611b335760038101928354600283019081541115611aef576117f233886124c5565b15611a85576006830154978811611a41578660005260078652604060002033600052865260406000209060ff1991600183825416179055611834898754612380565b80965584549589870395878711611a2b576001600160a01b0397600a978c925514918215611a1f575b5050611a13575b50500154166119a95782471061196557600080808086335af161188561238d565b501561192157336000526006815260406000206118a3848254612380565b905533600052600581526040600020805468010000000000000000811015610fa0576118d4916001820181556120e9565b81549060031b9084821b91600019901b191617905560405192835242908301527fe42aa83ab8ca2f75461639b0a68d5ff14dfc3af23e4bc1a67a945c7c16b620dd60403393a36001600255005b6064906040519062461bcd60e51b82526004820152601360248201527f455448207472616e73666572206661696c6564000000000000000000000000006044820152fd5b6064906040519062461bcd60e51b82526004820152601d60248201527f496e73756666696369656e7420636f6e74726163742062616c616e63650000006044820152fd5b6084906040519062461bcd60e51b82526004820152602360248201527f4552433230207472616e7366657273206e6f742079657420696d706c656d656e60448201527f74656400000000000000000000000000000000000000000000000000000000006064820152fd5b81541690558680611864565b5411159050898061185d565b634e487b7160e01b600052601160045260246000fd5b6064866040519062461bcd60e51b82526004820152601c60248201527f496e73756666696369656e742066756e647320666f7220636c61696d000000006044820152fd5b6084866040519062461bcd60e51b82526004820152602960248201527f53747564656e74206e6f7420656c696769626c6520666f72207468697320736360448201527f686f6c61727368697000000000000000000000000000000000000000000000006064820152fd5b6064866040519062461bcd60e51b82526004820152601960248201527f5363686f6c6172736869702066756c6c7920636c61696d6564000000000000006044820152fd5b6064846040519062461bcd60e51b82526004820152601260248201527f4e6f2066756e64732072656d61696e696e6700000000000000000000000000006044820152fd5b6064826040519062461bcd60e51b825280600483015260248201527f416c726561647920636c61696d65642074686973207363686f6c6172736869706044820152fd5b6064826040519062461bcd60e51b82526004820152601f60248201527f5363686f6c61727368697020646561646c696e652068617320706173736564006044820152fd5b346101eb5760403660031901126101eb57610345600435611c1d611e3e565b90806000526000602052611c38600160406000200154612173565b612199565b346101eb5760203660031901126101eb5760043560005260006020526020600160406000200154604051908152f35b346101eb5760203660031901126101eb57600435611c88612117565b611c906123bd565b478111611d3657611ca281151561228e565b600080808084335af1611cb361238d565b5015611cf2576040519081524260208201527ffbc3a599b784fe88772fc5abcc07223f64ca0b13acc341f4fb1e46bef0510eb460403392a26001600255005b606460405162461bcd60e51b815260206004820152600f60248201527f5472616e73666572206661696c656400000000000000000000000000000000006044820152fd5b606460405162461bcd60e51b815260206004820152601460248201527f496e73756666696369656e742062616c616e63650000000000000000000000006044820152fd5b346101eb5760403660031901126101eb576020610242611d98611e3e565b6004356124c5565b346101eb5760203660031901126101eb57600435907fffffffff0000000000000000000000000000000000000000000000000000000082168092036101eb57817f7965db0b0000000000000000000000000000000000000000000000000000000060209314908115611e14575b5015158152f35b7f01ffc9a70000000000000000000000000000000000000000000000000000000091501483611e0d565b602435906001600160a01b03821682036101eb57565b600435906001600160a01b03821682036101eb57565b90600182811c92168015611e9a575b6020831014611e8457565b634e487b7160e01b600052602260045260246000fd5b91607f1691611e79565b60e0810190811067ffffffffffffffff821117610fa057604052565b6101a0810190811067ffffffffffffffff821117610fa057604052565b90601f8019910116810190811067ffffffffffffffff821117610fa057604052565b9060405191826000825492611f1384611e6a565b908184526001948581169081600014611f825750600114611f3f575b5050611f3d92500383611edd565b565b9093915060005260209081600020936000915b818310611f6a575050611f3d93508201013880611f2f565b85548884018501529485019487945091830191611f52565b915050611f3d94506020925060ff191682840152151560051b8201013880611f2f565b60005b838110611fb85750506000910152565b8181015183820152602001611fa8565b90602091611fe181518092818552858086019101611fa5565b601f01601f1916010190565b67ffffffffffffffff8111610fa057601f01601f191660200190565b81601f820112156101eb5780359061202082611fed565b9261202e6040519485611edd565b828452602083830101116101eb57816000926020809301838601378301015290565b67ffffffffffffffff8111610fa05760051b60200190565b9080601f830112156101eb5781359061208082612050565b9261208e6040519485611edd565b828452602092838086019160051b830101928084116101eb57848301915b8483106120bc5750505050505090565b823567ffffffffffffffff81116101eb5786916120de84848094890101612009565b8152019201916120ac565b80548210156121015760005260206000200190600090565b634e487b7160e01b600052603260045260246000fd5b3360009081527f7d7ffb7a348e1c6a02869081a26547b49160dd3df72d1d75a570eb9b698292ec60205260409020547fa49807205ce4d355092ef5a8a18f56e8913cf4a201fbe287825b095693c217759060ff16156115095750565b80600052600060205260406000203360005260205260ff60406000205416156115095750565b90600091808352826020526001600160a01b036040842092169182845260205260ff6040842054161560001461221357808352826020526040832082845260205260408320600160ff198254161790557f2f8788117e7eff1d82e926ec794901d17c78024a50270940304540a733656f0d339380a4600190565b505090565b90600091808352826020526001600160a01b036040842092169182845260205260ff6040842054166000146122135780835282602052604083208284526020526040832060ff1981541690557ff6391f5c32d9c69d2a47ea670b442974b53935d1edc7fd64eb21e047a839171b339380a4600190565b1561229557565b606460405162461bcd60e51b815260206004820152601d60248201527f416d6f756e74206d7573742062652067726561746572207468616e20300000006044820152fd5b6000198114611a2b5760010190565b8181106122f3575050565b600081556001016122e8565b60ff6001541661230b57565b60046040517fd93c0665000000000000000000000000000000000000000000000000000000008152fd5b1561233c57565b606460405162461bcd60e51b815260206004820152601960248201527f5363686f6c617273686970206973206e6f7420616374697665000000000000006044820152fd5b91908201809211611a2b57565b3d156123b8573d9061239e82611fed565b916123ac6040519384611edd565b82523d6000602084013e565b606090565b60028054146123cc5760028055565b60046040517f3ee5aeb5000000000000000000000000000000000000000000000000000000008152fd5b90815461240281612050565b926124106040519485611edd565b818452600090815260208082208186015b84841061242f575050505050565b600183819261243d85611eff565b815201920193019290612421565b60209081818403126101eb5780519067ffffffffffffffff82116101eb57019180601f840112156101eb57825161248181612050565b9361248f6040519586611edd565b818552838086019260051b8201019283116101eb578301905b8282106124b6575050505090565b815181529083019083016124a8565b906000918252600860205260408220906040516124e181611ea4565b825481526124f1600184016123f6565b9060208101918252612505600285016123f6565b9060408101918252600385015492606082019384526004860154936080830194855260c060ff600660058a01549960a087019a8b52015416930192151583526001600160a01b03888160095416916024604051809481936303af18ef60e61b83528c1660048301525afa90811561263e57899161261c575b5051905111612613575180516125f2575b50505180516125d7575b505180158015906125cd575b6125b2575b50505050600190565b6125bd925191612b5f565b156125ca578080806125a9565b90565b50825115156125a4565b6125e190836129f9565b156125ec5738612598565b50505090565b61260091511515908561275d565b1561260c57388061258e565b5050505090565b50505050505090565b61263891503d808b833e6126308183611edd565b81019061244b565b3861257d565b6040513d8b823e3d90fd5b80518210156121015760209160051b010190565b81601f820112156101eb57805161267381611fed565b926126816040519485611edd565b818452602082840101116101eb576125ca9160208085019101611fa5565b9190610100838203126101eb5782519067ffffffffffffffff918281116101eb57816126cc91860161265d565b9360208101518381116101eb57826126e591830161265d565b9360408201518481116101eb57836126fe91840161265d565b9360608301518181116101eb578461271791850161265d565b9360808401519182116101eb5761272f91840161265d565b9160a08101519160c082015180151581036101eb5760e0909201516001600160a01b03811681036101eb5790565b9190916001600160a01b039283600954166040908151956303af18ef60e61b8752600494168487015260009360249585888881865afa9788156129ef5786986129d3575b50156128d05784955b84518710156128c3578597865b81518110156128b9576127ca8183612649565b5186519063331d9f1160e11b82528582015288818581895afa9081156128af578991612885575b5086519060209161281e8382816128118183019687815193849201611fa5565b8101038084520182611edd565b5190209061282c8b8a612649565b519061284989519182816128118183019687815193849201611fa5565b5190201461285f5761285a906122d9565b6127b7565b5097509560015b1561287a57612874906122d9565b956127aa565b505050505091505090565b6128a191503d808b833e6128998183611edd565b81019061269f565b5050505050509050386127f1565b87513d8b823e3d90fd5b5097969096612866565b5050505050505050600190565b8493959294925b86518410156129c857845b88518110156129b7576128f5818a612649565b5187519063331d9f1160e11b82528482015286818481885afa9081156129ad57879161298b575b5087519060209161293c8382816128118183019687815193849201611fa5565b5190209061294a878b612649565b51906129678a519182816128118183019687815193849201611fa5565b5190201461297d57612978906122d9565b6128e2565b505050505050505050600190565b61299f91503d8089833e6128998183611edd565b50505050505090503861291c565b88513d89823e3d90fd5b50926129c2906122d9565b926128d7565b505050509250505090565b6129e89198503d8088833e6126308183611edd565b96386127a1565b84513d88823e3d90fd5b906001600160a01b0380600954166040918251946303af18ef60e61b86521660048501526000938481602481855afa908115612b55578591612b3b575b508051908115612b33576000198201918211612b1f578591612a5791612649565b51602484518094819363331d9f1160e11b835260048301525afa908115612b15578491612af3575b50835b835181101561260c57825160209081810190612aa8838287516128118187858c01611fa5565b51902090612ab68387612649565b5190612ad386519182816128118183019687815193849201611fa5565b51902014612ae957612ae4906122d9565b612a82565b5050505050600190565b612b0791503d8086833e6128998183611edd565b505050935050505038612a7f565b82513d86823e3d90fd5b602486634e487b7160e01b81526011600452fd5b505050505090565b612b4f91503d8087833e6126308183611edd565b38612a36565b83513d87823e3d90fd5b916001600160a01b0391826009541692604051946303af18ef60e61b86521660048501526000938481602481875afa908115612c56579085918291612c3c575b50805115612b33576020015160246040518096819363331d9f1160e11b835260048301525afa928315612c31578493612c0d575b508015159081612c03575b50612213578015159182612bf9575b50506125ca5750600190565b1190503880612bed565b9050821038612bde565b612c229193503d8086833e6128998183611edd565b50509450505050509138612bd3565b6040513d86823e3d90fd5b612c5091503d8084833e6126308183611edd565b38612b9f565b6040513d87823e3d90fdfea26469706673582212208318403065da8ed85a7f02bc3ce4bb8aba0f550fbffcef0233508cfa5bc36ce764736f6c634300081400332f8788117e7eff1d82e926ec794901d17c78024a50270940304540a733656f0d","opcodes":"PUSH1 0x80 CALLVALUE PUSH3 0xAB JUMPI PUSH1 0x1F PUSH3 0x2F3D CODESIZE DUP2 SWAP1 SUB SWAP2 DUP3 ADD PUSH1 0x1F NOT AND DUP4 ADD SWAP2 PUSH1 0x1 PUSH1 0x1 PUSH1 0x40 SHL SUB DUP4 GT DUP5 DUP5 LT OR PUSH3 0xB0 JUMPI DUP1 DUP5 SWAP3 PUSH1 0x20 SWAP5 PUSH1 0x40 MSTORE DUP4 CODECOPY DUP2 ADD SUB SLT PUSH3 0xAB JUMPI MLOAD PUSH1 0x1 PUSH1 0x1 PUSH1 0xA0 SHL SUB DUP2 AND SWAP1 DUP2 SWAP1 SUB PUSH3 0xAB JUMPI PUSH1 0x1 DUP1 SLOAD PUSH1 0xFF NOT AND DUP2 SSTORE PUSH1 0x2 SSTORE PUSH3 0x6E CALLER PUSH3 0xC6 JUMP JUMPDEST POP PUSH3 0x7A CALLER PUSH3 0x146 JUMP JUMPDEST POP PUSH3 0x86 CALLER PUSH3 0x1E8 JUMP JUMPDEST POP PUSH1 0x9 DUP1 SLOAD PUSH1 0x1 PUSH1 0x1 PUSH1 0xA0 SHL SUB NOT AND SWAP2 SWAP1 SWAP2 OR SWAP1 SSTORE PUSH1 0x40 MLOAD PUSH2 0x2C97 SWAP1 DUP2 PUSH3 0x286 DUP3 CODECOPY RETURN JUMPDEST PUSH1 0x0 DUP1 REVERT JUMPDEST PUSH4 0x4E487B71 PUSH1 0xE0 SHL PUSH1 0x0 MSTORE PUSH1 0x41 PUSH1 0x4 MSTORE PUSH1 0x24 PUSH1 0x0 REVERT JUMPDEST PUSH1 0x1 PUSH1 0x1 PUSH1 0xA0 SHL SUB AND PUSH1 0x0 DUP2 DUP2 MSTORE PUSH32 0xAD3228B676F7D3CD4284A5443F17F1962B36E491B30A40B2405849E597BA5FB5 PUSH1 0x20 MSTORE PUSH1 0x40 DUP2 KECCAK256 SLOAD SWAP1 SWAP2 SWAP1 PUSH1 0xFF AND PUSH3 0x142 JUMPI DUP2 DUP1 MSTORE DUP2 PUSH1 0x20 MSTORE PUSH1 0x40 DUP3 KECCAK256 DUP2 DUP4 MSTORE PUSH1 0x20 MSTORE PUSH1 0x40 DUP3 KECCAK256 PUSH1 0x1 PUSH1 0xFF NOT DUP3 SLOAD AND OR SWAP1 SSTORE CALLER SWAP2 PUSH1 0x0 DUP1 MLOAD PUSH1 0x20 PUSH3 0x2F1D DUP4 CODECOPY DUP2 MLOAD SWAP2 MSTORE DUP2 DUP1 LOG4 PUSH1 0x1 SWAP1 JUMP JUMPDEST POP SWAP1 JUMP JUMPDEST PUSH1 0x1 PUSH1 0x1 PUSH1 0xA0 SHL SUB AND PUSH1 0x0 DUP2 DUP2 MSTORE PUSH32 0x7D7FFB7A348E1C6A02869081A26547B49160DD3DF72D1D75A570EB9B698292EC PUSH1 0x20 MSTORE PUSH1 0x40 DUP2 KECCAK256 SLOAD SWAP1 SWAP2 SWAP1 PUSH32 0xA49807205CE4D355092EF5A8A18F56E8913CF4A201FBE287825B095693C21775 SWAP1 PUSH1 0xFF AND PUSH3 0x1E3 JUMPI DUP1 DUP4 MSTORE DUP3 PUSH1 0x20 MSTORE PUSH1 0x40 DUP4 KECCAK256 DUP3 DUP5 MSTORE PUSH1 0x20 MSTORE PUSH1 0x40 DUP4 KECCAK256 PUSH1 0x1 PUSH1 0xFF NOT DUP3 SLOAD AND OR SWAP1 SSTORE PUSH1 0x0 DUP1 MLOAD PUSH1 0x20 PUSH3 0x2F1D DUP4 CODECOPY DUP2 MLOAD SWAP2 MSTORE CALLER SWAP4 DUP1 LOG4 PUSH1 0x1 SWAP1 JUMP JUMPDEST POP POP SWAP1 JUMP JUMPDEST PUSH1 0x1 PUSH1 0x1 PUSH1 0xA0 SHL SUB AND PUSH1 0x0 DUP2 DUP2 MSTORE PUSH32 0x2BE4733A403B4FA43FE419B79F643EA84B696C2296FA963FA7AE1E04F1979844 PUSH1 0x20 MSTORE PUSH1 0x40 DUP2 KECCAK256 SLOAD SWAP1 SWAP2 SWAP1 PUSH32 0x10611FEACF75D15E8CDAB75BAB566E5FA2CFA0EFAEA1E2CE4EDDAB65AC96F5A2 SWAP1 PUSH1 0xFF AND PUSH3 0x1E3 JUMPI DUP1 DUP4 MSTORE DUP3 PUSH1 0x20 MSTORE PUSH1 0x40 DUP4 KECCAK256 DUP3 DUP5 MSTORE PUSH1 0x20 MSTORE PUSH1 0x40 DUP4 KECCAK256 PUSH1 0x1 PUSH1 0xFF NOT DUP3 SLOAD AND OR SWAP1 SSTORE PUSH1 0x0 DUP1 MLOAD PUSH1 0x20 PUSH3 0x2F1D DUP4 CODECOPY DUP2 MLOAD SWAP2 MSTORE CALLER SWAP4 DUP1 LOG4 PUSH1 0x1 SWAP1 JUMP INVALID PUSH1 0x80 DUP1 PUSH1 0x40 MSTORE PUSH1 0x4 CALLDATASIZE LT ISZERO PUSH2 0x4F JUMPI JUMPDEST POP CALLDATASIZE ISZERO PUSH2 0x1B JUMPI PUSH1 0x0 DUP1 REVERT JUMPDEST PUSH1 0x40 MLOAD CALLVALUE DUP2 MSTORE TIMESTAMP PUSH1 0x20 DUP3 ADD MSTORE PUSH32 0xBEE4FE3675934FCA827426C793623996A3079255089BDA3A717019FFC5DB2765 PUSH1 0x40 CALLER SWAP3 LOG2 STOP JUMPDEST PUSH1 0x0 CALLDATALOAD PUSH1 0xE0 SHR SWAP1 DUP2 PUSH4 0x1FFC9A7 EQ PUSH2 0x1DA0 JUMPI POP DUP1 PUSH4 0xD7BD1D8 EQ PUSH2 0x1D7A JUMPI DUP1 PUSH4 0x155DD5EE EQ PUSH2 0x1C6C JUMPI DUP1 PUSH4 0x248A9CA3 EQ PUSH2 0x1C3D JUMPI DUP1 PUSH4 0x2F2FF15D EQ PUSH2 0x1BFE JUMPI DUP1 PUSH4 0x34E617A1 EQ PUSH2 0x1758 JUMPI DUP1 PUSH4 0x36568ABE EQ PUSH2 0x16F9 JUMPI DUP1 PUSH4 0x39DC58C6 EQ PUSH2 0x15FD JUMPI DUP1 PUSH4 0x3B71498A EQ PUSH2 0x15C2 JUMPI DUP1 PUSH4 0x3F4BA83A EQ PUSH2 0x1540 JUMPI DUP1 PUSH4 0x522BF1D4 EQ PUSH2 0x1B1 JUMPI DUP1 PUSH4 0x5243A69E EQ PUSH2 0x8BC JUMPI DUP1 PUSH4 0x5C975ABB EQ PUSH2 0x899 JUMPI DUP1 PUSH4 0x6F9FB98A EQ PUSH2 0x87D JUMPI DUP1 PUSH4 0x7322333C EQ PUSH2 0x827 JUMPI DUP1 PUSH4 0x75B238FC EQ PUSH2 0x7EC JUMPI DUP1 PUSH4 0x81336D0C EQ PUSH2 0x738 JUMPI DUP1 PUSH4 0x8456CB59 EQ PUSH2 0x6DF JUMPI DUP1 PUSH4 0x8A864216 EQ PUSH2 0x69A JUMPI DUP1 PUSH4 0x91AEC72A EQ PUSH2 0x673 JUMPI DUP1 PUSH4 0x91D14854 EQ PUSH2 0x625 JUMPI DUP1 PUSH4 0x9E1D1D02 EQ PUSH2 0x5D7 JUMPI DUP1 PUSH4 0xA217FDDF EQ PUSH2 0x5BB JUMPI DUP1 PUSH4 0xA3BF4F4C EQ PUSH2 0x3A4 JUMPI DUP1 PUSH4 0xA703178F EQ PUSH2 0x347 JUMPI DUP1 PUSH4 0xD547741F EQ PUSH2 0x306 JUMPI DUP1 PUSH4 0xDD518750 EQ PUSH2 0x296 JUMPI DUP1 PUSH4 0xE2C41DBC EQ PUSH2 0x277 JUMPI DUP1 PUSH4 0xE5173591 EQ PUSH2 0x24C JUMPI DUP1 PUSH4 0xEBD347EC EQ PUSH2 0x1F0 JUMPI PUSH4 0xEF5D9AE8 EQ PUSH2 0x1B1 JUMPI CODESIZE PUSH2 0xF JUMP JUMPDEST CALLVALUE PUSH2 0x1EB JUMPI PUSH1 0x20 CALLDATASIZE PUSH1 0x3 NOT ADD SLT PUSH2 0x1EB JUMPI PUSH1 0x1 PUSH1 0x1 PUSH1 0xA0 SHL SUB PUSH2 0x1D2 PUSH2 0x1E54 JUMP JUMPDEST AND PUSH1 0x0 MSTORE PUSH1 0x6 PUSH1 0x20 MSTORE PUSH1 0x20 PUSH1 0x40 PUSH1 0x0 KECCAK256 SLOAD PUSH1 0x40 MLOAD SWAP1 DUP2 MSTORE RETURN JUMPDEST PUSH1 0x0 DUP1 REVERT JUMPDEST CALLVALUE PUSH2 0x1EB JUMPI PUSH1 0x60 CALLDATASIZE PUSH1 0x3 NOT ADD SLT PUSH2 0x1EB JUMPI PUSH2 0x209 PUSH2 0x1E54 JUMP JUMPDEST PUSH1 0x24 CALLDATALOAD PUSH8 0xFFFFFFFFFFFFFFFF DUP2 GT PUSH2 0x1EB JUMPI PUSH2 0x229 SWAP1 CALLDATASIZE SWAP1 PUSH1 0x4 ADD PUSH2 0x2068 JUMP JUMPDEST SWAP1 PUSH1 0x44 CALLDATALOAD DUP1 ISZERO ISZERO DUP2 SUB PUSH2 0x1EB JUMPI PUSH1 0x20 SWAP3 PUSH2 0x242 SWAP3 PUSH2 0x275D JUMP JUMPDEST PUSH1 0x40 MLOAD SWAP1 ISZERO ISZERO DUP2 MSTORE RETURN JUMPDEST CALLVALUE PUSH2 0x1EB JUMPI PUSH1 0x60 CALLDATASIZE PUSH1 0x3 NOT ADD SLT PUSH2 0x1EB JUMPI PUSH1 0x20 PUSH2 0x242 PUSH2 0x26A PUSH2 0x1E54 JUMP JUMPDEST PUSH1 0x44 CALLDATALOAD SWAP1 PUSH1 0x24 CALLDATALOAD SWAP1 PUSH2 0x2B5F JUMP JUMPDEST PUSH1 0x0 CALLDATASIZE PUSH1 0x3 NOT ADD SLT PUSH2 0x1EB JUMPI PUSH2 0x28B PUSH2 0x22FF JUMP JUMPDEST PUSH2 0x1B CALLVALUE ISZERO ISZERO PUSH2 0x228E JUMP JUMPDEST CALLVALUE PUSH2 0x1EB JUMPI PUSH1 0x20 CALLDATASIZE PUSH1 0x3 NOT ADD SLT PUSH2 0x1EB JUMPI PUSH1 0x4 CALLDATALOAD PUSH2 0x2B2 PUSH2 0x2117 JUMP JUMPDEST DUP1 PUSH1 0x0 MSTORE PUSH1 0x4 PUSH1 0x20 MSTORE PUSH1 0x9 PUSH1 0x40 PUSH1 0x0 KECCAK256 ADD DUP1 SLOAD PUSH2 0x2D1 PUSH1 0xFF DUP3 AND PUSH2 0x2335 JUMP JUMPDEST PUSH1 0xFF NOT AND SWAP1 SSTORE PUSH1 0x40 MLOAD SWAP1 TIMESTAMP DUP3 MSTORE PUSH32 0xF26427FE718F7A208B96AA3006E1F4BFB0AE8AB9934EC808C98FD863FF47D995 PUSH1 0x20 CALLER SWAP4 LOG3 STOP JUMPDEST CALLVALUE PUSH2 0x1EB JUMPI PUSH1 0x40 CALLDATASIZE PUSH1 0x3 NOT ADD SLT PUSH2 0x1EB JUMPI PUSH2 0x345 PUSH1 0x4 CALLDATALOAD PUSH2 0x325 PUSH2 0x1E3E JUMP JUMPDEST SWAP1 DUP1 PUSH1 0x0 MSTORE PUSH1 0x0 PUSH1 0x20 MSTORE PUSH2 0x340 PUSH1 0x1 PUSH1 0x40 PUSH1 0x0 KECCAK256 ADD SLOAD PUSH2 0x2173 JUMP JUMPDEST PUSH2 0x2218 JUMP JUMPDEST STOP JUMPDEST CALLVALUE PUSH2 0x1EB JUMPI PUSH1 0x20 CALLDATASIZE PUSH1 0x3 NOT ADD SLT PUSH2 0x1EB JUMPI PUSH1 0x4 CALLDATALOAD PUSH1 0x0 MSTORE PUSH1 0x8 PUSH1 0x20 MSTORE PUSH1 0xA0 PUSH1 0x40 PUSH1 0x0 KECCAK256 DUP1 SLOAD SWAP1 PUSH1 0x3 DUP2 ADD SLOAD SWAP1 PUSH1 0x4 DUP2 ADD SLOAD PUSH1 0xFF PUSH1 0x6 PUSH1 0x5 DUP5 ADD SLOAD SWAP4 ADD SLOAD AND SWAP3 PUSH1 0x40 MLOAD SWAP5 DUP6 MSTORE PUSH1 0x20 DUP6 ADD MSTORE PUSH1 0x40 DUP5 ADD MSTORE PUSH1 0x60 DUP4 ADD MSTORE ISZERO ISZERO PUSH1 0x80 DUP3 ADD MSTORE RETURN JUMPDEST CALLVALUE PUSH2 0x1EB JUMPI PUSH1 0x20 CALLDATASIZE PUSH1 0x3 NOT ADD SLT PUSH2 0x1EB JUMPI PUSH1 0x60 PUSH2 0x180 PUSH1 0x40 MLOAD PUSH2 0x3C6 DUP2 PUSH2 0x1EC0 JUMP JUMPDEST DUP3 DUP2 MSTORE DUP3 PUSH1 0x20 DUP3 ADD MSTORE PUSH1 0x0 PUSH1 0x40 DUP3 ADD MSTORE PUSH1 0x0 DUP4 DUP3 ADD MSTORE PUSH1 0x0 PUSH1 0x80 DUP3 ADD MSTORE PUSH1 0x0 PUSH1 0xA0 DUP3 ADD MSTORE PUSH1 0x0 PUSH1 0xC0 DUP3 ADD MSTORE PUSH1 0x0 PUSH1 0xE0 DUP3 ADD MSTORE PUSH1 0x0 PUSH2 0x100 DUP3 ADD MSTORE PUSH1 0x0 PUSH2 0x120 DUP3 ADD MSTORE PUSH1 0x0 PUSH2 0x140 DUP3 ADD MSTORE PUSH1 0x0 PUSH2 0x160 DUP3 ADD MSTORE ADD MSTORE PUSH1 0x4 CALLDATALOAD PUSH1 0x0 MSTORE PUSH1 0x4 PUSH1 0x20 MSTORE PUSH2 0x5B7 PUSH1 0x40 PUSH1 0x0 KECCAK256 PUSH2 0x4DF PUSH1 0xB PUSH1 0x40 MLOAD SWAP3 PUSH2 0x43F DUP5 PUSH2 0x1EC0 JUMP JUMPDEST PUSH2 0x448 DUP2 PUSH2 0x1EFF JUMP JUMPDEST DUP5 MSTORE PUSH2 0x456 PUSH1 0x1 DUP3 ADD PUSH2 0x1EFF JUMP JUMPDEST PUSH1 0x20 DUP6 ADD MSTORE PUSH1 0x2 DUP2 ADD SLOAD PUSH1 0x40 DUP6 ADD MSTORE PUSH1 0x3 DUP2 ADD SLOAD PUSH1 0x60 DUP6 ADD MSTORE PUSH1 0x4 DUP2 ADD SLOAD PUSH1 0x80 DUP6 ADD MSTORE PUSH1 0x5 DUP2 ADD SLOAD PUSH1 0xA0 DUP6 ADD MSTORE PUSH1 0x6 DUP2 ADD SLOAD PUSH1 0xC0 DUP6 ADD MSTORE PUSH1 0x7 DUP2 ADD SLOAD PUSH1 0xE0 DUP6 ADD MSTORE PUSH1 0x8 DUP2 ADD SLOAD PUSH2 0x100 DUP6 ADD MSTORE PUSH1 0x1 PUSH1 0x1 PUSH1 0xA0 SHL SUB PUSH1 0x9 DUP3 ADD SLOAD PUSH1 0xFF DUP2 AND ISZERO ISZERO PUSH2 0x120 DUP8 ADD MSTORE PUSH1 0x8 SHR AND PUSH2 0x140 DUP6 ADD MSTORE PUSH1 0x1 PUSH1 0x1 PUSH1 0xA0 SHL SUB PUSH1 0xA DUP3 ADD SLOAD AND PUSH2 0x160 DUP6 ADD MSTORE ADD PUSH2 0x1EFF JUMP JUMPDEST PUSH2 0x180 DUP3 ADD MSTORE PUSH1 0x40 MLOAD SWAP2 DUP3 SWAP2 PUSH1 0x20 DUP4 MSTORE PUSH2 0x180 PUSH2 0x523 PUSH2 0x50D DUP4 MLOAD PUSH2 0x1A0 PUSH1 0x20 DUP9 ADD MSTORE PUSH2 0x1C0 DUP8 ADD SWAP1 PUSH2 0x1FC8 JUMP JUMPDEST PUSH1 0x20 DUP5 ADD MLOAD DUP7 DUP3 SUB PUSH1 0x1F NOT ADD PUSH1 0x40 DUP9 ADD MSTORE PUSH2 0x1FC8 JUMP JUMPDEST SWAP2 PUSH1 0x40 DUP2 ADD MLOAD PUSH1 0x60 DUP7 ADD MSTORE PUSH1 0x60 DUP2 ADD MLOAD PUSH1 0x80 DUP7 ADD MSTORE PUSH1 0x80 DUP2 ADD MLOAD PUSH1 0xA0 DUP7 ADD MSTORE PUSH1 0xA0 DUP2 ADD MLOAD PUSH1 0xC0 DUP7 ADD MSTORE PUSH1 0xC0 DUP2 ADD MLOAD PUSH1 0xE0 DUP7 ADD MSTORE PUSH1 0xE0 DUP2 ADD MLOAD PUSH2 0x100 DUP7 ADD MSTORE PUSH2 0x100 DUP2 ADD MLOAD PUSH2 0x120 DUP7 ADD MSTORE PUSH2 0x120 DUP2 ADD MLOAD ISZERO ISZERO PUSH2 0x140 DUP7 ADD MSTORE PUSH1 0x1 PUSH1 0x1 PUSH1 0xA0 SHL SUB PUSH2 0x140 DUP3 ADD MLOAD AND PUSH2 0x160 DUP7 ADD MSTORE PUSH1 0x1 PUSH1 0x1 PUSH1 0xA0 SHL SUB PUSH2 0x160 DUP3 ADD MLOAD AND DUP3 DUP7 ADD MSTORE ADD MLOAD PUSH1 0x1F NOT DUP5 DUP4 SUB ADD PUSH2 0x1A0 DUP6 ADD MSTORE PUSH2 0x1FC8 JUMP JUMPDEST SUB SWAP1 RETURN JUMPDEST CALLVALUE PUSH2 0x1EB JUMPI PUSH1 0x0 CALLDATASIZE PUSH1 0x3 NOT ADD SLT PUSH2 0x1EB JUMPI PUSH1 0x20 PUSH1 0x40 MLOAD PUSH1 0x0 DUP2 MSTORE RETURN JUMPDEST CALLVALUE PUSH2 0x1EB JUMPI PUSH1 0x40 CALLDATASIZE PUSH1 0x3 NOT ADD SLT PUSH2 0x1EB JUMPI PUSH2 0x5F0 PUSH2 0x1E3E JUMP JUMPDEST PUSH1 0x4 CALLDATALOAD PUSH1 0x0 MSTORE PUSH1 0x7 PUSH1 0x20 MSTORE PUSH1 0x1 PUSH1 0x1 PUSH1 0xA0 SHL SUB PUSH1 0x40 PUSH1 0x0 KECCAK256 SWAP2 AND PUSH1 0x0 MSTORE PUSH1 0x20 MSTORE PUSH1 0x20 PUSH1 0xFF PUSH1 0x40 PUSH1 0x0 KECCAK256 SLOAD AND PUSH1 0x40 MLOAD SWAP1 ISZERO ISZERO DUP2 MSTORE RETURN JUMPDEST CALLVALUE PUSH2 0x1EB JUMPI PUSH1 0x40 CALLDATASIZE PUSH1 0x3 NOT ADD SLT PUSH2 0x1EB JUMPI PUSH2 0x63E PUSH2 0x1E3E JUMP JUMPDEST PUSH1 0x4 CALLDATALOAD PUSH1 0x0 MSTORE PUSH1 0x0 PUSH1 0x20 MSTORE PUSH1 0x1 PUSH1 0x1 PUSH1 0xA0 SHL SUB PUSH1 0x40 PUSH1 0x0 KECCAK256 SWAP2 AND PUSH1 0x0 MSTORE PUSH1 0x20 MSTORE PUSH1 0x20 PUSH1 0xFF PUSH1 0x40 PUSH1 0x0 KECCAK256 SLOAD AND PUSH1 0x40 MLOAD SWAP1 ISZERO ISZERO DUP2 MSTORE RETURN JUMPDEST CALLVALUE PUSH2 0x1EB JUMPI PUSH1 0x0 CALLDATASIZE PUSH1 0x3 NOT ADD SLT PUSH2 0x1EB JUMPI PUSH1 0x20 PUSH1 0x1 PUSH1 0x1 PUSH1 0xA0 SHL SUB PUSH1 0x9 SLOAD AND PUSH1 0x40 MLOAD SWAP1 DUP2 MSTORE RETURN JUMPDEST CALLVALUE PUSH2 0x1EB JUMPI PUSH1 0x40 CALLDATASIZE PUSH1 0x3 NOT ADD SLT PUSH2 0x1EB JUMPI PUSH2 0x6B3 PUSH2 0x1E54 JUMP JUMPDEST PUSH1 0x24 CALLDATALOAD PUSH8 0xFFFFFFFFFFFFFFFF DUP2 GT PUSH2 0x1EB JUMPI PUSH1 0x20 SWAP2 PUSH2 0x6D9 PUSH2 0x242 SWAP3 CALLDATASIZE SWAP1 PUSH1 0x4 ADD PUSH2 0x2068 JUMP JUMPDEST SWAP1 PUSH2 0x29F9 JUMP JUMPDEST CALLVALUE PUSH2 0x1EB JUMPI PUSH1 0x0 CALLDATASIZE PUSH1 0x3 NOT ADD SLT PUSH2 0x1EB JUMPI PUSH2 0x6F8 PUSH2 0x2117 JUMP JUMPDEST PUSH2 0x700 PUSH2 0x22FF JUMP JUMPDEST PUSH1 0x1 PUSH1 0xFF NOT DUP2 SLOAD AND OR PUSH1 0x1 SSTORE PUSH32 0x62E78CEA01BEE320CD4E420270B5EA74000D11B0C9F74754EBDBFC544B05A258 PUSH1 0x20 PUSH1 0x40 MLOAD CALLER DUP2 MSTORE LOG1 STOP JUMPDEST CALLVALUE PUSH2 0x1EB JUMPI PUSH1 0x20 DUP1 PUSH1 0x3 NOT CALLDATASIZE ADD SLT PUSH2 0x1EB JUMPI PUSH1 0x1 PUSH1 0x1 PUSH1 0xA0 SHL SUB PUSH2 0x75A PUSH2 0x1E54 JUMP JUMPDEST AND PUSH1 0x0 MSTORE PUSH1 0x5 DUP2 MSTORE PUSH1 0x40 PUSH1 0x0 KECCAK256 PUSH1 0x40 MLOAD SWAP1 DUP2 DUP4 DUP3 SLOAD SWAP2 DUP3 DUP2 MSTORE ADD SWAP1 DUP2 SWAP3 PUSH1 0x0 MSTORE DUP5 PUSH1 0x0 KECCAK256 SWAP1 PUSH1 0x0 JUMPDEST DUP7 DUP3 DUP3 LT PUSH2 0x7D8 JUMPI DUP7 DUP7 PUSH2 0x798 DUP3 DUP9 SUB DUP4 PUSH2 0x1EDD JUMP JUMPDEST PUSH1 0x40 MLOAD SWAP3 DUP4 SWAP3 DUP2 DUP5 ADD SWAP1 DUP3 DUP6 MSTORE MLOAD DUP1 SWAP2 MSTORE PUSH1 0x40 DUP5 ADD SWAP3 SWAP2 PUSH1 0x0 JUMPDEST DUP3 DUP2 LT PUSH2 0x7C1 JUMPI POP POP POP POP SUB SWAP1 RETURN JUMPDEST DUP4 MLOAD DUP6 MSTORE DUP7 SWAP6 POP SWAP4 DUP2 ADD SWAP4 SWAP3 DUP2 ADD SWAP3 PUSH1 0x1 ADD PUSH2 0x7B2 JUMP JUMPDEST DUP4 SLOAD DUP6 MSTORE SWAP1 SWAP4 ADD SWAP3 PUSH1 0x1 SWAP3 DUP4 ADD SWAP3 ADD PUSH2 0x782 JUMP JUMPDEST CALLVALUE PUSH2 0x1EB JUMPI PUSH1 0x0 CALLDATASIZE PUSH1 0x3 NOT ADD SLT PUSH2 0x1EB JUMPI PUSH1 0x20 PUSH1 0x40 MLOAD PUSH32 0xA49807205CE4D355092EF5A8A18F56E8913CF4A201FBE287825B095693C21775 DUP2 MSTORE RETURN JUMPDEST CALLVALUE PUSH2 0x1EB JUMPI PUSH1 0x40 CALLDATASIZE PUSH1 0x3 NOT ADD SLT PUSH2 0x1EB JUMPI PUSH2 0x840 PUSH2 0x1E54 JUMP JUMPDEST PUSH1 0x1 PUSH1 0x1 PUSH1 0xA0 SHL SUB PUSH1 0x24 CALLDATALOAD SWAP2 AND PUSH1 0x0 MSTORE PUSH1 0x5 PUSH1 0x20 MSTORE PUSH1 0x40 PUSH1 0x0 KECCAK256 DUP1 SLOAD DUP3 LT ISZERO PUSH2 0x1EB JUMPI PUSH1 0x20 SWAP2 PUSH2 0x86F SWAP2 PUSH2 0x20E9 JUMP JUMPDEST SWAP1 SLOAD PUSH1 0x40 MLOAD SWAP2 PUSH1 0x3 SHL SHR DUP2 MSTORE RETURN JUMPDEST CALLVALUE PUSH2 0x1EB JUMPI PUSH1 0x0 CALLDATASIZE PUSH1 0x3 NOT ADD SLT PUSH2 0x1EB JUMPI PUSH1 0x20 SELFBALANCE PUSH1 0x40 MLOAD SWAP1 DUP2 MSTORE RETURN JUMPDEST CALLVALUE PUSH2 0x1EB JUMPI PUSH1 0x0 CALLDATASIZE PUSH1 0x3 NOT ADD SLT PUSH2 0x1EB JUMPI PUSH1 0x20 PUSH1 0xFF PUSH1 0x1 SLOAD AND PUSH1 0x40 MLOAD SWAP1 ISZERO ISZERO DUP2 MSTORE RETURN JUMPDEST PUSH1 0x3 NOT PUSH2 0x100 CALLDATASIZE DUP3 ADD SLT PUSH2 0x1EB JUMPI PUSH1 0x4 CALLDATALOAD PUSH8 0xFFFFFFFFFFFFFFFF DUP2 GT PUSH2 0x1EB JUMPI PUSH2 0x8EA SWAP1 CALLDATASIZE SWAP1 PUSH1 0x4 ADD PUSH2 0x2009 JUMP JUMPDEST SWAP1 PUSH1 0x24 CALLDATALOAD PUSH8 0xFFFFFFFFFFFFFFFF DUP2 GT PUSH2 0x1EB JUMPI PUSH2 0x90B SWAP1 CALLDATASIZE SWAP1 PUSH1 0x4 ADD PUSH2 0x2009 JUMP JUMPDEST SWAP1 PUSH1 0xA4 CALLDATALOAD SWAP2 PUSH1 0x1 PUSH1 0x1 PUSH1 0xA0 SHL SUB DUP4 AND DUP4 SUB PUSH2 0x1EB JUMPI PUSH1 0xC4 CALLDATALOAD PUSH8 0xFFFFFFFFFFFFFFFF DUP2 GT PUSH2 0x1EB JUMPI PUSH2 0x940 SWAP1 CALLDATASIZE SWAP1 PUSH1 0x4 ADD PUSH2 0x2009 JUMP JUMPDEST SWAP2 PUSH8 0xFFFFFFFFFFFFFFFF PUSH1 0xE4 CALLDATALOAD GT PUSH2 0x1EB JUMPI PUSH1 0xE0 SWAP1 PUSH1 0xE4 CALLDATALOAD CALLDATASIZE SUB ADD SLT PUSH2 0x1EB JUMPI PUSH1 0x40 MLOAD SWAP2 PUSH2 0x96D DUP4 PUSH2 0x1EA4 JUMP JUMPDEST PUSH1 0xE4 CALLDATALOAD PUSH1 0x4 ADD CALLDATALOAD DUP4 MSTORE PUSH1 0x24 PUSH1 0xE4 CALLDATALOAD ADD CALLDATALOAD PUSH8 0xFFFFFFFFFFFFFFFF DUP2 GT PUSH2 0x1EB JUMPI PUSH2 0x99E SWAP1 PUSH1 0x4 CALLDATASIZE SWAP2 PUSH1 0xE4 CALLDATALOAD ADD ADD PUSH2 0x2068 JUMP JUMPDEST PUSH1 0x20 DUP5 ADD MSTORE PUSH8 0xFFFFFFFFFFFFFFFF PUSH1 0x44 PUSH1 0xE4 CALLDATALOAD ADD CALLDATALOAD GT PUSH2 0x1EB JUMPI PUSH2 0x9CD CALLDATASIZE PUSH1 0xE4 CALLDATALOAD PUSH1 0x44 DUP2 ADD CALLDATALOAD ADD PUSH1 0x4 ADD PUSH2 0x2068 JUMP JUMPDEST PUSH1 0x40 DUP5 ADD MSTORE PUSH1 0xE4 CALLDATALOAD PUSH1 0x64 DUP2 ADD CALLDATALOAD PUSH1 0x60 DUP6 ADD MSTORE PUSH1 0x84 DUP2 ADD CALLDATALOAD PUSH1 0x80 DUP6 ADD MSTORE PUSH1 0xA4 DUP2 ADD CALLDATALOAD PUSH1 0xA0 DUP6 ADD MSTORE PUSH1 0xC4 ADD CALLDATALOAD DUP1 ISZERO ISZERO SWAP1 SUB PUSH2 0x1EB JUMPI PUSH1 0xE4 CALLDATALOAD PUSH1 0xC4 ADD CALLDATALOAD PUSH1 0xC0 DUP5 ADD MSTORE CALLER PUSH1 0x0 SWAP1 DUP2 MSTORE PUSH32 0x2BE4733A403B4FA43FE419B79F643EA84B696C2296FA963FA7AE1E04F1979844 PUSH1 0x20 MSTORE PUSH1 0x40 SWAP1 KECCAK256 SLOAD PUSH32 0x10611FEACF75D15E8CDAB75BAB566E5FA2CFA0EFAEA1E2CE4EDDAB65AC96F5A2 SWAP1 PUSH1 0xFF AND ISZERO PUSH2 0x1509 JUMPI POP PUSH2 0xA6E PUSH2 0x22FF JUMP JUMPDEST PUSH2 0xA7B PUSH1 0x44 CALLDATALOAD ISZERO ISZERO PUSH2 0x228E JUMP JUMPDEST PUSH1 0x64 CALLDATALOAD ISZERO PUSH2 0x149F JUMPI TIMESTAMP PUSH1 0x84 CALLDATALOAD GT ISZERO PUSH2 0x145B JUMPI DUP5 MLOAD ISZERO PUSH2 0x1417 JUMPI PUSH1 0x1 PUSH1 0x1 PUSH1 0xA0 SHL SUB DUP5 AND ISZERO PUSH2 0x13C9 JUMPI JUMPDEST PUSH1 0x1 PUSH1 0x1 PUSH1 0xA0 SHL SUB PUSH2 0xAB7 PUSH1 0x3 SLOAD PUSH2 0x22D9 JUMP JUMPDEST SWAP5 DUP6 PUSH1 0x3 SSTORE PUSH1 0x40 MLOAD SWAP4 PUSH2 0xAC9 DUP6 PUSH2 0x1EC0 JUMP JUMPDEST DUP8 DUP6 MSTORE PUSH1 0x20 DUP6 ADD MSTORE PUSH1 0x44 CALLDATALOAD PUSH1 0x40 DUP6 ADD MSTORE PUSH1 0x0 PUSH1 0x60 DUP6 ADD MSTORE PUSH1 0x44 CALLDATALOAD PUSH1 0x80 DUP6 ADD MSTORE PUSH1 0x64 CALLDATALOAD PUSH1 0xA0 DUP6 ADD MSTORE PUSH1 0x64 CALLDATALOAD PUSH1 0x44 CALLDATALOAD DIV PUSH1 0xC0 DUP6 ADD MSTORE TIMESTAMP PUSH1 0xE0 DUP6 ADD MSTORE PUSH1 0x84 CALLDATALOAD PUSH2 0x100 DUP6 ADD MSTORE PUSH1 0x1 PUSH2 0x120 DUP6 ADD MSTORE CALLER PUSH2 0x140 DUP6 ADD MSTORE AND PUSH2 0x160 DUP4 ADD MSTORE PUSH2 0x180 DUP3 ADD MSTORE DUP3 PUSH1 0x0 MSTORE PUSH1 0x4 PUSH1 0x20 MSTORE PUSH1 0x40 PUSH1 0x0 KECCAK256 SWAP1 DUP1 MLOAD DUP1 MLOAD SWAP1 PUSH8 0xFFFFFFFFFFFFFFFF DUP3 GT PUSH2 0xFA0 JUMPI DUP2 SWAP1 PUSH2 0xB56 DUP6 SLOAD PUSH2 0x1E6A JUMP JUMPDEST PUSH1 0x1F DUP2 GT PUSH2 0x1397 JUMPI JUMPDEST POP PUSH1 0x20 SWAP1 PUSH1 0x1F DUP4 GT PUSH1 0x1 EQ PUSH2 0x132B JUMPI PUSH1 0x0 SWAP3 PUSH2 0x1320 JUMPI JUMPDEST POP POP DUP2 PUSH1 0x1 SHL SWAP2 PUSH1 0x0 NOT SWAP1 PUSH1 0x3 SHL SHR NOT AND OR DUP3 SSTORE JUMPDEST PUSH1 0x20 DUP2 ADD MLOAD DUP1 MLOAD SWAP1 PUSH8 0xFFFFFFFFFFFFFFFF DUP3 GT PUSH2 0xFA0 JUMPI PUSH2 0xBAF PUSH1 0x1 DUP6 ADD SLOAD PUSH2 0x1E6A JUMP JUMPDEST PUSH1 0x1F DUP2 GT PUSH2 0x12EB JUMPI JUMPDEST POP PUSH1 0x20 SWAP1 PUSH1 0x1F DUP4 GT PUSH1 0x1 EQ PUSH2 0x1277 JUMPI PUSH2 0x180 SWAP4 SWAP3 SWAP2 PUSH1 0x0 SWAP2 DUP4 PUSH2 0x126C JUMPI JUMPDEST POP POP DUP2 PUSH1 0x1 SHL SWAP2 PUSH1 0x0 NOT SWAP1 PUSH1 0x3 SHL SHR NOT AND OR PUSH1 0x1 DUP5 ADD SSTORE JUMPDEST PUSH1 0x40 DUP2 ADD MLOAD PUSH1 0x2 DUP5 ADD SSTORE PUSH1 0x60 DUP2 ADD MLOAD PUSH1 0x3 DUP5 ADD SSTORE PUSH1 0x80 DUP2 ADD MLOAD PUSH1 0x4 DUP5 ADD SSTORE PUSH1 0xA0 DUP2 ADD MLOAD PUSH1 0x5 DUP5 ADD SSTORE PUSH1 0xC0 DUP2 ADD MLOAD PUSH1 0x6 DUP5 ADD SSTORE PUSH1 0xE0 DUP2 ADD MLOAD PUSH1 0x7 DUP5 ADD SSTORE PUSH2 0x100 DUP2 ADD MLOAD PUSH1 0x8 DUP5 ADD SSTORE PUSH1 0x9 DUP4 ADD PUSH2 0xC56 PUSH2 0x120 DUP4 ADD MLOAD ISZERO ISZERO DUP3 SWAP1 PUSH1 0xFF DUP1 NOT DUP4 SLOAD AND SWAP2 ISZERO ISZERO AND OR SWAP1 SSTORE JUMP JUMPDEST PUSH2 0x140 DUP3 ADD MLOAD PUSH32 0xFFFFFFFFFFFFFFFFFFFFFF0000000000000000000000000000000000000000FF PUSH21 0xFFFFFFFFFFFFFFFFFFFFFFFFFFFFFFFFFFFFFFFF00 DUP4 SLOAD SWAP3 PUSH1 0x8 SHL AND SWAP2 AND OR SWAP1 SSTORE PUSH1 0xA DUP4 ADD PUSH1 0x1 PUSH1 0x1 PUSH1 0xA0 SHL SUB PUSH2 0x160 DUP4 ADD MLOAD AND PUSH32 0xFFFFFFFFFFFFFFFFFFFFFFFF0000000000000000000000000000000000000000 DUP3 SLOAD AND OR SWAP1 SSTORE ADD MLOAD DUP1 MLOAD SWAP1 PUSH8 0xFFFFFFFFFFFFFFFF DUP3 GT PUSH2 0xFA0 JUMPI PUSH2 0xCFA PUSH1 0xB DUP5 ADD SLOAD PUSH2 0x1E6A JUMP JUMPDEST PUSH1 0x1F DUP2 GT PUSH2 0x1237 JUMPI JUMPDEST POP PUSH1 0x20 SWAP1 PUSH1 0x1F DUP4 GT PUSH1 0x1 EQ PUSH2 0x11C7 JUMPI PUSH1 0xB SWAP3 SWAP2 PUSH1 0x0 SWAP2 DUP4 PUSH2 0x11BC JUMPI JUMPDEST POP POP DUP2 PUSH1 0x1 SHL SWAP2 PUSH1 0x0 NOT SWAP1 PUSH1 0x3 SHL SHR NOT AND OR SWAP2 ADD SSTORE JUMPDEST DUP2 PUSH1 0x0 MSTORE PUSH1 0x8 PUSH1 0x20 MSTORE PUSH1 0x40 PUSH1 0x0 KECCAK256 SWAP1 DUP1 MLOAD DUP3 SSTORE PUSH1 0x20 DUP2 ADD MLOAD DUP1 MLOAD SWAP1 PUSH9 0x10000000000000000 DUP3 GT PUSH2 0xFA0 JUMPI PUSH1 0x1 DUP5 ADD SLOAD DUP3 PUSH1 0x1 DUP7 ADD SSTORE DUP1 DUP4 LT PUSH2 0x1144 JUMPI JUMPDEST POP PUSH1 0x20 ADD SWAP1 PUSH1 0x1 DUP5 ADD PUSH1 0x0 MSTORE PUSH1 0x20 PUSH1 0x0 KECCAK256 SWAP2 PUSH1 0x0 SWAP1 JUMPDEST DUP3 DUP3 LT PUSH2 0x102E JUMPI POP POP POP POP PUSH1 0x40 DUP2 ADD MLOAD DUP1 MLOAD SWAP1 PUSH9 0x10000000000000000 DUP3 GT PUSH2 0xFA0 JUMPI PUSH1 0x2 DUP5 ADD SLOAD DUP3 PUSH1 0x2 DUP7 ADD SSTORE DUP1 DUP4 LT PUSH2 0xFB6 JUMPI JUMPDEST POP PUSH1 0x20 ADD SWAP1 PUSH1 0x2 DUP5 ADD PUSH1 0x0 MSTORE PUSH1 0x20 PUSH1 0x0 KECCAK256 SWAP2 PUSH1 0x0 SWAP1 JUMPDEST DUP3 DUP3 LT PUSH2 0xE7F JUMPI PUSH1 0x20 DUP8 DUP1 PUSH32 0xFB7D30F4038456FA76A49E3E268621C565E0E045B6E0F73E0B82D5914F82115A PUSH2 0xE57 DUP13 PUSH2 0xE43 DUP13 PUSH1 0x6 PUSH1 0xC0 DUP15 PUSH1 0x60 DUP2 ADD MLOAD PUSH1 0x3 DUP6 ADD SSTORE PUSH1 0x80 DUP2 ADD MLOAD PUSH1 0x4 DUP6 ADD SSTORE PUSH1 0xA0 DUP2 ADD MLOAD PUSH1 0x5 DUP6 ADD SSTORE ADD MLOAD ISZERO ISZERO SWAP2 ADD SWAP1 PUSH1 0xFF DUP1 NOT DUP4 SLOAD AND SWAP2 ISZERO ISZERO AND OR SWAP1 SSTORE JUMP JUMPDEST PUSH1 0x40 MLOAD SWAP2 DUP3 SWAP2 PUSH1 0xA0 DUP4 MSTORE PUSH1 0xA0 DUP4 ADD SWAP1 PUSH2 0x1FC8 JUMP JUMPDEST PUSH1 0x44 CALLDATALOAD DUP8 DUP4 ADD MSTORE PUSH1 0x64 CALLDATALOAD PUSH1 0x40 DUP4 ADD MSTORE PUSH1 0x84 CALLDATALOAD PUSH1 0x60 DUP4 ADD MSTORE TIMESTAMP PUSH1 0x80 DUP4 ADD MSTORE SUB SWAP1 LOG2 PUSH1 0x40 MLOAD SWAP1 DUP2 MSTORE RETURN JUMPDEST DUP1 MLOAD DUP1 MLOAD SWAP1 PUSH8 0xFFFFFFFFFFFFFFFF DUP3 GT PUSH2 0xFA0 JUMPI PUSH2 0xE9D DUP7 SLOAD PUSH2 0x1E6A JUMP JUMPDEST PUSH1 0x1F DUP2 GT PUSH2 0xF63 JUMPI JUMPDEST POP PUSH1 0x20 SWAP1 PUSH1 0x1F DUP4 GT PUSH1 0x1 EQ PUSH2 0xEF3 JUMPI SWAP3 DUP3 PUSH1 0x1 SWAP5 SWAP4 PUSH1 0x20 SWAP4 DUP7 SWAP6 PUSH1 0x0 SWAP3 PUSH2 0xEE8 JUMPI JUMPDEST POP POP PUSH1 0x0 NOT PUSH1 0x3 DUP4 SWAP1 SHL SHR NOT AND SWAP1 DUP5 SHL OR DUP8 SSTORE JUMPDEST ADD SWAP5 ADD SWAP2 ADD SWAP1 SWAP3 PUSH2 0xDD5 JUMP JUMPDEST ADD MLOAD SWAP1 POP DUP14 DUP1 PUSH2 0xEC8 JUMP JUMPDEST SWAP1 DUP7 PUSH1 0x0 MSTORE PUSH1 0x20 PUSH1 0x0 KECCAK256 SWAP2 PUSH1 0x0 JUMPDEST PUSH1 0x1F NOT DUP6 AND DUP2 LT PUSH2 0xF4B JUMPI POP DUP4 PUSH1 0x20 SWAP4 PUSH1 0x1 SWAP7 SWAP4 DUP8 SWAP7 SWAP4 DUP8 SWAP5 PUSH1 0x1F NOT DUP2 AND LT PUSH2 0xF32 JUMPI JUMPDEST POP POP POP DUP2 SHL ADD DUP8 SSTORE PUSH2 0xEDC JUMP JUMPDEST ADD MLOAD PUSH1 0x0 NOT PUSH1 0xF8 DUP5 PUSH1 0x3 SHL AND SHR NOT AND SWAP1 SSTORE DUP14 DUP1 DUP1 PUSH2 0xF25 JUMP JUMPDEST SWAP2 SWAP3 PUSH1 0x20 PUSH1 0x1 DUP2 SWAP3 DUP7 DUP6 ADD MLOAD DUP2 SSTORE ADD SWAP5 ADD SWAP3 ADD PUSH2 0xF01 JUMP JUMPDEST PUSH2 0xF90 SWAP1 DUP8 PUSH1 0x0 MSTORE PUSH1 0x20 PUSH1 0x0 KECCAK256 PUSH1 0x1F DUP6 ADD PUSH1 0x5 SHR DUP2 ADD SWAP2 PUSH1 0x20 DUP7 LT PUSH2 0xF96 JUMPI JUMPDEST PUSH1 0x1F ADD PUSH1 0x5 SHR ADD SWAP1 PUSH2 0x22E8 JUMP JUMPDEST DUP11 PUSH2 0xEA6 JUMP JUMPDEST SWAP1 SWAP2 POP DUP2 SWAP1 PUSH2 0xF83 JUMP JUMPDEST PUSH4 0x4E487B71 PUSH1 0xE0 SHL PUSH1 0x0 MSTORE PUSH1 0x41 PUSH1 0x4 MSTORE PUSH1 0x24 PUSH1 0x0 REVERT JUMPDEST PUSH1 0x2 DUP6 ADD PUSH1 0x0 MSTORE PUSH1 0x20 PUSH1 0x0 KECCAK256 SWAP1 DUP4 DUP3 ADD JUMPDEST DUP2 DUP4 ADD DUP2 LT PUSH2 0xFD7 JUMPI POP POP PUSH2 0xDBF JUMP JUMPDEST DUP1 PUSH2 0xFE4 PUSH1 0x1 SWAP3 SLOAD PUSH2 0x1E6A JUMP JUMPDEST DUP1 PUSH2 0xFF1 JUMPI JUMPDEST POP ADD PUSH2 0xFC7 JUMP JUMPDEST PUSH1 0x1F DUP2 GT DUP4 EQ PUSH2 0x1007 JUMPI POP PUSH1 0x0 DUP2 SSTORE JUMPDEST DUP11 PUSH2 0xFEA JUMP JUMPDEST PUSH1 0x0 SWAP1 DUP3 DUP3 MSTORE PUSH2 0x1025 PUSH1 0x1F PUSH1 0x20 DUP5 KECCAK256 SWAP3 ADD PUSH1 0x5 SHR DUP3 ADD DUP6 DUP4 ADD PUSH2 0x22E8 JUMP JUMPDEST DUP2 DUP4 SSTORE SSTORE PUSH2 0x1001 JUMP JUMPDEST DUP1 MLOAD DUP1 MLOAD SWAP1 PUSH8 0xFFFFFFFFFFFFFFFF DUP3 GT PUSH2 0xFA0 JUMPI PUSH2 0x104C DUP7 SLOAD PUSH2 0x1E6A JUMP JUMPDEST PUSH1 0x1F DUP2 GT PUSH2 0x1112 JUMPI JUMPDEST POP PUSH1 0x20 SWAP1 PUSH1 0x1F DUP4 GT PUSH1 0x1 EQ PUSH2 0x10A2 JUMPI SWAP3 DUP3 PUSH1 0x1 SWAP5 SWAP4 PUSH1 0x20 SWAP4 DUP7 SWAP6 PUSH1 0x0 SWAP3 PUSH2 0x1097 JUMPI JUMPDEST POP POP PUSH1 0x0 NOT PUSH1 0x3 DUP4 SWAP1 SHL SHR NOT AND SWAP1 DUP5 SHL OR DUP8 SSTORE JUMPDEST ADD SWAP5 ADD SWAP2 ADD SWAP1 SWAP3 PUSH2 0xD89 JUMP JUMPDEST ADD MLOAD SWAP1 POP DUP14 DUP1 PUSH2 0x1077 JUMP JUMPDEST SWAP1 DUP7 PUSH1 0x0 MSTORE PUSH1 0x20 PUSH1 0x0 KECCAK256 SWAP2 PUSH1 0x0 JUMPDEST PUSH1 0x1F NOT DUP6 AND DUP2 LT PUSH2 0x10FA JUMPI POP DUP4 PUSH1 0x20 SWAP4 PUSH1 0x1 SWAP7 SWAP4 DUP8 SWAP7 SWAP4 DUP8 SWAP5 PUSH1 0x1F NOT DUP2 AND LT PUSH2 0x10E1 JUMPI JUMPDEST POP POP POP DUP2 SHL ADD DUP8 SSTORE PUSH2 0x108B JUMP JUMPDEST ADD MLOAD PUSH1 0x0 NOT PUSH1 0xF8 DUP5 PUSH1 0x3 SHL AND SHR NOT AND SWAP1 SSTORE DUP14 DUP1 DUP1 PUSH2 0x10D4 JUMP JUMPDEST SWAP2 SWAP3 PUSH1 0x20 PUSH1 0x1 DUP2 SWAP3 DUP7 DUP6 ADD MLOAD DUP2 SSTORE ADD SWAP5 ADD SWAP3 ADD PUSH2 0x10B0 JUMP JUMPDEST PUSH2 0x113E SWAP1 DUP8 PUSH1 0x0 MSTORE PUSH1 0x20 PUSH1 0x0 KECCAK256 PUSH1 0x1F DUP6 ADD PUSH1 0x5 SHR DUP2 ADD SWAP2 PUSH1 0x20 DUP7 LT PUSH2 0xF96 JUMPI PUSH1 0x1F ADD PUSH1 0x5 SHR ADD SWAP1 PUSH2 0x22E8 JUMP JUMPDEST DUP11 PUSH2 0x1055 JUMP JUMPDEST PUSH1 0x1 DUP6 ADD PUSH1 0x0 MSTORE PUSH1 0x20 PUSH1 0x0 KECCAK256 SWAP1 DUP4 DUP3 ADD JUMPDEST DUP2 DUP4 ADD DUP2 LT PUSH2 0x1165 JUMPI POP POP PUSH2 0xD73 JUMP JUMPDEST DUP1 PUSH2 0x1172 PUSH1 0x1 SWAP3 SLOAD PUSH2 0x1E6A JUMP JUMPDEST DUP1 PUSH2 0x117F JUMPI JUMPDEST POP ADD PUSH2 0x1155 JUMP JUMPDEST PUSH1 0x1F DUP2 GT DUP4 EQ PUSH2 0x1195 JUMPI POP PUSH1 0x0 DUP2 SSTORE JUMPDEST DUP11 PUSH2 0x1178 JUMP JUMPDEST PUSH1 0x0 SWAP1 DUP3 DUP3 MSTORE PUSH2 0x11B3 PUSH1 0x1F PUSH1 0x20 DUP5 KECCAK256 SWAP3 ADD PUSH1 0x5 SHR DUP3 ADD DUP6 DUP4 ADD PUSH2 0x22E8 JUMP JUMPDEST DUP2 DUP4 SSTORE SSTORE PUSH2 0x118F JUMP JUMPDEST ADD MLOAD SWAP1 POP DUP8 DUP1 PUSH2 0xD1F JUMP JUMPDEST SWAP1 PUSH1 0xB DUP5 ADD PUSH1 0x0 MSTORE PUSH1 0x20 PUSH1 0x0 KECCAK256 SWAP2 PUSH1 0x0 JUMPDEST PUSH1 0x1F NOT DUP6 AND DUP2 LT PUSH2 0x121F JUMPI POP SWAP2 DUP4 SWAP2 PUSH1 0x1 SWAP4 PUSH1 0xB SWAP6 PUSH1 0x1F NOT DUP2 AND LT PUSH2 0x1206 JUMPI JUMPDEST POP POP POP DUP2 SHL ADD SWAP2 ADD SSTORE PUSH2 0xD35 JUMP JUMPDEST ADD MLOAD PUSH1 0x0 NOT PUSH1 0xF8 DUP5 PUSH1 0x3 SHL AND SHR NOT AND SWAP1 SSTORE DUP8 DUP1 DUP1 PUSH2 0x11F8 JUMP JUMPDEST SWAP2 SWAP3 PUSH1 0x20 PUSH1 0x1 DUP2 SWAP3 DUP7 DUP6 ADD MLOAD DUP2 SSTORE ADD SWAP5 ADD SWAP3 ADD PUSH2 0x11D8 JUMP JUMPDEST PUSH2 0x1266 SWAP1 PUSH1 0xB DUP6 ADD PUSH1 0x0 MSTORE PUSH1 0x20 PUSH1 0x0 KECCAK256 PUSH1 0x1F DUP6 ADD PUSH1 0x5 SHR DUP2 ADD SWAP2 PUSH1 0x20 DUP7 LT PUSH2 0xF96 JUMPI PUSH1 0x1F ADD PUSH1 0x5 SHR ADD SWAP1 PUSH2 0x22E8 JUMP JUMPDEST DUP7 PUSH2 0xD03 JUMP JUMPDEST ADD MLOAD SWAP1 POP DUP9 DUP1 PUSH2 0xBD6 JUMP JUMPDEST SWAP1 PUSH1 0x1 DUP6 ADD PUSH1 0x0 MSTORE PUSH1 0x20 PUSH1 0x0 KECCAK256 SWAP2 PUSH1 0x0 JUMPDEST PUSH1 0x1F NOT DUP6 AND DUP2 LT PUSH2 0x12D3 JUMPI POP SWAP2 DUP4 SWAP2 PUSH1 0x1 SWAP4 PUSH2 0x180 SWAP7 SWAP6 PUSH1 0x1F NOT DUP2 AND LT PUSH2 0x12BA JUMPI JUMPDEST POP POP POP DUP2 SHL ADD PUSH1 0x1 DUP5 ADD SSTORE PUSH2 0xBEE JUMP JUMPDEST ADD MLOAD PUSH1 0x0 NOT PUSH1 0xF8 DUP5 PUSH1 0x3 SHL AND SHR NOT AND SWAP1 SSTORE DUP9 DUP1 DUP1 PUSH2 0x12AA JUMP JUMPDEST SWAP2 SWAP3 PUSH1 0x20 PUSH1 0x1 DUP2 SWAP3 DUP7 DUP6 ADD MLOAD DUP2 SSTORE ADD SWAP5 ADD SWAP3 ADD PUSH2 0x1288 JUMP JUMPDEST PUSH2 0x131A SWAP1 PUSH1 0x1 DUP7 ADD PUSH1 0x0 MSTORE PUSH1 0x20 PUSH1 0x0 KECCAK256 PUSH1 0x1F DUP6 ADD PUSH1 0x5 SHR DUP2 ADD SWAP2 PUSH1 0x20 DUP7 LT PUSH2 0xF96 JUMPI PUSH1 0x1F ADD PUSH1 0x5 SHR ADD SWAP1 PUSH2 0x22E8 JUMP JUMPDEST DUP8 PUSH2 0xBB8 JUMP JUMPDEST ADD MLOAD SWAP1 POP DUP8 DUP1 PUSH2 0xB76 JUMP JUMPDEST SWAP3 POP DUP5 PUSH1 0x0 MSTORE PUSH1 0x20 PUSH1 0x0 KECCAK256 SWAP1 PUSH1 0x0 SWAP4 JUMPDEST PUSH1 0x1F NOT DUP5 AND DUP6 LT PUSH2 0x137C JUMPI PUSH1 0x1 SWAP5 POP DUP4 PUSH1 0x1F NOT DUP2 AND LT PUSH2 0x1363 JUMPI JUMPDEST POP POP POP DUP2 SHL ADD DUP3 SSTORE PUSH2 0xB8B JUMP JUMPDEST ADD MLOAD PUSH1 0x0 NOT PUSH1 0xF8 DUP5 PUSH1 0x3 SHL AND SHR NOT AND SWAP1 SSTORE DUP8 DUP1 DUP1 PUSH2 0x1356 JUMP JUMPDEST DUP2 DUP2 ADD MLOAD DUP4 SSTORE PUSH1 0x20 SWAP5 DUP6 ADD SWAP5 PUSH1 0x1 SWAP1 SWAP4 ADD SWAP3 SWAP1 SWAP2 ADD SWAP1 PUSH2 0x133B JUMP JUMPDEST PUSH2 0x13C3 SWAP1 DUP7 PUSH1 0x0 MSTORE PUSH1 0x20 PUSH1 0x0 KECCAK256 PUSH1 0x1F DUP6 ADD PUSH1 0x5 SHR DUP2 ADD SWAP2 PUSH1 0x20 DUP7 LT PUSH2 0xF96 JUMPI PUSH1 0x1F ADD PUSH1 0x5 SHR ADD SWAP1 PUSH2 0x22E8 JUMP JUMPDEST DUP9 PUSH2 0xB5F JUMP JUMPDEST PUSH1 0x44 CALLDATALOAD CALLVALUE LT ISZERO PUSH2 0xAA4 JUMPI PUSH1 0x64 PUSH1 0x40 MLOAD PUSH3 0x461BCD PUSH1 0xE5 SHL DUP2 MSTORE PUSH1 0x20 PUSH1 0x4 DUP3 ADD MSTORE PUSH1 0x15 PUSH1 0x24 DUP3 ADD MSTORE PUSH32 0x496E73756666696369656E74204554482073656E740000000000000000000000 PUSH1 0x44 DUP3 ADD MSTORE REVERT JUMPDEST PUSH1 0x64 PUSH1 0x40 MLOAD PUSH3 0x461BCD PUSH1 0xE5 SHL DUP2 MSTORE PUSH1 0x20 PUSH1 0x4 DUP3 ADD MSTORE PUSH1 0x14 PUSH1 0x24 DUP3 ADD MSTORE PUSH32 0x4E616D652063616E6E6F7420626520656D707479000000000000000000000000 PUSH1 0x44 DUP3 ADD MSTORE REVERT JUMPDEST PUSH1 0x64 PUSH1 0x40 MLOAD PUSH3 0x461BCD PUSH1 0xE5 SHL DUP2 MSTORE PUSH1 0x20 PUSH1 0x4 DUP3 ADD MSTORE PUSH1 0x1E PUSH1 0x24 DUP3 ADD MSTORE PUSH32 0x446561646C696E65206D75737420626520696E20746865206675747572650000 PUSH1 0x44 DUP3 ADD MSTORE REVERT JUMPDEST PUSH1 0x84 PUSH1 0x40 MLOAD PUSH3 0x461BCD PUSH1 0xE5 SHL DUP2 MSTORE PUSH1 0x20 PUSH1 0x4 DUP3 ADD MSTORE PUSH1 0x25 PUSH1 0x24 DUP3 ADD MSTORE PUSH32 0x4D617820726563697069656E7473206D75737420626520677265617465722074 PUSH1 0x44 DUP3 ADD MSTORE PUSH32 0x68616E2030000000000000000000000000000000000000000000000000000000 PUSH1 0x64 DUP3 ADD MSTORE REVERT JUMPDEST PUSH1 0x44 SWAP1 PUSH1 0x40 MLOAD SWAP1 PUSH32 0xE2517D3F00000000000000000000000000000000000000000000000000000000 DUP3 MSTORE CALLER PUSH1 0x4 DUP4 ADD MSTORE PUSH1 0x24 DUP3 ADD MSTORE REVERT JUMPDEST CALLVALUE PUSH2 0x1EB JUMPI PUSH1 0x0 CALLDATASIZE PUSH1 0x3 NOT ADD SLT PUSH2 0x1EB JUMPI PUSH2 0x1559 PUSH2 0x2117 JUMP JUMPDEST PUSH1 0x1 SLOAD PUSH1 0xFF DUP2 AND ISZERO PUSH2 0x1598 JUMPI PUSH1 0xFF NOT AND PUSH1 0x1 SSTORE PUSH32 0x5DB9EE0A495BF2E6FF9C91A7834C1BA4FDD244A5E8AA4E537BD38AEAE4B073AA PUSH1 0x20 PUSH1 0x40 MLOAD CALLER DUP2 MSTORE LOG1 STOP JUMPDEST PUSH1 0x4 PUSH1 0x40 MLOAD PUSH32 0x8DFC202B00000000000000000000000000000000000000000000000000000000 DUP2 MSTORE REVERT JUMPDEST CALLVALUE PUSH2 0x1EB JUMPI PUSH1 0x0 CALLDATASIZE PUSH1 0x3 NOT ADD SLT PUSH2 0x1EB JUMPI PUSH1 0x20 PUSH1 0x40 MLOAD PUSH32 0x10611FEACF75D15E8CDAB75BAB566E5FA2CFA0EFAEA1E2CE4EDDAB65AC96F5A2 DUP2 MSTORE RETURN JUMPDEST CALLVALUE PUSH2 0x1EB JUMPI PUSH1 0x20 CALLDATASIZE PUSH1 0x3 NOT ADD SLT PUSH2 0x1EB JUMPI PUSH1 0x4 CALLDATALOAD PUSH1 0x0 MSTORE PUSH1 0x4 PUSH1 0x20 MSTORE PUSH1 0x40 PUSH1 0x0 KECCAK256 PUSH2 0x1627 DUP2 PUSH2 0x1EFF JUMP JUMPDEST PUSH2 0x1633 PUSH1 0x1 DUP4 ADD PUSH2 0x1EFF JUMP JUMPDEST SWAP2 PUSH1 0x2 DUP2 ADD SLOAD PUSH1 0x3 DUP3 ADD SLOAD SWAP2 PUSH1 0x4 DUP2 ADD SLOAD PUSH1 0x5 DUP3 ADD SLOAD PUSH1 0x6 DUP4 ADD SLOAD PUSH1 0x7 DUP5 ADD SLOAD PUSH1 0x8 DUP6 ADD SLOAD SWAP2 PUSH1 0x9 DUP7 ADD SLOAD SWAP4 PUSH1 0x1 PUSH1 0x1 PUSH1 0xA0 SHL SUB SWAP6 DUP7 PUSH1 0xA DUP10 ADD SLOAD AND SWAP8 PUSH1 0xB ADD PUSH2 0x167C SWAP1 PUSH2 0x1EFF JUMP JUMPDEST SWAP10 PUSH1 0x40 MLOAD SWAP13 DUP14 SWAP13 DUP14 PUSH2 0x1A0 SWAP1 DUP2 DUP2 MSTORE ADD PUSH2 0x1695 SWAP2 PUSH2 0x1FC8 JUMP JUMPDEST DUP14 DUP2 SUB PUSH1 0x20 DUP16 ADD MSTORE PUSH2 0x16A6 SWAP2 PUSH2 0x1FC8 JUMP JUMPDEST SWAP10 PUSH1 0x40 DUP14 ADD MSTORE PUSH1 0x60 DUP13 ADD MSTORE PUSH1 0x80 DUP12 ADD MSTORE PUSH1 0xA0 DUP11 ADD MSTORE PUSH1 0xC0 DUP10 ADD MSTORE PUSH1 0xE0 DUP9 ADD MSTORE PUSH2 0x100 DUP8 ADD MSTORE PUSH1 0xFF DUP2 AND ISZERO ISZERO PUSH2 0x120 DUP8 ADD MSTORE PUSH1 0x8 SHR AND PUSH2 0x140 DUP6 ADD MSTORE PUSH2 0x160 DUP5 ADD MSTORE DUP3 DUP2 SUB PUSH2 0x180 DUP5 ADD MSTORE PUSH2 0x5B7 SWAP2 PUSH2 0x1FC8 JUMP JUMPDEST CALLVALUE PUSH2 0x1EB JUMPI PUSH1 0x40 CALLDATASIZE PUSH1 0x3 NOT ADD SLT PUSH2 0x1EB JUMPI PUSH2 0x1712 PUSH2 0x1E3E JUMP JUMPDEST CALLER PUSH1 0x1 PUSH1 0x1 PUSH1 0xA0 SHL SUB DUP3 AND SUB PUSH2 0x172E JUMPI PUSH2 0x345 SWAP1 PUSH1 0x4 CALLDATALOAD PUSH2 0x2218 JUMP JUMPDEST PUSH1 0x4 PUSH1 0x40 MLOAD PUSH32 0x6697B23200000000000000000000000000000000000000000000000000000000 DUP2 MSTORE REVERT JUMPDEST CALLVALUE PUSH2 0x1EB JUMPI PUSH1 0x20 DUP1 PUSH1 0x3 NOT CALLDATASIZE ADD SLT PUSH2 0x1EB JUMPI PUSH1 0x4 CALLDATALOAD PUSH2 0x1775 PUSH2 0x22FF JUMP JUMPDEST PUSH2 0x177D PUSH2 0x23BD JUMP JUMPDEST DUP1 PUSH1 0x0 MSTORE PUSH1 0x4 DUP3 MSTORE PUSH1 0x40 PUSH1 0x0 KECCAK256 SWAP2 PUSH1 0x9 DUP4 ADD PUSH2 0x179C PUSH1 0xFF DUP3 SLOAD AND PUSH2 0x2335 JUMP JUMPDEST PUSH1 0x8 DUP5 ADD SLOAD TIMESTAMP GT PUSH2 0x1BBA JUMPI DUP3 PUSH1 0x0 MSTORE PUSH1 0x7 DUP3 MSTORE PUSH1 0x40 PUSH1 0x0 KECCAK256 CALLER PUSH1 0x0 MSTORE DUP3 MSTORE PUSH1 0xFF PUSH1 0x40 PUSH1 0x0 KECCAK256 SLOAD AND PUSH2 0x1B77 JUMPI PUSH1 0x4 DUP5 ADD DUP1 SLOAD SWAP5 DUP6 ISZERO PUSH2 0x1B33 JUMPI PUSH1 0x3 DUP2 ADD SWAP3 DUP4 SLOAD PUSH1 0x2 DUP4 ADD SWAP1 DUP2 SLOAD GT ISZERO PUSH2 0x1AEF JUMPI PUSH2 0x17F2 CALLER DUP9 PUSH2 0x24C5 JUMP JUMPDEST ISZERO PUSH2 0x1A85 JUMPI PUSH1 0x6 DUP4 ADD SLOAD SWAP8 DUP9 GT PUSH2 0x1A41 JUMPI DUP7 PUSH1 0x0 MSTORE PUSH1 0x7 DUP7 MSTORE PUSH1 0x40 PUSH1 0x0 KECCAK256 CALLER PUSH1 0x0 MSTORE DUP7 MSTORE PUSH1 0x40 PUSH1 0x0 KECCAK256 SWAP1 PUSH1 0xFF NOT SWAP2 PUSH1 0x1 DUP4 DUP3 SLOAD AND OR SWAP1 SSTORE PUSH2 0x1834 DUP10 DUP8 SLOAD PUSH2 0x2380 JUMP JUMPDEST DUP1 SWAP7 SSTORE DUP5 SLOAD SWAP6 DUP10 DUP8 SUB SWAP6 DUP8 DUP8 GT PUSH2 0x1A2B JUMPI PUSH1 0x1 PUSH1 0x1 PUSH1 0xA0 SHL SUB SWAP8 PUSH1 0xA SWAP8 DUP13 SWAP3 SSTORE EQ SWAP2 DUP3 ISZERO PUSH2 0x1A1F JUMPI JUMPDEST POP POP PUSH2 0x1A13 JUMPI JUMPDEST POP POP ADD SLOAD AND PUSH2 0x19A9 JUMPI DUP3 SELFBALANCE LT PUSH2 0x1965 JUMPI PUSH1 0x0 DUP1 DUP1 DUP1 DUP7 CALLER GAS CALL PUSH2 0x1885 PUSH2 0x238D JUMP JUMPDEST POP ISZERO PUSH2 0x1921 JUMPI CALLER PUSH1 0x0 MSTORE PUSH1 0x6 DUP2 MSTORE PUSH1 0x40 PUSH1 0x0 KECCAK256 PUSH2 0x18A3 DUP5 DUP3 SLOAD PUSH2 0x2380 JUMP JUMPDEST SWAP1 SSTORE CALLER PUSH1 0x0 MSTORE PUSH1 0x5 DUP2 MSTORE PUSH1 0x40 PUSH1 0x0 KECCAK256 DUP1 SLOAD PUSH9 0x10000000000000000 DUP2 LT ISZERO PUSH2 0xFA0 JUMPI PUSH2 0x18D4 SWAP2 PUSH1 0x1 DUP3 ADD DUP2 SSTORE PUSH2 0x20E9 JUMP JUMPDEST DUP2 SLOAD SWAP1 PUSH1 0x3 SHL SWAP1 DUP5 DUP3 SHL SWAP2 PUSH1 0x0 NOT SWAP1 SHL NOT AND OR SWAP1 SSTORE PUSH1 0x40 MLOAD SWAP3 DUP4 MSTORE TIMESTAMP SWAP1 DUP4 ADD MSTORE PUSH32 0xE42AA83AB8CA2F75461639B0A68D5FF14DFC3AF23E4BC1A67A945C7C16B620DD PUSH1 0x40 CALLER SWAP4 LOG3 PUSH1 0x1 PUSH1 0x2 SSTORE STOP JUMPDEST PUSH1 0x64 SWAP1 PUSH1 0x40 MLOAD SWAP1 PUSH3 0x461BCD PUSH1 0xE5 SHL DUP3 MSTORE PUSH1 0x4 DUP3 ADD MSTORE PUSH1 0x13 PUSH1 0x24 DUP3 ADD MSTORE PUSH32 0x455448207472616E73666572206661696C656400000000000000000000000000 PUSH1 0x44 DUP3 ADD MSTORE REVERT JUMPDEST PUSH1 0x64 SWAP1 PUSH1 0x40 MLOAD SWAP1 PUSH3 0x461BCD PUSH1 0xE5 SHL DUP3 MSTORE PUSH1 0x4 DUP3 ADD MSTORE PUSH1 0x1D PUSH1 0x24 DUP3 ADD MSTORE PUSH32 0x496E73756666696369656E7420636F6E74726163742062616C616E6365000000 PUSH1 0x44 DUP3 ADD MSTORE REVERT JUMPDEST PUSH1 0x84 SWAP1 PUSH1 0x40 MLOAD SWAP1 PUSH3 0x461BCD PUSH1 0xE5 SHL DUP3 MSTORE PUSH1 0x4 DUP3 ADD MSTORE PUSH1 0x23 PUSH1 0x24 DUP3 ADD MSTORE PUSH32 0x4552433230207472616E7366657273206E6F742079657420696D706C656D656E PUSH1 0x44 DUP3 ADD MSTORE PUSH32 0x7465640000000000000000000000000000000000000000000000000000000000 PUSH1 0x64 DUP3 ADD MSTORE REVERT JUMPDEST DUP2 SLOAD AND SWAP1 SSTORE DUP7 DUP1 PUSH2 0x1864 JUMP JUMPDEST SLOAD GT ISZERO SWAP1 POP DUP10 DUP1 PUSH2 0x185D JUMP JUMPDEST PUSH4 0x4E487B71 PUSH1 0xE0 SHL PUSH1 0x0 MSTORE PUSH1 0x11 PUSH1 0x4 MSTORE PUSH1 0x24 PUSH1 0x0 REVERT JUMPDEST PUSH1 0x64 DUP7 PUSH1 0x40 MLOAD SWAP1 PUSH3 0x461BCD PUSH1 0xE5 SHL DUP3 MSTORE PUSH1 0x4 DUP3 ADD MSTORE PUSH1 0x1C PUSH1 0x24 DUP3 ADD MSTORE PUSH32 0x496E73756666696369656E742066756E647320666F7220636C61696D00000000 PUSH1 0x44 DUP3 ADD MSTORE REVERT JUMPDEST PUSH1 0x84 DUP7 PUSH1 0x40 MLOAD SWAP1 PUSH3 0x461BCD PUSH1 0xE5 SHL DUP3 MSTORE PUSH1 0x4 DUP3 ADD MSTORE PUSH1 0x29 PUSH1 0x24 DUP3 ADD MSTORE PUSH32 0x53747564656E74206E6F7420656C696769626C6520666F722074686973207363 PUSH1 0x44 DUP3 ADD MSTORE PUSH32 0x686F6C6172736869700000000000000000000000000000000000000000000000 PUSH1 0x64 DUP3 ADD MSTORE REVERT JUMPDEST PUSH1 0x64 DUP7 PUSH1 0x40 MLOAD SWAP1 PUSH3 0x461BCD PUSH1 0xE5 SHL DUP3 MSTORE PUSH1 0x4 DUP3 ADD MSTORE PUSH1 0x19 PUSH1 0x24 DUP3 ADD MSTORE PUSH32 0x5363686F6C6172736869702066756C6C7920636C61696D656400000000000000 PUSH1 0x44 DUP3 ADD MSTORE REVERT JUMPDEST PUSH1 0x64 DUP5 PUSH1 0x40 MLOAD SWAP1 PUSH3 0x461BCD PUSH1 0xE5 SHL DUP3 MSTORE PUSH1 0x4 DUP3 ADD MSTORE PUSH1 0x12 PUSH1 0x24 DUP3 ADD MSTORE PUSH32 0x4E6F2066756E64732072656D61696E696E670000000000000000000000000000 PUSH1 0x44 DUP3 ADD MSTORE REVERT JUMPDEST PUSH1 0x64 DUP3 PUSH1 0x40 MLOAD SWAP1 PUSH3 0x461BCD PUSH1 0xE5 SHL DUP3 MSTORE DUP1 PUSH1 0x4 DUP4 ADD MSTORE PUSH1 0x24 DUP3 ADD MSTORE PUSH32 0x416C726561647920636C61696D65642074686973207363686F6C617273686970 PUSH1 0x44 DUP3 ADD MSTORE REVERT JUMPDEST PUSH1 0x64 DUP3 PUSH1 0x40 MLOAD SWAP1 PUSH3 0x461BCD PUSH1 0xE5 SHL DUP3 MSTORE PUSH1 0x4 DUP3 ADD MSTORE PUSH1 0x1F PUSH1 0x24 DUP3 ADD MSTORE PUSH32 0x5363686F6C61727368697020646561646C696E65206861732070617373656400 PUSH1 0x44 DUP3 ADD MSTORE REVERT JUMPDEST CALLVALUE PUSH2 0x1EB JUMPI PUSH1 0x40 CALLDATASIZE PUSH1 0x3 NOT ADD SLT PUSH2 0x1EB JUMPI PUSH2 0x345 PUSH1 0x4 CALLDATALOAD PUSH2 0x1C1D PUSH2 0x1E3E JUMP JUMPDEST SWAP1 DUP1 PUSH1 0x0 MSTORE PUSH1 0x0 PUSH1 0x20 MSTORE PUSH2 0x1C38 PUSH1 0x1 PUSH1 0x40 PUSH1 0x0 KECCAK256 ADD SLOAD PUSH2 0x2173 JUMP JUMPDEST PUSH2 0x2199 JUMP JUMPDEST CALLVALUE PUSH2 0x1EB JUMPI PUSH1 0x20 CALLDATASIZE PUSH1 0x3 NOT ADD SLT PUSH2 0x1EB JUMPI PUSH1 0x4 CALLDATALOAD PUSH1 0x0 MSTORE PUSH1 0x0 PUSH1 0x20 MSTORE PUSH1 0x20 PUSH1 0x1 PUSH1 0x40 PUSH1 0x0 KECCAK256 ADD SLOAD PUSH1 0x40 MLOAD SWAP1 DUP2 MSTORE RETURN JUMPDEST CALLVALUE PUSH2 0x1EB JUMPI PUSH1 0x20 CALLDATASIZE PUSH1 0x3 NOT ADD SLT PUSH2 0x1EB JUMPI PUSH1 0x4 CALLDATALOAD PUSH2 0x1C88 PUSH2 0x2117 JUMP JUMPDEST PUSH2 0x1C90 PUSH2 0x23BD JUMP JUMPDEST SELFBALANCE DUP2 GT PUSH2 0x1D36 JUMPI PUSH2 0x1CA2 DUP2 ISZERO ISZERO PUSH2 0x228E JUMP JUMPDEST PUSH1 0x0 DUP1 DUP1 DUP1 DUP5 CALLER GAS CALL PUSH2 0x1CB3 PUSH2 0x238D JUMP JUMPDEST POP ISZERO PUSH2 0x1CF2 JUMPI PUSH1 0x40 MLOAD SWAP1 DUP2 MSTORE TIMESTAMP PUSH1 0x20 DUP3 ADD MSTORE PUSH32 0xFBC3A599B784FE88772FC5ABCC07223F64CA0B13ACC341F4FB1E46BEF0510EB4 PUSH1 0x40 CALLER SWAP3 LOG2 PUSH1 0x1 PUSH1 0x2 SSTORE STOP JUMPDEST PUSH1 0x64 PUSH1 0x40 MLOAD PUSH3 0x461BCD PUSH1 0xE5 SHL DUP2 MSTORE PUSH1 0x20 PUSH1 0x4 DUP3 ADD MSTORE PUSH1 0xF PUSH1 0x24 DUP3 ADD MSTORE PUSH32 0x5472616E73666572206661696C65640000000000000000000000000000000000 PUSH1 0x44 DUP3 ADD MSTORE REVERT JUMPDEST PUSH1 0x64 PUSH1 0x40 MLOAD PUSH3 0x461BCD PUSH1 0xE5 SHL DUP2 MSTORE PUSH1 0x20 PUSH1 0x4 DUP3 ADD MSTORE PUSH1 0x14 PUSH1 0x24 DUP3 ADD MSTORE PUSH32 0x496E73756666696369656E742062616C616E6365000000000000000000000000 PUSH1 0x44 DUP3 ADD MSTORE REVERT JUMPDEST CALLVALUE PUSH2 0x1EB JUMPI PUSH1 0x40 CALLDATASIZE PUSH1 0x3 NOT ADD SLT PUSH2 0x1EB JUMPI PUSH1 0x20 PUSH2 0x242 PUSH2 0x1D98 PUSH2 0x1E3E JUMP JUMPDEST PUSH1 0x4 CALLDATALOAD PUSH2 0x24C5 JUMP JUMPDEST CALLVALUE PUSH2 0x1EB JUMPI PUSH1 0x20 CALLDATASIZE PUSH1 0x3 NOT ADD SLT PUSH2 0x1EB JUMPI PUSH1 0x4 CALLDATALOAD SWAP1 PUSH32 0xFFFFFFFF00000000000000000000000000000000000000000000000000000000 DUP3 AND DUP1 SWAP3 SUB PUSH2 0x1EB JUMPI DUP2 PUSH32 0x7965DB0B00000000000000000000000000000000000000000000000000000000 PUSH1 0x20 SWAP4 EQ SWAP1 DUP2 ISZERO PUSH2 0x1E14 JUMPI JUMPDEST POP ISZERO ISZERO DUP2 MSTORE RETURN JUMPDEST PUSH32 0x1FFC9A700000000000000000000000000000000000000000000000000000000 SWAP2 POP EQ DUP4 PUSH2 0x1E0D JUMP JUMPDEST PUSH1 0x24 CALLDATALOAD SWAP1 PUSH1 0x1 PUSH1 0x1 PUSH1 0xA0 SHL SUB DUP3 AND DUP3 SUB PUSH2 0x1EB JUMPI JUMP JUMPDEST PUSH1 0x4 CALLDATALOAD SWAP1 PUSH1 0x1 PUSH1 0x1 PUSH1 0xA0 SHL SUB DUP3 AND DUP3 SUB PUSH2 0x1EB JUMPI JUMP JUMPDEST SWAP1 PUSH1 0x1 DUP3 DUP2 SHR SWAP3 AND DUP1 ISZERO PUSH2 0x1E9A JUMPI JUMPDEST PUSH1 0x20 DUP4 LT EQ PUSH2 0x1E84 JUMPI JUMP JUMPDEST PUSH4 0x4E487B71 PUSH1 0xE0 SHL PUSH1 0x0 MSTORE PUSH1 0x22 PUSH1 0x4 MSTORE PUSH1 0x24 PUSH1 0x0 REVERT JUMPDEST SWAP2 PUSH1 0x7F AND SWAP2 PUSH2 0x1E79 JUMP JUMPDEST PUSH1 0xE0 DUP2 ADD SWAP1 DUP2 LT PUSH8 0xFFFFFFFFFFFFFFFF DUP3 GT OR PUSH2 0xFA0 JUMPI PUSH1 0x40 MSTORE JUMP JUMPDEST PUSH2 0x1A0 DUP2 ADD SWAP1 DUP2 LT PUSH8 0xFFFFFFFFFFFFFFFF DUP3 GT OR PUSH2 0xFA0 JUMPI PUSH1 0x40 MSTORE JUMP JUMPDEST SWAP1 PUSH1 0x1F DUP1 NOT SWAP2 ADD AND DUP2 ADD SWAP1 DUP2 LT PUSH8 0xFFFFFFFFFFFFFFFF DUP3 GT OR PUSH2 0xFA0 JUMPI PUSH1 0x40 MSTORE JUMP JUMPDEST SWAP1 PUSH1 0x40 MLOAD SWAP2 DUP3 PUSH1 0x0 DUP3 SLOAD SWAP3 PUSH2 0x1F13 DUP5 PUSH2 0x1E6A JUMP JUMPDEST SWAP1 DUP2 DUP5 MSTORE PUSH1 0x1 SWAP5 DUP6 DUP2 AND SWAP1 DUP2 PUSH1 0x0 EQ PUSH2 0x1F82 JUMPI POP PUSH1 0x1 EQ PUSH2 0x1F3F JUMPI JUMPDEST POP POP PUSH2 0x1F3D SWAP3 POP SUB DUP4 PUSH2 0x1EDD JUMP JUMPDEST JUMP JUMPDEST SWAP1 SWAP4 SWAP2 POP PUSH1 0x0 MSTORE PUSH1 0x20 SWAP1 DUP2 PUSH1 0x0 KECCAK256 SWAP4 PUSH1 0x0 SWAP2 JUMPDEST DUP2 DUP4 LT PUSH2 0x1F6A JUMPI POP POP PUSH2 0x1F3D SWAP4 POP DUP3 ADD ADD CODESIZE DUP1 PUSH2 0x1F2F JUMP JUMPDEST DUP6 SLOAD DUP9 DUP5 ADD DUP6 ADD MSTORE SWAP5 DUP6 ADD SWAP5 DUP8 SWAP5 POP SWAP2 DUP4 ADD SWAP2 PUSH2 0x1F52 JUMP JUMPDEST SWAP2 POP POP PUSH2 0x1F3D SWAP5 POP PUSH1 0x20 SWAP3 POP PUSH1 0xFF NOT AND DUP3 DUP5 ADD MSTORE ISZERO ISZERO PUSH1 0x5 SHL DUP3 ADD ADD CODESIZE DUP1 PUSH2 0x1F2F JUMP JUMPDEST PUSH1 0x0 JUMPDEST DUP4 DUP2 LT PUSH2 0x1FB8 JUMPI POP POP PUSH1 0x0 SWAP2 ADD MSTORE JUMP JUMPDEST DUP2 DUP2 ADD MLOAD DUP4 DUP3 ADD MSTORE PUSH1 0x20 ADD PUSH2 0x1FA8 JUMP JUMPDEST SWAP1 PUSH1 0x20 SWAP2 PUSH2 0x1FE1 DUP2 MLOAD DUP1 SWAP3 DUP2 DUP6 MSTORE DUP6 DUP1 DUP7 ADD SWAP2 ADD PUSH2 0x1FA5 JUMP JUMPDEST PUSH1 0x1F ADD PUSH1 0x1F NOT AND ADD ADD SWAP1 JUMP JUMPDEST PUSH8 0xFFFFFFFFFFFFFFFF DUP2 GT PUSH2 0xFA0 JUMPI PUSH1 0x1F ADD PUSH1 0x1F NOT AND PUSH1 0x20 ADD SWAP1 JUMP JUMPDEST DUP2 PUSH1 0x1F DUP3 ADD SLT ISZERO PUSH2 0x1EB JUMPI DUP1 CALLDATALOAD SWAP1 PUSH2 0x2020 DUP3 PUSH2 0x1FED JUMP JUMPDEST SWAP3 PUSH2 0x202E PUSH1 0x40 MLOAD SWAP5 DUP6 PUSH2 0x1EDD JUMP JUMPDEST DUP3 DUP5 MSTORE PUSH1 0x20 DUP4 DUP4 ADD ADD GT PUSH2 0x1EB JUMPI DUP2 PUSH1 0x0 SWAP3 PUSH1 0x20 DUP1 SWAP4 ADD DUP4 DUP7 ADD CALLDATACOPY DUP4 ADD ADD MSTORE SWAP1 JUMP JUMPDEST PUSH8 0xFFFFFFFFFFFFFFFF DUP2 GT PUSH2 0xFA0 JUMPI PUSH1 0x5 SHL PUSH1 0x20 ADD SWAP1 JUMP JUMPDEST SWAP1 DUP1 PUSH1 0x1F DUP4 ADD SLT ISZERO PUSH2 0x1EB JUMPI DUP2 CALLDATALOAD SWAP1 PUSH2 0x2080 DUP3 PUSH2 0x2050 JUMP JUMPDEST SWAP3 PUSH2 0x208E PUSH1 0x40 MLOAD SWAP5 DUP6 PUSH2 0x1EDD JUMP JUMPDEST DUP3 DUP5 MSTORE PUSH1 0x20 SWAP3 DUP4 DUP1 DUP7 ADD SWAP2 PUSH1 0x5 SHL DUP4 ADD ADD SWAP3 DUP1 DUP5 GT PUSH2 0x1EB JUMPI DUP5 DUP4 ADD SWAP2 JUMPDEST DUP5 DUP4 LT PUSH2 0x20BC JUMPI POP POP POP POP POP POP SWAP1 JUMP JUMPDEST DUP3 CALLDATALOAD PUSH8 0xFFFFFFFFFFFFFFFF DUP2 GT PUSH2 0x1EB JUMPI DUP7 SWAP2 PUSH2 0x20DE DUP5 DUP5 DUP1 SWAP5 DUP10 ADD ADD PUSH2 0x2009 JUMP JUMPDEST DUP2 MSTORE ADD SWAP3 ADD SWAP2 PUSH2 0x20AC JUMP JUMPDEST DUP1 SLOAD DUP3 LT ISZERO PUSH2 0x2101 JUMPI PUSH1 0x0 MSTORE PUSH1 0x20 PUSH1 0x0 KECCAK256 ADD SWAP1 PUSH1 0x0 SWAP1 JUMP JUMPDEST PUSH4 0x4E487B71 PUSH1 0xE0 SHL PUSH1 0x0 MSTORE PUSH1 0x32 PUSH1 0x4 MSTORE PUSH1 0x24 PUSH1 0x0 REVERT JUMPDEST CALLER PUSH1 0x0 SWAP1 DUP2 MSTORE PUSH32 0x7D7FFB7A348E1C6A02869081A26547B49160DD3DF72D1D75A570EB9B698292EC PUSH1 0x20 MSTORE PUSH1 0x40 SWAP1 KECCAK256 SLOAD PUSH32 0xA49807205CE4D355092EF5A8A18F56E8913CF4A201FBE287825B095693C21775 SWAP1 PUSH1 0xFF AND ISZERO PUSH2 0x1509 JUMPI POP JUMP JUMPDEST DUP1 PUSH1 0x0 MSTORE PUSH1 0x0 PUSH1 0x20 MSTORE PUSH1 0x40 PUSH1 0x0 KECCAK256 CALLER PUSH1 0x0 MSTORE PUSH1 0x20 MSTORE PUSH1 0xFF PUSH1 0x40 PUSH1 0x0 KECCAK256 SLOAD AND ISZERO PUSH2 0x1509 JUMPI POP JUMP JUMPDEST SWAP1 PUSH1 0x0 SWAP2 DUP1 DUP4 MSTORE DUP3 PUSH1 0x20 MSTORE PUSH1 0x1 PUSH1 0x1 PUSH1 0xA0 SHL SUB PUSH1 0x40 DUP5 KECCAK256 SWAP3 AND SWAP2 DUP3 DUP5 MSTORE PUSH1 0x20 MSTORE PUSH1 0xFF PUSH1 0x40 DUP5 KECCAK256 SLOAD AND ISZERO PUSH1 0x0 EQ PUSH2 0x2213 JUMPI DUP1 DUP4 MSTORE DUP3 PUSH1 0x20 MSTORE PUSH1 0x40 DUP4 KECCAK256 DUP3 DUP5 MSTORE PUSH1 0x20 MSTORE PUSH1 0x40 DUP4 KECCAK256 PUSH1 0x1 PUSH1 0xFF NOT DUP3 SLOAD AND OR SWAP1 SSTORE PUSH32 0x2F8788117E7EFF1D82E926EC794901D17C78024A50270940304540A733656F0D CALLER SWAP4 DUP1 LOG4 PUSH1 0x1 SWAP1 JUMP JUMPDEST POP POP SWAP1 JUMP JUMPDEST SWAP1 PUSH1 0x0 SWAP2 DUP1 DUP4 MSTORE DUP3 PUSH1 0x20 MSTORE PUSH1 0x1 PUSH1 0x1 PUSH1 0xA0 SHL SUB PUSH1 0x40 DUP5 KECCAK256 SWAP3 AND SWAP2 DUP3 DUP5 MSTORE PUSH1 0x20 MSTORE PUSH1 0xFF PUSH1 0x40 DUP5 KECCAK256 SLOAD AND PUSH1 0x0 EQ PUSH2 0x2213 JUMPI DUP1 DUP4 MSTORE DUP3 PUSH1 0x20 MSTORE PUSH1 0x40 DUP4 KECCAK256 DUP3 DUP5 MSTORE PUSH1 0x20 MSTORE PUSH1 0x40 DUP4 KECCAK256 PUSH1 0xFF NOT DUP2 SLOAD AND SWAP1 SSTORE PUSH32 0xF6391F5C32D9C69D2A47EA670B442974B53935D1EDC7FD64EB21E047A839171B CALLER SWAP4 DUP1 LOG4 PUSH1 0x1 SWAP1 JUMP JUMPDEST ISZERO PUSH2 0x2295 JUMPI JUMP JUMPDEST PUSH1 0x64 PUSH1 0x40 MLOAD PUSH3 0x461BCD PUSH1 0xE5 SHL DUP2 MSTORE PUSH1 0x20 PUSH1 0x4 DUP3 ADD MSTORE PUSH1 0x1D PUSH1 0x24 DUP3 ADD MSTORE PUSH32 0x416D6F756E74206D7573742062652067726561746572207468616E2030000000 PUSH1 0x44 DUP3 ADD MSTORE REVERT JUMPDEST PUSH1 0x0 NOT DUP2 EQ PUSH2 0x1A2B JUMPI PUSH1 0x1 ADD SWAP1 JUMP JUMPDEST DUP2 DUP2 LT PUSH2 0x22F3 JUMPI POP POP JUMP JUMPDEST PUSH1 0x0 DUP2 SSTORE PUSH1 0x1 ADD PUSH2 0x22E8 JUMP JUMPDEST PUSH1 0xFF PUSH1 0x1 SLOAD AND PUSH2 0x230B JUMPI JUMP JUMPDEST PUSH1 0x4 PUSH1 0x40 MLOAD PUSH32 0xD93C066500000000000000000000000000000000000000000000000000000000 DUP2 MSTORE REVERT JUMPDEST ISZERO PUSH2 0x233C JUMPI JUMP JUMPDEST PUSH1 0x64 PUSH1 0x40 MLOAD PUSH3 0x461BCD PUSH1 0xE5 SHL DUP2 MSTORE PUSH1 0x20 PUSH1 0x4 DUP3 ADD MSTORE PUSH1 0x19 PUSH1 0x24 DUP3 ADD MSTORE PUSH32 0x5363686F6C617273686970206973206E6F742061637469766500000000000000 PUSH1 0x44 DUP3 ADD MSTORE REVERT JUMPDEST SWAP2 SWAP1 DUP3 ADD DUP1 SWAP3 GT PUSH2 0x1A2B JUMPI JUMP JUMPDEST RETURNDATASIZE ISZERO PUSH2 0x23B8 JUMPI RETURNDATASIZE SWAP1 PUSH2 0x239E DUP3 PUSH2 0x1FED JUMP JUMPDEST SWAP2 PUSH2 0x23AC PUSH1 0x40 MLOAD SWAP4 DUP5 PUSH2 0x1EDD JUMP JUMPDEST DUP3 MSTORE RETURNDATASIZE PUSH1 0x0 PUSH1 0x20 DUP5 ADD RETURNDATACOPY JUMP JUMPDEST PUSH1 0x60 SWAP1 JUMP JUMPDEST PUSH1 0x2 DUP1 SLOAD EQ PUSH2 0x23CC JUMPI PUSH1 0x2 DUP1 SSTORE JUMP JUMPDEST PUSH1 0x4 PUSH1 0x40 MLOAD PUSH32 0x3EE5AEB500000000000000000000000000000000000000000000000000000000 DUP2 MSTORE REVERT JUMPDEST SWAP1 DUP2 SLOAD PUSH2 0x2402 DUP2 PUSH2 0x2050 JUMP JUMPDEST SWAP3 PUSH2 0x2410 PUSH1 0x40 MLOAD SWAP5 DUP6 PUSH2 0x1EDD JUMP JUMPDEST DUP2 DUP5 MSTORE PUSH1 0x0 SWAP1 DUP2 MSTORE PUSH1 0x20 DUP1 DUP3 KECCAK256 DUP2 DUP7 ADD JUMPDEST DUP5 DUP5 LT PUSH2 0x242F JUMPI POP POP POP POP POP JUMP JUMPDEST PUSH1 0x1 DUP4 DUP2 SWAP3 PUSH2 0x243D DUP6 PUSH2 0x1EFF JUMP JUMPDEST DUP2 MSTORE ADD SWAP3 ADD SWAP4 ADD SWAP3 SWAP1 PUSH2 0x2421 JUMP JUMPDEST PUSH1 0x20 SWAP1 DUP2 DUP2 DUP5 SUB SLT PUSH2 0x1EB JUMPI DUP1 MLOAD SWAP1 PUSH8 0xFFFFFFFFFFFFFFFF DUP3 GT PUSH2 0x1EB JUMPI ADD SWAP2 DUP1 PUSH1 0x1F DUP5 ADD SLT ISZERO PUSH2 0x1EB JUMPI DUP3 MLOAD PUSH2 0x2481 DUP2 PUSH2 0x2050 JUMP JUMPDEST SWAP4 PUSH2 0x248F PUSH1 0x40 MLOAD SWAP6 DUP7 PUSH2 0x1EDD JUMP JUMPDEST DUP2 DUP6 MSTORE DUP4 DUP1 DUP7 ADD SWAP3 PUSH1 0x5 SHL DUP3 ADD ADD SWAP3 DUP4 GT PUSH2 0x1EB JUMPI DUP4 ADD SWAP1 JUMPDEST DUP3 DUP3 LT PUSH2 0x24B6 JUMPI POP POP POP POP SWAP1 JUMP JUMPDEST DUP2 MLOAD DUP2 MSTORE SWAP1 DUP4 ADD SWAP1 DUP4 ADD PUSH2 0x24A8 JUMP JUMPDEST SWAP1 PUSH1 0x0 SWAP2 DUP3 MSTORE PUSH1 0x8 PUSH1 0x20 MSTORE PUSH1 0x40 DUP3 KECCAK256 SWAP1 PUSH1 0x40 MLOAD PUSH2 0x24E1 DUP2 PUSH2 0x1EA4 JUMP JUMPDEST DUP3 SLOAD DUP2 MSTORE PUSH2 0x24F1 PUSH1 0x1 DUP5 ADD PUSH2 0x23F6 JUMP JUMPDEST SWAP1 PUSH1 0x20 DUP2 ADD SWAP2 DUP3 MSTORE PUSH2 0x2505 PUSH1 0x2 DUP6 ADD PUSH2 0x23F6 JUMP JUMPDEST SWAP1 PUSH1 0x40 DUP2 ADD SWAP2 DUP3 MSTORE PUSH1 0x3 DUP6 ADD SLOAD SWAP3 PUSH1 0x60 DUP3 ADD SWAP4 DUP5 MSTORE PUSH1 0x4 DUP7 ADD SLOAD SWAP4 PUSH1 0x80 DUP4 ADD SWAP5 DUP6 MSTORE PUSH1 0xC0 PUSH1 0xFF PUSH1 0x6 PUSH1 0x5 DUP11 ADD SLOAD SWAP10 PUSH1 0xA0 DUP8 ADD SWAP11 DUP12 MSTORE ADD SLOAD AND SWAP4 ADD SWAP3 ISZERO ISZERO DUP4 MSTORE PUSH1 0x1 PUSH1 0x1 PUSH1 0xA0 SHL SUB DUP9 DUP2 PUSH1 0x9 SLOAD AND SWAP2 PUSH1 0x24 PUSH1 0x40 MLOAD DUP1 SWAP5 DUP2 SWAP4 PUSH4 0x3AF18EF PUSH1 0xE6 SHL DUP4 MSTORE DUP13 AND PUSH1 0x4 DUP4 ADD MSTORE GAS STATICCALL SWAP1 DUP2 ISZERO PUSH2 0x263E JUMPI DUP10 SWAP2 PUSH2 0x261C JUMPI JUMPDEST POP MLOAD SWAP1 MLOAD GT PUSH2 0x2613 JUMPI MLOAD DUP1 MLOAD PUSH2 0x25F2 JUMPI JUMPDEST POP POP MLOAD DUP1 MLOAD PUSH2 0x25D7 JUMPI JUMPDEST POP MLOAD DUP1 ISZERO DUP1 ISZERO SWAP1 PUSH2 0x25CD JUMPI JUMPDEST PUSH2 0x25B2 JUMPI JUMPDEST POP POP POP POP PUSH1 0x1 SWAP1 JUMP JUMPDEST PUSH2 0x25BD SWAP3 MLOAD SWAP2 PUSH2 0x2B5F JUMP JUMPDEST ISZERO PUSH2 0x25CA JUMPI DUP1 DUP1 DUP1 PUSH2 0x25A9 JUMP JUMPDEST SWAP1 JUMP JUMPDEST POP DUP3 MLOAD ISZERO ISZERO PUSH2 0x25A4 JUMP JUMPDEST PUSH2 0x25E1 SWAP1 DUP4 PUSH2 0x29F9 JUMP JUMPDEST ISZERO PUSH2 0x25EC JUMPI CODESIZE PUSH2 0x2598 JUMP JUMPDEST POP POP POP SWAP1 JUMP JUMPDEST PUSH2 0x2600 SWAP2 MLOAD ISZERO ISZERO SWAP1 DUP6 PUSH2 0x275D JUMP JUMPDEST ISZERO PUSH2 0x260C JUMPI CODESIZE DUP1 PUSH2 0x258E JUMP JUMPDEST POP POP POP POP SWAP1 JUMP JUMPDEST POP POP POP POP POP POP SWAP1 JUMP JUMPDEST PUSH2 0x2638 SWAP2 POP RETURNDATASIZE DUP1 DUP12 DUP4 RETURNDATACOPY PUSH2 0x2630 DUP2 DUP4 PUSH2 0x1EDD JUMP JUMPDEST DUP2 ADD SWAP1 PUSH2 0x244B JUMP JUMPDEST CODESIZE PUSH2 0x257D JUMP JUMPDEST PUSH1 0x40 MLOAD RETURNDATASIZE DUP12 DUP3 RETURNDATACOPY RETURNDATASIZE SWAP1 REVERT JUMPDEST DUP1 MLOAD DUP3 LT ISZERO PUSH2 0x2101 JUMPI PUSH1 0x20 SWAP2 PUSH1 0x5 SHL ADD ADD SWAP1 JUMP JUMPDEST DUP2 PUSH1 0x1F DUP3 ADD SLT ISZERO PUSH2 0x1EB JUMPI DUP1 MLOAD PUSH2 0x2673 DUP2 PUSH2 0x1FED JUMP JUMPDEST SWAP3 PUSH2 0x2681 PUSH1 0x40 MLOAD SWAP5 DUP6 PUSH2 0x1EDD JUMP JUMPDEST DUP2 DUP5 MSTORE PUSH1 0x20 DUP3 DUP5 ADD ADD GT PUSH2 0x1EB JUMPI PUSH2 0x25CA SWAP2 PUSH1 0x20 DUP1 DUP6 ADD SWAP2 ADD PUSH2 0x1FA5 JUMP JUMPDEST SWAP2 SWAP1 PUSH2 0x100 DUP4 DUP3 SUB SLT PUSH2 0x1EB JUMPI DUP3 MLOAD SWAP1 PUSH8 0xFFFFFFFFFFFFFFFF SWAP2 DUP3 DUP2 GT PUSH2 0x1EB JUMPI DUP2 PUSH2 0x26CC SWAP2 DUP7 ADD PUSH2 0x265D JUMP JUMPDEST SWAP4 PUSH1 0x20 DUP2 ADD MLOAD DUP4 DUP2 GT PUSH2 0x1EB JUMPI DUP3 PUSH2 0x26E5 SWAP2 DUP4 ADD PUSH2 0x265D JUMP JUMPDEST SWAP4 PUSH1 0x40 DUP3 ADD MLOAD DUP5 DUP2 GT PUSH2 0x1EB JUMPI DUP4 PUSH2 0x26FE SWAP2 DUP5 ADD PUSH2 0x265D JUMP JUMPDEST SWAP4 PUSH1 0x60 DUP4 ADD MLOAD DUP2 DUP2 GT PUSH2 0x1EB JUMPI DUP5 PUSH2 0x2717 SWAP2 DUP6 ADD PUSH2 0x265D JUMP JUMPDEST SWAP4 PUSH1 0x80 DUP5 ADD MLOAD SWAP2 DUP3 GT PUSH2 0x1EB JUMPI PUSH2 0x272F SWAP2 DUP5 ADD PUSH2 0x265D JUMP JUMPDEST SWAP2 PUSH1 0xA0 DUP2 ADD MLOAD SWAP2 PUSH1 0xC0 DUP3 ADD MLOAD DUP1 ISZERO ISZERO DUP2 SUB PUSH2 0x1EB JUMPI PUSH1 0xE0 SWAP1 SWAP3 ADD MLOAD PUSH1 0x1 PUSH1 0x1 PUSH1 0xA0 SHL SUB DUP2 AND DUP2 SUB PUSH2 0x1EB JUMPI SWAP1 JUMP JUMPDEST SWAP2 SWAP1 SWAP2 PUSH1 0x1 PUSH1 0x1 PUSH1 0xA0 SHL SUB SWAP3 DUP4 PUSH1 0x9 SLOAD AND PUSH1 0x40 SWAP1 DUP2 MLOAD SWAP6 PUSH4 0x3AF18EF PUSH1 0xE6 SHL DUP8 MSTORE PUSH1 0x4 SWAP5 AND DUP5 DUP8 ADD MSTORE PUSH1 0x0 SWAP4 PUSH1 0x24 SWAP6 DUP6 DUP9 DUP9 DUP2 DUP7 GAS STATICCALL SWAP8 DUP9 ISZERO PUSH2 0x29EF JUMPI DUP7 SWAP9 PUSH2 0x29D3 JUMPI JUMPDEST POP ISZERO PUSH2 0x28D0 JUMPI DUP5 SWAP6 JUMPDEST DUP5 MLOAD DUP8 LT ISZERO PUSH2 0x28C3 JUMPI DUP6 SWAP8 DUP7 JUMPDEST DUP2 MLOAD DUP2 LT ISZERO PUSH2 0x28B9 JUMPI PUSH2 0x27CA DUP2 DUP4 PUSH2 0x2649 JUMP JUMPDEST MLOAD DUP7 MLOAD SWAP1 PUSH4 0x331D9F11 PUSH1 0xE1 SHL DUP3 MSTORE DUP6 DUP3 ADD MSTORE DUP9 DUP2 DUP6 DUP2 DUP10 GAS STATICCALL SWAP1 DUP2 ISZERO PUSH2 0x28AF JUMPI DUP10 SWAP2 PUSH2 0x2885 JUMPI JUMPDEST POP DUP7 MLOAD SWAP1 PUSH1 0x20 SWAP2 PUSH2 0x281E DUP4 DUP3 DUP2 PUSH2 0x2811 DUP2 DUP4 ADD SWAP7 DUP8 DUP2 MLOAD SWAP4 DUP5 SWAP3 ADD PUSH2 0x1FA5 JUMP JUMPDEST DUP2 ADD SUB DUP1 DUP5 MSTORE ADD DUP3 PUSH2 0x1EDD JUMP JUMPDEST MLOAD SWAP1 KECCAK256 SWAP1 PUSH2 0x282C DUP12 DUP11 PUSH2 0x2649 JUMP JUMPDEST MLOAD SWAP1 PUSH2 0x2849 DUP10 MLOAD SWAP2 DUP3 DUP2 PUSH2 0x2811 DUP2 DUP4 ADD SWAP7 DUP8 DUP2 MLOAD SWAP4 DUP5 SWAP3 ADD PUSH2 0x1FA5 JUMP JUMPDEST MLOAD SWAP1 KECCAK256 EQ PUSH2 0x285F JUMPI PUSH2 0x285A SWAP1 PUSH2 0x22D9 JUMP JUMPDEST PUSH2 0x27B7 JUMP JUMPDEST POP SWAP8 POP SWAP6 PUSH1 0x1 JUMPDEST ISZERO PUSH2 0x287A JUMPI PUSH2 0x2874 SWAP1 PUSH2 0x22D9 JUMP JUMPDEST SWAP6 PUSH2 0x27AA JUMP JUMPDEST POP POP POP POP POP SWAP2 POP POP SWAP1 JUMP JUMPDEST PUSH2 0x28A1 SWAP2 POP RETURNDATASIZE DUP1 DUP12 DUP4 RETURNDATACOPY PUSH2 0x2899 DUP2 DUP4 PUSH2 0x1EDD JUMP JUMPDEST DUP2 ADD SWAP1 PUSH2 0x269F JUMP JUMPDEST POP POP POP POP POP POP SWAP1 POP CODESIZE PUSH2 0x27F1 JUMP JUMPDEST DUP8 MLOAD RETURNDATASIZE DUP12 DUP3 RETURNDATACOPY RETURNDATASIZE SWAP1 REVERT JUMPDEST POP SWAP8 SWAP7 SWAP1 SWAP7 PUSH2 0x2866 JUMP JUMPDEST POP POP POP POP POP POP POP POP PUSH1 0x1 SWAP1 JUMP JUMPDEST DUP5 SWAP4 SWAP6 SWAP3 SWAP5 SWAP3 JUMPDEST DUP7 MLOAD DUP5 LT ISZERO PUSH2 0x29C8 JUMPI DUP5 JUMPDEST DUP9 MLOAD DUP2 LT ISZERO PUSH2 0x29B7 JUMPI PUSH2 0x28F5 DUP2 DUP11 PUSH2 0x2649 JUMP JUMPDEST MLOAD DUP8 MLOAD SWAP1 PUSH4 0x331D9F11 PUSH1 0xE1 SHL DUP3 MSTORE DUP5 DUP3 ADD MSTORE DUP7 DUP2 DUP5 DUP2 DUP9 GAS STATICCALL SWAP1 DUP2 ISZERO PUSH2 0x29AD JUMPI DUP8 SWAP2 PUSH2 0x298B JUMPI JUMPDEST POP DUP8 MLOAD SWAP1 PUSH1 0x20 SWAP2 PUSH2 0x293C DUP4 DUP3 DUP2 PUSH2 0x2811 DUP2 DUP4 ADD SWAP7 DUP8 DUP2 MLOAD SWAP4 DUP5 SWAP3 ADD PUSH2 0x1FA5 JUMP JUMPDEST MLOAD SWAP1 KECCAK256 SWAP1 PUSH2 0x294A DUP8 DUP12 PUSH2 0x2649 JUMP JUMPDEST MLOAD SWAP1 PUSH2 0x2967 DUP11 MLOAD SWAP2 DUP3 DUP2 PUSH2 0x2811 DUP2 DUP4 ADD SWAP7 DUP8 DUP2 MLOAD SWAP4 DUP5 SWAP3 ADD PUSH2 0x1FA5 JUMP JUMPDEST MLOAD SWAP1 KECCAK256 EQ PUSH2 0x297D JUMPI PUSH2 0x2978 SWAP1 PUSH2 0x22D9 JUMP JUMPDEST PUSH2 0x28E2 JUMP JUMPDEST POP POP POP POP POP POP POP POP POP PUSH1 0x1 SWAP1 JUMP JUMPDEST PUSH2 0x299F SWAP2 POP RETURNDATASIZE DUP1 DUP10 DUP4 RETURNDATACOPY PUSH2 0x2899 DUP2 DUP4 PUSH2 0x1EDD JUMP JUMPDEST POP POP POP POP POP POP SWAP1 POP CODESIZE PUSH2 0x291C JUMP JUMPDEST DUP9 MLOAD RETURNDATASIZE DUP10 DUP3 RETURNDATACOPY RETURNDATASIZE SWAP1 REVERT JUMPDEST POP SWAP3 PUSH2 0x29C2 SWAP1 PUSH2 0x22D9 JUMP JUMPDEST SWAP3 PUSH2 0x28D7 JUMP JUMPDEST POP POP POP POP SWAP3 POP POP POP SWAP1 JUMP JUMPDEST PUSH2 0x29E8 SWAP2 SWAP9 POP RETURNDATASIZE DUP1 DUP9 DUP4 RETURNDATACOPY PUSH2 0x2630 DUP2 DUP4 PUSH2 0x1EDD JUMP JUMPDEST SWAP7 CODESIZE PUSH2 0x27A1 JUMP JUMPDEST DUP5 MLOAD RETURNDATASIZE DUP9 DUP3 RETURNDATACOPY RETURNDATASIZE SWAP1 REVERT JUMPDEST SWAP1 PUSH1 0x1 PUSH1 0x1 PUSH1 0xA0 SHL SUB DUP1 PUSH1 0x9 SLOAD AND PUSH1 0x40 SWAP2 DUP3 MLOAD SWAP5 PUSH4 0x3AF18EF PUSH1 0xE6 SHL DUP7 MSTORE AND PUSH1 0x4 DUP6 ADD MSTORE PUSH1 0x0 SWAP4 DUP5 DUP2 PUSH1 0x24 DUP2 DUP6 GAS STATICCALL SWAP1 DUP2 ISZERO PUSH2 0x2B55 JUMPI DUP6 SWAP2 PUSH2 0x2B3B JUMPI JUMPDEST POP DUP1 MLOAD SWAP1 DUP2 ISZERO PUSH2 0x2B33 JUMPI PUSH1 0x0 NOT DUP3 ADD SWAP2 DUP3 GT PUSH2 0x2B1F JUMPI DUP6 SWAP2 PUSH2 0x2A57 SWAP2 PUSH2 0x2649 JUMP JUMPDEST MLOAD PUSH1 0x24 DUP5 MLOAD DUP1 SWAP5 DUP2 SWAP4 PUSH4 0x331D9F11 PUSH1 0xE1 SHL DUP4 MSTORE PUSH1 0x4 DUP4 ADD MSTORE GAS STATICCALL SWAP1 DUP2 ISZERO PUSH2 0x2B15 JUMPI DUP5 SWAP2 PUSH2 0x2AF3 JUMPI JUMPDEST POP DUP4 JUMPDEST DUP4 MLOAD DUP2 LT ISZERO PUSH2 0x260C JUMPI DUP3 MLOAD PUSH1 0x20 SWAP1 DUP2 DUP2 ADD SWAP1 PUSH2 0x2AA8 DUP4 DUP3 DUP8 MLOAD PUSH2 0x2811 DUP2 DUP8 DUP6 DUP13 ADD PUSH2 0x1FA5 JUMP JUMPDEST MLOAD SWAP1 KECCAK256 SWAP1 PUSH2 0x2AB6 DUP4 DUP8 PUSH2 0x2649 JUMP JUMPDEST MLOAD SWAP1 PUSH2 0x2AD3 DUP7 MLOAD SWAP2 DUP3 DUP2 PUSH2 0x2811 DUP2 DUP4 ADD SWAP7 DUP8 DUP2 MLOAD SWAP4 DUP5 SWAP3 ADD PUSH2 0x1FA5 JUMP JUMPDEST MLOAD SWAP1 KECCAK256 EQ PUSH2 0x2AE9 JUMPI PUSH2 0x2AE4 SWAP1 PUSH2 0x22D9 JUMP JUMPDEST PUSH2 0x2A82 JUMP JUMPDEST POP POP POP POP POP PUSH1 0x1 SWAP1 JUMP JUMPDEST PUSH2 0x2B07 SWAP2 POP RETURNDATASIZE DUP1 DUP7 DUP4 RETURNDATACOPY PUSH2 0x2899 DUP2 DUP4 PUSH2 0x1EDD JUMP JUMPDEST POP POP POP SWAP4 POP POP POP POP CODESIZE PUSH2 0x2A7F JUMP JUMPDEST DUP3 MLOAD RETURNDATASIZE DUP7 DUP3 RETURNDATACOPY RETURNDATASIZE SWAP1 REVERT JUMPDEST PUSH1 0x24 DUP7 PUSH4 0x4E487B71 PUSH1 0xE0 SHL DUP2 MSTORE PUSH1 0x11 PUSH1 0x4 MSTORE REVERT JUMPDEST POP POP POP POP POP SWAP1 JUMP JUMPDEST PUSH2 0x2B4F SWAP2 POP RETURNDATASIZE DUP1 DUP8 DUP4 RETURNDATACOPY PUSH2 0x2630 DUP2 DUP4 PUSH2 0x1EDD JUMP JUMPDEST CODESIZE PUSH2 0x2A36 JUMP JUMPDEST DUP4 MLOAD RETURNDATASIZE DUP8 DUP3 RETURNDATACOPY RETURNDATASIZE SWAP1 REVERT JUMPDEST SWAP2 PUSH1 0x1 PUSH1 0x1 PUSH1 0xA0 SHL SUB SWAP2 DUP3 PUSH1 0x9 SLOAD AND SWAP3 PUSH1 0x40 MLOAD SWAP5 PUSH4 0x3AF18EF PUSH1 0xE6 SHL DUP7 MSTORE AND PUSH1 0x4 DUP6 ADD MSTORE PUSH1 0x0 SWAP4 DUP5 DUP2 PUSH1 0x24 DUP2 DUP8 GAS STATICCALL SWAP1 DUP2 ISZERO PUSH2 0x2C56 JUMPI SWAP1 DUP6 SWAP2 DUP3 SWAP2 PUSH2 0x2C3C JUMPI JUMPDEST POP DUP1 MLOAD ISZERO PUSH2 0x2B33 JUMPI PUSH1 0x20 ADD MLOAD PUSH1 0x24 PUSH1 0x40 MLOAD DUP1 SWAP7 DUP2 SWAP4 PUSH4 0x331D9F11 PUSH1 0xE1 SHL DUP4 MSTORE PUSH1 0x4 DUP4 ADD MSTORE GAS STATICCALL SWAP3 DUP4 ISZERO PUSH2 0x2C31 JUMPI DUP5 SWAP4 PUSH2 0x2C0D JUMPI JUMPDEST POP DUP1 ISZERO ISZERO SWAP1 DUP2 PUSH2 0x2C03 JUMPI JUMPDEST POP PUSH2 0x2213 JUMPI DUP1 ISZERO ISZERO SWAP2 DUP3 PUSH2 0x2BF9 JUMPI JUMPDEST POP POP PUSH2 0x25CA JUMPI POP PUSH1 0x1 SWAP1 JUMP JUMPDEST GT SWAP1 POP CODESIZE DUP1 PUSH2 0x2BED JUMP JUMPDEST SWAP1 POP DUP3 LT CODESIZE PUSH2 0x2BDE JUMP JUMPDEST PUSH2 0x2C22 SWAP2 SWAP4 POP RETURNDATASIZE DUP1 DUP7 DUP4 RETURNDATACOPY PUSH2 0x2899 DUP2 DUP4 PUSH2 0x1EDD JUMP JUMPDEST POP POP SWAP5 POP POP POP POP POP SWAP2 CODESIZE PUSH2 0x2BD3 JUMP JUMPDEST PUSH1 0x40 MLOAD RETURNDATASIZE DUP7 DUP3 RETURNDATACOPY RETURNDATASIZE SWAP1 REVERT JUMPDEST PUSH2 0x2C50 SWAP2 POP RETURNDATASIZE DUP1 DUP5 DUP4 RETURNDATACOPY PUSH2 0x2630 DUP2 DUP4 PUSH2 0x1EDD JUMP JUMPDEST CODESIZE PUSH2 0x2B9F JUMP JUMPDEST PUSH1 0x40 MLOAD RETURNDATASIZE DUP8 DUP3 RETURNDATACOPY RETURNDATASIZE SWAP1 REVERT INVALID LOG2 PUSH5 0x6970667358 0x22 SLT KECCAK256 DUP4 XOR BLOCKHASH ADDRESS PUSH6 0xDA8ED85A7F02 0xBC EXTCODECOPY 0xE4 0xBB DUP11 0xBA 0xF SSTORE 0xF 0xBF 0xFC 0xEF MUL CALLER POP DUP13 STATICCALL JUMPDEST 0xC3 PUSH13 0xE764736F6C634300081400332F DUP8 DUP9 GT PUSH31 0x7EFF1D82E926EC794901D17C78024A50270940304540A733656F0D00000000 "},"methodIdentifiers":{"ADMIN_ROLE()":"75b238fc","DEFAULT_ADMIN_ROLE()":"a217fddf","SCHOLARSHIP_MANAGER_ROLE()":"3b71498a","certificateNFT()":"91aec72a","checkCourseRequirements(address,string[],bool)":"ebd347ec","checkDepartmentRequirement(address,string[])":"8a864216","checkEnrollmentRequirement(address,uint256,uint256)":"e5173591","claimScholarship(uint256)":"34e617a1","createScholarship(string,string,uint256,uint256,uint256,address,string,(uint256,string[],string[],uint256,uint256,uint256,bool))":"5243a69e","depositFunds()":"e2c41dbc","getContractBalance()":"6f9fb98a","getRoleAdmin(bytes32)":"248a9ca3","getScholarship(uint256)":"a3bf4f4c","getStudentScholarships(address)":"81336d0c","getTotalClaimed(address)":"522bf1d4","grantRole(bytes32,address)":"2f2ff15d","hasRole(bytes32,address)":"91d14854","isEligibleForScholarship(uint256,address)":"0d7bd1d8","pause()":"8456cb59","paused()":"5c975abb","renounceRole(bytes32,address)":"36568abe","revokeRole(bytes32,address)":"d547741f","revokeScholarship(uint256)":"dd518750","scholarshipClaims(uint256,address)":"9e1d1d02","scholarshipCriteria(uint256)":"a703178f","scholarships(uint256)":"39dc58c6","studentScholarships(address,uint256)":"7322333c","supportsInterface(bytes4)":"01ffc9a7","totalClaimed(address)":"ef5d9ae8","unpause()":"3f4ba83a","withdrawFunds(uint256)":"155dd5ee"}}}}}