{"contracts/VignanRegistry.sol":{"VignanRegistry":{"abi":[{"inputs":[],"stateMutability":"nonpayable","type":"constructor"},{"inputs":[],"name":"AccessControlBadConfirmation","type":"error"},{"inputs":[{"internalType":"address","name":"account","type":"address"},{"internalType":"bytes32","name":"neededRole","type":"bytes32"}],"name":"AccessControlUnauthorizedAccount","type":"error"},{"inputs":[],"name":"EnforcedPause","type":"error"},{"inputs":[],"name":"ExpectedPause","type":"error"},{"anonymous":false,"inputs":[{"indexed":true,"internalType":"uint256","name":"courseId","type":"uint256"},{"indexed":false,"internalType":"string","name":"courseCode","type":"string"},{"indexed":false,"internalType":"string","name":"courseName","type":"string"},{"indexed":false,"internalType":"uint256","name":"credits","type":"uint256"},{"indexed":false,"internalType":"uint256","name":"timestamp","type":"uint256"}],"name":"CourseCreated","type":"event"},{"anonymous":false,"inputs":[{"indexed":true,"internalType":"uint256","name":"courseId","type":"uint256"},{"indexed":false,"internalType":"string","name":"courseName","type":"string"},{"indexed":false,"internalType":"uint256","name":"credits","type":"uint256"},{"indexed":false,"internalType":"uint256","name":"timestamp","type":"uint256"}],"name":"CourseUpdated","type":"event"},{"anonymous":false,"inputs":[{"indexed":false,"internalType":"address","name":"account","type":"address"}],"name":"Paused","type":"event"},{"anonymous":false,"inputs":[{"indexed":true,"internalType":"bytes32","name":"role","type":"bytes32"},{"indexed":true,"internalType":"bytes32","name":"previousAdminRole","type":"bytes32"},{"indexed":true,"internalType":"bytes32","name":"newAdminRole","type":"bytes32"}],"name":"RoleAdminChanged","type":"event"},{"anonymous":false,"inputs":[{"indexed":true,"internalType":"bytes32","name":"role","type":"bytes32"},{"indexed":true,"internalType":"address","name":"account","type":"address"},{"indexed":true,"internalType":"address","name":"sender","type":"address"}],"name":"RoleGranted","type":"event"},{"anonymous":false,"inputs":[{"indexed":true,"internalType":"bytes32","name":"role","type":"bytes32"},{"indexed":true,"internalType":"address","name":"account","type":"address"},{"indexed":true,"internalType":"address","name":"sender","type":"address"}],"name":"RoleRevoked","type":"event"},{"anonymous":false,"inputs":[{"indexed":true,"internalType":"uint256","name":"studentId","type":"uint256"},{"indexed":true,"internalType":"uint256","name":"courseId","type":"uint256"},{"indexed":false,"internalType":"uint256","name":"timestamp","type":"uint256"}],"name":"StudentEnrolled","type":"event"},{"anonymous":false,"inputs":[{"indexed":true,"internalType":"uint256","name":"studentId","type":"uint256"},{"indexed":false,"internalType":"string","name":"degree","type":"string"},{"indexed":false,"internalType":"uint256","name":"timestamp","type":"uint256"}],"name":"StudentGraduated","type":"event"},{"anonymous":false,"inputs":[{"indexed":true,"internalType":"uint256","name":"studentId","type":"uint256"},{"indexed":true,"internalType":"address","name":"studentAddress","type":"address"},{"indexed":false,"internalType":"string","name":"studentNumber","type":"string"},{"indexed":false,"internalType":"string","name":"name","type":"string"},{"indexed":false,"internalType":"uint256","name":"timestamp","type":"uint256"}],"name":"StudentRegistered","type":"event"},{"anonymous":false,"inputs":[{"indexed":true,"internalType":"uint256","name":"studentId","type":"uint256"},{"indexed":true,"internalType":"address","name":"studentAddress","type":"address"},{"indexed":false,"internalType":"string","name":"name","type":"string"},{"indexed":false,"internalType":"uint256","name":"timestamp","type":"uint256"}],"name":"StudentUpdated","type":"event"},{"anonymous":false,"inputs":[{"indexed":false,"internalType":"address","name":"account","type":"address"}],"name":"Unpaused","type":"event"},{"inputs":[],"name":"ADMIN_ROLE","outputs":[{"internalType":"bytes32","name":"","type":"bytes32"}],"stateMutability":"view","type":"function"},{"inputs":[],"name":"DEFAULT_ADMIN_ROLE","outputs":[{"internalType":"bytes32","name":"","type":"bytes32"}],"stateMutability":"view","type":"function"},{"inputs":[],"name":"REGISTRAR_ROLE","outputs":[{"internalType":"bytes32","name":"","type":"bytes32"}],"stateMutability":"view","type":"function"},{"inputs":[],"name":"VERIFIER_ROLE","outputs":[{"internalType":"bytes32","name":"","type":"bytes32"}],"stateMutability":"view","type":"function"},{"inputs":[{"internalType":"address","name":"","type":"address"}],"name":"addressToStudentId","outputs":[{"internalType":"uint256","name":"","type":"uint256"}],"stateMutability":"view","type":"function"},{"inputs":[{"internalType":"uint256","name":"","type":"uint256"}],"name":"courses","outputs":[{"internalType":"uint256","name":"courseId","type":"uint256"},{"internalType":"string","name":"courseCode","type":"string"},{"internalType":"string","name":"courseName","type":"string"},{"internalType":"string","name":"description","type":"string"},{"internalType":"uint256","name":"credits","type":"uint256"},{"internalType":"string","name":"department","type":"string"},{"internalType":"bool","name":"isActive","type":"bool"},{"internalType":"uint256","name":"createdAt","type":"uint256"},{"internalType":"address","name":"createdBy","type":"address"}],"stateMutability":"view","type":"function"},{"inputs":[{"internalType":"string","name":"courseCode","type":"string"},{"internalType":"string","name":"courseName","type":"string"},{"internalType":"string","name":"description","type":"string"},{"internalType":"uint256","name":"credits","type":"uint256"},{"internalType":"string","name":"department","type":"string"}],"name":"createCourse","outputs":[{"internalType":"uint256","name":"","type":"uint256"}],"stateMutability":"nonpayable","type":"function"},{"inputs":[{"internalType":"uint256","name":"courseId","type":"uint256"}],"name":"deactivateCourse","outputs":[],"stateMutability":"nonpayable","type":"function"},{"inputs":[{"internalType":"uint256","name":"studentId","type":"uint256"}],"name":"deactivateStudent","outputs":[],"stateMutability":"nonpayable","type":"function"},{"inputs":[{"internalType":"uint256","name":"studentId","type":"uint256"},{"internalType":"uint256","name":"courseId","type":"uint256"}],"name":"enrollStudent","outputs":[],"stateMutability":"nonpayable","type":"function"},{"inputs":[{"internalType":"uint256","name":"courseId","type":"uint256"}],"name":"getCourse","outputs":[{"components":[{"internalType":"uint256","name":"courseId","type":"uint256"},{"internalType":"string","name":"courseCode","type":"string"},{"internalType":"string","name":"courseName","type":"string"},{"internalType":"string","name":"description","type":"string"},{"internalType":"uint256","name":"credits","type":"uint256"},{"internalType":"string","name":"department","type":"string"},{"internalType":"bool","name":"isActive","type":"bool"},{"internalType":"uint256","name":"createdAt","type":"uint256"},{"internalType":"address","name":"createdBy","type":"address"}],"internalType":"struct VignanRegistry.Course","name":"","type":"tuple"}],"stateMutability":"view","type":"function"},{"inputs":[{"internalType":"bytes32","name":"role","type":"bytes32"}],"name":"getRoleAdmin","outputs":[{"internalType":"bytes32","name":"","type":"bytes32"}],"stateMutability":"view","type":"function"},{"inputs":[{"internalType":"uint256","name":"studentId","type":"uint256"}],"name":"getStudent","outputs":[{"components":[{"internalType":"uint256","name":"studentId","type":"uint256"},{"internalType":"address","name":"studentAddress","type":"address"},{"internalType":"string","name":"studentNumber","type":"string"},{"internalType":"string","name":"name","type":"string"},{"internalType":"string","name":"email","type":"string"},{"internalType":"string","name":"department","type":"string"},{"internalType":"string","name":"program","type":"string"},{"internalType":"uint256","name":"enrollmentDate","type":"uint256"},{"internalType":"uint256","name":"graduationDate","type":"uint256"},{"internalType":"bool","name":"isActive","type":"bool"},{"internalType":"bool","name":"isGraduated","type":"bool"},{"internalType":"string","name":"degree","type":"string"},{"internalType":"uint256[]","name":"enrolledCourses","type":"uint256[]"}],"internalType":"struct VignanRegistry.Student","name":"","type":"tuple"}],"stateMutability":"view","type":"function"},{"inputs":[{"internalType":"address","name":"studentAddress","type":"address"}],"name":"getStudentByAddress","outputs":[{"components":[{"internalType":"uint256","name":"studentId","type":"uint256"},{"internalType":"address","name":"studentAddress","type":"address"},{"internalType":"string","name":"studentNumber","type":"string"},{"internalType":"string","name":"name","type":"string"},{"internalType":"string","name":"email","type":"string"},{"internalType":"string","name":"department","type":"string"},{"internalType":"string","name":"program","type":"string"},{"internalType":"uint256","name":"enrollmentDate","type":"uint256"},{"internalType":"uint256","name":"graduationDate","type":"uint256"},{"internalType":"bool","name":"isActive","type":"bool"},{"internalType":"bool","name":"isGraduated","type":"bool"},{"internalType":"string","name":"degree","type":"string"},{"internalType":"uint256[]","name":"enrolledCourses","type":"uint256[]"}],"internalType":"struct VignanRegistry.Student","name":"","type":"tuple"}],"stateMutability":"view","type":"function"},{"inputs":[],"name":"getTotalCourses","outputs":[{"internalType":"uint256","name":"","type":"uint256"}],"stateMutability":"view","type":"function"},{"inputs":[],"name":"getTotalStudents","outputs":[{"internalType":"uint256","name":"","type":"uint256"}],"stateMutability":"view","type":"function"},{"inputs":[{"internalType":"uint256","name":"studentId","type":"uint256"},{"internalType":"string","name":"degree","type":"string"}],"name":"graduateStudent","outputs":[],"stateMutability":"nonpayable","type":"function"},{"inputs":[{"internalType":"bytes32","name":"role","type":"bytes32"},{"internalType":"address","name":"account","type":"address"}],"name":"grantRole","outputs":[],"stateMutability":"nonpayable","type":"function"},{"inputs":[{"internalType":"bytes32","name":"role","type":"bytes32"},{"internalType":"address","name":"account","type":"address"}],"name":"hasRole","outputs":[{"internalType":"bool","name":"","type":"bool"}],"stateMutability":"view","type":"function"},{"inputs":[{"internalType":"address","name":"studentAddress","type":"address"}],"name":"isStudentRegistered","outputs":[{"internalType":"bool","name":"","type":"bool"}],"stateMutability":"view","type":"function"},{"inputs":[],"name":"pause","outputs":[],"stateMutability":"nonpayable","type":"function"},{"inputs":[],"name":"paused","outputs":[{"internalType":"bool","name":"","type":"bool"}],"stateMutability":"view","type":"function"},{"inputs":[{"internalType":"address","name":"studentAddress","type":"address"},{"internalType":"string","name":"studentNumber","type":"string"},{"internalType":"string","name":"name","type":"string"},{"internalType":"string","name":"email","type":"string"},{"internalType":"string","name":"department","type":"string"},{"internalType":"string","name":"program","type":"string"}],"name":"registerStudent","outputs":[{"internalType":"uint256","name":"","type":"uint256"}],"stateMutability":"nonpayable","type":"function"},{"inputs":[{"internalType":"address","name":"","type":"address"}],"name":"registeredStudents","outputs":[{"internalType":"bool","name":"","type":"bool"}],"stateMutability":"view","type":"function"},{"inputs":[{"internalType":"bytes32","name":"role","type":"bytes32"},{"internalType":"address","name":"callerConfirmation","type":"address"}],"name":"renounceRole","outputs":[],"stateMutability":"nonpayable","type":"function"},{"inputs":[{"internalType":"bytes32","name":"role","type":"bytes32"},{"internalType":"address","name":"account","type":"address"}],"name":"revokeRole","outputs":[],"stateMutability":"nonpayable","type":"function"},{"inputs":[{"internalType":"uint256","name":"","type":"uint256"}],"name":"students","outputs":[{"internalType":"uint256","name":"studentId","type":"uint256"},{"internalType":"address","name":"studentAddress","type":"address"},{"internalType":"string","name":"studentNumber","type":"string"},{"internalType":"string","name":"name","type":"string"},{"internalType":"string","name":"email","type":"string"},{"internalType":"string","name":"department","type":"string"},{"internalType":"string","name":"program","type":"string"},{"internalType":"uint256","name":"enrollmentDate","type":"uint256"},{"internalType":"uint256","name":"graduationDate","type":"uint256"},{"internalType":"bool","name":"isActive","type":"bool"},{"internalType":"bool","name":"isGraduated","type":"bool"},{"internalType":"string","name":"degree","type":"string"}],"stateMutability":"view","type":"function"},{"inputs":[{"internalType":"bytes4","name":"interfaceId","type":"bytes4"}],"name":"supportsInterface","outputs":[{"internalType":"bool","name":"","type":"bool"}],"stateMutability":"view","type":"function"},{"inputs":[],"name":"unpause","outputs":[],"stateMutability":"nonpayable","type":"function"},{"inputs":[{"internalType":"uint256","name":"courseId","type":"uint256"},{"internalType":"string","name":"courseName","type":"string"},{"internalType":"string","name":"description","type":"string"},{"internalType":"uint256","name":"credits","type":"uint256"}],"name":"updateCourse","outputs":[],"stateMutability":"nonpayable","type":"function"},{"inputs":[{"internalType":"uint256","name":"studentId","type":"uint256"},{"internalType":"string","name":"name","type":"string"},{"internalType":"string","name":"email","type":"string"},{"internalType":"string","name":"department","type":"string"},{"internalType":"string","name":"program","type":"string"}],"name":"updateStudent","outputs":[],"stateMutability":"nonpayable","type":"function"},{"inputs":[{"internalType":"string","name":"","type":"string"}],"name":"usedStudentNumbers","outputs":[{"internalType":"bool","name":"","type":"bool"}],"stateMutability":"view","type":"function"}],"evm":{"bytecode":{"linkReferences":{},"object":"608060405234620000545760ff19600154166001556200001f3362000059565b506200002b33620000d9565b5062000037336200017b565b50620000433362000218565b5060405161337f9081620002b68239f35b600080fd5b6001600160a01b031660008181527fad3228b676f7d3cd4284a5443f17f1962b36e491b30a40b2405849e597ba5fb5602052604081205490919060ff16620000d557818052816020526040822081835260205260408220600160ff198254161790553391600080516020620036358339815191528180a4600190565b5090565b6001600160a01b031660008181527f7d7ffb7a348e1c6a02869081a26547b49160dd3df72d1d75a570eb9b698292ec60205260408120549091907fa49807205ce4d355092ef5a8a18f56e8913cf4a201fbe287825b095693c217759060ff166200017657808352826020526040832082845260205260408320600160ff1982541617905560008051602062003635833981519152339380a4600190565b505090565b6001600160a01b031660008181527f01ddc098da42acdf4176da08ec75800bc0fb2bce2be978b2037bcb0ae696651960205260408120549091907fedcc084d3dcd65a1f7f23c65c46722faca6953d28e43150a467cf43e5c3092389060ff166200017657808352826020526040832082845260205260408320600160ff1982541617905560008051602062003635833981519152339380a4600190565b6001600160a01b031660008181527f1da0b5176dfe03406af5a6eed66ca01dda9b45ac4da671c3fa379cb93717ef8160205260408120549091907f0ce23c3e399818cfee81a7ab0880f714e53d7672b08df0fa62f2843416e1ea099060ff166200017657808352826020526040832082845260205260408320600160ff1982541617905560008051602062003635833981519152339380a460019056fe608080604052600436101561001357600080fd5b60003560e01c90816301ffc9a714612b585750806306ead22e14612a295780630b91e28d14612892578063148e0f061461278a578063248a9ca31461275b57806328bcb51a1461273d5780632f2ff15d146126fe57806336568abe1461269f5780633f4ba83a1461261d5780635c975abb146125fa5780635d5aa72e14611ece578063642f916314611d9a5780636ea2f53c1461089257806375b238fc14611d5f5780638456cb5914611d0657806386c3441514611ccc57806391aac065146119c057806391d148541461197257806392ede6d014610e1f57806396f979d214610d3b5780639f3da5cc14610b8e578063a018cbb11461093f578063a217fddf14610923578063ac85495d146108d1578063b8b2e42c14610892578063bffa52e91461030b578063d4cba21c146102ed578063d547741f146102ac578063e7705db614610271578063f3d4efa61461020f578063f6370c9e146101bf5763f68e95531461017f57600080fd5b346101ba5760003660031901126101ba5760206040517fedcc084d3dcd65a1f7f23c65c46722faca6953d28e43150a467cf43e5c3092388152f35b600080fd5b346101ba5760203660031901126101ba576004356101db612fd2565b8060005260046020526101f460406000205415156131bb565b6000908152600460205260409020600901805460ff19169055005b346101ba5760203660031901126101ba5760043567ffffffffffffffff81116101ba5760ff61025b602061024881943690600401612dc2565b8160405193828580945193849201612d4e565b8101600781520301902054166040519015158152f35b346101ba5760003660031901126101ba5760206040517f0ce23c3e399818cfee81a7ab0880f714e53d7672b08df0fa62f2843416e1ea098152f35b346101ba5760403660031901126101ba576102eb6004356102cb612d96565b908060005260006020526102e660016040600020015461302e565b6130d3565b005b346101ba5760003660031901126101ba576020600354604051908152f35b346101ba5760a03660031901126101ba5760243567ffffffffffffffff81116101ba5761033c903690600401612dc2565b60443567ffffffffffffffff81116101ba5761035c903690600401612dc2565b60643567ffffffffffffffff81116101ba5761037c903690600401612dc2565b9160843567ffffffffffffffff81116101ba5761039d903690600401612dc2565b916103a6612f3f565b60043560005260046020526103c160406000205415156131bb565b60043560005260046020526103e060ff60096040600020015416613206565b60043560005260046020526003604060002001825167ffffffffffffffff81116106895761040e8254612bf6565b601f8111610860575b50806020601f82116001146107f9576000916107ee575b508160011b916000199060031b1c19161790555b600435600052600460205260046040600020019080519067ffffffffffffffff82116106895781906104748454612bf6565b601f81116107bc575b50602090601f831160011461075057600092610745575b50508160011b916000199060031b1c19161790555b60043560005260046020526005604060002001835167ffffffffffffffff8111610689576104d78254612bf6565b601f8111610713575b506020601f82116001146106aa57819293949560009261069f575b50508160011b916000199060031b1c19161790555b60043560005260046020526006604060002001825167ffffffffffffffff81116106895761053e8254612bf6565b601f811161064c575b506020601f82116001146105e657819293946000926105db575b50508160011b916000199060031b1c19161790555b60043560005260046020526001600160a01b0360016040600020015416907f50f59dacc19443d580036dd74415769b3af3c3bcb4753259015f4a4b137632eb6105ca60405192604084526040840190612d71565b9142602082015280600435930390a3005b015190508480610561565b601f198216908360005260206000209160005b8181106106345750958360019596971061061b575b505050811b019055610576565b015160001960f88460031b161c1916905584808061060e565b9192602060018192868b0151815501940192016105f9565b61067990836000526020600020601f840160051c8101916020851061067f575b601f0160051c019061316e565b84610547565b909150819061066c565b634e487b7160e01b600052604160045260246000fd5b0151905085806104fb565b8260005260206000209060005b601f19841681106106fb575060019394959683601f198116106106e2575b505050811b019055610510565b015160001960f88460031b161c191690558580806106d5565b9091602060018192858b0151815501930191016106b7565b61073f90836000526020600020601f840160051c8101916020851061067f57601f0160051c019061316e565b856104e0565b015190508680610494565b9250836000526020600020906000935b601f19841685106107a1576001945083601f19811610610788575b505050811b0190556104a9565b015160001960f88460031b161c1916905586808061077b565b81810151835560209485019460019093019290910190610760565b6107e890856000526020600020601f850160051c8101916020861061067f57601f0160051c019061316e565b8761047d565b90508401518761042e565b91508260005260206000206000925b601f1983168410610848576001935082601f1981161061082f575b5050811b019055610442565b86015160001960f88460031b161c191690558780610823565b86810151825560209384019360019092019101610808565b61088c90836000526020600020601f840160051c8101916020851061067f57601f0160051c019061316e565b86610417565b346101ba5760203660031901126101ba576001600160a01b036108b3612dac565b166000526008602052602060ff604060002054166040519015158152f35b346101ba5760203660031901126101ba576004356108ed612fd2565b8060005260066020526109066040600020541515613251565b6000526006602052600660406000200160ff198154169055600080f35b346101ba5760003660031901126101ba57602060405160008152f35b346101ba5760403660031901126101ba5760043567ffffffffffffffff6024358181116101ba57610974903690600401612dc2565b9061097d612f3f565b826000526020906004825261099860406000205415156131bb565b83600052600482526109b460ff60096040600020015416613206565b836000526004825260ff60096040600020015460081c16610b4a578360005260048252600a60406000206009810161010061ff00198254161790554260088201550190835190811161068957610a0a8254612bf6565b601f8111610b1a575b5082601f8211600114610a90579181610a7a94927fd26d1e209668f18f2bc4f6535740073250e7155628a6a3bb93ef26dde2edd1559694600091610a85575b508160011b916000199060031b1c19161790555b604051928392604084526040840190612d71565b9042908301520390a2005b905084015188610a52565b601f1982169083600052846000209160005b818110610b035750927fd26d1e209668f18f2bc4f6535740073250e7155628a6a3bb93ef26dde2edd15596949260019282610a7a989610610aea575b5050811b019055610a66565b86015160001960f88460031b161c191690558880610ade565b91928660018192868b015181550194019201610aa2565b610b44908360005284600020601f840160051c81019186851061067f57601f0160051c019061316e565b85610a13565b6064826040519062461bcd60e51b82526004820152601960248201527f53747564656e7420616c726561647920677261647561746564000000000000006044820152fd5b346101ba576020806003193601126101ba57610ba8612dac565b90610bb16132e7565b506001600160a01b03809216600052600581526040600020548015610cf757829060005260048252604060002090600b60405192610bee84612c4d565b80548452600192838201541685850152610c0a60028201612ca8565b6040850152610c1b60038201612ca8565b6060850152610c2c60048201612ca8565b6080850152610c3d60058201612ca8565b60a0850152610c4e60068201612ca8565b60c0850152600781015460e0850152600881015461010085015260ff6009820154818116151561012087015260081c161515610140850152610c92600a8201612ca8565b6101608501520192604051918282865491828152019560005282600020926000905b828210610ce257610cde8787610ccc818c0382612c86565b61018082015260405191829182612e19565b0390f35b84548852968701969383019390830190610cb4565b6064826040519062461bcd60e51b82526004820152601160248201527f53747564656e74206e6f7420666f756e640000000000000000000000000000006044820152fd5b346101ba5760203660031901126101ba57600435600052600660205260406000208054610d6a60018301612ca8565b91610d7760028201612ca8565b610d8360038301612ca8565b91610e086004820154610d9860058401612ca8565b610df560ff60068601541696610de76001600160a01b03600860078901549801541697610dd96040519c8d9c8d5260208d61012091829101528d0190612d71565b908b820360408d0152612d71565b9089820360608b0152612d71565b91608088015286820360a0880152612d71565b92151560c085015260e08401526101008301520390f35b346101ba5760c03660031901126101ba57610e38612dac565b60243567ffffffffffffffff81116101ba57610e58903690600401612dc2565b9060443567ffffffffffffffff81116101ba57610e79903690600401612dc2565b9060643567ffffffffffffffff81116101ba57610e9a903690600401612dc2565b9260843567ffffffffffffffff81116101ba57610ebb903690600401612dc2565b9260a43567ffffffffffffffff81116101ba57610edc903690600401612dc2565b93610ee5612f3f565b610eed613185565b6001600160a01b0384161561192e578251156118ea578151156118a65760ff6040516020818651610f218183858b01612d4e565b810160078152030190205416611862576001600160a01b038416600052600860205260ff6040600020541661181e57610f5b600254613149565b948560025560405191610f6d83612c6a565b6000835260405197610f7e89612c4d565b8789526001600160a01b03871660208a01528560408a01528460608a0152608089015260a088015260c08701524260e0870152600061010087015260016101208701526000610140870152604051610fd581612c6a565b60008152610160870152610180860152836000526004602052604060002085518155600181016001600160a01b0360208801511673ffffffffffffffffffffffffffffffffffffffff19825416179055604086015180519067ffffffffffffffff821161068957819061104b6002850154612bf6565b601f81116117e9575b50602090601f83116001146117775760009261176c575b50508160011b916000199060031b1c19161760028201555b606086015180519067ffffffffffffffff82116106895781906110a96003850154612bf6565b601f8111611737575b50602090601f83116001146116c5576000926116ba575b50508160011b916000199060031b1c19161760038201555b608086015180519067ffffffffffffffff82116106895781906111076004850154612bf6565b601f8111611685575b50602090601f831160011461161357600092611608575b50508160011b916000199060031b1c19161760048201555b60a086015180519067ffffffffffffffff82116106895781906111656005850154612bf6565b601f81116115d3575b50602090601f831160011461156157600092611556575b50508160011b916000199060031b1c19161760058201555b60c086015180519067ffffffffffffffff82116106895781906111c36006850154612bf6565b601f8111611521575b50602090601f83116001146114af576000926114a4575b50508160011b916000199060031b1c19161760068201555b60e086015160078201556101008601516008820155600981016112316101208801511515829060ff801983541691151516179055565b610140870151815461ff00191690151560081b61ff001617905561016086015180519067ffffffffffffffff821161068957611270600a840154612bf6565b601f811161146f575b50602090601f83116001146113f95791806101809492600b946000926113ee575b50508160011b916000199060031b1c191617600a8201555b0195015180519067ffffffffffffffff8211610689576801000000000000000082116106895760209087548389558084106113d1575b50019560005260206000209560005b8281106113bd5760208787817f911873dcc1fb88f7451f9dd9c6ed2cc2ad92ad8eb19fe599a5b526b91064578161139c8a6001600160a01b036113a98c82881660005260058a52866040600020556040518a8186516113598183858b01612d4e565b8101600781520301902060ff199060018282541617905583891660005260088b526001604060002091825416179055604051948594606086526060860190612d71565b908482038b860152612d71565b9542604084015216940390a3604051908152f35b60019060208351930192818a0155016112f7565b6113e890896000528484600020918201910161316e565b886112e8565b015190508a8061129a565b90600a840160005260206000209160005b601f19851681106114575750926101809492600192600b9583601f1981161061143e575b505050811b01600a8201556112b2565b015160001960f88460031b161c191690558a808061142e565b9192602060018192868501518155019401920161140a565b61149e90600a85016000526020600020601f850160051c8101916020861061067f57601f0160051c019061316e565b88611279565b0151905088806111e3565b9250600684016000526020600020906000935b601f1984168510611506576001945083601f198116106114ed575b505050811b0160068201556111fb565b015160001960f88460031b161c191690558880806114dd565b818101518355602094850194600190930192909101906114c2565b61155090600686016000526020600020601f850160051c8101916020861061067f57601f0160051c019061316e565b896111cc565b015190508880611185565b9250600584016000526020600020906000935b601f19841685106115b8576001945083601f1981161061159f575b505050811b01600582015561119d565b015160001960f88460031b161c1916905588808061158f565b81810151835560209485019460019093019290910190611574565b61160290600586016000526020600020601f850160051c8101916020861061067f57601f0160051c019061316e565b8961116e565b015190508880611127565b9250600484016000526020600020906000935b601f198416851061166a576001945083601f19811610611651575b505050811b01600482015561113f565b015160001960f88460031b161c19169055888080611641565b81810151835560209485019460019093019290910190611626565b6116b490600486016000526020600020601f850160051c8101916020861061067f57601f0160051c019061316e565b89611110565b0151905088806110c9565b9250600384016000526020600020906000935b601f198416851061171c576001945083601f19811610611703575b505050811b0160038201556110e1565b015160001960f88460031b161c191690558880806116f3565b818101518355602094850194600190930192909101906116d8565b61176690600386016000526020600020601f850160051c8101916020861061067f57601f0160051c019061316e565b896110b2565b01519050888061106b565b9250600284016000526020600020906000935b601f19841685106117ce576001945083601f198116106117b5575b505050811b016002820155611083565b015160001960f88460031b161c191690558880806117a5565b8181015183556020948501946001909301929091019061178a565b61181890600286016000526020600020601f850160051c8101916020861061067f57601f0160051c019061316e565b89611054565b606460405162461bcd60e51b815260206004820152601a60248201527f4164647265737320616c726561647920726567697374657265640000000000006044820152fd5b606460405162461bcd60e51b815260206004820152601d60248201527f53747564656e74206e756d62657220616c7265616479206578697374730000006044820152fd5b606460405162461bcd60e51b815260206004820152601460248201527f4e616d652063616e6e6f7420626520656d7074790000000000000000000000006044820152fd5b606460405162461bcd60e51b815260206004820152601e60248201527f53747564656e74206e756d6265722063616e6e6f7420626520656d70747900006044820152fd5b606460405162461bcd60e51b815260206004820152601760248201527f496e76616c69642073747564656e7420616464726573730000000000000000006044820152fd5b346101ba5760403660031901126101ba5761198b612d96565b60043560005260006020526001600160a01b0360406000209116600052602052602060ff604060002054166040519015158152f35b346101ba5760803660031901126101ba5760043567ffffffffffffffff6024358181116101ba576119f5903690600401612dc2565b906044358181116101ba57611a0e903690600401612dc2565b60643590611a1a612f3f565b84600052600690602093828552611a376040600020541515613251565b86600052828552611a5160ff84604060002001541661329c565b86600052828552600260406000200186519082821161068957611a748154612bf6565b91601f92838111611c9e575b508088848211600114611c3a57600091611c2f575b508160011b916000199060031b1c19161790555b87600052838652600360406000200192805192831161068957611acc8454612bf6565b828111611bf7575b5086918311600114611b685791807f26fe23cb4aa60e21978462ce5b13d99e63580eb14d7ae6afcfe8e040304ab03098969492611b4e989694600092611b5d575b50508160011b916000199060031b1c19161790555b86600052825280600460406000200155604051938493606085526060850190612d71565b918301524260408301520390a2005b015190508a80611b15565b90601f1983169184600052876000209260005b818110611be05750926001928592611b4e9a98967f26fe23cb4aa60e21978462ce5b13d99e63580eb14d7ae6afcfe8e040304ab0309c9a989610611bc7575b505050811b019055611b2a565b015160001960f88460031b161c191690558a8080611bba565b929389600181928786015181550195019301611b7b565b611c209085600052886000208480870160051c8201928b8810611c26575b0160051c019061316e565b89611ad4565b92508192611c15565b90508901518b611a95565b60008481528a81209250601f198416905b8b8d838310611c89575050509083600194939210611c70575b5050811b019055611aa9565b8b015160001960f88460031b161c191690558b80611c64565b84015185556001909401939283019201611c4b565b611cc69083600052896000208580850160051c8201928c8610611c26570160051c019061316e565b8a611a80565b346101ba5760203660031901126101ba576001600160a01b03611ced612dac565b1660005260056020526020604060002054604051908152f35b346101ba5760003660031901126101ba57611d1f612fd2565b611d27613185565b600160ff19815416176001557f62e78cea01bee320cd4e420270b5ea74000d11b0c9f74754ebdbfc544b05a2586020604051338152a1005b346101ba5760003660031901126101ba5760206040517fa49807205ce4d355092ef5a8a18f56e8913cf4a201fbe287825b095693c217758152f35b346101ba576020806003193601126101ba57611db46132e7565b5060043560005260048152604060002060405190611dd182612c4d565b80548252600b6001916001600160a01b03838201541685850152611df760028201612ca8565b6040850152611e0860038201612ca8565b6060850152611e1960048201612ca8565b6080850152611e2a60058201612ca8565b60a0850152611e3b60068201612ca8565b60c0850152600781015460e0850152600881015461010085015260ff6009820154818116151561012087015260081c161515610140850152611e7f600a8201612ca8565b6101608501520192604051918282865491828152019560005282600020926000905b828210611eb957610cde8787610ccc818c0382612c86565b84548852968701969383019390830190611ea1565b346101ba5760a03660031901126101ba5760043567ffffffffffffffff81116101ba57611eff903690600401612dc2565b60243567ffffffffffffffff81116101ba57611f1f903690600401612dc2565b9060443567ffffffffffffffff81116101ba57611f40903690600401612dc2565b60843567ffffffffffffffff81116101ba57611f60903690600401612dc2565b91611f69612f3f565b611f71613185565b8051156125b657835115612572576064351561252e57611f92600354613149565b928360035560405192611fa484612c30565b8484528260208501528560408501526060840152606435608084015260a0830152600160c08301524260e08301523361010083015282600052600660205260406000209382518555602083015180519067ffffffffffffffff82116106895781906120126001890154612bf6565b601f81116124f9575b50602090601f83116001146124875760009261247c575b50508160011b916000199060031b1c19161760018601555b604083015180519067ffffffffffffffff82116106895781906120706002890154612bf6565b601f8111612447575b50602090601f83116001146123d5576000926123ca575b50508160011b916000199060031b1c19161760028601555b606083015180519067ffffffffffffffff82116106895781906120ce6003890154612bf6565b601f8111612395575b50602090601f831160011461232357600092612318575b50508160011b916000199060031b1c19161760038601555b6080830151600486015560a08301519283519567ffffffffffffffff871161068957602096869561213a6005840154612bf6565b601f81116122e5575b508890601f831160011461223c576101006008612218958561220b99967ff60da87f4d85b870da91e17abc7fe1194ab1365b51aba933eb7325f910ea457b9b99966001600160a01b0396600092612231575b50508160011b916000199060031b1c19161760058201555b6121cc60c08601511515600683019060ff801983541691151516179055565b60e08501516007820155019201511673ffffffffffffffffffffffffffffffffffffffff19825416179055604051938493608085526080850190612d71565b9083820389850152612d71565b60643560408301524260608301520390a2604051908152f35b015190508f80612195565b9060058401600052896000209160005b601f19851681106122cb57506008612218956001867ff60da87f4d85b870da91e17abc7fe1194ab1365b51aba933eb7325f910ea457b9b99966001600160a01b03966101009661220b9d9a601f198116106122b2575b505050811b0160058201556121ad565b015160001960f88460031b161c191690558f80806122a2565b8183015184558a9950600190930192918b01918b0161224c565b61231290600585016000528a600020601f850160051c8101918c861061067f57601f0160051c019061316e565b89612143565b0151905087806120ee565b9250600388016000526020600020906000935b601f198416851061237a576001945083601f19811610612361575b505050811b016003860155612106565b015160001960f88460031b161c19169055878080612351565b81810151835560209485019460019093019290910190612336565b6123c49060038a016000526020600020601f850160051c8101916020861061067f57601f0160051c019061316e565b886120d7565b015190508780612090565b9250600288016000526020600020906000935b601f198416851061242c576001945083601f19811610612413575b505050811b0160028601556120a8565b015160001960f88460031b161c19169055878080612403565b818101518355602094850194600190930192909101906123e8565b6124769060028a016000526020600020601f850160051c8101916020861061067f57601f0160051c019061316e565b88612079565b015190508780612032565b9250600188016000526020600020906000935b601f19841685106124de576001945083601f198116106124c5575b505050811b01600186015561204a565b015160001960f88460031b161c191690558780806124b5565b8181015183556020948501946001909301929091019061249a565b6125289060018a016000526020600020601f850160051c8101916020861061067f57601f0160051c019061316e565b8861201b565b606460405162461bcd60e51b815260206004820152601e60248201527f43726564697473206d7573742062652067726561746572207468616e203000006044820152fd5b606460405162461bcd60e51b815260206004820152601b60248201527f436f75727365206e616d652063616e6e6f7420626520656d70747900000000006044820152fd5b606460405162461bcd60e51b815260206004820152601b60248201527f436f7572736520636f64652063616e6e6f7420626520656d70747900000000006044820152fd5b346101ba5760003660031901126101ba57602060ff600154166040519015158152f35b346101ba5760003660031901126101ba57612636612fd2565b60015460ff8116156126755760ff19166001557f5db9ee0a495bf2e6ff9c91a7834c1ba4fdd244a5e8aa4e537bd38aeae4b073aa6020604051338152a1005b60046040517f8dfc202b000000000000000000000000000000000000000000000000000000008152fd5b346101ba5760403660031901126101ba576126b8612d96565b336001600160a01b038216036126d4576102eb906004356130d3565b60046040517f6697b232000000000000000000000000000000000000000000000000000000008152fd5b346101ba5760403660031901126101ba576102eb60043561271d612d96565b9080600052600060205261273860016040600020015461302e565b613054565b346101ba5760003660031901126101ba576020600254604051908152f35b346101ba5760203660031901126101ba5760043560005260006020526020600160406000200154604051908152f35b346101ba5760403660031901126101ba576024356004356127a9612f3f565b806000526020600481526127c360406000205415156131bb565b81600052600481526127df60ff60096040600020015416613206565b82600052600681526127f76040600020541515613251565b826000526006815261281360ff6006604060002001541661329c565b8160005260048152600b6040600020019081549168010000000000000000831015610689576001830180825583101561287c577f8802b1c117afc214959b93e53532b774c80cb31cb9946a261c8a66c509bbfe02928591600052826000200155604051428152a3005b634e487b7160e01b600052603260045260246000fd5b346101ba576020806003193601126101ba57604051906128b182612c30565b6000825260608082840152806040840152808084015260808301600090528060a084015260c083016000905260e0830160009052610100809301600090526004356000526006825260406000206040519061290b82612c30565b8054825261291b60018201612ca8565b8285019081529461292e60028301612ca8565b604084019081529061294260038401612ca8565b8486019081526004840154608086019081529561296160058601612ca8565b9660a08701978852600686015460ff169760c08801981515895260078701549360e089019485526001600160a01b036008819901541696868a019788526040519c8c8e9d9b8e9c8d5251908c0152516101206040819c01526101408d016129c791612d71565b9051908c601f199687828403019101526129e091612d71565b905190848c82030160808d01526129f691612d71565b915160a08b015251918982030160c08a0152612a1191612d71565b9551151560e088015251908601525116908301520390f35b346101ba5760203660031901126101ba5760043560005260046020526040600020805460018201546001600160a01b03169160028101612a6890612ca8565b90612a7560038201612ca8565b90612a8260048201612ca8565b91612a8f60058301612ca8565b612a9b60068401612ca8565b90600784015494600885015493600986015495600a01612aba90612ca8565b976040519a8b9a8b5260208b01526101808060408c01528a01612adc91612d71565b89810360608b0152612aed91612d71565b88810360808a0152612afe91612d71565b87810360a0890152612b0f91612d71565b86810360c0880152612b2091612d71565b9260e086015261010085015260ff8116151561012085015260081c60ff161515610140840152828103610160840152610cde91612d71565b346101ba5760203660031901126101ba57600435907fffffffff0000000000000000000000000000000000000000000000000000000082168092036101ba57817f7965db0b0000000000000000000000000000000000000000000000000000000060209314908115612bcc575b5015158152f35b7f01ffc9a70000000000000000000000000000000000000000000000000000000091501483612bc5565b90600182811c92168015612c26575b6020831014612c1057565b634e487b7160e01b600052602260045260246000fd5b91607f1691612c05565b610120810190811067ffffffffffffffff82111761068957604052565b6101a0810190811067ffffffffffffffff82111761068957604052565b6020810190811067ffffffffffffffff82111761068957604052565b90601f8019910116810190811067ffffffffffffffff82111761068957604052565b9060405191826000825492612cbc84612bf6565b908184526001948581169081600014612d2b5750600114612ce8575b5050612ce692500383612c86565b565b9093915060005260209081600020936000915b818310612d13575050612ce693508201013880612cd8565b85548884018501529485019487945091830191612cfb565b915050612ce694506020925060ff191682840152151560051b8201013880612cd8565b60005b838110612d615750506000910152565b8181015183820152602001612d51565b90602091612d8a81518092818552858086019101612d4e565b601f01601f1916010190565b602435906001600160a01b03821682036101ba57565b600435906001600160a01b03821682036101ba57565b81601f820112156101ba5780359067ffffffffffffffff82116106895760405192612df7601f8401601f191660200185612c86565b828452602083830101116101ba57816000926020809301838601378301015290565b906020908183528051828401526001600160a01b0382820151166040840152604081015192612e566101a0948560608401526101c0830190612d71565b93612eb8612ea4612e90612e7c606087015198601f19998a888303016080890152612d71565b6080870151898783030160a0880152612d71565b60a0860151888683030160c0870152612d71565b60c0850151878583030160e0860152612d71565b612f0360e08501516101009081860152850151610120908186015285015115156101409081860152850151151561016090818601528501519161018092888683030184870152612d71565b930151948284030191015281808451928381520193019160005b828110612f2b575050505090565b835185529381019392810192600101612f1d565b3360009081527f01ddc098da42acdf4176da08ec75800bc0fb2bce2be978b2037bcb0ae696651960205260409020547fedcc084d3dcd65a1f7f23c65c46722faca6953d28e43150a467cf43e5c3092389060ff1615612f9b5750565b604490604051907fe2517d3f0000000000000000000000000000000000000000000000000000000082523360048301526024820152fd5b3360009081527f7d7ffb7a348e1c6a02869081a26547b49160dd3df72d1d75a570eb9b698292ec60205260409020547fa49807205ce4d355092ef5a8a18f56e8913cf4a201fbe287825b095693c217759060ff1615612f9b5750565b80600052600060205260406000203360005260205260ff6040600020541615612f9b5750565b90600091808352826020526001600160a01b036040842092169182845260205260ff604084205416156000146130ce57808352826020526040832082845260205260408320600160ff198254161790557f2f8788117e7eff1d82e926ec794901d17c78024a50270940304540a733656f0d339380a4600190565b505090565b90600091808352826020526001600160a01b036040842092169182845260205260ff6040842054166000146130ce5780835282602052604083208284526020526040832060ff1981541690557ff6391f5c32d9c69d2a47ea670b442974b53935d1edc7fd64eb21e047a839171b339380a4600190565b60001981146131585760010190565b634e487b7160e01b600052601160045260246000fd5b818110613179575050565b6000815560010161316e565b60ff6001541661319157565b60046040517fd93c0665000000000000000000000000000000000000000000000000000000008152fd5b156131c257565b606460405162461bcd60e51b815260206004820152601660248201527f53747564656e7420646f6573206e6f74206578697374000000000000000000006044820152fd5b1561320d57565b606460405162461bcd60e51b815260206004820152601560248201527f53747564656e74206973206e6f742061637469766500000000000000000000006044820152fd5b1561325857565b606460405162461bcd60e51b815260206004820152601560248201527f436f7572736520646f6573206e6f7420657869737400000000000000000000006044820152fd5b156132a357565b606460405162461bcd60e51b815260206004820152601460248201527f436f75727365206973206e6f74206163746976650000000000000000000000006044820152fd5b604051906132f482612c4d565b8161018060009182815282602082015260609283604083015283808301528360808301528360a08301528360c08301528060e0830152806101008301528061012083015261014082015282610160820152015256fea2646970667358221220f0b9663822815abbae411ba5c1c492b0b711fc0421cbdc1950c2018f241e4e5464736f6c634300081400332f8788117e7eff1d82e926ec794901d17c78024a50270940304540a733656f0d","opcodes":"PUSH1 0x80 PUSH1 0x40 MSTORE CALLVALUE PUSH3 0x54 JUMPI PUSH1 0xFF NOT PUSH1 0x1 SLOAD AND PUSH1 0x1 SSTORE PUSH3 0x1F CALLER PUSH3 0x59 JUMP JUMPDEST POP PUSH3 0x2B CALLER PUSH3 0xD9 JUMP JUMPDEST POP PUSH3 0x37 CALLER PUSH3 0x17B JUMP JUMPDEST POP PUSH3 0x43 CALLER PUSH3 0x218 JUMP JUMPDEST POP PUSH1 0x40 MLOAD PUSH2 0x337F SWAP1 DUP2 PUSH3 0x2B6 DUP3 CODECOPY RETURN JUMPDEST PUSH1 0x0 DUP1 REVERT JUMPDEST PUSH1 0x1 PUSH1 0x1 PUSH1 0xA0 SHL SUB AND PUSH1 0x0 DUP2 DUP2 MSTORE PUSH32 0xAD3228B676F7D3CD4284A5443F17F1962B36E491B30A40B2405849E597BA5FB5 PUSH1 0x20 MSTORE PUSH1 0x40 DUP2 KECCAK256 SLOAD SWAP1 SWAP2 SWAP1 PUSH1 0xFF AND PUSH3 0xD5 JUMPI DUP2 DUP1 MSTORE DUP2 PUSH1 0x20 MSTORE PUSH1 0x40 DUP3 KECCAK256 DUP2 DUP4 MSTORE PUSH1 0x20 MSTORE PUSH1 0x40 DUP3 KECCAK256 PUSH1 0x1 PUSH1 0xFF NOT DUP3 SLOAD AND OR SWAP1 SSTORE CALLER SWAP2 PUSH1 0x0 DUP1 MLOAD PUSH1 0x20 PUSH3 0x3635 DUP4 CODECOPY DUP2 MLOAD SWAP2 MSTORE DUP2 DUP1 LOG4 PUSH1 0x1 SWAP1 JUMP JUMPDEST POP SWAP1 JUMP JUMPDEST PUSH1 0x1 PUSH1 0x1 PUSH1 0xA0 SHL SUB AND PUSH1 0x0 DUP2 DUP2 MSTORE PUSH32 0x7D7FFB7A348E1C6A02869081A26547B49160DD3DF72D1D75A570EB9B698292EC PUSH1 0x20 MSTORE PUSH1 0x40 DUP2 KECCAK256 SLOAD SWAP1 SWAP2 SWAP1 PUSH32 0xA49807205CE4D355092EF5A8A18F56E8913CF4A201FBE287825B095693C21775 SWAP1 PUSH1 0xFF AND PUSH3 0x176 JUMPI DUP1 DUP4 MSTORE DUP3 PUSH1 0x20 MSTORE PUSH1 0x40 DUP4 KECCAK256 DUP3 DUP5 MSTORE PUSH1 0x20 MSTORE PUSH1 0x40 DUP4 KECCAK256 PUSH1 0x1 PUSH1 0xFF NOT DUP3 SLOAD AND OR SWAP1 SSTORE PUSH1 0x0 DUP1 MLOAD PUSH1 0x20 PUSH3 0x3635 DUP4 CODECOPY DUP2 MLOAD SWAP2 MSTORE CALLER SWAP4 DUP1 LOG4 PUSH1 0x1 SWAP1 JUMP JUMPDEST POP POP SWAP1 JUMP JUMPDEST PUSH1 0x1 PUSH1 0x1 PUSH1 0xA0 SHL SUB AND PUSH1 0x0 DUP2 DUP2 MSTORE PUSH32 0x1DDC098DA42ACDF4176DA08EC75800BC0FB2BCE2BE978B2037BCB0AE6966519 PUSH1 0x20 MSTORE PUSH1 0x40 DUP2 KECCAK256 SLOAD SWAP1 SWAP2 SWAP1 PUSH32 0xEDCC084D3DCD65A1F7F23C65C46722FACA6953D28E43150A467CF43E5C309238 SWAP1 PUSH1 0xFF AND PUSH3 0x176 JUMPI DUP1 DUP4 MSTORE DUP3 PUSH1 0x20 MSTORE PUSH1 0x40 DUP4 KECCAK256 DUP3 DUP5 MSTORE PUSH1 0x20 MSTORE PUSH1 0x40 DUP4 KECCAK256 PUSH1 0x1 PUSH1 0xFF NOT DUP3 SLOAD AND OR SWAP1 SSTORE PUSH1 0x0 DUP1 MLOAD PUSH1 0x20 PUSH3 0x3635 DUP4 CODECOPY DUP2 MLOAD SWAP2 MSTORE CALLER SWAP4 DUP1 LOG4 PUSH1 0x1 SWAP1 JUMP JUMPDEST PUSH1 0x1 PUSH1 0x1 PUSH1 0xA0 SHL SUB AND PUSH1 0x0 DUP2 DUP2 MSTORE PUSH32 0x1DA0B5176DFE03406AF5A6EED66CA01DDA9B45AC4DA671C3FA379CB93717EF81 PUSH1 0x20 MSTORE PUSH1 0x40 DUP2 KECCAK256 SLOAD SWAP1 SWAP2 SWAP1 PUSH32 0xCE23C3E399818CFEE81A7AB0880F714E53D7672B08DF0FA62F2843416E1EA09 SWAP1 PUSH1 0xFF AND PUSH3 0x176 JUMPI DUP1 DUP4 MSTORE DUP3 PUSH1 0x20 MSTORE PUSH1 0x40 DUP4 KECCAK256 DUP3 DUP5 MSTORE PUSH1 0x20 MSTORE PUSH1 0x40 DUP4 KECCAK256 PUSH1 0x1 PUSH1 0xFF NOT DUP3 SLOAD AND OR SWAP1 SSTORE PUSH1 0x0 DUP1 MLOAD PUSH1 0x20 PUSH3 0x3635 DUP4 CODECOPY DUP2 MLOAD SWAP2 MSTORE CALLER SWAP4 DUP1 LOG4 PUSH1 0x1 SWAP1 JUMP INVALID PUSH1 0x80 DUP1 PUSH1 0x40 MSTORE PUSH1 0x4 CALLDATASIZE LT ISZERO PUSH2 0x13 JUMPI PUSH1 0x0 DUP1 REVERT JUMPDEST PUSH1 0x0 CALLDATALOAD PUSH1 0xE0 SHR SWAP1 DUP2 PUSH4 0x1FFC9A7 EQ PUSH2 0x2B58 JUMPI POP DUP1 PUSH4 0x6EAD22E EQ PUSH2 0x2A29 JUMPI DUP1 PUSH4 0xB91E28D EQ PUSH2 0x2892 JUMPI DUP1 PUSH4 0x148E0F06 EQ PUSH2 0x278A JUMPI DUP1 PUSH4 0x248A9CA3 EQ PUSH2 0x275B JUMPI DUP1 PUSH4 0x28BCB51A EQ PUSH2 0x273D JUMPI DUP1 PUSH4 0x2F2FF15D EQ PUSH2 0x26FE JUMPI DUP1 PUSH4 0x36568ABE EQ PUSH2 0x269F JUMPI DUP1 PUSH4 0x3F4BA83A EQ PUSH2 0x261D JUMPI DUP1 PUSH4 0x5C975ABB EQ PUSH2 0x25FA JUMPI DUP1 PUSH4 0x5D5AA72E EQ PUSH2 0x1ECE JUMPI DUP1 PUSH4 0x642F9163 EQ PUSH2 0x1D9A JUMPI DUP1 PUSH4 0x6EA2F53C EQ PUSH2 0x892 JUMPI DUP1 PUSH4 0x75B238FC EQ PUSH2 0x1D5F JUMPI DUP1 PUSH4 0x8456CB59 EQ PUSH2 0x1D06 JUMPI DUP1 PUSH4 0x86C34415 EQ PUSH2 0x1CCC JUMPI DUP1 PUSH4 0x91AAC065 EQ PUSH2 0x19C0 JUMPI DUP1 PUSH4 0x91D14854 EQ PUSH2 0x1972 JUMPI DUP1 PUSH4 0x92EDE6D0 EQ PUSH2 0xE1F JUMPI DUP1 PUSH4 0x96F979D2 EQ PUSH2 0xD3B JUMPI DUP1 PUSH4 0x9F3DA5CC EQ PUSH2 0xB8E JUMPI DUP1 PUSH4 0xA018CBB1 EQ PUSH2 0x93F JUMPI DUP1 PUSH4 0xA217FDDF EQ PUSH2 0x923 JUMPI DUP1 PUSH4 0xAC85495D EQ PUSH2 0x8D1 JUMPI DUP1 PUSH4 0xB8B2E42C EQ PUSH2 0x892 JUMPI DUP1 PUSH4 0xBFFA52E9 EQ PUSH2 0x30B JUMPI DUP1 PUSH4 0xD4CBA21C EQ PUSH2 0x2ED JUMPI DUP1 PUSH4 0xD547741F EQ PUSH2 0x2AC JUMPI DUP1 PUSH4 0xE7705DB6 EQ PUSH2 0x271 JUMPI DUP1 PUSH4 0xF3D4EFA6 EQ PUSH2 0x20F JUMPI DUP1 PUSH4 0xF6370C9E EQ PUSH2 0x1BF JUMPI PUSH4 0xF68E9553 EQ PUSH2 0x17F JUMPI PUSH1 0x0 DUP1 REVERT JUMPDEST CALLVALUE PUSH2 0x1BA JUMPI PUSH1 0x0 CALLDATASIZE PUSH1 0x3 NOT ADD SLT PUSH2 0x1BA JUMPI PUSH1 0x20 PUSH1 0x40 MLOAD PUSH32 0xEDCC084D3DCD65A1F7F23C65C46722FACA6953D28E43150A467CF43E5C309238 DUP2 MSTORE RETURN JUMPDEST PUSH1 0x0 DUP1 REVERT JUMPDEST CALLVALUE PUSH2 0x1BA JUMPI PUSH1 0x20 CALLDATASIZE PUSH1 0x3 NOT ADD SLT PUSH2 0x1BA JUMPI PUSH1 0x4 CALLDATALOAD PUSH2 0x1DB PUSH2 0x2FD2 JUMP JUMPDEST DUP1 PUSH1 0x0 MSTORE PUSH1 0x4 PUSH1 0x20 MSTORE PUSH2 0x1F4 PUSH1 0x40 PUSH1 0x0 KECCAK256 SLOAD ISZERO ISZERO PUSH2 0x31BB JUMP JUMPDEST PUSH1 0x0 SWAP1 DUP2 MSTORE PUSH1 0x4 PUSH1 0x20 MSTORE PUSH1 0x40 SWAP1 KECCAK256 PUSH1 0x9 ADD DUP1 SLOAD PUSH1 0xFF NOT AND SWAP1 SSTORE STOP JUMPDEST CALLVALUE PUSH2 0x1BA JUMPI PUSH1 0x20 CALLDATASIZE PUSH1 0x3 NOT ADD SLT PUSH2 0x1BA JUMPI PUSH1 0x4 CALLDATALOAD PUSH8 0xFFFFFFFFFFFFFFFF DUP2 GT PUSH2 0x1BA JUMPI PUSH1 0xFF PUSH2 0x25B PUSH1 0x20 PUSH2 0x248 DUP2 SWAP5 CALLDATASIZE SWAP1 PUSH1 0x4 ADD PUSH2 0x2DC2 JUMP JUMPDEST DUP2 PUSH1 0x40 MLOAD SWAP4 DUP3 DUP6 DUP1 SWAP5 MLOAD SWAP4 DUP5 SWAP3 ADD PUSH2 0x2D4E JUMP JUMPDEST DUP2 ADD PUSH1 0x7 DUP2 MSTORE SUB ADD SWAP1 KECCAK256 SLOAD AND PUSH1 0x40 MLOAD SWAP1 ISZERO ISZERO DUP2 MSTORE RETURN JUMPDEST CALLVALUE PUSH2 0x1BA JUMPI PUSH1 0x0 CALLDATASIZE PUSH1 0x3 NOT ADD SLT PUSH2 0x1BA JUMPI PUSH1 0x20 PUSH1 0x40 MLOAD PUSH32 0xCE23C3E399818CFEE81A7AB0880F714E53D7672B08DF0FA62F2843416E1EA09 DUP2 MSTORE RETURN JUMPDEST CALLVALUE PUSH2 0x1BA JUMPI PUSH1 0x40 CALLDATASIZE PUSH1 0x3 NOT ADD SLT PUSH2 0x1BA JUMPI PUSH2 0x2EB PUSH1 0x4 CALLDATALOAD PUSH2 0x2CB PUSH2 0x2D96 JUMP JUMPDEST SWAP1 DUP1 PUSH1 0x0 MSTORE PUSH1 0x0 PUSH1 0x20 MSTORE PUSH2 0x2E6 PUSH1 0x1 PUSH1 0x40 PUSH1 0x0 KECCAK256 ADD SLOAD PUSH2 0x302E JUMP JUMPDEST PUSH2 0x30D3 JUMP JUMPDEST STOP JUMPDEST CALLVALUE PUSH2 0x1BA JUMPI PUSH1 0x0 CALLDATASIZE PUSH1 0x3 NOT ADD SLT PUSH2 0x1BA JUMPI PUSH1 0x20 PUSH1 0x3 SLOAD PUSH1 0x40 MLOAD SWAP1 DUP2 MSTORE RETURN JUMPDEST CALLVALUE PUSH2 0x1BA JUMPI PUSH1 0xA0 CALLDATASIZE PUSH1 0x3 NOT ADD SLT PUSH2 0x1BA JUMPI PUSH1 0x24 CALLDATALOAD PUSH8 0xFFFFFFFFFFFFFFFF DUP2 GT PUSH2 0x1BA JUMPI PUSH2 0x33C SWAP1 CALLDATASIZE SWAP1 PUSH1 0x4 ADD PUSH2 0x2DC2 JUMP JUMPDEST PUSH1 0x44 CALLDATALOAD PUSH8 0xFFFFFFFFFFFFFFFF DUP2 GT PUSH2 0x1BA JUMPI PUSH2 0x35C SWAP1 CALLDATASIZE SWAP1 PUSH1 0x4 ADD PUSH2 0x2DC2 JUMP JUMPDEST PUSH1 0x64 CALLDATALOAD PUSH8 0xFFFFFFFFFFFFFFFF DUP2 GT PUSH2 0x1BA JUMPI PUSH2 0x37C SWAP1 CALLDATASIZE SWAP1 PUSH1 0x4 ADD PUSH2 0x2DC2 JUMP JUMPDEST SWAP2 PUSH1 0x84 CALLDATALOAD PUSH8 0xFFFFFFFFFFFFFFFF DUP2 GT PUSH2 0x1BA JUMPI PUSH2 0x39D SWAP1 CALLDATASIZE SWAP1 PUSH1 0x4 ADD PUSH2 0x2DC2 JUMP JUMPDEST SWAP2 PUSH2 0x3A6 PUSH2 0x2F3F JUMP JUMPDEST PUSH1 0x4 CALLDATALOAD PUSH1 0x0 MSTORE PUSH1 0x4 PUSH1 0x20 MSTORE PUSH2 0x3C1 PUSH1 0x40 PUSH1 0x0 KECCAK256 SLOAD ISZERO ISZERO PUSH2 0x31BB JUMP JUMPDEST PUSH1 0x4 CALLDATALOAD PUSH1 0x0 MSTORE PUSH1 0x4 PUSH1 0x20 MSTORE PUSH2 0x3E0 PUSH1 0xFF PUSH1 0x9 PUSH1 0x40 PUSH1 0x0 KECCAK256 ADD SLOAD AND PUSH2 0x3206 JUMP JUMPDEST PUSH1 0x4 CALLDATALOAD PUSH1 0x0 MSTORE PUSH1 0x4 PUSH1 0x20 MSTORE PUSH1 0x3 PUSH1 0x40 PUSH1 0x0 KECCAK256 ADD DUP3 MLOAD PUSH8 0xFFFFFFFFFFFFFFFF DUP2 GT PUSH2 0x689 JUMPI PUSH2 0x40E DUP3 SLOAD PUSH2 0x2BF6 JUMP JUMPDEST PUSH1 0x1F DUP2 GT PUSH2 0x860 JUMPI JUMPDEST POP DUP1 PUSH1 0x20 PUSH1 0x1F DUP3 GT PUSH1 0x1 EQ PUSH2 0x7F9 JUMPI PUSH1 0x0 SWAP2 PUSH2 0x7EE JUMPI JUMPDEST POP DUP2 PUSH1 0x1 SHL SWAP2 PUSH1 0x0 NOT SWAP1 PUSH1 0x3 SHL SHR NOT AND OR SWAP1 SSTORE JUMPDEST PUSH1 0x4 CALLDATALOAD PUSH1 0x0 MSTORE PUSH1 0x4 PUSH1 0x20 MSTORE PUSH1 0x4 PUSH1 0x40 PUSH1 0x0 KECCAK256 ADD SWAP1 DUP1 MLOAD SWAP1 PUSH8 0xFFFFFFFFFFFFFFFF DUP3 GT PUSH2 0x689 JUMPI DUP2 SWAP1 PUSH2 0x474 DUP5 SLOAD PUSH2 0x2BF6 JUMP JUMPDEST PUSH1 0x1F DUP2 GT PUSH2 0x7BC JUMPI JUMPDEST POP PUSH1 0x20 SWAP1 PUSH1 0x1F DUP4 GT PUSH1 0x1 EQ PUSH2 0x750 JUMPI PUSH1 0x0 SWAP3 PUSH2 0x745 JUMPI JUMPDEST POP POP DUP2 PUSH1 0x1 SHL SWAP2 PUSH1 0x0 NOT SWAP1 PUSH1 0x3 SHL SHR NOT AND OR SWAP1 SSTORE JUMPDEST PUSH1 0x4 CALLDATALOAD PUSH1 0x0 MSTORE PUSH1 0x4 PUSH1 0x20 MSTORE PUSH1 0x5 PUSH1 0x40 PUSH1 0x0 KECCAK256 ADD DUP4 MLOAD PUSH8 0xFFFFFFFFFFFFFFFF DUP2 GT PUSH2 0x689 JUMPI PUSH2 0x4D7 DUP3 SLOAD PUSH2 0x2BF6 JUMP JUMPDEST PUSH1 0x1F DUP2 GT PUSH2 0x713 JUMPI JUMPDEST POP PUSH1 0x20 PUSH1 0x1F DUP3 GT PUSH1 0x1 EQ PUSH2 0x6AA JUMPI DUP2 SWAP3 SWAP4 SWAP5 SWAP6 PUSH1 0x0 SWAP3 PUSH2 0x69F JUMPI JUMPDEST POP POP DUP2 PUSH1 0x1 SHL SWAP2 PUSH1 0x0 NOT SWAP1 PUSH1 0x3 SHL SHR NOT AND OR SWAP1 SSTORE JUMPDEST PUSH1 0x4 CALLDATALOAD PUSH1 0x0 MSTORE PUSH1 0x4 PUSH1 0x20 MSTORE PUSH1 0x6 PUSH1 0x40 PUSH1 0x0 KECCAK256 ADD DUP3 MLOAD PUSH8 0xFFFFFFFFFFFFFFFF DUP2 GT PUSH2 0x689 JUMPI PUSH2 0x53E DUP3 SLOAD PUSH2 0x2BF6 JUMP JUMPDEST PUSH1 0x1F DUP2 GT PUSH2 0x64C JUMPI JUMPDEST POP PUSH1 0x20 PUSH1 0x1F DUP3 GT PUSH1 0x1 EQ PUSH2 0x5E6 JUMPI DUP2 SWAP3 SWAP4 SWAP5 PUSH1 0x0 SWAP3 PUSH2 0x5DB JUMPI JUMPDEST POP POP DUP2 PUSH1 0x1 SHL SWAP2 PUSH1 0x0 NOT SWAP1 PUSH1 0x3 SHL SHR NOT AND OR SWAP1 SSTORE JUMPDEST PUSH1 0x4 CALLDATALOAD PUSH1 0x0 MSTORE PUSH1 0x4 PUSH1 0x20 MSTORE PUSH1 0x1 PUSH1 0x1 PUSH1 0xA0 SHL SUB PUSH1 0x1 PUSH1 0x40 PUSH1 0x0 KECCAK256 ADD SLOAD AND SWAP1 PUSH32 0x50F59DACC19443D580036DD74415769B3AF3C3BCB4753259015F4A4B137632EB PUSH2 0x5CA PUSH1 0x40 MLOAD SWAP3 PUSH1 0x40 DUP5 MSTORE PUSH1 0x40 DUP5 ADD SWAP1 PUSH2 0x2D71 JUMP JUMPDEST SWAP2 TIMESTAMP PUSH1 0x20 DUP3 ADD MSTORE DUP1 PUSH1 0x4 CALLDATALOAD SWAP4 SUB SWAP1 LOG3 STOP JUMPDEST ADD MLOAD SWAP1 POP DUP5 DUP1 PUSH2 0x561 JUMP JUMPDEST PUSH1 0x1F NOT DUP3 AND SWAP1 DUP4 PUSH1 0x0 MSTORE PUSH1 0x20 PUSH1 0x0 KECCAK256 SWAP2 PUSH1 0x0 JUMPDEST DUP2 DUP2 LT PUSH2 0x634 JUMPI POP SWAP6 DUP4 PUSH1 0x1 SWAP6 SWAP7 SWAP8 LT PUSH2 0x61B JUMPI JUMPDEST POP POP POP DUP2 SHL ADD SWAP1 SSTORE PUSH2 0x576 JUMP JUMPDEST ADD MLOAD PUSH1 0x0 NOT PUSH1 0xF8 DUP5 PUSH1 0x3 SHL AND SHR NOT AND SWAP1 SSTORE DUP5 DUP1 DUP1 PUSH2 0x60E JUMP JUMPDEST SWAP2 SWAP3 PUSH1 0x20 PUSH1 0x1 DUP2 SWAP3 DUP7 DUP12 ADD MLOAD DUP2 SSTORE ADD SWAP5 ADD SWAP3 ADD PUSH2 0x5F9 JUMP JUMPDEST PUSH2 0x679 SWAP1 DUP4 PUSH1 0x0 MSTORE PUSH1 0x20 PUSH1 0x0 KECCAK256 PUSH1 0x1F DUP5 ADD PUSH1 0x5 SHR DUP2 ADD SWAP2 PUSH1 0x20 DUP6 LT PUSH2 0x67F JUMPI JUMPDEST PUSH1 0x1F ADD PUSH1 0x5 SHR ADD SWAP1 PUSH2 0x316E JUMP JUMPDEST DUP5 PUSH2 0x547 JUMP JUMPDEST SWAP1 SWAP2 POP DUP2 SWAP1 PUSH2 0x66C JUMP JUMPDEST PUSH4 0x4E487B71 PUSH1 0xE0 SHL PUSH1 0x0 MSTORE PUSH1 0x41 PUSH1 0x4 MSTORE PUSH1 0x24 PUSH1 0x0 REVERT JUMPDEST ADD MLOAD SWAP1 POP DUP6 DUP1 PUSH2 0x4FB JUMP JUMPDEST DUP3 PUSH1 0x0 MSTORE PUSH1 0x20 PUSH1 0x0 KECCAK256 SWAP1 PUSH1 0x0 JUMPDEST PUSH1 0x1F NOT DUP5 AND DUP2 LT PUSH2 0x6FB JUMPI POP PUSH1 0x1 SWAP4 SWAP5 SWAP6 SWAP7 DUP4 PUSH1 0x1F NOT DUP2 AND LT PUSH2 0x6E2 JUMPI JUMPDEST POP POP POP DUP2 SHL ADD SWAP1 SSTORE PUSH2 0x510 JUMP JUMPDEST ADD MLOAD PUSH1 0x0 NOT PUSH1 0xF8 DUP5 PUSH1 0x3 SHL AND SHR NOT AND SWAP1 SSTORE DUP6 DUP1 DUP1 PUSH2 0x6D5 JUMP JUMPDEST SWAP1 SWAP2 PUSH1 0x20 PUSH1 0x1 DUP2 SWAP3 DUP6 DUP12 ADD MLOAD DUP2 SSTORE ADD SWAP4 ADD SWAP2 ADD PUSH2 0x6B7 JUMP JUMPDEST PUSH2 0x73F SWAP1 DUP4 PUSH1 0x0 MSTORE PUSH1 0x20 PUSH1 0x0 KECCAK256 PUSH1 0x1F DUP5 ADD PUSH1 0x5 SHR DUP2 ADD SWAP2 PUSH1 0x20 DUP6 LT PUSH2 0x67F JUMPI PUSH1 0x1F ADD PUSH1 0x5 SHR ADD SWAP1 PUSH2 0x316E JUMP JUMPDEST DUP6 PUSH2 0x4E0 JUMP JUMPDEST ADD MLOAD SWAP1 POP DUP7 DUP1 PUSH2 0x494 JUMP JUMPDEST SWAP3 POP DUP4 PUSH1 0x0 MSTORE PUSH1 0x20 PUSH1 0x0 KECCAK256 SWAP1 PUSH1 0x0 SWAP4 JUMPDEST PUSH1 0x1F NOT DUP5 AND DUP6 LT PUSH2 0x7A1 JUMPI PUSH1 0x1 SWAP5 POP DUP4 PUSH1 0x1F NOT DUP2 AND LT PUSH2 0x788 JUMPI JUMPDEST POP POP POP DUP2 SHL ADD SWAP1 SSTORE PUSH2 0x4A9 JUMP JUMPDEST ADD MLOAD PUSH1 0x0 NOT PUSH1 0xF8 DUP5 PUSH1 0x3 SHL AND SHR NOT AND SWAP1 SSTORE DUP7 DUP1 DUP1 PUSH2 0x77B JUMP JUMPDEST DUP2 DUP2 ADD MLOAD DUP4 SSTORE PUSH1 0x20 SWAP5 DUP6 ADD SWAP5 PUSH1 0x1 SWAP1 SWAP4 ADD SWAP3 SWAP1 SWAP2 ADD SWAP1 PUSH2 0x760 JUMP JUMPDEST PUSH2 0x7E8 SWAP1 DUP6 PUSH1 0x0 MSTORE PUSH1 0x20 PUSH1 0x0 KECCAK256 PUSH1 0x1F DUP6 ADD PUSH1 0x5 SHR DUP2 ADD SWAP2 PUSH1 0x20 DUP7 LT PUSH2 0x67F JUMPI PUSH1 0x1F ADD PUSH1 0x5 SHR ADD SWAP1 PUSH2 0x316E JUMP JUMPDEST DUP8 PUSH2 0x47D JUMP JUMPDEST SWAP1 POP DUP5 ADD MLOAD DUP8 PUSH2 0x42E JUMP JUMPDEST SWAP2 POP DUP3 PUSH1 0x0 MSTORE PUSH1 0x20 PUSH1 0x0 KECCAK256 PUSH1 0x0 SWAP3 JUMPDEST PUSH1 0x1F NOT DUP4 AND DUP5 LT PUSH2 0x848 JUMPI PUSH1 0x1 SWAP4 POP DUP3 PUSH1 0x1F NOT DUP2 AND LT PUSH2 0x82F JUMPI JUMPDEST POP POP DUP2 SHL ADD SWAP1 SSTORE PUSH2 0x442 JUMP JUMPDEST DUP7 ADD MLOAD PUSH1 0x0 NOT PUSH1 0xF8 DUP5 PUSH1 0x3 SHL AND SHR NOT AND SWAP1 SSTORE DUP8 DUP1 PUSH2 0x823 JUMP JUMPDEST DUP7 DUP2 ADD MLOAD DUP3 SSTORE PUSH1 0x20 SWAP4 DUP5 ADD SWAP4 PUSH1 0x1 SWAP1 SWAP3 ADD SWAP2 ADD PUSH2 0x808 JUMP JUMPDEST PUSH2 0x88C SWAP1 DUP4 PUSH1 0x0 MSTORE PUSH1 0x20 PUSH1 0x0 KECCAK256 PUSH1 0x1F DUP5 ADD PUSH1 0x5 SHR DUP2 ADD SWAP2 PUSH1 0x20 DUP6 LT PUSH2 0x67F JUMPI PUSH1 0x1F ADD PUSH1 0x5 SHR ADD SWAP1 PUSH2 0x316E JUMP JUMPDEST DUP7 PUSH2 0x417 JUMP JUMPDEST CALLVALUE PUSH2 0x1BA JUMPI PUSH1 0x20 CALLDATASIZE PUSH1 0x3 NOT ADD SLT PUSH2 0x1BA JUMPI PUSH1 0x1 PUSH1 0x1 PUSH1 0xA0 SHL SUB PUSH2 0x8B3 PUSH2 0x2DAC JUMP JUMPDEST AND PUSH1 0x0 MSTORE PUSH1 0x8 PUSH1 0x20 MSTORE PUSH1 0x20 PUSH1 0xFF PUSH1 0x40 PUSH1 0x0 KECCAK256 SLOAD AND PUSH1 0x40 MLOAD SWAP1 ISZERO ISZERO DUP2 MSTORE RETURN JUMPDEST CALLVALUE PUSH2 0x1BA JUMPI PUSH1 0x20 CALLDATASIZE PUSH1 0x3 NOT ADD SLT PUSH2 0x1BA JUMPI PUSH1 0x4 CALLDATALOAD PUSH2 0x8ED PUSH2 0x2FD2 JUMP JUMPDEST DUP1 PUSH1 0x0 MSTORE PUSH1 0x6 PUSH1 0x20 MSTORE PUSH2 0x906 PUSH1 0x40 PUSH1 0x0 KECCAK256 SLOAD ISZERO ISZERO PUSH2 0x3251 JUMP JUMPDEST PUSH1 0x0 MSTORE PUSH1 0x6 PUSH1 0x20 MSTORE PUSH1 0x6 PUSH1 0x40 PUSH1 0x0 KECCAK256 ADD PUSH1 0xFF NOT DUP2 SLOAD AND SWAP1 SSTORE PUSH1 0x0 DUP1 RETURN JUMPDEST CALLVALUE PUSH2 0x1BA JUMPI PUSH1 0x0 CALLDATASIZE PUSH1 0x3 NOT ADD SLT PUSH2 0x1BA JUMPI PUSH1 0x20 PUSH1 0x40 MLOAD PUSH1 0x0 DUP2 MSTORE RETURN JUMPDEST CALLVALUE PUSH2 0x1BA JUMPI PUSH1 0x40 CALLDATASIZE PUSH1 0x3 NOT ADD SLT PUSH2 0x1BA JUMPI PUSH1 0x4 CALLDATALOAD PUSH8 0xFFFFFFFFFFFFFFFF PUSH1 0x24 CALLDATALOAD DUP2 DUP2 GT PUSH2 0x1BA JUMPI PUSH2 0x974 SWAP1 CALLDATASIZE SWAP1 PUSH1 0x4 ADD PUSH2 0x2DC2 JUMP JUMPDEST SWAP1 PUSH2 0x97D PUSH2 0x2F3F JUMP JUMPDEST DUP3 PUSH1 0x0 MSTORE PUSH1 0x20 SWAP1 PUSH1 0x4 DUP3 MSTORE PUSH2 0x998 PUSH1 0x40 PUSH1 0x0 KECCAK256 SLOAD ISZERO ISZERO PUSH2 0x31BB JUMP JUMPDEST DUP4 PUSH1 0x0 MSTORE PUSH1 0x4 DUP3 MSTORE PUSH2 0x9B4 PUSH1 0xFF PUSH1 0x9 PUSH1 0x40 PUSH1 0x0 KECCAK256 ADD SLOAD AND PUSH2 0x3206 JUMP JUMPDEST DUP4 PUSH1 0x0 MSTORE PUSH1 0x4 DUP3 MSTORE PUSH1 0xFF PUSH1 0x9 PUSH1 0x40 PUSH1 0x0 KECCAK256 ADD SLOAD PUSH1 0x8 SHR AND PUSH2 0xB4A JUMPI DUP4 PUSH1 0x0 MSTORE PUSH1 0x4 DUP3 MSTORE PUSH1 0xA PUSH1 0x40 PUSH1 0x0 KECCAK256 PUSH1 0x9 DUP2 ADD PUSH2 0x100 PUSH2 0xFF00 NOT DUP3 SLOAD AND OR SWAP1 SSTORE TIMESTAMP PUSH1 0x8 DUP3 ADD SSTORE ADD SWAP1 DUP4 MLOAD SWAP1 DUP2 GT PUSH2 0x689 JUMPI PUSH2 0xA0A DUP3 SLOAD PUSH2 0x2BF6 JUMP JUMPDEST PUSH1 0x1F DUP2 GT PUSH2 0xB1A JUMPI JUMPDEST POP DUP3 PUSH1 0x1F DUP3 GT PUSH1 0x1 EQ PUSH2 0xA90 JUMPI SWAP2 DUP2 PUSH2 0xA7A SWAP5 SWAP3 PUSH32 0xD26D1E209668F18F2BC4F6535740073250E7155628A6A3BB93EF26DDE2EDD155 SWAP7 SWAP5 PUSH1 0x0 SWAP2 PUSH2 0xA85 JUMPI JUMPDEST POP DUP2 PUSH1 0x1 SHL SWAP2 PUSH1 0x0 NOT SWAP1 PUSH1 0x3 SHL SHR NOT AND OR SWAP1 SSTORE JUMPDEST PUSH1 0x40 MLOAD SWAP3 DUP4 SWAP3 PUSH1 0x40 DUP5 MSTORE PUSH1 0x40 DUP5 ADD SWAP1 PUSH2 0x2D71 JUMP JUMPDEST SWAP1 TIMESTAMP SWAP1 DUP4 ADD MSTORE SUB SWAP1 LOG2 STOP JUMPDEST SWAP1 POP DUP5 ADD MLOAD DUP9 PUSH2 0xA52 JUMP JUMPDEST PUSH1 0x1F NOT DUP3 AND SWAP1 DUP4 PUSH1 0x0 MSTORE DUP5 PUSH1 0x0 KECCAK256 SWAP2 PUSH1 0x0 JUMPDEST DUP2 DUP2 LT PUSH2 0xB03 JUMPI POP SWAP3 PUSH32 0xD26D1E209668F18F2BC4F6535740073250E7155628A6A3BB93EF26DDE2EDD155 SWAP7 SWAP5 SWAP3 PUSH1 0x1 SWAP3 DUP3 PUSH2 0xA7A SWAP9 SWAP7 LT PUSH2 0xAEA JUMPI JUMPDEST POP POP DUP2 SHL ADD SWAP1 SSTORE PUSH2 0xA66 JUMP JUMPDEST DUP7 ADD MLOAD PUSH1 0x0 NOT PUSH1 0xF8 DUP5 PUSH1 0x3 SHL AND SHR NOT AND SWAP1 SSTORE DUP9 DUP1 PUSH2 0xADE JUMP JUMPDEST SWAP2 SWAP3 DUP7 PUSH1 0x1 DUP2 SWAP3 DUP7 DUP12 ADD MLOAD DUP2 SSTORE ADD SWAP5 ADD SWAP3 ADD PUSH2 0xAA2 JUMP JUMPDEST PUSH2 0xB44 SWAP1 DUP4 PUSH1 0x0 MSTORE DUP5 PUSH1 0x0 KECCAK256 PUSH1 0x1F DUP5 ADD PUSH1 0x5 SHR DUP2 ADD SWAP2 DUP7 DUP6 LT PUSH2 0x67F JUMPI PUSH1 0x1F ADD PUSH1 0x5 SHR ADD SWAP1 PUSH2 0x316E JUMP JUMPDEST DUP6 PUSH2 0xA13 JUMP JUMPDEST PUSH1 0x64 DUP3 PUSH1 0x40 MLOAD SWAP1 PUSH3 0x461BCD PUSH1 0xE5 SHL DUP3 MSTORE PUSH1 0x4 DUP3 ADD MSTORE PUSH1 0x19 PUSH1 0x24 DUP3 ADD MSTORE PUSH32 0x53747564656E7420616C72656164792067726164756174656400000000000000 PUSH1 0x44 DUP3 ADD MSTORE REVERT JUMPDEST CALLVALUE PUSH2 0x1BA JUMPI PUSH1 0x20 DUP1 PUSH1 0x3 NOT CALLDATASIZE ADD SLT PUSH2 0x1BA JUMPI PUSH2 0xBA8 PUSH2 0x2DAC JUMP JUMPDEST SWAP1 PUSH2 0xBB1 PUSH2 0x32E7 JUMP JUMPDEST POP PUSH1 0x1 PUSH1 0x1 PUSH1 0xA0 SHL SUB DUP1 SWAP3 AND PUSH1 0x0 MSTORE PUSH1 0x5 DUP2 MSTORE PUSH1 0x40 PUSH1 0x0 KECCAK256 SLOAD DUP1 ISZERO PUSH2 0xCF7 JUMPI DUP3 SWAP1 PUSH1 0x0 MSTORE PUSH1 0x4 DUP3 MSTORE PUSH1 0x40 PUSH1 0x0 KECCAK256 SWAP1 PUSH1 0xB PUSH1 0x40 MLOAD SWAP3 PUSH2 0xBEE DUP5 PUSH2 0x2C4D JUMP JUMPDEST DUP1 SLOAD DUP5 MSTORE PUSH1 0x1 SWAP3 DUP4 DUP3 ADD SLOAD AND DUP6 DUP6 ADD MSTORE PUSH2 0xC0A PUSH1 0x2 DUP3 ADD PUSH2 0x2CA8 JUMP JUMPDEST PUSH1 0x40 DUP6 ADD MSTORE PUSH2 0xC1B PUSH1 0x3 DUP3 ADD PUSH2 0x2CA8 JUMP JUMPDEST PUSH1 0x60 DUP6 ADD MSTORE PUSH2 0xC2C PUSH1 0x4 DUP3 ADD PUSH2 0x2CA8 JUMP JUMPDEST PUSH1 0x80 DUP6 ADD MSTORE PUSH2 0xC3D PUSH1 0x5 DUP3 ADD PUSH2 0x2CA8 JUMP JUMPDEST PUSH1 0xA0 DUP6 ADD MSTORE PUSH2 0xC4E PUSH1 0x6 DUP3 ADD PUSH2 0x2CA8 JUMP JUMPDEST PUSH1 0xC0 DUP6 ADD MSTORE PUSH1 0x7 DUP2 ADD SLOAD PUSH1 0xE0 DUP6 ADD MSTORE PUSH1 0x8 DUP2 ADD SLOAD PUSH2 0x100 DUP6 ADD MSTORE PUSH1 0xFF PUSH1 0x9 DUP3 ADD SLOAD DUP2 DUP2 AND ISZERO ISZERO PUSH2 0x120 DUP8 ADD MSTORE PUSH1 0x8 SHR AND ISZERO ISZERO PUSH2 0x140 DUP6 ADD MSTORE PUSH2 0xC92 PUSH1 0xA DUP3 ADD PUSH2 0x2CA8 JUMP JUMPDEST PUSH2 0x160 DUP6 ADD MSTORE ADD SWAP3 PUSH1 0x40 MLOAD SWAP2 DUP3 DUP3 DUP7 SLOAD SWAP2 DUP3 DUP2 MSTORE ADD SWAP6 PUSH1 0x0 MSTORE DUP3 PUSH1 0x0 KECCAK256 SWAP3 PUSH1 0x0 SWAP1 JUMPDEST DUP3 DUP3 LT PUSH2 0xCE2 JUMPI PUSH2 0xCDE DUP8 DUP8 PUSH2 0xCCC DUP2 DUP13 SUB DUP3 PUSH2 0x2C86 JUMP JUMPDEST PUSH2 0x180 DUP3 ADD MSTORE PUSH1 0x40 MLOAD SWAP2 DUP3 SWAP2 DUP3 PUSH2 0x2E19 JUMP JUMPDEST SUB SWAP1 RETURN JUMPDEST DUP5 SLOAD DUP9 MSTORE SWAP7 DUP8 ADD SWAP7 SWAP4 DUP4 ADD SWAP4 SWAP1 DUP4 ADD SWAP1 PUSH2 0xCB4 JUMP JUMPDEST PUSH1 0x64 DUP3 PUSH1 0x40 MLOAD SWAP1 PUSH3 0x461BCD PUSH1 0xE5 SHL DUP3 MSTORE PUSH1 0x4 DUP3 ADD MSTORE PUSH1 0x11 PUSH1 0x24 DUP3 ADD MSTORE PUSH32 0x53747564656E74206E6F7420666F756E64000000000000000000000000000000 PUSH1 0x44 DUP3 ADD MSTORE REVERT JUMPDEST CALLVALUE PUSH2 0x1BA JUMPI PUSH1 0x20 CALLDATASIZE PUSH1 0x3 NOT ADD SLT PUSH2 0x1BA JUMPI PUSH1 0x4 CALLDATALOAD PUSH1 0x0 MSTORE PUSH1 0x6 PUSH1 0x20 MSTORE PUSH1 0x40 PUSH1 0x0 KECCAK256 DUP1 SLOAD PUSH2 0xD6A PUSH1 0x1 DUP4 ADD PUSH2 0x2CA8 JUMP JUMPDEST SWAP2 PUSH2 0xD77 PUSH1 0x2 DUP3 ADD PUSH2 0x2CA8 JUMP JUMPDEST PUSH2 0xD83 PUSH1 0x3 DUP4 ADD PUSH2 0x2CA8 JUMP JUMPDEST SWAP2 PUSH2 0xE08 PUSH1 0x4 DUP3 ADD SLOAD PUSH2 0xD98 PUSH1 0x5 DUP5 ADD PUSH2 0x2CA8 JUMP JUMPDEST PUSH2 0xDF5 PUSH1 0xFF PUSH1 0x6 DUP7 ADD SLOAD AND SWAP7 PUSH2 0xDE7 PUSH1 0x1 PUSH1 0x1 PUSH1 0xA0 SHL SUB PUSH1 0x8 PUSH1 0x7 DUP10 ADD SLOAD SWAP9 ADD SLOAD AND SWAP8 PUSH2 0xDD9 PUSH1 0x40 MLOAD SWAP13 DUP14 SWAP13 DUP14 MSTORE PUSH1 0x20 DUP14 PUSH2 0x120 SWAP2 DUP3 SWAP2 ADD MSTORE DUP14 ADD SWAP1 PUSH2 0x2D71 JUMP JUMPDEST SWAP1 DUP12 DUP3 SUB PUSH1 0x40 DUP14 ADD MSTORE PUSH2 0x2D71 JUMP JUMPDEST SWAP1 DUP10 DUP3 SUB PUSH1 0x60 DUP12 ADD MSTORE PUSH2 0x2D71 JUMP JUMPDEST SWAP2 PUSH1 0x80 DUP9 ADD MSTORE DUP7 DUP3 SUB PUSH1 0xA0 DUP9 ADD MSTORE PUSH2 0x2D71 JUMP JUMPDEST SWAP3 ISZERO ISZERO PUSH1 0xC0 DUP6 ADD MSTORE PUSH1 0xE0 DUP5 ADD MSTORE PUSH2 0x100 DUP4 ADD MSTORE SUB SWAP1 RETURN JUMPDEST CALLVALUE PUSH2 0x1BA JUMPI PUSH1 0xC0 CALLDATASIZE PUSH1 0x3 NOT ADD SLT PUSH2 0x1BA JUMPI PUSH2 0xE38 PUSH2 0x2DAC JUMP JUMPDEST PUSH1 0x24 CALLDATALOAD PUSH8 0xFFFFFFFFFFFFFFFF DUP2 GT PUSH2 0x1BA JUMPI PUSH2 0xE58 SWAP1 CALLDATASIZE SWAP1 PUSH1 0x4 ADD PUSH2 0x2DC2 JUMP JUMPDEST SWAP1 PUSH1 0x44 CALLDATALOAD PUSH8 0xFFFFFFFFFFFFFFFF DUP2 GT PUSH2 0x1BA JUMPI PUSH2 0xE79 SWAP1 CALLDATASIZE SWAP1 PUSH1 0x4 ADD PUSH2 0x2DC2 JUMP JUMPDEST SWAP1 PUSH1 0x64 CALLDATALOAD PUSH8 0xFFFFFFFFFFFFFFFF DUP2 GT PUSH2 0x1BA JUMPI PUSH2 0xE9A SWAP1 CALLDATASIZE SWAP1 PUSH1 0x4 ADD PUSH2 0x2DC2 JUMP JUMPDEST SWAP3 PUSH1 0x84 CALLDATALOAD PUSH8 0xFFFFFFFFFFFFFFFF DUP2 GT PUSH2 0x1BA JUMPI PUSH2 0xEBB SWAP1 CALLDATASIZE SWAP1 PUSH1 0x4 ADD PUSH2 0x2DC2 JUMP JUMPDEST SWAP3 PUSH1 0xA4 CALLDATALOAD PUSH8 0xFFFFFFFFFFFFFFFF DUP2 GT PUSH2 0x1BA JUMPI PUSH2 0xEDC SWAP1 CALLDATASIZE SWAP1 PUSH1 0x4 ADD PUSH2 0x2DC2 JUMP JUMPDEST SWAP4 PUSH2 0xEE5 PUSH2 0x2F3F JUMP JUMPDEST PUSH2 0xEED PUSH2 0x3185 JUMP JUMPDEST PUSH1 0x1 PUSH1 0x1 PUSH1 0xA0 SHL SUB DUP5 AND ISZERO PUSH2 0x192E JUMPI DUP3 MLOAD ISZERO PUSH2 0x18EA JUMPI DUP2 MLOAD ISZERO PUSH2 0x18A6 JUMPI PUSH1 0xFF PUSH1 0x40 MLOAD PUSH1 0x20 DUP2 DUP7 MLOAD PUSH2 0xF21 DUP2 DUP4 DUP6 DUP12 ADD PUSH2 0x2D4E JUMP JUMPDEST DUP2 ADD PUSH1 0x7 DUP2 MSTORE SUB ADD SWAP1 KECCAK256 SLOAD AND PUSH2 0x1862 JUMPI PUSH1 0x1 PUSH1 0x1 PUSH1 0xA0 SHL SUB DUP5 AND PUSH1 0x0 MSTORE PUSH1 0x8 PUSH1 0x20 MSTORE PUSH1 0xFF PUSH1 0x40 PUSH1 0x0 KECCAK256 SLOAD AND PUSH2 0x181E JUMPI PUSH2 0xF5B PUSH1 0x2 SLOAD PUSH2 0x3149 JUMP JUMPDEST SWAP5 DUP6 PUSH1 0x2 SSTORE PUSH1 0x40 MLOAD SWAP2 PUSH2 0xF6D DUP4 PUSH2 0x2C6A JUMP JUMPDEST PUSH1 0x0 DUP4 MSTORE PUSH1 0x40 MLOAD SWAP8 PUSH2 0xF7E DUP10 PUSH2 0x2C4D JUMP JUMPDEST DUP8 DUP10 MSTORE PUSH1 0x1 PUSH1 0x1 PUSH1 0xA0 SHL SUB DUP8 AND PUSH1 0x20 DUP11 ADD MSTORE DUP6 PUSH1 0x40 DUP11 ADD MSTORE DUP5 PUSH1 0x60 DUP11 ADD MSTORE PUSH1 0x80 DUP10 ADD MSTORE PUSH1 0xA0 DUP9 ADD MSTORE PUSH1 0xC0 DUP8 ADD MSTORE TIMESTAMP PUSH1 0xE0 DUP8 ADD MSTORE PUSH1 0x0 PUSH2 0x100 DUP8 ADD MSTORE PUSH1 0x1 PUSH2 0x120 DUP8 ADD MSTORE PUSH1 0x0 PUSH2 0x140 DUP8 ADD MSTORE PUSH1 0x40 MLOAD PUSH2 0xFD5 DUP2 PUSH2 0x2C6A JUMP JUMPDEST PUSH1 0x0 DUP2 MSTORE PUSH2 0x160 DUP8 ADD MSTORE PUSH2 0x180 DUP7 ADD MSTORE DUP4 PUSH1 0x0 MSTORE PUSH1 0x4 PUSH1 0x20 MSTORE PUSH1 0x40 PUSH1 0x0 KECCAK256 DUP6 MLOAD DUP2 SSTORE PUSH1 0x1 DUP2 ADD PUSH1 0x1 PUSH1 0x1 PUSH1 0xA0 SHL SUB PUSH1 0x20 DUP9 ADD MLOAD AND PUSH20 0xFFFFFFFFFFFFFFFFFFFFFFFFFFFFFFFFFFFFFFFF NOT DUP3 SLOAD AND OR SWAP1 SSTORE PUSH1 0x40 DUP7 ADD MLOAD DUP1 MLOAD SWAP1 PUSH8 0xFFFFFFFFFFFFFFFF DUP3 GT PUSH2 0x689 JUMPI DUP2 SWAP1 PUSH2 0x104B PUSH1 0x2 DUP6 ADD SLOAD PUSH2 0x2BF6 JUMP JUMPDEST PUSH1 0x1F DUP2 GT PUSH2 0x17E9 JUMPI JUMPDEST POP PUSH1 0x20 SWAP1 PUSH1 0x1F DUP4 GT PUSH1 0x1 EQ PUSH2 0x1777 JUMPI PUSH1 0x0 SWAP3 PUSH2 0x176C JUMPI JUMPDEST POP POP DUP2 PUSH1 0x1 SHL SWAP2 PUSH1 0x0 NOT SWAP1 PUSH1 0x3 SHL SHR NOT AND OR PUSH1 0x2 DUP3 ADD SSTORE JUMPDEST PUSH1 0x60 DUP7 ADD MLOAD DUP1 MLOAD SWAP1 PUSH8 0xFFFFFFFFFFFFFFFF DUP3 GT PUSH2 0x689 JUMPI DUP2 SWAP1 PUSH2 0x10A9 PUSH1 0x3 DUP6 ADD SLOAD PUSH2 0x2BF6 JUMP JUMPDEST PUSH1 0x1F DUP2 GT PUSH2 0x1737 JUMPI JUMPDEST POP PUSH1 0x20 SWAP1 PUSH1 0x1F DUP4 GT PUSH1 0x1 EQ PUSH2 0x16C5 JUMPI PUSH1 0x0 SWAP3 PUSH2 0x16BA JUMPI JUMPDEST POP POP DUP2 PUSH1 0x1 SHL SWAP2 PUSH1 0x0 NOT SWAP1 PUSH1 0x3 SHL SHR NOT AND OR PUSH1 0x3 DUP3 ADD SSTORE JUMPDEST PUSH1 0x80 DUP7 ADD MLOAD DUP1 MLOAD SWAP1 PUSH8 0xFFFFFFFFFFFFFFFF DUP3 GT PUSH2 0x689 JUMPI DUP2 SWAP1 PUSH2 0x1107 PUSH1 0x4 DUP6 ADD SLOAD PUSH2 0x2BF6 JUMP JUMPDEST PUSH1 0x1F DUP2 GT PUSH2 0x1685 JUMPI JUMPDEST POP PUSH1 0x20 SWAP1 PUSH1 0x1F DUP4 GT PUSH1 0x1 EQ PUSH2 0x1613 JUMPI PUSH1 0x0 SWAP3 PUSH2 0x1608 JUMPI JUMPDEST POP POP DUP2 PUSH1 0x1 SHL SWAP2 PUSH1 0x0 NOT SWAP1 PUSH1 0x3 SHL SHR NOT AND OR PUSH1 0x4 DUP3 ADD SSTORE JUMPDEST PUSH1 0xA0 DUP7 ADD MLOAD DUP1 MLOAD SWAP1 PUSH8 0xFFFFFFFFFFFFFFFF DUP3 GT PUSH2 0x689 JUMPI DUP2 SWAP1 PUSH2 0x1165 PUSH1 0x5 DUP6 ADD SLOAD PUSH2 0x2BF6 JUMP JUMPDEST PUSH1 0x1F DUP2 GT PUSH2 0x15D3 JUMPI JUMPDEST POP PUSH1 0x20 SWAP1 PUSH1 0x1F DUP4 GT PUSH1 0x1 EQ PUSH2 0x1561 JUMPI PUSH1 0x0 SWAP3 PUSH2 0x1556 JUMPI JUMPDEST POP POP DUP2 PUSH1 0x1 SHL SWAP2 PUSH1 0x0 NOT SWAP1 PUSH1 0x3 SHL SHR NOT AND OR PUSH1 0x5 DUP3 ADD SSTORE JUMPDEST PUSH1 0xC0 DUP7 ADD MLOAD DUP1 MLOAD SWAP1 PUSH8 0xFFFFFFFFFFFFFFFF DUP3 GT PUSH2 0x689 JUMPI DUP2 SWAP1 PUSH2 0x11C3 PUSH1 0x6 DUP6 ADD SLOAD PUSH2 0x2BF6 JUMP JUMPDEST PUSH1 0x1F DUP2 GT PUSH2 0x1521 JUMPI JUMPDEST POP PUSH1 0x20 SWAP1 PUSH1 0x1F DUP4 GT PUSH1 0x1 EQ PUSH2 0x14AF JUMPI PUSH1 0x0 SWAP3 PUSH2 0x14A4 JUMPI JUMPDEST POP POP DUP2 PUSH1 0x1 SHL SWAP2 PUSH1 0x0 NOT SWAP1 PUSH1 0x3 SHL SHR NOT AND OR PUSH1 0x6 DUP3 ADD SSTORE JUMPDEST PUSH1 0xE0 DUP7 ADD MLOAD PUSH1 0x7 DUP3 ADD SSTORE PUSH2 0x100 DUP7 ADD MLOAD PUSH1 0x8 DUP3 ADD SSTORE PUSH1 0x9 DUP2 ADD PUSH2 0x1231 PUSH2 0x120 DUP9 ADD MLOAD ISZERO ISZERO DUP3 SWAP1 PUSH1 0xFF DUP1 NOT DUP4 SLOAD AND SWAP2 ISZERO ISZERO AND OR SWAP1 SSTORE JUMP JUMPDEST PUSH2 0x140 DUP8 ADD MLOAD DUP2 SLOAD PUSH2 0xFF00 NOT AND SWAP1 ISZERO ISZERO PUSH1 0x8 SHL PUSH2 0xFF00 AND OR SWAP1 SSTORE PUSH2 0x160 DUP7 ADD MLOAD DUP1 MLOAD SWAP1 PUSH8 0xFFFFFFFFFFFFFFFF DUP3 GT PUSH2 0x689 JUMPI PUSH2 0x1270 PUSH1 0xA DUP5 ADD SLOAD PUSH2 0x2BF6 JUMP JUMPDEST PUSH1 0x1F DUP2 GT PUSH2 0x146F JUMPI JUMPDEST POP PUSH1 0x20 SWAP1 PUSH1 0x1F DUP4 GT PUSH1 0x1 EQ PUSH2 0x13F9 JUMPI SWAP2 DUP1 PUSH2 0x180 SWAP5 SWAP3 PUSH1 0xB SWAP5 PUSH1 0x0 SWAP3 PUSH2 0x13EE JUMPI JUMPDEST POP POP DUP2 PUSH1 0x1 SHL SWAP2 PUSH1 0x0 NOT SWAP1 PUSH1 0x3 SHL SHR NOT AND OR PUSH1 0xA DUP3 ADD SSTORE JUMPDEST ADD SWAP6 ADD MLOAD DUP1 MLOAD SWAP1 PUSH8 0xFFFFFFFFFFFFFFFF DUP3 GT PUSH2 0x689 JUMPI PUSH9 0x10000000000000000 DUP3 GT PUSH2 0x689 JUMPI PUSH1 0x20 SWAP1 DUP8 SLOAD DUP4 DUP10 SSTORE DUP1 DUP5 LT PUSH2 0x13D1 JUMPI JUMPDEST POP ADD SWAP6 PUSH1 0x0 MSTORE PUSH1 0x20 PUSH1 0x0 KECCAK256 SWAP6 PUSH1 0x0 JUMPDEST DUP3 DUP2 LT PUSH2 0x13BD JUMPI PUSH1 0x20 DUP8 DUP8 DUP2 PUSH32 0x911873DCC1FB88F7451F9DD9C6ED2CC2AD92AD8EB19FE599A5B526B910645781 PUSH2 0x139C DUP11 PUSH1 0x1 PUSH1 0x1 PUSH1 0xA0 SHL SUB PUSH2 0x13A9 DUP13 DUP3 DUP9 AND PUSH1 0x0 MSTORE PUSH1 0x5 DUP11 MSTORE DUP7 PUSH1 0x40 PUSH1 0x0 KECCAK256 SSTORE PUSH1 0x40 MLOAD DUP11 DUP2 DUP7 MLOAD PUSH2 0x1359 DUP2 DUP4 DUP6 DUP12 ADD PUSH2 0x2D4E JUMP JUMPDEST DUP2 ADD PUSH1 0x7 DUP2 MSTORE SUB ADD SWAP1 KECCAK256 PUSH1 0xFF NOT SWAP1 PUSH1 0x1 DUP3 DUP3 SLOAD AND OR SWAP1 SSTORE DUP4 DUP10 AND PUSH1 0x0 MSTORE PUSH1 0x8 DUP12 MSTORE PUSH1 0x1 PUSH1 0x40 PUSH1 0x0 KECCAK256 SWAP2 DUP3 SLOAD AND OR SWAP1 SSTORE PUSH1 0x40 MLOAD SWAP5 DUP6 SWAP5 PUSH1 0x60 DUP7 MSTORE PUSH1 0x60 DUP7 ADD SWAP1 PUSH2 0x2D71 JUMP JUMPDEST SWAP1 DUP5 DUP3 SUB DUP12 DUP7 ADD MSTORE PUSH2 0x2D71 JUMP JUMPDEST SWAP6 TIMESTAMP PUSH1 0x40 DUP5 ADD MSTORE AND SWAP5 SUB SWAP1 LOG3 PUSH1 0x40 MLOAD SWAP1 DUP2 MSTORE RETURN JUMPDEST PUSH1 0x1 SWAP1 PUSH1 0x20 DUP4 MLOAD SWAP4 ADD SWAP3 DUP2 DUP11 ADD SSTORE ADD PUSH2 0x12F7 JUMP JUMPDEST PUSH2 0x13E8 SWAP1 DUP10 PUSH1 0x0 MSTORE DUP5 DUP5 PUSH1 0x0 KECCAK256 SWAP2 DUP3 ADD SWAP2 ADD PUSH2 0x316E JUMP JUMPDEST DUP9 PUSH2 0x12E8 JUMP JUMPDEST ADD MLOAD SWAP1 POP DUP11 DUP1 PUSH2 0x129A JUMP JUMPDEST SWAP1 PUSH1 0xA DUP5 ADD PUSH1 0x0 MSTORE PUSH1 0x20 PUSH1 0x0 KECCAK256 SWAP2 PUSH1 0x0 JUMPDEST PUSH1 0x1F NOT DUP6 AND DUP2 LT PUSH2 0x1457 JUMPI POP SWAP3 PUSH2 0x180 SWAP5 SWAP3 PUSH1 0x1 SWAP3 PUSH1 0xB SWAP6 DUP4 PUSH1 0x1F NOT DUP2 AND LT PUSH2 0x143E JUMPI JUMPDEST POP POP POP DUP2 SHL ADD PUSH1 0xA DUP3 ADD SSTORE PUSH2 0x12B2 JUMP JUMPDEST ADD MLOAD PUSH1 0x0 NOT PUSH1 0xF8 DUP5 PUSH1 0x3 SHL AND SHR NOT AND SWAP1 SSTORE DUP11 DUP1 DUP1 PUSH2 0x142E JUMP JUMPDEST SWAP2 SWAP3 PUSH1 0x20 PUSH1 0x1 DUP2 SWAP3 DUP7 DUP6 ADD MLOAD DUP2 SSTORE ADD SWAP5 ADD SWAP3 ADD PUSH2 0x140A JUMP JUMPDEST PUSH2 0x149E SWAP1 PUSH1 0xA DUP6 ADD PUSH1 0x0 MSTORE PUSH1 0x20 PUSH1 0x0 KECCAK256 PUSH1 0x1F DUP6 ADD PUSH1 0x5 SHR DUP2 ADD SWAP2 PUSH1 0x20 DUP7 LT PUSH2 0x67F JUMPI PUSH1 0x1F ADD PUSH1 0x5 SHR ADD SWAP1 PUSH2 0x316E JUMP JUMPDEST DUP9 PUSH2 0x1279 JUMP JUMPDEST ADD MLOAD SWAP1 POP DUP9 DUP1 PUSH2 0x11E3 JUMP JUMPDEST SWAP3 POP PUSH1 0x6 DUP5 ADD PUSH1 0x0 MSTORE PUSH1 0x20 PUSH1 0x0 KECCAK256 SWAP1 PUSH1 0x0 SWAP4 JUMPDEST PUSH1 0x1F NOT DUP5 AND DUP6 LT PUSH2 0x1506 JUMPI PUSH1 0x1 SWAP5 POP DUP4 PUSH1 0x1F NOT DUP2 AND LT PUSH2 0x14ED JUMPI JUMPDEST POP POP POP DUP2 SHL ADD PUSH1 0x6 DUP3 ADD SSTORE PUSH2 0x11FB JUMP JUMPDEST ADD MLOAD PUSH1 0x0 NOT PUSH1 0xF8 DUP5 PUSH1 0x3 SHL AND SHR NOT AND SWAP1 SSTORE DUP9 DUP1 DUP1 PUSH2 0x14DD JUMP JUMPDEST DUP2 DUP2 ADD MLOAD DUP4 SSTORE PUSH1 0x20 SWAP5 DUP6 ADD SWAP5 PUSH1 0x1 SWAP1 SWAP4 ADD SWAP3 SWAP1 SWAP2 ADD SWAP1 PUSH2 0x14C2 JUMP JUMPDEST PUSH2 0x1550 SWAP1 PUSH1 0x6 DUP7 ADD PUSH1 0x0 MSTORE PUSH1 0x20 PUSH1 0x0 KECCAK256 PUSH1 0x1F DUP6 ADD PUSH1 0x5 SHR DUP2 ADD SWAP2 PUSH1 0x20 DUP7 LT PUSH2 0x67F JUMPI PUSH1 0x1F ADD PUSH1 0x5 SHR ADD SWAP1 PUSH2 0x316E JUMP JUMPDEST DUP10 PUSH2 0x11CC JUMP JUMPDEST ADD MLOAD SWAP1 POP DUP9 DUP1 PUSH2 0x1185 JUMP JUMPDEST SWAP3 POP PUSH1 0x5 DUP5 ADD PUSH1 0x0 MSTORE PUSH1 0x20 PUSH1 0x0 KECCAK256 SWAP1 PUSH1 0x0 SWAP4 JUMPDEST PUSH1 0x1F NOT DUP5 AND DUP6 LT PUSH2 0x15B8 JUMPI PUSH1 0x1 SWAP5 POP DUP4 PUSH1 0x1F NOT DUP2 AND LT PUSH2 0x159F JUMPI JUMPDEST POP POP POP DUP2 SHL ADD PUSH1 0x5 DUP3 ADD SSTORE PUSH2 0x119D JUMP JUMPDEST ADD MLOAD PUSH1 0x0 NOT PUSH1 0xF8 DUP5 PUSH1 0x3 SHL AND SHR NOT AND SWAP1 SSTORE DUP9 DUP1 DUP1 PUSH2 0x158F JUMP JUMPDEST DUP2 DUP2 ADD MLOAD DUP4 SSTORE PUSH1 0x20 SWAP5 DUP6 ADD SWAP5 PUSH1 0x1 SWAP1 SWAP4 ADD SWAP3 SWAP1 SWAP2 ADD SWAP1 PUSH2 0x1574 JUMP JUMPDEST PUSH2 0x1602 SWAP1 PUSH1 0x5 DUP7 ADD PUSH1 0x0 MSTORE PUSH1 0x20 PUSH1 0x0 KECCAK256 PUSH1 0x1F DUP6 ADD PUSH1 0x5 SHR DUP2 ADD SWAP2 PUSH1 0x20 DUP7 LT PUSH2 0x67F JUMPI PUSH1 0x1F ADD PUSH1 0x5 SHR ADD SWAP1 PUSH2 0x316E JUMP JUMPDEST DUP10 PUSH2 0x116E JUMP JUMPDEST ADD MLOAD SWAP1 POP DUP9 DUP1 PUSH2 0x1127 JUMP JUMPDEST SWAP3 POP PUSH1 0x4 DUP5 ADD PUSH1 0x0 MSTORE PUSH1 0x20 PUSH1 0x0 KECCAK256 SWAP1 PUSH1 0x0 SWAP4 JUMPDEST PUSH1 0x1F NOT DUP5 AND DUP6 LT PUSH2 0x166A JUMPI PUSH1 0x1 SWAP5 POP DUP4 PUSH1 0x1F NOT DUP2 AND LT PUSH2 0x1651 JUMPI JUMPDEST POP POP POP DUP2 SHL ADD PUSH1 0x4 DUP3 ADD SSTORE PUSH2 0x113F JUMP JUMPDEST ADD MLOAD PUSH1 0x0 NOT PUSH1 0xF8 DUP5 PUSH1 0x3 SHL AND SHR NOT AND SWAP1 SSTORE DUP9 DUP1 DUP1 PUSH2 0x1641 JUMP JUMPDEST DUP2 DUP2 ADD MLOAD DUP4 SSTORE PUSH1 0x20 SWAP5 DUP6 ADD SWAP5 PUSH1 0x1 SWAP1 SWAP4 ADD SWAP3 SWAP1 SWAP2 ADD SWAP1 PUSH2 0x1626 JUMP JUMPDEST PUSH2 0x16B4 SWAP1 PUSH1 0x4 DUP7 ADD PUSH1 0x0 MSTORE PUSH1 0x20 PUSH1 0x0 KECCAK256 PUSH1 0x1F DUP6 ADD PUSH1 0x5 SHR DUP2 ADD SWAP2 PUSH1 0x20 DUP7 LT PUSH2 0x67F JUMPI PUSH1 0x1F ADD PUSH1 0x5 SHR ADD SWAP1 PUSH2 0x316E JUMP JUMPDEST DUP10 PUSH2 0x1110 JUMP JUMPDEST ADD MLOAD SWAP1 POP DUP9 DUP1 PUSH2 0x10C9 JUMP JUMPDEST SWAP3 POP PUSH1 0x3 DUP5 ADD PUSH1 0x0 MSTORE PUSH1 0x20 PUSH1 0x0 KECCAK256 SWAP1 PUSH1 0x0 SWAP4 JUMPDEST PUSH1 0x1F NOT DUP5 AND DUP6 LT PUSH2 0x171C JUMPI PUSH1 0x1 SWAP5 POP DUP4 PUSH1 0x1F NOT DUP2 AND LT PUSH2 0x1703 JUMPI JUMPDEST POP POP POP DUP2 SHL ADD PUSH1 0x3 DUP3 ADD SSTORE PUSH2 0x10E1 JUMP JUMPDEST ADD MLOAD PUSH1 0x0 NOT PUSH1 0xF8 DUP5 PUSH1 0x3 SHL AND SHR NOT AND SWAP1 SSTORE DUP9 DUP1 DUP1 PUSH2 0x16F3 JUMP JUMPDEST DUP2 DUP2 ADD MLOAD DUP4 SSTORE PUSH1 0x20 SWAP5 DUP6 ADD SWAP5 PUSH1 0x1 SWAP1 SWAP4 ADD SWAP3 SWAP1 SWAP2 ADD SWAP1 PUSH2 0x16D8 JUMP JUMPDEST PUSH2 0x1766 SWAP1 PUSH1 0x3 DUP7 ADD PUSH1 0x0 MSTORE PUSH1 0x20 PUSH1 0x0 KECCAK256 PUSH1 0x1F DUP6 ADD PUSH1 0x5 SHR DUP2 ADD SWAP2 PUSH1 0x20 DUP7 LT PUSH2 0x67F JUMPI PUSH1 0x1F ADD PUSH1 0x5 SHR ADD SWAP1 PUSH2 0x316E JUMP JUMPDEST DUP10 PUSH2 0x10B2 JUMP JUMPDEST ADD MLOAD SWAP1 POP DUP9 DUP1 PUSH2 0x106B JUMP JUMPDEST SWAP3 POP PUSH1 0x2 DUP5 ADD PUSH1 0x0 MSTORE PUSH1 0x20 PUSH1 0x0 KECCAK256 SWAP1 PUSH1 0x0 SWAP4 JUMPDEST PUSH1 0x1F NOT DUP5 AND DUP6 LT PUSH2 0x17CE JUMPI PUSH1 0x1 SWAP5 POP DUP4 PUSH1 0x1F NOT DUP2 AND LT PUSH2 0x17B5 JUMPI JUMPDEST POP POP POP DUP2 SHL ADD PUSH1 0x2 DUP3 ADD SSTORE PUSH2 0x1083 JUMP JUMPDEST ADD MLOAD PUSH1 0x0 NOT PUSH1 0xF8 DUP5 PUSH1 0x3 SHL AND SHR NOT AND SWAP1 SSTORE DUP9 DUP1 DUP1 PUSH2 0x17A5 JUMP JUMPDEST DUP2 DUP2 ADD MLOAD DUP4 SSTORE PUSH1 0x20 SWAP5 DUP6 ADD SWAP5 PUSH1 0x1 SWAP1 SWAP4 ADD SWAP3 SWAP1 SWAP2 ADD SWAP1 PUSH2 0x178A JUMP JUMPDEST PUSH2 0x1818 SWAP1 PUSH1 0x2 DUP7 ADD PUSH1 0x0 MSTORE PUSH1 0x20 PUSH1 0x0 KECCAK256 PUSH1 0x1F DUP6 ADD PUSH1 0x5 SHR DUP2 ADD SWAP2 PUSH1 0x20 DUP7 LT PUSH2 0x67F JUMPI PUSH1 0x1F ADD PUSH1 0x5 SHR ADD SWAP1 PUSH2 0x316E JUMP JUMPDEST DUP10 PUSH2 0x1054 JUMP JUMPDEST PUSH1 0x64 PUSH1 0x40 MLOAD PUSH3 0x461BCD PUSH1 0xE5 SHL DUP2 MSTORE PUSH1 0x20 PUSH1 0x4 DUP3 ADD MSTORE PUSH1 0x1A PUSH1 0x24 DUP3 ADD MSTORE PUSH32 0x4164647265737320616C72656164792072656769737465726564000000000000 PUSH1 0x44 DUP3 ADD MSTORE REVERT JUMPDEST PUSH1 0x64 PUSH1 0x40 MLOAD PUSH3 0x461BCD PUSH1 0xE5 SHL DUP2 MSTORE PUSH1 0x20 PUSH1 0x4 DUP3 ADD MSTORE PUSH1 0x1D PUSH1 0x24 DUP3 ADD MSTORE PUSH32 0x53747564656E74206E756D62657220616C726561647920657869737473000000 PUSH1 0x44 DUP3 ADD MSTORE REVERT JUMPDEST PUSH1 0x64 PUSH1 0x40 MLOAD PUSH3 0x461BCD PUSH1 0xE5 SHL DUP2 MSTORE PUSH1 0x20 PUSH1 0x4 DUP3 ADD MSTORE PUSH1 0x14 PUSH1 0x24 DUP3 ADD MSTORE PUSH32 0x4E616D652063616E6E6F7420626520656D707479000000000000000000000000 PUSH1 0x44 DUP3 ADD MSTORE REVERT JUMPDEST PUSH1 0x64 PUSH1 0x40 MLOAD PUSH3 0x461BCD PUSH1 0xE5 SHL DUP2 MSTORE PUSH1 0x20 PUSH1 0x4 DUP3 ADD MSTORE PUSH1 0x1E PUSH1 0x24 DUP3 ADD MSTORE PUSH32 0x53747564656E74206E756D6265722063616E6E6F7420626520656D7074790000 PUSH1 0x44 DUP3 ADD MSTORE REVERT JUMPDEST PUSH1 0x64 PUSH1 0x40 MLOAD PUSH3 0x461BCD PUSH1 0xE5 SHL DUP2 MSTORE PUSH1 0x20 PUSH1 0x4 DUP3 ADD MSTORE PUSH1 0x17 PUSH1 0x24 DUP3 ADD MSTORE PUSH32 0x496E76616C69642073747564656E742061646472657373000000000000000000 PUSH1 0x44 DUP3 ADD MSTORE REVERT JUMPDEST CALLVALUE PUSH2 0x1BA JUMPI PUSH1 0x40 CALLDATASIZE PUSH1 0x3 NOT ADD SLT PUSH2 0x1BA JUMPI PUSH2 0x198B PUSH2 0x2D96 JUMP JUMPDEST PUSH1 0x4 CALLDATALOAD PUSH1 0x0 MSTORE PUSH1 0x0 PUSH1 0x20 MSTORE PUSH1 0x1 PUSH1 0x1 PUSH1 0xA0 SHL SUB PUSH1 0x40 PUSH1 0x0 KECCAK256 SWAP2 AND PUSH1 0x0 MSTORE PUSH1 0x20 MSTORE PUSH1 0x20 PUSH1 0xFF PUSH1 0x40 PUSH1 0x0 KECCAK256 SLOAD AND PUSH1 0x40 MLOAD SWAP1 ISZERO ISZERO DUP2 MSTORE RETURN JUMPDEST CALLVALUE PUSH2 0x1BA JUMPI PUSH1 0x80 CALLDATASIZE PUSH1 0x3 NOT ADD SLT PUSH2 0x1BA JUMPI PUSH1 0x4 CALLDATALOAD PUSH8 0xFFFFFFFFFFFFFFFF PUSH1 0x24 CALLDATALOAD DUP2 DUP2 GT PUSH2 0x1BA JUMPI PUSH2 0x19F5 SWAP1 CALLDATASIZE SWAP1 PUSH1 0x4 ADD PUSH2 0x2DC2 JUMP JUMPDEST SWAP1 PUSH1 0x44 CALLDATALOAD DUP2 DUP2 GT PUSH2 0x1BA JUMPI PUSH2 0x1A0E SWAP1 CALLDATASIZE SWAP1 PUSH1 0x4 ADD PUSH2 0x2DC2 JUMP JUMPDEST PUSH1 0x64 CALLDATALOAD SWAP1 PUSH2 0x1A1A PUSH2 0x2F3F JUMP JUMPDEST DUP5 PUSH1 0x0 MSTORE PUSH1 0x6 SWAP1 PUSH1 0x20 SWAP4 DUP3 DUP6 MSTORE PUSH2 0x1A37 PUSH1 0x40 PUSH1 0x0 KECCAK256 SLOAD ISZERO ISZERO PUSH2 0x3251 JUMP JUMPDEST DUP7 PUSH1 0x0 MSTORE DUP3 DUP6 MSTORE PUSH2 0x1A51 PUSH1 0xFF DUP5 PUSH1 0x40 PUSH1 0x0 KECCAK256 ADD SLOAD AND PUSH2 0x329C JUMP JUMPDEST DUP7 PUSH1 0x0 MSTORE DUP3 DUP6 MSTORE PUSH1 0x2 PUSH1 0x40 PUSH1 0x0 KECCAK256 ADD DUP7 MLOAD SWAP1 DUP3 DUP3 GT PUSH2 0x689 JUMPI PUSH2 0x1A74 DUP2 SLOAD PUSH2 0x2BF6 JUMP JUMPDEST SWAP2 PUSH1 0x1F SWAP3 DUP4 DUP2 GT PUSH2 0x1C9E JUMPI JUMPDEST POP DUP1 DUP9 DUP5 DUP3 GT PUSH1 0x1 EQ PUSH2 0x1C3A JUMPI PUSH1 0x0 SWAP2 PUSH2 0x1C2F JUMPI JUMPDEST POP DUP2 PUSH1 0x1 SHL SWAP2 PUSH1 0x0 NOT SWAP1 PUSH1 0x3 SHL SHR NOT AND OR SWAP1 SSTORE JUMPDEST DUP8 PUSH1 0x0 MSTORE DUP4 DUP7 MSTORE PUSH1 0x3 PUSH1 0x40 PUSH1 0x0 KECCAK256 ADD SWAP3 DUP1 MLOAD SWAP3 DUP4 GT PUSH2 0x689 JUMPI PUSH2 0x1ACC DUP5 SLOAD PUSH2 0x2BF6 JUMP JUMPDEST DUP3 DUP2 GT PUSH2 0x1BF7 JUMPI JUMPDEST POP DUP7 SWAP2 DUP4 GT PUSH1 0x1 EQ PUSH2 0x1B68 JUMPI SWAP2 DUP1 PUSH32 0x26FE23CB4AA60E21978462CE5B13D99E63580EB14D7AE6AFCFE8E040304AB030 SWAP9 SWAP7 SWAP5 SWAP3 PUSH2 0x1B4E SWAP9 SWAP7 SWAP5 PUSH1 0x0 SWAP3 PUSH2 0x1B5D JUMPI JUMPDEST POP POP DUP2 PUSH1 0x1 SHL SWAP2 PUSH1 0x0 NOT SWAP1 PUSH1 0x3 SHL SHR NOT AND OR SWAP1 SSTORE JUMPDEST DUP7 PUSH1 0x0 MSTORE DUP3 MSTORE DUP1 PUSH1 0x4 PUSH1 0x40 PUSH1 0x0 KECCAK256 ADD SSTORE PUSH1 0x40 MLOAD SWAP4 DUP5 SWAP4 PUSH1 0x60 DUP6 MSTORE PUSH1 0x60 DUP6 ADD SWAP1 PUSH2 0x2D71 JUMP JUMPDEST SWAP2 DUP4 ADD MSTORE TIMESTAMP PUSH1 0x40 DUP4 ADD MSTORE SUB SWAP1 LOG2 STOP JUMPDEST ADD MLOAD SWAP1 POP DUP11 DUP1 PUSH2 0x1B15 JUMP JUMPDEST SWAP1 PUSH1 0x1F NOT DUP4 AND SWAP2 DUP5 PUSH1 0x0 MSTORE DUP8 PUSH1 0x0 KECCAK256 SWAP3 PUSH1 0x0 JUMPDEST DUP2 DUP2 LT PUSH2 0x1BE0 JUMPI POP SWAP3 PUSH1 0x1 SWAP3 DUP6 SWAP3 PUSH2 0x1B4E SWAP11 SWAP9 SWAP7 PUSH32 0x26FE23CB4AA60E21978462CE5B13D99E63580EB14D7AE6AFCFE8E040304AB030 SWAP13 SWAP11 SWAP9 SWAP7 LT PUSH2 0x1BC7 JUMPI JUMPDEST POP POP POP DUP2 SHL ADD SWAP1 SSTORE PUSH2 0x1B2A JUMP JUMPDEST ADD MLOAD PUSH1 0x0 NOT PUSH1 0xF8 DUP5 PUSH1 0x3 SHL AND SHR NOT AND SWAP1 SSTORE DUP11 DUP1 DUP1 PUSH2 0x1BBA JUMP JUMPDEST SWAP3 SWAP4 DUP10 PUSH1 0x1 DUP2 SWAP3 DUP8 DUP7 ADD MLOAD DUP2 SSTORE ADD SWAP6 ADD SWAP4 ADD PUSH2 0x1B7B JUMP JUMPDEST PUSH2 0x1C20 SWAP1 DUP6 PUSH1 0x0 MSTORE DUP9 PUSH1 0x0 KECCAK256 DUP5 DUP1 DUP8 ADD PUSH1 0x5 SHR DUP3 ADD SWAP3 DUP12 DUP9 LT PUSH2 0x1C26 JUMPI JUMPDEST ADD PUSH1 0x5 SHR ADD SWAP1 PUSH2 0x316E JUMP JUMPDEST DUP10 PUSH2 0x1AD4 JUMP JUMPDEST SWAP3 POP DUP2 SWAP3 PUSH2 0x1C15 JUMP JUMPDEST SWAP1 POP DUP10 ADD MLOAD DUP12 PUSH2 0x1A95 JUMP JUMPDEST PUSH1 0x0 DUP5 DUP2 MSTORE DUP11 DUP2 KECCAK256 SWAP3 POP PUSH1 0x1F NOT DUP5 AND SWAP1 JUMPDEST DUP12 DUP14 DUP4 DUP4 LT PUSH2 0x1C89 JUMPI POP POP POP SWAP1 DUP4 PUSH1 0x1 SWAP5 SWAP4 SWAP3 LT PUSH2 0x1C70 JUMPI JUMPDEST POP POP DUP2 SHL ADD SWAP1 SSTORE PUSH2 0x1AA9 JUMP JUMPDEST DUP12 ADD MLOAD PUSH1 0x0 NOT PUSH1 0xF8 DUP5 PUSH1 0x3 SHL AND SHR NOT AND SWAP1 SSTORE DUP12 DUP1 PUSH2 0x1C64 JUMP JUMPDEST DUP5 ADD MLOAD DUP6 SSTORE PUSH1 0x1 SWAP1 SWAP5 ADD SWAP4 SWAP3 DUP4 ADD SWAP3 ADD PUSH2 0x1C4B JUMP JUMPDEST PUSH2 0x1CC6 SWAP1 DUP4 PUSH1 0x0 MSTORE DUP10 PUSH1 0x0 KECCAK256 DUP6 DUP1 DUP6 ADD PUSH1 0x5 SHR DUP3 ADD SWAP3 DUP13 DUP7 LT PUSH2 0x1C26 JUMPI ADD PUSH1 0x5 SHR ADD SWAP1 PUSH2 0x316E JUMP JUMPDEST DUP11 PUSH2 0x1A80 JUMP JUMPDEST CALLVALUE PUSH2 0x1BA JUMPI PUSH1 0x20 CALLDATASIZE PUSH1 0x3 NOT ADD SLT PUSH2 0x1BA JUMPI PUSH1 0x1 PUSH1 0x1 PUSH1 0xA0 SHL SUB PUSH2 0x1CED PUSH2 0x2DAC JUMP JUMPDEST AND PUSH1 0x0 MSTORE PUSH1 0x5 PUSH1 0x20 MSTORE PUSH1 0x20 PUSH1 0x40 PUSH1 0x0 KECCAK256 SLOAD PUSH1 0x40 MLOAD SWAP1 DUP2 MSTORE RETURN JUMPDEST CALLVALUE PUSH2 0x1BA JUMPI PUSH1 0x0 CALLDATASIZE PUSH1 0x3 NOT ADD SLT PUSH2 0x1BA JUMPI PUSH2 0x1D1F PUSH2 0x2FD2 JUMP JUMPDEST PUSH2 0x1D27 PUSH2 0x3185 JUMP JUMPDEST PUSH1 0x1 PUSH1 0xFF NOT DUP2 SLOAD AND OR PUSH1 0x1 SSTORE PUSH32 0x62E78CEA01BEE320CD4E420270B5EA74000D11B0C9F74754EBDBFC544B05A258 PUSH1 0x20 PUSH1 0x40 MLOAD CALLER DUP2 MSTORE LOG1 STOP JUMPDEST CALLVALUE PUSH2 0x1BA JUMPI PUSH1 0x0 CALLDATASIZE PUSH1 0x3 NOT ADD SLT PUSH2 0x1BA JUMPI PUSH1 0x20 PUSH1 0x40 MLOAD PUSH32 0xA49807205CE4D355092EF5A8A18F56E8913CF4A201FBE287825B095693C21775 DUP2 MSTORE RETURN JUMPDEST CALLVALUE PUSH2 0x1BA JUMPI PUSH1 0x20 DUP1 PUSH1 0x3 NOT CALLDATASIZE ADD SLT PUSH2 0x1BA JUMPI PUSH2 0x1DB4 PUSH2 0x32E7 JUMP JUMPDEST POP PUSH1 0x4 CALLDATALOAD PUSH1 0x0 MSTORE PUSH1 0x4 DUP2 MSTORE PUSH1 0x40 PUSH1 0x0 KECCAK256 PUSH1 0x40 MLOAD SWAP1 PUSH2 0x1DD1 DUP3 PUSH2 0x2C4D JUMP JUMPDEST DUP1 SLOAD DUP3 MSTORE PUSH1 0xB PUSH1 0x1 SWAP2 PUSH1 0x1 PUSH1 0x1 PUSH1 0xA0 SHL SUB DUP4 DUP3 ADD SLOAD AND DUP6 DUP6 ADD MSTORE PUSH2 0x1DF7 PUSH1 0x2 DUP3 ADD PUSH2 0x2CA8 JUMP JUMPDEST PUSH1 0x40 DUP6 ADD MSTORE PUSH2 0x1E08 PUSH1 0x3 DUP3 ADD PUSH2 0x2CA8 JUMP JUMPDEST PUSH1 0x60 DUP6 ADD MSTORE PUSH2 0x1E19 PUSH1 0x4 DUP3 ADD PUSH2 0x2CA8 JUMP JUMPDEST PUSH1 0x80 DUP6 ADD MSTORE PUSH2 0x1E2A PUSH1 0x5 DUP3 ADD PUSH2 0x2CA8 JUMP JUMPDEST PUSH1 0xA0 DUP6 ADD MSTORE PUSH2 0x1E3B PUSH1 0x6 DUP3 ADD PUSH2 0x2CA8 JUMP JUMPDEST PUSH1 0xC0 DUP6 ADD MSTORE PUSH1 0x7 DUP2 ADD SLOAD PUSH1 0xE0 DUP6 ADD MSTORE PUSH1 0x8 DUP2 ADD SLOAD PUSH2 0x100 DUP6 ADD MSTORE PUSH1 0xFF PUSH1 0x9 DUP3 ADD SLOAD DUP2 DUP2 AND ISZERO ISZERO PUSH2 0x120 DUP8 ADD MSTORE PUSH1 0x8 SHR AND ISZERO ISZERO PUSH2 0x140 DUP6 ADD MSTORE PUSH2 0x1E7F PUSH1 0xA DUP3 ADD PUSH2 0x2CA8 JUMP JUMPDEST PUSH2 0x160 DUP6 ADD MSTORE ADD SWAP3 PUSH1 0x40 MLOAD SWAP2 DUP3 DUP3 DUP7 SLOAD SWAP2 DUP3 DUP2 MSTORE ADD SWAP6 PUSH1 0x0 MSTORE DUP3 PUSH1 0x0 KECCAK256 SWAP3 PUSH1 0x0 SWAP1 JUMPDEST DUP3 DUP3 LT PUSH2 0x1EB9 JUMPI PUSH2 0xCDE DUP8 DUP8 PUSH2 0xCCC DUP2 DUP13 SUB DUP3 PUSH2 0x2C86 JUMP JUMPDEST DUP5 SLOAD DUP9 MSTORE SWAP7 DUP8 ADD SWAP7 SWAP4 DUP4 ADD SWAP4 SWAP1 DUP4 ADD SWAP1 PUSH2 0x1EA1 JUMP JUMPDEST CALLVALUE PUSH2 0x1BA JUMPI PUSH1 0xA0 CALLDATASIZE PUSH1 0x3 NOT ADD SLT PUSH2 0x1BA JUMPI PUSH1 0x4 CALLDATALOAD PUSH8 0xFFFFFFFFFFFFFFFF DUP2 GT PUSH2 0x1BA JUMPI PUSH2 0x1EFF SWAP1 CALLDATASIZE SWAP1 PUSH1 0x4 ADD PUSH2 0x2DC2 JUMP JUMPDEST PUSH1 0x24 CALLDATALOAD PUSH8 0xFFFFFFFFFFFFFFFF DUP2 GT PUSH2 0x1BA JUMPI PUSH2 0x1F1F SWAP1 CALLDATASIZE SWAP1 PUSH1 0x4 ADD PUSH2 0x2DC2 JUMP JUMPDEST SWAP1 PUSH1 0x44 CALLDATALOAD PUSH8 0xFFFFFFFFFFFFFFFF DUP2 GT PUSH2 0x1BA JUMPI PUSH2 0x1F40 SWAP1 CALLDATASIZE SWAP1 PUSH1 0x4 ADD PUSH2 0x2DC2 JUMP JUMPDEST PUSH1 0x84 CALLDATALOAD PUSH8 0xFFFFFFFFFFFFFFFF DUP2 GT PUSH2 0x1BA JUMPI PUSH2 0x1F60 SWAP1 CALLDATASIZE SWAP1 PUSH1 0x4 ADD PUSH2 0x2DC2 JUMP JUMPDEST SWAP2 PUSH2 0x1F69 PUSH2 0x2F3F JUMP JUMPDEST PUSH2 0x1F71 PUSH2 0x3185 JUMP JUMPDEST DUP1 MLOAD ISZERO PUSH2 0x25B6 JUMPI DUP4 MLOAD ISZERO PUSH2 0x2572 JUMPI PUSH1 0x64 CALLDATALOAD ISZERO PUSH2 0x252E JUMPI PUSH2 0x1F92 PUSH1 0x3 SLOAD PUSH2 0x3149 JUMP JUMPDEST SWAP3 DUP4 PUSH1 0x3 SSTORE PUSH1 0x40 MLOAD SWAP3 PUSH2 0x1FA4 DUP5 PUSH2 0x2C30 JUMP JUMPDEST DUP5 DUP5 MSTORE DUP3 PUSH1 0x20 DUP6 ADD MSTORE DUP6 PUSH1 0x40 DUP6 ADD MSTORE PUSH1 0x60 DUP5 ADD MSTORE PUSH1 0x64 CALLDATALOAD PUSH1 0x80 DUP5 ADD MSTORE PUSH1 0xA0 DUP4 ADD MSTORE PUSH1 0x1 PUSH1 0xC0 DUP4 ADD MSTORE TIMESTAMP PUSH1 0xE0 DUP4 ADD MSTORE CALLER PUSH2 0x100 DUP4 ADD MSTORE DUP3 PUSH1 0x0 MSTORE PUSH1 0x6 PUSH1 0x20 MSTORE PUSH1 0x40 PUSH1 0x0 KECCAK256 SWAP4 DUP3 MLOAD DUP6 SSTORE PUSH1 0x20 DUP4 ADD MLOAD DUP1 MLOAD SWAP1 PUSH8 0xFFFFFFFFFFFFFFFF DUP3 GT PUSH2 0x689 JUMPI DUP2 SWAP1 PUSH2 0x2012 PUSH1 0x1 DUP10 ADD SLOAD PUSH2 0x2BF6 JUMP JUMPDEST PUSH1 0x1F DUP2 GT PUSH2 0x24F9 JUMPI JUMPDEST POP PUSH1 0x20 SWAP1 PUSH1 0x1F DUP4 GT PUSH1 0x1 EQ PUSH2 0x2487 JUMPI PUSH1 0x0 SWAP3 PUSH2 0x247C JUMPI JUMPDEST POP POP DUP2 PUSH1 0x1 SHL SWAP2 PUSH1 0x0 NOT SWAP1 PUSH1 0x3 SHL SHR NOT AND OR PUSH1 0x1 DUP7 ADD SSTORE JUMPDEST PUSH1 0x40 DUP4 ADD MLOAD DUP1 MLOAD SWAP1 PUSH8 0xFFFFFFFFFFFFFFFF DUP3 GT PUSH2 0x689 JUMPI DUP2 SWAP1 PUSH2 0x2070 PUSH1 0x2 DUP10 ADD SLOAD PUSH2 0x2BF6 JUMP JUMPDEST PUSH1 0x1F DUP2 GT PUSH2 0x2447 JUMPI JUMPDEST POP PUSH1 0x20 SWAP1 PUSH1 0x1F DUP4 GT PUSH1 0x1 EQ PUSH2 0x23D5 JUMPI PUSH1 0x0 SWAP3 PUSH2 0x23CA JUMPI JUMPDEST POP POP DUP2 PUSH1 0x1 SHL SWAP2 PUSH1 0x0 NOT SWAP1 PUSH1 0x3 SHL SHR NOT AND OR PUSH1 0x2 DUP7 ADD SSTORE JUMPDEST PUSH1 0x60 DUP4 ADD MLOAD DUP1 MLOAD SWAP1 PUSH8 0xFFFFFFFFFFFFFFFF DUP3 GT PUSH2 0x689 JUMPI DUP2 SWAP1 PUSH2 0x20CE PUSH1 0x3 DUP10 ADD SLOAD PUSH2 0x2BF6 JUMP JUMPDEST PUSH1 0x1F DUP2 GT PUSH2 0x2395 JUMPI JUMPDEST POP PUSH1 0x20 SWAP1 PUSH1 0x1F DUP4 GT PUSH1 0x1 EQ PUSH2 0x2323 JUMPI PUSH1 0x0 SWAP3 PUSH2 0x2318 JUMPI JUMPDEST POP POP DUP2 PUSH1 0x1 SHL SWAP2 PUSH1 0x0 NOT SWAP1 PUSH1 0x3 SHL SHR NOT AND OR PUSH1 0x3 DUP7 ADD SSTORE JUMPDEST PUSH1 0x80 DUP4 ADD MLOAD PUSH1 0x4 DUP7 ADD SSTORE PUSH1 0xA0 DUP4 ADD MLOAD SWAP3 DUP4 MLOAD SWAP6 PUSH8 0xFFFFFFFFFFFFFFFF DUP8 GT PUSH2 0x689 JUMPI PUSH1 0x20 SWAP7 DUP7 SWAP6 PUSH2 0x213A PUSH1 0x5 DUP5 ADD SLOAD PUSH2 0x2BF6 JUMP JUMPDEST PUSH1 0x1F DUP2 GT PUSH2 0x22E5 JUMPI JUMPDEST POP DUP9 SWAP1 PUSH1 0x1F DUP4 GT PUSH1 0x1 EQ PUSH2 0x223C JUMPI PUSH2 0x100 PUSH1 0x8 PUSH2 0x2218 SWAP6 DUP6 PUSH2 0x220B SWAP10 SWAP7 PUSH32 0xF60DA87F4D85B870DA91E17ABC7FE1194AB1365B51ABA933EB7325F910EA457B SWAP12 SWAP10 SWAP7 PUSH1 0x1 PUSH1 0x1 PUSH1 0xA0 SHL SUB SWAP7 PUSH1 0x0 SWAP3 PUSH2 0x2231 JUMPI JUMPDEST POP POP DUP2 PUSH1 0x1 SHL SWAP2 PUSH1 0x0 NOT SWAP1 PUSH1 0x3 SHL SHR NOT AND OR PUSH1 0x5 DUP3 ADD SSTORE JUMPDEST PUSH2 0x21CC PUSH1 0xC0 DUP7 ADD MLOAD ISZERO ISZERO PUSH1 0x6 DUP4 ADD SWAP1 PUSH1 0xFF DUP1 NOT DUP4 SLOAD AND SWAP2 ISZERO ISZERO AND OR SWAP1 SSTORE JUMP JUMPDEST PUSH1 0xE0 DUP6 ADD MLOAD PUSH1 0x7 DUP3 ADD SSTORE ADD SWAP3 ADD MLOAD AND PUSH20 0xFFFFFFFFFFFFFFFFFFFFFFFFFFFFFFFFFFFFFFFF NOT DUP3 SLOAD AND OR SWAP1 SSTORE PUSH1 0x40 MLOAD SWAP4 DUP5 SWAP4 PUSH1 0x80 DUP6 MSTORE PUSH1 0x80 DUP6 ADD SWAP1 PUSH2 0x2D71 JUMP JUMPDEST SWAP1 DUP4 DUP3 SUB DUP10 DUP6 ADD MSTORE PUSH2 0x2D71 JUMP JUMPDEST PUSH1 0x64 CALLDATALOAD PUSH1 0x40 DUP4 ADD MSTORE TIMESTAMP PUSH1 0x60 DUP4 ADD MSTORE SUB SWAP1 LOG2 PUSH1 0x40 MLOAD SWAP1 DUP2 MSTORE RETURN JUMPDEST ADD MLOAD SWAP1 POP DUP16 DUP1 PUSH2 0x2195 JUMP JUMPDEST SWAP1 PUSH1 0x5 DUP5 ADD PUSH1 0x0 MSTORE DUP10 PUSH1 0x0 KECCAK256 SWAP2 PUSH1 0x0 JUMPDEST PUSH1 0x1F NOT DUP6 AND DUP2 LT PUSH2 0x22CB JUMPI POP PUSH1 0x8 PUSH2 0x2218 SWAP6 PUSH1 0x1 DUP7 PUSH32 0xF60DA87F4D85B870DA91E17ABC7FE1194AB1365B51ABA933EB7325F910EA457B SWAP12 SWAP10 SWAP7 PUSH1 0x1 PUSH1 0x1 PUSH1 0xA0 SHL SUB SWAP7 PUSH2 0x100 SWAP7 PUSH2 0x220B SWAP14 SWAP11 PUSH1 0x1F NOT DUP2 AND LT PUSH2 0x22B2 JUMPI JUMPDEST POP POP POP DUP2 SHL ADD PUSH1 0x5 DUP3 ADD SSTORE PUSH2 0x21AD JUMP JUMPDEST ADD MLOAD PUSH1 0x0 NOT PUSH1 0xF8 DUP5 PUSH1 0x3 SHL AND SHR NOT AND SWAP1 SSTORE DUP16 DUP1 DUP1 PUSH2 0x22A2 JUMP JUMPDEST DUP2 DUP4 ADD MLOAD DUP5 SSTORE DUP11 SWAP10 POP PUSH1 0x1 SWAP1 SWAP4 ADD SWAP3 SWAP2 DUP12 ADD SWAP2 DUP12 ADD PUSH2 0x224C JUMP JUMPDEST PUSH2 0x2312 SWAP1 PUSH1 0x5 DUP6 ADD PUSH1 0x0 MSTORE DUP11 PUSH1 0x0 KECCAK256 PUSH1 0x1F DUP6 ADD PUSH1 0x5 SHR DUP2 ADD SWAP2 DUP13 DUP7 LT PUSH2 0x67F JUMPI PUSH1 0x1F ADD PUSH1 0x5 SHR ADD SWAP1 PUSH2 0x316E JUMP JUMPDEST DUP10 PUSH2 0x2143 JUMP JUMPDEST ADD MLOAD SWAP1 POP DUP8 DUP1 PUSH2 0x20EE JUMP JUMPDEST SWAP3 POP PUSH1 0x3 DUP9 ADD PUSH1 0x0 MSTORE PUSH1 0x20 PUSH1 0x0 KECCAK256 SWAP1 PUSH1 0x0 SWAP4 JUMPDEST PUSH1 0x1F NOT DUP5 AND DUP6 LT PUSH2 0x237A JUMPI PUSH1 0x1 SWAP5 POP DUP4 PUSH1 0x1F NOT DUP2 AND LT PUSH2 0x2361 JUMPI JUMPDEST POP POP POP DUP2 SHL ADD PUSH1 0x3 DUP7 ADD SSTORE PUSH2 0x2106 JUMP JUMPDEST ADD MLOAD PUSH1 0x0 NOT PUSH1 0xF8 DUP5 PUSH1 0x3 SHL AND SHR NOT AND SWAP1 SSTORE DUP8 DUP1 DUP1 PUSH2 0x2351 JUMP JUMPDEST DUP2 DUP2 ADD MLOAD DUP4 SSTORE PUSH1 0x20 SWAP5 DUP6 ADD SWAP5 PUSH1 0x1 SWAP1 SWAP4 ADD SWAP3 SWAP1 SWAP2 ADD SWAP1 PUSH2 0x2336 JUMP JUMPDEST PUSH2 0x23C4 SWAP1 PUSH1 0x3 DUP11 ADD PUSH1 0x0 MSTORE PUSH1 0x20 PUSH1 0x0 KECCAK256 PUSH1 0x1F DUP6 ADD PUSH1 0x5 SHR DUP2 ADD SWAP2 PUSH1 0x20 DUP7 LT PUSH2 0x67F JUMPI PUSH1 0x1F ADD PUSH1 0x5 SHR ADD SWAP1 PUSH2 0x316E JUMP JUMPDEST DUP9 PUSH2 0x20D7 JUMP JUMPDEST ADD MLOAD SWAP1 POP DUP8 DUP1 PUSH2 0x2090 JUMP JUMPDEST SWAP3 POP PUSH1 0x2 DUP9 ADD PUSH1 0x0 MSTORE PUSH1 0x20 PUSH1 0x0 KECCAK256 SWAP1 PUSH1 0x0 SWAP4 JUMPDEST PUSH1 0x1F NOT DUP5 AND DUP6 LT PUSH2 0x242C JUMPI PUSH1 0x1 SWAP5 POP DUP4 PUSH1 0x1F NOT DUP2 AND LT PUSH2 0x2413 JUMPI JUMPDEST POP POP POP DUP2 SHL ADD PUSH1 0x2 DUP7 ADD SSTORE PUSH2 0x20A8 JUMP JUMPDEST ADD MLOAD PUSH1 0x0 NOT PUSH1 0xF8 DUP5 PUSH1 0x3 SHL AND SHR NOT AND SWAP1 SSTORE DUP8 DUP1 DUP1 PUSH2 0x2403 JUMP JUMPDEST DUP2 DUP2 ADD MLOAD DUP4 SSTORE PUSH1 0x20 SWAP5 DUP6 ADD SWAP5 PUSH1 0x1 SWAP1 SWAP4 ADD SWAP3 SWAP1 SWAP2 ADD SWAP1 PUSH2 0x23E8 JUMP JUMPDEST PUSH2 0x2476 SWAP1 PUSH1 0x2 DUP11 ADD PUSH1 0x0 MSTORE PUSH1 0x20 PUSH1 0x0 KECCAK256 PUSH1 0x1F DUP6 ADD PUSH1 0x5 SHR DUP2 ADD SWAP2 PUSH1 0x20 DUP7 LT PUSH2 0x67F JUMPI PUSH1 0x1F ADD PUSH1 0x5 SHR ADD SWAP1 PUSH2 0x316E JUMP JUMPDEST DUP9 PUSH2 0x2079 JUMP JUMPDEST ADD MLOAD SWAP1 POP DUP8 DUP1 PUSH2 0x2032 JUMP JUMPDEST SWAP3 POP PUSH1 0x1 DUP9 ADD PUSH1 0x0 MSTORE PUSH1 0x20 PUSH1 0x0 KECCAK256 SWAP1 PUSH1 0x0 SWAP4 JUMPDEST PUSH1 0x1F NOT DUP5 AND DUP6 LT PUSH2 0x24DE JUMPI PUSH1 0x1 SWAP5 POP DUP4 PUSH1 0x1F NOT DUP2 AND LT PUSH2 0x24C5 JUMPI JUMPDEST POP POP POP DUP2 SHL ADD PUSH1 0x1 DUP7 ADD SSTORE PUSH2 0x204A JUMP JUMPDEST ADD MLOAD PUSH1 0x0 NOT PUSH1 0xF8 DUP5 PUSH1 0x3 SHL AND SHR NOT AND SWAP1 SSTORE DUP8 DUP1 DUP1 PUSH2 0x24B5 JUMP JUMPDEST DUP2 DUP2 ADD MLOAD DUP4 SSTORE PUSH1 0x20 SWAP5 DUP6 ADD SWAP5 PUSH1 0x1 SWAP1 SWAP4 ADD SWAP3 SWAP1 SWAP2 ADD SWAP1 PUSH2 0x249A JUMP JUMPDEST PUSH2 0x2528 SWAP1 PUSH1 0x1 DUP11 ADD PUSH1 0x0 MSTORE PUSH1 0x20 PUSH1 0x0 KECCAK256 PUSH1 0x1F DUP6 ADD PUSH1 0x5 SHR DUP2 ADD SWAP2 PUSH1 0x20 DUP7 LT PUSH2 0x67F JUMPI PUSH1 0x1F ADD PUSH1 0x5 SHR ADD SWAP1 PUSH2 0x316E JUMP JUMPDEST DUP9 PUSH2 0x201B JUMP JUMPDEST PUSH1 0x64 PUSH1 0x40 MLOAD PUSH3 0x461BCD PUSH1 0xE5 SHL DUP2 MSTORE PUSH1 0x20 PUSH1 0x4 DUP3 ADD MSTORE PUSH1 0x1E PUSH1 0x24 DUP3 ADD MSTORE PUSH32 0x43726564697473206D7573742062652067726561746572207468616E20300000 PUSH1 0x44 DUP3 ADD MSTORE REVERT JUMPDEST PUSH1 0x64 PUSH1 0x40 MLOAD PUSH3 0x461BCD PUSH1 0xE5 SHL DUP2 MSTORE PUSH1 0x20 PUSH1 0x4 DUP3 ADD MSTORE PUSH1 0x1B PUSH1 0x24 DUP3 ADD MSTORE PUSH32 0x436F75727365206E616D652063616E6E6F7420626520656D7074790000000000 PUSH1 0x44 DUP3 ADD MSTORE REVERT JUMPDEST PUSH1 0x64 PUSH1 0x40 MLOAD PUSH3 0x461BCD PUSH1 0xE5 SHL DUP2 MSTORE PUSH1 0x20 PUSH1 0x4 DUP3 ADD MSTORE PUSH1 0x1B PUSH1 0x24 DUP3 ADD MSTORE PUSH32 0x436F7572736520636F64652063616E6E6F7420626520656D7074790000000000 PUSH1 0x44 DUP3 ADD MSTORE REVERT JUMPDEST CALLVALUE PUSH2 0x1BA JUMPI PUSH1 0x0 CALLDATASIZE PUSH1 0x3 NOT ADD SLT PUSH2 0x1BA JUMPI PUSH1 0x20 PUSH1 0xFF PUSH1 0x1 SLOAD AND PUSH1 0x40 MLOAD SWAP1 ISZERO ISZERO DUP2 MSTORE RETURN JUMPDEST CALLVALUE PUSH2 0x1BA JUMPI PUSH1 0x0 CALLDATASIZE PUSH1 0x3 NOT ADD SLT PUSH2 0x1BA JUMPI PUSH2 0x2636 PUSH2 0x2FD2 JUMP JUMPDEST PUSH1 0x1 SLOAD PUSH1 0xFF DUP2 AND ISZERO PUSH2 0x2675 JUMPI PUSH1 0xFF NOT AND PUSH1 0x1 SSTORE PUSH32 0x5DB9EE0A495BF2E6FF9C91A7834C1BA4FDD244A5E8AA4E537BD38AEAE4B073AA PUSH1 0x20 PUSH1 0x40 MLOAD CALLER DUP2 MSTORE LOG1 STOP JUMPDEST PUSH1 0x4 PUSH1 0x40 MLOAD PUSH32 0x8DFC202B00000000000000000000000000000000000000000000000000000000 DUP2 MSTORE REVERT JUMPDEST CALLVALUE PUSH2 0x1BA JUMPI PUSH1 0x40 CALLDATASIZE PUSH1 0x3 NOT ADD SLT PUSH2 0x1BA JUMPI PUSH2 0x26B8 PUSH2 0x2D96 JUMP JUMPDEST CALLER PUSH1 0x1 PUSH1 0x1 PUSH1 0xA0 SHL SUB DUP3 AND SUB PUSH2 0x26D4 JUMPI PUSH2 0x2EB SWAP1 PUSH1 0x4 CALLDATALOAD PUSH2 0x30D3 JUMP JUMPDEST PUSH1 0x4 PUSH1 0x40 MLOAD PUSH32 0x6697B23200000000000000000000000000000000000000000000000000000000 DUP2 MSTORE REVERT JUMPDEST CALLVALUE PUSH2 0x1BA JUMPI PUSH1 0x40 CALLDATASIZE PUSH1 0x3 NOT ADD SLT PUSH2 0x1BA JUMPI PUSH2 0x2EB PUSH1 0x4 CALLDATALOAD PUSH2 0x271D PUSH2 0x2D96 JUMP JUMPDEST SWAP1 DUP1 PUSH1 0x0 MSTORE PUSH1 0x0 PUSH1 0x20 MSTORE PUSH2 0x2738 PUSH1 0x1 PUSH1 0x40 PUSH1 0x0 KECCAK256 ADD SLOAD PUSH2 0x302E JUMP JUMPDEST PUSH2 0x3054 JUMP JUMPDEST CALLVALUE PUSH2 0x1BA JUMPI PUSH1 0x0 CALLDATASIZE PUSH1 0x3 NOT ADD SLT PUSH2 0x1BA JUMPI PUSH1 0x20 PUSH1 0x2 SLOAD PUSH1 0x40 MLOAD SWAP1 DUP2 MSTORE RETURN JUMPDEST CALLVALUE PUSH2 0x1BA JUMPI PUSH1 0x20 CALLDATASIZE PUSH1 0x3 NOT ADD SLT PUSH2 0x1BA JUMPI PUSH1 0x4 CALLDATALOAD PUSH1 0x0 MSTORE PUSH1 0x0 PUSH1 0x20 MSTORE PUSH1 0x20 PUSH1 0x1 PUSH1 0x40 PUSH1 0x0 KECCAK256 ADD SLOAD PUSH1 0x40 MLOAD SWAP1 DUP2 MSTORE RETURN JUMPDEST CALLVALUE PUSH2 0x1BA JUMPI PUSH1 0x40 CALLDATASIZE PUSH1 0x3 NOT ADD SLT PUSH2 0x1BA JUMPI PUSH1 0x24 CALLDATALOAD PUSH1 0x4 CALLDATALOAD PUSH2 0x27A9 PUSH2 0x2F3F JUMP JUMPDEST DUP1 PUSH1 0x0 MSTORE PUSH1 0x20 PUSH1 0x4 DUP2 MSTORE PUSH2 0x27C3 PUSH1 0x40 PUSH1 0x0 KECCAK256 SLOAD ISZERO ISZERO PUSH2 0x31BB JUMP JUMPDEST DUP2 PUSH1 0x0 MSTORE PUSH1 0x4 DUP2 MSTORE PUSH2 0x27DF PUSH1 0xFF PUSH1 0x9 PUSH1 0x40 PUSH1 0x0 KECCAK256 ADD SLOAD AND PUSH2 0x3206 JUMP JUMPDEST DUP3 PUSH1 0x0 MSTORE PUSH1 0x6 DUP2 MSTORE PUSH2 0x27F7 PUSH1 0x40 PUSH1 0x0 KECCAK256 SLOAD ISZERO ISZERO PUSH2 0x3251 JUMP JUMPDEST DUP3 PUSH1 0x0 MSTORE PUSH1 0x6 DUP2 MSTORE PUSH2 0x2813 PUSH1 0xFF PUSH1 0x6 PUSH1 0x40 PUSH1 0x0 KECCAK256 ADD SLOAD AND PUSH2 0x329C JUMP JUMPDEST DUP2 PUSH1 0x0 MSTORE PUSH1 0x4 DUP2 MSTORE PUSH1 0xB PUSH1 0x40 PUSH1 0x0 KECCAK256 ADD SWAP1 DUP2 SLOAD SWAP2 PUSH9 0x10000000000000000 DUP4 LT ISZERO PUSH2 0x689 JUMPI PUSH1 0x1 DUP4 ADD DUP1 DUP3 SSTORE DUP4 LT ISZERO PUSH2 0x287C JUMPI PUSH32 0x8802B1C117AFC214959B93E53532B774C80CB31CB9946A261C8A66C509BBFE02 SWAP3 DUP6 SWAP2 PUSH1 0x0 MSTORE DUP3 PUSH1 0x0 KECCAK256 ADD SSTORE PUSH1 0x40 MLOAD TIMESTAMP DUP2 MSTORE LOG3 STOP JUMPDEST PUSH4 0x4E487B71 PUSH1 0xE0 SHL PUSH1 0x0 MSTORE PUSH1 0x32 PUSH1 0x4 MSTORE PUSH1 0x24 PUSH1 0x0 REVERT JUMPDEST CALLVALUE PUSH2 0x1BA JUMPI PUSH1 0x20 DUP1 PUSH1 0x3 NOT CALLDATASIZE ADD SLT PUSH2 0x1BA JUMPI PUSH1 0x40 MLOAD SWAP1 PUSH2 0x28B1 DUP3 PUSH2 0x2C30 JUMP JUMPDEST PUSH1 0x0 DUP3 MSTORE PUSH1 0x60 DUP1 DUP3 DUP5 ADD MSTORE DUP1 PUSH1 0x40 DUP5 ADD MSTORE DUP1 DUP1 DUP5 ADD MSTORE PUSH1 0x80 DUP4 ADD PUSH1 0x0 SWAP1 MSTORE DUP1 PUSH1 0xA0 DUP5 ADD MSTORE PUSH1 0xC0 DUP4 ADD PUSH1 0x0 SWAP1 MSTORE PUSH1 0xE0 DUP4 ADD PUSH1 0x0 SWAP1 MSTORE PUSH2 0x100 DUP1 SWAP4 ADD PUSH1 0x0 SWAP1 MSTORE PUSH1 0x4 CALLDATALOAD PUSH1 0x0 MSTORE PUSH1 0x6 DUP3 MSTORE PUSH1 0x40 PUSH1 0x0 KECCAK256 PUSH1 0x40 MLOAD SWAP1 PUSH2 0x290B DUP3 PUSH2 0x2C30 JUMP JUMPDEST DUP1 SLOAD DUP3 MSTORE PUSH2 0x291B PUSH1 0x1 DUP3 ADD PUSH2 0x2CA8 JUMP JUMPDEST DUP3 DUP6 ADD SWAP1 DUP2 MSTORE SWAP5 PUSH2 0x292E PUSH1 0x2 DUP4 ADD PUSH2 0x2CA8 JUMP JUMPDEST PUSH1 0x40 DUP5 ADD SWAP1 DUP2 MSTORE SWAP1 PUSH2 0x2942 PUSH1 0x3 DUP5 ADD PUSH2 0x2CA8 JUMP JUMPDEST DUP5 DUP7 ADD SWAP1 DUP2 MSTORE PUSH1 0x4 DUP5 ADD SLOAD PUSH1 0x80 DUP7 ADD SWAP1 DUP2 MSTORE SWAP6 PUSH2 0x2961 PUSH1 0x5 DUP7 ADD PUSH2 0x2CA8 JUMP JUMPDEST SWAP7 PUSH1 0xA0 DUP8 ADD SWAP8 DUP9 MSTORE PUSH1 0x6 DUP7 ADD SLOAD PUSH1 0xFF AND SWAP8 PUSH1 0xC0 DUP9 ADD SWAP9 ISZERO ISZERO DUP10 MSTORE PUSH1 0x7 DUP8 ADD SLOAD SWAP4 PUSH1 0xE0 DUP10 ADD SWAP5 DUP6 MSTORE PUSH1 0x1 PUSH1 0x1 PUSH1 0xA0 SHL SUB PUSH1 0x8 DUP2 SWAP10 ADD SLOAD AND SWAP7 DUP7 DUP11 ADD SWAP8 DUP9 MSTORE PUSH1 0x40 MLOAD SWAP13 DUP13 DUP15 SWAP14 SWAP12 DUP15 SWAP13 DUP14 MSTORE MLOAD SWAP1 DUP13 ADD MSTORE MLOAD PUSH2 0x120 PUSH1 0x40 DUP2 SWAP13 ADD MSTORE PUSH2 0x140 DUP14 ADD PUSH2 0x29C7 SWAP2 PUSH2 0x2D71 JUMP JUMPDEST SWAP1 MLOAD SWAP1 DUP13 PUSH1 0x1F NOT SWAP7 DUP8 DUP3 DUP5 SUB ADD SWAP2 ADD MSTORE PUSH2 0x29E0 SWAP2 PUSH2 0x2D71 JUMP JUMPDEST SWAP1 MLOAD SWAP1 DUP5 DUP13 DUP3 SUB ADD PUSH1 0x80 DUP14 ADD MSTORE PUSH2 0x29F6 SWAP2 PUSH2 0x2D71 JUMP JUMPDEST SWAP2 MLOAD PUSH1 0xA0 DUP12 ADD MSTORE MLOAD SWAP2 DUP10 DUP3 SUB ADD PUSH1 0xC0 DUP11 ADD MSTORE PUSH2 0x2A11 SWAP2 PUSH2 0x2D71 JUMP JUMPDEST SWAP6 MLOAD ISZERO ISZERO PUSH1 0xE0 DUP9 ADD MSTORE MLOAD SWAP1 DUP7 ADD MSTORE MLOAD AND SWAP1 DUP4 ADD MSTORE SUB SWAP1 RETURN JUMPDEST CALLVALUE PUSH2 0x1BA JUMPI PUSH1 0x20 CALLDATASIZE PUSH1 0x3 NOT ADD SLT PUSH2 0x1BA JUMPI PUSH1 0x4 CALLDATALOAD PUSH1 0x0 MSTORE PUSH1 0x4 PUSH1 0x20 MSTORE PUSH1 0x40 PUSH1 0x0 KECCAK256 DUP1 SLOAD PUSH1 0x1 DUP3 ADD SLOAD PUSH1 0x1 PUSH1 0x1 PUSH1 0xA0 SHL SUB AND SWAP2 PUSH1 0x2 DUP2 ADD PUSH2 0x2A68 SWAP1 PUSH2 0x2CA8 JUMP JUMPDEST SWAP1 PUSH2 0x2A75 PUSH1 0x3 DUP3 ADD PUSH2 0x2CA8 JUMP JUMPDEST SWAP1 PUSH2 0x2A82 PUSH1 0x4 DUP3 ADD PUSH2 0x2CA8 JUMP JUMPDEST SWAP2 PUSH2 0x2A8F PUSH1 0x5 DUP4 ADD PUSH2 0x2CA8 JUMP JUMPDEST PUSH2 0x2A9B PUSH1 0x6 DUP5 ADD PUSH2 0x2CA8 JUMP JUMPDEST SWAP1 PUSH1 0x7 DUP5 ADD SLOAD SWAP5 PUSH1 0x8 DUP6 ADD SLOAD SWAP4 PUSH1 0x9 DUP7 ADD SLOAD SWAP6 PUSH1 0xA ADD PUSH2 0x2ABA SWAP1 PUSH2 0x2CA8 JUMP JUMPDEST SWAP8 PUSH1 0x40 MLOAD SWAP11 DUP12 SWAP11 DUP12 MSTORE PUSH1 0x20 DUP12 ADD MSTORE PUSH2 0x180 DUP1 PUSH1 0x40 DUP13 ADD MSTORE DUP11 ADD PUSH2 0x2ADC SWAP2 PUSH2 0x2D71 JUMP JUMPDEST DUP10 DUP2 SUB PUSH1 0x60 DUP12 ADD MSTORE PUSH2 0x2AED SWAP2 PUSH2 0x2D71 JUMP JUMPDEST DUP9 DUP2 SUB PUSH1 0x80 DUP11 ADD MSTORE PUSH2 0x2AFE SWAP2 PUSH2 0x2D71 JUMP JUMPDEST DUP8 DUP2 SUB PUSH1 0xA0 DUP10 ADD MSTORE PUSH2 0x2B0F SWAP2 PUSH2 0x2D71 JUMP JUMPDEST DUP7 DUP2 SUB PUSH1 0xC0 DUP9 ADD MSTORE PUSH2 0x2B20 SWAP2 PUSH2 0x2D71 JUMP JUMPDEST SWAP3 PUSH1 0xE0 DUP7 ADD MSTORE PUSH2 0x100 DUP6 ADD MSTORE PUSH1 0xFF DUP2 AND ISZERO ISZERO PUSH2 0x120 DUP6 ADD MSTORE PUSH1 0x8 SHR PUSH1 0xFF AND ISZERO ISZERO PUSH2 0x140 DUP5 ADD MSTORE DUP3 DUP2 SUB PUSH2 0x160 DUP5 ADD MSTORE PUSH2 0xCDE SWAP2 PUSH2 0x2D71 JUMP JUMPDEST CALLVALUE PUSH2 0x1BA JUMPI PUSH1 0x20 CALLDATASIZE PUSH1 0x3 NOT ADD SLT PUSH2 0x1BA JUMPI PUSH1 0x4 CALLDATALOAD SWAP1 PUSH32 0xFFFFFFFF00000000000000000000000000000000000000000000000000000000 DUP3 AND DUP1 SWAP3 SUB PUSH2 0x1BA JUMPI DUP2 PUSH32 0x7965DB0B00000000000000000000000000000000000000000000000000000000 PUSH1 0x20 SWAP4 EQ SWAP1 DUP2 ISZERO PUSH2 0x2BCC JUMPI JUMPDEST POP ISZERO ISZERO DUP2 MSTORE RETURN JUMPDEST PUSH32 0x1FFC9A700000000000000000000000000000000000000000000000000000000 SWAP2 POP EQ DUP4 PUSH2 0x2BC5 JUMP JUMPDEST SWAP1 PUSH1 0x1 DUP3 DUP2 SHR SWAP3 AND DUP1 ISZERO PUSH2 0x2C26 JUMPI JUMPDEST PUSH1 0x20 DUP4 LT EQ PUSH2 0x2C10 JUMPI JUMP JUMPDEST PUSH4 0x4E487B71 PUSH1 0xE0 SHL PUSH1 0x0 MSTORE PUSH1 0x22 PUSH1 0x4 MSTORE PUSH1 0x24 PUSH1 0x0 REVERT JUMPDEST SWAP2 PUSH1 0x7F AND SWAP2 PUSH2 0x2C05 JUMP JUMPDEST PUSH2 0x120 DUP2 ADD SWAP1 DUP2 LT PUSH8 0xFFFFFFFFFFFFFFFF DUP3 GT OR PUSH2 0x689 JUMPI PUSH1 0x40 MSTORE JUMP JUMPDEST PUSH2 0x1A0 DUP2 ADD SWAP1 DUP2 LT PUSH8 0xFFFFFFFFFFFFFFFF DUP3 GT OR PUSH2 0x689 JUMPI PUSH1 0x40 MSTORE JUMP JUMPDEST PUSH1 0x20 DUP2 ADD SWAP1 DUP2 LT PUSH8 0xFFFFFFFFFFFFFFFF DUP3 GT OR PUSH2 0x689 JUMPI PUSH1 0x40 MSTORE JUMP JUMPDEST SWAP1 PUSH1 0x1F DUP1 NOT SWAP2 ADD AND DUP2 ADD SWAP1 DUP2 LT PUSH8 0xFFFFFFFFFFFFFFFF DUP3 GT OR PUSH2 0x689 JUMPI PUSH1 0x40 MSTORE JUMP JUMPDEST SWAP1 PUSH1 0x40 MLOAD SWAP2 DUP3 PUSH1 0x0 DUP3 SLOAD SWAP3 PUSH2 0x2CBC DUP5 PUSH2 0x2BF6 JUMP JUMPDEST SWAP1 DUP2 DUP5 MSTORE PUSH1 0x1 SWAP5 DUP6 DUP2 AND SWAP1 DUP2 PUSH1 0x0 EQ PUSH2 0x2D2B JUMPI POP PUSH1 0x1 EQ PUSH2 0x2CE8 JUMPI JUMPDEST POP POP PUSH2 0x2CE6 SWAP3 POP SUB DUP4 PUSH2 0x2C86 JUMP JUMPDEST JUMP JUMPDEST SWAP1 SWAP4 SWAP2 POP PUSH1 0x0 MSTORE PUSH1 0x20 SWAP1 DUP2 PUSH1 0x0 KECCAK256 SWAP4 PUSH1 0x0 SWAP2 JUMPDEST DUP2 DUP4 LT PUSH2 0x2D13 JUMPI POP POP PUSH2 0x2CE6 SWAP4 POP DUP3 ADD ADD CODESIZE DUP1 PUSH2 0x2CD8 JUMP JUMPDEST DUP6 SLOAD DUP9 DUP5 ADD DUP6 ADD MSTORE SWAP5 DUP6 ADD SWAP5 DUP8 SWAP5 POP SWAP2 DUP4 ADD SWAP2 PUSH2 0x2CFB JUMP JUMPDEST SWAP2 POP POP PUSH2 0x2CE6 SWAP5 POP PUSH1 0x20 SWAP3 POP PUSH1 0xFF NOT AND DUP3 DUP5 ADD MSTORE ISZERO ISZERO PUSH1 0x5 SHL DUP3 ADD ADD CODESIZE DUP1 PUSH2 0x2CD8 JUMP JUMPDEST PUSH1 0x0 JUMPDEST DUP4 DUP2 LT PUSH2 0x2D61 JUMPI POP POP PUSH1 0x0 SWAP2 ADD MSTORE JUMP JUMPDEST DUP2 DUP2 ADD MLOAD DUP4 DUP3 ADD MSTORE PUSH1 0x20 ADD PUSH2 0x2D51 JUMP JUMPDEST SWAP1 PUSH1 0x20 SWAP2 PUSH2 0x2D8A DUP2 MLOAD DUP1 SWAP3 DUP2 DUP6 MSTORE DUP6 DUP1 DUP7 ADD SWAP2 ADD PUSH2 0x2D4E JUMP JUMPDEST PUSH1 0x1F ADD PUSH1 0x1F NOT AND ADD ADD SWAP1 JUMP JUMPDEST PUSH1 0x24 CALLDATALOAD SWAP1 PUSH1 0x1 PUSH1 0x1 PUSH1 0xA0 SHL SUB DUP3 AND DUP3 SUB PUSH2 0x1BA JUMPI JUMP JUMPDEST PUSH1 0x4 CALLDATALOAD SWAP1 PUSH1 0x1 PUSH1 0x1 PUSH1 0xA0 SHL SUB DUP3 AND DUP3 SUB PUSH2 0x1BA JUMPI JUMP JUMPDEST DUP2 PUSH1 0x1F DUP3 ADD SLT ISZERO PUSH2 0x1BA JUMPI DUP1 CALLDATALOAD SWAP1 PUSH8 0xFFFFFFFFFFFFFFFF DUP3 GT PUSH2 0x689 JUMPI PUSH1 0x40 MLOAD SWAP3 PUSH2 0x2DF7 PUSH1 0x1F DUP5 ADD PUSH1 0x1F NOT AND PUSH1 0x20 ADD DUP6 PUSH2 0x2C86 JUMP JUMPDEST DUP3 DUP5 MSTORE PUSH1 0x20 DUP4 DUP4 ADD ADD GT PUSH2 0x1BA JUMPI DUP2 PUSH1 0x0 SWAP3 PUSH1 0x20 DUP1 SWAP4 ADD DUP4 DUP7 ADD CALLDATACOPY DUP4 ADD ADD MSTORE SWAP1 JUMP JUMPDEST SWAP1 PUSH1 0x20 SWAP1 DUP2 DUP4 MSTORE DUP1 MLOAD DUP3 DUP5 ADD MSTORE PUSH1 0x1 PUSH1 0x1 PUSH1 0xA0 SHL SUB DUP3 DUP3 ADD MLOAD AND PUSH1 0x40 DUP5 ADD MSTORE PUSH1 0x40 DUP2 ADD MLOAD SWAP3 PUSH2 0x2E56 PUSH2 0x1A0 SWAP5 DUP6 PUSH1 0x60 DUP5 ADD MSTORE PUSH2 0x1C0 DUP4 ADD SWAP1 PUSH2 0x2D71 JUMP JUMPDEST SWAP4 PUSH2 0x2EB8 PUSH2 0x2EA4 PUSH2 0x2E90 PUSH2 0x2E7C PUSH1 0x60 DUP8 ADD MLOAD SWAP9 PUSH1 0x1F NOT SWAP10 DUP11 DUP9 DUP4 SUB ADD PUSH1 0x80 DUP10 ADD MSTORE PUSH2 0x2D71 JUMP JUMPDEST PUSH1 0x80 DUP8 ADD MLOAD DUP10 DUP8 DUP4 SUB ADD PUSH1 0xA0 DUP9 ADD MSTORE PUSH2 0x2D71 JUMP JUMPDEST PUSH1 0xA0 DUP7 ADD MLOAD DUP9 DUP7 DUP4 SUB ADD PUSH1 0xC0 DUP8 ADD MSTORE PUSH2 0x2D71 JUMP JUMPDEST PUSH1 0xC0 DUP6 ADD MLOAD DUP8 DUP6 DUP4 SUB ADD PUSH1 0xE0 DUP7 ADD MSTORE PUSH2 0x2D71 JUMP JUMPDEST PUSH2 0x2F03 PUSH1 0xE0 DUP6 ADD MLOAD PUSH2 0x100 SWAP1 DUP2 DUP7 ADD MSTORE DUP6 ADD MLOAD PUSH2 0x120 SWAP1 DUP2 DUP7 ADD MSTORE DUP6 ADD MLOAD ISZERO ISZERO PUSH2 0x140 SWAP1 DUP2 DUP7 ADD MSTORE DUP6 ADD MLOAD ISZERO ISZERO PUSH2 0x160 SWAP1 DUP2 DUP7 ADD MSTORE DUP6 ADD MLOAD SWAP2 PUSH2 0x180 SWAP3 DUP9 DUP7 DUP4 SUB ADD DUP5 DUP8 ADD MSTORE PUSH2 0x2D71 JUMP JUMPDEST SWAP4 ADD MLOAD SWAP5 DUP3 DUP5 SUB ADD SWAP2 ADD MSTORE DUP2 DUP1 DUP5 MLOAD SWAP3 DUP4 DUP2 MSTORE ADD SWAP4 ADD SWAP2 PUSH1 0x0 JUMPDEST DUP3 DUP2 LT PUSH2 0x2F2B JUMPI POP POP POP POP SWAP1 JUMP JUMPDEST DUP4 MLOAD DUP6 MSTORE SWAP4 DUP2 ADD SWAP4 SWAP3 DUP2 ADD SWAP3 PUSH1 0x1 ADD PUSH2 0x2F1D JUMP JUMPDEST CALLER PUSH1 0x0 SWAP1 DUP2 MSTORE PUSH32 0x1DDC098DA42ACDF4176DA08EC75800BC0FB2BCE2BE978B2037BCB0AE6966519 PUSH1 0x20 MSTORE PUSH1 0x40 SWAP1 KECCAK256 SLOAD PUSH32 0xEDCC084D3DCD65A1F7F23C65C46722FACA6953D28E43150A467CF43E5C309238 SWAP1 PUSH1 0xFF AND ISZERO PUSH2 0x2F9B JUMPI POP JUMP JUMPDEST PUSH1 0x44 SWAP1 PUSH1 0x40 MLOAD SWAP1 PUSH32 0xE2517D3F00000000000000000000000000000000000000000000000000000000 DUP3 MSTORE CALLER PUSH1 0x4 DUP4 ADD MSTORE PUSH1 0x24 DUP3 ADD MSTORE REVERT JUMPDEST CALLER PUSH1 0x0 SWAP1 DUP2 MSTORE PUSH32 0x7D7FFB7A348E1C6A02869081A26547B49160DD3DF72D1D75A570EB9B698292EC PUSH1 0x20 MSTORE PUSH1 0x40 SWAP1 KECCAK256 SLOAD PUSH32 0xA49807205CE4D355092EF5A8A18F56E8913CF4A201FBE287825B095693C21775 SWAP1 PUSH1 0xFF AND ISZERO PUSH2 0x2F9B JUMPI POP JUMP JUMPDEST DUP1 PUSH1 0x0 MSTORE PUSH1 0x0 PUSH1 0x20 MSTORE PUSH1 0x40 PUSH1 0x0 KECCAK256 CALLER PUSH1 0x0 MSTORE PUSH1 0x20 MSTORE PUSH1 0xFF PUSH1 0x40 PUSH1 0x0 KECCAK256 SLOAD AND ISZERO PUSH2 0x2F9B JUMPI POP JUMP JUMPDEST SWAP1 PUSH1 0x0 SWAP2 DUP1 DUP4 MSTORE DUP3 PUSH1 0x20 MSTORE PUSH1 0x1 PUSH1 0x1 PUSH1 0xA0 SHL SUB PUSH1 0x40 DUP5 KECCAK256 SWAP3 AND SWAP2 DUP3 DUP5 MSTORE PUSH1 0x20 MSTORE PUSH1 0xFF PUSH1 0x40 DUP5 KECCAK256 SLOAD AND ISZERO PUSH1 0x0 EQ PUSH2 0x30CE JUMPI DUP1 DUP4 MSTORE DUP3 PUSH1 0x20 MSTORE PUSH1 0x40 DUP4 KECCAK256 DUP3 DUP5 MSTORE PUSH1 0x20 MSTORE PUSH1 0x40 DUP4 KECCAK256 PUSH1 0x1 PUSH1 0xFF NOT DUP3 SLOAD AND OR SWAP1 SSTORE PUSH32 0x2F8788117E7EFF1D82E926EC794901D17C78024A50270940304540A733656F0D CALLER SWAP4 DUP1 LOG4 PUSH1 0x1 SWAP1 JUMP JUMPDEST POP POP SWAP1 JUMP JUMPDEST SWAP1 PUSH1 0x0 SWAP2 DUP1 DUP4 MSTORE DUP3 PUSH1 0x20 MSTORE PUSH1 0x1 PUSH1 0x1 PUSH1 0xA0 SHL SUB PUSH1 0x40 DUP5 KECCAK256 SWAP3 AND SWAP2 DUP3 DUP5 MSTORE PUSH1 0x20 MSTORE PUSH1 0xFF PUSH1 0x40 DUP5 KECCAK256 SLOAD AND PUSH1 0x0 EQ PUSH2 0x30CE JUMPI DUP1 DUP4 MSTORE DUP3 PUSH1 0x20 MSTORE PUSH1 0x40 DUP4 KECCAK256 DUP3 DUP5 MSTORE PUSH1 0x20 MSTORE PUSH1 0x40 DUP4 KECCAK256 PUSH1 0xFF NOT DUP2 SLOAD AND SWAP1 SSTORE PUSH32 0xF6391F5C32D9C69D2A47EA670B442974B53935D1EDC7FD64EB21E047A839171B CALLER SWAP4 DUP1 LOG4 PUSH1 0x1 SWAP1 JUMP JUMPDEST PUSH1 0x0 NOT DUP2 EQ PUSH2 0x3158 JUMPI PUSH1 0x1 ADD SWAP1 JUMP JUMPDEST PUSH4 0x4E487B71 PUSH1 0xE0 SHL PUSH1 0x0 MSTORE PUSH1 0x11 PUSH1 0x4 MSTORE PUSH1 0x24 PUSH1 0x0 REVERT JUMPDEST DUP2 DUP2 LT PUSH2 0x3179 JUMPI POP POP JUMP JUMPDEST PUSH1 0x0 DUP2 SSTORE PUSH1 0x1 ADD PUSH2 0x316E JUMP JUMPDEST PUSH1 0xFF PUSH1 0x1 SLOAD AND PUSH2 0x3191 JUMPI JUMP JUMPDEST PUSH1 0x4 PUSH1 0x40 MLOAD PUSH32 0xD93C066500000000000000000000000000000000000000000000000000000000 DUP2 MSTORE REVERT JUMPDEST ISZERO PUSH2 0x31C2 JUMPI JUMP JUMPDEST PUSH1 0x64 PUSH1 0x40 MLOAD PUSH3 0x461BCD PUSH1 0xE5 SHL DUP2 MSTORE PUSH1 0x20 PUSH1 0x4 DUP3 ADD MSTORE PUSH1 0x16 PUSH1 0x24 DUP3 ADD MSTORE PUSH32 0x53747564656E7420646F6573206E6F7420657869737400000000000000000000 PUSH1 0x44 DUP3 ADD MSTORE REVERT JUMPDEST ISZERO PUSH2 0x320D JUMPI JUMP JUMPDEST PUSH1 0x64 PUSH1 0x40 MLOAD PUSH3 0x461BCD PUSH1 0xE5 SHL DUP2 MSTORE PUSH1 0x20 PUSH1 0x4 DUP3 ADD MSTORE PUSH1 0x15 PUSH1 0x24 DUP3 ADD MSTORE PUSH32 0x53747564656E74206973206E6F74206163746976650000000000000000000000 PUSH1 0x44 DUP3 ADD MSTORE REVERT JUMPDEST ISZERO PUSH2 0x3258 JUMPI JUMP JUMPDEST PUSH1 0x64 PUSH1 0x40 MLOAD PUSH3 0x461BCD PUSH1 0xE5 SHL DUP2 MSTORE PUSH1 0x20 PUSH1 0x4 DUP3 ADD MSTORE PUSH1 0x15 PUSH1 0x24 DUP3 ADD MSTORE PUSH32 0x436F7572736520646F6573206E6F742065786973740000000000000000000000 PUSH1 0x44 DUP3 ADD MSTORE REVERT JUMPDEST ISZERO PUSH2 0x32A3 JUMPI JUMP JUMPDEST PUSH1 0x64 PUSH1 0x40 MLOAD PUSH3 0x461BCD PUSH1 0xE5 SHL DUP2 MSTORE PUSH1 0x20 PUSH1 0x4 DUP3 ADD MSTORE PUSH1 0x14 PUSH1 0x24 DUP3 ADD MSTORE PUSH32 0x436F75727365206973206E6F7420616374697665000000000000000000000000 PUSH1 0x44 DUP3 ADD MSTORE REVERT JUMPDEST PUSH1 0x40 MLOAD SWAP1 PUSH2 0x32F4 DUP3 PUSH2 0x2C4D JUMP JUMPDEST DUP2 PUSH2 0x180 PUSH1 0x0 SWAP2 DUP3 DUP2 MSTORE DUP3 PUSH1 0x20 DUP3 ADD MSTORE PUSH1 0x60 SWAP3 DUP4 PUSH1 0x40 DUP4 ADD MSTORE DUP4 DUP1 DUP4 ADD MSTORE DUP4 PUSH1 0x80 DUP4 ADD MSTORE DUP4 PUSH1 0xA0 DUP4 ADD MSTORE DUP4 PUSH1 0xC0 DUP4 ADD MSTORE DUP1 PUSH1 0xE0 DUP4 ADD MSTORE DUP1 PUSH2 0x100 DUP4 ADD MSTORE DUP1 PUSH2 0x120 DUP4 ADD MSTORE PUSH2 0x140 DUP3 ADD MSTORE DUP3 PUSH2 0x160 DUP3 ADD MSTORE ADD MSTORE JUMP INVALID LOG2 PUSH5 0x6970667358 0x22 SLT KECCAK256 CREATE 0xB9 PUSH7 0x3822815ABBAE41 SHL 0xA5 0xC1 0xC4 SWAP3 0xB0 0xB7 GT 0xFC DIV 0x21 0xCB 0xDC NOT POP 0xC2 ADD DUP16 0x24 0x1E 0x4E SLOAD PUSH5 0x736F6C6343 STOP ADDMOD EQ STOP CALLER 0x2F DUP8 DUP9 GT PUSH31 0x7EFF1D82E926EC794901D17C78024A50270940304540A733656F0D00000000 "},"methodIdentifiers":{"ADMIN_ROLE()":"75b238fc","DEFAULT_ADMIN_ROLE()":"a217fddf","REGISTRAR_ROLE()":"f68e9553","VERIFIER_ROLE()":"e7705db6","addressToStudentId(address)":"86c34415","courses(uint256)":"96f979d2","createCourse(string,string,string,uint256,string)":"5d5aa72e","deactivateCourse(uint256)":"ac85495d","deactivateStudent(uint256)":"f6370c9e","enrollStudent(uint256,uint256)":"148e0f06","getCourse(uint256)":"0b91e28d","getRoleAdmin(bytes32)":"248a9ca3","getStudent(uint256)":"642f9163","getStudentByAddress(address)":"9f3da5cc","getTotalCourses()":"d4cba21c","getTotalStudents()":"28bcb51a","graduateStudent(uint256,string)":"a018cbb1","grantRole(bytes32,address)":"2f2ff15d","hasRole(bytes32,address)":"91d14854","isStudentRegistered(address)":"b8b2e42c","pause()":"8456cb59","paused()":"5c975abb","registerStudent(address,string,string,string,string,string)":"92ede6d0","registeredStudents(address)":"6ea2f53c","renounceRole(bytes32,address)":"36568abe","revokeRole(bytes32,address)":"d547741f","students(uint256)":"06ead22e","supportsInterface(bytes4)":"01ffc9a7","unpause()":"3f4ba83a","updateCourse(uint256,string,string,uint256)":"91aac065","updateStudent(uint256,string,string,string,string)":"bffa52e9","usedStudentNumbers(string)":"f3d4efa6"}}}}}