{"contracts/CertificateNFT.sol":{"CertificateNFT":{"abi":[{"inputs":[],"stateMutability":"nonpayable","type":"constructor"},{"inputs":[],"name":"AccessControlBadConfirmation","type":"error"},{"inputs":[{"internalType":"address","name":"account","type":"address"},{"internalType":"bytes32","name":"neededRole","type":"bytes32"}],"name":"AccessControlUnauthorizedAccount","type":"error"},{"inputs":[{"internalType":"address","name":"sender","type":"address"},{"internalType":"uint256","name":"tokenId","type":"uint256"},{"internalType":"address","name":"owner","type":"address"}],"name":"ERC721IncorrectOwner","type":"error"},{"inputs":[{"internalType":"address","name":"operator","type":"address"},{"internalType":"uint256","name":"tokenId","type":"uint256"}],"name":"ERC721InsufficientApproval","type":"error"},{"inputs":[{"internalType":"address","name":"approver","type":"address"}],"name":"ERC721InvalidApprover","type":"error"},{"inputs":[{"internalType":"address","name":"operator","type":"address"}],"name":"ERC721InvalidOperator","type":"error"},{"inputs":[{"internalType":"address","name":"owner","type":"address"}],"name":"ERC721InvalidOwner","type":"error"},{"inputs":[{"internalType":"address","name":"receiver","type":"address"}],"name":"ERC721InvalidReceiver","type":"error"},{"inputs":[{"internalType":"address","name":"sender","type":"address"}],"name":"ERC721InvalidSender","type":"error"},{"inputs":[{"internalType":"uint256","name":"tokenId","type":"uint256"}],"name":"ERC721NonexistentToken","type":"error"},{"inputs":[],"name":"EnforcedPause","type":"error"},{"inputs":[],"name":"ExpectedPause","type":"error"},{"anonymous":false,"inputs":[{"indexed":true,"internalType":"address","name":"owner","type":"address"},{"indexed":true,"internalType":"address","name":"approved","type":"address"},{"indexed":true,"internalType":"uint256","name":"tokenId","type":"uint256"}],"name":"Approval","type":"event"},{"anonymous":false,"inputs":[{"indexed":true,"internalType":"address","name":"owner","type":"address"},{"indexed":true,"internalType":"address","name":"operator","type":"address"},{"indexed":false,"internalType":"bool","name":"approved","type":"bool"}],"name":"ApprovalForAll","type":"event"},{"anonymous":false,"inputs":[{"indexed":false,"internalType":"uint256","name":"_fromTokenId","type":"uint256"},{"indexed":false,"internalType":"uint256","name":"_toTokenId","type":"uint256"}],"name":"BatchMetadataUpdate","type":"event"},{"anonymous":false,"inputs":[{"indexed":true,"internalType":"uint256","name":"tokenId","type":"uint256"},{"indexed":true,"internalType":"address","name":"student","type":"address"},{"indexed":true,"internalType":"string","name":"courseName","type":"string"},{"indexed":false,"internalType":"string","name":"studentName","type":"string"},{"indexed":false,"internalType":"string","name":"grade","type":"string"},{"indexed":false,"internalType":"string","name":"ipfsHash","type":"string"},{"indexed":false,"internalType":"uint256","name":"timestamp","type":"uint256"}],"name":"CertificateIssued","type":"event"},{"anonymous":false,"inputs":[{"indexed":true,"internalType":"uint256","name":"tokenId","type":"uint256"},{"indexed":true,"internalType":"string","name":"cid","type":"string"},{"indexed":true,"internalType":"address","name":"student","type":"address"}],"name":"CertificateMetadataStored","type":"event"},{"anonymous":false,"inputs":[{"indexed":true,"internalType":"uint256","name":"tokenId","type":"uint256"},{"indexed":true,"internalType":"address","name":"student","type":"address"},{"indexed":true,"internalType":"address","name":"admin","type":"address"}],"name":"CertificateRevoked","type":"event"},{"anonymous":false,"inputs":[{"indexed":true,"internalType":"uint256","name":"tokenId","type":"uint256"},{"indexed":false,"internalType":"bool","name":"isValid","type":"bool"}],"name":"CertificateVerified","type":"event"},{"anonymous":false,"inputs":[{"indexed":false,"internalType":"uint256","name":"_tokenId","type":"uint256"}],"name":"MetadataUpdate","type":"event"},{"anonymous":false,"inputs":[{"indexed":false,"internalType":"address","name":"account","type":"address"}],"name":"Paused","type":"event"},{"anonymous":false,"inputs":[{"indexed":true,"internalType":"bytes32","name":"role","type":"bytes32"},{"indexed":true,"internalType":"bytes32","name":"previousAdminRole","type":"bytes32"},{"indexed":true,"internalType":"bytes32","name":"newAdminRole","type":"bytes32"}],"name":"RoleAdminChanged","type":"event"},{"anonymous":false,"inputs":[{"indexed":true,"internalType":"bytes32","name":"role","type":"bytes32"},{"indexed":true,"internalType":"address","name":"account","type":"address"},{"indexed":true,"internalType":"address","name":"sender","type":"address"}],"name":"RoleGranted","type":"event"},{"anonymous":false,"inputs":[{"indexed":true,"internalType":"bytes32","name":"role","type":"bytes32"},{"indexed":true,"internalType":"address","name":"account","type":"address"},{"indexed":true,"internalType":"address","name":"sender","type":"address"}],"name":"RoleRevoked","type":"event"},{"anonymous":false,"inputs":[{"indexed":true,"internalType":"uint256","name":"tokenId","type":"uint256"},{"indexed":true,"internalType":"address","name":"student","type":"address"},{"indexed":true,"internalType":"string","name":"serialNo","type":"string"},{"indexed":false,"internalType":"string","name":"memoNo","type":"string"},{"indexed":false,"internalType":"string","name":"regdNo","type":"string"},{"indexed":false,"internalType":"string","name":"branch","type":"string"},{"indexed":false,"internalType":"string","name":"examination","type":"string"},{"indexed":false,"internalType":"uint256","name":"sgpa","type":"uint256"},{"indexed":false,"internalType":"uint256","name":"timestamp","type":"uint256"}],"name":"SemesterCertificateIssued","type":"event"},{"anonymous":false,"inputs":[{"indexed":true,"internalType":"uint256","name":"tokenId","type":"uint256"},{"indexed":true,"internalType":"address","name":"student","type":"address"},{"indexed":true,"internalType":"address","name":"admin","type":"address"}],"name":"SemesterCertificateRevoked","type":"event"},{"anonymous":false,"inputs":[{"indexed":true,"internalType":"address","name":"from","type":"address"},{"indexed":true,"internalType":"address","name":"to","type":"address"},{"indexed":true,"internalType":"uint256","name":"tokenId","type":"uint256"}],"name":"Transfer","type":"event"},{"anonymous":false,"inputs":[{"indexed":false,"internalType":"address","name":"account","type":"address"}],"name":"Unpaused","type":"event"},{"inputs":[],"name":"ADMIN_ROLE","outputs":[{"internalType":"bytes32","name":"","type":"bytes32"}],"stateMutability":"view","type":"function"},{"inputs":[],"name":"DEFAULT_ADMIN_ROLE","outputs":[{"internalType":"bytes32","name":"","type":"bytes32"}],"stateMutability":"view","type":"function"},{"inputs":[],"name":"MINTER_ROLE","outputs":[{"internalType":"bytes32","name":"","type":"bytes32"}],"stateMutability":"view","type":"function"},{"inputs":[{"internalType":"address","name":"to","type":"address"},{"internalType":"uint256","name":"tokenId","type":"uint256"}],"name":"approve","outputs":[],"stateMutability":"nonpayable","type":"function"},{"inputs":[{"internalType":"address","name":"owner","type":"address"}],"name":"balanceOf","outputs":[{"internalType":"uint256","name":"","type":"uint256"}],"stateMutability":"view","type":"function"},{"inputs":[{"components":[{"internalType":"string","name":"courseCode","type":"string"},{"internalType":"string","name":"courseTitle","type":"string"},{"internalType":"string","name":"gradeSecured","type":"string"},{"internalType":"uint256","name":"gradePoints","type":"uint256"},{"internalType":"string","name":"status","type":"string"},{"internalType":"uint256","name":"creditsObtained","type":"uint256"}],"internalType":"struct CertificateNFT.Course[]","name":"courses","type":"tuple[]"}],"name":"calculateSGPA","outputs":[{"internalType":"uint256","name":"","type":"uint256"}],"stateMutability":"pure","type":"function"},{"inputs":[{"internalType":"uint256","name":"","type":"uint256"}],"name":"certificates","outputs":[{"internalType":"string","name":"studentName","type":"string"},{"internalType":"string","name":"courseName","type":"string"},{"internalType":"string","name":"grade","type":"string"},{"internalType":"string","name":"ipfsHash","type":"string"},{"internalType":"string","name":"department","type":"string"},{"internalType":"uint256","name":"issueDate","type":"uint256"},{"internalType":"bool","name":"isRevoked","type":"bool"},{"internalType":"address","name":"issuer","type":"address"}],"stateMutability":"view","type":"function"},{"inputs":[{"internalType":"string","name":"","type":"string"}],"name":"cidToTokenId","outputs":[{"internalType":"uint256","name":"","type":"uint256"}],"stateMutability":"view","type":"function"},{"inputs":[{"internalType":"uint256","name":"tokenId","type":"uint256"}],"name":"getApproved","outputs":[{"internalType":"address","name":"","type":"address"}],"stateMutability":"view","type":"function"},{"inputs":[{"internalType":"uint256","name":"tokenId","type":"uint256"}],"name":"getCIDByTokenId","outputs":[{"internalType":"string","name":"","type":"string"}],"stateMutability":"view","type":"function"},{"inputs":[{"internalType":"uint256","name":"tokenId","type":"uint256"}],"name":"getCertificateData","outputs":[{"components":[{"internalType":"string","name":"studentName","type":"string"},{"internalType":"string","name":"courseName","type":"string"},{"internalType":"string","name":"grade","type":"string"},{"internalType":"string","name":"ipfsHash","type":"string"},{"internalType":"string","name":"department","type":"string"},{"internalType":"uint256","name":"issueDate","type":"uint256"},{"internalType":"bool","name":"isRevoked","type":"bool"},{"internalType":"address","name":"issuer","type":"address"}],"internalType":"struct CertificateNFT.CertificateData","name":"","type":"tuple"}],"stateMutability":"view","type":"function"},{"inputs":[{"internalType":"bytes32","name":"role","type":"bytes32"}],"name":"getRoleAdmin","outputs":[{"internalType":"bytes32","name":"","type":"bytes32"}],"stateMutability":"view","type":"function"},{"inputs":[{"internalType":"uint256","name":"tokenId","type":"uint256"}],"name":"getSemesterCertificate","outputs":[{"components":[{"internalType":"string","name":"studentName","type":"string"},{"internalType":"string","name":"serialNo","type":"string"},{"internalType":"string","name":"memoNo","type":"string"},{"internalType":"string","name":"regdNo","type":"string"},{"internalType":"string","name":"branch","type":"string"},{"internalType":"string","name":"examination","type":"string"},{"internalType":"string","name":"monthYearExams","type":"string"},{"internalType":"string","name":"aadharNo","type":"string"},{"internalType":"string","name":"studentPhoto","type":"string"},{"components":[{"internalType":"string","name":"courseCode","type":"string"},{"internalType":"string","name":"courseTitle","type":"string"},{"internalType":"string","name":"gradeSecured","type":"string"},{"internalType":"uint256","name":"gradePoints","type":"uint256"},{"internalType":"string","name":"status","type":"string"},{"internalType":"uint256","name":"creditsObtained","type":"uint256"}],"internalType":"struct CertificateNFT.Course[]","name":"courses","type":"tuple[]"},{"internalType":"uint256","name":"totalCredits","type":"uint256"},{"internalType":"uint256","name":"sgpa","type":"uint256"},{"internalType":"string","name":"mediumOfInstruction","type":"string"},{"internalType":"uint256","name":"issueDate","type":"uint256"},{"internalType":"address","name":"issuer","type":"address"},{"internalType":"bool","name":"isRevoked","type":"bool"}],"internalType":"struct CertificateNFT.SemesterCertificate","name":"","type":"tuple"}],"stateMutability":"view","type":"function"},{"inputs":[{"internalType":"address","name":"student","type":"address"}],"name":"getStudentCertificates","outputs":[{"internalType":"uint256[]","name":"","type":"uint256[]"}],"stateMutability":"view","type":"function"},{"inputs":[{"internalType":"address","name":"student","type":"address"}],"name":"getStudentSemesterCertificates","outputs":[{"internalType":"uint256[]","name":"","type":"uint256[]"}],"stateMutability":"view","type":"function"},{"inputs":[{"internalType":"string","name":"cid","type":"string"}],"name":"getTokenIdByCID","outputs":[{"internalType":"uint256","name":"","type":"uint256"}],"stateMutability":"view","type":"function"},{"inputs":[{"internalType":"bytes32","name":"role","type":"bytes32"},{"internalType":"address","name":"account","type":"address"}],"name":"grantRole","outputs":[],"stateMutability":"nonpayable","type":"function"},{"inputs":[{"internalType":"bytes32","name":"role","type":"bytes32"},{"internalType":"address","name":"account","type":"address"}],"name":"hasRole","outputs":[{"internalType":"bool","name":"","type":"bool"}],"stateMutability":"view","type":"function"},{"inputs":[{"internalType":"address","name":"owner","type":"address"},{"internalType":"address","name":"operator","type":"address"}],"name":"isApprovedForAll","outputs":[{"internalType":"bool","name":"","type":"bool"}],"stateMutability":"view","type":"function"},{"inputs":[{"internalType":"string","name":"memoNo","type":"string"}],"name":"isMemoNumberUsed","outputs":[{"internalType":"bool","name":"","type":"bool"}],"stateMutability":"view","type":"function"},{"inputs":[{"internalType":"string","name":"serialNo","type":"string"}],"name":"isSerialNumberUsed","outputs":[{"internalType":"bool","name":"","type":"bool"}],"stateMutability":"view","type":"function"},{"inputs":[{"internalType":"address","name":"student","type":"address"},{"internalType":"string","name":"courseName","type":"string"},{"internalType":"string","name":"grade","type":"string"},{"internalType":"string","name":"ipfsHash","type":"string"}],"name":"mintCertificate","outputs":[{"internalType":"uint256","name":"","type":"uint256"}],"stateMutability":"nonpayable","type":"function"},{"inputs":[{"internalType":"address","name":"student","type":"address"},{"internalType":"string","name":"serialNo","type":"string"},{"internalType":"string","name":"memoNo","type":"string"},{"components":[{"internalType":"string","name":"studentName","type":"string"},{"internalType":"string","name":"serialNo","type":"string"},{"internalType":"string","name":"memoNo","type":"string"},{"internalType":"string","name":"regdNo","type":"string"},{"internalType":"string","name":"branch","type":"string"},{"internalType":"string","name":"examination","type":"string"},{"internalType":"string","name":"monthYearExams","type":"string"},{"internalType":"string","name":"aadharNo","type":"string"},{"internalType":"string","name":"studentPhoto","type":"string"},{"components":[{"internalType":"string","name":"courseCode","type":"string"},{"internalType":"string","name":"courseTitle","type":"string"},{"internalType":"string","name":"gradeSecured","type":"string"},{"internalType":"uint256","name":"gradePoints","type":"uint256"},{"internalType":"string","name":"status","type":"string"},{"internalType":"uint256","name":"creditsObtained","type":"uint256"}],"internalType":"struct CertificateNFT.Course[]","name":"courses","type":"tuple[]"},{"internalType":"uint256","name":"totalCredits","type":"uint256"},{"internalType":"uint256","name":"sgpa","type":"uint256"},{"internalType":"string","name":"mediumOfInstruction","type":"string"},{"internalType":"uint256","name":"issueDate","type":"uint256"},{"internalType":"address","name":"issuer","type":"address"},{"internalType":"bool","name":"isRevoked","type":"bool"}],"internalType":"struct CertificateNFT.SemesterCertificate","name":"certData","type":"tuple"}],"name":"mintSemesterCertificate","outputs":[{"internalType":"uint256","name":"","type":"uint256"}],"stateMutability":"nonpayable","type":"function"},{"inputs":[],"name":"name","outputs":[{"internalType":"string","name":"","type":"string"}],"stateMutability":"view","type":"function"},{"inputs":[{"internalType":"uint256","name":"tokenId","type":"uint256"}],"name":"ownerOf","outputs":[{"internalType":"address","name":"","type":"address"}],"stateMutability":"view","type":"function"},{"inputs":[],"name":"pause","outputs":[],"stateMutability":"nonpayable","type":"function"},{"inputs":[],"name":"paused","outputs":[{"internalType":"bool","name":"","type":"bool"}],"stateMutability":"view","type":"function"},{"inputs":[{"internalType":"bytes32","name":"role","type":"bytes32"},{"internalType":"address","name":"callerConfirmation","type":"address"}],"name":"renounceRole","outputs":[],"stateMutability":"nonpayable","type":"function"},{"inputs":[{"internalType":"uint256","name":"tokenId","type":"uint256"}],"name":"revokeCertificate","outputs":[],"stateMutability":"nonpayable","type":"function"},{"inputs":[{"internalType":"bytes32","name":"role","type":"bytes32"},{"internalType":"address","name":"account","type":"address"}],"name":"revokeRole","outputs":[],"stateMutability":"nonpayable","type":"function"},{"inputs":[{"internalType":"uint256","name":"tokenId","type":"uint256"}],"name":"revokeSemesterCertificate","outputs":[],"stateMutability":"nonpayable","type":"function"},{"inputs":[{"internalType":"address","name":"from","type":"address"},{"internalType":"address","name":"to","type":"address"},{"internalType":"uint256","name":"tokenId","type":"uint256"}],"name":"safeTransferFrom","outputs":[],"stateMutability":"nonpayable","type":"function"},{"inputs":[{"internalType":"address","name":"from","type":"address"},{"internalType":"address","name":"to","type":"address"},{"internalType":"uint256","name":"tokenId","type":"uint256"},{"internalType":"bytes","name":"data","type":"bytes"}],"name":"safeTransferFrom","outputs":[],"stateMutability":"nonpayable","type":"function"},{"inputs":[{"internalType":"uint256","name":"","type":"uint256"}],"name":"semesterCertificates","outputs":[{"internalType":"string","name":"studentName","type":"string"},{"internalType":"string","name":"serialNo","type":"string"},{"internalType":"string","name":"memoNo","type":"string"},{"internalType":"string","name":"regdNo","type":"string"},{"internalType":"string","name":"branch","type":"string"},{"internalType":"string","name":"examination","type":"string"},{"internalType":"string","name":"monthYearExams","type":"string"},{"internalType":"string","name":"aadharNo","type":"string"},{"internalType":"string","name":"studentPhoto","type":"string"},{"internalType":"uint256","name":"totalCredits","type":"uint256"},{"internalType":"uint256","name":"sgpa","type":"uint256"},{"internalType":"string","name":"mediumOfInstruction","type":"string"},{"internalType":"uint256","name":"issueDate","type":"uint256"},{"internalType":"address","name":"issuer","type":"address"},{"internalType":"bool","name":"isRevoked","type":"bool"}],"stateMutability":"view","type":"function"},{"inputs":[{"internalType":"address","name":"operator","type":"address"},{"internalType":"bool","name":"approved","type":"bool"}],"name":"setApprovalForAll","outputs":[],"stateMutability":"nonpayable","type":"function"},{"inputs":[{"internalType":"string","name":"baseURI","type":"string"}],"name":"setBaseURI","outputs":[],"stateMutability":"nonpayable","type":"function"},{"inputs":[{"internalType":"address","name":"","type":"address"},{"internalType":"uint256","name":"","type":"uint256"}],"name":"studentCertificates","outputs":[{"internalType":"uint256","name":"","type":"uint256"}],"stateMutability":"view","type":"function"},{"inputs":[{"internalType":"address","name":"","type":"address"},{"internalType":"uint256","name":"","type":"uint256"}],"name":"studentSemesterCerts","outputs":[{"internalType":"uint256","name":"","type":"uint256"}],"stateMutability":"view","type":"function"},{"inputs":[{"internalType":"bytes4","name":"interfaceId","type":"bytes4"}],"name":"supportsInterface","outputs":[{"internalType":"bool","name":"","type":"bool"}],"stateMutability":"view","type":"function"},{"inputs":[],"name":"symbol","outputs":[{"internalType":"string","name":"","type":"string"}],"stateMutability":"view","type":"function"},{"inputs":[{"internalType":"uint256","name":"","type":"uint256"}],"name":"tokenIdToCID","outputs":[{"internalType":"string","name":"","type":"string"}],"stateMutability":"view","type":"function"},{"inputs":[{"internalType":"uint256","name":"tokenId","type":"uint256"}],"name":"tokenURI","outputs":[{"internalType":"string","name":"","type":"string"}],"stateMutability":"view","type":"function"},{"inputs":[{"internalType":"address","name":"from","type":"address"},{"internalType":"address","name":"to","type":"address"},{"internalType":"uint256","name":"tokenId","type":"uint256"}],"name":"transferFrom","outputs":[],"stateMutability":"nonpayable","type":"function"},{"inputs":[],"name":"unpause","outputs":[],"stateMutability":"nonpayable","type":"function"},{"inputs":[{"internalType":"uint256","name":"tokenId","type":"uint256"},{"internalType":"string","name":"studentName","type":"string"},{"internalType":"string","name":"department","type":"string"}],"name":"updateCertificateDetails","outputs":[],"stateMutability":"nonpayable","type":"function"},{"inputs":[{"internalType":"uint256","name":"tokenId","type":"uint256"},{"internalType":"string","name":"studentPhoto","type":"string"}],"name":"updateSemesterCertificatePhoto","outputs":[],"stateMutability":"nonpayable","type":"function"},{"inputs":[{"internalType":"string","name":"","type":"string"}],"name":"usedHashes","outputs":[{"internalType":"bool","name":"","type":"bool"}],"stateMutability":"view","type":"function"},{"inputs":[{"internalType":"string","name":"","type":"string"}],"name":"usedMemoNumbers","outputs":[{"internalType":"bool","name":"","type":"bool"}],"stateMutability":"view","type":"function"},{"inputs":[{"internalType":"string","name":"","type":"string"}],"name":"usedSerialNumbers","outputs":[{"internalType":"bool","name":"","type":"bool"}],"stateMutability":"view","type":"function"},{"inputs":[{"internalType":"uint256","name":"tokenId","type":"uint256"}],"name":"verifyCertificate","outputs":[{"components":[{"internalType":"string","name":"studentName","type":"string"},{"internalType":"string","name":"courseName","type":"string"},{"internalType":"string","name":"grade","type":"string"},{"internalType":"string","name":"ipfsHash","type":"string"},{"internalType":"string","name":"department","type":"string"},{"internalType":"uint256","name":"issueDate","type":"uint256"},{"internalType":"bool","name":"isRevoked","type":"bool"},{"internalType":"address","name":"issuer","type":"address"}],"internalType":"struct CertificateNFT.CertificateData","name":"certificateData","type":"tuple"},{"internalType":"bool","name":"isValid","type":"bool"}],"stateMutability":"view","type":"function"},{"inputs":[{"internalType":"uint256","name":"tokenId","type":"uint256"}],"name":"verifySemesterCertificate","outputs":[{"components":[{"internalType":"string","name":"studentName","type":"string"},{"internalType":"string","name":"serialNo","type":"string"},{"internalType":"string","name":"memoNo","type":"string"},{"internalType":"string","name":"regdNo","type":"string"},{"internalType":"string","name":"branch","type":"string"},{"internalType":"string","name":"examination","type":"string"},{"internalType":"string","name":"monthYearExams","type":"string"},{"internalType":"string","name":"aadharNo","type":"string"},{"internalType":"string","name":"studentPhoto","type":"string"},{"components":[{"internalType":"string","name":"courseCode","type":"string"},{"internalType":"string","name":"courseTitle","type":"string"},{"internalType":"string","name":"gradeSecured","type":"string"},{"internalType":"uint256","name":"gradePoints","type":"uint256"},{"internalType":"string","name":"status","type":"string"},{"internalType":"uint256","name":"creditsObtained","type":"uint256"}],"internalType":"struct CertificateNFT.Course[]","name":"courses","type":"tuple[]"},{"internalType":"uint256","name":"totalCredits","type":"uint256"},{"internalType":"uint256","name":"sgpa","type":"uint256"},{"internalType":"string","name":"mediumOfInstruction","type":"string"},{"internalType":"uint256","name":"issueDate","type":"uint256"},{"internalType":"address","name":"issuer","type":"address"},{"internalType":"bool","name":"isRevoked","type":"bool"}],"internalType":"struct CertificateNFT.SemesterCertificate","name":"certificateData","type":"tuple"},{"internalType":"bool","name":"isValid","type":"bool"}],"stateMutability":"view","type":"function"}],"evm":{"bytecode":{"linkReferences":{},"object":"60803462000346576001600160401b0390604090808201838111828210176200033057825260128152602092715669676e616e20436572746966696361746560701b848301528251838101818110838211176200033057845260068152652b24a3a720a760d11b85820152825190828211620003305760008054926001958685811c9516801562000325575b8986101462000311578190601f95868111620002be575b5089908683116001146200025a5784926200024e575b5050600019600383901b1c191690861b1781555b81519384116200023a5784548581811c911680156200022f575b888210146200021b57838111620001d3575b50869284116001146200016d5783949596509262000161575b5050600019600383901b1c191690821b1790555b60ff19600854166008556200013a336200034b565b506200014633620003cc565b5062000152336200046f565b505161596b90816200050e8239f35b01519050388062000111565b9190601f1984169685845280842093905b888210620001bb5750508385969710620001a1575b505050811b01905562000125565b015160001960f88460031b161c1916905538808062000193565b8087859682949686015181550195019301906200017e565b8582528782208480870160051c8201928a881062000211575b0160051c019086905b82811062000205575050620000f8565b838155018690620001f5565b92508192620001ec565b634e487b7160e01b82526022600452602482fd5b90607f1690620000e6565b634e487b7160e01b81526041600452602490fd5b015190503880620000b8565b8480528a85208994509190601f198416865b8d828210620002a757505084116200028d575b505050811b018155620000cc565b015160001960f88460031b161c191690553880806200027f565b8385015186558c979095019493840193016200026c565b9091508380528984208680850160051c8201928c861062000307575b918a91869594930160051c01915b828110620002f8575050620000a2565b8681558594508a9101620002e8565b92508192620002da565b634e487b7160e01b83526022600452602483fd5b94607f16946200008b565b634e487b7160e01b600052604160045260246000fd5b600080fd5b6001600160a01b031660008181527f6d5257204ebe7d88fd91ae87941cb2dd9d8062b64ae5a2bd2d28ec40b9fbf6df602052604081205490919060ff16620003c85781805260076020526040822081835260205260408220600160ff19825416179055339160008051602062005e798339815191528180a4600190565b5090565b6001600160a01b031660008181527fa70365933f78520ef41d6645ba61e509916296603327302d41466c063e8e260860205260408120549091907fa49807205ce4d355092ef5a8a18f56e8913cf4a201fbe287825b095693c217759060ff166200046a5780835260076020526040832082845260205260408320600160ff1982541617905560008051602062005e79833981519152339380a4600190565b505090565b6001600160a01b031660008181527fa4bfd7afe708e2e87e7f0e2ad9b4d545417e0f795f57b5c5ab5d799c565a04f460205260408120549091907f9f2df0fed2c77648de5860a4cc508cd0818c85b8b8a1ab4ceeef8d981c8956a69060ff166200046a5780835260076020526040832082845260205260408320600160ff1982541617905560008051602062005e79833981519152339380a460019056fe608080604052600436101561001357600080fd5b60003560e01c90816301ffc9a714613fcb5750806306f5497e14613f1d57806306fdde0314613e7a578063081812fc14613e3b578063095ea7b314613d3a5780631692a94214613d075780631f7ca1441461057d57806320d993b714613bba57806322f79faf14613b8e578063234f8d6714613af957806323b872dd14613b77578063248a9ca314613b485780632b0ec45e14613af95780632b62a74c14613a315780632f2ff15d146139f257806331494bbb1461391257806336568abe146138b35780633b01aa481461383b5780633f4ba83a146137b95780634055e0e114611f1857806342842e0e14611eea5780635153a7d214611d4e57806355f804b314611bd45780635c975abb14611bb15780636352211e14611b82578063663b3e2214611a99578063682c9a5914611a0357806370a082311461199257806375b238fc146119575780638456cb59146118fd57806391d14854146118af578063929c01fd14610d5b57806395d89b4114610c905780639d093afa146109dd578063a217fddf146109c1578063a22cb465146108fb578063a6f569fc146108b8578063b88d4fde1461084d578063b8dcf6c814610805578063ba4ba549146107a3578063bd1f5f3114610754578063c2e673391461070a578063c3934f0e146106b4578063c87b56dd1461065b578063d539139314610620578063d547741f146105df578063de7c3a391461057d578063e985e9c514610526578063ebc63bc0146104a2578063f31a9d17146102945763fe8aa2c51461025057600080fd5b3461028f57602036600319011261028f5761028361026f600435615745565b604051928392604084526040840190614592565b90151560208301520390f35b600080fd5b3461028f57602036600319011261028f576004356102b06156d0565b508060005260026020526102d36001600160a01b03604060002054161515615540565b600052601060205260406000206040516102ec8161420c565b6102f58261432e565b81526103036001830161432e565b60208201526103146002830161432e565b60408201526103256003830161432e565b60608201526103366004830161432e565b60808201526103476005830161432e565b60a08201526103586006830161432e565b60c08201526103696007830161432e565b60e082015261037a6008830161432e565b61010082015260098201805461038f81614444565b9161039d6040519384614261565b818352602083019060005260206000206000915b8383106104315761042d8660ff600e8a89610120850152600a810154610140850152600b8101546101608501526103ea600c820161432e565b610180850152600d8101546101a085015201546001600160a01b0381166101c084015260a01c1615156101e0820152604051918291602083526020830190614592565b0390f35b6006602060019260405161044481614229565b61044d8661432e565b815261045a85870161432e565b8382015261046a6002870161432e565b6040820152600386015460608201526104856004870161432e565b6080820152600586015460a08201528152019201920191906103b1565b3461028f5760208060031936011261028f576001600160a01b036104c4614130565b16600052600c8152604060002090604051908181845491828152019360005281600020916000905b82821061050f5761042d8561050381890382614261565b60405191829182614409565b8354865294850194600193840193909101906104ec565b3461028f57604036600319011261028f5761053f614130565b610547614146565b906001600160a01b03809116600052600560205260406000209116600052602052602060ff604060002054166040519015158152f35b3461028f57602036600319011261028f5760043567ffffffffffffffff811161028f5760ff6105c960206105b6819436906004016142d6565b81604051938285809451938492016140e8565b8101601381520301902054166040519015158152f35b3461028f57604036600319011261028f5761061e6004356105fe614146565b90806000526007602052610619600160406000200154614873565b61491a565b005b3461028f57600036600319011261028f5760206040517f9f2df0fed2c77648de5860a4cc508cd0818c85b8b8a1ab4ceeef8d981c8956a68152f35b3461028f57602036600319011261028f5760043561067881614b67565b50600052600660205261042d610691604060002061432e565b600060405161069f81614245565b5260405191829160208352602083019061410b565b3461028f57604036600319011261028f576106cd614130565b6001600160a01b036024359116600052600c6020526040600020805482101561028f576020916106fc9161457a565b90546040519160031b1c8152f35b3461028f57602036600319011261028f5760043567ffffffffffffffff811161028f5761074160206105b6819336906004016142d6565b8101600f81520301902054604051908152f35b3461028f57602036600319011261028f5760043567ffffffffffffffff811161028f5760ff61078d60206105b6819436906004016142d6565b8101600d81520301902054166040519015158152f35b3461028f57602036600319011261028f576004358060005260026020526107d96001600160a01b03604060002054161515615540565b600052600e60205261042d6107f1604060002061432e565b60405191829160208352602083019061410b565b3461028f57604036600319011261028f5761081e614130565b6001600160a01b03602435911660005260116020526040600020805482101561028f576020916106fc9161457a565b3461028f57608036600319011261028f57610866614130565b61086e614146565b906044356064359267ffffffffffffffff841161028f573660238501121561028f576108a761061e94369060248160040135910161429f565b926108b3838383614992565b614ba2565b3461028f57602036600319011261028f5760043567ffffffffffffffff811161028f576108f36108ee602092369060040161445c565b6155ac565b604051908152f35b3461028f57604036600319011261028f57610914614130565b602435908115159081830361028f576001600160a01b0316918215610990576109629033600052600560205260406000208460005260205260406000209060ff801983541691151516179055565b6040519081527f17307eab39ab6107e8899845ad3d59bd9653f200f220920489ca2b5937696c3160203392a3005b602483604051907f5b08ba180000000000000000000000000000000000000000000000000000000082526004820152fd5b3461028f57600036600319011261028f57602060405160008152f35b3461028f57606036600319011261028f5767ffffffffffffffff60043560243582811161028f57610a129036906004016142d6565b9160443581811161028f57610a2b9036906004016142d6565b92610a34614784565b8260005260209260028452610a586001600160a01b036040600020541615156153a6565b80600052600b845260406000208251848111610bbb5780610a7983546142f4565b94601f95868111610c41575b508790868311600114610bdc57600092610bd1575b50508160011b916000199060031b1c19161790555b600052600b83526004604060002001928451928311610bbb57610ad284546142f4565b828111610b78575b5080918311600114610b155750819293600092610b0a575b5050600019600383901b1c191660019190911b179055005b015190508380610af2565b90601f198316948460005282600020926000905b878210610b60575050836001959610610b47575b505050811b019055005b015160001960f88460031b161c19169055838080610b3d565b80600185968294968601518155019501930190610b29565b84600052816000208380860160051c820192848710610bb2575b0160051c01905b818110610ba65750610ada565b60008155600101610b99565b92508192610b92565b634e487b7160e01b600052604160045260246000fd5b015190508880610a9a565b60008581528981209350601f198516905b8a828210610c2b575050908460019594939210610c12575b505050811b019055610aaf565b015160001960f88460031b161c19169055888080610c05565b6001859682939686015181550195019301610bed565b90915083600052876000208680850160051c8201928a8610610c87575b9085949392910160051c01905b818110610c785750610a85565b60008155849350600101610c6b565b92508192610c5e565b3461028f57600036600319011261028f5760405160006001805490610cb4826142f4565b80855291818116908115610d345750600114610cdb575b61042d846107f181860382614261565b600081815292507fb10e2d527612073b26eecdfd717e6a320cf44b4afac2b0732d9fcbe2b7fa0cf65b828410610d1c5750505081016020016107f182610ccb565b80546020858701810191909152909301928101610d04565b60ff191660208087019190915292151560051b850190920192506107f19150839050610ccb565b3461028f57608036600319011261028f57610d74614130565b60243567ffffffffffffffff811161028f57610d949036906004016142d6565b60443567ffffffffffffffff811161028f57610db49036906004016142d6565b9160643567ffffffffffffffff811161028f57610dd59036906004016142d6565b610ddd614817565b610de56151fb565b610df96001600160a01b0383161515614ce7565b82511561186b57835115611827578051156117e35760ff6040516020818451610e2581838589016140e8565b8101600d815203019020541661179f57610e40600954614d32565b9081600955604051610e51816141ef565b604051610e5d81614245565b600081528152846020820152856040820152816060820152604051610e8181614245565b6000815260808201524260a0820152600060c08201523360e082015282600052600b6020526040600020815180519067ffffffffffffffff8211610bbb578190610ecb84546142f4565b601f811161174f575b50602090601f83116001146116e9576000926116de575b50508160011b916000199060031b1c19161781555b602082015180519067ffffffffffffffff8211610bbb578190610f2660018501546142f4565b601f811161168b575b50602090601f83116001146116195760009261160e575b50508160011b916000199060031b1c19161760018201555b604082015180519067ffffffffffffffff8211610bbb578190610f8460028501546142f4565b601f81116115bb575b50602090601f83116001146115495760009261153e575b50508160011b916000199060031b1c19161760028201555b606082015180519067ffffffffffffffff8211610bbb578190610fe260038501546142f4565b601f81116114eb575b50602090601f831160011461147e57600092611473575b50508160011b916000199060031b1c19161760038201555b608082015180519067ffffffffffffffff8211610bbb5761103e60048401546142f4565b601f811161142c575b50602090601f83116001146113b757918060e094926006946000926113ac575b50508160011b916000199060031b1c19161760048201555b60a0840151600582015501916110a760c08201511515849060ff801983541691151516179055565b01517fffffffffffffffffffffff0000000000000000000000000000000000000000ff74ffffffffffffffffffffffffffffffffffffffff0083549260081b1691161790556001600160a01b038316600052600c60205261110c826040600020614d57565b604051602081835161112181838588016140e8565b8101600d815203019020600160ff198254161790556111408284614e40565b6111ae61114c83615231565b6111a86001604051809361116260208301614d91565b7f2f00000000000000000000000000000000000000000000000000000000000000815261119882518093602087850191016140e8565b0103601e19810184520182614261565b83615085565b81600052600e60205260406000209481519567ffffffffffffffff8711610bbb576111d981546142f4565b96601f8811611364575b6020975087601f82116001146112f55791816112b296979892611241946000916112ea575b508160011b916000199060031b1c19161790555b85604051898187516112318183858c016140e8565b8101600f81520301902055614e20565b90847f2242ed4813396c04bea58b1d1874b4edb999b043d0b6a9da1d585671d0802b3861129761128960405194608086526000608087015260a08c87015260a086019061410b565b84810360408601528661410b565b92426060820152806001600160a01b038a16940390a4614e20565b6001600160a01b03604051931690827f86a5b516ace10765a5d34d491bb7fde463026a048c1ae848b689cc5b00b7f0b8600080a48152f35b90508601518b611208565b82600052886000209060005b601f198416811061134d57508261124194926001926112b2999a9b95601f19811610611334575b5050811b01905561121c565b88015160001960f88460031b161c191690558b80611328565b90918a60018192858a015181550193019101611301565b816000526020600020601f820160051c810198602083106113a2575b601f0160051c01975b88811061139657506111e3565b60008155600101611389565b9098508890611380565b015190508b80611067565b906004840160005260206000209160005b601f198516811061141457509260e0949260019260069583601f198116106113fb575b505050811b01600482015561107f565b015160001960f88460031b161c191690558b80806113eb565b919260206001819286850151815501940192016113c8565b600484016000526020600020601f840160051c81016020851061146c575b601f830160051c82018110611460575050611047565b6000815560010161144a565b508061144a565b015190508980611002565b600385016000908152602081209350601f198516905b8181106114d357509084600195949392106114ba575b505050811b01600382015561101a565b015160001960f88460031b161c191690558980806114aa565b92936020600181928786015181550195019301611494565b909150600384016000526020600020601f840160051c810160208510611537575b90849392915b601f830160051c82018110611528575050610feb565b60008155859450600101611512565b508061150c565b015190508980610fa4565b9250600284016000526020600020906000935b601f19841685106115a0576001945083601f19811610611587575b505050811b016002820155610fbc565b015160001960f88460031b161c19169055898080611577565b8181015183556020948501946001909301929091019061155c565b909150600284016000526020600020601f840160051c810160208510611607575b90849392915b601f830160051c820181106115f8575050610f8d565b600081558594506001016115e2565b50806115dc565b015190508980610f46565b9250600184016000526020600020906000935b601f1984168510611670576001945083601f19811610611657575b505050811b016001820155610f5e565b015160001960f88460031b161c19169055898080611647565b8181015183556020948501946001909301929091019061162c565b909150600184016000526020600020601f840160051c8101602085106116d7575b90849392915b601f830160051c820181106116c8575050610f2f565b600081558594506001016116b2565b50806116ac565b015190508980610eeb565b6000858152602081209350601f198516905b818110611737575090846001959493921061171e575b505050811b018155610f00565b015160001960f88460031b161c19169055898080611711565b929360206001819287860151815501950193016116fb565b909150836000526020600020601f840160051c810160208510611798575b90849392915b601f830160051c82018110611789575050610ed4565b60008155859450600101611773565b508061176d565b606460405162461bcd60e51b815260206004820152601660248201527f49504653206861736820616c72656164792075736564000000000000000000006044820152fd5b606460405162461bcd60e51b815260206004820152601960248201527f4950465320686173682063616e6e6f7420626520656d707479000000000000006044820152fd5b606460405162461bcd60e51b815260206004820152601560248201527f47726164652063616e6e6f7420626520656d70747900000000000000000000006044820152fd5b606460405162461bcd60e51b815260206004820152601b60248201527f436f75727365206e616d652063616e6e6f7420626520656d70747900000000006044820152fd5b3461028f57604036600319011261028f576118c8614146565b60043560005260076020526001600160a01b0360406000209116600052602052602060ff604060002054166040519015158152f35b3461028f57600036600319011261028f57611916614784565b61191e6151fb565b600160ff1960085416176008557f62e78cea01bee320cd4e420270b5ea74000d11b0c9f74754ebdbfc544b05a2586020604051338152a1005b3461028f57600036600319011261028f5760206040517fa49807205ce4d355092ef5a8a18f56e8913cf4a201fbe287825b095693c217758152f35b3461028f57602036600319011261028f576001600160a01b036119b3614130565b1680156119d25760005260036020526020604060002054604051908152f35b60246040517f89c62b6400000000000000000000000000000000000000000000000000000000815260006004820152fd5b3461028f57602036600319011261028f5760043567ffffffffffffffff811161028f5760206105b6611a399236906004016142d6565b8101600f815203019020548015611a5557602090604051908152f35b606460405162461bcd60e51b815260206004820152600d60248201527f434944206e6f7420666f756e64000000000000000000000000000000000000006044820152fd5b3461028f57602036600319011261028f57600435600052600b602052611b2c6040600020611ac68161432e565b906001600160a01b03611adb6001830161432e565b611b64611aea6002850161432e565b611b56611af96003870161432e565b611b48611b086004890161432e565b93611b3a600660058b01549a0154976040519c8d9c8d61010090818152019061410b565b8c810360208e01529061410b565b908a820360408c015261410b565b9088820360608a015261410b565b90868203608088015261410b565b9260a085015260ff8116151560c085015260081c1660e08301520390f35b3461028f57602036600319011261028f576020611ba0600435614b67565b6001600160a01b0360405191168152f35b3461028f57600036600319011261028f57602060ff600854166040519015158152f35b3461028f5760208060031936011261028f5767ffffffffffffffff60043581811161028f57611c079036906004016142d6565b91611c10614784565b8251918211610bbb57611c24600a546142f4565b601f8111611cea575b5080601f8311600114611c6957508192600092611c5e575b5050600019600383901b1c191660019190911b17600a55005b015190508280611c45565b90601f19831693600a6000527fc65a7bb8d6351c1cf70c95a316cc6a92839c986682d98bc35f958f4883f9d2a8926000905b868210611cd25750508360019510611cb9575b505050811b01600a55005b015160001960f88460031b161c19169055828080611cae565b80600185968294968601518155019501930190611c9b565b600a6000527fc65a7bb8d6351c1cf70c95a316cc6a92839c986682d98bc35f958f4883f9d2a8601f840160051c810191838510611d44575b601f0160051c01905b818110611d385750611c2d565b60008155600101611d2b565b9091508190611d22565b3461028f57602036600319011261028f5760043560005260106020526040600020611d788161432e565b611d846001830161432e565b91611d916002820161432e565b611d9d6003830161432e565b611da96004840161432e565b611db56005850161432e565b90611dc26006860161432e565b611dce6007870161432e565b611dda6008880161432e565b91600a88015494600b89015494600c8a01611df49061432e565b97600d8b01549a600e0154996040519d8e809e6101e08083528201611e189161410b565b908082039060200152611e2a9161410b565b8d810360408f0152611e3b9161410b565b8c810360608e0152611e4c9161410b565b8b810360808d0152611e5d9161410b565b8a810360a08c0152611e6e9161410b565b89810360c08b0152611e7f9161410b565b88810360e08a0152611e909161410b565b878103610100890152611ea29161410b565b91610120870152610140860152848103610160860152611ec19161410b565b916101808401526001600160a01b0381166101a084015260a01c60ff1615156101c08301520390f35b3461028f5761061e611efb366143d4565b9060405192611f0984614245565b600084526108b3838383614992565b3461028f5760031960803682011261028f57611f32614130565b60243567ffffffffffffffff811161028f57611f529036906004016142d6565b60443567ffffffffffffffff811161028f57611f729036906004016142d6565b9260649067ffffffffffffffff82351161028f576102009082353603011261028f5760405190611fa18261420c565b80356004013567ffffffffffffffff811161028f57611fc79060043691843501016142d6565b825260248135013567ffffffffffffffff811161028f57611fef9060043691843501016142d6565b602083015260448135013567ffffffffffffffff811161028f5761201a9060043691843501016142d6565b6040830152808035013567ffffffffffffffff811161028f576120449060043691843501016142d6565b606083015267ffffffffffffffff6084823501351161028f576120713682356084810135016004016142d6565b608083015267ffffffffffffffff60a4823501351161028f5761209e36823560a4810135016004016142d6565b60a083015267ffffffffffffffff60c4823501351161028f576120cb36823560c4810135016004016142d6565b60c083015267ffffffffffffffff60e4823501351161028f576120f836823560e4810135016004016142d6565b60e083015267ffffffffffffffff610104823501351161028f57612127368235610104810135016004016142d6565b61010083015267ffffffffffffffff610124823501351161028f576121573682356101248101350160040161445c565b610120830152610144813501356101408301526101648135013561016083015267ffffffffffffffff610184823501351161028f576121a1368235610184810135016004016142d6565b61018083015280356101a48101356101a08401526101c401356001600160a01b038116900361028f5780356101c48101356101c08401526101e40135801515900361028f576101e4813501356101e08301526121fb614817565b6122036151fb565b6122176001600160a01b0385161515614ce7565b825115613777578451156137355760ff604051602081865161223c8183858b016140e8565b8101601381520301902054166136f35760ff60405160208188516122638183858d016140e8565b8101601281520301902054166136b1578151511561366f57606082015151156136055761012082015151156135c3575061229e600954614d32565b90816009556122b16101208201516155ac565b826000526010602052604060002095825180519067ffffffffffffffff8211610bbb5781906122e08a546142f4565b601f8111613573575b50602090601f8311600114613507576000926134fc575b50508160011b916000199060031b1c19161787555b845167ffffffffffffffff8111610bbb5761233360018901546142f4565b601f81116134b5575b50806020601f82116001146134485760009161343d575b508160011b916000199060031b1c19161760018801555b805167ffffffffffffffff8111610bbb5761238860028901546142f4565b601f81116133f6575b50806020601f82116001146133895760009161337e575b508160011b916000199060031b1c19161760028801555b606083015180519067ffffffffffffffff8211610bbb5781906123e560038b01546142f4565b601f811161332b575b50602090601f83116001146132b9576000926132ae575b50508160011b916000199060031b1c19161760038801555b608083015180519067ffffffffffffffff8211610bbb57819061244360048b01546142f4565b601f811161325b575b50602090601f83116001146131e9576000926131de575b50508160011b916000199060031b1c19161760048801555b60a083015180519067ffffffffffffffff8211610bbb5781906124a160058b01546142f4565b601f811161318b575b50602090601f83116001146131195760009261310e575b50508160011b916000199060031b1c19161760058801555b60c083015180519067ffffffffffffffff8211610bbb5781906124ff60068b01546142f4565b601f81116130bb575b50602090601f83116001146130495760009261303e575b50508160011b916000199060031b1c19161760068801555b60e083015180519067ffffffffffffffff8211610bbb57819061255d60078b01546142f4565b601f8111612feb575b50602090601f8311600114612f7957600092612f6e575b50508160011b916000199060031b1c19161760078801555b61010083015180519067ffffffffffffffff8211610bbb5781906125bc60088b01546142f4565b601f8111612f1b575b50602090601f8311600114612ea957600092612e9e575b50508160011b916000199060031b1c19161760088801555b610140830151600a88015581600b88015561018083015180519067ffffffffffffffff8211610bbb57819061262c600c8b01546142f4565b601f8111612e4b575b50602090601f8311600114612dd957600092612dce575b50508160011b916000199060031b1c191617600c8801555b42600d880155600e870180547fffffffffffffffffffffff000000000000000000000000000000000000000000163360ff60a01b191617905560005b6101208401518051821015612c3b57816126b99161558b565b5160098901549068010000000000000000821015610bbb57600182018060098c0155821015612c255760098a01600052602060002090805180519067ffffffffffffffff8211610bbb578190612714600687028601546142f4565b601f8111612bd0575b50602090601f8311600114612b5a57600092612b4f575b50508160011b916000199060031b1c191617600684028301555b602081015180519067ffffffffffffffff8211610bbb578190612779600160068802870101546142f4565b601f8111612af7575b50602090601f8311600114612a7b57600092612a70575b50508160011b916000199060031b1c191617600160068502840101555b604081015180519067ffffffffffffffff8211610bbb5781906127e1600260068802870101546142f4565b601f8111612a18575b50602090601f831160011461299c57600092612991575b50508160011b916000199060031b1c191617600260068502840101555b606081015160036006850284010155608081015180519067ffffffffffffffff8211610bbb57612856600460068702860101546142f4565b601f8111612945575b50602090601f83116001146128bf57600593836128af9897969460069460a0946000926128b4575b50508160011b916000199060031b1c1916176004848802860101555b01519302010155614d32565b6126a0565b015190503880612887565b9060046006870286010160005260206000209160005b601f198516811061292d57509360018460069460a0946005986128af9c9b9a98601f19811610612914575b505050811b016004848802860101556128a3565b015160001960f88460031b161c19169055388080612900565b919260206001819286850151815501940192016128d5565b6004600687028601016000526020600020601f840160051c81016020851061298a575b601f830160051c8201811061297e57505061285f565b60008155600101612968565b5080612968565b015190508d80612801565b92506002600687028601016000526020600020906000935b601f19841685106129fd576001945083601f198116106129e4575b505050811b016002600685028401015561281e565b015160001960f88460031b161c191690558d80806129cf565b818101518355602094850194600190930192909101906129b4565b9091506002600687028601016000526020600020601f840160051c810160208510612a69575b90849392915b601f830160051c82018110612a5a5750506127ea565b60008155859450600101612a44565b5080612a3e565b015190508d80612799565b92506001600687028601016000526020600020906000935b601f1984168510612adc576001945083601f19811610612ac3575b505050811b01600160068502840101556127b6565b015160001960f88460031b161c191690558d8080612aae565b81810151835560209485019460019093019290910190612a93565b9091506001600687028601016000526020600020601f840160051c810160208510612b48575b90849392915b601f830160051c82018110612b39575050612782565b60008155859450600101612b23565b5080612b1d565b015190508d80612734565b92506006860285016000526020600020906000935b601f1984168510612bb5576001945083601f19811610612b9c575b505050811b016006840283015561274e565b015160001960f88460031b161c191690558d8080612b8a565b81810151835560209485019460019093019290910190612b6f565b9091506006860285016000526020600020601f840160051c810160208510612c1e575b90849392915b601f830160051c82018110612c0f57505061271d565b60008155859450600101612bf9565b5080612bf3565b634e487b7160e01b600052603260045260246000fd5b50507e6260462507cd85b27ab0f8b3eb749422a22e01f982f4dfa3fdb78b97f7e810612d8b85926001600160a01b0389612db560209a83831660005260118c52612c89886040600020614d57565b6040518c818351612c9d81838588016140e8565b8101601381520301902060ff199060018282541617905560016040518e8181612ccc8b838151938492016140e8565b8101601281520301902091825416179055612ce78884614e40565b612d57612cf389615231565b612d51600a604051602093612d0a82958301614d91565b7f2f73656d65737465722f000000000000000000000000000000000000000000008152612d418251602093819487850191016140e8565b0103601519810184520182614261565b89615085565b612da760608b01519a612d99612d7660a0608084015193015194614e20565b9c604051998a9960c08b5260c08b019061410b565b9089820360208b015261410b565b90878203604089015261410b565b90858203606087015261410b565b9660808401524260a084015216940390a4604051908152f35b01519050898061264c565b9250600c8a016000526020600020906000935b601f1984168510612e30576001945083601f19811610612e17575b505050811b01600c880155612664565b015160001960f88460031b161c19169055898080612e07565b81810151835560209485019460019093019290910190612dec565b909150600c8a016000526020600020601f840160051c810160208510612e97575b90849392915b601f830160051c82018110612e88575050612635565b60008155859450600101612e72565b5080612e6c565b0151905089806125dc565b925060088a016000526020600020906000935b601f1984168510612f00576001945083601f19811610612ee7575b505050811b0160088801556125f4565b015160001960f88460031b161c19169055898080612ed7565b81810151835560209485019460019093019290910190612ebc565b90915060088a016000526020600020601f840160051c810160208510612f67575b90849392915b601f830160051c82018110612f585750506125c5565b60008155859450600101612f42565b5080612f3c565b01519050898061257d565b925060078a016000526020600020906000935b601f1984168510612fd0576001945083601f19811610612fb7575b505050811b016007880155612595565b015160001960f88460031b161c19169055898080612fa7565b81810151835560209485019460019093019290910190612f8c565b90915060078a016000526020600020601f840160051c810160208510613037575b90849392915b601f830160051c82018110613028575050612566565b60008155859450600101613012565b508061300c565b01519050898061251f565b925060068a016000526020600020906000935b601f19841685106130a0576001945083601f19811610613087575b505050811b016006880155612537565b015160001960f88460031b161c19169055898080613077565b8181015183556020948501946001909301929091019061305c565b90915060068a016000526020600020601f840160051c810160208510613107575b90849392915b601f830160051c820181106130f8575050612508565b600081558594506001016130e2565b50806130dc565b0151905089806124c1565b925060058a016000526020600020906000935b601f1984168510613170576001945083601f19811610613157575b505050811b0160058801556124d9565b015160001960f88460031b161c19169055898080613147565b8181015183556020948501946001909301929091019061312c565b90915060058a016000526020600020601f840160051c8101602085106131d7575b90849392915b601f830160051c820181106131c85750506124aa565b600081558594506001016131b2565b50806131ac565b015190508980612463565b925060048a016000526020600020906000935b601f1984168510613240576001945083601f19811610613227575b505050811b01600488015561247b565b015160001960f88460031b161c19169055898080613217565b818101518355602094850194600190930192909101906131fc565b90915060048a016000526020600020601f840160051c8101602085106132a7575b90849392915b601f830160051c8201811061329857505061244c565b60008155859450600101613282565b508061327c565b015190508980612405565b925060038a016000526020600020906000935b601f1984168510613310576001945083601f198116106132f7575b505050811b01600388015561241d565b015160001960f88460031b161c191690558980806132e7565b818101518355602094850194600190930192909101906132cc565b90915060038a016000526020600020601f840160051c810160208510613377575b90849392915b601f830160051c820181106133685750506123ee565b60008155859450600101613352565b508061334c565b9050820151896123a8565b91506002890160005260206000206000925b601f19831684106133de576001935082601f198116106133c5575b5050811b0160028801556123bf565b84015160001960f88460031b161c1916905589806133b6565b8481015182556020938401936001909201910161339b565b600289016000526020600020601f830160051c810160208410613436575b601f830160051c8201811061342a575050612391565b60008155600101613414565b5080613414565b905086015189612353565b91506001890160005260206000206000925b601f198316841061349d576001935082601f19811610613484575b5050811b01600188015561236a565b88015160001960f88460031b161c191690558980613475565b8881015182556020938401936001909201910161345a565b600189016000526020600020601f830160051c8101602084106134f5575b601f830160051c820181106134e957505061233c565b600081556001016134d3565b50806134d3565b015190508980612300565b9250896000526020600020906000935b601f1984168510613558576001945083601f1981161061353f575b505050811b018755612315565b015160001960f88460031b161c19169055898080613532565b81810151835560209485019460019093019290910190613517565b909150896000526020600020601f840160051c8101602085106135bc575b90849392915b601f830160051c820181106135ad5750506122e9565b60008155859450600101613597565b5080613591565b60405162461bcd60e51b815260206004820152601c60248201527f4174206c65617374206f6e6520636f75727365207265717569726564000000006044820152fd5b6084907f70747900000000000000000000000000000000000000000000000000000000006040519162461bcd60e51b835260206004840152602360248401527f526567697374726174696f6e206e756d6265722063616e6e6f7420626520656d6044840152820152fd5b60405162461bcd60e51b815260206004820152601c60248201527f53747564656e74206e616d652063616e6e6f7420626520656d707479000000006044820152fd5b60405162461bcd60e51b815260206004820152601860248201527f4d656d6f206e756d62657220616c7265616479207573656400000000000000006044820152fd5b60405162461bcd60e51b815260206004820152601a60248201527f53657269616c206e756d62657220616c726561647920757365640000000000006044820152fd5b60405162461bcd60e51b815260206004820152601b60248201527f4d656d6f206e756d6265722063616e6e6f7420626520656d70747900000000006044820152fd5b60405162461bcd60e51b815260206004820152601d60248201527f53657269616c206e756d6265722063616e6e6f7420626520656d7074790000006044820152fd5b3461028f57600036600319011261028f576137d2614784565b60085460ff8116156138115760ff19166008557f5db9ee0a495bf2e6ff9c91a7834c1ba4fdd244a5e8aa4e537bd38aeae4b073aa6020604051338152a1005b60046040517f8dfc202b000000000000000000000000000000000000000000000000000000008152fd5b3461028f5760208060031936011261028f576001600160a01b0361385d614130565b1660005260118152604060002090604051908181845491828152019360005281600020916000905b82821061389c5761042d8561050381890382614261565b835486529485019460019384019390910190613885565b3461028f57604036600319011261028f576138cc614146565b336001600160a01b038216036138e85761061e9060043561491a565b60046040517f6697b232000000000000000000000000000000000000000000000000000000008152fd5b3461028f5760208060031936011261028f576004359061393061543c565b5081600052600281526001600160a01b039161395483604060002054161515615540565b600052600b8152604060002091600660405193613970856141ef565b6139798161432e565b85526139876001820161432e565b848601526139976002820161432e565b60408601526139a86003820161432e565b60608601526139b96004820161432e565b6080860152600581015460a0860152015460ff8116151560c085015260081c1660e083015261042d60405192828493845283019061415c565b3461028f57604036600319011261028f5761061e600435613a11614146565b90806000526007602052613a2c600160406000200154614873565b614899565b3461028f57602036600319011261028f57600435613a4d614784565b8060005260026020526001600160a01b0390613a71826040600020541615156153a6565b806000526010602052613a9260ff600e6040600020015460a01c16156153f1565b806000526010602052600e6040600020017401000000000000000000000000000000000000000060ff60a01b19825416179055613ace81614b67565b339216907f852d5d4a823318018cabc1f51b12ef417cefaa75696231006c99935c2b990150600080a4005b3461028f57602036600319011261028f5760043567ffffffffffffffff811161028f5760ff613b3260206105b6819436906004016142d6565b8101601281520301902054166040519015158152f35b3461028f57602036600319011261028f5760043560005260076020526020600160406000200154604051908152f35b3461028f5761061e613b88366143d4565b91614992565b3461028f57602036600319011261028f57600435600052600e60205261042d6107f1604060002061432e565b3461028f57604036600319011261028f5767ffffffffffffffff60043560243582811161028f57613bef9036906004016142d6565b91613bf8614784565b8160005260209160028352613c1c6001600160a01b036040600020541615156153a6565b600052601082526008604060002001918351918211610bbb57613c3f83546142f4565b601f8111613cc1575b5080601f8311600114613c785750819293600092610b0a575050600019600383901b1c191660019190911b179055005b90601f198316948460005282600020926000905b878210613ca9575050836001959610610b4757505050811b019055005b80600185968294968601518155019501930190613c8c565b8360005281600020601f840160051c810191838510613cfd575b601f0160051c01905b818110613cf15750613c48565b60008155600101613ce4565b9091508190613cdb565b3461028f57602036600319011261028f57610283613d26600435615479565b60405192839260408452604084019061415c565b3461028f57604036600319011261028f57613d53614130565b602435613d5f81614b67565b33151580613e28575b80613dfa575b613dca5781906001600160a01b03809416938491167f8c5be1e5ebec7d5bd14f71427d1e84f3dd0314c0f7b2291e5b200ac8c7c3b925600080a460005260046020526040600020906001600160a01b0319825416179055600080f35b60246040517fa9fbf51f000000000000000000000000000000000000000000000000000000008152336004820152fd5b506001600160a01b038116600052600560205260406000203360005260205260ff6040600020541615613d6e565b50336001600160a01b0382161415613d68565b3461028f57602036600319011261028f57600435613e5881614b67565b50600052600460205260206001600160a01b0360406000205416604051908152f35b3461028f57600036600319011261028f5760405160008054613e9b816142f4565b80845290600190818116908115610d345750600114613ec45761042d846107f181860382614261565b600080805292507f290decd9548b62a8d60345a988386fc84ba6bc95484008f6362f93160ef3e5635b828410613f055750505081016020016107f182610ccb565b80546020858701810191909152909301928101613eed565b3461028f57602036600319011261028f57600435613f39614784565b8060005260026020526001600160a01b0390613f5d826040600020541615156153a6565b80600052600b602052613f7b60ff60066040600020015416156153f1565b80600052600b6020526006604060002001600160ff19825416179055613fa081614b67565b339216907f39858852dfeb2731909c1e5b973698dd12a5e54ab07cf24f5bb3ed593b31450a600080a4005b3461028f57602036600319011261028f57600435906001600160e01b0319821680920361028f57817f7965db0b0000000000000000000000000000000000000000000000000000000060209314908115614027575b5015158152f35b7f490649060000000000000000000000000000000000000000000000000000000081149150811561405a575b5083614020565b7f80ac58cd000000000000000000000000000000000000000000000000000000008114915081156140be575b8115614094575b5083614053565b7f01ffc9a7000000000000000000000000000000000000000000000000000000009150148361408d565b7f5b5e139f0000000000000000000000000000000000000000000000000000000081149150614086565b60005b8381106140fb5750506000910152565b81810151838201526020016140eb565b90602091614124815180928185528580860191016140e8565b601f01601f1916010190565b600435906001600160a01b038216820361028f57565b602435906001600160a01b038216820361028f57565b9060e06001600160a01b03816141cf6141bd6141ab6141996141878951610100808b528a019061410b565b60208a015189820360208b015261410b565b604089015188820360408a015261410b565b6060880151878203606089015261410b565b6080870151868203608088015261410b565b9460a081015160a086015260c0810151151560c086015201511691015290565b610100810190811067ffffffffffffffff821117610bbb57604052565b610200810190811067ffffffffffffffff821117610bbb57604052565b60c0810190811067ffffffffffffffff821117610bbb57604052565b6020810190811067ffffffffffffffff821117610bbb57604052565b90601f8019910116810190811067ffffffffffffffff821117610bbb57604052565b67ffffffffffffffff8111610bbb57601f01601f191660200190565b9291926142ab82614283565b916142b96040519384614261565b82948184528183011161028f578281602093846000960137010152565b9080601f8301121561028f578160206142f19335910161429f565b90565b90600182811c92168015614324575b602083101461430e57565b634e487b7160e01b600052602260045260246000fd5b91607f1691614303565b9060405191826000825492614342846142f4565b9081845260019485811690816000146143b1575060011461436e575b505061436c92500383614261565b565b9093915060005260209081600020936000915b81831061439957505061436c9350820101388061435e565b85548884018501529485019487945091830191614381565b91505061436c94506020925060ff191682840152151560051b820101388061435e565b606090600319011261028f576001600160a01b0390600435828116810361028f5791602435908116810361028f579060443590565b6020908160408183019282815285518094520193019160005b828110614430575050505090565b835185529381019392810192600101614422565b67ffffffffffffffff8111610bbb5760051b60200190565b81601f8201121561028f5780359061447382614444565b9260409261448384519586614261565b808552602093848087019260051b8501019383851161028f57858101925b8584106144b2575050505050505090565b67ffffffffffffffff843581811161028f5783019160c09283601f19828a03011261028f578551906144e382614229565b8a81013584811161028f57898c6144fc928401016142d6565b82528681013584811161028f57898c614517928401016142d6565b8b8301526060948582013585811161028f578a8d614537928501016142d6565b88840152608095868301359084015260a0918281013595861161028f578c966145658c8980998501016142d6565b908501520135908201528152019301926144a1565b8054821015612c255760005260206000200190600090565b906145a6825161020080845283019061410b565b6145bc602091828501518482038486015261410b565b906145d3604092838601518582038587015261410b565b6145e9606091828701518682038488015261410b565b91614600608093848801518782038689015261410b565b9261461760a09485890151888203878a015261410b565b9061465a61464661463460c094858c01518b8203878d015261410b565b60e08b01518a820360e08c015261410b565b610100808b0151908a8303908b015261410b565b9161012095868a015196898503908a01528651958685528585019386808960051b8801019901996000965b8988106146f457505050505050505050506146c591506101408085015190840152610160808501519084015261018080850151908483039085015261410b565b916101a080820151908301526101c06001600160a01b038183015116908301526101e080910151151591015290565b909192939495969798998980886001938f8a6147686147508f6147308495614740928d601f19908a03019052519788519080895288019061410b565b888801518782038a89015261410b565b8b8701518682038d88015261410b565b8c8601518d8601528b8601518582038d87015261410b565b9301519101529d0198019801969a999897959493929190614685565b3360009081527fa70365933f78520ef41d6645ba61e509916296603327302d41466c063e8e260860205260409020547fa49807205ce4d355092ef5a8a18f56e8913cf4a201fbe287825b095693c217759060ff16156147e05750565b604490604051907fe2517d3f0000000000000000000000000000000000000000000000000000000082523360048301526024820152fd5b3360009081527fa4bfd7afe708e2e87e7f0e2ad9b4d545417e0f795f57b5c5ab5d799c565a04f460205260409020547f9f2df0fed2c77648de5860a4cc508cd0818c85b8b8a1ab4ceeef8d981c8956a69060ff16156147e05750565b80600052600760205260406000203360005260205260ff60406000205416156147e05750565b9060009180835260076020526001600160a01b036040842092169182845260205260ff604084205416156000146149155780835260076020526040832082845260205260408320600160ff198254161790557f2f8788117e7eff1d82e926ec794901d17c78024a50270940304540a733656f0d339380a4600190565b505090565b9060009180835260076020526001600160a01b036040842092169182845260205260ff604084205416600014614915578083526007602052604083208284526020526040832060ff1981541690557ff6391f5c32d9c69d2a47ea670b442974b53935d1edc7fd64eb21e047a839171b339380a4600190565b90916001600160a01b03809316928315614b4f57600092828452826020956002875260409684888820541696879133151580614aa0575b509060027fddf252ad1be2c89b69c2b068fc378daa952ba7f163c4a11628f55a4df523b3ef9284614a68575b858352600381528b83206001815401905586835252898120846001600160a01b031982541617905580a41692838303614a2e5750505050565b6064945051927f64283d7b000000000000000000000000000000000000000000000000000000008452600484015260248301526044820152fd5b614a8987600052600460205260406000206001600160a01b03198154169055565b848352600381528b832080546000190190556149f5565b91939450915080614b0e575b15614abc578592918791386149c9565b878688614ad9576024915190637e27328960e01b82526004820152fd5b60449151907f177e802f0000000000000000000000000000000000000000000000000000000082523360048301526024820152fd5b503387148015614b33575b80614aac5750858252600481523385898420541614614aac565b5086825260058152878220338352815260ff8883205416614b19565b6024604051633250574960e11b815260006004820152fd5b8060005260026020526001600160a01b0360406000205416908115614b8a575090565b60249060405190637e27328960e01b82526004820152fd5b813b614baf575b50505050565b6001600160a01b0394919293948093169360405193630a85bd0160e11b9283865233600487015216602485015260448401526080606484015282614bf9602096608483019061410b565b039285816000958187895af1849181614ca3575b50614c6c575050503d600014614c64573d614c2781614283565b90614c356040519283614261565b81528091843d92013e5b80519283614c5f5760248360405190633250574960e11b82526004820152fd5b019050fd5b506060614c3f565b9092506001600160e01b03199194501603614c8b575038808080614ba9565b60249060405190633250574960e11b82526004820152fd5b9091508681813d8311614ce0575b614cbb8183614261565b81010312614cdc57516001600160e01b031981168103614cdc579038614c0d565b8480fd5b503d614cb1565b15614cee57565b606460405162461bcd60e51b815260206004820152601760248201527f496e76616c69642073747564656e7420616464726573730000000000000000006044820152fd5b6000198114614d415760010190565b634e487b7160e01b600052601160045260246000fd5b805468010000000000000000811015610bbb57614d799160018201815561457a565b819291549060031b91821b91600019901b1916179055565b600a5460009291614da1826142f4565b91600190818116908115614e0d5750600114614dbc57505050565b9091929350600a6000527fc65a7bb8d6351c1cf70c95a316cc6a92839c986682d98bc35f958f4883f9d2a8906000915b848310614dfa575050500190565b8181602092548587015201920191614dec565b60ff191683525050811515909102019150565b614e38906020604051928284809451938492016140e8565b810103902090565b6040805192614e4e84614245565b6000908185526001600160a01b039485851694851561506e5782845260209660028852858520541683878215159283615036575b81885260038b528888206001815401905582885260028b52888820826001600160a01b03198254161790557fddf252ad1be2c89b69c2b068fc378daa952ba7f163c4a11628f55a4df523b3ef8880a4615006573b614ee3575b505050505050565b85614f21918596979894955180938192630a85bd0160e11b96878452336004850152896024850152604484015260806064840152608483019061410b565b0381878a5af1849181614fc6575b50614f8d575050503d600014614f85573d614f4981614283565b90614f5684519283614261565b81528091853d92013e5b80519384614f7f57602484845190633250574960e11b82526004820152fd5b84925001fd5b506060614f60565b9092506001600160e01b03199195501603614faf575050388080808080614edb565b602492505190633250574960e11b82526004820152fd5b9091508781813d8311614fff575b614fde8183614261565b81010312614cdc57516001600160e01b031981168103614cdc579038614f2f565b503d614fd4565b6024848651907f73c6ac6e0000000000000000000000000000000000000000000000000000000082526004820152fd5b61505783600052600460205260406000206001600160a01b03198154169055565b80885260038b528888208054600019019055614e82565b602484865190633250574960e11b82526004820152fd5b91909160009080825260209160068352604081209085519067ffffffffffffffff82116151e7576150b683546142f4565b601f81116151a4575b508490601f831160011461512057907ff8e1a15aba9398e019f0b49df1a4fde98ee17ae345cb5f6b5e2c27f5033e8ce7969783615115575b50508160011b916000199060031b1c19161790555b604051908152a1565b0151905038806150f7565b9196601f198816848452868420935b81811061518d57509160019391897ff8e1a15aba9398e019f0b49df1a4fde98ee17ae345cb5f6b5e2c27f5033e8ce7999a9410615174575b505050811b01905561510c565b015160001960f88460031b161c19169055388080615167565b92938760018192878601518155019501930161512f565b838252858220601f840160051c8101918785106151dd575b601f0160051c01905b8181106151d257506150bf565b8281556001016151c5565b90915081906151bc565b80634e487b7160e01b602492526041600452fd5b60ff6008541661520757565b60046040517fd93c0665000000000000000000000000000000000000000000000000000000008152fd5b806000917a184f03e93ff9f4daa797ed6e38ed64bf6a1f01000000000000000080821015615398575b506d04ee2d6d415b85acef810000000080831015615389575b50662386f26fc100008083101561537a575b506305f5e1008083101561536b575b506127108083101561535c575b50606482101561534c575b600a80921015615342575b600190816021818601956152ca87614283565b966152d86040519889614261565b8088526152e7601f1991614283565b01366020890137860101905b6152ff575b5050505090565b600019019083907f30313233343536373839616263646566000000000000000000000000000000008282061a83530491821561533d579190826152f3565b6152f8565b91600101916152b7565b91906064600291049101916152ac565b600491939204910191386152a1565b60089193920491019138615294565b60109193920491019138615285565b60209193920491019138615273565b60409350810491503861525a565b156153ad57565b606460405162461bcd60e51b815260206004820152601a60248201527f436572746966696361746520646f6573206e6f742065786973740000000000006044820152fd5b156153f857565b606460405162461bcd60e51b815260206004820152601b60248201527f436572746966696361746520616c7265616479207265766f6b656400000000006044820152fd5b60405190615449826141ef565b600060e0836060808252806020830152806040830152808083015260808201528260a08201528260c08201520152565b61548161543c565b9060005260026020526001600160a01b03908160406000205416156155395750600b60205260406000206006604051916154ba836141ef565b6154c38161432e565b83526154d16001820161432e565b60208401526154e26002820161432e565b60408401526154f36003820161432e565b60608401526155046004820161432e565b6080840152600581015460a084015201549160ff83161515928360c084015260081c1660e08201528091615539575090600190565b9160009150565b1561554757565b606460405162461bcd60e51b815260206004820152601460248201527f546f6b656e20646f6573206e6f742065786973740000000000000000000000006044820152fd5b8051821015612c255760209160051b010190565b91908201809211614d4157565b908151156156ca5760009182835b82518110156156b45760806155cf828561558b565b510151805160208092012060408051928184019380851067ffffffffffffffff861117610bbb577f7b2ab94bb7d45041581aa3757ae020084674ccad6f75dc3750eb2ea8a92c4e9a947f5000000000000000000000000000000000000000000000000000000000000000935260018152015214615655575b61565090614d32565b6155ba565b90936060615663838561558b565b51015160a09586615674858761558b565b51015191828102928184041490151715614d41576156986156ac926156509461559f565b966156a3858761558b565b5101519061559f565b919050615647565b509192905081156156c3570490565b5050600090565b60009150565b604051906156dd8261420c565b60006101e083606080825280602083015280604083015280808301528060808301528060a08301528060c08301528060e083015280610100830152806101208301528361014083015283610160830152610180820152826101a0820152826101c08201520152565b61574d6156d0565b9060005260026020526001600160a01b03604060002054161561592f575060106020526040600020604051906157828261420c565b61578b8161432e565b82526157996001820161432e565b60208301526157aa6002820161432e565b60408301526157bb6003820161432e565b60608301526157cc6004820161432e565b60808301526157dd6005820161432e565b60a08301526157ee6006820161432e565b60c08301526157ff6007820161432e565b60e08301526158106008820161432e565b61010083015260098101805461582581614444565b916158336040519384614261565b818352602083019060005260206000206000915b8383106158be575050505060ff91600e91610120850152600a810154610140850152600b810154610160850152615880600c820161432e565b610180850152600d8101546101a085015201546001600160a01b0381166101c084015260a01c16151590816101e08201528091615539575090600190565b600660206001926040516158d181614229565b6158da8661432e565b81526158e785870161432e565b838201526158f76002870161432e565b6040820152600386015460608201526159126004870161432e565b6080820152600586015460a0820152815201920192019190615847565b9060009056fea2646970667358221220e2487be1cdb660d768e7e6e7dd5d1603b20869f9538cb02b5e95c555db4dd94c64736f6c634300081400332f8788117e7eff1d82e926ec794901d17c78024a50270940304540a733656f0d","opcodes":"PUSH1 0x80 CALLVALUE PUSH3 0x346 JUMPI PUSH1 0x1 PUSH1 0x1 PUSH1 0x40 SHL SUB SWAP1 PUSH1 0x40 SWAP1 DUP1 DUP3 ADD DUP4 DUP2 GT DUP3 DUP3 LT OR PUSH3 0x330 JUMPI DUP3 MSTORE PUSH1 0x12 DUP2 MSTORE PUSH1 0x20 SWAP3 PUSH18 0x5669676E616E204365727469666963617465 PUSH1 0x70 SHL DUP5 DUP4 ADD MSTORE DUP3 MLOAD DUP4 DUP2 ADD DUP2 DUP2 LT DUP4 DUP3 GT OR PUSH3 0x330 JUMPI DUP5 MSTORE PUSH1 0x6 DUP2 MSTORE PUSH6 0x2B24A3A720A7 PUSH1 0xD1 SHL DUP6 DUP3 ADD MSTORE DUP3 MLOAD SWAP1 DUP3 DUP3 GT PUSH3 0x330 JUMPI PUSH1 0x0 DUP1 SLOAD SWAP3 PUSH1 0x1 SWAP6 DUP7 DUP6 DUP2 SHR SWAP6 AND DUP1 ISZERO PUSH3 0x325 JUMPI JUMPDEST DUP10 DUP7 LT EQ PUSH3 0x311 JUMPI DUP2 SWAP1 PUSH1 0x1F SWAP6 DUP7 DUP2 GT PUSH3 0x2BE JUMPI JUMPDEST POP DUP10 SWAP1 DUP7 DUP4 GT PUSH1 0x1 EQ PUSH3 0x25A JUMPI DUP5 SWAP3 PUSH3 0x24E JUMPI JUMPDEST POP POP PUSH1 0x0 NOT PUSH1 0x3 DUP4 SWAP1 SHL SHR NOT AND SWAP1 DUP7 SHL OR DUP2 SSTORE JUMPDEST DUP2 MLOAD SWAP4 DUP5 GT PUSH3 0x23A JUMPI DUP5 SLOAD DUP6 DUP2 DUP2 SHR SWAP2 AND DUP1 ISZERO PUSH3 0x22F JUMPI JUMPDEST DUP9 DUP3 LT EQ PUSH3 0x21B JUMPI DUP4 DUP2 GT PUSH3 0x1D3 JUMPI JUMPDEST POP DUP7 SWAP3 DUP5 GT PUSH1 0x1 EQ PUSH3 0x16D JUMPI DUP4 SWAP5 SWAP6 SWAP7 POP SWAP3 PUSH3 0x161 JUMPI JUMPDEST POP POP PUSH1 0x0 NOT PUSH1 0x3 DUP4 SWAP1 SHL SHR NOT AND SWAP1 DUP3 SHL OR SWAP1 SSTORE JUMPDEST PUSH1 0xFF NOT PUSH1 0x8 SLOAD AND PUSH1 0x8 SSTORE PUSH3 0x13A CALLER PUSH3 0x34B JUMP JUMPDEST POP PUSH3 0x146 CALLER PUSH3 0x3CC JUMP JUMPDEST POP PUSH3 0x152 CALLER PUSH3 0x46F JUMP JUMPDEST POP MLOAD PUSH2 0x596B SWAP1 DUP2 PUSH3 0x50E DUP3 CODECOPY RETURN JUMPDEST ADD MLOAD SWAP1 POP CODESIZE DUP1 PUSH3 0x111 JUMP JUMPDEST SWAP2 SWAP1 PUSH1 0x1F NOT DUP5 AND SWAP7 DUP6 DUP5 MSTORE DUP1 DUP5 KECCAK256 SWAP4 SWAP1 JUMPDEST DUP9 DUP3 LT PUSH3 0x1BB JUMPI POP POP DUP4 DUP6 SWAP7 SWAP8 LT PUSH3 0x1A1 JUMPI JUMPDEST POP POP POP DUP2 SHL ADD SWAP1 SSTORE PUSH3 0x125 JUMP JUMPDEST ADD MLOAD PUSH1 0x0 NOT PUSH1 0xF8 DUP5 PUSH1 0x3 SHL AND SHR NOT AND SWAP1 SSTORE CODESIZE DUP1 DUP1 PUSH3 0x193 JUMP JUMPDEST DUP1 DUP8 DUP6 SWAP7 DUP3 SWAP5 SWAP7 DUP7 ADD MLOAD DUP2 SSTORE ADD SWAP6 ADD SWAP4 ADD SWAP1 PUSH3 0x17E JUMP JUMPDEST DUP6 DUP3 MSTORE DUP8 DUP3 KECCAK256 DUP5 DUP1 DUP8 ADD PUSH1 0x5 SHR DUP3 ADD SWAP3 DUP11 DUP9 LT PUSH3 0x211 JUMPI JUMPDEST ADD PUSH1 0x5 SHR ADD SWAP1 DUP7 SWAP1 JUMPDEST DUP3 DUP2 LT PUSH3 0x205 JUMPI POP POP PUSH3 0xF8 JUMP JUMPDEST DUP4 DUP2 SSTORE ADD DUP7 SWAP1 PUSH3 0x1F5 JUMP JUMPDEST SWAP3 POP DUP2 SWAP3 PUSH3 0x1EC JUMP JUMPDEST PUSH4 0x4E487B71 PUSH1 0xE0 SHL DUP3 MSTORE PUSH1 0x22 PUSH1 0x4 MSTORE PUSH1 0x24 DUP3 REVERT JUMPDEST SWAP1 PUSH1 0x7F AND SWAP1 PUSH3 0xE6 JUMP JUMPDEST PUSH4 0x4E487B71 PUSH1 0xE0 SHL DUP2 MSTORE PUSH1 0x41 PUSH1 0x4 MSTORE PUSH1 0x24 SWAP1 REVERT JUMPDEST ADD MLOAD SWAP1 POP CODESIZE DUP1 PUSH3 0xB8 JUMP JUMPDEST DUP5 DUP1 MSTORE DUP11 DUP6 KECCAK256 DUP10 SWAP5 POP SWAP2 SWAP1 PUSH1 0x1F NOT DUP5 AND DUP7 JUMPDEST DUP14 DUP3 DUP3 LT PUSH3 0x2A7 JUMPI POP POP DUP5 GT PUSH3 0x28D JUMPI JUMPDEST POP POP POP DUP2 SHL ADD DUP2 SSTORE PUSH3 0xCC JUMP JUMPDEST ADD MLOAD PUSH1 0x0 NOT PUSH1 0xF8 DUP5 PUSH1 0x3 SHL AND SHR NOT AND SWAP1 SSTORE CODESIZE DUP1 DUP1 PUSH3 0x27F JUMP JUMPDEST DUP4 DUP6 ADD MLOAD DUP7 SSTORE DUP13 SWAP8 SWAP1 SWAP6 ADD SWAP5 SWAP4 DUP5 ADD SWAP4 ADD PUSH3 0x26C JUMP JUMPDEST SWAP1 SWAP2 POP DUP4 DUP1 MSTORE DUP10 DUP5 KECCAK256 DUP7 DUP1 DUP6 ADD PUSH1 0x5 SHR DUP3 ADD SWAP3 DUP13 DUP7 LT PUSH3 0x307 JUMPI JUMPDEST SWAP2 DUP11 SWAP2 DUP7 SWAP6 SWAP5 SWAP4 ADD PUSH1 0x5 SHR ADD SWAP2 JUMPDEST DUP3 DUP2 LT PUSH3 0x2F8 JUMPI POP POP PUSH3 0xA2 JUMP JUMPDEST DUP7 DUP2 SSTORE DUP6 SWAP5 POP DUP11 SWAP2 ADD PUSH3 0x2E8 JUMP JUMPDEST SWAP3 POP DUP2 SWAP3 PUSH3 0x2DA JUMP JUMPDEST PUSH4 0x4E487B71 PUSH1 0xE0 SHL DUP4 MSTORE PUSH1 0x22 PUSH1 0x4 MSTORE PUSH1 0x24 DUP4 REVERT JUMPDEST SWAP5 PUSH1 0x7F AND SWAP5 PUSH3 0x8B JUMP JUMPDEST PUSH4 0x4E487B71 PUSH1 0xE0 SHL PUSH1 0x0 MSTORE PUSH1 0x41 PUSH1 0x4 MSTORE PUSH1 0x24 PUSH1 0x0 REVERT JUMPDEST PUSH1 0x0 DUP1 REVERT JUMPDEST PUSH1 0x1 PUSH1 0x1 PUSH1 0xA0 SHL SUB AND PUSH1 0x0 DUP2 DUP2 MSTORE PUSH32 0x6D5257204EBE7D88FD91AE87941CB2DD9D8062B64AE5A2BD2D28EC40B9FBF6DF PUSH1 0x20 MSTORE PUSH1 0x40 DUP2 KECCAK256 SLOAD SWAP1 SWAP2 SWAP1 PUSH1 0xFF AND PUSH3 0x3C8 JUMPI DUP2 DUP1 MSTORE PUSH1 0x7 PUSH1 0x20 MSTORE PUSH1 0x40 DUP3 KECCAK256 DUP2 DUP4 MSTORE PUSH1 0x20 MSTORE PUSH1 0x40 DUP3 KECCAK256 PUSH1 0x1 PUSH1 0xFF NOT DUP3 SLOAD AND OR SWAP1 SSTORE CALLER SWAP2 PUSH1 0x0 DUP1 MLOAD PUSH1 0x20 PUSH3 0x5E79 DUP4 CODECOPY DUP2 MLOAD SWAP2 MSTORE DUP2 DUP1 LOG4 PUSH1 0x1 SWAP1 JUMP JUMPDEST POP SWAP1 JUMP JUMPDEST PUSH1 0x1 PUSH1 0x1 PUSH1 0xA0 SHL SUB AND PUSH1 0x0 DUP2 DUP2 MSTORE PUSH32 0xA70365933F78520EF41D6645BA61E509916296603327302D41466C063E8E2608 PUSH1 0x20 MSTORE PUSH1 0x40 DUP2 KECCAK256 SLOAD SWAP1 SWAP2 SWAP1 PUSH32 0xA49807205CE4D355092EF5A8A18F56E8913CF4A201FBE287825B095693C21775 SWAP1 PUSH1 0xFF AND PUSH3 0x46A JUMPI DUP1 DUP4 MSTORE PUSH1 0x7 PUSH1 0x20 MSTORE PUSH1 0x40 DUP4 KECCAK256 DUP3 DUP5 MSTORE PUSH1 0x20 MSTORE PUSH1 0x40 DUP4 KECCAK256 PUSH1 0x1 PUSH1 0xFF NOT DUP3 SLOAD AND OR SWAP1 SSTORE PUSH1 0x0 DUP1 MLOAD PUSH1 0x20 PUSH3 0x5E79 DUP4 CODECOPY DUP2 MLOAD SWAP2 MSTORE CALLER SWAP4 DUP1 LOG4 PUSH1 0x1 SWAP1 JUMP JUMPDEST POP POP SWAP1 JUMP JUMPDEST PUSH1 0x1 PUSH1 0x1 PUSH1 0xA0 SHL SUB AND PUSH1 0x0 DUP2 DUP2 MSTORE PUSH32 0xA4BFD7AFE708E2E87E7F0E2AD9B4D545417E0F795F57B5C5AB5D799C565A04F4 PUSH1 0x20 MSTORE PUSH1 0x40 DUP2 KECCAK256 SLOAD SWAP1 SWAP2 SWAP1 PUSH32 0x9F2DF0FED2C77648DE5860A4CC508CD0818C85B8B8A1AB4CEEEF8D981C8956A6 SWAP1 PUSH1 0xFF AND PUSH3 0x46A JUMPI DUP1 DUP4 MSTORE PUSH1 0x7 PUSH1 0x20 MSTORE PUSH1 0x40 DUP4 KECCAK256 DUP3 DUP5 MSTORE PUSH1 0x20 MSTORE PUSH1 0x40 DUP4 KECCAK256 PUSH1 0x1 PUSH1 0xFF NOT DUP3 SLOAD AND OR SWAP1 SSTORE PUSH1 0x0 DUP1 MLOAD PUSH1 0x20 PUSH3 0x5E79 DUP4 CODECOPY DUP2 MLOAD SWAP2 MSTORE CALLER SWAP4 DUP1 LOG4 PUSH1 0x1 SWAP1 JUMP INVALID PUSH1 0x80 DUP1 PUSH1 0x40 MSTORE PUSH1 0x4 CALLDATASIZE LT ISZERO PUSH2 0x13 JUMPI PUSH1 0x0 DUP1 REVERT JUMPDEST PUSH1 0x0 CALLDATALOAD PUSH1 0xE0 SHR SWAP1 DUP2 PUSH4 0x1FFC9A7 EQ PUSH2 0x3FCB JUMPI POP DUP1 PUSH4 0x6F5497E EQ PUSH2 0x3F1D JUMPI DUP1 PUSH4 0x6FDDE03 EQ PUSH2 0x3E7A JUMPI DUP1 PUSH4 0x81812FC EQ PUSH2 0x3E3B JUMPI DUP1 PUSH4 0x95EA7B3 EQ PUSH2 0x3D3A JUMPI DUP1 PUSH4 0x1692A942 EQ PUSH2 0x3D07 JUMPI DUP1 PUSH4 0x1F7CA144 EQ PUSH2 0x57D JUMPI DUP1 PUSH4 0x20D993B7 EQ PUSH2 0x3BBA JUMPI DUP1 PUSH4 0x22F79FAF EQ PUSH2 0x3B8E JUMPI DUP1 PUSH4 0x234F8D67 EQ PUSH2 0x3AF9 JUMPI DUP1 PUSH4 0x23B872DD EQ PUSH2 0x3B77 JUMPI DUP1 PUSH4 0x248A9CA3 EQ PUSH2 0x3B48 JUMPI DUP1 PUSH4 0x2B0EC45E EQ PUSH2 0x3AF9 JUMPI DUP1 PUSH4 0x2B62A74C EQ PUSH2 0x3A31 JUMPI DUP1 PUSH4 0x2F2FF15D EQ PUSH2 0x39F2 JUMPI DUP1 PUSH4 0x31494BBB EQ PUSH2 0x3912 JUMPI DUP1 PUSH4 0x36568ABE EQ PUSH2 0x38B3 JUMPI DUP1 PUSH4 0x3B01AA48 EQ PUSH2 0x383B JUMPI DUP1 PUSH4 0x3F4BA83A EQ PUSH2 0x37B9 JUMPI DUP1 PUSH4 0x4055E0E1 EQ PUSH2 0x1F18 JUMPI DUP1 PUSH4 0x42842E0E EQ PUSH2 0x1EEA JUMPI DUP1 PUSH4 0x5153A7D2 EQ PUSH2 0x1D4E JUMPI DUP1 PUSH4 0x55F804B3 EQ PUSH2 0x1BD4 JUMPI DUP1 PUSH4 0x5C975ABB EQ PUSH2 0x1BB1 JUMPI DUP1 PUSH4 0x6352211E EQ PUSH2 0x1B82 JUMPI DUP1 PUSH4 0x663B3E22 EQ PUSH2 0x1A99 JUMPI DUP1 PUSH4 0x682C9A59 EQ PUSH2 0x1A03 JUMPI DUP1 PUSH4 0x70A08231 EQ PUSH2 0x1992 JUMPI DUP1 PUSH4 0x75B238FC EQ PUSH2 0x1957 JUMPI DUP1 PUSH4 0x8456CB59 EQ PUSH2 0x18FD JUMPI DUP1 PUSH4 0x91D14854 EQ PUSH2 0x18AF JUMPI DUP1 PUSH4 0x929C01FD EQ PUSH2 0xD5B JUMPI DUP1 PUSH4 0x95D89B41 EQ PUSH2 0xC90 JUMPI DUP1 PUSH4 0x9D093AFA EQ PUSH2 0x9DD JUMPI DUP1 PUSH4 0xA217FDDF EQ PUSH2 0x9C1 JUMPI DUP1 PUSH4 0xA22CB465 EQ PUSH2 0x8FB JUMPI DUP1 PUSH4 0xA6F569FC EQ PUSH2 0x8B8 JUMPI DUP1 PUSH4 0xB88D4FDE EQ PUSH2 0x84D JUMPI DUP1 PUSH4 0xB8DCF6C8 EQ PUSH2 0x805 JUMPI DUP1 PUSH4 0xBA4BA549 EQ PUSH2 0x7A3 JUMPI DUP1 PUSH4 0xBD1F5F31 EQ PUSH2 0x754 JUMPI DUP1 PUSH4 0xC2E67339 EQ PUSH2 0x70A JUMPI DUP1 PUSH4 0xC3934F0E EQ PUSH2 0x6B4 JUMPI DUP1 PUSH4 0xC87B56DD EQ PUSH2 0x65B JUMPI DUP1 PUSH4 0xD5391393 EQ PUSH2 0x620 JUMPI DUP1 PUSH4 0xD547741F EQ PUSH2 0x5DF JUMPI DUP1 PUSH4 0xDE7C3A39 EQ PUSH2 0x57D JUMPI DUP1 PUSH4 0xE985E9C5 EQ PUSH2 0x526 JUMPI DUP1 PUSH4 0xEBC63BC0 EQ PUSH2 0x4A2 JUMPI DUP1 PUSH4 0xF31A9D17 EQ PUSH2 0x294 JUMPI PUSH4 0xFE8AA2C5 EQ PUSH2 0x250 JUMPI PUSH1 0x0 DUP1 REVERT JUMPDEST CALLVALUE PUSH2 0x28F JUMPI PUSH1 0x20 CALLDATASIZE PUSH1 0x3 NOT ADD SLT PUSH2 0x28F JUMPI PUSH2 0x283 PUSH2 0x26F PUSH1 0x4 CALLDATALOAD PUSH2 0x5745 JUMP JUMPDEST PUSH1 0x40 MLOAD SWAP3 DUP4 SWAP3 PUSH1 0x40 DUP5 MSTORE PUSH1 0x40 DUP5 ADD SWAP1 PUSH2 0x4592 JUMP JUMPDEST SWAP1 ISZERO ISZERO PUSH1 0x20 DUP4 ADD MSTORE SUB SWAP1 RETURN JUMPDEST PUSH1 0x0 DUP1 REVERT JUMPDEST CALLVALUE PUSH2 0x28F JUMPI PUSH1 0x20 CALLDATASIZE PUSH1 0x3 NOT ADD SLT PUSH2 0x28F JUMPI PUSH1 0x4 CALLDATALOAD PUSH2 0x2B0 PUSH2 0x56D0 JUMP JUMPDEST POP DUP1 PUSH1 0x0 MSTORE PUSH1 0x2 PUSH1 0x20 MSTORE PUSH2 0x2D3 PUSH1 0x1 PUSH1 0x1 PUSH1 0xA0 SHL SUB PUSH1 0x40 PUSH1 0x0 KECCAK256 SLOAD AND ISZERO ISZERO PUSH2 0x5540 JUMP JUMPDEST PUSH1 0x0 MSTORE PUSH1 0x10 PUSH1 0x20 MSTORE PUSH1 0x40 PUSH1 0x0 KECCAK256 PUSH1 0x40 MLOAD PUSH2 0x2EC DUP2 PUSH2 0x420C JUMP JUMPDEST PUSH2 0x2F5 DUP3 PUSH2 0x432E JUMP JUMPDEST DUP2 MSTORE PUSH2 0x303 PUSH1 0x1 DUP4 ADD PUSH2 0x432E JUMP JUMPDEST PUSH1 0x20 DUP3 ADD MSTORE PUSH2 0x314 PUSH1 0x2 DUP4 ADD PUSH2 0x432E JUMP JUMPDEST PUSH1 0x40 DUP3 ADD MSTORE PUSH2 0x325 PUSH1 0x3 DUP4 ADD PUSH2 0x432E JUMP JUMPDEST PUSH1 0x60 DUP3 ADD MSTORE PUSH2 0x336 PUSH1 0x4 DUP4 ADD PUSH2 0x432E JUMP JUMPDEST PUSH1 0x80 DUP3 ADD MSTORE PUSH2 0x347 PUSH1 0x5 DUP4 ADD PUSH2 0x432E JUMP JUMPDEST PUSH1 0xA0 DUP3 ADD MSTORE PUSH2 0x358 PUSH1 0x6 DUP4 ADD PUSH2 0x432E JUMP JUMPDEST PUSH1 0xC0 DUP3 ADD MSTORE PUSH2 0x369 PUSH1 0x7 DUP4 ADD PUSH2 0x432E JUMP JUMPDEST PUSH1 0xE0 DUP3 ADD MSTORE PUSH2 0x37A PUSH1 0x8 DUP4 ADD PUSH2 0x432E JUMP JUMPDEST PUSH2 0x100 DUP3 ADD MSTORE PUSH1 0x9 DUP3 ADD DUP1 SLOAD PUSH2 0x38F DUP2 PUSH2 0x4444 JUMP JUMPDEST SWAP2 PUSH2 0x39D PUSH1 0x40 MLOAD SWAP4 DUP5 PUSH2 0x4261 JUMP JUMPDEST DUP2 DUP4 MSTORE PUSH1 0x20 DUP4 ADD SWAP1 PUSH1 0x0 MSTORE PUSH1 0x20 PUSH1 0x0 KECCAK256 PUSH1 0x0 SWAP2 JUMPDEST DUP4 DUP4 LT PUSH2 0x431 JUMPI PUSH2 0x42D DUP7 PUSH1 0xFF PUSH1 0xE DUP11 DUP10 PUSH2 0x120 DUP6 ADD MSTORE PUSH1 0xA DUP2 ADD SLOAD PUSH2 0x140 DUP6 ADD MSTORE PUSH1 0xB DUP2 ADD SLOAD PUSH2 0x160 DUP6 ADD MSTORE PUSH2 0x3EA PUSH1 0xC DUP3 ADD PUSH2 0x432E JUMP JUMPDEST PUSH2 0x180 DUP6 ADD MSTORE PUSH1 0xD DUP2 ADD SLOAD PUSH2 0x1A0 DUP6 ADD MSTORE ADD SLOAD PUSH1 0x1 PUSH1 0x1 PUSH1 0xA0 SHL SUB DUP2 AND PUSH2 0x1C0 DUP5 ADD MSTORE PUSH1 0xA0 SHR AND ISZERO ISZERO PUSH2 0x1E0 DUP3 ADD MSTORE PUSH1 0x40 MLOAD SWAP2 DUP3 SWAP2 PUSH1 0x20 DUP4 MSTORE PUSH1 0x20 DUP4 ADD SWAP1 PUSH2 0x4592 JUMP JUMPDEST SUB SWAP1 RETURN JUMPDEST PUSH1 0x6 PUSH1 0x20 PUSH1 0x1 SWAP3 PUSH1 0x40 MLOAD PUSH2 0x444 DUP2 PUSH2 0x4229 JUMP JUMPDEST PUSH2 0x44D DUP7 PUSH2 0x432E JUMP JUMPDEST DUP2 MSTORE PUSH2 0x45A DUP6 DUP8 ADD PUSH2 0x432E JUMP JUMPDEST DUP4 DUP3 ADD MSTORE PUSH2 0x46A PUSH1 0x2 DUP8 ADD PUSH2 0x432E JUMP JUMPDEST PUSH1 0x40 DUP3 ADD MSTORE PUSH1 0x3 DUP7 ADD SLOAD PUSH1 0x60 DUP3 ADD MSTORE PUSH2 0x485 PUSH1 0x4 DUP8 ADD PUSH2 0x432E JUMP JUMPDEST PUSH1 0x80 DUP3 ADD MSTORE PUSH1 0x5 DUP7 ADD SLOAD PUSH1 0xA0 DUP3 ADD MSTORE DUP2 MSTORE ADD SWAP3 ADD SWAP3 ADD SWAP2 SWAP1 PUSH2 0x3B1 JUMP JUMPDEST CALLVALUE PUSH2 0x28F JUMPI PUSH1 0x20 DUP1 PUSH1 0x3 NOT CALLDATASIZE ADD SLT PUSH2 0x28F JUMPI PUSH1 0x1 PUSH1 0x1 PUSH1 0xA0 SHL SUB PUSH2 0x4C4 PUSH2 0x4130 JUMP JUMPDEST AND PUSH1 0x0 MSTORE PUSH1 0xC DUP2 MSTORE PUSH1 0x40 PUSH1 0x0 KECCAK256 SWAP1 PUSH1 0x40 MLOAD SWAP1 DUP2 DUP2 DUP5 SLOAD SWAP2 DUP3 DUP2 MSTORE ADD SWAP4 PUSH1 0x0 MSTORE DUP2 PUSH1 0x0 KECCAK256 SWAP2 PUSH1 0x0 SWAP1 JUMPDEST DUP3 DUP3 LT PUSH2 0x50F JUMPI PUSH2 0x42D DUP6 PUSH2 0x503 DUP2 DUP10 SUB DUP3 PUSH2 0x4261 JUMP JUMPDEST PUSH1 0x40 MLOAD SWAP2 DUP3 SWAP2 DUP3 PUSH2 0x4409 JUMP JUMPDEST DUP4 SLOAD DUP7 MSTORE SWAP5 DUP6 ADD SWAP5 PUSH1 0x1 SWAP4 DUP5 ADD SWAP4 SWAP1 SWAP2 ADD SWAP1 PUSH2 0x4EC JUMP JUMPDEST CALLVALUE PUSH2 0x28F JUMPI PUSH1 0x40 CALLDATASIZE PUSH1 0x3 NOT ADD SLT PUSH2 0x28F JUMPI PUSH2 0x53F PUSH2 0x4130 JUMP JUMPDEST PUSH2 0x547 PUSH2 0x4146 JUMP JUMPDEST SWAP1 PUSH1 0x1 PUSH1 0x1 PUSH1 0xA0 SHL SUB DUP1 SWAP2 AND PUSH1 0x0 MSTORE PUSH1 0x5 PUSH1 0x20 MSTORE PUSH1 0x40 PUSH1 0x0 KECCAK256 SWAP2 AND PUSH1 0x0 MSTORE PUSH1 0x20 MSTORE PUSH1 0x20 PUSH1 0xFF PUSH1 0x40 PUSH1 0x0 KECCAK256 SLOAD AND PUSH1 0x40 MLOAD SWAP1 ISZERO ISZERO DUP2 MSTORE RETURN JUMPDEST CALLVALUE PUSH2 0x28F JUMPI PUSH1 0x20 CALLDATASIZE PUSH1 0x3 NOT ADD SLT PUSH2 0x28F JUMPI PUSH1 0x4 CALLDATALOAD PUSH8 0xFFFFFFFFFFFFFFFF DUP2 GT PUSH2 0x28F JUMPI PUSH1 0xFF PUSH2 0x5C9 PUSH1 0x20 PUSH2 0x5B6 DUP2 SWAP5 CALLDATASIZE SWAP1 PUSH1 0x4 ADD PUSH2 0x42D6 JUMP JUMPDEST DUP2 PUSH1 0x40 MLOAD SWAP4 DUP3 DUP6 DUP1 SWAP5 MLOAD SWAP4 DUP5 SWAP3 ADD PUSH2 0x40E8 JUMP JUMPDEST DUP2 ADD PUSH1 0x13 DUP2 MSTORE SUB ADD SWAP1 KECCAK256 SLOAD AND PUSH1 0x40 MLOAD SWAP1 ISZERO ISZERO DUP2 MSTORE RETURN JUMPDEST CALLVALUE PUSH2 0x28F JUMPI PUSH1 0x40 CALLDATASIZE PUSH1 0x3 NOT ADD SLT PUSH2 0x28F JUMPI PUSH2 0x61E PUSH1 0x4 CALLDATALOAD PUSH2 0x5FE PUSH2 0x4146 JUMP JUMPDEST SWAP1 DUP1 PUSH1 0x0 MSTORE PUSH1 0x7 PUSH1 0x20 MSTORE PUSH2 0x619 PUSH1 0x1 PUSH1 0x40 PUSH1 0x0 KECCAK256 ADD SLOAD PUSH2 0x4873 JUMP JUMPDEST PUSH2 0x491A JUMP JUMPDEST STOP JUMPDEST CALLVALUE PUSH2 0x28F JUMPI PUSH1 0x0 CALLDATASIZE PUSH1 0x3 NOT ADD SLT PUSH2 0x28F JUMPI PUSH1 0x20 PUSH1 0x40 MLOAD PUSH32 0x9F2DF0FED2C77648DE5860A4CC508CD0818C85B8B8A1AB4CEEEF8D981C8956A6 DUP2 MSTORE RETURN JUMPDEST CALLVALUE PUSH2 0x28F JUMPI PUSH1 0x20 CALLDATASIZE PUSH1 0x3 NOT ADD SLT PUSH2 0x28F JUMPI PUSH1 0x4 CALLDATALOAD PUSH2 0x678 DUP2 PUSH2 0x4B67 JUMP JUMPDEST POP PUSH1 0x0 MSTORE PUSH1 0x6 PUSH1 0x20 MSTORE PUSH2 0x42D PUSH2 0x691 PUSH1 0x40 PUSH1 0x0 KECCAK256 PUSH2 0x432E JUMP JUMPDEST PUSH1 0x0 PUSH1 0x40 MLOAD PUSH2 0x69F DUP2 PUSH2 0x4245 JUMP JUMPDEST MSTORE PUSH1 0x40 MLOAD SWAP2 DUP3 SWAP2 PUSH1 0x20 DUP4 MSTORE PUSH1 0x20 DUP4 ADD SWAP1 PUSH2 0x410B JUMP JUMPDEST CALLVALUE PUSH2 0x28F JUMPI PUSH1 0x40 CALLDATASIZE PUSH1 0x3 NOT ADD SLT PUSH2 0x28F JUMPI PUSH2 0x6CD PUSH2 0x4130 JUMP JUMPDEST PUSH1 0x1 PUSH1 0x1 PUSH1 0xA0 SHL SUB PUSH1 0x24 CALLDATALOAD SWAP2 AND PUSH1 0x0 MSTORE PUSH1 0xC PUSH1 0x20 MSTORE PUSH1 0x40 PUSH1 0x0 KECCAK256 DUP1 SLOAD DUP3 LT ISZERO PUSH2 0x28F JUMPI PUSH1 0x20 SWAP2 PUSH2 0x6FC SWAP2 PUSH2 0x457A JUMP JUMPDEST SWAP1 SLOAD PUSH1 0x40 MLOAD SWAP2 PUSH1 0x3 SHL SHR DUP2 MSTORE RETURN JUMPDEST CALLVALUE PUSH2 0x28F JUMPI PUSH1 0x20 CALLDATASIZE PUSH1 0x3 NOT ADD SLT PUSH2 0x28F JUMPI PUSH1 0x4 CALLDATALOAD PUSH8 0xFFFFFFFFFFFFFFFF DUP2 GT PUSH2 0x28F JUMPI PUSH2 0x741 PUSH1 0x20 PUSH2 0x5B6 DUP2 SWAP4 CALLDATASIZE SWAP1 PUSH1 0x4 ADD PUSH2 0x42D6 JUMP JUMPDEST DUP2 ADD PUSH1 0xF DUP2 MSTORE SUB ADD SWAP1 KECCAK256 SLOAD PUSH1 0x40 MLOAD SWAP1 DUP2 MSTORE RETURN JUMPDEST CALLVALUE PUSH2 0x28F JUMPI PUSH1 0x20 CALLDATASIZE PUSH1 0x3 NOT ADD SLT PUSH2 0x28F JUMPI PUSH1 0x4 CALLDATALOAD PUSH8 0xFFFFFFFFFFFFFFFF DUP2 GT PUSH2 0x28F JUMPI PUSH1 0xFF PUSH2 0x78D PUSH1 0x20 PUSH2 0x5B6 DUP2 SWAP5 CALLDATASIZE SWAP1 PUSH1 0x4 ADD PUSH2 0x42D6 JUMP JUMPDEST DUP2 ADD PUSH1 0xD DUP2 MSTORE SUB ADD SWAP1 KECCAK256 SLOAD AND PUSH1 0x40 MLOAD SWAP1 ISZERO ISZERO DUP2 MSTORE RETURN JUMPDEST CALLVALUE PUSH2 0x28F JUMPI PUSH1 0x20 CALLDATASIZE PUSH1 0x3 NOT ADD SLT PUSH2 0x28F JUMPI PUSH1 0x4 CALLDATALOAD DUP1 PUSH1 0x0 MSTORE PUSH1 0x2 PUSH1 0x20 MSTORE PUSH2 0x7D9 PUSH1 0x1 PUSH1 0x1 PUSH1 0xA0 SHL SUB PUSH1 0x40 PUSH1 0x0 KECCAK256 SLOAD AND ISZERO ISZERO PUSH2 0x5540 JUMP JUMPDEST PUSH1 0x0 MSTORE PUSH1 0xE PUSH1 0x20 MSTORE PUSH2 0x42D PUSH2 0x7F1 PUSH1 0x40 PUSH1 0x0 KECCAK256 PUSH2 0x432E JUMP JUMPDEST PUSH1 0x40 MLOAD SWAP2 DUP3 SWAP2 PUSH1 0x20 DUP4 MSTORE PUSH1 0x20 DUP4 ADD SWAP1 PUSH2 0x410B JUMP JUMPDEST CALLVALUE PUSH2 0x28F JUMPI PUSH1 0x40 CALLDATASIZE PUSH1 0x3 NOT ADD SLT PUSH2 0x28F JUMPI PUSH2 0x81E PUSH2 0x4130 JUMP JUMPDEST PUSH1 0x1 PUSH1 0x1 PUSH1 0xA0 SHL SUB PUSH1 0x24 CALLDATALOAD SWAP2 AND PUSH1 0x0 MSTORE PUSH1 0x11 PUSH1 0x20 MSTORE PUSH1 0x40 PUSH1 0x0 KECCAK256 DUP1 SLOAD DUP3 LT ISZERO PUSH2 0x28F JUMPI PUSH1 0x20 SWAP2 PUSH2 0x6FC SWAP2 PUSH2 0x457A JUMP JUMPDEST CALLVALUE PUSH2 0x28F JUMPI PUSH1 0x80 CALLDATASIZE PUSH1 0x3 NOT ADD SLT PUSH2 0x28F JUMPI PUSH2 0x866 PUSH2 0x4130 JUMP JUMPDEST PUSH2 0x86E PUSH2 0x4146 JUMP JUMPDEST SWAP1 PUSH1 0x44 CALLDATALOAD PUSH1 0x64 CALLDATALOAD SWAP3 PUSH8 0xFFFFFFFFFFFFFFFF DUP5 GT PUSH2 0x28F JUMPI CALLDATASIZE PUSH1 0x23 DUP6 ADD SLT ISZERO PUSH2 0x28F JUMPI PUSH2 0x8A7 PUSH2 0x61E SWAP5 CALLDATASIZE SWAP1 PUSH1 0x24 DUP2 PUSH1 0x4 ADD CALLDATALOAD SWAP2 ADD PUSH2 0x429F JUMP JUMPDEST SWAP3 PUSH2 0x8B3 DUP4 DUP4 DUP4 PUSH2 0x4992 JUMP JUMPDEST PUSH2 0x4BA2 JUMP JUMPDEST CALLVALUE PUSH2 0x28F JUMPI PUSH1 0x20 CALLDATASIZE PUSH1 0x3 NOT ADD SLT PUSH2 0x28F JUMPI PUSH1 0x4 CALLDATALOAD PUSH8 0xFFFFFFFFFFFFFFFF DUP2 GT PUSH2 0x28F JUMPI PUSH2 0x8F3 PUSH2 0x8EE PUSH1 0x20 SWAP3 CALLDATASIZE SWAP1 PUSH1 0x4 ADD PUSH2 0x445C JUMP JUMPDEST PUSH2 0x55AC JUMP JUMPDEST PUSH1 0x40 MLOAD SWAP1 DUP2 MSTORE RETURN JUMPDEST CALLVALUE PUSH2 0x28F JUMPI PUSH1 0x40 CALLDATASIZE PUSH1 0x3 NOT ADD SLT PUSH2 0x28F JUMPI PUSH2 0x914 PUSH2 0x4130 JUMP JUMPDEST PUSH1 0x24 CALLDATALOAD SWAP1 DUP2 ISZERO ISZERO SWAP1 DUP2 DUP4 SUB PUSH2 0x28F JUMPI PUSH1 0x1 PUSH1 0x1 PUSH1 0xA0 SHL SUB AND SWAP2 DUP3 ISZERO PUSH2 0x990 JUMPI PUSH2 0x962 SWAP1 CALLER PUSH1 0x0 MSTORE PUSH1 0x5 PUSH1 0x20 MSTORE PUSH1 0x40 PUSH1 0x0 KECCAK256 DUP5 PUSH1 0x0 MSTORE PUSH1 0x20 MSTORE PUSH1 0x40 PUSH1 0x0 KECCAK256 SWAP1 PUSH1 0xFF DUP1 NOT DUP4 SLOAD AND SWAP2 ISZERO ISZERO AND OR SWAP1 SSTORE JUMP JUMPDEST PUSH1 0x40 MLOAD SWAP1 DUP2 MSTORE PUSH32 0x17307EAB39AB6107E8899845AD3D59BD9653F200F220920489CA2B5937696C31 PUSH1 0x20 CALLER SWAP3 LOG3 STOP JUMPDEST PUSH1 0x24 DUP4 PUSH1 0x40 MLOAD SWAP1 PUSH32 0x5B08BA1800000000000000000000000000000000000000000000000000000000 DUP3 MSTORE PUSH1 0x4 DUP3 ADD MSTORE REVERT JUMPDEST CALLVALUE PUSH2 0x28F JUMPI PUSH1 0x0 CALLDATASIZE PUSH1 0x3 NOT ADD SLT PUSH2 0x28F JUMPI PUSH1 0x20 PUSH1 0x40 MLOAD PUSH1 0x0 DUP2 MSTORE RETURN JUMPDEST CALLVALUE PUSH2 0x28F JUMPI PUSH1 0x60 CALLDATASIZE PUSH1 0x3 NOT ADD SLT PUSH2 0x28F JUMPI PUSH8 0xFFFFFFFFFFFFFFFF PUSH1 0x4 CALLDATALOAD PUSH1 0x24 CALLDATALOAD DUP3 DUP2 GT PUSH2 0x28F JUMPI PUSH2 0xA12 SWAP1 CALLDATASIZE SWAP1 PUSH1 0x4 ADD PUSH2 0x42D6 JUMP JUMPDEST SWAP2 PUSH1 0x44 CALLDATALOAD DUP2 DUP2 GT PUSH2 0x28F JUMPI PUSH2 0xA2B SWAP1 CALLDATASIZE SWAP1 PUSH1 0x4 ADD PUSH2 0x42D6 JUMP JUMPDEST SWAP3 PUSH2 0xA34 PUSH2 0x4784 JUMP JUMPDEST DUP3 PUSH1 0x0 MSTORE PUSH1 0x20 SWAP3 PUSH1 0x2 DUP5 MSTORE PUSH2 0xA58 PUSH1 0x1 PUSH1 0x1 PUSH1 0xA0 SHL SUB PUSH1 0x40 PUSH1 0x0 KECCAK256 SLOAD AND ISZERO ISZERO PUSH2 0x53A6 JUMP JUMPDEST DUP1 PUSH1 0x0 MSTORE PUSH1 0xB DUP5 MSTORE PUSH1 0x40 PUSH1 0x0 KECCAK256 DUP3 MLOAD DUP5 DUP2 GT PUSH2 0xBBB JUMPI DUP1 PUSH2 0xA79 DUP4 SLOAD PUSH2 0x42F4 JUMP JUMPDEST SWAP5 PUSH1 0x1F SWAP6 DUP7 DUP2 GT PUSH2 0xC41 JUMPI JUMPDEST POP DUP8 SWAP1 DUP7 DUP4 GT PUSH1 0x1 EQ PUSH2 0xBDC JUMPI PUSH1 0x0 SWAP3 PUSH2 0xBD1 JUMPI JUMPDEST POP POP DUP2 PUSH1 0x1 SHL SWAP2 PUSH1 0x0 NOT SWAP1 PUSH1 0x3 SHL SHR NOT AND OR SWAP1 SSTORE JUMPDEST PUSH1 0x0 MSTORE PUSH1 0xB DUP4 MSTORE PUSH1 0x4 PUSH1 0x40 PUSH1 0x0 KECCAK256 ADD SWAP3 DUP5 MLOAD SWAP3 DUP4 GT PUSH2 0xBBB JUMPI PUSH2 0xAD2 DUP5 SLOAD PUSH2 0x42F4 JUMP JUMPDEST DUP3 DUP2 GT PUSH2 0xB78 JUMPI JUMPDEST POP DUP1 SWAP2 DUP4 GT PUSH1 0x1 EQ PUSH2 0xB15 JUMPI POP DUP2 SWAP3 SWAP4 PUSH1 0x0 SWAP3 PUSH2 0xB0A JUMPI JUMPDEST POP POP PUSH1 0x0 NOT PUSH1 0x3 DUP4 SWAP1 SHL SHR NOT AND PUSH1 0x1 SWAP2 SWAP1 SWAP2 SHL OR SWAP1 SSTORE STOP JUMPDEST ADD MLOAD SWAP1 POP DUP4 DUP1 PUSH2 0xAF2 JUMP JUMPDEST SWAP1 PUSH1 0x1F NOT DUP4 AND SWAP5 DUP5 PUSH1 0x0 MSTORE DUP3 PUSH1 0x0 KECCAK256 SWAP3 PUSH1 0x0 SWAP1 JUMPDEST DUP8 DUP3 LT PUSH2 0xB60 JUMPI POP POP DUP4 PUSH1 0x1 SWAP6 SWAP7 LT PUSH2 0xB47 JUMPI JUMPDEST POP POP POP DUP2 SHL ADD SWAP1 SSTORE STOP JUMPDEST ADD MLOAD PUSH1 0x0 NOT PUSH1 0xF8 DUP5 PUSH1 0x3 SHL AND SHR NOT AND SWAP1 SSTORE DUP4 DUP1 DUP1 PUSH2 0xB3D JUMP JUMPDEST DUP1 PUSH1 0x1 DUP6 SWAP7 DUP3 SWAP5 SWAP7 DUP7 ADD MLOAD DUP2 SSTORE ADD SWAP6 ADD SWAP4 ADD SWAP1 PUSH2 0xB29 JUMP JUMPDEST DUP5 PUSH1 0x0 MSTORE DUP2 PUSH1 0x0 KECCAK256 DUP4 DUP1 DUP7 ADD PUSH1 0x5 SHR DUP3 ADD SWAP3 DUP5 DUP8 LT PUSH2 0xBB2 JUMPI JUMPDEST ADD PUSH1 0x5 SHR ADD SWAP1 JUMPDEST DUP2 DUP2 LT PUSH2 0xBA6 JUMPI POP PUSH2 0xADA JUMP JUMPDEST PUSH1 0x0 DUP2 SSTORE PUSH1 0x1 ADD PUSH2 0xB99 JUMP JUMPDEST SWAP3 POP DUP2 SWAP3 PUSH2 0xB92 JUMP JUMPDEST PUSH4 0x4E487B71 PUSH1 0xE0 SHL PUSH1 0x0 MSTORE PUSH1 0x41 PUSH1 0x4 MSTORE PUSH1 0x24 PUSH1 0x0 REVERT JUMPDEST ADD MLOAD SWAP1 POP DUP9 DUP1 PUSH2 0xA9A JUMP JUMPDEST PUSH1 0x0 DUP6 DUP2 MSTORE DUP10 DUP2 KECCAK256 SWAP4 POP PUSH1 0x1F NOT DUP6 AND SWAP1 JUMPDEST DUP11 DUP3 DUP3 LT PUSH2 0xC2B JUMPI POP POP SWAP1 DUP5 PUSH1 0x1 SWAP6 SWAP5 SWAP4 SWAP3 LT PUSH2 0xC12 JUMPI JUMPDEST POP POP POP DUP2 SHL ADD SWAP1 SSTORE PUSH2 0xAAF JUMP JUMPDEST ADD MLOAD PUSH1 0x0 NOT PUSH1 0xF8 DUP5 PUSH1 0x3 SHL AND SHR NOT AND SWAP1 SSTORE DUP9 DUP1 DUP1 PUSH2 0xC05 JUMP JUMPDEST PUSH1 0x1 DUP6 SWAP7 DUP3 SWAP4 SWAP7 DUP7 ADD MLOAD DUP2 SSTORE ADD SWAP6 ADD SWAP4 ADD PUSH2 0xBED JUMP JUMPDEST SWAP1 SWAP2 POP DUP4 PUSH1 0x0 MSTORE DUP8 PUSH1 0x0 KECCAK256 DUP7 DUP1 DUP6 ADD PUSH1 0x5 SHR DUP3 ADD SWAP3 DUP11 DUP7 LT PUSH2 0xC87 JUMPI JUMPDEST SWAP1 DUP6 SWAP5 SWAP4 SWAP3 SWAP2 ADD PUSH1 0x5 SHR ADD SWAP1 JUMPDEST DUP2 DUP2 LT PUSH2 0xC78 JUMPI POP PUSH2 0xA85 JUMP JUMPDEST PUSH1 0x0 DUP2 SSTORE DUP5 SWAP4 POP PUSH1 0x1 ADD PUSH2 0xC6B JUMP JUMPDEST SWAP3 POP DUP2 SWAP3 PUSH2 0xC5E JUMP JUMPDEST CALLVALUE PUSH2 0x28F JUMPI PUSH1 0x0 CALLDATASIZE PUSH1 0x3 NOT ADD SLT PUSH2 0x28F JUMPI PUSH1 0x40 MLOAD PUSH1 0x0 PUSH1 0x1 DUP1 SLOAD SWAP1 PUSH2 0xCB4 DUP3 PUSH2 0x42F4 JUMP JUMPDEST DUP1 DUP6 MSTORE SWAP2 DUP2 DUP2 AND SWAP1 DUP2 ISZERO PUSH2 0xD34 JUMPI POP PUSH1 0x1 EQ PUSH2 0xCDB JUMPI JUMPDEST PUSH2 0x42D DUP5 PUSH2 0x7F1 DUP2 DUP7 SUB DUP3 PUSH2 0x4261 JUMP JUMPDEST PUSH1 0x0 DUP2 DUP2 MSTORE SWAP3 POP PUSH32 0xB10E2D527612073B26EECDFD717E6A320CF44B4AFAC2B0732D9FCBE2B7FA0CF6 JUMPDEST DUP3 DUP5 LT PUSH2 0xD1C JUMPI POP POP POP DUP2 ADD PUSH1 0x20 ADD PUSH2 0x7F1 DUP3 PUSH2 0xCCB JUMP JUMPDEST DUP1 SLOAD PUSH1 0x20 DUP6 DUP8 ADD DUP2 ADD SWAP2 SWAP1 SWAP2 MSTORE SWAP1 SWAP4 ADD SWAP3 DUP2 ADD PUSH2 0xD04 JUMP JUMPDEST PUSH1 0xFF NOT AND PUSH1 0x20 DUP1 DUP8 ADD SWAP2 SWAP1 SWAP2 MSTORE SWAP3 ISZERO ISZERO PUSH1 0x5 SHL DUP6 ADD SWAP1 SWAP3 ADD SWAP3 POP PUSH2 0x7F1 SWAP2 POP DUP4 SWAP1 POP PUSH2 0xCCB JUMP JUMPDEST CALLVALUE PUSH2 0x28F JUMPI PUSH1 0x80 CALLDATASIZE PUSH1 0x3 NOT ADD SLT PUSH2 0x28F JUMPI PUSH2 0xD74 PUSH2 0x4130 JUMP JUMPDEST PUSH1 0x24 CALLDATALOAD PUSH8 0xFFFFFFFFFFFFFFFF DUP2 GT PUSH2 0x28F JUMPI PUSH2 0xD94 SWAP1 CALLDATASIZE SWAP1 PUSH1 0x4 ADD PUSH2 0x42D6 JUMP JUMPDEST PUSH1 0x44 CALLDATALOAD PUSH8 0xFFFFFFFFFFFFFFFF DUP2 GT PUSH2 0x28F JUMPI PUSH2 0xDB4 SWAP1 CALLDATASIZE SWAP1 PUSH1 0x4 ADD PUSH2 0x42D6 JUMP JUMPDEST SWAP2 PUSH1 0x64 CALLDATALOAD PUSH8 0xFFFFFFFFFFFFFFFF DUP2 GT PUSH2 0x28F JUMPI PUSH2 0xDD5 SWAP1 CALLDATASIZE SWAP1 PUSH1 0x4 ADD PUSH2 0x42D6 JUMP JUMPDEST PUSH2 0xDDD PUSH2 0x4817 JUMP JUMPDEST PUSH2 0xDE5 PUSH2 0x51FB JUMP JUMPDEST PUSH2 0xDF9 PUSH1 0x1 PUSH1 0x1 PUSH1 0xA0 SHL SUB DUP4 AND ISZERO ISZERO PUSH2 0x4CE7 JUMP JUMPDEST DUP3 MLOAD ISZERO PUSH2 0x186B JUMPI DUP4 MLOAD ISZERO PUSH2 0x1827 JUMPI DUP1 MLOAD ISZERO PUSH2 0x17E3 JUMPI PUSH1 0xFF PUSH1 0x40 MLOAD PUSH1 0x20 DUP2 DUP5 MLOAD PUSH2 0xE25 DUP2 DUP4 DUP6 DUP10 ADD PUSH2 0x40E8 JUMP JUMPDEST DUP2 ADD PUSH1 0xD DUP2 MSTORE SUB ADD SWAP1 KECCAK256 SLOAD AND PUSH2 0x179F JUMPI PUSH2 0xE40 PUSH1 0x9 SLOAD PUSH2 0x4D32 JUMP JUMPDEST SWAP1 DUP2 PUSH1 0x9 SSTORE PUSH1 0x40 MLOAD PUSH2 0xE51 DUP2 PUSH2 0x41EF JUMP JUMPDEST PUSH1 0x40 MLOAD PUSH2 0xE5D DUP2 PUSH2 0x4245 JUMP JUMPDEST PUSH1 0x0 DUP2 MSTORE DUP2 MSTORE DUP5 PUSH1 0x20 DUP3 ADD MSTORE DUP6 PUSH1 0x40 DUP3 ADD MSTORE DUP2 PUSH1 0x60 DUP3 ADD MSTORE PUSH1 0x40 MLOAD PUSH2 0xE81 DUP2 PUSH2 0x4245 JUMP JUMPDEST PUSH1 0x0 DUP2 MSTORE PUSH1 0x80 DUP3 ADD MSTORE TIMESTAMP PUSH1 0xA0 DUP3 ADD MSTORE PUSH1 0x0 PUSH1 0xC0 DUP3 ADD MSTORE CALLER PUSH1 0xE0 DUP3 ADD MSTORE DUP3 PUSH1 0x0 MSTORE PUSH1 0xB PUSH1 0x20 MSTORE PUSH1 0x40 PUSH1 0x0 KECCAK256 DUP2 MLOAD DUP1 MLOAD SWAP1 PUSH8 0xFFFFFFFFFFFFFFFF DUP3 GT PUSH2 0xBBB JUMPI DUP2 SWAP1 PUSH2 0xECB DUP5 SLOAD PUSH2 0x42F4 JUMP JUMPDEST PUSH1 0x1F DUP2 GT PUSH2 0x174F JUMPI JUMPDEST POP PUSH1 0x20 SWAP1 PUSH1 0x1F DUP4 GT PUSH1 0x1 EQ PUSH2 0x16E9 JUMPI PUSH1 0x0 SWAP3 PUSH2 0x16DE JUMPI JUMPDEST POP POP DUP2 PUSH1 0x1 SHL SWAP2 PUSH1 0x0 NOT SWAP1 PUSH1 0x3 SHL SHR NOT AND OR DUP2 SSTORE JUMPDEST PUSH1 0x20 DUP3 ADD MLOAD DUP1 MLOAD SWAP1 PUSH8 0xFFFFFFFFFFFFFFFF DUP3 GT PUSH2 0xBBB JUMPI DUP2 SWAP1 PUSH2 0xF26 PUSH1 0x1 DUP6 ADD SLOAD PUSH2 0x42F4 JUMP JUMPDEST PUSH1 0x1F DUP2 GT PUSH2 0x168B JUMPI JUMPDEST POP PUSH1 0x20 SWAP1 PUSH1 0x1F DUP4 GT PUSH1 0x1 EQ PUSH2 0x1619 JUMPI PUSH1 0x0 SWAP3 PUSH2 0x160E JUMPI JUMPDEST POP POP DUP2 PUSH1 0x1 SHL SWAP2 PUSH1 0x0 NOT SWAP1 PUSH1 0x3 SHL SHR NOT AND OR PUSH1 0x1 DUP3 ADD SSTORE JUMPDEST PUSH1 0x40 DUP3 ADD MLOAD DUP1 MLOAD SWAP1 PUSH8 0xFFFFFFFFFFFFFFFF DUP3 GT PUSH2 0xBBB JUMPI DUP2 SWAP1 PUSH2 0xF84 PUSH1 0x2 DUP6 ADD SLOAD PUSH2 0x42F4 JUMP JUMPDEST PUSH1 0x1F DUP2 GT PUSH2 0x15BB JUMPI JUMPDEST POP PUSH1 0x20 SWAP1 PUSH1 0x1F DUP4 GT PUSH1 0x1 EQ PUSH2 0x1549 JUMPI PUSH1 0x0 SWAP3 PUSH2 0x153E JUMPI JUMPDEST POP POP DUP2 PUSH1 0x1 SHL SWAP2 PUSH1 0x0 NOT SWAP1 PUSH1 0x3 SHL SHR NOT AND OR PUSH1 0x2 DUP3 ADD SSTORE JUMPDEST PUSH1 0x60 DUP3 ADD MLOAD DUP1 MLOAD SWAP1 PUSH8 0xFFFFFFFFFFFFFFFF DUP3 GT PUSH2 0xBBB JUMPI DUP2 SWAP1 PUSH2 0xFE2 PUSH1 0x3 DUP6 ADD SLOAD PUSH2 0x42F4 JUMP JUMPDEST PUSH1 0x1F DUP2 GT PUSH2 0x14EB JUMPI JUMPDEST POP PUSH1 0x20 SWAP1 PUSH1 0x1F DUP4 GT PUSH1 0x1 EQ PUSH2 0x147E JUMPI PUSH1 0x0 SWAP3 PUSH2 0x1473 JUMPI JUMPDEST POP POP DUP2 PUSH1 0x1 SHL SWAP2 PUSH1 0x0 NOT SWAP1 PUSH1 0x3 SHL SHR NOT AND OR PUSH1 0x3 DUP3 ADD SSTORE JUMPDEST PUSH1 0x80 DUP3 ADD MLOAD DUP1 MLOAD SWAP1 PUSH8 0xFFFFFFFFFFFFFFFF DUP3 GT PUSH2 0xBBB JUMPI PUSH2 0x103E PUSH1 0x4 DUP5 ADD SLOAD PUSH2 0x42F4 JUMP JUMPDEST PUSH1 0x1F DUP2 GT PUSH2 0x142C JUMPI JUMPDEST POP PUSH1 0x20 SWAP1 PUSH1 0x1F DUP4 GT PUSH1 0x1 EQ PUSH2 0x13B7 JUMPI SWAP2 DUP1 PUSH1 0xE0 SWAP5 SWAP3 PUSH1 0x6 SWAP5 PUSH1 0x0 SWAP3 PUSH2 0x13AC JUMPI JUMPDEST POP POP DUP2 PUSH1 0x1 SHL SWAP2 PUSH1 0x0 NOT SWAP1 PUSH1 0x3 SHL SHR NOT AND OR PUSH1 0x4 DUP3 ADD SSTORE JUMPDEST PUSH1 0xA0 DUP5 ADD MLOAD PUSH1 0x5 DUP3 ADD SSTORE ADD SWAP2 PUSH2 0x10A7 PUSH1 0xC0 DUP3 ADD MLOAD ISZERO ISZERO DUP5 SWAP1 PUSH1 0xFF DUP1 NOT DUP4 SLOAD AND SWAP2 ISZERO ISZERO AND OR SWAP1 SSTORE JUMP JUMPDEST ADD MLOAD PUSH32 0xFFFFFFFFFFFFFFFFFFFFFF0000000000000000000000000000000000000000FF PUSH21 0xFFFFFFFFFFFFFFFFFFFFFFFFFFFFFFFFFFFFFFFF00 DUP4 SLOAD SWAP3 PUSH1 0x8 SHL AND SWAP2 AND OR SWAP1 SSTORE PUSH1 0x1 PUSH1 0x1 PUSH1 0xA0 SHL SUB DUP4 AND PUSH1 0x0 MSTORE PUSH1 0xC PUSH1 0x20 MSTORE PUSH2 0x110C DUP3 PUSH1 0x40 PUSH1 0x0 KECCAK256 PUSH2 0x4D57 JUMP JUMPDEST PUSH1 0x40 MLOAD PUSH1 0x20 DUP2 DUP4 MLOAD PUSH2 0x1121 DUP2 DUP4 DUP6 DUP9 ADD PUSH2 0x40E8 JUMP JUMPDEST DUP2 ADD PUSH1 0xD DUP2 MSTORE SUB ADD SWAP1 KECCAK256 PUSH1 0x1 PUSH1 0xFF NOT DUP3 SLOAD AND OR SWAP1 SSTORE PUSH2 0x1140 DUP3 DUP5 PUSH2 0x4E40 JUMP JUMPDEST PUSH2 0x11AE PUSH2 0x114C DUP4 PUSH2 0x5231 JUMP JUMPDEST PUSH2 0x11A8 PUSH1 0x1 PUSH1 0x40 MLOAD DUP1 SWAP4 PUSH2 0x1162 PUSH1 0x20 DUP4 ADD PUSH2 0x4D91 JUMP JUMPDEST PUSH32 0x2F00000000000000000000000000000000000000000000000000000000000000 DUP2 MSTORE PUSH2 0x1198 DUP3 MLOAD DUP1 SWAP4 PUSH1 0x20 DUP8 DUP6 ADD SWAP2 ADD PUSH2 0x40E8 JUMP JUMPDEST ADD SUB PUSH1 0x1E NOT DUP2 ADD DUP5 MSTORE ADD DUP3 PUSH2 0x4261 JUMP JUMPDEST DUP4 PUSH2 0x5085 JUMP JUMPDEST DUP2 PUSH1 0x0 MSTORE PUSH1 0xE PUSH1 0x20 MSTORE PUSH1 0x40 PUSH1 0x0 KECCAK256 SWAP5 DUP2 MLOAD SWAP6 PUSH8 0xFFFFFFFFFFFFFFFF DUP8 GT PUSH2 0xBBB JUMPI PUSH2 0x11D9 DUP2 SLOAD PUSH2 0x42F4 JUMP JUMPDEST SWAP7 PUSH1 0x1F DUP9 GT PUSH2 0x1364 JUMPI JUMPDEST PUSH1 0x20 SWAP8 POP DUP8 PUSH1 0x1F DUP3 GT PUSH1 0x1 EQ PUSH2 0x12F5 JUMPI SWAP2 DUP2 PUSH2 0x12B2 SWAP7 SWAP8 SWAP9 SWAP3 PUSH2 0x1241 SWAP5 PUSH1 0x0 SWAP2 PUSH2 0x12EA JUMPI JUMPDEST POP DUP2 PUSH1 0x1 SHL SWAP2 PUSH1 0x0 NOT SWAP1 PUSH1 0x3 SHL SHR NOT AND OR SWAP1 SSTORE JUMPDEST DUP6 PUSH1 0x40 MLOAD DUP10 DUP2 DUP8 MLOAD PUSH2 0x1231 DUP2 DUP4 DUP6 DUP13 ADD PUSH2 0x40E8 JUMP JUMPDEST DUP2 ADD PUSH1 0xF DUP2 MSTORE SUB ADD SWAP1 KECCAK256 SSTORE PUSH2 0x4E20 JUMP JUMPDEST SWAP1 DUP5 PUSH32 0x2242ED4813396C04BEA58B1D1874B4EDB999B043D0B6A9DA1D585671D0802B38 PUSH2 0x1297 PUSH2 0x1289 PUSH1 0x40 MLOAD SWAP5 PUSH1 0x80 DUP7 MSTORE PUSH1 0x0 PUSH1 0x80 DUP8 ADD MSTORE PUSH1 0xA0 DUP13 DUP8 ADD MSTORE PUSH1 0xA0 DUP7 ADD SWAP1 PUSH2 0x410B JUMP JUMPDEST DUP5 DUP2 SUB PUSH1 0x40 DUP7 ADD MSTORE DUP7 PUSH2 0x410B JUMP JUMPDEST SWAP3 TIMESTAMP PUSH1 0x60 DUP3 ADD MSTORE DUP1 PUSH1 0x1 PUSH1 0x1 PUSH1 0xA0 SHL SUB DUP11 AND SWAP5 SUB SWAP1 LOG4 PUSH2 0x4E20 JUMP JUMPDEST PUSH1 0x1 PUSH1 0x1 PUSH1 0xA0 SHL SUB PUSH1 0x40 MLOAD SWAP4 AND SWAP1 DUP3 PUSH32 0x86A5B516ACE10765A5D34D491BB7FDE463026A048C1AE848B689CC5B00B7F0B8 PUSH1 0x0 DUP1 LOG4 DUP2 MSTORE RETURN JUMPDEST SWAP1 POP DUP7 ADD MLOAD DUP12 PUSH2 0x1208 JUMP JUMPDEST DUP3 PUSH1 0x0 MSTORE DUP9 PUSH1 0x0 KECCAK256 SWAP1 PUSH1 0x0 JUMPDEST PUSH1 0x1F NOT DUP5 AND DUP2 LT PUSH2 0x134D JUMPI POP DUP3 PUSH2 0x1241 SWAP5 SWAP3 PUSH1 0x1 SWAP3 PUSH2 0x12B2 SWAP10 SWAP11 SWAP12 SWAP6 PUSH1 0x1F NOT DUP2 AND LT PUSH2 0x1334 JUMPI JUMPDEST POP POP DUP2 SHL ADD SWAP1 SSTORE PUSH2 0x121C JUMP JUMPDEST DUP9 ADD MLOAD PUSH1 0x0 NOT PUSH1 0xF8 DUP5 PUSH1 0x3 SHL AND SHR NOT AND SWAP1 SSTORE DUP12 DUP1 PUSH2 0x1328 JUMP JUMPDEST SWAP1 SWAP2 DUP11 PUSH1 0x1 DUP2 SWAP3 DUP6 DUP11 ADD MLOAD DUP2 SSTORE ADD SWAP4 ADD SWAP2 ADD PUSH2 0x1301 JUMP JUMPDEST DUP2 PUSH1 0x0 MSTORE PUSH1 0x20 PUSH1 0x0 KECCAK256 PUSH1 0x1F DUP3 ADD PUSH1 0x5 SHR DUP2 ADD SWAP9 PUSH1 0x20 DUP4 LT PUSH2 0x13A2 JUMPI JUMPDEST PUSH1 0x1F ADD PUSH1 0x5 SHR ADD SWAP8 JUMPDEST DUP9 DUP2 LT PUSH2 0x1396 JUMPI POP PUSH2 0x11E3 JUMP JUMPDEST PUSH1 0x0 DUP2 SSTORE PUSH1 0x1 ADD PUSH2 0x1389 JUMP JUMPDEST SWAP1 SWAP9 POP DUP9 SWAP1 PUSH2 0x1380 JUMP JUMPDEST ADD MLOAD SWAP1 POP DUP12 DUP1 PUSH2 0x1067 JUMP JUMPDEST SWAP1 PUSH1 0x4 DUP5 ADD PUSH1 0x0 MSTORE PUSH1 0x20 PUSH1 0x0 KECCAK256 SWAP2 PUSH1 0x0 JUMPDEST PUSH1 0x1F NOT DUP6 AND DUP2 LT PUSH2 0x1414 JUMPI POP SWAP3 PUSH1 0xE0 SWAP5 SWAP3 PUSH1 0x1 SWAP3 PUSH1 0x6 SWAP6 DUP4 PUSH1 0x1F NOT DUP2 AND LT PUSH2 0x13FB JUMPI JUMPDEST POP POP POP DUP2 SHL ADD PUSH1 0x4 DUP3 ADD SSTORE PUSH2 0x107F JUMP JUMPDEST ADD MLOAD PUSH1 0x0 NOT PUSH1 0xF8 DUP5 PUSH1 0x3 SHL AND SHR NOT AND SWAP1 SSTORE DUP12 DUP1 DUP1 PUSH2 0x13EB JUMP JUMPDEST SWAP2 SWAP3 PUSH1 0x20 PUSH1 0x1 DUP2 SWAP3 DUP7 DUP6 ADD MLOAD DUP2 SSTORE ADD SWAP5 ADD SWAP3 ADD PUSH2 0x13C8 JUMP JUMPDEST PUSH1 0x4 DUP5 ADD PUSH1 0x0 MSTORE PUSH1 0x20 PUSH1 0x0 KECCAK256 PUSH1 0x1F DUP5 ADD PUSH1 0x5 SHR DUP2 ADD PUSH1 0x20 DUP6 LT PUSH2 0x146C JUMPI JUMPDEST PUSH1 0x1F DUP4 ADD PUSH1 0x5 SHR DUP3 ADD DUP2 LT PUSH2 0x1460 JUMPI POP POP PUSH2 0x1047 JUMP JUMPDEST PUSH1 0x0 DUP2 SSTORE PUSH1 0x1 ADD PUSH2 0x144A JUMP JUMPDEST POP DUP1 PUSH2 0x144A JUMP JUMPDEST ADD MLOAD SWAP1 POP DUP10 DUP1 PUSH2 0x1002 JUMP JUMPDEST PUSH1 0x3 DUP6 ADD PUSH1 0x0 SWAP1 DUP2 MSTORE PUSH1 0x20 DUP2 KECCAK256 SWAP4 POP PUSH1 0x1F NOT DUP6 AND SWAP1 JUMPDEST DUP2 DUP2 LT PUSH2 0x14D3 JUMPI POP SWAP1 DUP5 PUSH1 0x1 SWAP6 SWAP5 SWAP4 SWAP3 LT PUSH2 0x14BA JUMPI JUMPDEST POP POP POP DUP2 SHL ADD PUSH1 0x3 DUP3 ADD SSTORE PUSH2 0x101A JUMP JUMPDEST ADD MLOAD PUSH1 0x0 NOT PUSH1 0xF8 DUP5 PUSH1 0x3 SHL AND SHR NOT AND SWAP1 SSTORE DUP10 DUP1 DUP1 PUSH2 0x14AA JUMP JUMPDEST SWAP3 SWAP4 PUSH1 0x20 PUSH1 0x1 DUP2 SWAP3 DUP8 DUP7 ADD MLOAD DUP2 SSTORE ADD SWAP6 ADD SWAP4 ADD PUSH2 0x1494 JUMP JUMPDEST SWAP1 SWAP2 POP PUSH1 0x3 DUP5 ADD PUSH1 0x0 MSTORE PUSH1 0x20 PUSH1 0x0 KECCAK256 PUSH1 0x1F DUP5 ADD PUSH1 0x5 SHR DUP2 ADD PUSH1 0x20 DUP6 LT PUSH2 0x1537 JUMPI JUMPDEST SWAP1 DUP5 SWAP4 SWAP3 SWAP2 JUMPDEST PUSH1 0x1F DUP4 ADD PUSH1 0x5 SHR DUP3 ADD DUP2 LT PUSH2 0x1528 JUMPI POP POP PUSH2 0xFEB JUMP JUMPDEST PUSH1 0x0 DUP2 SSTORE DUP6 SWAP5 POP PUSH1 0x1 ADD PUSH2 0x1512 JUMP JUMPDEST POP DUP1 PUSH2 0x150C JUMP JUMPDEST ADD MLOAD SWAP1 POP DUP10 DUP1 PUSH2 0xFA4 JUMP JUMPDEST SWAP3 POP PUSH1 0x2 DUP5 ADD PUSH1 0x0 MSTORE PUSH1 0x20 PUSH1 0x0 KECCAK256 SWAP1 PUSH1 0x0 SWAP4 JUMPDEST PUSH1 0x1F NOT DUP5 AND DUP6 LT PUSH2 0x15A0 JUMPI PUSH1 0x1 SWAP5 POP DUP4 PUSH1 0x1F NOT DUP2 AND LT PUSH2 0x1587 JUMPI JUMPDEST POP POP POP DUP2 SHL ADD PUSH1 0x2 DUP3 ADD SSTORE PUSH2 0xFBC JUMP JUMPDEST ADD MLOAD PUSH1 0x0 NOT PUSH1 0xF8 DUP5 PUSH1 0x3 SHL AND SHR NOT AND SWAP1 SSTORE DUP10 DUP1 DUP1 PUSH2 0x1577 JUMP JUMPDEST DUP2 DUP2 ADD MLOAD DUP4 SSTORE PUSH1 0x20 SWAP5 DUP6 ADD SWAP5 PUSH1 0x1 SWAP1 SWAP4 ADD SWAP3 SWAP1 SWAP2 ADD SWAP1 PUSH2 0x155C JUMP JUMPDEST SWAP1 SWAP2 POP PUSH1 0x2 DUP5 ADD PUSH1 0x0 MSTORE PUSH1 0x20 PUSH1 0x0 KECCAK256 PUSH1 0x1F DUP5 ADD PUSH1 0x5 SHR DUP2 ADD PUSH1 0x20 DUP6 LT PUSH2 0x1607 JUMPI JUMPDEST SWAP1 DUP5 SWAP4 SWAP3 SWAP2 JUMPDEST PUSH1 0x1F DUP4 ADD PUSH1 0x5 SHR DUP3 ADD DUP2 LT PUSH2 0x15F8 JUMPI POP POP PUSH2 0xF8D JUMP JUMPDEST PUSH1 0x0 DUP2 SSTORE DUP6 SWAP5 POP PUSH1 0x1 ADD PUSH2 0x15E2 JUMP JUMPDEST POP DUP1 PUSH2 0x15DC JUMP JUMPDEST ADD MLOAD SWAP1 POP DUP10 DUP1 PUSH2 0xF46 JUMP JUMPDEST SWAP3 POP PUSH1 0x1 DUP5 ADD PUSH1 0x0 MSTORE PUSH1 0x20 PUSH1 0x0 KECCAK256 SWAP1 PUSH1 0x0 SWAP4 JUMPDEST PUSH1 0x1F NOT DUP5 AND DUP6 LT PUSH2 0x1670 JUMPI PUSH1 0x1 SWAP5 POP DUP4 PUSH1 0x1F NOT DUP2 AND LT PUSH2 0x1657 JUMPI JUMPDEST POP POP POP DUP2 SHL ADD PUSH1 0x1 DUP3 ADD SSTORE PUSH2 0xF5E JUMP JUMPDEST ADD MLOAD PUSH1 0x0 NOT PUSH1 0xF8 DUP5 PUSH1 0x3 SHL AND SHR NOT AND SWAP1 SSTORE DUP10 DUP1 DUP1 PUSH2 0x1647 JUMP JUMPDEST DUP2 DUP2 ADD MLOAD DUP4 SSTORE PUSH1 0x20 SWAP5 DUP6 ADD SWAP5 PUSH1 0x1 SWAP1 SWAP4 ADD SWAP3 SWAP1 SWAP2 ADD SWAP1 PUSH2 0x162C JUMP JUMPDEST SWAP1 SWAP2 POP PUSH1 0x1 DUP5 ADD PUSH1 0x0 MSTORE PUSH1 0x20 PUSH1 0x0 KECCAK256 PUSH1 0x1F DUP5 ADD PUSH1 0x5 SHR DUP2 ADD PUSH1 0x20 DUP6 LT PUSH2 0x16D7 JUMPI JUMPDEST SWAP1 DUP5 SWAP4 SWAP3 SWAP2 JUMPDEST PUSH1 0x1F DUP4 ADD PUSH1 0x5 SHR DUP3 ADD DUP2 LT PUSH2 0x16C8 JUMPI POP POP PUSH2 0xF2F JUMP JUMPDEST PUSH1 0x0 DUP2 SSTORE DUP6 SWAP5 POP PUSH1 0x1 ADD PUSH2 0x16B2 JUMP JUMPDEST POP DUP1 PUSH2 0x16AC JUMP JUMPDEST ADD MLOAD SWAP1 POP DUP10 DUP1 PUSH2 0xEEB JUMP JUMPDEST PUSH1 0x0 DUP6 DUP2 MSTORE PUSH1 0x20 DUP2 KECCAK256 SWAP4 POP PUSH1 0x1F NOT DUP6 AND SWAP1 JUMPDEST DUP2 DUP2 LT PUSH2 0x1737 JUMPI POP SWAP1 DUP5 PUSH1 0x1 SWAP6 SWAP5 SWAP4 SWAP3 LT PUSH2 0x171E JUMPI JUMPDEST POP POP POP DUP2 SHL ADD DUP2 SSTORE PUSH2 0xF00 JUMP JUMPDEST ADD MLOAD PUSH1 0x0 NOT PUSH1 0xF8 DUP5 PUSH1 0x3 SHL AND SHR NOT AND SWAP1 SSTORE DUP10 DUP1 DUP1 PUSH2 0x1711 JUMP JUMPDEST SWAP3 SWAP4 PUSH1 0x20 PUSH1 0x1 DUP2 SWAP3 DUP8 DUP7 ADD MLOAD DUP2 SSTORE ADD SWAP6 ADD SWAP4 ADD PUSH2 0x16FB JUMP JUMPDEST SWAP1 SWAP2 POP DUP4 PUSH1 0x0 MSTORE PUSH1 0x20 PUSH1 0x0 KECCAK256 PUSH1 0x1F DUP5 ADD PUSH1 0x5 SHR DUP2 ADD PUSH1 0x20 DUP6 LT PUSH2 0x1798 JUMPI JUMPDEST SWAP1 DUP5 SWAP4 SWAP3 SWAP2 JUMPDEST PUSH1 0x1F DUP4 ADD PUSH1 0x5 SHR DUP3 ADD DUP2 LT PUSH2 0x1789 JUMPI POP POP PUSH2 0xED4 JUMP JUMPDEST PUSH1 0x0 DUP2 SSTORE DUP6 SWAP5 POP PUSH1 0x1 ADD PUSH2 0x1773 JUMP JUMPDEST POP DUP1 PUSH2 0x176D JUMP JUMPDEST PUSH1 0x64 PUSH1 0x40 MLOAD PUSH3 0x461BCD PUSH1 0xE5 SHL DUP2 MSTORE PUSH1 0x20 PUSH1 0x4 DUP3 ADD MSTORE PUSH1 0x16 PUSH1 0x24 DUP3 ADD MSTORE PUSH32 0x49504653206861736820616C7265616479207573656400000000000000000000 PUSH1 0x44 DUP3 ADD MSTORE REVERT JUMPDEST PUSH1 0x64 PUSH1 0x40 MLOAD PUSH3 0x461BCD PUSH1 0xE5 SHL DUP2 MSTORE PUSH1 0x20 PUSH1 0x4 DUP3 ADD MSTORE PUSH1 0x19 PUSH1 0x24 DUP3 ADD MSTORE PUSH32 0x4950465320686173682063616E6E6F7420626520656D70747900000000000000 PUSH1 0x44 DUP3 ADD MSTORE REVERT JUMPDEST PUSH1 0x64 PUSH1 0x40 MLOAD PUSH3 0x461BCD PUSH1 0xE5 SHL DUP2 MSTORE PUSH1 0x20 PUSH1 0x4 DUP3 ADD MSTORE PUSH1 0x15 PUSH1 0x24 DUP3 ADD MSTORE PUSH32 0x47726164652063616E6E6F7420626520656D7074790000000000000000000000 PUSH1 0x44 DUP3 ADD MSTORE REVERT JUMPDEST PUSH1 0x64 PUSH1 0x40 MLOAD PUSH3 0x461BCD PUSH1 0xE5 SHL DUP2 MSTORE PUSH1 0x20 PUSH1 0x4 DUP3 ADD MSTORE PUSH1 0x1B PUSH1 0x24 DUP3 ADD MSTORE PUSH32 0x436F75727365206E616D652063616E6E6F7420626520656D7074790000000000 PUSH1 0x44 DUP3 ADD MSTORE REVERT JUMPDEST CALLVALUE PUSH2 0x28F JUMPI PUSH1 0x40 CALLDATASIZE PUSH1 0x3 NOT ADD SLT PUSH2 0x28F JUMPI PUSH2 0x18C8 PUSH2 0x4146 JUMP JUMPDEST PUSH1 0x4 CALLDATALOAD PUSH1 0x0 MSTORE PUSH1 0x7 PUSH1 0x20 MSTORE PUSH1 0x1 PUSH1 0x1 PUSH1 0xA0 SHL SUB PUSH1 0x40 PUSH1 0x0 KECCAK256 SWAP2 AND PUSH1 0x0 MSTORE PUSH1 0x20 MSTORE PUSH1 0x20 PUSH1 0xFF PUSH1 0x40 PUSH1 0x0 KECCAK256 SLOAD AND PUSH1 0x40 MLOAD SWAP1 ISZERO ISZERO DUP2 MSTORE RETURN JUMPDEST CALLVALUE PUSH2 0x28F JUMPI PUSH1 0x0 CALLDATASIZE PUSH1 0x3 NOT ADD SLT PUSH2 0x28F JUMPI PUSH2 0x1916 PUSH2 0x4784 JUMP JUMPDEST PUSH2 0x191E PUSH2 0x51FB JUMP JUMPDEST PUSH1 0x1 PUSH1 0xFF NOT PUSH1 0x8 SLOAD AND OR PUSH1 0x8 SSTORE PUSH32 0x62E78CEA01BEE320CD4E420270B5EA74000D11B0C9F74754EBDBFC544B05A258 PUSH1 0x20 PUSH1 0x40 MLOAD CALLER DUP2 MSTORE LOG1 STOP JUMPDEST CALLVALUE PUSH2 0x28F JUMPI PUSH1 0x0 CALLDATASIZE PUSH1 0x3 NOT ADD SLT PUSH2 0x28F JUMPI PUSH1 0x20 PUSH1 0x40 MLOAD PUSH32 0xA49807205CE4D355092EF5A8A18F56E8913CF4A201FBE287825B095693C21775 DUP2 MSTORE RETURN JUMPDEST CALLVALUE PUSH2 0x28F JUMPI PUSH1 0x20 CALLDATASIZE PUSH1 0x3 NOT ADD SLT PUSH2 0x28F JUMPI PUSH1 0x1 PUSH1 0x1 PUSH1 0xA0 SHL SUB PUSH2 0x19B3 PUSH2 0x4130 JUMP JUMPDEST AND DUP1 ISZERO PUSH2 0x19D2 JUMPI PUSH1 0x0 MSTORE PUSH1 0x3 PUSH1 0x20 MSTORE PUSH1 0x20 PUSH1 0x40 PUSH1 0x0 KECCAK256 SLOAD PUSH1 0x40 MLOAD SWAP1 DUP2 MSTORE RETURN JUMPDEST PUSH1 0x24 PUSH1 0x40 MLOAD PUSH32 0x89C62B6400000000000000000000000000000000000000000000000000000000 DUP2 MSTORE PUSH1 0x0 PUSH1 0x4 DUP3 ADD MSTORE REVERT JUMPDEST CALLVALUE PUSH2 0x28F JUMPI PUSH1 0x20 CALLDATASIZE PUSH1 0x3 NOT ADD SLT PUSH2 0x28F JUMPI PUSH1 0x4 CALLDATALOAD PUSH8 0xFFFFFFFFFFFFFFFF DUP2 GT PUSH2 0x28F JUMPI PUSH1 0x20 PUSH2 0x5B6 PUSH2 0x1A39 SWAP3 CALLDATASIZE SWAP1 PUSH1 0x4 ADD PUSH2 0x42D6 JUMP JUMPDEST DUP2 ADD PUSH1 0xF DUP2 MSTORE SUB ADD SWAP1 KECCAK256 SLOAD DUP1 ISZERO PUSH2 0x1A55 JUMPI PUSH1 0x20 SWAP1 PUSH1 0x40 MLOAD SWAP1 DUP2 MSTORE RETURN JUMPDEST PUSH1 0x64 PUSH1 0x40 MLOAD PUSH3 0x461BCD PUSH1 0xE5 SHL DUP2 MSTORE PUSH1 0x20 PUSH1 0x4 DUP3 ADD MSTORE PUSH1 0xD PUSH1 0x24 DUP3 ADD MSTORE PUSH32 0x434944206E6F7420666F756E6400000000000000000000000000000000000000 PUSH1 0x44 DUP3 ADD MSTORE REVERT JUMPDEST CALLVALUE PUSH2 0x28F JUMPI PUSH1 0x20 CALLDATASIZE PUSH1 0x3 NOT ADD SLT PUSH2 0x28F JUMPI PUSH1 0x4 CALLDATALOAD PUSH1 0x0 MSTORE PUSH1 0xB PUSH1 0x20 MSTORE PUSH2 0x1B2C PUSH1 0x40 PUSH1 0x0 KECCAK256 PUSH2 0x1AC6 DUP2 PUSH2 0x432E JUMP JUMPDEST SWAP1 PUSH1 0x1 PUSH1 0x1 PUSH1 0xA0 SHL SUB PUSH2 0x1ADB PUSH1 0x1 DUP4 ADD PUSH2 0x432E JUMP JUMPDEST PUSH2 0x1B64 PUSH2 0x1AEA PUSH1 0x2 DUP6 ADD PUSH2 0x432E JUMP JUMPDEST PUSH2 0x1B56 PUSH2 0x1AF9 PUSH1 0x3 DUP8 ADD PUSH2 0x432E JUMP JUMPDEST PUSH2 0x1B48 PUSH2 0x1B08 PUSH1 0x4 DUP10 ADD PUSH2 0x432E JUMP JUMPDEST SWAP4 PUSH2 0x1B3A PUSH1 0x6 PUSH1 0x5 DUP12 ADD SLOAD SWAP11 ADD SLOAD SWAP8 PUSH1 0x40 MLOAD SWAP13 DUP14 SWAP13 DUP14 PUSH2 0x100 SWAP1 DUP2 DUP2 MSTORE ADD SWAP1 PUSH2 0x410B JUMP JUMPDEST DUP13 DUP2 SUB PUSH1 0x20 DUP15 ADD MSTORE SWAP1 PUSH2 0x410B JUMP JUMPDEST SWAP1 DUP11 DUP3 SUB PUSH1 0x40 DUP13 ADD MSTORE PUSH2 0x410B JUMP JUMPDEST SWAP1 DUP9 DUP3 SUB PUSH1 0x60 DUP11 ADD MSTORE PUSH2 0x410B JUMP JUMPDEST SWAP1 DUP7 DUP3 SUB PUSH1 0x80 DUP9 ADD MSTORE PUSH2 0x410B JUMP JUMPDEST SWAP3 PUSH1 0xA0 DUP6 ADD MSTORE PUSH1 0xFF DUP2 AND ISZERO ISZERO PUSH1 0xC0 DUP6 ADD MSTORE PUSH1 0x8 SHR AND PUSH1 0xE0 DUP4 ADD MSTORE SUB SWAP1 RETURN JUMPDEST CALLVALUE PUSH2 0x28F JUMPI PUSH1 0x20 CALLDATASIZE PUSH1 0x3 NOT ADD SLT PUSH2 0x28F JUMPI PUSH1 0x20 PUSH2 0x1BA0 PUSH1 0x4 CALLDATALOAD PUSH2 0x4B67 JUMP JUMPDEST PUSH1 0x1 PUSH1 0x1 PUSH1 0xA0 SHL SUB PUSH1 0x40 MLOAD SWAP2 AND DUP2 MSTORE RETURN JUMPDEST CALLVALUE PUSH2 0x28F JUMPI PUSH1 0x0 CALLDATASIZE PUSH1 0x3 NOT ADD SLT PUSH2 0x28F JUMPI PUSH1 0x20 PUSH1 0xFF PUSH1 0x8 SLOAD AND PUSH1 0x40 MLOAD SWAP1 ISZERO ISZERO DUP2 MSTORE RETURN JUMPDEST CALLVALUE PUSH2 0x28F JUMPI PUSH1 0x20 DUP1 PUSH1 0x3 NOT CALLDATASIZE ADD SLT PUSH2 0x28F JUMPI PUSH8 0xFFFFFFFFFFFFFFFF PUSH1 0x4 CALLDATALOAD DUP2 DUP2 GT PUSH2 0x28F JUMPI PUSH2 0x1C07 SWAP1 CALLDATASIZE SWAP1 PUSH1 0x4 ADD PUSH2 0x42D6 JUMP JUMPDEST SWAP2 PUSH2 0x1C10 PUSH2 0x4784 JUMP JUMPDEST DUP3 MLOAD SWAP2 DUP3 GT PUSH2 0xBBB JUMPI PUSH2 0x1C24 PUSH1 0xA SLOAD PUSH2 0x42F4 JUMP JUMPDEST PUSH1 0x1F DUP2 GT PUSH2 0x1CEA JUMPI JUMPDEST POP DUP1 PUSH1 0x1F DUP4 GT PUSH1 0x1 EQ PUSH2 0x1C69 JUMPI POP DUP2 SWAP3 PUSH1 0x0 SWAP3 PUSH2 0x1C5E JUMPI JUMPDEST POP POP PUSH1 0x0 NOT PUSH1 0x3 DUP4 SWAP1 SHL SHR NOT AND PUSH1 0x1 SWAP2 SWAP1 SWAP2 SHL OR PUSH1 0xA SSTORE STOP JUMPDEST ADD MLOAD SWAP1 POP DUP3 DUP1 PUSH2 0x1C45 JUMP JUMPDEST SWAP1 PUSH1 0x1F NOT DUP4 AND SWAP4 PUSH1 0xA PUSH1 0x0 MSTORE PUSH32 0xC65A7BB8D6351C1CF70C95A316CC6A92839C986682D98BC35F958F4883F9D2A8 SWAP3 PUSH1 0x0 SWAP1 JUMPDEST DUP7 DUP3 LT PUSH2 0x1CD2 JUMPI POP POP DUP4 PUSH1 0x1 SWAP6 LT PUSH2 0x1CB9 JUMPI JUMPDEST POP POP POP DUP2 SHL ADD PUSH1 0xA SSTORE STOP JUMPDEST ADD MLOAD PUSH1 0x0 NOT PUSH1 0xF8 DUP5 PUSH1 0x3 SHL AND SHR NOT AND SWAP1 SSTORE DUP3 DUP1 DUP1 PUSH2 0x1CAE JUMP JUMPDEST DUP1 PUSH1 0x1 DUP6 SWAP7 DUP3 SWAP5 SWAP7 DUP7 ADD MLOAD DUP2 SSTORE ADD SWAP6 ADD SWAP4 ADD SWAP1 PUSH2 0x1C9B JUMP JUMPDEST PUSH1 0xA PUSH1 0x0 MSTORE PUSH32 0xC65A7BB8D6351C1CF70C95A316CC6A92839C986682D98BC35F958F4883F9D2A8 PUSH1 0x1F DUP5 ADD PUSH1 0x5 SHR DUP2 ADD SWAP2 DUP4 DUP6 LT PUSH2 0x1D44 JUMPI JUMPDEST PUSH1 0x1F ADD PUSH1 0x5 SHR ADD SWAP1 JUMPDEST DUP2 DUP2 LT PUSH2 0x1D38 JUMPI POP PUSH2 0x1C2D JUMP JUMPDEST PUSH1 0x0 DUP2 SSTORE PUSH1 0x1 ADD PUSH2 0x1D2B JUMP JUMPDEST SWAP1 SWAP2 POP DUP2 SWAP1 PUSH2 0x1D22 JUMP JUMPDEST CALLVALUE PUSH2 0x28F JUMPI PUSH1 0x20 CALLDATASIZE PUSH1 0x3 NOT ADD SLT PUSH2 0x28F JUMPI PUSH1 0x4 CALLDATALOAD PUSH1 0x0 MSTORE PUSH1 0x10 PUSH1 0x20 MSTORE PUSH1 0x40 PUSH1 0x0 KECCAK256 PUSH2 0x1D78 DUP2 PUSH2 0x432E JUMP JUMPDEST PUSH2 0x1D84 PUSH1 0x1 DUP4 ADD PUSH2 0x432E JUMP JUMPDEST SWAP2 PUSH2 0x1D91 PUSH1 0x2 DUP3 ADD PUSH2 0x432E JUMP JUMPDEST PUSH2 0x1D9D PUSH1 0x3 DUP4 ADD PUSH2 0x432E JUMP JUMPDEST PUSH2 0x1DA9 PUSH1 0x4 DUP5 ADD PUSH2 0x432E JUMP JUMPDEST PUSH2 0x1DB5 PUSH1 0x5 DUP6 ADD PUSH2 0x432E JUMP JUMPDEST SWAP1 PUSH2 0x1DC2 PUSH1 0x6 DUP7 ADD PUSH2 0x432E JUMP JUMPDEST PUSH2 0x1DCE PUSH1 0x7 DUP8 ADD PUSH2 0x432E JUMP JUMPDEST PUSH2 0x1DDA PUSH1 0x8 DUP9 ADD PUSH2 0x432E JUMP JUMPDEST SWAP2 PUSH1 0xA DUP9 ADD SLOAD SWAP5 PUSH1 0xB DUP10 ADD SLOAD SWAP5 PUSH1 0xC DUP11 ADD PUSH2 0x1DF4 SWAP1 PUSH2 0x432E JUMP JUMPDEST SWAP8 PUSH1 0xD DUP12 ADD SLOAD SWAP11 PUSH1 0xE ADD SLOAD SWAP10 PUSH1 0x40 MLOAD SWAP14 DUP15 DUP1 SWAP15 PUSH2 0x1E0 DUP1 DUP4 MSTORE DUP3 ADD PUSH2 0x1E18 SWAP2 PUSH2 0x410B JUMP JUMPDEST SWAP1 DUP1 DUP3 SUB SWAP1 PUSH1 0x20 ADD MSTORE PUSH2 0x1E2A SWAP2 PUSH2 0x410B JUMP JUMPDEST DUP14 DUP2 SUB PUSH1 0x40 DUP16 ADD MSTORE PUSH2 0x1E3B SWAP2 PUSH2 0x410B JUMP JUMPDEST DUP13 DUP2 SUB PUSH1 0x60 DUP15 ADD MSTORE PUSH2 0x1E4C SWAP2 PUSH2 0x410B JUMP JUMPDEST DUP12 DUP2 SUB PUSH1 0x80 DUP14 ADD MSTORE PUSH2 0x1E5D SWAP2 PUSH2 0x410B JUMP JUMPDEST DUP11 DUP2 SUB PUSH1 0xA0 DUP13 ADD MSTORE PUSH2 0x1E6E SWAP2 PUSH2 0x410B JUMP JUMPDEST DUP10 DUP2 SUB PUSH1 0xC0 DUP12 ADD MSTORE PUSH2 0x1E7F SWAP2 PUSH2 0x410B JUMP JUMPDEST DUP9 DUP2 SUB PUSH1 0xE0 DUP11 ADD MSTORE PUSH2 0x1E90 SWAP2 PUSH2 0x410B JUMP JUMPDEST DUP8 DUP2 SUB PUSH2 0x100 DUP10 ADD MSTORE PUSH2 0x1EA2 SWAP2 PUSH2 0x410B JUMP JUMPDEST SWAP2 PUSH2 0x120 DUP8 ADD MSTORE PUSH2 0x140 DUP7 ADD MSTORE DUP5 DUP2 SUB PUSH2 0x160 DUP7 ADD MSTORE PUSH2 0x1EC1 SWAP2 PUSH2 0x410B JUMP JUMPDEST SWAP2 PUSH2 0x180 DUP5 ADD MSTORE PUSH1 0x1 PUSH1 0x1 PUSH1 0xA0 SHL SUB DUP2 AND PUSH2 0x1A0 DUP5 ADD MSTORE PUSH1 0xA0 SHR PUSH1 0xFF AND ISZERO ISZERO PUSH2 0x1C0 DUP4 ADD MSTORE SUB SWAP1 RETURN JUMPDEST CALLVALUE PUSH2 0x28F JUMPI PUSH2 0x61E PUSH2 0x1EFB CALLDATASIZE PUSH2 0x43D4 JUMP JUMPDEST SWAP1 PUSH1 0x40 MLOAD SWAP3 PUSH2 0x1F09 DUP5 PUSH2 0x4245 JUMP JUMPDEST PUSH1 0x0 DUP5 MSTORE PUSH2 0x8B3 DUP4 DUP4 DUP4 PUSH2 0x4992 JUMP JUMPDEST CALLVALUE PUSH2 0x28F JUMPI PUSH1 0x3 NOT PUSH1 0x80 CALLDATASIZE DUP3 ADD SLT PUSH2 0x28F JUMPI PUSH2 0x1F32 PUSH2 0x4130 JUMP JUMPDEST PUSH1 0x24 CALLDATALOAD PUSH8 0xFFFFFFFFFFFFFFFF DUP2 GT PUSH2 0x28F JUMPI PUSH2 0x1F52 SWAP1 CALLDATASIZE SWAP1 PUSH1 0x4 ADD PUSH2 0x42D6 JUMP JUMPDEST PUSH1 0x44 CALLDATALOAD PUSH8 0xFFFFFFFFFFFFFFFF DUP2 GT PUSH2 0x28F JUMPI PUSH2 0x1F72 SWAP1 CALLDATASIZE SWAP1 PUSH1 0x4 ADD PUSH2 0x42D6 JUMP JUMPDEST SWAP3 PUSH1 0x64 SWAP1 PUSH8 0xFFFFFFFFFFFFFFFF DUP3 CALLDATALOAD GT PUSH2 0x28F JUMPI PUSH2 0x200 SWAP1 DUP3 CALLDATALOAD CALLDATASIZE SUB ADD SLT PUSH2 0x28F JUMPI PUSH1 0x40 MLOAD SWAP1 PUSH2 0x1FA1 DUP3 PUSH2 0x420C JUMP JUMPDEST DUP1 CALLDATALOAD PUSH1 0x4 ADD CALLDATALOAD PUSH8 0xFFFFFFFFFFFFFFFF DUP2 GT PUSH2 0x28F JUMPI PUSH2 0x1FC7 SWAP1 PUSH1 0x4 CALLDATASIZE SWAP2 DUP5 CALLDATALOAD ADD ADD PUSH2 0x42D6 JUMP JUMPDEST DUP3 MSTORE PUSH1 0x24 DUP2 CALLDATALOAD ADD CALLDATALOAD PUSH8 0xFFFFFFFFFFFFFFFF DUP2 GT PUSH2 0x28F JUMPI PUSH2 0x1FEF SWAP1 PUSH1 0x4 CALLDATASIZE SWAP2 DUP5 CALLDATALOAD ADD ADD PUSH2 0x42D6 JUMP JUMPDEST PUSH1 0x20 DUP4 ADD MSTORE PUSH1 0x44 DUP2 CALLDATALOAD ADD CALLDATALOAD PUSH8 0xFFFFFFFFFFFFFFFF DUP2 GT PUSH2 0x28F JUMPI PUSH2 0x201A SWAP1 PUSH1 0x4 CALLDATASIZE SWAP2 DUP5 CALLDATALOAD ADD ADD PUSH2 0x42D6 JUMP JUMPDEST PUSH1 0x40 DUP4 ADD MSTORE DUP1 DUP1 CALLDATALOAD ADD CALLDATALOAD PUSH8 0xFFFFFFFFFFFFFFFF DUP2 GT PUSH2 0x28F JUMPI PUSH2 0x2044 SWAP1 PUSH1 0x4 CALLDATASIZE SWAP2 DUP5 CALLDATALOAD ADD ADD PUSH2 0x42D6 JUMP JUMPDEST PUSH1 0x60 DUP4 ADD MSTORE PUSH8 0xFFFFFFFFFFFFFFFF PUSH1 0x84 DUP3 CALLDATALOAD ADD CALLDATALOAD GT PUSH2 0x28F JUMPI PUSH2 0x2071 CALLDATASIZE DUP3 CALLDATALOAD PUSH1 0x84 DUP2 ADD CALLDATALOAD ADD PUSH1 0x4 ADD PUSH2 0x42D6 JUMP JUMPDEST PUSH1 0x80 DUP4 ADD MSTORE PUSH8 0xFFFFFFFFFFFFFFFF PUSH1 0xA4 DUP3 CALLDATALOAD ADD CALLDATALOAD GT PUSH2 0x28F JUMPI PUSH2 0x209E CALLDATASIZE DUP3 CALLDATALOAD PUSH1 0xA4 DUP2 ADD CALLDATALOAD ADD PUSH1 0x4 ADD PUSH2 0x42D6 JUMP JUMPDEST PUSH1 0xA0 DUP4 ADD MSTORE PUSH8 0xFFFFFFFFFFFFFFFF PUSH1 0xC4 DUP3 CALLDATALOAD ADD CALLDATALOAD GT PUSH2 0x28F JUMPI PUSH2 0x20CB CALLDATASIZE DUP3 CALLDATALOAD PUSH1 0xC4 DUP2 ADD CALLDATALOAD ADD PUSH1 0x4 ADD PUSH2 0x42D6 JUMP JUMPDEST PUSH1 0xC0 DUP4 ADD MSTORE PUSH8 0xFFFFFFFFFFFFFFFF PUSH1 0xE4 DUP3 CALLDATALOAD ADD CALLDATALOAD GT PUSH2 0x28F JUMPI PUSH2 0x20F8 CALLDATASIZE DUP3 CALLDATALOAD PUSH1 0xE4 DUP2 ADD CALLDATALOAD ADD PUSH1 0x4 ADD PUSH2 0x42D6 JUMP JUMPDEST PUSH1 0xE0 DUP4 ADD MSTORE PUSH8 0xFFFFFFFFFFFFFFFF PUSH2 0x104 DUP3 CALLDATALOAD ADD CALLDATALOAD GT PUSH2 0x28F JUMPI PUSH2 0x2127 CALLDATASIZE DUP3 CALLDATALOAD PUSH2 0x104 DUP2 ADD CALLDATALOAD ADD PUSH1 0x4 ADD PUSH2 0x42D6 JUMP JUMPDEST PUSH2 0x100 DUP4 ADD MSTORE PUSH8 0xFFFFFFFFFFFFFFFF PUSH2 0x124 DUP3 CALLDATALOAD ADD CALLDATALOAD GT PUSH2 0x28F JUMPI PUSH2 0x2157 CALLDATASIZE DUP3 CALLDATALOAD PUSH2 0x124 DUP2 ADD CALLDATALOAD ADD PUSH1 0x4 ADD PUSH2 0x445C JUMP JUMPDEST PUSH2 0x120 DUP4 ADD MSTORE PUSH2 0x144 DUP2 CALLDATALOAD ADD CALLDATALOAD PUSH2 0x140 DUP4 ADD MSTORE PUSH2 0x164 DUP2 CALLDATALOAD ADD CALLDATALOAD PUSH2 0x160 DUP4 ADD MSTORE PUSH8 0xFFFFFFFFFFFFFFFF PUSH2 0x184 DUP3 CALLDATALOAD ADD CALLDATALOAD GT PUSH2 0x28F JUMPI PUSH2 0x21A1 CALLDATASIZE DUP3 CALLDATALOAD PUSH2 0x184 DUP2 ADD CALLDATALOAD ADD PUSH1 0x4 ADD PUSH2 0x42D6 JUMP JUMPDEST PUSH2 0x180 DUP4 ADD MSTORE DUP1 CALLDATALOAD PUSH2 0x1A4 DUP2 ADD CALLDATALOAD PUSH2 0x1A0 DUP5 ADD MSTORE PUSH2 0x1C4 ADD CALLDATALOAD PUSH1 0x1 PUSH1 0x1 PUSH1 0xA0 SHL SUB DUP2 AND SWAP1 SUB PUSH2 0x28F JUMPI DUP1 CALLDATALOAD PUSH2 0x1C4 DUP2 ADD CALLDATALOAD PUSH2 0x1C0 DUP5 ADD MSTORE PUSH2 0x1E4 ADD CALLDATALOAD DUP1 ISZERO ISZERO SWAP1 SUB PUSH2 0x28F JUMPI PUSH2 0x1E4 DUP2 CALLDATALOAD ADD CALLDATALOAD PUSH2 0x1E0 DUP4 ADD MSTORE PUSH2 0x21FB PUSH2 0x4817 JUMP JUMPDEST PUSH2 0x2203 PUSH2 0x51FB JUMP JUMPDEST PUSH2 0x2217 PUSH1 0x1 PUSH1 0x1 PUSH1 0xA0 SHL SUB DUP6 AND ISZERO ISZERO PUSH2 0x4CE7 JUMP JUMPDEST DUP3 MLOAD ISZERO PUSH2 0x3777 JUMPI DUP5 MLOAD ISZERO PUSH2 0x3735 JUMPI PUSH1 0xFF PUSH1 0x40 MLOAD PUSH1 0x20 DUP2 DUP7 MLOAD PUSH2 0x223C DUP2 DUP4 DUP6 DUP12 ADD PUSH2 0x40E8 JUMP JUMPDEST DUP2 ADD PUSH1 0x13 DUP2 MSTORE SUB ADD SWAP1 KECCAK256 SLOAD AND PUSH2 0x36F3 JUMPI PUSH1 0xFF PUSH1 0x40 MLOAD PUSH1 0x20 DUP2 DUP9 MLOAD PUSH2 0x2263 DUP2 DUP4 DUP6 DUP14 ADD PUSH2 0x40E8 JUMP JUMPDEST DUP2 ADD PUSH1 0x12 DUP2 MSTORE SUB ADD SWAP1 KECCAK256 SLOAD AND PUSH2 0x36B1 JUMPI DUP2 MLOAD MLOAD ISZERO PUSH2 0x366F JUMPI PUSH1 0x60 DUP3 ADD MLOAD MLOAD ISZERO PUSH2 0x3605 JUMPI PUSH2 0x120 DUP3 ADD MLOAD MLOAD ISZERO PUSH2 0x35C3 JUMPI POP PUSH2 0x229E PUSH1 0x9 SLOAD PUSH2 0x4D32 JUMP JUMPDEST SWAP1 DUP2 PUSH1 0x9 SSTORE PUSH2 0x22B1 PUSH2 0x120 DUP3 ADD MLOAD PUSH2 0x55AC JUMP JUMPDEST DUP3 PUSH1 0x0 MSTORE PUSH1 0x10 PUSH1 0x20 MSTORE PUSH1 0x40 PUSH1 0x0 KECCAK256 SWAP6 DUP3 MLOAD DUP1 MLOAD SWAP1 PUSH8 0xFFFFFFFFFFFFFFFF DUP3 GT PUSH2 0xBBB JUMPI DUP2 SWAP1 PUSH2 0x22E0 DUP11 SLOAD PUSH2 0x42F4 JUMP JUMPDEST PUSH1 0x1F DUP2 GT PUSH2 0x3573 JUMPI JUMPDEST POP PUSH1 0x20 SWAP1 PUSH1 0x1F DUP4 GT PUSH1 0x1 EQ PUSH2 0x3507 JUMPI PUSH1 0x0 SWAP3 PUSH2 0x34FC JUMPI JUMPDEST POP POP DUP2 PUSH1 0x1 SHL SWAP2 PUSH1 0x0 NOT SWAP1 PUSH1 0x3 SHL SHR NOT AND OR DUP8 SSTORE JUMPDEST DUP5 MLOAD PUSH8 0xFFFFFFFFFFFFFFFF DUP2 GT PUSH2 0xBBB JUMPI PUSH2 0x2333 PUSH1 0x1 DUP10 ADD SLOAD PUSH2 0x42F4 JUMP JUMPDEST PUSH1 0x1F DUP2 GT PUSH2 0x34B5 JUMPI JUMPDEST POP DUP1 PUSH1 0x20 PUSH1 0x1F DUP3 GT PUSH1 0x1 EQ PUSH2 0x3448 JUMPI PUSH1 0x0 SWAP2 PUSH2 0x343D JUMPI JUMPDEST POP DUP2 PUSH1 0x1 SHL SWAP2 PUSH1 0x0 NOT SWAP1 PUSH1 0x3 SHL SHR NOT AND OR PUSH1 0x1 DUP9 ADD SSTORE JUMPDEST DUP1 MLOAD PUSH8 0xFFFFFFFFFFFFFFFF DUP2 GT PUSH2 0xBBB JUMPI PUSH2 0x2388 PUSH1 0x2 DUP10 ADD SLOAD PUSH2 0x42F4 JUMP JUMPDEST PUSH1 0x1F DUP2 GT PUSH2 0x33F6 JUMPI JUMPDEST POP DUP1 PUSH1 0x20 PUSH1 0x1F DUP3 GT PUSH1 0x1 EQ PUSH2 0x3389 JUMPI PUSH1 0x0 SWAP2 PUSH2 0x337E JUMPI JUMPDEST POP DUP2 PUSH1 0x1 SHL SWAP2 PUSH1 0x0 NOT SWAP1 PUSH1 0x3 SHL SHR NOT AND OR PUSH1 0x2 DUP9 ADD SSTORE JUMPDEST PUSH1 0x60 DUP4 ADD MLOAD DUP1 MLOAD SWAP1 PUSH8 0xFFFFFFFFFFFFFFFF DUP3 GT PUSH2 0xBBB JUMPI DUP2 SWAP1 PUSH2 0x23E5 PUSH1 0x3 DUP12 ADD SLOAD PUSH2 0x42F4 JUMP JUMPDEST PUSH1 0x1F DUP2 GT PUSH2 0x332B JUMPI JUMPDEST POP PUSH1 0x20 SWAP1 PUSH1 0x1F DUP4 GT PUSH1 0x1 EQ PUSH2 0x32B9 JUMPI PUSH1 0x0 SWAP3 PUSH2 0x32AE JUMPI JUMPDEST POP POP DUP2 PUSH1 0x1 SHL SWAP2 PUSH1 0x0 NOT SWAP1 PUSH1 0x3 SHL SHR NOT AND OR PUSH1 0x3 DUP9 ADD SSTORE JUMPDEST PUSH1 0x80 DUP4 ADD MLOAD DUP1 MLOAD SWAP1 PUSH8 0xFFFFFFFFFFFFFFFF DUP3 GT PUSH2 0xBBB JUMPI DUP2 SWAP1 PUSH2 0x2443 PUSH1 0x4 DUP12 ADD SLOAD PUSH2 0x42F4 JUMP JUMPDEST PUSH1 0x1F DUP2 GT PUSH2 0x325B JUMPI JUMPDEST POP PUSH1 0x20 SWAP1 PUSH1 0x1F DUP4 GT PUSH1 0x1 EQ PUSH2 0x31E9 JUMPI PUSH1 0x0 SWAP3 PUSH2 0x31DE JUMPI JUMPDEST POP POP DUP2 PUSH1 0x1 SHL SWAP2 PUSH1 0x0 NOT SWAP1 PUSH1 0x3 SHL SHR NOT AND OR PUSH1 0x4 DUP9 ADD SSTORE JUMPDEST PUSH1 0xA0 DUP4 ADD MLOAD DUP1 MLOAD SWAP1 PUSH8 0xFFFFFFFFFFFFFFFF DUP3 GT PUSH2 0xBBB JUMPI DUP2 SWAP1 PUSH2 0x24A1 PUSH1 0x5 DUP12 ADD SLOAD PUSH2 0x42F4 JUMP JUMPDEST PUSH1 0x1F DUP2 GT PUSH2 0x318B JUMPI JUMPDEST POP PUSH1 0x20 SWAP1 PUSH1 0x1F DUP4 GT PUSH1 0x1 EQ PUSH2 0x3119 JUMPI PUSH1 0x0 SWAP3 PUSH2 0x310E JUMPI JUMPDEST POP POP DUP2 PUSH1 0x1 SHL SWAP2 PUSH1 0x0 NOT SWAP1 PUSH1 0x3 SHL SHR NOT AND OR PUSH1 0x5 DUP9 ADD SSTORE JUMPDEST PUSH1 0xC0 DUP4 ADD MLOAD DUP1 MLOAD SWAP1 PUSH8 0xFFFFFFFFFFFFFFFF DUP3 GT PUSH2 0xBBB JUMPI DUP2 SWAP1 PUSH2 0x24FF PUSH1 0x6 DUP12 ADD SLOAD PUSH2 0x42F4 JUMP JUMPDEST PUSH1 0x1F DUP2 GT PUSH2 0x30BB JUMPI JUMPDEST POP PUSH1 0x20 SWAP1 PUSH1 0x1F DUP4 GT PUSH1 0x1 EQ PUSH2 0x3049 JUMPI PUSH1 0x0 SWAP3 PUSH2 0x303E JUMPI JUMPDEST POP POP DUP2 PUSH1 0x1 SHL SWAP2 PUSH1 0x0 NOT SWAP1 PUSH1 0x3 SHL SHR NOT AND OR PUSH1 0x6 DUP9 ADD SSTORE JUMPDEST PUSH1 0xE0 DUP4 ADD MLOAD DUP1 MLOAD SWAP1 PUSH8 0xFFFFFFFFFFFFFFFF DUP3 GT PUSH2 0xBBB JUMPI DUP2 SWAP1 PUSH2 0x255D PUSH1 0x7 DUP12 ADD SLOAD PUSH2 0x42F4 JUMP JUMPDEST PUSH1 0x1F DUP2 GT PUSH2 0x2FEB JUMPI JUMPDEST POP PUSH1 0x20 SWAP1 PUSH1 0x1F DUP4 GT PUSH1 0x1 EQ PUSH2 0x2F79 JUMPI PUSH1 0x0 SWAP3 PUSH2 0x2F6E JUMPI JUMPDEST POP POP DUP2 PUSH1 0x1 SHL SWAP2 PUSH1 0x0 NOT SWAP1 PUSH1 0x3 SHL SHR NOT AND OR PUSH1 0x7 DUP9 ADD SSTORE JUMPDEST PUSH2 0x100 DUP4 ADD MLOAD DUP1 MLOAD SWAP1 PUSH8 0xFFFFFFFFFFFFFFFF DUP3 GT PUSH2 0xBBB JUMPI DUP2 SWAP1 PUSH2 0x25BC PUSH1 0x8 DUP12 ADD SLOAD PUSH2 0x42F4 JUMP JUMPDEST PUSH1 0x1F DUP2 GT PUSH2 0x2F1B JUMPI JUMPDEST POP PUSH1 0x20 SWAP1 PUSH1 0x1F DUP4 GT PUSH1 0x1 EQ PUSH2 0x2EA9 JUMPI PUSH1 0x0 SWAP3 PUSH2 0x2E9E JUMPI JUMPDEST POP POP DUP2 PUSH1 0x1 SHL SWAP2 PUSH1 0x0 NOT SWAP1 PUSH1 0x3 SHL SHR NOT AND OR PUSH1 0x8 DUP9 ADD SSTORE JUMPDEST PUSH2 0x140 DUP4 ADD MLOAD PUSH1 0xA DUP9 ADD SSTORE DUP2 PUSH1 0xB DUP9 ADD SSTORE PUSH2 0x180 DUP4 ADD MLOAD DUP1 MLOAD SWAP1 PUSH8 0xFFFFFFFFFFFFFFFF DUP3 GT PUSH2 0xBBB JUMPI DUP2 SWAP1 PUSH2 0x262C PUSH1 0xC DUP12 ADD SLOAD PUSH2 0x42F4 JUMP JUMPDEST PUSH1 0x1F DUP2 GT PUSH2 0x2E4B JUMPI JUMPDEST POP PUSH1 0x20 SWAP1 PUSH1 0x1F DUP4 GT PUSH1 0x1 EQ PUSH2 0x2DD9 JUMPI PUSH1 0x0 SWAP3 PUSH2 0x2DCE JUMPI JUMPDEST POP POP DUP2 PUSH1 0x1 SHL SWAP2 PUSH1 0x0 NOT SWAP1 PUSH1 0x3 SHL SHR NOT AND OR PUSH1 0xC DUP9 ADD SSTORE JUMPDEST TIMESTAMP PUSH1 0xD DUP9 ADD SSTORE PUSH1 0xE DUP8 ADD DUP1 SLOAD PUSH32 0xFFFFFFFFFFFFFFFFFFFFFF000000000000000000000000000000000000000000 AND CALLER PUSH1 0xFF PUSH1 0xA0 SHL NOT AND OR SWAP1 SSTORE PUSH1 0x0 JUMPDEST PUSH2 0x120 DUP5 ADD MLOAD DUP1 MLOAD DUP3 LT ISZERO PUSH2 0x2C3B JUMPI DUP2 PUSH2 0x26B9 SWAP2 PUSH2 0x558B JUMP JUMPDEST MLOAD PUSH1 0x9 DUP10 ADD SLOAD SWAP1 PUSH9 0x10000000000000000 DUP3 LT ISZERO PUSH2 0xBBB JUMPI PUSH1 0x1 DUP3 ADD DUP1 PUSH1 0x9 DUP13 ADD SSTORE DUP3 LT ISZERO PUSH2 0x2C25 JUMPI PUSH1 0x9 DUP11 ADD PUSH1 0x0 MSTORE PUSH1 0x20 PUSH1 0x0 KECCAK256 SWAP1 DUP1 MLOAD DUP1 MLOAD SWAP1 PUSH8 0xFFFFFFFFFFFFFFFF DUP3 GT PUSH2 0xBBB JUMPI DUP2 SWAP1 PUSH2 0x2714 PUSH1 0x6 DUP8 MUL DUP7 ADD SLOAD PUSH2 0x42F4 JUMP JUMPDEST PUSH1 0x1F DUP2 GT PUSH2 0x2BD0 JUMPI JUMPDEST POP PUSH1 0x20 SWAP1 PUSH1 0x1F DUP4 GT PUSH1 0x1 EQ PUSH2 0x2B5A JUMPI PUSH1 0x0 SWAP3 PUSH2 0x2B4F JUMPI JUMPDEST POP POP DUP2 PUSH1 0x1 SHL SWAP2 PUSH1 0x0 NOT SWAP1 PUSH1 0x3 SHL SHR NOT AND OR PUSH1 0x6 DUP5 MUL DUP4 ADD SSTORE JUMPDEST PUSH1 0x20 DUP2 ADD MLOAD DUP1 MLOAD SWAP1 PUSH8 0xFFFFFFFFFFFFFFFF DUP3 GT PUSH2 0xBBB JUMPI DUP2 SWAP1 PUSH2 0x2779 PUSH1 0x1 PUSH1 0x6 DUP9 MUL DUP8 ADD ADD SLOAD PUSH2 0x42F4 JUMP JUMPDEST PUSH1 0x1F DUP2 GT PUSH2 0x2AF7 JUMPI JUMPDEST POP PUSH1 0x20 SWAP1 PUSH1 0x1F DUP4 GT PUSH1 0x1 EQ PUSH2 0x2A7B JUMPI PUSH1 0x0 SWAP3 PUSH2 0x2A70 JUMPI JUMPDEST POP POP DUP2 PUSH1 0x1 SHL SWAP2 PUSH1 0x0 NOT SWAP1 PUSH1 0x3 SHL SHR NOT AND OR PUSH1 0x1 PUSH1 0x6 DUP6 MUL DUP5 ADD ADD SSTORE JUMPDEST PUSH1 0x40 DUP2 ADD MLOAD DUP1 MLOAD SWAP1 PUSH8 0xFFFFFFFFFFFFFFFF DUP3 GT PUSH2 0xBBB JUMPI DUP2 SWAP1 PUSH2 0x27E1 PUSH1 0x2 PUSH1 0x6 DUP9 MUL DUP8 ADD ADD SLOAD PUSH2 0x42F4 JUMP JUMPDEST PUSH1 0x1F DUP2 GT PUSH2 0x2A18 JUMPI JUMPDEST POP PUSH1 0x20 SWAP1 PUSH1 0x1F DUP4 GT PUSH1 0x1 EQ PUSH2 0x299C JUMPI PUSH1 0x0 SWAP3 PUSH2 0x2991 JUMPI JUMPDEST POP POP DUP2 PUSH1 0x1 SHL SWAP2 PUSH1 0x0 NOT SWAP1 PUSH1 0x3 SHL SHR NOT AND OR PUSH1 0x2 PUSH1 0x6 DUP6 MUL DUP5 ADD ADD SSTORE JUMPDEST PUSH1 0x60 DUP2 ADD MLOAD PUSH1 0x3 PUSH1 0x6 DUP6 MUL DUP5 ADD ADD SSTORE PUSH1 0x80 DUP2 ADD MLOAD DUP1 MLOAD SWAP1 PUSH8 0xFFFFFFFFFFFFFFFF DUP3 GT PUSH2 0xBBB JUMPI PUSH2 0x2856 PUSH1 0x4 PUSH1 0x6 DUP8 MUL DUP7 ADD ADD SLOAD PUSH2 0x42F4 JUMP JUMPDEST PUSH1 0x1F DUP2 GT PUSH2 0x2945 JUMPI JUMPDEST POP PUSH1 0x20 SWAP1 PUSH1 0x1F DUP4 GT PUSH1 0x1 EQ PUSH2 0x28BF JUMPI PUSH1 0x5 SWAP4 DUP4 PUSH2 0x28AF SWAP9 SWAP8 SWAP7 SWAP5 PUSH1 0x6 SWAP5 PUSH1 0xA0 SWAP5 PUSH1 0x0 SWAP3 PUSH2 0x28B4 JUMPI JUMPDEST POP POP DUP2 PUSH1 0x1 SHL SWAP2 PUSH1 0x0 NOT SWAP1 PUSH1 0x3 SHL SHR NOT AND OR PUSH1 0x4 DUP5 DUP9 MUL DUP7 ADD ADD SSTORE JUMPDEST ADD MLOAD SWAP4 MUL ADD ADD SSTORE PUSH2 0x4D32 JUMP JUMPDEST PUSH2 0x26A0 JUMP JUMPDEST ADD MLOAD SWAP1 POP CODESIZE DUP1 PUSH2 0x2887 JUMP JUMPDEST SWAP1 PUSH1 0x4 PUSH1 0x6 DUP8 MUL DUP7 ADD ADD PUSH1 0x0 MSTORE PUSH1 0x20 PUSH1 0x0 KECCAK256 SWAP2 PUSH1 0x0 JUMPDEST PUSH1 0x1F NOT DUP6 AND DUP2 LT PUSH2 0x292D JUMPI POP SWAP4 PUSH1 0x1 DUP5 PUSH1 0x6 SWAP5 PUSH1 0xA0 SWAP5 PUSH1 0x5 SWAP9 PUSH2 0x28AF SWAP13 SWAP12 SWAP11 SWAP9 PUSH1 0x1F NOT DUP2 AND LT PUSH2 0x2914 JUMPI JUMPDEST POP POP POP DUP2 SHL ADD PUSH1 0x4 DUP5 DUP9 MUL DUP7 ADD ADD SSTORE PUSH2 0x28A3 JUMP JUMPDEST ADD MLOAD PUSH1 0x0 NOT PUSH1 0xF8 DUP5 PUSH1 0x3 SHL AND SHR NOT AND SWAP1 SSTORE CODESIZE DUP1 DUP1 PUSH2 0x2900 JUMP JUMPDEST SWAP2 SWAP3 PUSH1 0x20 PUSH1 0x1 DUP2 SWAP3 DUP7 DUP6 ADD MLOAD DUP2 SSTORE ADD SWAP5 ADD SWAP3 ADD PUSH2 0x28D5 JUMP JUMPDEST PUSH1 0x4 PUSH1 0x6 DUP8 MUL DUP7 ADD ADD PUSH1 0x0 MSTORE PUSH1 0x20 PUSH1 0x0 KECCAK256 PUSH1 0x1F DUP5 ADD PUSH1 0x5 SHR DUP2 ADD PUSH1 0x20 DUP6 LT PUSH2 0x298A JUMPI JUMPDEST PUSH1 0x1F DUP4 ADD PUSH1 0x5 SHR DUP3 ADD DUP2 LT PUSH2 0x297E JUMPI POP POP PUSH2 0x285F JUMP JUMPDEST PUSH1 0x0 DUP2 SSTORE PUSH1 0x1 ADD PUSH2 0x2968 JUMP JUMPDEST POP DUP1 PUSH2 0x2968 JUMP JUMPDEST ADD MLOAD SWAP1 POP DUP14 DUP1 PUSH2 0x2801 JUMP JUMPDEST SWAP3 POP PUSH1 0x2 PUSH1 0x6 DUP8 MUL DUP7 ADD ADD PUSH1 0x0 MSTORE PUSH1 0x20 PUSH1 0x0 KECCAK256 SWAP1 PUSH1 0x0 SWAP4 JUMPDEST PUSH1 0x1F NOT DUP5 AND DUP6 LT PUSH2 0x29FD JUMPI PUSH1 0x1 SWAP5 POP DUP4 PUSH1 0x1F NOT DUP2 AND LT PUSH2 0x29E4 JUMPI JUMPDEST POP POP POP DUP2 SHL ADD PUSH1 0x2 PUSH1 0x6 DUP6 MUL DUP5 ADD ADD SSTORE PUSH2 0x281E JUMP JUMPDEST ADD MLOAD PUSH1 0x0 NOT PUSH1 0xF8 DUP5 PUSH1 0x3 SHL AND SHR NOT AND SWAP1 SSTORE DUP14 DUP1 DUP1 PUSH2 0x29CF JUMP JUMPDEST DUP2 DUP2 ADD MLOAD DUP4 SSTORE PUSH1 0x20 SWAP5 DUP6 ADD SWAP5 PUSH1 0x1 SWAP1 SWAP4 ADD SWAP3 SWAP1 SWAP2 ADD SWAP1 PUSH2 0x29B4 JUMP JUMPDEST SWAP1 SWAP2 POP PUSH1 0x2 PUSH1 0x6 DUP8 MUL DUP7 ADD ADD PUSH1 0x0 MSTORE PUSH1 0x20 PUSH1 0x0 KECCAK256 PUSH1 0x1F DUP5 ADD PUSH1 0x5 SHR DUP2 ADD PUSH1 0x20 DUP6 LT PUSH2 0x2A69 JUMPI JUMPDEST SWAP1 DUP5 SWAP4 SWAP3 SWAP2 JUMPDEST PUSH1 0x1F DUP4 ADD PUSH1 0x5 SHR DUP3 ADD DUP2 LT PUSH2 0x2A5A JUMPI POP POP PUSH2 0x27EA JUMP JUMPDEST PUSH1 0x0 DUP2 SSTORE DUP6 SWAP5 POP PUSH1 0x1 ADD PUSH2 0x2A44 JUMP JUMPDEST POP DUP1 PUSH2 0x2A3E JUMP JUMPDEST ADD MLOAD SWAP1 POP DUP14 DUP1 PUSH2 0x2799 JUMP JUMPDEST SWAP3 POP PUSH1 0x1 PUSH1 0x6 DUP8 MUL DUP7 ADD ADD PUSH1 0x0 MSTORE PUSH1 0x20 PUSH1 0x0 KECCAK256 SWAP1 PUSH1 0x0 SWAP4 JUMPDEST PUSH1 0x1F NOT DUP5 AND DUP6 LT PUSH2 0x2ADC JUMPI PUSH1 0x1 SWAP5 POP DUP4 PUSH1 0x1F NOT DUP2 AND LT PUSH2 0x2AC3 JUMPI JUMPDEST POP POP POP DUP2 SHL ADD PUSH1 0x1 PUSH1 0x6 DUP6 MUL DUP5 ADD ADD SSTORE PUSH2 0x27B6 JUMP JUMPDEST ADD MLOAD PUSH1 0x0 NOT PUSH1 0xF8 DUP5 PUSH1 0x3 SHL AND SHR NOT AND SWAP1 SSTORE DUP14 DUP1 DUP1 PUSH2 0x2AAE JUMP JUMPDEST DUP2 DUP2 ADD MLOAD DUP4 SSTORE PUSH1 0x20 SWAP5 DUP6 ADD SWAP5 PUSH1 0x1 SWAP1 SWAP4 ADD SWAP3 SWAP1 SWAP2 ADD SWAP1 PUSH2 0x2A93 JUMP JUMPDEST SWAP1 SWAP2 POP PUSH1 0x1 PUSH1 0x6 DUP8 MUL DUP7 ADD ADD PUSH1 0x0 MSTORE PUSH1 0x20 PUSH1 0x0 KECCAK256 PUSH1 0x1F DUP5 ADD PUSH1 0x5 SHR DUP2 ADD PUSH1 0x20 DUP6 LT PUSH2 0x2B48 JUMPI JUMPDEST SWAP1 DUP5 SWAP4 SWAP3 SWAP2 JUMPDEST PUSH1 0x1F DUP4 ADD PUSH1 0x5 SHR DUP3 ADD DUP2 LT PUSH2 0x2B39 JUMPI POP POP PUSH2 0x2782 JUMP JUMPDEST PUSH1 0x0 DUP2 SSTORE DUP6 SWAP5 POP PUSH1 0x1 ADD PUSH2 0x2B23 JUMP JUMPDEST POP DUP1 PUSH2 0x2B1D JUMP JUMPDEST ADD MLOAD SWAP1 POP DUP14 DUP1 PUSH2 0x2734 JUMP JUMPDEST SWAP3 POP PUSH1 0x6 DUP7 MUL DUP6 ADD PUSH1 0x0 MSTORE PUSH1 0x20 PUSH1 0x0 KECCAK256 SWAP1 PUSH1 0x0 SWAP4 JUMPDEST PUSH1 0x1F NOT DUP5 AND DUP6 LT PUSH2 0x2BB5 JUMPI PUSH1 0x1 SWAP5 POP DUP4 PUSH1 0x1F NOT DUP2 AND LT PUSH2 0x2B9C JUMPI JUMPDEST POP POP POP DUP2 SHL ADD PUSH1 0x6 DUP5 MUL DUP4 ADD SSTORE PUSH2 0x274E JUMP JUMPDEST ADD MLOAD PUSH1 0x0 NOT PUSH1 0xF8 DUP5 PUSH1 0x3 SHL AND SHR NOT AND SWAP1 SSTORE DUP14 DUP1 DUP1 PUSH2 0x2B8A JUMP JUMPDEST DUP2 DUP2 ADD MLOAD DUP4 SSTORE PUSH1 0x20 SWAP5 DUP6 ADD SWAP5 PUSH1 0x1 SWAP1 SWAP4 ADD SWAP3 SWAP1 SWAP2 ADD SWAP1 PUSH2 0x2B6F JUMP JUMPDEST SWAP1 SWAP2 POP PUSH1 0x6 DUP7 MUL DUP6 ADD PUSH1 0x0 MSTORE PUSH1 0x20 PUSH1 0x0 KECCAK256 PUSH1 0x1F DUP5 ADD PUSH1 0x5 SHR DUP2 ADD PUSH1 0x20 DUP6 LT PUSH2 0x2C1E JUMPI JUMPDEST SWAP1 DUP5 SWAP4 SWAP3 SWAP2 JUMPDEST PUSH1 0x1F DUP4 ADD PUSH1 0x5 SHR DUP3 ADD DUP2 LT PUSH2 0x2C0F JUMPI POP POP PUSH2 0x271D JUMP JUMPDEST PUSH1 0x0 DUP2 SSTORE DUP6 SWAP5 POP PUSH1 0x1 ADD PUSH2 0x2BF9 JUMP JUMPDEST POP DUP1 PUSH2 0x2BF3 JUMP JUMPDEST PUSH4 0x4E487B71 PUSH1 0xE0 SHL PUSH1 0x0 MSTORE PUSH1 0x32 PUSH1 0x4 MSTORE PUSH1 0x24 PUSH1 0x0 REVERT JUMPDEST POP POP PUSH31 0x6260462507CD85B27AB0F8B3EB749422A22E01F982F4DFA3FDB78B97F7E810 PUSH2 0x2D8B DUP6 SWAP3 PUSH1 0x1 PUSH1 0x1 PUSH1 0xA0 SHL SUB DUP10 PUSH2 0x2DB5 PUSH1 0x20 SWAP11 DUP4 DUP4 AND PUSH1 0x0 MSTORE PUSH1 0x11 DUP13 MSTORE PUSH2 0x2C89 DUP9 PUSH1 0x40 PUSH1 0x0 KECCAK256 PUSH2 0x4D57 JUMP JUMPDEST PUSH1 0x40 MLOAD DUP13 DUP2 DUP4 MLOAD PUSH2 0x2C9D DUP2 DUP4 DUP6 DUP9 ADD PUSH2 0x40E8 JUMP JUMPDEST DUP2 ADD PUSH1 0x13 DUP2 MSTORE SUB ADD SWAP1 KECCAK256 PUSH1 0xFF NOT SWAP1 PUSH1 0x1 DUP3 DUP3 SLOAD AND OR SWAP1 SSTORE PUSH1 0x1 PUSH1 0x40 MLOAD DUP15 DUP2 DUP2 PUSH2 0x2CCC DUP12 DUP4 DUP2 MLOAD SWAP4 DUP5 SWAP3 ADD PUSH2 0x40E8 JUMP JUMPDEST DUP2 ADD PUSH1 0x12 DUP2 MSTORE SUB ADD SWAP1 KECCAK256 SWAP2 DUP3 SLOAD AND OR SWAP1 SSTORE PUSH2 0x2CE7 DUP9 DUP5 PUSH2 0x4E40 JUMP JUMPDEST PUSH2 0x2D57 PUSH2 0x2CF3 DUP10 PUSH2 0x5231 JUMP JUMPDEST PUSH2 0x2D51 PUSH1 0xA PUSH1 0x40 MLOAD PUSH1 0x20 SWAP4 PUSH2 0x2D0A DUP3 SWAP6 DUP4 ADD PUSH2 0x4D91 JUMP JUMPDEST PUSH32 0x2F73656D65737465722F00000000000000000000000000000000000000000000 DUP2 MSTORE PUSH2 0x2D41 DUP3 MLOAD PUSH1 0x20 SWAP4 DUP2 SWAP5 DUP8 DUP6 ADD SWAP2 ADD PUSH2 0x40E8 JUMP JUMPDEST ADD SUB PUSH1 0x15 NOT DUP2 ADD DUP5 MSTORE ADD DUP3 PUSH2 0x4261 JUMP JUMPDEST DUP10 PUSH2 0x5085 JUMP JUMPDEST PUSH2 0x2DA7 PUSH1 0x60 DUP12 ADD MLOAD SWAP11 PUSH2 0x2D99 PUSH2 0x2D76 PUSH1 0xA0 PUSH1 0x80 DUP5 ADD MLOAD SWAP4 ADD MLOAD SWAP5 PUSH2 0x4E20 JUMP JUMPDEST SWAP13 PUSH1 0x40 MLOAD SWAP10 DUP11 SWAP10 PUSH1 0xC0 DUP12 MSTORE PUSH1 0xC0 DUP12 ADD SWAP1 PUSH2 0x410B JUMP JUMPDEST SWAP1 DUP10 DUP3 SUB PUSH1 0x20 DUP12 ADD MSTORE PUSH2 0x410B JUMP JUMPDEST SWAP1 DUP8 DUP3 SUB PUSH1 0x40 DUP10 ADD MSTORE PUSH2 0x410B JUMP JUMPDEST SWAP1 DUP6 DUP3 SUB PUSH1 0x60 DUP8 ADD MSTORE PUSH2 0x410B JUMP JUMPDEST SWAP7 PUSH1 0x80 DUP5 ADD MSTORE TIMESTAMP PUSH1 0xA0 DUP5 ADD MSTORE AND SWAP5 SUB SWAP1 LOG4 PUSH1 0x40 MLOAD SWAP1 DUP2 MSTORE RETURN JUMPDEST ADD MLOAD SWAP1 POP DUP10 DUP1 PUSH2 0x264C JUMP JUMPDEST SWAP3 POP PUSH1 0xC DUP11 ADD PUSH1 0x0 MSTORE PUSH1 0x20 PUSH1 0x0 KECCAK256 SWAP1 PUSH1 0x0 SWAP4 JUMPDEST PUSH1 0x1F NOT DUP5 AND DUP6 LT PUSH2 0x2E30 JUMPI PUSH1 0x1 SWAP5 POP DUP4 PUSH1 0x1F NOT DUP2 AND LT PUSH2 0x2E17 JUMPI JUMPDEST POP POP POP DUP2 SHL ADD PUSH1 0xC DUP9 ADD SSTORE PUSH2 0x2664 JUMP JUMPDEST ADD MLOAD PUSH1 0x0 NOT PUSH1 0xF8 DUP5 PUSH1 0x3 SHL AND SHR NOT AND SWAP1 SSTORE DUP10 DUP1 DUP1 PUSH2 0x2E07 JUMP JUMPDEST DUP2 DUP2 ADD MLOAD DUP4 SSTORE PUSH1 0x20 SWAP5 DUP6 ADD SWAP5 PUSH1 0x1 SWAP1 SWAP4 ADD SWAP3 SWAP1 SWAP2 ADD SWAP1 PUSH2 0x2DEC JUMP JUMPDEST SWAP1 SWAP2 POP PUSH1 0xC DUP11 ADD PUSH1 0x0 MSTORE PUSH1 0x20 PUSH1 0x0 KECCAK256 PUSH1 0x1F DUP5 ADD PUSH1 0x5 SHR DUP2 ADD PUSH1 0x20 DUP6 LT PUSH2 0x2E97 JUMPI JUMPDEST SWAP1 DUP5 SWAP4 SWAP3 SWAP2 JUMPDEST PUSH1 0x1F DUP4 ADD PUSH1 0x5 SHR DUP3 ADD DUP2 LT PUSH2 0x2E88 JUMPI POP POP PUSH2 0x2635 JUMP JUMPDEST PUSH1 0x0 DUP2 SSTORE DUP6 SWAP5 POP PUSH1 0x1 ADD PUSH2 0x2E72 JUMP JUMPDEST POP DUP1 PUSH2 0x2E6C JUMP JUMPDEST ADD MLOAD SWAP1 POP DUP10 DUP1 PUSH2 0x25DC JUMP JUMPDEST SWAP3 POP PUSH1 0x8 DUP11 ADD PUSH1 0x0 MSTORE PUSH1 0x20 PUSH1 0x0 KECCAK256 SWAP1 PUSH1 0x0 SWAP4 JUMPDEST PUSH1 0x1F NOT DUP5 AND DUP6 LT PUSH2 0x2F00 JUMPI PUSH1 0x1 SWAP5 POP DUP4 PUSH1 0x1F NOT DUP2 AND LT PUSH2 0x2EE7 JUMPI JUMPDEST POP POP POP DUP2 SHL ADD PUSH1 0x8 DUP9 ADD SSTORE PUSH2 0x25F4 JUMP JUMPDEST ADD MLOAD PUSH1 0x0 NOT PUSH1 0xF8 DUP5 PUSH1 0x3 SHL AND SHR NOT AND SWAP1 SSTORE DUP10 DUP1 DUP1 PUSH2 0x2ED7 JUMP JUMPDEST DUP2 DUP2 ADD MLOAD DUP4 SSTORE PUSH1 0x20 SWAP5 DUP6 ADD SWAP5 PUSH1 0x1 SWAP1 SWAP4 ADD SWAP3 SWAP1 SWAP2 ADD SWAP1 PUSH2 0x2EBC JUMP JUMPDEST SWAP1 SWAP2 POP PUSH1 0x8 DUP11 ADD PUSH1 0x0 MSTORE PUSH1 0x20 PUSH1 0x0 KECCAK256 PUSH1 0x1F DUP5 ADD PUSH1 0x5 SHR DUP2 ADD PUSH1 0x20 DUP6 LT PUSH2 0x2F67 JUMPI JUMPDEST SWAP1 DUP5 SWAP4 SWAP3 SWAP2 JUMPDEST PUSH1 0x1F DUP4 ADD PUSH1 0x5 SHR DUP3 ADD DUP2 LT PUSH2 0x2F58 JUMPI POP POP PUSH2 0x25C5 JUMP JUMPDEST PUSH1 0x0 DUP2 SSTORE DUP6 SWAP5 POP PUSH1 0x1 ADD PUSH2 0x2F42 JUMP JUMPDEST POP DUP1 PUSH2 0x2F3C JUMP JUMPDEST ADD MLOAD SWAP1 POP DUP10 DUP1 PUSH2 0x257D JUMP JUMPDEST SWAP3 POP PUSH1 0x7 DUP11 ADD PUSH1 0x0 MSTORE PUSH1 0x20 PUSH1 0x0 KECCAK256 SWAP1 PUSH1 0x0 SWAP4 JUMPDEST PUSH1 0x1F NOT DUP5 AND DUP6 LT PUSH2 0x2FD0 JUMPI PUSH1 0x1 SWAP5 POP DUP4 PUSH1 0x1F NOT DUP2 AND LT PUSH2 0x2FB7 JUMPI JUMPDEST POP POP POP DUP2 SHL ADD PUSH1 0x7 DUP9 ADD SSTORE PUSH2 0x2595 JUMP JUMPDEST ADD MLOAD PUSH1 0x0 NOT PUSH1 0xF8 DUP5 PUSH1 0x3 SHL AND SHR NOT AND SWAP1 SSTORE DUP10 DUP1 DUP1 PUSH2 0x2FA7 JUMP JUMPDEST DUP2 DUP2 ADD MLOAD DUP4 SSTORE PUSH1 0x20 SWAP5 DUP6 ADD SWAP5 PUSH1 0x1 SWAP1 SWAP4 ADD SWAP3 SWAP1 SWAP2 ADD SWAP1 PUSH2 0x2F8C JUMP JUMPDEST SWAP1 SWAP2 POP PUSH1 0x7 DUP11 ADD PUSH1 0x0 MSTORE PUSH1 0x20 PUSH1 0x0 KECCAK256 PUSH1 0x1F DUP5 ADD PUSH1 0x5 SHR DUP2 ADD PUSH1 0x20 DUP6 LT PUSH2 0x3037 JUMPI JUMPDEST SWAP1 DUP5 SWAP4 SWAP3 SWAP2 JUMPDEST PUSH1 0x1F DUP4 ADD PUSH1 0x5 SHR DUP3 ADD DUP2 LT PUSH2 0x3028 JUMPI POP POP PUSH2 0x2566 JUMP JUMPDEST PUSH1 0x0 DUP2 SSTORE DUP6 SWAP5 POP PUSH1 0x1 ADD PUSH2 0x3012 JUMP JUMPDEST POP DUP1 PUSH2 0x300C JUMP JUMPDEST ADD MLOAD SWAP1 POP DUP10 DUP1 PUSH2 0x251F JUMP JUMPDEST SWAP3 POP PUSH1 0x6 DUP11 ADD PUSH1 0x0 MSTORE PUSH1 0x20 PUSH1 0x0 KECCAK256 SWAP1 PUSH1 0x0 SWAP4 JUMPDEST PUSH1 0x1F NOT DUP5 AND DUP6 LT PUSH2 0x30A0 JUMPI PUSH1 0x1 SWAP5 POP DUP4 PUSH1 0x1F NOT DUP2 AND LT PUSH2 0x3087 JUMPI JUMPDEST POP POP POP DUP2 SHL ADD PUSH1 0x6 DUP9 ADD SSTORE PUSH2 0x2537 JUMP JUMPDEST ADD MLOAD PUSH1 0x0 NOT PUSH1 0xF8 DUP5 PUSH1 0x3 SHL AND SHR NOT AND SWAP1 SSTORE DUP10 DUP1 DUP1 PUSH2 0x3077 JUMP JUMPDEST DUP2 DUP2 ADD MLOAD DUP4 SSTORE PUSH1 0x20 SWAP5 DUP6 ADD SWAP5 PUSH1 0x1 SWAP1 SWAP4 ADD SWAP3 SWAP1 SWAP2 ADD SWAP1 PUSH2 0x305C JUMP JUMPDEST SWAP1 SWAP2 POP PUSH1 0x6 DUP11 ADD PUSH1 0x0 MSTORE PUSH1 0x20 PUSH1 0x0 KECCAK256 PUSH1 0x1F DUP5 ADD PUSH1 0x5 SHR DUP2 ADD PUSH1 0x20 DUP6 LT PUSH2 0x3107 JUMPI JUMPDEST SWAP1 DUP5 SWAP4 SWAP3 SWAP2 JUMPDEST PUSH1 0x1F DUP4 ADD PUSH1 0x5 SHR DUP3 ADD DUP2 LT PUSH2 0x30F8 JUMPI POP POP PUSH2 0x2508 JUMP JUMPDEST PUSH1 0x0 DUP2 SSTORE DUP6 SWAP5 POP PUSH1 0x1 ADD PUSH2 0x30E2 JUMP JUMPDEST POP DUP1 PUSH2 0x30DC JUMP JUMPDEST ADD MLOAD SWAP1 POP DUP10 DUP1 PUSH2 0x24C1 JUMP JUMPDEST SWAP3 POP PUSH1 0x5 DUP11 ADD PUSH1 0x0 MSTORE PUSH1 0x20 PUSH1 0x0 KECCAK256 SWAP1 PUSH1 0x0 SWAP4 JUMPDEST PUSH1 0x1F NOT DUP5 AND DUP6 LT PUSH2 0x3170 JUMPI PUSH1 0x1 SWAP5 POP DUP4 PUSH1 0x1F NOT DUP2 AND LT PUSH2 0x3157 JUMPI JUMPDEST POP POP POP DUP2 SHL ADD PUSH1 0x5 DUP9 ADD SSTORE PUSH2 0x24D9 JUMP JUMPDEST ADD MLOAD PUSH1 0x0 NOT PUSH1 0xF8 DUP5 PUSH1 0x3 SHL AND SHR NOT AND SWAP1 SSTORE DUP10 DUP1 DUP1 PUSH2 0x3147 JUMP JUMPDEST DUP2 DUP2 ADD MLOAD DUP4 SSTORE PUSH1 0x20 SWAP5 DUP6 ADD SWAP5 PUSH1 0x1 SWAP1 SWAP4 ADD SWAP3 SWAP1 SWAP2 ADD SWAP1 PUSH2 0x312C JUMP JUMPDEST SWAP1 SWAP2 POP PUSH1 0x5 DUP11 ADD PUSH1 0x0 MSTORE PUSH1 0x20 PUSH1 0x0 KECCAK256 PUSH1 0x1F DUP5 ADD PUSH1 0x5 SHR DUP2 ADD PUSH1 0x20 DUP6 LT PUSH2 0x31D7 JUMPI JUMPDEST SWAP1 DUP5 SWAP4 SWAP3 SWAP2 JUMPDEST PUSH1 0x1F DUP4 ADD PUSH1 0x5 SHR DUP3 ADD DUP2 LT PUSH2 0x31C8 JUMPI POP POP PUSH2 0x24AA JUMP JUMPDEST PUSH1 0x0 DUP2 SSTORE DUP6 SWAP5 POP PUSH1 0x1 ADD PUSH2 0x31B2 JUMP JUMPDEST POP DUP1 PUSH2 0x31AC JUMP JUMPDEST ADD MLOAD SWAP1 POP DUP10 DUP1 PUSH2 0x2463 JUMP JUMPDEST SWAP3 POP PUSH1 0x4 DUP11 ADD PUSH1 0x0 MSTORE PUSH1 0x20 PUSH1 0x0 KECCAK256 SWAP1 PUSH1 0x0 SWAP4 JUMPDEST PUSH1 0x1F NOT DUP5 AND DUP6 LT PUSH2 0x3240 JUMPI PUSH1 0x1 SWAP5 POP DUP4 PUSH1 0x1F NOT DUP2 AND LT PUSH2 0x3227 JUMPI JUMPDEST POP POP POP DUP2 SHL ADD PUSH1 0x4 DUP9 ADD SSTORE PUSH2 0x247B JUMP JUMPDEST ADD MLOAD PUSH1 0x0 NOT PUSH1 0xF8 DUP5 PUSH1 0x3 SHL AND SHR NOT AND SWAP1 SSTORE DUP10 DUP1 DUP1 PUSH2 0x3217 JUMP JUMPDEST DUP2 DUP2 ADD MLOAD DUP4 SSTORE PUSH1 0x20 SWAP5 DUP6 ADD SWAP5 PUSH1 0x1 SWAP1 SWAP4 ADD SWAP3 SWAP1 SWAP2 ADD SWAP1 PUSH2 0x31FC JUMP JUMPDEST SWAP1 SWAP2 POP PUSH1 0x4 DUP11 ADD PUSH1 0x0 MSTORE PUSH1 0x20 PUSH1 0x0 KECCAK256 PUSH1 0x1F DUP5 ADD PUSH1 0x5 SHR DUP2 ADD PUSH1 0x20 DUP6 LT PUSH2 0x32A7 JUMPI JUMPDEST SWAP1 DUP5 SWAP4 SWAP3 SWAP2 JUMPDEST PUSH1 0x1F DUP4 ADD PUSH1 0x5 SHR DUP3 ADD DUP2 LT PUSH2 0x3298 JUMPI POP POP PUSH2 0x244C JUMP JUMPDEST PUSH1 0x0 DUP2 SSTORE DUP6 SWAP5 POP PUSH1 0x1 ADD PUSH2 0x3282 JUMP JUMPDEST POP DUP1 PUSH2 0x327C JUMP JUMPDEST ADD MLOAD SWAP1 POP DUP10 DUP1 PUSH2 0x2405 JUMP JUMPDEST SWAP3 POP PUSH1 0x3 DUP11 ADD PUSH1 0x0 MSTORE PUSH1 0x20 PUSH1 0x0 KECCAK256 SWAP1 PUSH1 0x0 SWAP4 JUMPDEST PUSH1 0x1F NOT DUP5 AND DUP6 LT PUSH2 0x3310 JUMPI PUSH1 0x1 SWAP5 POP DUP4 PUSH1 0x1F NOT DUP2 AND LT PUSH2 0x32F7 JUMPI JUMPDEST POP POP POP DUP2 SHL ADD PUSH1 0x3 DUP9 ADD SSTORE PUSH2 0x241D JUMP JUMPDEST ADD MLOAD PUSH1 0x0 NOT PUSH1 0xF8 DUP5 PUSH1 0x3 SHL AND SHR NOT AND SWAP1 SSTORE DUP10 DUP1 DUP1 PUSH2 0x32E7 JUMP JUMPDEST DUP2 DUP2 ADD MLOAD DUP4 SSTORE PUSH1 0x20 SWAP5 DUP6 ADD SWAP5 PUSH1 0x1 SWAP1 SWAP4 ADD SWAP3 SWAP1 SWAP2 ADD SWAP1 PUSH2 0x32CC JUMP JUMPDEST SWAP1 SWAP2 POP PUSH1 0x3 DUP11 ADD PUSH1 0x0 MSTORE PUSH1 0x20 PUSH1 0x0 KECCAK256 PUSH1 0x1F DUP5 ADD PUSH1 0x5 SHR DUP2 ADD PUSH1 0x20 DUP6 LT PUSH2 0x3377 JUMPI JUMPDEST SWAP1 DUP5 SWAP4 SWAP3 SWAP2 JUMPDEST PUSH1 0x1F DUP4 ADD PUSH1 0x5 SHR DUP3 ADD DUP2 LT PUSH2 0x3368 JUMPI POP POP PUSH2 0x23EE JUMP JUMPDEST PUSH1 0x0 DUP2 SSTORE DUP6 SWAP5 POP PUSH1 0x1 ADD PUSH2 0x3352 JUMP JUMPDEST POP DUP1 PUSH2 0x334C JUMP JUMPDEST SWAP1 POP DUP3 ADD MLOAD DUP10 PUSH2 0x23A8 JUMP JUMPDEST SWAP2 POP PUSH1 0x2 DUP10 ADD PUSH1 0x0 MSTORE PUSH1 0x20 PUSH1 0x0 KECCAK256 PUSH1 0x0 SWAP3 JUMPDEST PUSH1 0x1F NOT DUP4 AND DUP5 LT PUSH2 0x33DE JUMPI PUSH1 0x1 SWAP4 POP DUP3 PUSH1 0x1F NOT DUP2 AND LT PUSH2 0x33C5 JUMPI JUMPDEST POP POP DUP2 SHL ADD PUSH1 0x2 DUP9 ADD SSTORE PUSH2 0x23BF JUMP JUMPDEST DUP5 ADD MLOAD PUSH1 0x0 NOT PUSH1 0xF8 DUP5 PUSH1 0x3 SHL AND SHR NOT AND SWAP1 SSTORE DUP10 DUP1 PUSH2 0x33B6 JUMP JUMPDEST DUP5 DUP2 ADD MLOAD DUP3 SSTORE PUSH1 0x20 SWAP4 DUP5 ADD SWAP4 PUSH1 0x1 SWAP1 SWAP3 ADD SWAP2 ADD PUSH2 0x339B JUMP JUMPDEST PUSH1 0x2 DUP10 ADD PUSH1 0x0 MSTORE PUSH1 0x20 PUSH1 0x0 KECCAK256 PUSH1 0x1F DUP4 ADD PUSH1 0x5 SHR DUP2 ADD PUSH1 0x20 DUP5 LT PUSH2 0x3436 JUMPI JUMPDEST PUSH1 0x1F DUP4 ADD PUSH1 0x5 SHR DUP3 ADD DUP2 LT PUSH2 0x342A JUMPI POP POP PUSH2 0x2391 JUMP JUMPDEST PUSH1 0x0 DUP2 SSTORE PUSH1 0x1 ADD PUSH2 0x3414 JUMP JUMPDEST POP DUP1 PUSH2 0x3414 JUMP JUMPDEST SWAP1 POP DUP7 ADD MLOAD DUP10 PUSH2 0x2353 JUMP JUMPDEST SWAP2 POP PUSH1 0x1 DUP10 ADD PUSH1 0x0 MSTORE PUSH1 0x20 PUSH1 0x0 KECCAK256 PUSH1 0x0 SWAP3 JUMPDEST PUSH1 0x1F NOT DUP4 AND DUP5 LT PUSH2 0x349D JUMPI PUSH1 0x1 SWAP4 POP DUP3 PUSH1 0x1F NOT DUP2 AND LT PUSH2 0x3484 JUMPI JUMPDEST POP POP DUP2 SHL ADD PUSH1 0x1 DUP9 ADD SSTORE PUSH2 0x236A JUMP JUMPDEST DUP9 ADD MLOAD PUSH1 0x0 NOT PUSH1 0xF8 DUP5 PUSH1 0x3 SHL AND SHR NOT AND SWAP1 SSTORE DUP10 DUP1 PUSH2 0x3475 JUMP JUMPDEST DUP9 DUP2 ADD MLOAD DUP3 SSTORE PUSH1 0x20 SWAP4 DUP5 ADD SWAP4 PUSH1 0x1 SWAP1 SWAP3 ADD SWAP2 ADD PUSH2 0x345A JUMP JUMPDEST PUSH1 0x1 DUP10 ADD PUSH1 0x0 MSTORE PUSH1 0x20 PUSH1 0x0 KECCAK256 PUSH1 0x1F DUP4 ADD PUSH1 0x5 SHR DUP2 ADD PUSH1 0x20 DUP5 LT PUSH2 0x34F5 JUMPI JUMPDEST PUSH1 0x1F DUP4 ADD PUSH1 0x5 SHR DUP3 ADD DUP2 LT PUSH2 0x34E9 JUMPI POP POP PUSH2 0x233C JUMP JUMPDEST PUSH1 0x0 DUP2 SSTORE PUSH1 0x1 ADD PUSH2 0x34D3 JUMP JUMPDEST POP DUP1 PUSH2 0x34D3 JUMP JUMPDEST ADD MLOAD SWAP1 POP DUP10 DUP1 PUSH2 0x2300 JUMP JUMPDEST SWAP3 POP DUP10 PUSH1 0x0 MSTORE PUSH1 0x20 PUSH1 0x0 KECCAK256 SWAP1 PUSH1 0x0 SWAP4 JUMPDEST PUSH1 0x1F NOT DUP5 AND DUP6 LT PUSH2 0x3558 JUMPI PUSH1 0x1 SWAP5 POP DUP4 PUSH1 0x1F NOT DUP2 AND LT PUSH2 0x353F JUMPI JUMPDEST POP POP POP DUP2 SHL ADD DUP8 SSTORE PUSH2 0x2315 JUMP JUMPDEST ADD MLOAD PUSH1 0x0 NOT PUSH1 0xF8 DUP5 PUSH1 0x3 SHL AND SHR NOT AND SWAP1 SSTORE DUP10 DUP1 DUP1 PUSH2 0x3532 JUMP JUMPDEST DUP2 DUP2 ADD MLOAD DUP4 SSTORE PUSH1 0x20 SWAP5 DUP6 ADD SWAP5 PUSH1 0x1 SWAP1 SWAP4 ADD SWAP3 SWAP1 SWAP2 ADD SWAP1 PUSH2 0x3517 JUMP JUMPDEST SWAP1 SWAP2 POP DUP10 PUSH1 0x0 MSTORE PUSH1 0x20 PUSH1 0x0 KECCAK256 PUSH1 0x1F DUP5 ADD PUSH1 0x5 SHR DUP2 ADD PUSH1 0x20 DUP6 LT PUSH2 0x35BC JUMPI JUMPDEST SWAP1 DUP5 SWAP4 SWAP3 SWAP2 JUMPDEST PUSH1 0x1F DUP4 ADD PUSH1 0x5 SHR DUP3 ADD DUP2 LT PUSH2 0x35AD JUMPI POP POP PUSH2 0x22E9 JUMP JUMPDEST PUSH1 0x0 DUP2 SSTORE DUP6 SWAP5 POP PUSH1 0x1 ADD PUSH2 0x3597 JUMP JUMPDEST POP DUP1 PUSH2 0x3591 JUMP JUMPDEST PUSH1 0x40 MLOAD PUSH3 0x461BCD PUSH1 0xE5 SHL DUP2 MSTORE PUSH1 0x20 PUSH1 0x4 DUP3 ADD MSTORE PUSH1 0x1C PUSH1 0x24 DUP3 ADD MSTORE PUSH32 0x4174206C65617374206F6E6520636F7572736520726571756972656400000000 PUSH1 0x44 DUP3 ADD MSTORE REVERT JUMPDEST PUSH1 0x84 SWAP1 PUSH32 0x7074790000000000000000000000000000000000000000000000000000000000 PUSH1 0x40 MLOAD SWAP2 PUSH3 0x461BCD PUSH1 0xE5 SHL DUP4 MSTORE PUSH1 0x20 PUSH1 0x4 DUP5 ADD MSTORE PUSH1 0x23 PUSH1 0x24 DUP5 ADD MSTORE PUSH32 0x526567697374726174696F6E206E756D6265722063616E6E6F7420626520656D PUSH1 0x44 DUP5 ADD MSTORE DUP3 ADD MSTORE REVERT JUMPDEST PUSH1 0x40 MLOAD PUSH3 0x461BCD PUSH1 0xE5 SHL DUP2 MSTORE PUSH1 0x20 PUSH1 0x4 DUP3 ADD MSTORE PUSH1 0x1C PUSH1 0x24 DUP3 ADD MSTORE PUSH32 0x53747564656E74206E616D652063616E6E6F7420626520656D70747900000000 PUSH1 0x44 DUP3 ADD MSTORE REVERT JUMPDEST PUSH1 0x40 MLOAD PUSH3 0x461BCD PUSH1 0xE5 SHL DUP2 MSTORE PUSH1 0x20 PUSH1 0x4 DUP3 ADD MSTORE PUSH1 0x18 PUSH1 0x24 DUP3 ADD MSTORE PUSH32 0x4D656D6F206E756D62657220616C726561647920757365640000000000000000 PUSH1 0x44 DUP3 ADD MSTORE REVERT JUMPDEST PUSH1 0x40 MLOAD PUSH3 0x461BCD PUSH1 0xE5 SHL DUP2 MSTORE PUSH1 0x20 PUSH1 0x4 DUP3 ADD MSTORE PUSH1 0x1A PUSH1 0x24 DUP3 ADD MSTORE PUSH32 0x53657269616C206E756D62657220616C72656164792075736564000000000000 PUSH1 0x44 DUP3 ADD MSTORE REVERT JUMPDEST PUSH1 0x40 MLOAD PUSH3 0x461BCD PUSH1 0xE5 SHL DUP2 MSTORE PUSH1 0x20 PUSH1 0x4 DUP3 ADD MSTORE PUSH1 0x1B PUSH1 0x24 DUP3 ADD MSTORE PUSH32 0x4D656D6F206E756D6265722063616E6E6F7420626520656D7074790000000000 PUSH1 0x44 DUP3 ADD MSTORE REVERT JUMPDEST PUSH1 0x40 MLOAD PUSH3 0x461BCD PUSH1 0xE5 SHL DUP2 MSTORE PUSH1 0x20 PUSH1 0x4 DUP3 ADD MSTORE PUSH1 0x1D PUSH1 0x24 DUP3 ADD MSTORE PUSH32 0x53657269616C206E756D6265722063616E6E6F7420626520656D707479000000 PUSH1 0x44 DUP3 ADD MSTORE REVERT JUMPDEST CALLVALUE PUSH2 0x28F JUMPI PUSH1 0x0 CALLDATASIZE PUSH1 0x3 NOT ADD SLT PUSH2 0x28F JUMPI PUSH2 0x37D2 PUSH2 0x4784 JUMP JUMPDEST PUSH1 0x8 SLOAD PUSH1 0xFF DUP2 AND ISZERO PUSH2 0x3811 JUMPI PUSH1 0xFF NOT AND PUSH1 0x8 SSTORE PUSH32 0x5DB9EE0A495BF2E6FF9C91A7834C1BA4FDD244A5E8AA4E537BD38AEAE4B073AA PUSH1 0x20 PUSH1 0x40 MLOAD CALLER DUP2 MSTORE LOG1 STOP JUMPDEST PUSH1 0x4 PUSH1 0x40 MLOAD PUSH32 0x8DFC202B00000000000000000000000000000000000000000000000000000000 DUP2 MSTORE REVERT JUMPDEST CALLVALUE PUSH2 0x28F JUMPI PUSH1 0x20 DUP1 PUSH1 0x3 NOT CALLDATASIZE ADD SLT PUSH2 0x28F JUMPI PUSH1 0x1 PUSH1 0x1 PUSH1 0xA0 SHL SUB PUSH2 0x385D PUSH2 0x4130 JUMP JUMPDEST AND PUSH1 0x0 MSTORE PUSH1 0x11 DUP2 MSTORE PUSH1 0x40 PUSH1 0x0 KECCAK256 SWAP1 PUSH1 0x40 MLOAD SWAP1 DUP2 DUP2 DUP5 SLOAD SWAP2 DUP3 DUP2 MSTORE ADD SWAP4 PUSH1 0x0 MSTORE DUP2 PUSH1 0x0 KECCAK256 SWAP2 PUSH1 0x0 SWAP1 JUMPDEST DUP3 DUP3 LT PUSH2 0x389C JUMPI PUSH2 0x42D DUP6 PUSH2 0x503 DUP2 DUP10 SUB DUP3 PUSH2 0x4261 JUMP JUMPDEST DUP4 SLOAD DUP7 MSTORE SWAP5 DUP6 ADD SWAP5 PUSH1 0x1 SWAP4 DUP5 ADD SWAP4 SWAP1 SWAP2 ADD SWAP1 PUSH2 0x3885 JUMP JUMPDEST CALLVALUE PUSH2 0x28F JUMPI PUSH1 0x40 CALLDATASIZE PUSH1 0x3 NOT ADD SLT PUSH2 0x28F JUMPI PUSH2 0x38CC PUSH2 0x4146 JUMP JUMPDEST CALLER PUSH1 0x1 PUSH1 0x1 PUSH1 0xA0 SHL SUB DUP3 AND SUB PUSH2 0x38E8 JUMPI PUSH2 0x61E SWAP1 PUSH1 0x4 CALLDATALOAD PUSH2 0x491A JUMP JUMPDEST PUSH1 0x4 PUSH1 0x40 MLOAD PUSH32 0x6697B23200000000000000000000000000000000000000000000000000000000 DUP2 MSTORE REVERT JUMPDEST CALLVALUE PUSH2 0x28F JUMPI PUSH1 0x20 DUP1 PUSH1 0x3 NOT CALLDATASIZE ADD SLT PUSH2 0x28F JUMPI PUSH1 0x4 CALLDATALOAD SWAP1 PUSH2 0x3930 PUSH2 0x543C JUMP JUMPDEST POP DUP2 PUSH1 0x0 MSTORE PUSH1 0x2 DUP2 MSTORE PUSH1 0x1 PUSH1 0x1 PUSH1 0xA0 SHL SUB SWAP2 PUSH2 0x3954 DUP4 PUSH1 0x40 PUSH1 0x0 KECCAK256 SLOAD AND ISZERO ISZERO PUSH2 0x5540 JUMP JUMPDEST PUSH1 0x0 MSTORE PUSH1 0xB DUP2 MSTORE PUSH1 0x40 PUSH1 0x0 KECCAK256 SWAP2 PUSH1 0x6 PUSH1 0x40 MLOAD SWAP4 PUSH2 0x3970 DUP6 PUSH2 0x41EF JUMP JUMPDEST PUSH2 0x3979 DUP2 PUSH2 0x432E JUMP JUMPDEST DUP6 MSTORE PUSH2 0x3987 PUSH1 0x1 DUP3 ADD PUSH2 0x432E JUMP JUMPDEST DUP5 DUP7 ADD MSTORE PUSH2 0x3997 PUSH1 0x2 DUP3 ADD PUSH2 0x432E JUMP JUMPDEST PUSH1 0x40 DUP7 ADD MSTORE PUSH2 0x39A8 PUSH1 0x3 DUP3 ADD PUSH2 0x432E JUMP JUMPDEST PUSH1 0x60 DUP7 ADD MSTORE PUSH2 0x39B9 PUSH1 0x4 DUP3 ADD PUSH2 0x432E JUMP JUMPDEST PUSH1 0x80 DUP7 ADD MSTORE PUSH1 0x5 DUP2 ADD SLOAD PUSH1 0xA0 DUP7 ADD MSTORE ADD SLOAD PUSH1 0xFF DUP2 AND ISZERO ISZERO PUSH1 0xC0 DUP6 ADD MSTORE PUSH1 0x8 SHR AND PUSH1 0xE0 DUP4 ADD MSTORE PUSH2 0x42D PUSH1 0x40 MLOAD SWAP3 DUP3 DUP5 SWAP4 DUP5 MSTORE DUP4 ADD SWAP1 PUSH2 0x415C JUMP JUMPDEST CALLVALUE PUSH2 0x28F JUMPI PUSH1 0x40 CALLDATASIZE PUSH1 0x3 NOT ADD SLT PUSH2 0x28F JUMPI PUSH2 0x61E PUSH1 0x4 CALLDATALOAD PUSH2 0x3A11 PUSH2 0x4146 JUMP JUMPDEST SWAP1 DUP1 PUSH1 0x0 MSTORE PUSH1 0x7 PUSH1 0x20 MSTORE PUSH2 0x3A2C PUSH1 0x1 PUSH1 0x40 PUSH1 0x0 KECCAK256 ADD SLOAD PUSH2 0x4873 JUMP JUMPDEST PUSH2 0x4899 JUMP JUMPDEST CALLVALUE PUSH2 0x28F JUMPI PUSH1 0x20 CALLDATASIZE PUSH1 0x3 NOT ADD SLT PUSH2 0x28F JUMPI PUSH1 0x4 CALLDATALOAD PUSH2 0x3A4D PUSH2 0x4784 JUMP JUMPDEST DUP1 PUSH1 0x0 MSTORE PUSH1 0x2 PUSH1 0x20 MSTORE PUSH1 0x1 PUSH1 0x1 PUSH1 0xA0 SHL SUB SWAP1 PUSH2 0x3A71 DUP3 PUSH1 0x40 PUSH1 0x0 KECCAK256 SLOAD AND ISZERO ISZERO PUSH2 0x53A6 JUMP JUMPDEST DUP1 PUSH1 0x0 MSTORE PUSH1 0x10 PUSH1 0x20 MSTORE PUSH2 0x3A92 PUSH1 0xFF PUSH1 0xE PUSH1 0x40 PUSH1 0x0 KECCAK256 ADD SLOAD PUSH1 0xA0 SHR AND ISZERO PUSH2 0x53F1 JUMP JUMPDEST DUP1 PUSH1 0x0 MSTORE PUSH1 0x10 PUSH1 0x20 MSTORE PUSH1 0xE PUSH1 0x40 PUSH1 0x0 KECCAK256 ADD PUSH21 0x10000000000000000000000000000000000000000 PUSH1 0xFF PUSH1 0xA0 SHL NOT DUP3 SLOAD AND OR SWAP1 SSTORE PUSH2 0x3ACE DUP2 PUSH2 0x4B67 JUMP JUMPDEST CALLER SWAP3 AND SWAP1 PUSH32 0x852D5D4A823318018CABC1F51B12EF417CEFAA75696231006C99935C2B990150 PUSH1 0x0 DUP1 LOG4 STOP JUMPDEST CALLVALUE PUSH2 0x28F JUMPI PUSH1 0x20 CALLDATASIZE PUSH1 0x3 NOT ADD SLT PUSH2 0x28F JUMPI PUSH1 0x4 CALLDATALOAD PUSH8 0xFFFFFFFFFFFFFFFF DUP2 GT PUSH2 0x28F JUMPI PUSH1 0xFF PUSH2 0x3B32 PUSH1 0x20 PUSH2 0x5B6 DUP2 SWAP5 CALLDATASIZE SWAP1 PUSH1 0x4 ADD PUSH2 0x42D6 JUMP JUMPDEST DUP2 ADD PUSH1 0x12 DUP2 MSTORE SUB ADD SWAP1 KECCAK256 SLOAD AND PUSH1 0x40 MLOAD SWAP1 ISZERO ISZERO DUP2 MSTORE RETURN JUMPDEST CALLVALUE PUSH2 0x28F JUMPI PUSH1 0x20 CALLDATASIZE PUSH1 0x3 NOT ADD SLT PUSH2 0x28F JUMPI PUSH1 0x4 CALLDATALOAD PUSH1 0x0 MSTORE PUSH1 0x7 PUSH1 0x20 MSTORE PUSH1 0x20 PUSH1 0x1 PUSH1 0x40 PUSH1 0x0 KECCAK256 ADD SLOAD PUSH1 0x40 MLOAD SWAP1 DUP2 MSTORE RETURN JUMPDEST CALLVALUE PUSH2 0x28F JUMPI PUSH2 0x61E PUSH2 0x3B88 CALLDATASIZE PUSH2 0x43D4 JUMP JUMPDEST SWAP2 PUSH2 0x4992 JUMP JUMPDEST CALLVALUE PUSH2 0x28F JUMPI PUSH1 0x20 CALLDATASIZE PUSH1 0x3 NOT ADD SLT PUSH2 0x28F JUMPI PUSH1 0x4 CALLDATALOAD PUSH1 0x0 MSTORE PUSH1 0xE PUSH1 0x20 MSTORE PUSH2 0x42D PUSH2 0x7F1 PUSH1 0x40 PUSH1 0x0 KECCAK256 PUSH2 0x432E JUMP JUMPDEST CALLVALUE PUSH2 0x28F JUMPI PUSH1 0x40 CALLDATASIZE PUSH1 0x3 NOT ADD SLT PUSH2 0x28F JUMPI PUSH8 0xFFFFFFFFFFFFFFFF PUSH1 0x4 CALLDATALOAD PUSH1 0x24 CALLDATALOAD DUP3 DUP2 GT PUSH2 0x28F JUMPI PUSH2 0x3BEF SWAP1 CALLDATASIZE SWAP1 PUSH1 0x4 ADD PUSH2 0x42D6 JUMP JUMPDEST SWAP2 PUSH2 0x3BF8 PUSH2 0x4784 JUMP JUMPDEST DUP2 PUSH1 0x0 MSTORE PUSH1 0x20 SWAP2 PUSH1 0x2 DUP4 MSTORE PUSH2 0x3C1C PUSH1 0x1 PUSH1 0x1 PUSH1 0xA0 SHL SUB PUSH1 0x40 PUSH1 0x0 KECCAK256 SLOAD AND ISZERO ISZERO PUSH2 0x53A6 JUMP JUMPDEST PUSH1 0x0 MSTORE PUSH1 0x10 DUP3 MSTORE PUSH1 0x8 PUSH1 0x40 PUSH1 0x0 KECCAK256 ADD SWAP2 DUP4 MLOAD SWAP2 DUP3 GT PUSH2 0xBBB JUMPI PUSH2 0x3C3F DUP4 SLOAD PUSH2 0x42F4 JUMP JUMPDEST PUSH1 0x1F DUP2 GT PUSH2 0x3CC1 JUMPI JUMPDEST POP DUP1 PUSH1 0x1F DUP4 GT PUSH1 0x1 EQ PUSH2 0x3C78 JUMPI POP DUP2 SWAP3 SWAP4 PUSH1 0x0 SWAP3 PUSH2 0xB0A JUMPI POP POP PUSH1 0x0 NOT PUSH1 0x3 DUP4 SWAP1 SHL SHR NOT AND PUSH1 0x1 SWAP2 SWAP1 SWAP2 SHL OR SWAP1 SSTORE STOP JUMPDEST SWAP1 PUSH1 0x1F NOT DUP4 AND SWAP5 DUP5 PUSH1 0x0 MSTORE DUP3 PUSH1 0x0 KECCAK256 SWAP3 PUSH1 0x0 SWAP1 JUMPDEST DUP8 DUP3 LT PUSH2 0x3CA9 JUMPI POP POP DUP4 PUSH1 0x1 SWAP6 SWAP7 LT PUSH2 0xB47 JUMPI POP POP POP DUP2 SHL ADD SWAP1 SSTORE STOP JUMPDEST DUP1 PUSH1 0x1 DUP6 SWAP7 DUP3 SWAP5 SWAP7 DUP7 ADD MLOAD DUP2 SSTORE ADD SWAP6 ADD SWAP4 ADD SWAP1 PUSH2 0x3C8C JUMP JUMPDEST DUP4 PUSH1 0x0 MSTORE DUP2 PUSH1 0x0 KECCAK256 PUSH1 0x1F DUP5 ADD PUSH1 0x5 SHR DUP2 ADD SWAP2 DUP4 DUP6 LT PUSH2 0x3CFD JUMPI JUMPDEST PUSH1 0x1F ADD PUSH1 0x5 SHR ADD SWAP1 JUMPDEST DUP2 DUP2 LT PUSH2 0x3CF1 JUMPI POP PUSH2 0x3C48 JUMP JUMPDEST PUSH1 0x0 DUP2 SSTORE PUSH1 0x1 ADD PUSH2 0x3CE4 JUMP JUMPDEST SWAP1 SWAP2 POP DUP2 SWAP1 PUSH2 0x3CDB JUMP JUMPDEST CALLVALUE PUSH2 0x28F JUMPI PUSH1 0x20 CALLDATASIZE PUSH1 0x3 NOT ADD SLT PUSH2 0x28F JUMPI PUSH2 0x283 PUSH2 0x3D26 PUSH1 0x4 CALLDATALOAD PUSH2 0x5479 JUMP JUMPDEST PUSH1 0x40 MLOAD SWAP3 DUP4 SWAP3 PUSH1 0x40 DUP5 MSTORE PUSH1 0x40 DUP5 ADD SWAP1 PUSH2 0x415C JUMP JUMPDEST CALLVALUE PUSH2 0x28F JUMPI PUSH1 0x40 CALLDATASIZE PUSH1 0x3 NOT ADD SLT PUSH2 0x28F JUMPI PUSH2 0x3D53 PUSH2 0x4130 JUMP JUMPDEST PUSH1 0x24 CALLDATALOAD PUSH2 0x3D5F DUP2 PUSH2 0x4B67 JUMP JUMPDEST CALLER ISZERO ISZERO DUP1 PUSH2 0x3E28 JUMPI JUMPDEST DUP1 PUSH2 0x3DFA JUMPI JUMPDEST PUSH2 0x3DCA JUMPI DUP2 SWAP1 PUSH1 0x1 PUSH1 0x1 PUSH1 0xA0 SHL SUB DUP1 SWAP5 AND SWAP4 DUP5 SWAP2 AND PUSH32 0x8C5BE1E5EBEC7D5BD14F71427D1E84F3DD0314C0F7B2291E5B200AC8C7C3B925 PUSH1 0x0 DUP1 LOG4 PUSH1 0x0 MSTORE PUSH1 0x4 PUSH1 0x20 MSTORE PUSH1 0x40 PUSH1 0x0 KECCAK256 SWAP1 PUSH1 0x1 PUSH1 0x1 PUSH1 0xA0 SHL SUB NOT DUP3 SLOAD AND OR SWAP1 SSTORE PUSH1 0x0 DUP1 RETURN JUMPDEST PUSH1 0x24 PUSH1 0x40 MLOAD PUSH32 0xA9FBF51F00000000000000000000000000000000000000000000000000000000 DUP2 MSTORE CALLER PUSH1 0x4 DUP3 ADD MSTORE REVERT JUMPDEST POP PUSH1 0x1 PUSH1 0x1 PUSH1 0xA0 SHL SUB DUP2 AND PUSH1 0x0 MSTORE PUSH1 0x5 PUSH1 0x20 MSTORE PUSH1 0x40 PUSH1 0x0 KECCAK256 CALLER PUSH1 0x0 MSTORE PUSH1 0x20 MSTORE PUSH1 0xFF PUSH1 0x40 PUSH1 0x0 KECCAK256 SLOAD AND ISZERO PUSH2 0x3D6E JUMP JUMPDEST POP CALLER PUSH1 0x1 PUSH1 0x1 PUSH1 0xA0 SHL SUB DUP3 AND EQ ISZERO PUSH2 0x3D68 JUMP JUMPDEST CALLVALUE PUSH2 0x28F JUMPI PUSH1 0x20 CALLDATASIZE PUSH1 0x3 NOT ADD SLT PUSH2 0x28F JUMPI PUSH1 0x4 CALLDATALOAD PUSH2 0x3E58 DUP2 PUSH2 0x4B67 JUMP JUMPDEST POP PUSH1 0x0 MSTORE PUSH1 0x4 PUSH1 0x20 MSTORE PUSH1 0x20 PUSH1 0x1 PUSH1 0x1 PUSH1 0xA0 SHL SUB PUSH1 0x40 PUSH1 0x0 KECCAK256 SLOAD AND PUSH1 0x40 MLOAD SWAP1 DUP2 MSTORE RETURN JUMPDEST CALLVALUE PUSH2 0x28F JUMPI PUSH1 0x0 CALLDATASIZE PUSH1 0x3 NOT ADD SLT PUSH2 0x28F JUMPI PUSH1 0x40 MLOAD PUSH1 0x0 DUP1 SLOAD PUSH2 0x3E9B DUP2 PUSH2 0x42F4 JUMP JUMPDEST DUP1 DUP5 MSTORE SWAP1 PUSH1 0x1 SWAP1 DUP2 DUP2 AND SWAP1 DUP2 ISZERO PUSH2 0xD34 JUMPI POP PUSH1 0x1 EQ PUSH2 0x3EC4 JUMPI PUSH2 0x42D DUP5 PUSH2 0x7F1 DUP2 DUP7 SUB DUP3 PUSH2 0x4261 JUMP JUMPDEST PUSH1 0x0 DUP1 DUP1 MSTORE SWAP3 POP PUSH32 0x290DECD9548B62A8D60345A988386FC84BA6BC95484008F6362F93160EF3E563 JUMPDEST DUP3 DUP5 LT PUSH2 0x3F05 JUMPI POP POP POP DUP2 ADD PUSH1 0x20 ADD PUSH2 0x7F1 DUP3 PUSH2 0xCCB JUMP JUMPDEST DUP1 SLOAD PUSH1 0x20 DUP6 DUP8 ADD DUP2 ADD SWAP2 SWAP1 SWAP2 MSTORE SWAP1 SWAP4 ADD SWAP3 DUP2 ADD PUSH2 0x3EED JUMP JUMPDEST CALLVALUE PUSH2 0x28F JUMPI PUSH1 0x20 CALLDATASIZE PUSH1 0x3 NOT ADD SLT PUSH2 0x28F JUMPI PUSH1 0x4 CALLDATALOAD PUSH2 0x3F39 PUSH2 0x4784 JUMP JUMPDEST DUP1 PUSH1 0x0 MSTORE PUSH1 0x2 PUSH1 0x20 MSTORE PUSH1 0x1 PUSH1 0x1 PUSH1 0xA0 SHL SUB SWAP1 PUSH2 0x3F5D DUP3 PUSH1 0x40 PUSH1 0x0 KECCAK256 SLOAD AND ISZERO ISZERO PUSH2 0x53A6 JUMP JUMPDEST DUP1 PUSH1 0x0 MSTORE PUSH1 0xB PUSH1 0x20 MSTORE PUSH2 0x3F7B PUSH1 0xFF PUSH1 0x6 PUSH1 0x40 PUSH1 0x0 KECCAK256 ADD SLOAD AND ISZERO PUSH2 0x53F1 JUMP JUMPDEST DUP1 PUSH1 0x0 MSTORE PUSH1 0xB PUSH1 0x20 MSTORE PUSH1 0x6 PUSH1 0x40 PUSH1 0x0 KECCAK256 ADD PUSH1 0x1 PUSH1 0xFF NOT DUP3 SLOAD AND OR SWAP1 SSTORE PUSH2 0x3FA0 DUP2 PUSH2 0x4B67 JUMP JUMPDEST CALLER SWAP3 AND SWAP1 PUSH32 0x39858852DFEB2731909C1E5B973698DD12A5E54AB07CF24F5BB3ED593B31450A PUSH1 0x0 DUP1 LOG4 STOP JUMPDEST CALLVALUE PUSH2 0x28F JUMPI PUSH1 0x20 CALLDATASIZE PUSH1 0x3 NOT ADD SLT PUSH2 0x28F JUMPI PUSH1 0x4 CALLDATALOAD SWAP1 PUSH1 0x1 PUSH1 0x1 PUSH1 0xE0 SHL SUB NOT DUP3 AND DUP1 SWAP3 SUB PUSH2 0x28F JUMPI DUP2 PUSH32 0x7965DB0B00000000000000000000000000000000000000000000000000000000 PUSH1 0x20 SWAP4 EQ SWAP1 DUP2 ISZERO PUSH2 0x4027 JUMPI JUMPDEST POP ISZERO ISZERO DUP2 MSTORE RETURN JUMPDEST PUSH32 0x4906490600000000000000000000000000000000000000000000000000000000 DUP2 EQ SWAP2 POP DUP2 ISZERO PUSH2 0x405A JUMPI JUMPDEST POP DUP4 PUSH2 0x4020 JUMP JUMPDEST PUSH32 0x80AC58CD00000000000000000000000000000000000000000000000000000000 DUP2 EQ SWAP2 POP DUP2 ISZERO PUSH2 0x40BE JUMPI JUMPDEST DUP2 ISZERO PUSH2 0x4094 JUMPI JUMPDEST POP DUP4 PUSH2 0x4053 JUMP JUMPDEST PUSH32 0x1FFC9A700000000000000000000000000000000000000000000000000000000 SWAP2 POP EQ DUP4 PUSH2 0x408D JUMP JUMPDEST PUSH32 0x5B5E139F00000000000000000000000000000000000000000000000000000000 DUP2 EQ SWAP2 POP PUSH2 0x4086 JUMP JUMPDEST PUSH1 0x0 JUMPDEST DUP4 DUP2 LT PUSH2 0x40FB JUMPI POP POP PUSH1 0x0 SWAP2 ADD MSTORE JUMP JUMPDEST DUP2 DUP2 ADD MLOAD DUP4 DUP3 ADD MSTORE PUSH1 0x20 ADD PUSH2 0x40EB JUMP JUMPDEST SWAP1 PUSH1 0x20 SWAP2 PUSH2 0x4124 DUP2 MLOAD DUP1 SWAP3 DUP2 DUP6 MSTORE DUP6 DUP1 DUP7 ADD SWAP2 ADD PUSH2 0x40E8 JUMP JUMPDEST PUSH1 0x1F ADD PUSH1 0x1F NOT AND ADD ADD SWAP1 JUMP JUMPDEST PUSH1 0x4 CALLDATALOAD SWAP1 PUSH1 0x1 PUSH1 0x1 PUSH1 0xA0 SHL SUB DUP3 AND DUP3 SUB PUSH2 0x28F JUMPI JUMP JUMPDEST PUSH1 0x24 CALLDATALOAD SWAP1 PUSH1 0x1 PUSH1 0x1 PUSH1 0xA0 SHL SUB DUP3 AND DUP3 SUB PUSH2 0x28F JUMPI JUMP JUMPDEST SWAP1 PUSH1 0xE0 PUSH1 0x1 PUSH1 0x1 PUSH1 0xA0 SHL SUB DUP2 PUSH2 0x41CF PUSH2 0x41BD PUSH2 0x41AB PUSH2 0x4199 PUSH2 0x4187 DUP10 MLOAD PUSH2 0x100 DUP1 DUP12 MSTORE DUP11 ADD SWAP1 PUSH2 0x410B JUMP JUMPDEST PUSH1 0x20 DUP11 ADD MLOAD DUP10 DUP3 SUB PUSH1 0x20 DUP12 ADD MSTORE PUSH2 0x410B JUMP JUMPDEST PUSH1 0x40 DUP10 ADD MLOAD DUP9 DUP3 SUB PUSH1 0x40 DUP11 ADD MSTORE PUSH2 0x410B JUMP JUMPDEST PUSH1 0x60 DUP9 ADD MLOAD DUP8 DUP3 SUB PUSH1 0x60 DUP10 ADD MSTORE PUSH2 0x410B JUMP JUMPDEST PUSH1 0x80 DUP8 ADD MLOAD DUP7 DUP3 SUB PUSH1 0x80 DUP9 ADD MSTORE PUSH2 0x410B JUMP JUMPDEST SWAP5 PUSH1 0xA0 DUP2 ADD MLOAD PUSH1 0xA0 DUP7 ADD MSTORE PUSH1 0xC0 DUP2 ADD MLOAD ISZERO ISZERO PUSH1 0xC0 DUP7 ADD MSTORE ADD MLOAD AND SWAP2 ADD MSTORE SWAP1 JUMP JUMPDEST PUSH2 0x100 DUP2 ADD SWAP1 DUP2 LT PUSH8 0xFFFFFFFFFFFFFFFF DUP3 GT OR PUSH2 0xBBB JUMPI PUSH1 0x40 MSTORE JUMP JUMPDEST PUSH2 0x200 DUP2 ADD SWAP1 DUP2 LT PUSH8 0xFFFFFFFFFFFFFFFF DUP3 GT OR PUSH2 0xBBB JUMPI PUSH1 0x40 MSTORE JUMP JUMPDEST PUSH1 0xC0 DUP2 ADD SWAP1 DUP2 LT PUSH8 0xFFFFFFFFFFFFFFFF DUP3 GT OR PUSH2 0xBBB JUMPI PUSH1 0x40 MSTORE JUMP JUMPDEST PUSH1 0x20 DUP2 ADD SWAP1 DUP2 LT PUSH8 0xFFFFFFFFFFFFFFFF DUP3 GT OR PUSH2 0xBBB JUMPI PUSH1 0x40 MSTORE JUMP JUMPDEST SWAP1 PUSH1 0x1F DUP1 NOT SWAP2 ADD AND DUP2 ADD SWAP1 DUP2 LT PUSH8 0xFFFFFFFFFFFFFFFF DUP3 GT OR PUSH2 0xBBB JUMPI PUSH1 0x40 MSTORE JUMP JUMPDEST PUSH8 0xFFFFFFFFFFFFFFFF DUP2 GT PUSH2 0xBBB JUMPI PUSH1 0x1F ADD PUSH1 0x1F NOT AND PUSH1 0x20 ADD SWAP1 JUMP JUMPDEST SWAP3 SWAP2 SWAP3 PUSH2 0x42AB DUP3 PUSH2 0x4283 JUMP JUMPDEST SWAP2 PUSH2 0x42B9 PUSH1 0x40 MLOAD SWAP4 DUP5 PUSH2 0x4261 JUMP JUMPDEST DUP3 SWAP5 DUP2 DUP5 MSTORE DUP2 DUP4 ADD GT PUSH2 0x28F JUMPI DUP3 DUP2 PUSH1 0x20 SWAP4 DUP5 PUSH1 0x0 SWAP7 ADD CALLDATACOPY ADD ADD MSTORE JUMP JUMPDEST SWAP1 DUP1 PUSH1 0x1F DUP4 ADD SLT ISZERO PUSH2 0x28F JUMPI DUP2 PUSH1 0x20 PUSH2 0x42F1 SWAP4 CALLDATALOAD SWAP2 ADD PUSH2 0x429F JUMP JUMPDEST SWAP1 JUMP JUMPDEST SWAP1 PUSH1 0x1 DUP3 DUP2 SHR SWAP3 AND DUP1 ISZERO PUSH2 0x4324 JUMPI JUMPDEST PUSH1 0x20 DUP4 LT EQ PUSH2 0x430E JUMPI JUMP JUMPDEST PUSH4 0x4E487B71 PUSH1 0xE0 SHL PUSH1 0x0 MSTORE PUSH1 0x22 PUSH1 0x4 MSTORE PUSH1 0x24 PUSH1 0x0 REVERT JUMPDEST SWAP2 PUSH1 0x7F AND SWAP2 PUSH2 0x4303 JUMP JUMPDEST SWAP1 PUSH1 0x40 MLOAD SWAP2 DUP3 PUSH1 0x0 DUP3 SLOAD SWAP3 PUSH2 0x4342 DUP5 PUSH2 0x42F4 JUMP JUMPDEST SWAP1 DUP2 DUP5 MSTORE PUSH1 0x1 SWAP5 DUP6 DUP2 AND SWAP1 DUP2 PUSH1 0x0 EQ PUSH2 0x43B1 JUMPI POP PUSH1 0x1 EQ PUSH2 0x436E JUMPI JUMPDEST POP POP PUSH2 0x436C SWAP3 POP SUB DUP4 PUSH2 0x4261 JUMP JUMPDEST JUMP JUMPDEST SWAP1 SWAP4 SWAP2 POP PUSH1 0x0 MSTORE PUSH1 0x20 SWAP1 DUP2 PUSH1 0x0 KECCAK256 SWAP4 PUSH1 0x0 SWAP2 JUMPDEST DUP2 DUP4 LT PUSH2 0x4399 JUMPI POP POP PUSH2 0x436C SWAP4 POP DUP3 ADD ADD CODESIZE DUP1 PUSH2 0x435E JUMP JUMPDEST DUP6 SLOAD DUP9 DUP5 ADD DUP6 ADD MSTORE SWAP5 DUP6 ADD SWAP5 DUP8 SWAP5 POP SWAP2 DUP4 ADD SWAP2 PUSH2 0x4381 JUMP JUMPDEST SWAP2 POP POP PUSH2 0x436C SWAP5 POP PUSH1 0x20 SWAP3 POP PUSH1 0xFF NOT AND DUP3 DUP5 ADD MSTORE ISZERO ISZERO PUSH1 0x5 SHL DUP3 ADD ADD CODESIZE DUP1 PUSH2 0x435E JUMP JUMPDEST PUSH1 0x60 SWAP1 PUSH1 0x3 NOT ADD SLT PUSH2 0x28F JUMPI PUSH1 0x1 PUSH1 0x1 PUSH1 0xA0 SHL SUB SWAP1 PUSH1 0x4 CALLDATALOAD DUP3 DUP2 AND DUP2 SUB PUSH2 0x28F JUMPI SWAP2 PUSH1 0x24 CALLDATALOAD SWAP1 DUP2 AND DUP2 SUB PUSH2 0x28F JUMPI SWAP1 PUSH1 0x44 CALLDATALOAD SWAP1 JUMP JUMPDEST PUSH1 0x20 SWAP1 DUP2 PUSH1 0x40 DUP2 DUP4 ADD SWAP3 DUP3 DUP2 MSTORE DUP6 MLOAD DUP1 SWAP5 MSTORE ADD SWAP4 ADD SWAP2 PUSH1 0x0 JUMPDEST DUP3 DUP2 LT PUSH2 0x4430 JUMPI POP POP POP POP SWAP1 JUMP JUMPDEST DUP4 MLOAD DUP6 MSTORE SWAP4 DUP2 ADD SWAP4 SWAP3 DUP2 ADD SWAP3 PUSH1 0x1 ADD PUSH2 0x4422 JUMP JUMPDEST PUSH8 0xFFFFFFFFFFFFFFFF DUP2 GT PUSH2 0xBBB JUMPI PUSH1 0x5 SHL PUSH1 0x20 ADD SWAP1 JUMP JUMPDEST DUP2 PUSH1 0x1F DUP3 ADD SLT ISZERO PUSH2 0x28F JUMPI DUP1 CALLDATALOAD SWAP1 PUSH2 0x4473 DUP3 PUSH2 0x4444 JUMP JUMPDEST SWAP3 PUSH1 0x40 SWAP3 PUSH2 0x4483 DUP5 MLOAD SWAP6 DUP7 PUSH2 0x4261 JUMP JUMPDEST DUP1 DUP6 MSTORE PUSH1 0x20 SWAP4 DUP5 DUP1 DUP8 ADD SWAP3 PUSH1 0x5 SHL DUP6 ADD ADD SWAP4 DUP4 DUP6 GT PUSH2 0x28F JUMPI DUP6 DUP2 ADD SWAP3 JUMPDEST DUP6 DUP5 LT PUSH2 0x44B2 JUMPI POP POP POP POP POP POP POP SWAP1 JUMP JUMPDEST PUSH8 0xFFFFFFFFFFFFFFFF DUP5 CALLDATALOAD DUP2 DUP2 GT PUSH2 0x28F JUMPI DUP4 ADD SWAP2 PUSH1 0xC0 SWAP3 DUP4 PUSH1 0x1F NOT DUP3 DUP11 SUB ADD SLT PUSH2 0x28F JUMPI DUP6 MLOAD SWAP1 PUSH2 0x44E3 DUP3 PUSH2 0x4229 JUMP JUMPDEST DUP11 DUP2 ADD CALLDATALOAD DUP5 DUP2 GT PUSH2 0x28F JUMPI DUP10 DUP13 PUSH2 0x44FC SWAP3 DUP5 ADD ADD PUSH2 0x42D6 JUMP JUMPDEST DUP3 MSTORE DUP7 DUP2 ADD CALLDATALOAD DUP5 DUP2 GT PUSH2 0x28F JUMPI DUP10 DUP13 PUSH2 0x4517 SWAP3 DUP5 ADD ADD PUSH2 0x42D6 JUMP JUMPDEST DUP12 DUP4 ADD MSTORE PUSH1 0x60 SWAP5 DUP6 DUP3 ADD CALLDATALOAD DUP6 DUP2 GT PUSH2 0x28F JUMPI DUP11 DUP14 PUSH2 0x4537 SWAP3 DUP6 ADD ADD PUSH2 0x42D6 JUMP JUMPDEST DUP9 DUP5 ADD MSTORE PUSH1 0x80 SWAP6 DUP7 DUP4 ADD CALLDATALOAD SWAP1 DUP5 ADD MSTORE PUSH1 0xA0 SWAP2 DUP3 DUP2 ADD CALLDATALOAD SWAP6 DUP7 GT PUSH2 0x28F JUMPI DUP13 SWAP7 PUSH2 0x4565 DUP13 DUP10 DUP1 SWAP10 DUP6 ADD ADD PUSH2 0x42D6 JUMP JUMPDEST SWAP1 DUP6 ADD MSTORE ADD CALLDATALOAD SWAP1 DUP3 ADD MSTORE DUP2 MSTORE ADD SWAP4 ADD SWAP3 PUSH2 0x44A1 JUMP JUMPDEST DUP1 SLOAD DUP3 LT ISZERO PUSH2 0x2C25 JUMPI PUSH1 0x0 MSTORE PUSH1 0x20 PUSH1 0x0 KECCAK256 ADD SWAP1 PUSH1 0x0 SWAP1 JUMP JUMPDEST SWAP1 PUSH2 0x45A6 DUP3 MLOAD PUSH2 0x200 DUP1 DUP5 MSTORE DUP4 ADD SWAP1 PUSH2 0x410B JUMP JUMPDEST PUSH2 0x45BC PUSH1 0x20 SWAP2 DUP3 DUP6 ADD MLOAD DUP5 DUP3 SUB DUP5 DUP7 ADD MSTORE PUSH2 0x410B JUMP JUMPDEST SWAP1 PUSH2 0x45D3 PUSH1 0x40 SWAP3 DUP4 DUP7 ADD MLOAD DUP6 DUP3 SUB DUP6 DUP8 ADD MSTORE PUSH2 0x410B JUMP JUMPDEST PUSH2 0x45E9 PUSH1 0x60 SWAP2 DUP3 DUP8 ADD MLOAD DUP7 DUP3 SUB DUP5 DUP9 ADD MSTORE PUSH2 0x410B JUMP JUMPDEST SWAP2 PUSH2 0x4600 PUSH1 0x80 SWAP4 DUP5 DUP9 ADD MLOAD DUP8 DUP3 SUB DUP7 DUP10 ADD MSTORE PUSH2 0x410B JUMP JUMPDEST SWAP3 PUSH2 0x4617 PUSH1 0xA0 SWAP5 DUP6 DUP10 ADD MLOAD DUP9 DUP3 SUB DUP8 DUP11 ADD MSTORE PUSH2 0x410B JUMP JUMPDEST SWAP1 PUSH2 0x465A PUSH2 0x4646 PUSH2 0x4634 PUSH1 0xC0 SWAP5 DUP6 DUP13 ADD MLOAD DUP12 DUP3 SUB DUP8 DUP14 ADD MSTORE PUSH2 0x410B JUMP JUMPDEST PUSH1 0xE0 DUP12 ADD MLOAD DUP11 DUP3 SUB PUSH1 0xE0 DUP13 ADD MSTORE PUSH2 0x410B JUMP JUMPDEST PUSH2 0x100 DUP1 DUP12 ADD MLOAD SWAP1 DUP11 DUP4 SUB SWAP1 DUP12 ADD MSTORE PUSH2 0x410B JUMP JUMPDEST SWAP2 PUSH2 0x120 SWAP6 DUP7 DUP11 ADD MLOAD SWAP7 DUP10 DUP6 SUB SWAP1 DUP11 ADD MSTORE DUP7 MLOAD SWAP6 DUP7 DUP6 MSTORE DUP6 DUP6 ADD SWAP4 DUP7 DUP1 DUP10 PUSH1 0x5 SHL DUP9 ADD ADD SWAP10 ADD SWAP10 PUSH1 0x0 SWAP7 JUMPDEST DUP10 DUP9 LT PUSH2 0x46F4 JUMPI POP POP POP POP POP POP POP POP POP POP PUSH2 0x46C5 SWAP2 POP PUSH2 0x140 DUP1 DUP6 ADD MLOAD SWAP1 DUP5 ADD MSTORE PUSH2 0x160 DUP1 DUP6 ADD MLOAD SWAP1 DUP5 ADD MSTORE PUSH2 0x180 DUP1 DUP6 ADD MLOAD SWAP1 DUP5 DUP4 SUB SWAP1 DUP6 ADD MSTORE PUSH2 0x410B JUMP JUMPDEST SWAP2 PUSH2 0x1A0 DUP1 DUP3 ADD MLOAD SWAP1 DUP4 ADD MSTORE PUSH2 0x1C0 PUSH1 0x1 PUSH1 0x1 PUSH1 0xA0 SHL SUB DUP2 DUP4 ADD MLOAD AND SWAP1 DUP4 ADD MSTORE PUSH2 0x1E0 DUP1 SWAP2 ADD MLOAD ISZERO ISZERO SWAP2 ADD MSTORE SWAP1 JUMP JUMPDEST SWAP1 SWAP2 SWAP3 SWAP4 SWAP5 SWAP6 SWAP7 SWAP8 SWAP9 SWAP10 DUP10 DUP1 DUP9 PUSH1 0x1 SWAP4 DUP16 DUP11 PUSH2 0x4768 PUSH2 0x4750 DUP16 PUSH2 0x4730 DUP5 SWAP6 PUSH2 0x4740 SWAP3 DUP14 PUSH1 0x1F NOT SWAP1 DUP11 SUB ADD SWAP1 MSTORE MLOAD SWAP8 DUP9 MLOAD SWAP1 DUP1 DUP10 MSTORE DUP9 ADD SWAP1 PUSH2 0x410B JUMP JUMPDEST DUP9 DUP9 ADD MLOAD DUP8 DUP3 SUB DUP11 DUP10 ADD MSTORE PUSH2 0x410B JUMP JUMPDEST DUP12 DUP8 ADD MLOAD DUP7 DUP3 SUB DUP14 DUP9 ADD MSTORE PUSH2 0x410B JUMP JUMPDEST DUP13 DUP7 ADD MLOAD DUP14 DUP7 ADD MSTORE DUP12 DUP7 ADD MLOAD DUP6 DUP3 SUB DUP14 DUP8 ADD MSTORE PUSH2 0x410B JUMP JUMPDEST SWAP4 ADD MLOAD SWAP2 ADD MSTORE SWAP14 ADD SWAP9 ADD SWAP9 ADD SWAP7 SWAP11 SWAP10 SWAP9 SWAP8 SWAP6 SWAP5 SWAP4 SWAP3 SWAP2 SWAP1 PUSH2 0x4685 JUMP JUMPDEST CALLER PUSH1 0x0 SWAP1 DUP2 MSTORE PUSH32 0xA70365933F78520EF41D6645BA61E509916296603327302D41466C063E8E2608 PUSH1 0x20 MSTORE PUSH1 0x40 SWAP1 KECCAK256 SLOAD PUSH32 0xA49807205CE4D355092EF5A8A18F56E8913CF4A201FBE287825B095693C21775 SWAP1 PUSH1 0xFF AND ISZERO PUSH2 0x47E0 JUMPI POP JUMP JUMPDEST PUSH1 0x44 SWAP1 PUSH1 0x40 MLOAD SWAP1 PUSH32 0xE2517D3F00000000000000000000000000000000000000000000000000000000 DUP3 MSTORE CALLER PUSH1 0x4 DUP4 ADD MSTORE PUSH1 0x24 DUP3 ADD MSTORE REVERT JUMPDEST CALLER PUSH1 0x0 SWAP1 DUP2 MSTORE PUSH32 0xA4BFD7AFE708E2E87E7F0E2AD9B4D545417E0F795F57B5C5AB5D799C565A04F4 PUSH1 0x20 MSTORE PUSH1 0x40 SWAP1 KECCAK256 SLOAD PUSH32 0x9F2DF0FED2C77648DE5860A4CC508CD0818C85B8B8A1AB4CEEEF8D981C8956A6 SWAP1 PUSH1 0xFF AND ISZERO PUSH2 0x47E0 JUMPI POP JUMP JUMPDEST DUP1 PUSH1 0x0 MSTORE PUSH1 0x7 PUSH1 0x20 MSTORE PUSH1 0x40 PUSH1 0x0 KECCAK256 CALLER PUSH1 0x0 MSTORE PUSH1 0x20 MSTORE PUSH1 0xFF PUSH1 0x40 PUSH1 0x0 KECCAK256 SLOAD AND ISZERO PUSH2 0x47E0 JUMPI POP JUMP JUMPDEST SWAP1 PUSH1 0x0 SWAP2 DUP1 DUP4 MSTORE PUSH1 0x7 PUSH1 0x20 MSTORE PUSH1 0x1 PUSH1 0x1 PUSH1 0xA0 SHL SUB PUSH1 0x40 DUP5 KECCAK256 SWAP3 AND SWAP2 DUP3 DUP5 MSTORE PUSH1 0x20 MSTORE PUSH1 0xFF PUSH1 0x40 DUP5 KECCAK256 SLOAD AND ISZERO PUSH1 0x0 EQ PUSH2 0x4915 JUMPI DUP1 DUP4 MSTORE PUSH1 0x7 PUSH1 0x20 MSTORE PUSH1 0x40 DUP4 KECCAK256 DUP3 DUP5 MSTORE PUSH1 0x20 MSTORE PUSH1 0x40 DUP4 KECCAK256 PUSH1 0x1 PUSH1 0xFF NOT DUP3 SLOAD AND OR SWAP1 SSTORE PUSH32 0x2F8788117E7EFF1D82E926EC794901D17C78024A50270940304540A733656F0D CALLER SWAP4 DUP1 LOG4 PUSH1 0x1 SWAP1 JUMP JUMPDEST POP POP SWAP1 JUMP JUMPDEST SWAP1 PUSH1 0x0 SWAP2 DUP1 DUP4 MSTORE PUSH1 0x7 PUSH1 0x20 MSTORE PUSH1 0x1 PUSH1 0x1 PUSH1 0xA0 SHL SUB PUSH1 0x40 DUP5 KECCAK256 SWAP3 AND SWAP2 DUP3 DUP5 MSTORE PUSH1 0x20 MSTORE PUSH1 0xFF PUSH1 0x40 DUP5 KECCAK256 SLOAD AND PUSH1 0x0 EQ PUSH2 0x4915 JUMPI DUP1 DUP4 MSTORE PUSH1 0x7 PUSH1 0x20 MSTORE PUSH1 0x40 DUP4 KECCAK256 DUP3 DUP5 MSTORE PUSH1 0x20 MSTORE PUSH1 0x40 DUP4 KECCAK256 PUSH1 0xFF NOT DUP2 SLOAD AND SWAP1 SSTORE PUSH32 0xF6391F5C32D9C69D2A47EA670B442974B53935D1EDC7FD64EB21E047A839171B CALLER SWAP4 DUP1 LOG4 PUSH1 0x1 SWAP1 JUMP JUMPDEST SWAP1 SWAP2 PUSH1 0x1 PUSH1 0x1 PUSH1 0xA0 SHL SUB DUP1 SWAP4 AND SWAP3 DUP4 ISZERO PUSH2 0x4B4F JUMPI PUSH1 0x0 SWAP3 DUP3 DUP5 MSTORE DUP3 PUSH1 0x20 SWAP6 PUSH1 0x2 DUP8 MSTORE PUSH1 0x40 SWAP7 DUP5 DUP9 DUP9 KECCAK256 SLOAD AND SWAP7 DUP8 SWAP2 CALLER ISZERO ISZERO DUP1 PUSH2 0x4AA0 JUMPI JUMPDEST POP SWAP1 PUSH1 0x2 PUSH32 0xDDF252AD1BE2C89B69C2B068FC378DAA952BA7F163C4A11628F55A4DF523B3EF SWAP3 DUP5 PUSH2 0x4A68 JUMPI JUMPDEST DUP6 DUP4 MSTORE PUSH1 0x3 DUP2 MSTORE DUP12 DUP4 KECCAK256 PUSH1 0x1 DUP2 SLOAD ADD SWAP1 SSTORE DUP7 DUP4 MSTORE MSTORE DUP10 DUP2 KECCAK256 DUP5 PUSH1 0x1 PUSH1 0x1 PUSH1 0xA0 SHL SUB NOT DUP3 SLOAD AND OR SWAP1 SSTORE DUP1 LOG4 AND SWAP3 DUP4 DUP4 SUB PUSH2 0x4A2E JUMPI POP POP POP POP JUMP JUMPDEST PUSH1 0x64 SWAP5 POP MLOAD SWAP3 PUSH32 0x64283D7B00000000000000000000000000000000000000000000000000000000 DUP5 MSTORE PUSH1 0x4 DUP5 ADD MSTORE PUSH1 0x24 DUP4 ADD MSTORE PUSH1 0x44 DUP3 ADD MSTORE REVERT JUMPDEST PUSH2 0x4A89 DUP8 PUSH1 0x0 MSTORE PUSH1 0x4 PUSH1 0x20 MSTORE PUSH1 0x40 PUSH1 0x0 KECCAK256 PUSH1 0x1 PUSH1 0x1 PUSH1 0xA0 SHL SUB NOT DUP2 SLOAD AND SWAP1 SSTORE JUMP JUMPDEST DUP5 DUP4 MSTORE PUSH1 0x3 DUP2 MSTORE DUP12 DUP4 KECCAK256 DUP1 SLOAD PUSH1 0x0 NOT ADD SWAP1 SSTORE PUSH2 0x49F5 JUMP JUMPDEST SWAP2 SWAP4 SWAP5 POP SWAP2 POP DUP1 PUSH2 0x4B0E JUMPI JUMPDEST ISZERO PUSH2 0x4ABC JUMPI DUP6 SWAP3 SWAP2 DUP8 SWAP2 CODESIZE PUSH2 0x49C9 JUMP JUMPDEST DUP8 DUP7 DUP9 PUSH2 0x4AD9 JUMPI PUSH1 0x24 SWAP2 MLOAD SWAP1 PUSH4 0x7E273289 PUSH1 0xE0 SHL DUP3 MSTORE PUSH1 0x4 DUP3 ADD MSTORE REVERT JUMPDEST PUSH1 0x44 SWAP2 MLOAD SWAP1 PUSH32 0x177E802F00000000000000000000000000000000000000000000000000000000 DUP3 MSTORE CALLER PUSH1 0x4 DUP4 ADD MSTORE PUSH1 0x24 DUP3 ADD MSTORE REVERT JUMPDEST POP CALLER DUP8 EQ DUP1 ISZERO PUSH2 0x4B33 JUMPI JUMPDEST DUP1 PUSH2 0x4AAC JUMPI POP DUP6 DUP3 MSTORE PUSH1 0x4 DUP2 MSTORE CALLER DUP6 DUP10 DUP5 KECCAK256 SLOAD AND EQ PUSH2 0x4AAC JUMP JUMPDEST POP DUP7 DUP3 MSTORE PUSH1 0x5 DUP2 MSTORE DUP8 DUP3 KECCAK256 CALLER DUP4 MSTORE DUP2 MSTORE PUSH1 0xFF DUP9 DUP4 KECCAK256 SLOAD AND PUSH2 0x4B19 JUMP JUMPDEST PUSH1 0x24 PUSH1 0x40 MLOAD PUSH4 0x32505749 PUSH1 0xE1 SHL DUP2 MSTORE PUSH1 0x0 PUSH1 0x4 DUP3 ADD MSTORE REVERT JUMPDEST DUP1 PUSH1 0x0 MSTORE PUSH1 0x2 PUSH1 0x20 MSTORE PUSH1 0x1 PUSH1 0x1 PUSH1 0xA0 SHL SUB PUSH1 0x40 PUSH1 0x0 KECCAK256 SLOAD AND SWAP1 DUP2 ISZERO PUSH2 0x4B8A JUMPI POP SWAP1 JUMP JUMPDEST PUSH1 0x24 SWAP1 PUSH1 0x40 MLOAD SWAP1 PUSH4 0x7E273289 PUSH1 0xE0 SHL DUP3 MSTORE PUSH1 0x4 DUP3 ADD MSTORE REVERT JUMPDEST DUP2 EXTCODESIZE PUSH2 0x4BAF JUMPI JUMPDEST POP POP POP POP JUMP JUMPDEST PUSH1 0x1 PUSH1 0x1 PUSH1 0xA0 SHL SUB SWAP5 SWAP2 SWAP3 SWAP4 SWAP5 DUP1 SWAP4 AND SWAP4 PUSH1 0x40 MLOAD SWAP4 PUSH4 0xA85BD01 PUSH1 0xE1 SHL SWAP3 DUP4 DUP7 MSTORE CALLER PUSH1 0x4 DUP8 ADD MSTORE AND PUSH1 0x24 DUP6 ADD MSTORE PUSH1 0x44 DUP5 ADD MSTORE PUSH1 0x80 PUSH1 0x64 DUP5 ADD MSTORE DUP3 PUSH2 0x4BF9 PUSH1 0x20 SWAP7 PUSH1 0x84 DUP4 ADD SWAP1 PUSH2 0x410B JUMP JUMPDEST SUB SWAP3 DUP6 DUP2 PUSH1 0x0 SWAP6 DUP2 DUP8 DUP10 GAS CALL DUP5 SWAP2 DUP2 PUSH2 0x4CA3 JUMPI JUMPDEST POP PUSH2 0x4C6C JUMPI POP POP POP RETURNDATASIZE PUSH1 0x0 EQ PUSH2 0x4C64 JUMPI RETURNDATASIZE PUSH2 0x4C27 DUP2 PUSH2 0x4283 JUMP JUMPDEST SWAP1 PUSH2 0x4C35 PUSH1 0x40 MLOAD SWAP3 DUP4 PUSH2 0x4261 JUMP JUMPDEST DUP2 MSTORE DUP1 SWAP2 DUP5 RETURNDATASIZE SWAP3 ADD RETURNDATACOPY JUMPDEST DUP1 MLOAD SWAP3 DUP4 PUSH2 0x4C5F JUMPI PUSH1 0x24 DUP4 PUSH1 0x40 MLOAD SWAP1 PUSH4 0x32505749 PUSH1 0xE1 SHL DUP3 MSTORE PUSH1 0x4 DUP3 ADD MSTORE REVERT JUMPDEST ADD SWAP1 POP REVERT JUMPDEST POP PUSH1 0x60 PUSH2 0x4C3F JUMP JUMPDEST SWAP1 SWAP3 POP PUSH1 0x1 PUSH1 0x1 PUSH1 0xE0 SHL SUB NOT SWAP2 SWAP5 POP AND SUB PUSH2 0x4C8B JUMPI POP CODESIZE DUP1 DUP1 DUP1 PUSH2 0x4BA9 JUMP JUMPDEST PUSH1 0x24 SWAP1 PUSH1 0x40 MLOAD SWAP1 PUSH4 0x32505749 PUSH1 0xE1 SHL DUP3 MSTORE PUSH1 0x4 DUP3 ADD MSTORE REVERT JUMPDEST SWAP1 SWAP2 POP DUP7 DUP2 DUP2 RETURNDATASIZE DUP4 GT PUSH2 0x4CE0 JUMPI JUMPDEST PUSH2 0x4CBB DUP2 DUP4 PUSH2 0x4261 JUMP JUMPDEST DUP2 ADD SUB SLT PUSH2 0x4CDC JUMPI MLOAD PUSH1 0x1 PUSH1 0x1 PUSH1 0xE0 SHL SUB NOT DUP2 AND DUP2 SUB PUSH2 0x4CDC JUMPI SWAP1 CODESIZE PUSH2 0x4C0D JUMP JUMPDEST DUP5 DUP1 REVERT JUMPDEST POP RETURNDATASIZE PUSH2 0x4CB1 JUMP JUMPDEST ISZERO PUSH2 0x4CEE JUMPI JUMP JUMPDEST PUSH1 0x64 PUSH1 0x40 MLOAD PUSH3 0x461BCD PUSH1 0xE5 SHL DUP2 MSTORE PUSH1 0x20 PUSH1 0x4 DUP3 ADD MSTORE PUSH1 0x17 PUSH1 0x24 DUP3 ADD MSTORE PUSH32 0x496E76616C69642073747564656E742061646472657373000000000000000000 PUSH1 0x44 DUP3 ADD MSTORE REVERT JUMPDEST PUSH1 0x0 NOT DUP2 EQ PUSH2 0x4D41 JUMPI PUSH1 0x1 ADD SWAP1 JUMP JUMPDEST PUSH4 0x4E487B71 PUSH1 0xE0 SHL PUSH1 0x0 MSTORE PUSH1 0x11 PUSH1 0x4 MSTORE PUSH1 0x24 PUSH1 0x0 REVERT JUMPDEST DUP1 SLOAD PUSH9 0x10000000000000000 DUP2 LT ISZERO PUSH2 0xBBB JUMPI PUSH2 0x4D79 SWAP2 PUSH1 0x1 DUP3 ADD DUP2 SSTORE PUSH2 0x457A JUMP JUMPDEST DUP2 SWAP3 SWAP2 SLOAD SWAP1 PUSH1 0x3 SHL SWAP2 DUP3 SHL SWAP2 PUSH1 0x0 NOT SWAP1 SHL NOT AND OR SWAP1 SSTORE JUMP JUMPDEST PUSH1 0xA SLOAD PUSH1 0x0 SWAP3 SWAP2 PUSH2 0x4DA1 DUP3 PUSH2 0x42F4 JUMP JUMPDEST SWAP2 PUSH1 0x1 SWAP1 DUP2 DUP2 AND SWAP1 DUP2 ISZERO PUSH2 0x4E0D JUMPI POP PUSH1 0x1 EQ PUSH2 0x4DBC JUMPI POP POP POP JUMP JUMPDEST SWAP1 SWAP2 SWAP3 SWAP4 POP PUSH1 0xA PUSH1 0x0 MSTORE PUSH32 0xC65A7BB8D6351C1CF70C95A316CC6A92839C986682D98BC35F958F4883F9D2A8 SWAP1 PUSH1 0x0 SWAP2 JUMPDEST DUP5 DUP4 LT PUSH2 0x4DFA JUMPI POP POP POP ADD SWAP1 JUMP JUMPDEST DUP2 DUP2 PUSH1 0x20 SWAP3 SLOAD DUP6 DUP8 ADD MSTORE ADD SWAP3 ADD SWAP2 PUSH2 0x4DEC JUMP JUMPDEST PUSH1 0xFF NOT AND DUP4 MSTORE POP POP DUP2 ISZERO ISZERO SWAP1 SWAP2 MUL ADD SWAP2 POP JUMP JUMPDEST PUSH2 0x4E38 SWAP1 PUSH1 0x20 PUSH1 0x40 MLOAD SWAP3 DUP3 DUP5 DUP1 SWAP5 MLOAD SWAP4 DUP5 SWAP3 ADD PUSH2 0x40E8 JUMP JUMPDEST DUP2 ADD SUB SWAP1 KECCAK256 SWAP1 JUMP JUMPDEST PUSH1 0x40 DUP1 MLOAD SWAP3 PUSH2 0x4E4E DUP5 PUSH2 0x4245 JUMP JUMPDEST PUSH1 0x0 SWAP1 DUP2 DUP6 MSTORE PUSH1 0x1 PUSH1 0x1 PUSH1 0xA0 SHL SUB SWAP5 DUP6 DUP6 AND SWAP5 DUP6 ISZERO PUSH2 0x506E JUMPI DUP3 DUP5 MSTORE PUSH1 0x20 SWAP7 PUSH1 0x2 DUP9 MSTORE DUP6 DUP6 KECCAK256 SLOAD AND DUP4 DUP8 DUP3 ISZERO ISZERO SWAP3 DUP4 PUSH2 0x5036 JUMPI JUMPDEST DUP2 DUP9 MSTORE PUSH1 0x3 DUP12 MSTORE DUP9 DUP9 KECCAK256 PUSH1 0x1 DUP2 SLOAD ADD SWAP1 SSTORE DUP3 DUP9 MSTORE PUSH1 0x2 DUP12 MSTORE DUP9 DUP9 KECCAK256 DUP3 PUSH1 0x1 PUSH1 0x1 PUSH1 0xA0 SHL SUB NOT DUP3 SLOAD AND OR SWAP1 SSTORE PUSH32 0xDDF252AD1BE2C89B69C2B068FC378DAA952BA7F163C4A11628F55A4DF523B3EF DUP9 DUP1 LOG4 PUSH2 0x5006 JUMPI EXTCODESIZE PUSH2 0x4EE3 JUMPI JUMPDEST POP POP POP POP POP POP JUMP JUMPDEST DUP6 PUSH2 0x4F21 SWAP2 DUP6 SWAP7 SWAP8 SWAP9 SWAP5 SWAP6 MLOAD DUP1 SWAP4 DUP2 SWAP3 PUSH4 0xA85BD01 PUSH1 0xE1 SHL SWAP7 DUP8 DUP5 MSTORE CALLER PUSH1 0x4 DUP6 ADD MSTORE DUP10 PUSH1 0x24 DUP6 ADD MSTORE PUSH1 0x44 DUP5 ADD MSTORE PUSH1 0x80 PUSH1 0x64 DUP5 ADD MSTORE PUSH1 0x84 DUP4 ADD SWAP1 PUSH2 0x410B JUMP JUMPDEST SUB DUP2 DUP8 DUP11 GAS CALL DUP5 SWAP2 DUP2 PUSH2 0x4FC6 JUMPI JUMPDEST POP PUSH2 0x4F8D JUMPI POP POP POP RETURNDATASIZE PUSH1 0x0 EQ PUSH2 0x4F85 JUMPI RETURNDATASIZE PUSH2 0x4F49 DUP2 PUSH2 0x4283 JUMP JUMPDEST SWAP1 PUSH2 0x4F56 DUP5 MLOAD SWAP3 DUP4 PUSH2 0x4261 JUMP JUMPDEST DUP2 MSTORE DUP1 SWAP2 DUP6 RETURNDATASIZE SWAP3 ADD RETURNDATACOPY JUMPDEST DUP1 MLOAD SWAP4 DUP5 PUSH2 0x4F7F JUMPI PUSH1 0x24 DUP5 DUP5 MLOAD SWAP1 PUSH4 0x32505749 PUSH1 0xE1 SHL DUP3 MSTORE PUSH1 0x4 DUP3 ADD MSTORE REVERT JUMPDEST DUP5 SWAP3 POP ADD REVERT JUMPDEST POP PUSH1 0x60 PUSH2 0x4F60 JUMP JUMPDEST SWAP1 SWAP3 POP PUSH1 0x1 PUSH1 0x1 PUSH1 0xE0 SHL SUB NOT SWAP2 SWAP6 POP AND SUB PUSH2 0x4FAF JUMPI POP POP CODESIZE DUP1 DUP1 DUP1 DUP1 DUP1 PUSH2 0x4EDB JUMP JUMPDEST PUSH1 0x24 SWAP3 POP MLOAD SWAP1 PUSH4 0x32505749 PUSH1 0xE1 SHL DUP3 MSTORE PUSH1 0x4 DUP3 ADD MSTORE REVERT JUMPDEST SWAP1 SWAP2 POP DUP8 DUP2 DUP2 RETURNDATASIZE DUP4 GT PUSH2 0x4FFF JUMPI JUMPDEST PUSH2 0x4FDE DUP2 DUP4 PUSH2 0x4261 JUMP JUMPDEST DUP2 ADD SUB SLT PUSH2 0x4CDC JUMPI MLOAD PUSH1 0x1 PUSH1 0x1 PUSH1 0xE0 SHL SUB NOT DUP2 AND DUP2 SUB PUSH2 0x4CDC JUMPI SWAP1 CODESIZE PUSH2 0x4F2F JUMP JUMPDEST POP RETURNDATASIZE PUSH2 0x4FD4 JUMP JUMPDEST PUSH1 0x24 DUP5 DUP7 MLOAD SWAP1 PUSH32 0x73C6AC6E00000000000000000000000000000000000000000000000000000000 DUP3 MSTORE PUSH1 0x4 DUP3 ADD MSTORE REVERT JUMPDEST PUSH2 0x5057 DUP4 PUSH1 0x0 MSTORE PUSH1 0x4 PUSH1 0x20 MSTORE PUSH1 0x40 PUSH1 0x0 KECCAK256 PUSH1 0x1 PUSH1 0x1 PUSH1 0xA0 SHL SUB NOT DUP2 SLOAD AND SWAP1 SSTORE JUMP JUMPDEST DUP1 DUP9 MSTORE PUSH1 0x3 DUP12 MSTORE DUP9 DUP9 KECCAK256 DUP1 SLOAD PUSH1 0x0 NOT ADD SWAP1 SSTORE PUSH2 0x4E82 JUMP JUMPDEST PUSH1 0x24 DUP5 DUP7 MLOAD SWAP1 PUSH4 0x32505749 PUSH1 0xE1 SHL DUP3 MSTORE PUSH1 0x4 DUP3 ADD MSTORE REVERT JUMPDEST SWAP2 SWAP1 SWAP2 PUSH1 0x0 SWAP1 DUP1 DUP3 MSTORE PUSH1 0x20 SWAP2 PUSH1 0x6 DUP4 MSTORE PUSH1 0x40 DUP2 KECCAK256 SWAP1 DUP6 MLOAD SWAP1 PUSH8 0xFFFFFFFFFFFFFFFF DUP3 GT PUSH2 0x51E7 JUMPI PUSH2 0x50B6 DUP4 SLOAD PUSH2 0x42F4 JUMP JUMPDEST PUSH1 0x1F DUP2 GT PUSH2 0x51A4 JUMPI JUMPDEST POP DUP5 SWAP1 PUSH1 0x1F DUP4 GT PUSH1 0x1 EQ PUSH2 0x5120 JUMPI SWAP1 PUSH32 0xF8E1A15ABA9398E019F0B49DF1A4FDE98EE17AE345CB5F6B5E2C27F5033E8CE7 SWAP7 SWAP8 DUP4 PUSH2 0x5115 JUMPI JUMPDEST POP POP DUP2 PUSH1 0x1 SHL SWAP2 PUSH1 0x0 NOT SWAP1 PUSH1 0x3 SHL SHR NOT AND OR SWAP1 SSTORE JUMPDEST PUSH1 0x40 MLOAD SWAP1 DUP2 MSTORE LOG1 JUMP JUMPDEST ADD MLOAD SWAP1 POP CODESIZE DUP1 PUSH2 0x50F7 JUMP JUMPDEST SWAP2 SWAP7 PUSH1 0x1F NOT DUP9 AND DUP5 DUP5 MSTORE DUP7 DUP5 KECCAK256 SWAP4 JUMPDEST DUP2 DUP2 LT PUSH2 0x518D JUMPI POP SWAP2 PUSH1 0x1 SWAP4 SWAP2 DUP10 PUSH32 0xF8E1A15ABA9398E019F0B49DF1A4FDE98EE17AE345CB5F6B5E2C27F5033E8CE7 SWAP10 SWAP11 SWAP5 LT PUSH2 0x5174 JUMPI JUMPDEST POP POP POP DUP2 SHL ADD SWAP1 SSTORE PUSH2 0x510C JUMP JUMPDEST ADD MLOAD PUSH1 0x0 NOT PUSH1 0xF8 DUP5 PUSH1 0x3 SHL AND SHR NOT AND SWAP1 SSTORE CODESIZE DUP1 DUP1 PUSH2 0x5167 JUMP JUMPDEST SWAP3 SWAP4 DUP8 PUSH1 0x1 DUP2 SWAP3 DUP8 DUP7 ADD MLOAD DUP2 SSTORE ADD SWAP6 ADD SWAP4 ADD PUSH2 0x512F JUMP JUMPDEST DUP4 DUP3 MSTORE DUP6 DUP3 KECCAK256 PUSH1 0x1F DUP5 ADD PUSH1 0x5 SHR DUP2 ADD SWAP2 DUP8 DUP6 LT PUSH2 0x51DD JUMPI JUMPDEST PUSH1 0x1F ADD PUSH1 0x5 SHR ADD SWAP1 JUMPDEST DUP2 DUP2 LT PUSH2 0x51D2 JUMPI POP PUSH2 0x50BF JUMP JUMPDEST DUP3 DUP2 SSTORE PUSH1 0x1 ADD PUSH2 0x51C5 JUMP JUMPDEST SWAP1 SWAP2 POP DUP2 SWAP1 PUSH2 0x51BC JUMP JUMPDEST DUP1 PUSH4 0x4E487B71 PUSH1 0xE0 SHL PUSH1 0x24 SWAP3 MSTORE PUSH1 0x41 PUSH1 0x4 MSTORE REVERT JUMPDEST PUSH1 0xFF PUSH1 0x8 SLOAD AND PUSH2 0x5207 JUMPI JUMP JUMPDEST PUSH1 0x4 PUSH1 0x40 MLOAD PUSH32 0xD93C066500000000000000000000000000000000000000000000000000000000 DUP2 MSTORE REVERT JUMPDEST DUP1 PUSH1 0x0 SWAP2 PUSH27 0x184F03E93FF9F4DAA797ED6E38ED64BF6A1F010000000000000000 DUP1 DUP3 LT ISZERO PUSH2 0x5398 JUMPI JUMPDEST POP PUSH14 0x4EE2D6D415B85ACEF8100000000 DUP1 DUP4 LT ISZERO PUSH2 0x5389 JUMPI JUMPDEST POP PUSH7 0x2386F26FC10000 DUP1 DUP4 LT ISZERO PUSH2 0x537A JUMPI JUMPDEST POP PUSH4 0x5F5E100 DUP1 DUP4 LT ISZERO PUSH2 0x536B JUMPI JUMPDEST POP PUSH2 0x2710 DUP1 DUP4 LT ISZERO PUSH2 0x535C JUMPI JUMPDEST POP PUSH1 0x64 DUP3 LT ISZERO PUSH2 0x534C JUMPI JUMPDEST PUSH1 0xA DUP1 SWAP3 LT ISZERO PUSH2 0x5342 JUMPI JUMPDEST PUSH1 0x1 SWAP1 DUP2 PUSH1 0x21 DUP2 DUP7 ADD SWAP6 PUSH2 0x52CA DUP8 PUSH2 0x4283 JUMP JUMPDEST SWAP7 PUSH2 0x52D8 PUSH1 0x40 MLOAD SWAP9 DUP10 PUSH2 0x4261 JUMP JUMPDEST DUP1 DUP9 MSTORE PUSH2 0x52E7 PUSH1 0x1F NOT SWAP2 PUSH2 0x4283 JUMP JUMPDEST ADD CALLDATASIZE PUSH1 0x20 DUP10 ADD CALLDATACOPY DUP7 ADD ADD SWAP1 JUMPDEST PUSH2 0x52FF JUMPI JUMPDEST POP POP POP POP SWAP1 JUMP JUMPDEST PUSH1 0x0 NOT ADD SWAP1 DUP4 SWAP1 PUSH32 0x3031323334353637383961626364656600000000000000000000000000000000 DUP3 DUP3 MOD BYTE DUP4 MSTORE8 DIV SWAP2 DUP3 ISZERO PUSH2 0x533D JUMPI SWAP2 SWAP1 DUP3 PUSH2 0x52F3 JUMP JUMPDEST PUSH2 0x52F8 JUMP JUMPDEST SWAP2 PUSH1 0x1 ADD SWAP2 PUSH2 0x52B7 JUMP JUMPDEST SWAP2 SWAP1 PUSH1 0x64 PUSH1 0x2 SWAP2 DIV SWAP2 ADD SWAP2 PUSH2 0x52AC JUMP JUMPDEST PUSH1 0x4 SWAP2 SWAP4 SWAP3 DIV SWAP2 ADD SWAP2 CODESIZE PUSH2 0x52A1 JUMP JUMPDEST PUSH1 0x8 SWAP2 SWAP4 SWAP3 DIV SWAP2 ADD SWAP2 CODESIZE PUSH2 0x5294 JUMP JUMPDEST PUSH1 0x10 SWAP2 SWAP4 SWAP3 DIV SWAP2 ADD SWAP2 CODESIZE PUSH2 0x5285 JUMP JUMPDEST PUSH1 0x20 SWAP2 SWAP4 SWAP3 DIV SWAP2 ADD SWAP2 CODESIZE PUSH2 0x5273 JUMP JUMPDEST PUSH1 0x40 SWAP4 POP DUP2 DIV SWAP2 POP CODESIZE PUSH2 0x525A JUMP JUMPDEST ISZERO PUSH2 0x53AD JUMPI JUMP JUMPDEST PUSH1 0x64 PUSH1 0x40 MLOAD PUSH3 0x461BCD PUSH1 0xE5 SHL DUP2 MSTORE PUSH1 0x20 PUSH1 0x4 DUP3 ADD MSTORE PUSH1 0x1A PUSH1 0x24 DUP3 ADD MSTORE PUSH32 0x436572746966696361746520646F6573206E6F74206578697374000000000000 PUSH1 0x44 DUP3 ADD MSTORE REVERT JUMPDEST ISZERO PUSH2 0x53F8 JUMPI JUMP JUMPDEST PUSH1 0x64 PUSH1 0x40 MLOAD PUSH3 0x461BCD PUSH1 0xE5 SHL DUP2 MSTORE PUSH1 0x20 PUSH1 0x4 DUP3 ADD MSTORE PUSH1 0x1B PUSH1 0x24 DUP3 ADD MSTORE PUSH32 0x436572746966696361746520616C7265616479207265766F6B65640000000000 PUSH1 0x44 DUP3 ADD MSTORE REVERT JUMPDEST PUSH1 0x40 MLOAD SWAP1 PUSH2 0x5449 DUP3 PUSH2 0x41EF JUMP JUMPDEST PUSH1 0x0 PUSH1 0xE0 DUP4 PUSH1 0x60 DUP1 DUP3 MSTORE DUP1 PUSH1 0x20 DUP4 ADD MSTORE DUP1 PUSH1 0x40 DUP4 ADD MSTORE DUP1 DUP1 DUP4 ADD MSTORE PUSH1 0x80 DUP3 ADD MSTORE DUP3 PUSH1 0xA0 DUP3 ADD MSTORE DUP3 PUSH1 0xC0 DUP3 ADD MSTORE ADD MSTORE JUMP JUMPDEST PUSH2 0x5481 PUSH2 0x543C JUMP JUMPDEST SWAP1 PUSH1 0x0 MSTORE PUSH1 0x2 PUSH1 0x20 MSTORE PUSH1 0x1 PUSH1 0x1 PUSH1 0xA0 SHL SUB SWAP1 DUP2 PUSH1 0x40 PUSH1 0x0 KECCAK256 SLOAD AND ISZERO PUSH2 0x5539 JUMPI POP PUSH1 0xB PUSH1 0x20 MSTORE PUSH1 0x40 PUSH1 0x0 KECCAK256 PUSH1 0x6 PUSH1 0x40 MLOAD SWAP2 PUSH2 0x54BA DUP4 PUSH2 0x41EF JUMP JUMPDEST PUSH2 0x54C3 DUP2 PUSH2 0x432E JUMP JUMPDEST DUP4 MSTORE PUSH2 0x54D1 PUSH1 0x1 DUP3 ADD PUSH2 0x432E JUMP JUMPDEST PUSH1 0x20 DUP5 ADD MSTORE PUSH2 0x54E2 PUSH1 0x2 DUP3 ADD PUSH2 0x432E JUMP JUMPDEST PUSH1 0x40 DUP5 ADD MSTORE PUSH2 0x54F3 PUSH1 0x3 DUP3 ADD PUSH2 0x432E JUMP JUMPDEST PUSH1 0x60 DUP5 ADD MSTORE PUSH2 0x5504 PUSH1 0x4 DUP3 ADD PUSH2 0x432E JUMP JUMPDEST PUSH1 0x80 DUP5 ADD MSTORE PUSH1 0x5 DUP2 ADD SLOAD PUSH1 0xA0 DUP5 ADD MSTORE ADD SLOAD SWAP2 PUSH1 0xFF DUP4 AND ISZERO ISZERO SWAP3 DUP4 PUSH1 0xC0 DUP5 ADD MSTORE PUSH1 0x8 SHR AND PUSH1 0xE0 DUP3 ADD MSTORE DUP1 SWAP2 PUSH2 0x5539 JUMPI POP SWAP1 PUSH1 0x1 SWAP1 JUMP JUMPDEST SWAP2 PUSH1 0x0 SWAP2 POP JUMP JUMPDEST ISZERO PUSH2 0x5547 JUMPI JUMP JUMPDEST PUSH1 0x64 PUSH1 0x40 MLOAD PUSH3 0x461BCD PUSH1 0xE5 SHL DUP2 MSTORE PUSH1 0x20 PUSH1 0x4 DUP3 ADD MSTORE PUSH1 0x14 PUSH1 0x24 DUP3 ADD MSTORE PUSH32 0x546F6B656E20646F6573206E6F74206578697374000000000000000000000000 PUSH1 0x44 DUP3 ADD MSTORE REVERT JUMPDEST DUP1 MLOAD DUP3 LT ISZERO PUSH2 0x2C25 JUMPI PUSH1 0x20 SWAP2 PUSH1 0x5 SHL ADD ADD SWAP1 JUMP JUMPDEST SWAP2 SWAP1 DUP3 ADD DUP1 SWAP3 GT PUSH2 0x4D41 JUMPI JUMP JUMPDEST SWAP1 DUP2 MLOAD ISZERO PUSH2 0x56CA JUMPI PUSH1 0x0 SWAP2 DUP3 DUP4 JUMPDEST DUP3 MLOAD DUP2 LT ISZERO PUSH2 0x56B4 JUMPI PUSH1 0x80 PUSH2 0x55CF DUP3 DUP6 PUSH2 0x558B JUMP JUMPDEST MLOAD ADD MLOAD DUP1 MLOAD PUSH1 0x20 DUP1 SWAP3 ADD KECCAK256 PUSH1 0x40 DUP1 MLOAD SWAP3 DUP2 DUP5 ADD SWAP4 DUP1 DUP6 LT PUSH8 0xFFFFFFFFFFFFFFFF DUP7 GT OR PUSH2 0xBBB JUMPI PUSH32 0x7B2AB94BB7D45041581AA3757AE020084674CCAD6F75DC3750EB2EA8A92C4E9A SWAP5 PUSH32 0x5000000000000000000000000000000000000000000000000000000000000000 SWAP4 MSTORE PUSH1 0x1 DUP2 MSTORE ADD MSTORE EQ PUSH2 0x5655 JUMPI JUMPDEST PUSH2 0x5650 SWAP1 PUSH2 0x4D32 JUMP JUMPDEST PUSH2 0x55BA JUMP JUMPDEST SWAP1 SWAP4 PUSH1 0x60 PUSH2 0x5663 DUP4 DUP6 PUSH2 0x558B JUMP JUMPDEST MLOAD ADD MLOAD PUSH1 0xA0 SWAP6 DUP7 PUSH2 0x5674 DUP6 DUP8 PUSH2 0x558B JUMP JUMPDEST MLOAD ADD MLOAD SWAP2 DUP3 DUP2 MUL SWAP3 DUP2 DUP5 DIV EQ SWAP1 ISZERO OR ISZERO PUSH2 0x4D41 JUMPI PUSH2 0x5698 PUSH2 0x56AC SWAP3 PUSH2 0x5650 SWAP5 PUSH2 0x559F JUMP JUMPDEST SWAP7 PUSH2 0x56A3 DUP6 DUP8 PUSH2 0x558B JUMP JUMPDEST MLOAD ADD MLOAD SWAP1 PUSH2 0x559F JUMP JUMPDEST SWAP2 SWAP1 POP PUSH2 0x5647 JUMP JUMPDEST POP SWAP2 SWAP3 SWAP1 POP DUP2 ISZERO PUSH2 0x56C3 JUMPI DIV SWAP1 JUMP JUMPDEST POP POP PUSH1 0x0 SWAP1 JUMP JUMPDEST PUSH1 0x0 SWAP2 POP JUMP JUMPDEST PUSH1 0x40 MLOAD SWAP1 PUSH2 0x56DD DUP3 PUSH2 0x420C JUMP JUMPDEST PUSH1 0x0 PUSH2 0x1E0 DUP4 PUSH1 0x60 DUP1 DUP3 MSTORE DUP1 PUSH1 0x20 DUP4 ADD MSTORE DUP1 PUSH1 0x40 DUP4 ADD MSTORE DUP1 DUP1 DUP4 ADD MSTORE DUP1 PUSH1 0x80 DUP4 ADD MSTORE DUP1 PUSH1 0xA0 DUP4 ADD MSTORE DUP1 PUSH1 0xC0 DUP4 ADD MSTORE DUP1 PUSH1 0xE0 DUP4 ADD MSTORE DUP1 PUSH2 0x100 DUP4 ADD MSTORE DUP1 PUSH2 0x120 DUP4 ADD MSTORE DUP4 PUSH2 0x140 DUP4 ADD MSTORE DUP4 PUSH2 0x160 DUP4 ADD MSTORE PUSH2 0x180 DUP3 ADD MSTORE DUP3 PUSH2 0x1A0 DUP3 ADD MSTORE DUP3 PUSH2 0x1C0 DUP3 ADD MSTORE ADD MSTORE JUMP JUMPDEST PUSH2 0x574D PUSH2 0x56D0 JUMP JUMPDEST SWAP1 PUSH1 0x0 MSTORE PUSH1 0x2 PUSH1 0x20 MSTORE PUSH1 0x1 PUSH1 0x1 PUSH1 0xA0 SHL SUB PUSH1 0x40 PUSH1 0x0 KECCAK256 SLOAD AND ISZERO PUSH2 0x592F JUMPI POP PUSH1 0x10 PUSH1 0x20 MSTORE PUSH1 0x40 PUSH1 0x0 KECCAK256 PUSH1 0x40 MLOAD SWAP1 PUSH2 0x5782 DUP3 PUSH2 0x420C JUMP JUMPDEST PUSH2 0x578B DUP2 PUSH2 0x432E JUMP JUMPDEST DUP3 MSTORE PUSH2 0x5799 PUSH1 0x1 DUP3 ADD PUSH2 0x432E JUMP JUMPDEST PUSH1 0x20 DUP4 ADD MSTORE PUSH2 0x57AA PUSH1 0x2 DUP3 ADD PUSH2 0x432E JUMP JUMPDEST PUSH1 0x40 DUP4 ADD MSTORE PUSH2 0x57BB PUSH1 0x3 DUP3 ADD PUSH2 0x432E JUMP JUMPDEST PUSH1 0x60 DUP4 ADD MSTORE PUSH2 0x57CC PUSH1 0x4 DUP3 ADD PUSH2 0x432E JUMP JUMPDEST PUSH1 0x80 DUP4 ADD MSTORE PUSH2 0x57DD PUSH1 0x5 DUP3 ADD PUSH2 0x432E JUMP JUMPDEST PUSH1 0xA0 DUP4 ADD MSTORE PUSH2 0x57EE PUSH1 0x6 DUP3 ADD PUSH2 0x432E JUMP JUMPDEST PUSH1 0xC0 DUP4 ADD MSTORE PUSH2 0x57FF PUSH1 0x7 DUP3 ADD PUSH2 0x432E JUMP JUMPDEST PUSH1 0xE0 DUP4 ADD MSTORE PUSH2 0x5810 PUSH1 0x8 DUP3 ADD PUSH2 0x432E JUMP JUMPDEST PUSH2 0x100 DUP4 ADD MSTORE PUSH1 0x9 DUP2 ADD DUP1 SLOAD PUSH2 0x5825 DUP2 PUSH2 0x4444 JUMP JUMPDEST SWAP2 PUSH2 0x5833 PUSH1 0x40 MLOAD SWAP4 DUP5 PUSH2 0x4261 JUMP JUMPDEST DUP2 DUP4 MSTORE PUSH1 0x20 DUP4 ADD SWAP1 PUSH1 0x0 MSTORE PUSH1 0x20 PUSH1 0x0 KECCAK256 PUSH1 0x0 SWAP2 JUMPDEST DUP4 DUP4 LT PUSH2 0x58BE JUMPI POP POP POP POP PUSH1 0xFF SWAP2 PUSH1 0xE SWAP2 PUSH2 0x120 DUP6 ADD MSTORE PUSH1 0xA DUP2 ADD SLOAD PUSH2 0x140 DUP6 ADD MSTORE PUSH1 0xB DUP2 ADD SLOAD PUSH2 0x160 DUP6 ADD MSTORE PUSH2 0x5880 PUSH1 0xC DUP3 ADD PUSH2 0x432E JUMP JUMPDEST PUSH2 0x180 DUP6 ADD MSTORE PUSH1 0xD DUP2 ADD SLOAD PUSH2 0x1A0 DUP6 ADD MSTORE ADD SLOAD PUSH1 0x1 PUSH1 0x1 PUSH1 0xA0 SHL SUB DUP2 AND PUSH2 0x1C0 DUP5 ADD MSTORE PUSH1 0xA0 SHR AND ISZERO ISZERO SWAP1 DUP2 PUSH2 0x1E0 DUP3 ADD MSTORE DUP1 SWAP2 PUSH2 0x5539 JUMPI POP SWAP1 PUSH1 0x1 SWAP1 JUMP JUMPDEST PUSH1 0x6 PUSH1 0x20 PUSH1 0x1 SWAP3 PUSH1 0x40 MLOAD PUSH2 0x58D1 DUP2 PUSH2 0x4229 JUMP JUMPDEST PUSH2 0x58DA DUP7 PUSH2 0x432E JUMP JUMPDEST DUP2 MSTORE PUSH2 0x58E7 DUP6 DUP8 ADD PUSH2 0x432E JUMP JUMPDEST DUP4 DUP3 ADD MSTORE PUSH2 0x58F7 PUSH1 0x2 DUP8 ADD PUSH2 0x432E JUMP JUMPDEST PUSH1 0x40 DUP3 ADD MSTORE PUSH1 0x3 DUP7 ADD SLOAD PUSH1 0x60 DUP3 ADD MSTORE PUSH2 0x5912 PUSH1 0x4 DUP8 ADD PUSH2 0x432E JUMP JUMPDEST PUSH1 0x80 DUP3 ADD MSTORE PUSH1 0x5 DUP7 ADD SLOAD PUSH1 0xA0 DUP3 ADD MSTORE DUP2 MSTORE ADD SWAP3 ADD SWAP3 ADD SWAP2 SWAP1 PUSH2 0x5847 JUMP JUMPDEST SWAP1 PUSH1 0x0 SWAP1 JUMP INVALID LOG2 PUSH5 0x6970667358 0x22 SLT KECCAK256 0xE2 BASEFEE PUSH28 0xE1CDB660D768E7E6E7DD5D1603B20869F9538CB02B5E95C555DB4DD9 0x4C PUSH5 0x736F6C6343 STOP ADDMOD EQ STOP CALLER 0x2F DUP8 DUP9 GT PUSH31 0x7EFF1D82E926EC794901D17C78024A50270940304540A733656F0D00000000 "},"methodIdentifiers":{"ADMIN_ROLE()":"75b238fc","DEFAULT_ADMIN_ROLE()":"a217fddf","MINTER_ROLE()":"d5391393","approve(address,uint256)":"095ea7b3","balanceOf(address)":"70a08231","calculateSGPA((string,string,string,uint256,string,uint256)[])":"a6f569fc","certificates(uint256)":"663b3e22","cidToTokenId(string)":"c2e67339","getApproved(uint256)":"081812fc","getCIDByTokenId(uint256)":"ba4ba549","getCertificateData(uint256)":"31494bbb","getRoleAdmin(bytes32)":"248a9ca3","getSemesterCertificate(uint256)":"f31a9d17","getStudentCertificates(address)":"ebc63bc0","getStudentSemesterCertificates(address)":"3b01aa48","getTokenIdByCID(string)":"682c9a59","grantRole(bytes32,address)":"2f2ff15d","hasRole(bytes32,address)":"91d14854","isApprovedForAll(address,address)":"e985e9c5","isMemoNumberUsed(string)":"2b0ec45e","isSerialNumberUsed(string)":"de7c3a39","mintCertificate(address,string,string,string)":"929c01fd","mintSemesterCertificate(address,string,string,(string,string,string,string,string,string,string,string,string,(string,string,string,uint256,string,uint256)[],uint256,uint256,string,uint256,address,bool))":"4055e0e1","name()":"06fdde03","ownerOf(uint256)":"6352211e","pause()":"8456cb59","paused()":"5c975abb","renounceRole(bytes32,address)":"36568abe","revokeCertificate(uint256)":"06f5497e","revokeRole(bytes32,address)":"d547741f","revokeSemesterCertificate(uint256)":"2b62a74c","safeTransferFrom(address,address,uint256)":"42842e0e","safeTransferFrom(address,address,uint256,bytes)":"b88d4fde","semesterCertificates(uint256)":"5153a7d2","setApprovalForAll(address,bool)":"a22cb465","setBaseURI(string)":"55f804b3","studentCertificates(address,uint256)":"c3934f0e","studentSemesterCerts(address,uint256)":"b8dcf6c8","supportsInterface(bytes4)":"01ffc9a7","symbol()":"95d89b41","tokenIdToCID(uint256)":"22f79faf","tokenURI(uint256)":"c87b56dd","transferFrom(address,address,uint256)":"23b872dd","unpause()":"3f4ba83a","updateCertificateDetails(uint256,string,string)":"9d093afa","updateSemesterCertificatePhoto(uint256,string)":"20d993b7","usedHashes(string)":"bd1f5f31","usedMemoNumbers(string)":"234f8d67","usedSerialNumbers(string)":"1f7ca144","verifyCertificate(uint256)":"1692a942","verifySemesterCertificate(uint256)":"fe8aa2c5"}}}}}