{"contracts/CertificateNFT.sol":{"CertificateNFT":{"abi":[{"inputs":[],"stateMutability":"nonpayable","type":"constructor"},{"inputs":[],"name":"AccessControlBadConfirmation","type":"error"},{"inputs":[{"internalType":"address","name":"account","type":"address"},{"internalType":"bytes32","name":"neededRole","type":"bytes32"}],"name":"AccessControlUnauthorizedAccount","type":"error"},{"inputs":[{"internalType":"address","name":"sender","type":"address"},{"internalType":"uint256","name":"tokenId","type":"uint256"},{"internalType":"address","name":"owner","type":"address"}],"name":"ERC721IncorrectOwner","type":"error"},{"inputs":[{"internalType":"address","name":"operator","type":"address"},{"internalType":"uint256","name":"tokenId","type":"uint256"}],"name":"ERC721InsufficientApproval","type":"error"},{"inputs":[{"internalType":"address","name":"approver","type":"address"}],"name":"ERC721InvalidApprover","type":"error"},{"inputs":[{"internalType":"address","name":"operator","type":"address"}],"name":"ERC721InvalidOperator","type":"error"},{"inputs":[{"internalType":"address","name":"owner","type":"address"}],"name":"ERC721InvalidOwner","type":"error"},{"inputs":[{"internalType":"address","name":"receiver","type":"address"}],"name":"ERC721InvalidReceiver","type":"error"},{"inputs":[{"internalType":"address","name":"sender","type":"address"}],"name":"ERC721InvalidSender","type":"error"},{"inputs":[{"internalType":"uint256","name":"tokenId","type":"uint256"}],"name":"ERC721NonexistentToken","type":"error"},{"inputs":[],"name":"EnforcedPause","type":"error"},{"inputs":[],"name":"ExpectedPause","type":"error"},{"anonymous":false,"inputs":[{"indexed":true,"internalType":"address","name":"owner","type":"address"},{"indexed":true,"internalType":"address","name":"approved","type":"address"},{"indexed":true,"internalType":"uint256","name":"tokenId","type":"uint256"}],"name":"Approval","type":"event"},{"anonymous":false,"inputs":[{"indexed":true,"internalType":"address","name":"owner","type":"address"},{"indexed":true,"internalType":"address","name":"operator","type":"address"},{"indexed":false,"internalType":"bool","name":"approved","type":"bool"}],"name":"ApprovalForAll","type":"event"},{"anonymous":false,"inputs":[{"indexed":false,"internalType":"uint256","name":"_fromTokenId","type":"uint256"},{"indexed":false,"internalType":"uint256","name":"_toTokenId","type":"uint256"}],"name":"BatchMetadataUpdate","type":"event"},{"anonymous":false,"inputs":[{"indexed":true,"internalType":"uint256","name":"tokenId","type":"uint256"},{"indexed":true,"internalType":"address","name":"student","type":"address"},{"indexed":true,"internalType":"string","name":"courseName","type":"string"},{"indexed":false,"internalType":"string","name":"studentName","type":"string"},{"indexed":false,"internalType":"string","name":"grade","type":"string"},{"indexed":false,"internalType":"string","name":"ipfsHash","type":"string"},{"indexed":false,"internalType":"uint256","name":"timestamp","type":"uint256"}],"name":"CertificateIssued","type":"event"},{"anonymous":false,"inputs":[{"indexed":true,"internalType":"uint256","name":"tokenId","type":"uint256"},{"indexed":true,"internalType":"address","name":"student","type":"address"},{"indexed":true,"internalType":"address","name":"admin","type":"address"}],"name":"CertificateRevoked","type":"event"},{"anonymous":false,"inputs":[{"indexed":true,"internalType":"uint256","name":"tokenId","type":"uint256"},{"indexed":false,"internalType":"bool","name":"isValid","type":"bool"}],"name":"CertificateVerified","type":"event"},{"anonymous":false,"inputs":[{"indexed":false,"internalType":"uint256","name":"_tokenId","type":"uint256"}],"name":"MetadataUpdate","type":"event"},{"anonymous":false,"inputs":[{"indexed":false,"internalType":"address","name":"account","type":"address"}],"name":"Paused","type":"event"},{"anonymous":false,"inputs":[{"indexed":true,"internalType":"bytes32","name":"role","type":"bytes32"},{"indexed":true,"internalType":"bytes32","name":"previousAdminRole","type":"bytes32"},{"indexed":true,"internalType":"bytes32","name":"newAdminRole","type":"bytes32"}],"name":"RoleAdminChanged","type":"event"},{"anonymous":false,"inputs":[{"indexed":true,"internalType":"bytes32","name":"role","type":"bytes32"},{"indexed":true,"internalType":"address","name":"account","type":"address"},{"indexed":true,"internalType":"address","name":"sender","type":"address"}],"name":"RoleGranted","type":"event"},{"anonymous":false,"inputs":[{"indexed":true,"internalType":"bytes32","name":"role","type":"bytes32"},{"indexed":true,"internalType":"address","name":"account","type":"address"},{"indexed":true,"internalType":"address","name":"sender","type":"address"}],"name":"RoleRevoked","type":"event"},{"anonymous":false,"inputs":[{"indexed":true,"internalType":"uint256","name":"tokenId","type":"uint256"},{"indexed":true,"internalType":"address","name":"student","type":"address"},{"indexed":true,"internalType":"string","name":"serialNo","type":"string"},{"indexed":false,"internalType":"string","name":"memoNo","type":"string"},{"indexed":false,"internalType":"string","name":"regdNo","type":"string"},{"indexed":false,"internalType":"string","name":"branch","type":"string"},{"indexed":false,"internalType":"string","name":"examination","type":"string"},{"indexed":false,"internalType":"uint256","name":"sgpa","type":"uint256"},{"indexed":false,"internalType":"uint256","name":"timestamp","type":"uint256"}],"name":"SemesterCertificateIssued","type":"event"},{"anonymous":false,"inputs":[{"indexed":true,"internalType":"uint256","name":"tokenId","type":"uint256"},{"indexed":true,"internalType":"address","name":"student","type":"address"},{"indexed":true,"internalType":"address","name":"admin","type":"address"}],"name":"SemesterCertificateRevoked","type":"event"},{"anonymous":false,"inputs":[{"indexed":true,"internalType":"address","name":"from","type":"address"},{"indexed":true,"internalType":"address","name":"to","type":"address"},{"indexed":true,"internalType":"uint256","name":"tokenId","type":"uint256"}],"name":"Transfer","type":"event"},{"anonymous":false,"inputs":[{"indexed":false,"internalType":"address","name":"account","type":"address"}],"name":"Unpaused","type":"event"},{"inputs":[],"name":"ADMIN_ROLE","outputs":[{"internalType":"bytes32","name":"","type":"bytes32"}],"stateMutability":"view","type":"function"},{"inputs":[],"name":"DEFAULT_ADMIN_ROLE","outputs":[{"internalType":"bytes32","name":"","type":"bytes32"}],"stateMutability":"view","type":"function"},{"inputs":[],"name":"MINTER_ROLE","outputs":[{"internalType":"bytes32","name":"","type":"bytes32"}],"stateMutability":"view","type":"function"},{"inputs":[{"internalType":"address","name":"to","type":"address"},{"internalType":"uint256","name":"tokenId","type":"uint256"}],"name":"approve","outputs":[],"stateMutability":"nonpayable","type":"function"},{"inputs":[{"internalType":"address","name":"owner","type":"address"}],"name":"balanceOf","outputs":[{"internalType":"uint256","name":"","type":"uint256"}],"stateMutability":"view","type":"function"},{"inputs":[{"components":[{"internalType":"string","name":"courseCode","type":"string"},{"internalType":"string","name":"courseTitle","type":"string"},{"internalType":"string","name":"gradeSecured","type":"string"},{"internalType":"uint256","name":"gradePoints","type":"uint256"},{"internalType":"string","name":"status","type":"string"},{"internalType":"uint256","name":"creditsObtained","type":"uint256"}],"internalType":"struct CertificateNFT.Course[]","name":"courses","type":"tuple[]"}],"name":"calculateSGPA","outputs":[{"internalType":"uint256","name":"","type":"uint256"}],"stateMutability":"pure","type":"function"},{"inputs":[{"internalType":"uint256","name":"","type":"uint256"}],"name":"certificates","outputs":[{"internalType":"string","name":"studentName","type":"string"},{"internalType":"string","name":"courseName","type":"string"},{"internalType":"string","name":"grade","type":"string"},{"internalType":"string","name":"ipfsHash","type":"string"},{"internalType":"string","name":"department","type":"string"},{"internalType":"uint256","name":"issueDate","type":"uint256"},{"internalType":"bool","name":"isRevoked","type":"bool"},{"internalType":"address","name":"issuer","type":"address"}],"stateMutability":"view","type":"function"},{"inputs":[{"internalType":"uint256","name":"tokenId","type":"uint256"}],"name":"getApproved","outputs":[{"internalType":"address","name":"","type":"address"}],"stateMutability":"view","type":"function"},{"inputs":[{"internalType":"uint256","name":"tokenId","type":"uint256"}],"name":"getCertificateData","outputs":[{"components":[{"internalType":"string","name":"studentName","type":"string"},{"internalType":"string","name":"courseName","type":"string"},{"internalType":"string","name":"grade","type":"string"},{"internalType":"string","name":"ipfsHash","type":"string"},{"internalType":"string","name":"department","type":"string"},{"internalType":"uint256","name":"issueDate","type":"uint256"},{"internalType":"bool","name":"isRevoked","type":"bool"},{"internalType":"address","name":"issuer","type":"address"}],"internalType":"struct CertificateNFT.CertificateData","name":"","type":"tuple"}],"stateMutability":"view","type":"function"},{"inputs":[{"internalType":"bytes32","name":"role","type":"bytes32"}],"name":"getRoleAdmin","outputs":[{"internalType":"bytes32","name":"","type":"bytes32"}],"stateMutability":"view","type":"function"},{"inputs":[{"internalType":"uint256","name":"tokenId","type":"uint256"}],"name":"getSemesterCertificate","outputs":[{"components":[{"internalType":"string","name":"studentName","type":"string"},{"internalType":"string","name":"serialNo","type":"string"},{"internalType":"string","name":"memoNo","type":"string"},{"internalType":"string","name":"regdNo","type":"string"},{"internalType":"string","name":"branch","type":"string"},{"internalType":"string","name":"examination","type":"string"},{"internalType":"string","name":"monthYearExams","type":"string"},{"internalType":"string","name":"aadharNo","type":"string"},{"internalType":"string","name":"studentPhoto","type":"string"},{"components":[{"internalType":"string","name":"courseCode","type":"string"},{"internalType":"string","name":"courseTitle","type":"string"},{"internalType":"string","name":"gradeSecured","type":"string"},{"internalType":"uint256","name":"gradePoints","type":"uint256"},{"internalType":"string","name":"status","type":"string"},{"internalType":"uint256","name":"creditsObtained","type":"uint256"}],"internalType":"struct CertificateNFT.Course[]","name":"courses","type":"tuple[]"},{"internalType":"uint256","name":"totalCredits","type":"uint256"},{"internalType":"uint256","name":"sgpa","type":"uint256"},{"internalType":"string","name":"mediumOfInstruction","type":"string"},{"internalType":"uint256","name":"issueDate","type":"uint256"},{"internalType":"address","name":"issuer","type":"address"},{"internalType":"bool","name":"isRevoked","type":"bool"}],"internalType":"struct CertificateNFT.SemesterCertificate","name":"","type":"tuple"}],"stateMutability":"view","type":"function"},{"inputs":[{"internalType":"address","name":"student","type":"address"}],"name":"getStudentCertificates","outputs":[{"internalType":"uint256[]","name":"","type":"uint256[]"}],"stateMutability":"view","type":"function"},{"inputs":[{"internalType":"address","name":"student","type":"address"}],"name":"getStudentSemesterCertificates","outputs":[{"internalType":"uint256[]","name":"","type":"uint256[]"}],"stateMutability":"view","type":"function"},{"inputs":[{"internalType":"bytes32","name":"role","type":"bytes32"},{"internalType":"address","name":"account","type":"address"}],"name":"grantRole","outputs":[],"stateMutability":"nonpayable","type":"function"},{"inputs":[{"internalType":"bytes32","name":"role","type":"bytes32"},{"internalType":"address","name":"account","type":"address"}],"name":"hasRole","outputs":[{"internalType":"bool","name":"","type":"bool"}],"stateMutability":"view","type":"function"},{"inputs":[{"internalType":"address","name":"owner","type":"address"},{"internalType":"address","name":"operator","type":"address"}],"name":"isApprovedForAll","outputs":[{"internalType":"bool","name":"","type":"bool"}],"stateMutability":"view","type":"function"},{"inputs":[{"internalType":"string","name":"memoNo","type":"string"}],"name":"isMemoNumberUsed","outputs":[{"internalType":"bool","name":"","type":"bool"}],"stateMutability":"view","type":"function"},{"inputs":[{"internalType":"string","name":"serialNo","type":"string"}],"name":"isSerialNumberUsed","outputs":[{"internalType":"bool","name":"","type":"bool"}],"stateMutability":"view","type":"function"},{"inputs":[{"internalType":"address","name":"student","type":"address"},{"internalType":"string","name":"courseName","type":"string"},{"internalType":"string","name":"grade","type":"string"},{"internalType":"string","name":"ipfsHash","type":"string"}],"name":"mintCertificate","outputs":[{"internalType":"uint256","name":"","type":"uint256"}],"stateMutability":"nonpayable","type":"function"},{"inputs":[{"internalType":"address","name":"student","type":"address"},{"internalType":"string","name":"serialNo","type":"string"},{"internalType":"string","name":"memoNo","type":"string"},{"components":[{"internalType":"string","name":"studentName","type":"string"},{"internalType":"string","name":"serialNo","type":"string"},{"internalType":"string","name":"memoNo","type":"string"},{"internalType":"string","name":"regdNo","type":"string"},{"internalType":"string","name":"branch","type":"string"},{"internalType":"string","name":"examination","type":"string"},{"internalType":"string","name":"monthYearExams","type":"string"},{"internalType":"string","name":"aadharNo","type":"string"},{"internalType":"string","name":"studentPhoto","type":"string"},{"components":[{"internalType":"string","name":"courseCode","type":"string"},{"internalType":"string","name":"courseTitle","type":"string"},{"internalType":"string","name":"gradeSecured","type":"string"},{"internalType":"uint256","name":"gradePoints","type":"uint256"},{"internalType":"string","name":"status","type":"string"},{"internalType":"uint256","name":"creditsObtained","type":"uint256"}],"internalType":"struct CertificateNFT.Course[]","name":"courses","type":"tuple[]"},{"internalType":"uint256","name":"totalCredits","type":"uint256"},{"internalType":"uint256","name":"sgpa","type":"uint256"},{"internalType":"string","name":"mediumOfInstruction","type":"string"},{"internalType":"uint256","name":"issueDate","type":"uint256"},{"internalType":"address","name":"issuer","type":"address"},{"internalType":"bool","name":"isRevoked","type":"bool"}],"internalType":"struct CertificateNFT.SemesterCertificate","name":"certData","type":"tuple"}],"name":"mintSemesterCertificate","outputs":[{"internalType":"uint256","name":"","type":"uint256"}],"stateMutability":"nonpayable","type":"function"},{"inputs":[],"name":"name","outputs":[{"internalType":"string","name":"","type":"string"}],"stateMutability":"view","type":"function"},{"inputs":[{"internalType":"uint256","name":"tokenId","type":"uint256"}],"name":"ownerOf","outputs":[{"internalType":"address","name":"","type":"address"}],"stateMutability":"view","type":"function"},{"inputs":[],"name":"pause","outputs":[],"stateMutability":"nonpayable","type":"function"},{"inputs":[],"name":"paused","outputs":[{"internalType":"bool","name":"","type":"bool"}],"stateMutability":"view","type":"function"},{"inputs":[{"internalType":"bytes32","name":"role","type":"bytes32"},{"internalType":"address","name":"callerConfirmation","type":"address"}],"name":"renounceRole","outputs":[],"stateMutability":"nonpayable","type":"function"},{"inputs":[{"internalType":"uint256","name":"tokenId","type":"uint256"}],"name":"revokeCertificate","outputs":[],"stateMutability":"nonpayable","type":"function"},{"inputs":[{"internalType":"bytes32","name":"role","type":"bytes32"},{"internalType":"address","name":"account","type":"address"}],"name":"revokeRole","outputs":[],"stateMutability":"nonpayable","type":"function"},{"inputs":[{"internalType":"uint256","name":"tokenId","type":"uint256"}],"name":"revokeSemesterCertificate","outputs":[],"stateMutability":"nonpayable","type":"function"},{"inputs":[{"internalType":"address","name":"from","type":"address"},{"internalType":"address","name":"to","type":"address"},{"internalType":"uint256","name":"tokenId","type":"uint256"}],"name":"safeTransferFrom","outputs":[],"stateMutability":"nonpayable","type":"function"},{"inputs":[{"internalType":"address","name":"from","type":"address"},{"internalType":"address","name":"to","type":"address"},{"internalType":"uint256","name":"tokenId","type":"uint256"},{"internalType":"bytes","name":"data","type":"bytes"}],"name":"safeTransferFrom","outputs":[],"stateMutability":"nonpayable","type":"function"},{"inputs":[{"internalType":"uint256","name":"","type":"uint256"}],"name":"semesterCertificates","outputs":[{"internalType":"string","name":"studentName","type":"string"},{"internalType":"string","name":"serialNo","type":"string"},{"internalType":"string","name":"memoNo","type":"string"},{"internalType":"string","name":"regdNo","type":"string"},{"internalType":"string","name":"branch","type":"string"},{"internalType":"string","name":"examination","type":"string"},{"internalType":"string","name":"monthYearExams","type":"string"},{"internalType":"string","name":"aadharNo","type":"string"},{"internalType":"string","name":"studentPhoto","type":"string"},{"internalType":"uint256","name":"totalCredits","type":"uint256"},{"internalType":"uint256","name":"sgpa","type":"uint256"},{"internalType":"string","name":"mediumOfInstruction","type":"string"},{"internalType":"uint256","name":"issueDate","type":"uint256"},{"internalType":"address","name":"issuer","type":"address"},{"internalType":"bool","name":"isRevoked","type":"bool"}],"stateMutability":"view","type":"function"},{"inputs":[{"internalType":"address","name":"operator","type":"address"},{"internalType":"bool","name":"approved","type":"bool"}],"name":"setApprovalForAll","outputs":[],"stateMutability":"nonpayable","type":"function"},{"inputs":[{"internalType":"string","name":"baseURI","type":"string"}],"name":"setBaseURI","outputs":[],"stateMutability":"nonpayable","type":"function"},{"inputs":[{"internalType":"address","name":"","type":"address"},{"internalType":"uint256","name":"","type":"uint256"}],"name":"studentCertificates","outputs":[{"internalType":"uint256","name":"","type":"uint256"}],"stateMutability":"view","type":"function"},{"inputs":[{"internalType":"address","name":"","type":"address"},{"internalType":"uint256","name":"","type":"uint256"}],"name":"studentSemesterCerts","outputs":[{"internalType":"uint256","name":"","type":"uint256"}],"stateMutability":"view","type":"function"},{"inputs":[{"internalType":"bytes4","name":"interfaceId","type":"bytes4"}],"name":"supportsInterface","outputs":[{"internalType":"bool","name":"","type":"bool"}],"stateMutability":"view","type":"function"},{"inputs":[],"name":"symbol","outputs":[{"internalType":"string","name":"","type":"string"}],"stateMutability":"view","type":"function"},{"inputs":[{"internalType":"uint256","name":"tokenId","type":"uint256"}],"name":"tokenURI","outputs":[{"internalType":"string","name":"","type":"string"}],"stateMutability":"view","type":"function"},{"inputs":[{"internalType":"address","name":"from","type":"address"},{"internalType":"address","name":"to","type":"address"},{"internalType":"uint256","name":"tokenId","type":"uint256"}],"name":"transferFrom","outputs":[],"stateMutability":"nonpayable","type":"function"},{"inputs":[],"name":"unpause","outputs":[],"stateMutability":"nonpayable","type":"function"},{"inputs":[{"internalType":"uint256","name":"tokenId","type":"uint256"},{"internalType":"string","name":"studentName","type":"string"},{"internalType":"string","name":"department","type":"string"}],"name":"updateCertificateDetails","outputs":[],"stateMutability":"nonpayable","type":"function"},{"inputs":[{"internalType":"uint256","name":"tokenId","type":"uint256"},{"internalType":"string","name":"studentPhoto","type":"string"}],"name":"updateSemesterCertificatePhoto","outputs":[],"stateMutability":"nonpayable","type":"function"},{"inputs":[{"internalType":"string","name":"","type":"string"}],"name":"usedHashes","outputs":[{"internalType":"bool","name":"","type":"bool"}],"stateMutability":"view","type":"function"},{"inputs":[{"internalType":"string","name":"","type":"string"}],"name":"usedMemoNumbers","outputs":[{"internalType":"bool","name":"","type":"bool"}],"stateMutability":"view","type":"function"},{"inputs":[{"internalType":"string","name":"","type":"string"}],"name":"usedSerialNumbers","outputs":[{"internalType":"bool","name":"","type":"bool"}],"stateMutability":"view","type":"function"},{"inputs":[{"internalType":"uint256","name":"tokenId","type":"uint256"}],"name":"verifyCertificate","outputs":[{"components":[{"internalType":"string","name":"studentName","type":"string"},{"internalType":"string","name":"courseName","type":"string"},{"internalType":"string","name":"grade","type":"string"},{"internalType":"string","name":"ipfsHash","type":"string"},{"internalType":"string","name":"department","type":"string"},{"internalType":"uint256","name":"issueDate","type":"uint256"},{"internalType":"bool","name":"isRevoked","type":"bool"},{"internalType":"address","name":"issuer","type":"address"}],"internalType":"struct CertificateNFT.CertificateData","name":"certificateData","type":"tuple"},{"internalType":"bool","name":"isValid","type":"bool"}],"stateMutability":"view","type":"function"},{"inputs":[{"internalType":"uint256","name":"tokenId","type":"uint256"}],"name":"verifySemesterCertificate","outputs":[{"components":[{"internalType":"string","name":"studentName","type":"string"},{"internalType":"string","name":"serialNo","type":"string"},{"internalType":"string","name":"memoNo","type":"string"},{"internalType":"string","name":"regdNo","type":"string"},{"internalType":"string","name":"branch","type":"string"},{"internalType":"string","name":"examination","type":"string"},{"internalType":"string","name":"monthYearExams","type":"string"},{"internalType":"string","name":"aadharNo","type":"string"},{"internalType":"string","name":"studentPhoto","type":"string"},{"components":[{"internalType":"string","name":"courseCode","type":"string"},{"internalType":"string","name":"courseTitle","type":"string"},{"internalType":"string","name":"gradeSecured","type":"string"},{"internalType":"uint256","name":"gradePoints","type":"uint256"},{"internalType":"string","name":"status","type":"string"},{"internalType":"uint256","name":"creditsObtained","type":"uint256"}],"internalType":"struct CertificateNFT.Course[]","name":"courses","type":"tuple[]"},{"internalType":"uint256","name":"totalCredits","type":"uint256"},{"internalType":"uint256","name":"sgpa","type":"uint256"},{"internalType":"string","name":"mediumOfInstruction","type":"string"},{"internalType":"uint256","name":"issueDate","type":"uint256"},{"internalType":"address","name":"issuer","type":"address"},{"internalType":"bool","name":"isRevoked","type":"bool"}],"internalType":"struct CertificateNFT.SemesterCertificate","name":"certificateData","type":"tuple"},{"internalType":"bool","name":"isValid","type":"bool"}],"stateMutability":"view","type":"function"}],"evm":{"bytecode":{"linkReferences":{},"object":"60803462000346576001600160401b0390604090808201838111828210176200033057825260128152602092715669676e616e20436572746966696361746560701b848301528251838101818110838211176200033057845260068152652b24a3a720a760d11b85820152825190828211620003305760008054926001958685811c9516801562000325575b8986101462000311578190601f95868111620002be575b5089908683116001146200025a5784926200024e575b5050600019600383901b1c191690861b1781555b81519384116200023a5784548581811c911680156200022f575b888210146200021b57838111620001d3575b50869284116001146200016d5783949596509262000161575b5050600019600383901b1c191690821b1790555b60ff19600854166008556200013a336200034b565b506200014633620003cc565b5062000152336200046f565b50516156a090816200050e8239f35b01519050388062000111565b9190601f1984169685845280842093905b888210620001bb5750508385969710620001a1575b505050811b01905562000125565b015160001960f88460031b161c1916905538808062000193565b8087859682949686015181550195019301906200017e565b8582528782208480870160051c8201928a881062000211575b0160051c019086905b82811062000205575050620000f8565b838155018690620001f5565b92508192620001ec565b634e487b7160e01b82526022600452602482fd5b90607f1690620000e6565b634e487b7160e01b81526041600452602490fd5b015190503880620000b8565b8480528a85208994509190601f198416865b8d828210620002a757505084116200028d575b505050811b018155620000cc565b015160001960f88460031b161c191690553880806200027f565b8385015186558c979095019493840193016200026c565b9091508380528984208680850160051c8201928c861062000307575b918a91869594930160051c01915b828110620002f8575050620000a2565b8681558594508a9101620002e8565b92508192620002da565b634e487b7160e01b83526022600452602483fd5b94607f16946200008b565b634e487b7160e01b600052604160045260246000fd5b600080fd5b6001600160a01b031660008181527f6d5257204ebe7d88fd91ae87941cb2dd9d8062b64ae5a2bd2d28ec40b9fbf6df602052604081205490919060ff16620003c85781805260076020526040822081835260205260408220600160ff19825416179055339160008051602062005bae8339815191528180a4600190565b5090565b6001600160a01b031660008181527fa70365933f78520ef41d6645ba61e509916296603327302d41466c063e8e260860205260408120549091907fa49807205ce4d355092ef5a8a18f56e8913cf4a201fbe287825b095693c217759060ff166200046a5780835260076020526040832082845260205260408320600160ff1982541617905560008051602062005bae833981519152339380a4600190565b505090565b6001600160a01b031660008181527fa4bfd7afe708e2e87e7f0e2ad9b4d545417e0f795f57b5c5ab5d799c565a04f460205260408120549091907f9f2df0fed2c77648de5860a4cc508cd0818c85b8b8a1ab4ceeef8d981c8956a69060ff166200046a5780835260076020526040832082845260205260408320600160ff1982541617905560008051602062005bae833981519152339380a460019056fe608080604052600436101561001357600080fd5b60003560e01c90816301ffc9a714613d005750806306f5497e14613c5257806306fdde0314613baf578063081812fc14613b70578063095ea7b314613a6f5780631692a94214613a3c5780631f7ca1441461055157806320d993b7146138ef578063234f8d671461385a57806323b872dd146138d8578063248a9ca3146138a95780632b0ec45e1461385a5780632b62a74c146137925780632f2ff15d1461375357806331494bbb1461367357806336568abe146136145780633b01aa481461359c5780633f4ba83a1461351a5780634055e0e114611c7f57806342842e0e14611c515780635153a7d214611ab557806355f804b31461193b5780635c975abb146119185780636352211e146118e9578063663b3e221461180057806370a082311461178f57806375b238fc146117545780638456cb59146116fa57806391d14854146116ac578063929c01fd14610c9757806395d89b4114610bb85780639d093afa14610905578063a217fddf146108e9578063a22cb46514610823578063a6f569fc146107e0578063b88d4fde14610775578063b8dcf6c81461072d578063bd1f5f31146106de578063c3934f0e14610688578063c87b56dd1461062f578063d5391393146105f4578063d547741f146105b3578063de7c3a3914610551578063e985e9c5146104fa578063ebc63bc014610476578063f31a9d17146102685763fe8aa2c51461022457600080fd5b346102635760203660031901126102635761025761024360043561547a565b6040519283926040845260408401906142c7565b90151560208301520390f35b600080fd5b3461026357602036600319011261026357600435610284615405565b508060005260026020526102a76001600160a01b03604060002054161515615275565b600052600e60205260406000206040516102c081613f41565b6102c982614209565b81526102d760018301614209565b60208201526102e860028301614209565b60408201526102f960038301614209565b606082015261030a60048301614209565b608082015261031b60058301614209565b60a082015261032c60068301614209565b60c082015261033d60078301614209565b60e082015261034e60088301614209565b61010082015260098201805461036381614099565b916103716040519384613f96565b818352602083019060005260206000206000915b838310610405576104018660ff600e8a89610120850152600a810154610140850152600b8101546101608501526103be600c8201614209565b610180850152600d8101546101a085015201546001600160a01b0381166101c084015260a01c1615156101e08201526040519182916020835260208301906142c7565b0390f35b6006602060019260405161041881613f5e565b61042186614209565b815261042e858701614209565b8382015261043e60028701614209565b60408201526003860154606082015261045960048701614209565b6080820152600586015460a0820152815201920192019190610385565b3461026357602080600319360112610263576001600160a01b03610498613e65565b16600052600c8152604060002090604051908181845491828152019360005281600020916000905b8282106104e357610401856104d781890382613f96565b6040519182918261405e565b8354865294850194600193840193909101906104c0565b3461026357604036600319011261026357610513613e65565b61051b613e7b565b906001600160a01b03809116600052600560205260406000209116600052602052602060ff604060002054166040519015158152f35b346102635760203660031901126102635760043567ffffffffffffffff81116102635760ff61059d602061058a8194369060040161400b565b8160405193828580945193849201613e1d565b8101601181520301902054166040519015158152f35b34610263576040366003190112610263576105f26004356105d2613e7b565b908060005260076020526105ed6001604060002001546145a8565b61464f565b005b346102635760003660031901126102635760206040517f9f2df0fed2c77648de5860a4cc508cd0818c85b8b8a1ab4ceeef8d981c8956a68152f35b346102635760203660031901126102635760043561064c8161489c565b5060005260066020526104016106656040600020614209565b600060405161067381613f7a565b52604051918291602083526020830190613e40565b34610263576040366003190112610263576106a1613e65565b6001600160a01b036024359116600052600c60205260406000208054821015610263576020916106d0916142af565b90546040519160031b1c8152f35b346102635760203660031901126102635760043567ffffffffffffffff81116102635760ff610717602061058a8194369060040161400b565b8101600d81520301902054166040519015158152f35b3461026357604036600319011261026357610746613e65565b6001600160a01b036024359116600052600f60205260406000208054821015610263576020916106d0916142af565b346102635760803660031901126102635761078e613e65565b610796613e7b565b906044356064359267ffffffffffffffff84116102635736602385011215610263576107cf6105f2943690602481600401359101613fd4565b926107db8383836146c7565b6148d7565b346102635760203660031901126102635760043567ffffffffffffffff81116102635761081b61081660209236906004016140b1565b6152e1565b604051908152f35b346102635760403660031901126102635761083c613e65565b6024359081151590818303610263576001600160a01b03169182156108b85761088a9033600052600560205260406000208460005260205260406000209060ff801983541691151516179055565b6040519081527f17307eab39ab6107e8899845ad3d59bd9653f200f220920489ca2b5937696c3160203392a3005b602483604051907f5b08ba180000000000000000000000000000000000000000000000000000000082526004820152fd5b3461026357600036600319011261026357602060405160008152f35b346102635760603660031901126102635767ffffffffffffffff6004356024358281116102635761093a90369060040161400b565b916044358181116102635761095390369060040161400b565b9261095c6144b9565b82600052602092600284526109806001600160a01b036040600020541615156150db565b80600052600b845260406000208251848111610ae357806109a183546141cf565b94601f95868111610b69575b508790868311600114610b0457600092610af9575b50508160011b916000199060031b1c19161790555b600052600b83526004604060002001928451928311610ae3576109fa84546141cf565b828111610aa0575b5080918311600114610a3d5750819293600092610a32575b5050600019600383901b1c191660019190911b179055005b015190508380610a1a565b90601f198316948460005282600020926000905b878210610a88575050836001959610610a6f575b505050811b019055005b015160001960f88460031b161c19169055838080610a65565b80600185968294968601518155019501930190610a51565b84600052816000208380860160051c820192848710610ada575b0160051c01905b818110610ace5750610a02565b60008155600101610ac1565b92508192610aba565b634e487b7160e01b600052604160045260246000fd5b0151905088806109c2565b60008581528981209350601f198516905b8a828210610b53575050908460019594939210610b3a575b505050811b0190556109d7565b015160001960f88460031b161c19169055888080610b2d565b6001859682939686015181550195019301610b15565b90915083600052876000208680850160051c8201928a8610610baf575b9085949392910160051c01905b818110610ba057506109ad565b60008155849350600101610b93565b92508192610b86565b346102635760003660031901126102635760405160006001805490610bdc826141cf565b80855291818116908115610c705750600114610c17575b61040184610c0381860382613f96565b604051918291602083526020830190613e40565b600081815292507fb10e2d527612073b26eecdfd717e6a320cf44b4afac2b0732d9fcbe2b7fa0cf65b828410610c58575050508101602001610c0382610bf3565b80546020858701810191909152909301928101610c40565b60ff191660208087019190915292151560051b85019092019250610c039150839050610bf3565b3461026357608036600319011261026357610cb0613e65565b60243567ffffffffffffffff811161026357610cd090369060040161400b565b60443567ffffffffffffffff811161026357610cf090369060040161400b565b9160643567ffffffffffffffff811161026357610d1190369060040161400b565b90610d1a61454c565b610d22614f30565b610d366001600160a01b0382161515614a1c565b82511561166857835115611624578151156115e05760ff6040516020818551610d628183858a01613e1d565b8101600d815203019020541661159c57610d7d600954614a67565b9283600955604051610d8e81613f24565b604051610d9a81613f7a565b600081528152816020820152856040820152836060820152604051610dbe81613f7a565b6000815260808201524260a0820152600060c08201523360e082015284600052600b6020526040600020815180519067ffffffffffffffff8211610ae3578190610e0884546141cf565b601f811161154c575b50602090601f83116001146114e6576000926114db575b50508160011b916000199060031b1c19161781555b602082015180519067ffffffffffffffff8211610ae3578190610e6360018501546141cf565b601f8111611488575b50602090601f83116001146114165760009261140b575b50508160011b916000199060031b1c19161760018201555b604082015180519067ffffffffffffffff8211610ae3578190610ec160028501546141cf565b601f81116113b8575b50602090601f83116001146113465760009261133b575b50508160011b916000199060031b1c19161760028201555b606082015180519067ffffffffffffffff8211610ae3578190610f1f60038501546141cf565b601f81116112e8575b50602090601f83116001146112765760009261126b575b50508160011b916000199060031b1c19161760038201555b608082015180519067ffffffffffffffff8211610ae357610f7b60048401546141cf565b601f8111611224575b509160209893918895938a90601f831160011461117957947f2242ed4813396c04bea58b1d1874b4edb999b043d0b6a9da1d585671d0802b38969460e060066001600160a01b03968661115a9761112a9761114c9c60009261116e575b50508160011b916000199060031b1c19161760048201555b60a08401516005820155019161102160c08201511515849060ff801983541691151516179055565b01517fffffffffffffffffffffff0000000000000000000000000000000000000000ff74ffffffffffffffffffffffffffffffffffffffff0083549260081b169116179055838916600052600c8c5261107e886040600020614a8c565b6110968c8b8160405193828580945193849201613e1d565b8101600d815203019020600160ff198254161790556110b5888a614b75565b6111256110c189614f66565b61111f60016040516020936110d882958301614ac6565b7f2f00000000000000000000000000000000000000000000000000000000000000815261110f825160209381948785019101613e1d565b0103601e19810184520182613f96565b89614dba565b614b55565b97604051948594608086526000608087015260a08d87015260a0860190613e40565b908482036040860152613e40565b9542606084015216940390a4604051908152f35b015190503880610fe1565b90600484016000528b6000209160005b601f198516811061120a57509460e060066001600160a01b039660018761112a9761114c9c977f2242ed4813396c04bea58b1d1874b4edb999b043d0b6a9da1d585671d0802b389e9c61115a9b601f198116106111f1575b505050811b016004820155610ff9565b015160001960f88460031b161c191690553880806111e1565b8183015184558c9950600190930192918d01918d01611189565b600484016000526020600020601f840160051c810160208510611264575b601f830160051c82018110611258575050610f84565b60008155600101611242565b5080611242565b015190508980610f3f565b9250600384016000526020600020906000935b601f19841685106112cd576001945083601f198116106112b4575b505050811b016003820155610f57565b015160001960f88460031b161c191690558980806112a4565b81810151835560209485019460019093019290910190611289565b909150600384016000526020600020601f840160051c810160208510611334575b90849392915b601f830160051c82018110611325575050610f28565b6000815585945060010161130f565b5080611309565b015190508980610ee1565b9250600284016000526020600020906000935b601f198416851061139d576001945083601f19811610611384575b505050811b016002820155610ef9565b015160001960f88460031b161c19169055898080611374565b81810151835560209485019460019093019290910190611359565b909150600284016000526020600020601f840160051c810160208510611404575b90849392915b601f830160051c820181106113f5575050610eca565b600081558594506001016113df565b50806113d9565b015190508980610e83565b9250600184016000526020600020906000935b601f198416851061146d576001945083601f19811610611454575b505050811b016001820155610e9b565b015160001960f88460031b161c19169055898080611444565b81810151835560209485019460019093019290910190611429565b909150600184016000526020600020601f840160051c8101602085106114d4575b90849392915b601f830160051c820181106114c5575050610e6c565b600081558594506001016114af565b50806114a9565b015190508980610e28565b6000858152602081209350601f198516905b818110611534575090846001959493921061151b575b505050811b018155610e3d565b015160001960f88460031b161c1916905589808061150e565b929360206001819287860151815501950193016114f8565b909150836000526020600020601f840160051c810160208510611595575b90849392915b601f830160051c82018110611586575050610e11565b60008155859450600101611570565b508061156a565b606460405162461bcd60e51b815260206004820152601660248201527f49504653206861736820616c72656164792075736564000000000000000000006044820152fd5b606460405162461bcd60e51b815260206004820152601960248201527f4950465320686173682063616e6e6f7420626520656d707479000000000000006044820152fd5b606460405162461bcd60e51b815260206004820152601560248201527f47726164652063616e6e6f7420626520656d70747900000000000000000000006044820152fd5b606460405162461bcd60e51b815260206004820152601b60248201527f436f75727365206e616d652063616e6e6f7420626520656d70747900000000006044820152fd5b34610263576040366003190112610263576116c5613e7b565b60043560005260076020526001600160a01b0360406000209116600052602052602060ff604060002054166040519015158152f35b34610263576000366003190112610263576117136144b9565b61171b614f30565b600160ff1960085416176008557f62e78cea01bee320cd4e420270b5ea74000d11b0c9f74754ebdbfc544b05a2586020604051338152a1005b346102635760003660031901126102635760206040517fa49807205ce4d355092ef5a8a18f56e8913cf4a201fbe287825b095693c217758152f35b34610263576020366003190112610263576001600160a01b036117b0613e65565b1680156117cf5760005260036020526020604060002054604051908152f35b60246040517f89c62b6400000000000000000000000000000000000000000000000000000000815260006004820152fd5b3461026357602036600319011261026357600435600052600b602052611893604060002061182d81614209565b906001600160a01b0361184260018301614209565b6118cb61185160028501614209565b6118bd61186060038701614209565b6118af61186f60048901614209565b936118a1600660058b01549a0154976040519c8d9c8d610100908181520190613e40565b8c810360208e015290613e40565b908a820360408c0152613e40565b9088820360608a0152613e40565b908682036080880152613e40565b9260a085015260ff8116151560c085015260081c1660e08301520390f35b3461026357602036600319011261026357602061190760043561489c565b6001600160a01b0360405191168152f35b3461026357600036600319011261026357602060ff600854166040519015158152f35b34610263576020806003193601126102635767ffffffffffffffff6004358181116102635761196e90369060040161400b565b916119776144b9565b8251918211610ae35761198b600a546141cf565b601f8111611a51575b5080601f83116001146119d0575081926000926119c5575b5050600019600383901b1c191660019190911b17600a55005b0151905082806119ac565b90601f19831693600a6000527fc65a7bb8d6351c1cf70c95a316cc6a92839c986682d98bc35f958f4883f9d2a8926000905b868210611a395750508360019510611a20575b505050811b01600a55005b015160001960f88460031b161c19169055828080611a15565b80600185968294968601518155019501930190611a02565b600a6000527fc65a7bb8d6351c1cf70c95a316cc6a92839c986682d98bc35f958f4883f9d2a8601f840160051c810191838510611aab575b601f0160051c01905b818110611a9f5750611994565b60008155600101611a92565b9091508190611a89565b3461026357602036600319011261026357600435600052600e6020526040600020611adf81614209565b611aeb60018301614209565b91611af860028201614209565b611b0460038301614209565b611b1060048401614209565b611b1c60058501614209565b90611b2960068601614209565b611b3560078701614209565b611b4160088801614209565b91600a88015494600b89015494600c8a01611b5b90614209565b97600d8b01549a600e0154996040519d8e809e6101e08083528201611b7f91613e40565b908082039060200152611b9191613e40565b8d810360408f0152611ba291613e40565b8c810360608e0152611bb391613e40565b8b810360808d0152611bc491613e40565b8a810360a08c0152611bd591613e40565b89810360c08b0152611be691613e40565b88810360e08a0152611bf791613e40565b878103610100890152611c0991613e40565b91610120870152610140860152848103610160860152611c2891613e40565b916101808401526001600160a01b0381166101a084015260a01c60ff1615156101c08301520390f35b34610263576105f2611c6236614029565b9060405192611c7084613f7a565b600084526107db8383836146c7565b346102635760031960803682011261026357611c99613e65565b60243567ffffffffffffffff811161026357611cb990369060040161400b565b60443567ffffffffffffffff811161026357611cd990369060040161400b565b9260649067ffffffffffffffff82351161026357610200908235360301126102635760405190611d0882613f41565b80356004013567ffffffffffffffff811161026357611d2e90600436918435010161400b565b825260248135013567ffffffffffffffff811161026357611d5690600436918435010161400b565b602083015260448135013567ffffffffffffffff811161026357611d8190600436918435010161400b565b6040830152808035013567ffffffffffffffff811161026357611dab90600436918435010161400b565b606083015267ffffffffffffffff6084823501351161026357611dd836823560848101350160040161400b565b608083015267ffffffffffffffff60a4823501351161026357611e0536823560a48101350160040161400b565b60a083015267ffffffffffffffff60c4823501351161026357611e3236823560c48101350160040161400b565b60c083015267ffffffffffffffff60e4823501351161026357611e5f36823560e48101350160040161400b565b60e083015267ffffffffffffffff610104823501351161026357611e8e3682356101048101350160040161400b565b61010083015267ffffffffffffffff610124823501351161026357611ebe368235610124810135016004016140b1565b610120830152610144813501356101408301526101648135013561016083015267ffffffffffffffff610184823501351161026357611f083682356101848101350160040161400b565b61018083015280356101a48101356101a08401526101c401356001600160a01b03811690036102635780356101c48101356101c08401526101e401358015159003610263576101e4813501356101e0830152611f6261454c565b611f6a614f30565b611f7e6001600160a01b0385161515614a1c565b8251156134d8578451156134965760ff6040516020818651611fa38183858b01613e1d565b8101601181520301902054166134545760ff6040516020818851611fca8183858d01613e1d565b81016010815203019020541661341257815151156133d057606082015151156133665761012082015151156133245750612005600954614a67565b90816009556120186101208201516152e1565b82600052600e602052604060002095825180519067ffffffffffffffff8211610ae35781906120478a546141cf565b601f81116132d4575b50602090601f83116001146132685760009261325d575b50508160011b916000199060031b1c19161787555b845167ffffffffffffffff8111610ae35761209a60018901546141cf565b601f8111613216575b50806020601f82116001146131a95760009161319e575b508160011b916000199060031b1c19161760018801555b805167ffffffffffffffff8111610ae3576120ef60028901546141cf565b601f8111613157575b50806020601f82116001146130ea576000916130df575b508160011b916000199060031b1c19161760028801555b606083015180519067ffffffffffffffff8211610ae357819061214c60038b01546141cf565b601f811161308c575b50602090601f831160011461301a5760009261300f575b50508160011b916000199060031b1c19161760038801555b608083015180519067ffffffffffffffff8211610ae35781906121aa60048b01546141cf565b601f8111612fbc575b50602090601f8311600114612f4a57600092612f3f575b50508160011b916000199060031b1c19161760048801555b60a083015180519067ffffffffffffffff8211610ae357819061220860058b01546141cf565b601f8111612eec575b50602090601f8311600114612e7a57600092612e6f575b50508160011b916000199060031b1c19161760058801555b60c083015180519067ffffffffffffffff8211610ae357819061226660068b01546141cf565b601f8111612e1c575b50602090601f8311600114612daa57600092612d9f575b50508160011b916000199060031b1c19161760068801555b60e083015180519067ffffffffffffffff8211610ae35781906122c460078b01546141cf565b601f8111612d4c575b50602090601f8311600114612cda57600092612ccf575b50508160011b916000199060031b1c19161760078801555b61010083015180519067ffffffffffffffff8211610ae357819061232360088b01546141cf565b601f8111612c7c575b50602090601f8311600114612c0a57600092612bff575b50508160011b916000199060031b1c19161760088801555b610140830151600a88015581600b88015561018083015180519067ffffffffffffffff8211610ae3578190612393600c8b01546141cf565b601f8111612bac575b50602090601f8311600114612b3a57600092612b2f575b50508160011b916000199060031b1c191617600c8801555b42600d880155600e870180547fffffffffffffffffffffff000000000000000000000000000000000000000000163360ff60a01b191617905560005b61012084015180518210156129a25781612420916152c0565b5160098901549068010000000000000000821015610ae357600182018060098c015582101561298c5760098a01600052602060002090805180519067ffffffffffffffff8211610ae357819061247b600687028601546141cf565b601f8111612937575b50602090601f83116001146128c1576000926128b6575b50508160011b916000199060031b1c191617600684028301555b602081015180519067ffffffffffffffff8211610ae35781906124e0600160068802870101546141cf565b601f811161285e575b50602090601f83116001146127e2576000926127d7575b50508160011b916000199060031b1c191617600160068502840101555b604081015180519067ffffffffffffffff8211610ae3578190612548600260068802870101546141cf565b601f811161277f575b50602090601f8311600114612703576000926126f8575b50508160011b916000199060031b1c191617600260068502840101555b606081015160036006850284010155608081015180519067ffffffffffffffff8211610ae3576125bd600460068702860101546141cf565b601f81116126ac575b50602090601f831160011461262657600593836126169897969460069460a09460009261261b575b50508160011b916000199060031b1c1916176004848802860101555b01519302010155614a67565b612407565b0151905038806125ee565b9060046006870286010160005260206000209160005b601f198516811061269457509360018460069460a0946005986126169c9b9a98601f1981161061267b575b505050811b0160048488028601015561260a565b015160001960f88460031b161c19169055388080612667565b9192602060018192868501518155019401920161263c565b6004600687028601016000526020600020601f840160051c8101602085106126f1575b601f830160051c820181106126e55750506125c6565b600081556001016126cf565b50806126cf565b015190508d80612568565b92506002600687028601016000526020600020906000935b601f1984168510612764576001945083601f1981161061274b575b505050811b0160026006850284010155612585565b015160001960f88460031b161c191690558d8080612736565b8181015183556020948501946001909301929091019061271b565b9091506002600687028601016000526020600020601f840160051c8101602085106127d0575b90849392915b601f830160051c820181106127c1575050612551565b600081558594506001016127ab565b50806127a5565b015190508d80612500565b92506001600687028601016000526020600020906000935b601f1984168510612843576001945083601f1981161061282a575b505050811b016001600685028401015561251d565b015160001960f88460031b161c191690558d8080612815565b818101518355602094850194600190930192909101906127fa565b9091506001600687028601016000526020600020601f840160051c8101602085106128af575b90849392915b601f830160051c820181106128a05750506124e9565b6000815585945060010161288a565b5080612884565b015190508d8061249b565b92506006860285016000526020600020906000935b601f198416851061291c576001945083601f19811610612903575b505050811b01600684028301556124b5565b015160001960f88460031b161c191690558d80806128f1565b818101518355602094850194600190930192909101906128d6565b9091506006860285016000526020600020601f840160051c810160208510612985575b90849392915b601f830160051c82018110612976575050612484565b60008155859450600101612960565b508061295a565b634e487b7160e01b600052603260045260246000fd5b50507e6260462507cd85b27ab0f8b3eb749422a22e01f982f4dfa3fdb78b97f7e810612aec85926001600160a01b0389612b1660209a838316600052600f8c526129f0886040600020614a8c565b6040518c818351612a048183858801613e1d565b8101601181520301902060ff199060018282541617905560016040518e8181612a338b83815193849201613e1d565b8101601081520301902091825416179055612a4e8884614b75565b612ab8612a5a89614f66565b61111f600a604051602093612a7182958301614ac6565b7f2f73656d65737465722f000000000000000000000000000000000000000000008152612aa8825160209381948785019101613e1d565b0103601519810184520182613f96565b612b0860608b01519a612afa612ad760a0608084015193015194614b55565b9c604051998a9960c08b5260c08b0190613e40565b9089820360208b0152613e40565b908782036040890152613e40565b908582036060870152613e40565b9660808401524260a084015216940390a4604051908152f35b0151905089806123b3565b9250600c8a016000526020600020906000935b601f1984168510612b91576001945083601f19811610612b78575b505050811b01600c8801556123cb565b015160001960f88460031b161c19169055898080612b68565b81810151835560209485019460019093019290910190612b4d565b909150600c8a016000526020600020601f840160051c810160208510612bf8575b90849392915b601f830160051c82018110612be957505061239c565b60008155859450600101612bd3565b5080612bcd565b015190508980612343565b925060088a016000526020600020906000935b601f1984168510612c61576001945083601f19811610612c48575b505050811b01600888015561235b565b015160001960f88460031b161c19169055898080612c38565b81810151835560209485019460019093019290910190612c1d565b90915060088a016000526020600020601f840160051c810160208510612cc8575b90849392915b601f830160051c82018110612cb957505061232c565b60008155859450600101612ca3565b5080612c9d565b0151905089806122e4565b925060078a016000526020600020906000935b601f1984168510612d31576001945083601f19811610612d18575b505050811b0160078801556122fc565b015160001960f88460031b161c19169055898080612d08565b81810151835560209485019460019093019290910190612ced565b90915060078a016000526020600020601f840160051c810160208510612d98575b90849392915b601f830160051c82018110612d895750506122cd565b60008155859450600101612d73565b5080612d6d565b015190508980612286565b925060068a016000526020600020906000935b601f1984168510612e01576001945083601f19811610612de8575b505050811b01600688015561229e565b015160001960f88460031b161c19169055898080612dd8565b81810151835560209485019460019093019290910190612dbd565b90915060068a016000526020600020601f840160051c810160208510612e68575b90849392915b601f830160051c82018110612e5957505061226f565b60008155859450600101612e43565b5080612e3d565b015190508980612228565b925060058a016000526020600020906000935b601f1984168510612ed1576001945083601f19811610612eb8575b505050811b016005880155612240565b015160001960f88460031b161c19169055898080612ea8565b81810151835560209485019460019093019290910190612e8d565b90915060058a016000526020600020601f840160051c810160208510612f38575b90849392915b601f830160051c82018110612f29575050612211565b60008155859450600101612f13565b5080612f0d565b0151905089806121ca565b925060048a016000526020600020906000935b601f1984168510612fa1576001945083601f19811610612f88575b505050811b0160048801556121e2565b015160001960f88460031b161c19169055898080612f78565b81810151835560209485019460019093019290910190612f5d565b90915060048a016000526020600020601f840160051c810160208510613008575b90849392915b601f830160051c82018110612ff95750506121b3565b60008155859450600101612fe3565b5080612fdd565b01519050898061216c565b925060038a016000526020600020906000935b601f1984168510613071576001945083601f19811610613058575b505050811b016003880155612184565b015160001960f88460031b161c19169055898080613048565b8181015183556020948501946001909301929091019061302d565b90915060038a016000526020600020601f840160051c8101602085106130d8575b90849392915b601f830160051c820181106130c9575050612155565b600081558594506001016130b3565b50806130ad565b90508201518961210f565b91506002890160005260206000206000925b601f198316841061313f576001935082601f19811610613126575b5050811b016002880155612126565b84015160001960f88460031b161c191690558980613117565b848101518255602093840193600190920191016130fc565b600289016000526020600020601f830160051c810160208410613197575b601f830160051c8201811061318b5750506120f8565b60008155600101613175565b5080613175565b9050860151896120ba565b91506001890160005260206000206000925b601f19831684106131fe576001935082601f198116106131e5575b5050811b0160018801556120d1565b88015160001960f88460031b161c1916905589806131d6565b888101518255602093840193600190920191016131bb565b600189016000526020600020601f830160051c810160208410613256575b601f830160051c8201811061324a5750506120a3565b60008155600101613234565b5080613234565b015190508980612067565b9250896000526020600020906000935b601f19841685106132b9576001945083601f198116106132a0575b505050811b01875561207c565b015160001960f88460031b161c19169055898080613293565b81810151835560209485019460019093019290910190613278565b909150896000526020600020601f840160051c81016020851061331d575b90849392915b601f830160051c8201811061330e575050612050565b600081558594506001016132f8565b50806132f2565b60405162461bcd60e51b815260206004820152601c60248201527f4174206c65617374206f6e6520636f75727365207265717569726564000000006044820152fd5b6084907f70747900000000000000000000000000000000000000000000000000000000006040519162461bcd60e51b835260206004840152602360248401527f526567697374726174696f6e206e756d6265722063616e6e6f7420626520656d6044840152820152fd5b60405162461bcd60e51b815260206004820152601c60248201527f53747564656e74206e616d652063616e6e6f7420626520656d707479000000006044820152fd5b60405162461bcd60e51b815260206004820152601860248201527f4d656d6f206e756d62657220616c7265616479207573656400000000000000006044820152fd5b60405162461bcd60e51b815260206004820152601a60248201527f53657269616c206e756d62657220616c726561647920757365640000000000006044820152fd5b60405162461bcd60e51b815260206004820152601b60248201527f4d656d6f206e756d6265722063616e6e6f7420626520656d70747900000000006044820152fd5b60405162461bcd60e51b815260206004820152601d60248201527f53657269616c206e756d6265722063616e6e6f7420626520656d7074790000006044820152fd5b34610263576000366003190112610263576135336144b9565b60085460ff8116156135725760ff19166008557f5db9ee0a495bf2e6ff9c91a7834c1ba4fdd244a5e8aa4e537bd38aeae4b073aa6020604051338152a1005b60046040517f8dfc202b000000000000000000000000000000000000000000000000000000008152fd5b3461026357602080600319360112610263576001600160a01b036135be613e65565b16600052600f8152604060002090604051908181845491828152019360005281600020916000905b8282106135fd57610401856104d781890382613f96565b8354865294850194600193840193909101906135e6565b346102635760403660031901126102635761362d613e7b565b336001600160a01b03821603613649576105f29060043561464f565b60046040517f6697b232000000000000000000000000000000000000000000000000000000008152fd5b34610263576020806003193601126102635760043590613691615171565b5081600052600281526001600160a01b03916136b583604060002054161515615275565b600052600b81526040600020916006604051936136d185613f24565b6136da81614209565b85526136e860018201614209565b848601526136f860028201614209565b604086015261370960038201614209565b606086015261371a60048201614209565b6080860152600581015460a0860152015460ff8116151560c085015260081c1660e0830152610401604051928284938452830190613e91565b34610263576040366003190112610263576105f2600435613772613e7b565b9080600052600760205261378d6001604060002001546145a8565b6145ce565b34610263576020366003190112610263576004356137ae6144b9565b8060005260026020526001600160a01b03906137d2826040600020541615156150db565b80600052600e6020526137f360ff600e6040600020015460a01c1615615126565b80600052600e602052600e6040600020017401000000000000000000000000000000000000000060ff60a01b1982541617905561382f8161489c565b339216907f852d5d4a823318018cabc1f51b12ef417cefaa75696231006c99935c2b990150600080a4005b346102635760203660031901126102635760043567ffffffffffffffff81116102635760ff613893602061058a8194369060040161400b565b8101601081520301902054166040519015158152f35b346102635760203660031901126102635760043560005260076020526020600160406000200154604051908152f35b34610263576105f26138e936614029565b916146c7565b346102635760403660031901126102635767ffffffffffffffff6004356024358281116102635761392490369060040161400b565b9161392d6144b9565b81600052602091600283526139516001600160a01b036040600020541615156150db565b600052600e82526008604060002001918351918211610ae35761397483546141cf565b601f81116139f6575b5080601f83116001146139ad5750819293600092610a32575050600019600383901b1c191660019190911b179055005b90601f198316948460005282600020926000905b8782106139de575050836001959610610a6f57505050811b019055005b806001859682949686015181550195019301906139c1565b8360005281600020601f840160051c810191838510613a32575b601f0160051c01905b818110613a26575061397d565b60008155600101613a19565b9091508190613a10565b3461026357602036600319011261026357610257613a5b6004356151ae565b604051928392604084526040840190613e91565b3461026357604036600319011261026357613a88613e65565b602435613a948161489c565b33151580613b5d575b80613b2f575b613aff5781906001600160a01b03809416938491167f8c5be1e5ebec7d5bd14f71427d1e84f3dd0314c0f7b2291e5b200ac8c7c3b925600080a460005260046020526040600020906001600160a01b0319825416179055600080f35b60246040517fa9fbf51f000000000000000000000000000000000000000000000000000000008152336004820152fd5b506001600160a01b038116600052600560205260406000203360005260205260ff6040600020541615613aa3565b50336001600160a01b0382161415613a9d565b3461026357602036600319011261026357600435613b8d8161489c565b50600052600460205260206001600160a01b0360406000205416604051908152f35b346102635760003660031901126102635760405160008054613bd0816141cf565b80845290600190818116908115610c705750600114613bf95761040184610c0381860382613f96565b600080805292507f290decd9548b62a8d60345a988386fc84ba6bc95484008f6362f93160ef3e5635b828410613c3a575050508101602001610c0382610bf3565b80546020858701810191909152909301928101613c22565b3461026357602036600319011261026357600435613c6e6144b9565b8060005260026020526001600160a01b0390613c92826040600020541615156150db565b80600052600b602052613cb060ff6006604060002001541615615126565b80600052600b6020526006604060002001600160ff19825416179055613cd58161489c565b339216907f39858852dfeb2731909c1e5b973698dd12a5e54ab07cf24f5bb3ed593b31450a600080a4005b3461026357602036600319011261026357600435906001600160e01b0319821680920361026357817f7965db0b0000000000000000000000000000000000000000000000000000000060209314908115613d5c575b5015158152f35b7f4906490600000000000000000000000000000000000000000000000000000000811491508115613d8f575b5083613d55565b7f80ac58cd00000000000000000000000000000000000000000000000000000000811491508115613df3575b8115613dc9575b5083613d88565b7f01ffc9a70000000000000000000000000000000000000000000000000000000091501483613dc2565b7f5b5e139f0000000000000000000000000000000000000000000000000000000081149150613dbb565b60005b838110613e305750506000910152565b8181015183820152602001613e20565b90602091613e5981518092818552858086019101613e1d565b601f01601f1916010190565b600435906001600160a01b038216820361026357565b602435906001600160a01b038216820361026357565b9060e06001600160a01b0381613f04613ef2613ee0613ece613ebc8951610100808b528a0190613e40565b60208a015189820360208b0152613e40565b604089015188820360408a0152613e40565b60608801518782036060890152613e40565b60808701518682036080880152613e40565b9460a081015160a086015260c0810151151560c086015201511691015290565b610100810190811067ffffffffffffffff821117610ae357604052565b610200810190811067ffffffffffffffff821117610ae357604052565b60c0810190811067ffffffffffffffff821117610ae357604052565b6020810190811067ffffffffffffffff821117610ae357604052565b90601f8019910116810190811067ffffffffffffffff821117610ae357604052565b67ffffffffffffffff8111610ae357601f01601f191660200190565b929192613fe082613fb8565b91613fee6040519384613f96565b829481845281830111610263578281602093846000960137010152565b9080601f830112156102635781602061402693359101613fd4565b90565b6060906003190112610263576001600160a01b0390600435828116810361026357916024359081168103610263579060443590565b6020908160408183019282815285518094520193019160005b828110614085575050505090565b835185529381019392810192600101614077565b67ffffffffffffffff8111610ae35760051b60200190565b81601f82011215610263578035906140c882614099565b926040926140d884519586613f96565b808552602093848087019260051b8501019383851161026357858101925b858410614107575050505050505090565b67ffffffffffffffff84358181116102635783019160c09283601f19828a0301126102635785519061413882613f5e565b8a81013584811161026357898c6141519284010161400b565b82528681013584811161026357898c61416c9284010161400b565b8b83015260609485820135858111610263578a8d61418c9285010161400b565b88840152608095868301359084015260a09182810135958611610263578c966141ba8c89809985010161400b565b908501520135908201528152019301926140f6565b90600182811c921680156141ff575b60208310146141e957565b634e487b7160e01b600052602260045260246000fd5b91607f16916141de565b906040519182600082549261421d846141cf565b90818452600194858116908160001461428c5750600114614249575b505061424792500383613f96565b565b9093915060005260209081600020936000915b81831061427457505061424793508201013880614239565b8554888401850152948501948794509183019161425c565b91505061424794506020925060ff191682840152151560051b8201013880614239565b805482101561298c5760005260206000200190600090565b906142db8251610200808452830190613e40565b6142f16020918285015184820384860152613e40565b906143086040928386015185820385870152613e40565b61431e6060918287015186820384880152613e40565b916143356080938488015187820386890152613e40565b9261434c60a09485890151888203878a0152613e40565b9061438f61437b61436960c094858c01518b8203878d0152613e40565b60e08b01518a820360e08c0152613e40565b610100808b0151908a8303908b0152613e40565b9161012095868a015196898503908a01528651958685528585019386808960051b8801019901996000965b89881061442957505050505050505050506143fa915061014080850151908401526101608085015190840152610180808501519084830390850152613e40565b916101a080820151908301526101c06001600160a01b038183015116908301526101e080910151151591015290565b909192939495969798998980886001938f8a61449d6144858f6144658495614475928d601f19908a030190525197885190808952880190613e40565b888801518782038a890152613e40565b8b8701518682038d880152613e40565b8c8601518d8601528b8601518582038d870152613e40565b9301519101529d0198019801969a9998979594939291906143ba565b3360009081527fa70365933f78520ef41d6645ba61e509916296603327302d41466c063e8e260860205260409020547fa49807205ce4d355092ef5a8a18f56e8913cf4a201fbe287825b095693c217759060ff16156145155750565b604490604051907fe2517d3f0000000000000000000000000000000000000000000000000000000082523360048301526024820152fd5b3360009081527fa4bfd7afe708e2e87e7f0e2ad9b4d545417e0f795f57b5c5ab5d799c565a04f460205260409020547f9f2df0fed2c77648de5860a4cc508cd0818c85b8b8a1ab4ceeef8d981c8956a69060ff16156145155750565b80600052600760205260406000203360005260205260ff60406000205416156145155750565b9060009180835260076020526001600160a01b036040842092169182845260205260ff6040842054161560001461464a5780835260076020526040832082845260205260408320600160ff198254161790557f2f8788117e7eff1d82e926ec794901d17c78024a50270940304540a733656f0d339380a4600190565b505090565b9060009180835260076020526001600160a01b036040842092169182845260205260ff60408420541660001461464a578083526007602052604083208284526020526040832060ff1981541690557ff6391f5c32d9c69d2a47ea670b442974b53935d1edc7fd64eb21e047a839171b339380a4600190565b90916001600160a01b03809316928315614884576000928284528260209560028752604096848888205416968791331515806147d5575b509060027fddf252ad1be2c89b69c2b068fc378daa952ba7f163c4a11628f55a4df523b3ef928461479d575b858352600381528b83206001815401905586835252898120846001600160a01b031982541617905580a416928383036147635750505050565b6064945051927f64283d7b000000000000000000000000000000000000000000000000000000008452600484015260248301526044820152fd5b6147be87600052600460205260406000206001600160a01b03198154169055565b848352600381528b8320805460001901905561472a565b91939450915080614843575b156147f1578592918791386146fe565b87868861480e576024915190637e27328960e01b82526004820152fd5b60449151907f177e802f0000000000000000000000000000000000000000000000000000000082523360048301526024820152fd5b503387148015614868575b806147e157508582526004815233858984205416146147e1565b5086825260058152878220338352815260ff888320541661484e565b6024604051633250574960e11b815260006004820152fd5b8060005260026020526001600160a01b03604060002054169081156148bf575090565b60249060405190637e27328960e01b82526004820152fd5b813b6148e4575b50505050565b6001600160a01b0394919293948093169360405193630a85bd0160e11b928386523360048701521660248501526044840152608060648401528261492e6020966084830190613e40565b039285816000958187895af18491816149d8575b506149a1575050503d600014614999573d61495c81613fb8565b9061496a6040519283613f96565b81528091843d92013e5b805192836149945760248360405190633250574960e11b82526004820152fd5b019050fd5b506060614974565b9092506001600160e01b031991945016036149c05750388080806148de565b60249060405190633250574960e11b82526004820152fd5b9091508681813d8311614a15575b6149f08183613f96565b81010312614a1157516001600160e01b031981168103614a11579038614942565b8480fd5b503d6149e6565b15614a2357565b606460405162461bcd60e51b815260206004820152601760248201527f496e76616c69642073747564656e7420616464726573730000000000000000006044820152fd5b6000198114614a765760010190565b634e487b7160e01b600052601160045260246000fd5b805468010000000000000000811015610ae357614aae916001820181556142af565b819291549060031b91821b91600019901b1916179055565b600a5460009291614ad6826141cf565b91600190818116908115614b425750600114614af157505050565b9091929350600a6000527fc65a7bb8d6351c1cf70c95a316cc6a92839c986682d98bc35f958f4883f9d2a8906000915b848310614b2f575050500190565b8181602092548587015201920191614b21565b60ff191683525050811515909102019150565b614b6d90602060405192828480945193849201613e1d565b810103902090565b6040805192614b8384613f7a565b6000908185526001600160a01b0394858516948515614da35782845260209660028852858520541683878215159283614d6b575b81885260038b528888206001815401905582885260028b52888820826001600160a01b03198254161790557fddf252ad1be2c89b69c2b068fc378daa952ba7f163c4a11628f55a4df523b3ef8880a4614d3b573b614c18575b505050505050565b85614c56918596979894955180938192630a85bd0160e11b968784523360048501528960248501526044840152608060648401526084830190613e40565b0381878a5af1849181614cfb575b50614cc2575050503d600014614cba573d614c7e81613fb8565b90614c8b84519283613f96565b81528091853d92013e5b80519384614cb457602484845190633250574960e11b82526004820152fd5b84925001fd5b506060614c95565b9092506001600160e01b03199195501603614ce4575050388080808080614c10565b602492505190633250574960e11b82526004820152fd5b9091508781813d8311614d34575b614d138183613f96565b81010312614a1157516001600160e01b031981168103614a11579038614c64565b503d614d09565b6024848651907f73c6ac6e0000000000000000000000000000000000000000000000000000000082526004820152fd5b614d8c83600052600460205260406000206001600160a01b03198154169055565b80885260038b528888208054600019019055614bb7565b602484865190633250574960e11b82526004820152fd5b91909160009080825260209160068352604081209085519067ffffffffffffffff8211614f1c57614deb83546141cf565b601f8111614ed9575b508490601f8311600114614e5557907ff8e1a15aba9398e019f0b49df1a4fde98ee17ae345cb5f6b5e2c27f5033e8ce7969783614e4a575b50508160011b916000199060031b1c19161790555b604051908152a1565b015190503880614e2c565b9196601f198816848452868420935b818110614ec257509160019391897ff8e1a15aba9398e019f0b49df1a4fde98ee17ae345cb5f6b5e2c27f5033e8ce7999a9410614ea9575b505050811b019055614e41565b015160001960f88460031b161c19169055388080614e9c565b929387600181928786015181550195019301614e64565b838252858220601f840160051c810191878510614f12575b601f0160051c01905b818110614f075750614df4565b828155600101614efa565b9091508190614ef1565b80634e487b7160e01b602492526041600452fd5b60ff60085416614f3c57565b60046040517fd93c0665000000000000000000000000000000000000000000000000000000008152fd5b806000917a184f03e93ff9f4daa797ed6e38ed64bf6a1f010000000000000000808210156150cd575b506d04ee2d6d415b85acef8100000000808310156150be575b50662386f26fc10000808310156150af575b506305f5e100808310156150a0575b5061271080831015615091575b506064821015615081575b600a80921015615077575b60019081602181860195614fff87613fb8565b9661500d6040519889613f96565b80885261501c601f1991613fb8565b01366020890137860101905b615034575b5050505090565b600019019083907f30313233343536373839616263646566000000000000000000000000000000008282061a83530491821561507257919082615028565b61502d565b9160010191614fec565b9190606460029104910191614fe1565b60049193920491019138614fd6565b60089193920491019138614fc9565b60109193920491019138614fba565b60209193920491019138614fa8565b604093508104915038614f8f565b156150e257565b606460405162461bcd60e51b815260206004820152601a60248201527f436572746966696361746520646f6573206e6f742065786973740000000000006044820152fd5b1561512d57565b606460405162461bcd60e51b815260206004820152601b60248201527f436572746966696361746520616c7265616479207265766f6b656400000000006044820152fd5b6040519061517e82613f24565b600060e0836060808252806020830152806040830152808083015260808201528260a08201528260c08201520152565b6151b6615171565b9060005260026020526001600160a01b039081604060002054161561526e5750600b60205260406000206006604051916151ef83613f24565b6151f881614209565b835261520660018201614209565b602084015261521760028201614209565b604084015261522860038201614209565b606084015261523960048201614209565b6080840152600581015460a084015201549160ff83161515928360c084015260081c1660e0820152809161526e575090600190565b9160009150565b1561527c57565b606460405162461bcd60e51b815260206004820152601460248201527f546f6b656e20646f6573206e6f742065786973740000000000000000000000006044820152fd5b805182101561298c5760209160051b010190565b91908201809211614a7657565b908151156153ff5760009182835b82518110156153e957608061530482856152c0565b510151805160208092012060408051928184019380851067ffffffffffffffff861117610ae3577f7b2ab94bb7d45041581aa3757ae020084674ccad6f75dc3750eb2ea8a92c4e9a947f500000000000000000000000000000000000000000000000000000000000000093526001815201521461538a575b61538590614a67565b6152ef565b9093606061539883856152c0565b51015160a095866153a985876152c0565b51015191828102928184041490151715614a76576153cd6153e192615385946152d4565b966153d885876152c0565b510151906152d4565b91905061537c565b509192905081156153f8570490565b5050600090565b60009150565b6040519061541282613f41565b60006101e083606080825280602083015280604083015280808301528060808301528060a08301528060c08301528060e083015280610100830152806101208301528361014083015283610160830152610180820152826101a0820152826101c08201520152565b615482615405565b9060005260026020526001600160a01b0360406000205416156156645750600e6020526040600020604051906154b782613f41565b6154c081614209565b82526154ce60018201614209565b60208301526154df60028201614209565b60408301526154f060038201614209565b606083015261550160048201614209565b608083015261551260058201614209565b60a083015261552360068201614209565b60c083015261553460078201614209565b60e083015261554560088201614209565b61010083015260098101805461555a81614099565b916155686040519384613f96565b818352602083019060005260206000206000915b8383106155f3575050505060ff91600e91610120850152600a810154610140850152600b8101546101608501526155b5600c8201614209565b610180850152600d8101546101a085015201546001600160a01b0381166101c084015260a01c16151590816101e0820152809161526e575090600190565b6006602060019260405161560681613f5e565b61560f86614209565b815261561c858701614209565b8382015261562c60028701614209565b60408201526003860154606082015261564760048701614209565b6080820152600586015460a082015281520192019201919061557c565b9060009056fea2646970667358221220b2381ffe9714cf401e400a134eae03d7212a6b2612db03456d4e9d8dff435bd164736f6c634300081400332f8788117e7eff1d82e926ec794901d17c78024a50270940304540a733656f0d","opcodes":"PUSH1 0x80 CALLVALUE PUSH3 0x346 JUMPI PUSH1 0x1 PUSH1 0x1 PUSH1 0x40 SHL SUB SWAP1 PUSH1 0x40 SWAP1 DUP1 DUP3 ADD DUP4 DUP2 GT DUP3 DUP3 LT OR PUSH3 0x330 JUMPI DUP3 MSTORE PUSH1 0x12 DUP2 MSTORE PUSH1 0x20 SWAP3 PUSH18 0x5669676E616E204365727469666963617465 PUSH1 0x70 SHL DUP5 DUP4 ADD MSTORE DUP3 MLOAD DUP4 DUP2 ADD DUP2 DUP2 LT DUP4 DUP3 GT OR PUSH3 0x330 JUMPI DUP5 MSTORE PUSH1 0x6 DUP2 MSTORE PUSH6 0x2B24A3A720A7 PUSH1 0xD1 SHL DUP6 DUP3 ADD MSTORE DUP3 MLOAD SWAP1 DUP3 DUP3 GT PUSH3 0x330 JUMPI PUSH1 0x0 DUP1 SLOAD SWAP3 PUSH1 0x1 SWAP6 DUP7 DUP6 DUP2 SHR SWAP6 AND DUP1 ISZERO PUSH3 0x325 JUMPI JUMPDEST DUP10 DUP7 LT EQ PUSH3 0x311 JUMPI DUP2 SWAP1 PUSH1 0x1F SWAP6 DUP7 DUP2 GT PUSH3 0x2BE JUMPI JUMPDEST POP DUP10 SWAP1 DUP7 DUP4 GT PUSH1 0x1 EQ PUSH3 0x25A JUMPI DUP5 SWAP3 PUSH3 0x24E JUMPI JUMPDEST POP POP PUSH1 0x0 NOT PUSH1 0x3 DUP4 SWAP1 SHL SHR NOT AND SWAP1 DUP7 SHL OR DUP2 SSTORE JUMPDEST DUP2 MLOAD SWAP4 DUP5 GT PUSH3 0x23A JUMPI DUP5 SLOAD DUP6 DUP2 DUP2 SHR SWAP2 AND DUP1 ISZERO PUSH3 0x22F JUMPI JUMPDEST DUP9 DUP3 LT EQ PUSH3 0x21B JUMPI DUP4 DUP2 GT PUSH3 0x1D3 JUMPI JUMPDEST POP DUP7 SWAP3 DUP5 GT PUSH1 0x1 EQ PUSH3 0x16D JUMPI DUP4 SWAP5 SWAP6 SWAP7 POP SWAP3 PUSH3 0x161 JUMPI JUMPDEST POP POP PUSH1 0x0 NOT PUSH1 0x3 DUP4 SWAP1 SHL SHR NOT AND SWAP1 DUP3 SHL OR SWAP1 SSTORE JUMPDEST PUSH1 0xFF NOT PUSH1 0x8 SLOAD AND PUSH1 0x8 SSTORE PUSH3 0x13A CALLER PUSH3 0x34B JUMP JUMPDEST POP PUSH3 0x146 CALLER PUSH3 0x3CC JUMP JUMPDEST POP PUSH3 0x152 CALLER PUSH3 0x46F JUMP JUMPDEST POP MLOAD PUSH2 0x56A0 SWAP1 DUP2 PUSH3 0x50E DUP3 CODECOPY RETURN JUMPDEST ADD MLOAD SWAP1 POP CODESIZE DUP1 PUSH3 0x111 JUMP JUMPDEST SWAP2 SWAP1 PUSH1 0x1F NOT DUP5 AND SWAP7 DUP6 DUP5 MSTORE DUP1 DUP5 KECCAK256 SWAP4 SWAP1 JUMPDEST DUP9 DUP3 LT PUSH3 0x1BB JUMPI POP POP DUP4 DUP6 SWAP7 SWAP8 LT PUSH3 0x1A1 JUMPI JUMPDEST POP POP POP DUP2 SHL ADD SWAP1 SSTORE PUSH3 0x125 JUMP JUMPDEST ADD MLOAD PUSH1 0x0 NOT PUSH1 0xF8 DUP5 PUSH1 0x3 SHL AND SHR NOT AND SWAP1 SSTORE CODESIZE DUP1 DUP1 PUSH3 0x193 JUMP JUMPDEST DUP1 DUP8 DUP6 SWAP7 DUP3 SWAP5 SWAP7 DUP7 ADD MLOAD DUP2 SSTORE ADD SWAP6 ADD SWAP4 ADD SWAP1 PUSH3 0x17E JUMP JUMPDEST DUP6 DUP3 MSTORE DUP8 DUP3 KECCAK256 DUP5 DUP1 DUP8 ADD PUSH1 0x5 SHR DUP3 ADD SWAP3 DUP11 DUP9 LT PUSH3 0x211 JUMPI JUMPDEST ADD PUSH1 0x5 SHR ADD SWAP1 DUP7 SWAP1 JUMPDEST DUP3 DUP2 LT PUSH3 0x205 JUMPI POP POP PUSH3 0xF8 JUMP JUMPDEST DUP4 DUP2 SSTORE ADD DUP7 SWAP1 PUSH3 0x1F5 JUMP JUMPDEST SWAP3 POP DUP2 SWAP3 PUSH3 0x1EC JUMP JUMPDEST PUSH4 0x4E487B71 PUSH1 0xE0 SHL DUP3 MSTORE PUSH1 0x22 PUSH1 0x4 MSTORE PUSH1 0x24 DUP3 REVERT JUMPDEST SWAP1 PUSH1 0x7F AND SWAP1 PUSH3 0xE6 JUMP JUMPDEST PUSH4 0x4E487B71 PUSH1 0xE0 SHL DUP2 MSTORE PUSH1 0x41 PUSH1 0x4 MSTORE PUSH1 0x24 SWAP1 REVERT JUMPDEST ADD MLOAD SWAP1 POP CODESIZE DUP1 PUSH3 0xB8 JUMP JUMPDEST DUP5 DUP1 MSTORE DUP11 DUP6 KECCAK256 DUP10 SWAP5 POP SWAP2 SWAP1 PUSH1 0x1F NOT DUP5 AND DUP7 JUMPDEST DUP14 DUP3 DUP3 LT PUSH3 0x2A7 JUMPI POP POP DUP5 GT PUSH3 0x28D JUMPI JUMPDEST POP POP POP DUP2 SHL ADD DUP2 SSTORE PUSH3 0xCC JUMP JUMPDEST ADD MLOAD PUSH1 0x0 NOT PUSH1 0xF8 DUP5 PUSH1 0x3 SHL AND SHR NOT AND SWAP1 SSTORE CODESIZE DUP1 DUP1 PUSH3 0x27F JUMP JUMPDEST DUP4 DUP6 ADD MLOAD DUP7 SSTORE DUP13 SWAP8 SWAP1 SWAP6 ADD SWAP5 SWAP4 DUP5 ADD SWAP4 ADD PUSH3 0x26C JUMP JUMPDEST SWAP1 SWAP2 POP DUP4 DUP1 MSTORE DUP10 DUP5 KECCAK256 DUP7 DUP1 DUP6 ADD PUSH1 0x5 SHR DUP3 ADD SWAP3 DUP13 DUP7 LT PUSH3 0x307 JUMPI JUMPDEST SWAP2 DUP11 SWAP2 DUP7 SWAP6 SWAP5 SWAP4 ADD PUSH1 0x5 SHR ADD SWAP2 JUMPDEST DUP3 DUP2 LT PUSH3 0x2F8 JUMPI POP POP PUSH3 0xA2 JUMP JUMPDEST DUP7 DUP2 SSTORE DUP6 SWAP5 POP DUP11 SWAP2 ADD PUSH3 0x2E8 JUMP JUMPDEST SWAP3 POP DUP2 SWAP3 PUSH3 0x2DA JUMP JUMPDEST PUSH4 0x4E487B71 PUSH1 0xE0 SHL DUP4 MSTORE PUSH1 0x22 PUSH1 0x4 MSTORE PUSH1 0x24 DUP4 REVERT JUMPDEST SWAP5 PUSH1 0x7F AND SWAP5 PUSH3 0x8B JUMP JUMPDEST PUSH4 0x4E487B71 PUSH1 0xE0 SHL PUSH1 0x0 MSTORE PUSH1 0x41 PUSH1 0x4 MSTORE PUSH1 0x24 PUSH1 0x0 REVERT JUMPDEST PUSH1 0x0 DUP1 REVERT JUMPDEST PUSH1 0x1 PUSH1 0x1 PUSH1 0xA0 SHL SUB AND PUSH1 0x0 DUP2 DUP2 MSTORE PUSH32 0x6D5257204EBE7D88FD91AE87941CB2DD9D8062B64AE5A2BD2D28EC40B9FBF6DF PUSH1 0x20 MSTORE PUSH1 0x40 DUP2 KECCAK256 SLOAD SWAP1 SWAP2 SWAP1 PUSH1 0xFF AND PUSH3 0x3C8 JUMPI DUP2 DUP1 MSTORE PUSH1 0x7 PUSH1 0x20 MSTORE PUSH1 0x40 DUP3 KECCAK256 DUP2 DUP4 MSTORE PUSH1 0x20 MSTORE PUSH1 0x40 DUP3 KECCAK256 PUSH1 0x1 PUSH1 0xFF NOT DUP3 SLOAD AND OR SWAP1 SSTORE CALLER SWAP2 PUSH1 0x0 DUP1 MLOAD PUSH1 0x20 PUSH3 0x5BAE DUP4 CODECOPY DUP2 MLOAD SWAP2 MSTORE DUP2 DUP1 LOG4 PUSH1 0x1 SWAP1 JUMP JUMPDEST POP SWAP1 JUMP JUMPDEST PUSH1 0x1 PUSH1 0x1 PUSH1 0xA0 SHL SUB AND PUSH1 0x0 DUP2 DUP2 MSTORE PUSH32 0xA70365933F78520EF41D6645BA61E509916296603327302D41466C063E8E2608 PUSH1 0x20 MSTORE PUSH1 0x40 DUP2 KECCAK256 SLOAD SWAP1 SWAP2 SWAP1 PUSH32 0xA49807205CE4D355092EF5A8A18F56E8913CF4A201FBE287825B095693C21775 SWAP1 PUSH1 0xFF AND PUSH3 0x46A JUMPI DUP1 DUP4 MSTORE PUSH1 0x7 PUSH1 0x20 MSTORE PUSH1 0x40 DUP4 KECCAK256 DUP3 DUP5 MSTORE PUSH1 0x20 MSTORE PUSH1 0x40 DUP4 KECCAK256 PUSH1 0x1 PUSH1 0xFF NOT DUP3 SLOAD AND OR SWAP1 SSTORE PUSH1 0x0 DUP1 MLOAD PUSH1 0x20 PUSH3 0x5BAE DUP4 CODECOPY DUP2 MLOAD SWAP2 MSTORE CALLER SWAP4 DUP1 LOG4 PUSH1 0x1 SWAP1 JUMP JUMPDEST POP POP SWAP1 JUMP JUMPDEST PUSH1 0x1 PUSH1 0x1 PUSH1 0xA0 SHL SUB AND PUSH1 0x0 DUP2 DUP2 MSTORE PUSH32 0xA4BFD7AFE708E2E87E7F0E2AD9B4D545417E0F795F57B5C5AB5D799C565A04F4 PUSH1 0x20 MSTORE PUSH1 0x40 DUP2 KECCAK256 SLOAD SWAP1 SWAP2 SWAP1 PUSH32 0x9F2DF0FED2C77648DE5860A4CC508CD0818C85B8B8A1AB4CEEEF8D981C8956A6 SWAP1 PUSH1 0xFF AND PUSH3 0x46A JUMPI DUP1 DUP4 MSTORE PUSH1 0x7 PUSH1 0x20 MSTORE PUSH1 0x40 DUP4 KECCAK256 DUP3 DUP5 MSTORE PUSH1 0x20 MSTORE PUSH1 0x40 DUP4 KECCAK256 PUSH1 0x1 PUSH1 0xFF NOT DUP3 SLOAD AND OR SWAP1 SSTORE PUSH1 0x0 DUP1 MLOAD PUSH1 0x20 PUSH3 0x5BAE DUP4 CODECOPY DUP2 MLOAD SWAP2 MSTORE CALLER SWAP4 DUP1 LOG4 PUSH1 0x1 SWAP1 JUMP INVALID PUSH1 0x80 DUP1 PUSH1 0x40 MSTORE PUSH1 0x4 CALLDATASIZE LT ISZERO PUSH2 0x13 JUMPI PUSH1 0x0 DUP1 REVERT JUMPDEST PUSH1 0x0 CALLDATALOAD PUSH1 0xE0 SHR SWAP1 DUP2 PUSH4 0x1FFC9A7 EQ PUSH2 0x3D00 JUMPI POP DUP1 PUSH4 0x6F5497E EQ PUSH2 0x3C52 JUMPI DUP1 PUSH4 0x6FDDE03 EQ PUSH2 0x3BAF JUMPI DUP1 PUSH4 0x81812FC EQ PUSH2 0x3B70 JUMPI DUP1 PUSH4 0x95EA7B3 EQ PUSH2 0x3A6F JUMPI DUP1 PUSH4 0x1692A942 EQ PUSH2 0x3A3C JUMPI DUP1 PUSH4 0x1F7CA144 EQ PUSH2 0x551 JUMPI DUP1 PUSH4 0x20D993B7 EQ PUSH2 0x38EF JUMPI DUP1 PUSH4 0x234F8D67 EQ PUSH2 0x385A JUMPI DUP1 PUSH4 0x23B872DD EQ PUSH2 0x38D8 JUMPI DUP1 PUSH4 0x248A9CA3 EQ PUSH2 0x38A9 JUMPI DUP1 PUSH4 0x2B0EC45E EQ PUSH2 0x385A JUMPI DUP1 PUSH4 0x2B62A74C EQ PUSH2 0x3792 JUMPI DUP1 PUSH4 0x2F2FF15D EQ PUSH2 0x3753 JUMPI DUP1 PUSH4 0x31494BBB EQ PUSH2 0x3673 JUMPI DUP1 PUSH4 0x36568ABE EQ PUSH2 0x3614 JUMPI DUP1 PUSH4 0x3B01AA48 EQ PUSH2 0x359C JUMPI DUP1 PUSH4 0x3F4BA83A EQ PUSH2 0x351A JUMPI DUP1 PUSH4 0x4055E0E1 EQ PUSH2 0x1C7F JUMPI DUP1 PUSH4 0x42842E0E EQ PUSH2 0x1C51 JUMPI DUP1 PUSH4 0x5153A7D2 EQ PUSH2 0x1AB5 JUMPI DUP1 PUSH4 0x55F804B3 EQ PUSH2 0x193B JUMPI DUP1 PUSH4 0x5C975ABB EQ PUSH2 0x1918 JUMPI DUP1 PUSH4 0x6352211E EQ PUSH2 0x18E9 JUMPI DUP1 PUSH4 0x663B3E22 EQ PUSH2 0x1800 JUMPI DUP1 PUSH4 0x70A08231 EQ PUSH2 0x178F JUMPI DUP1 PUSH4 0x75B238FC EQ PUSH2 0x1754 JUMPI DUP1 PUSH4 0x8456CB59 EQ PUSH2 0x16FA JUMPI DUP1 PUSH4 0x91D14854 EQ PUSH2 0x16AC JUMPI DUP1 PUSH4 0x929C01FD EQ PUSH2 0xC97 JUMPI DUP1 PUSH4 0x95D89B41 EQ PUSH2 0xBB8 JUMPI DUP1 PUSH4 0x9D093AFA EQ PUSH2 0x905 JUMPI DUP1 PUSH4 0xA217FDDF EQ PUSH2 0x8E9 JUMPI DUP1 PUSH4 0xA22CB465 EQ PUSH2 0x823 JUMPI DUP1 PUSH4 0xA6F569FC EQ PUSH2 0x7E0 JUMPI DUP1 PUSH4 0xB88D4FDE EQ PUSH2 0x775 JUMPI DUP1 PUSH4 0xB8DCF6C8 EQ PUSH2 0x72D JUMPI DUP1 PUSH4 0xBD1F5F31 EQ PUSH2 0x6DE JUMPI DUP1 PUSH4 0xC3934F0E EQ PUSH2 0x688 JUMPI DUP1 PUSH4 0xC87B56DD EQ PUSH2 0x62F JUMPI DUP1 PUSH4 0xD5391393 EQ PUSH2 0x5F4 JUMPI DUP1 PUSH4 0xD547741F EQ PUSH2 0x5B3 JUMPI DUP1 PUSH4 0xDE7C3A39 EQ PUSH2 0x551 JUMPI DUP1 PUSH4 0xE985E9C5 EQ PUSH2 0x4FA JUMPI DUP1 PUSH4 0xEBC63BC0 EQ PUSH2 0x476 JUMPI DUP1 PUSH4 0xF31A9D17 EQ PUSH2 0x268 JUMPI PUSH4 0xFE8AA2C5 EQ PUSH2 0x224 JUMPI PUSH1 0x0 DUP1 REVERT JUMPDEST CALLVALUE PUSH2 0x263 JUMPI PUSH1 0x20 CALLDATASIZE PUSH1 0x3 NOT ADD SLT PUSH2 0x263 JUMPI PUSH2 0x257 PUSH2 0x243 PUSH1 0x4 CALLDATALOAD PUSH2 0x547A JUMP JUMPDEST PUSH1 0x40 MLOAD SWAP3 DUP4 SWAP3 PUSH1 0x40 DUP5 MSTORE PUSH1 0x40 DUP5 ADD SWAP1 PUSH2 0x42C7 JUMP JUMPDEST SWAP1 ISZERO ISZERO PUSH1 0x20 DUP4 ADD MSTORE SUB SWAP1 RETURN JUMPDEST PUSH1 0x0 DUP1 REVERT JUMPDEST CALLVALUE PUSH2 0x263 JUMPI PUSH1 0x20 CALLDATASIZE PUSH1 0x3 NOT ADD SLT PUSH2 0x263 JUMPI PUSH1 0x4 CALLDATALOAD PUSH2 0x284 PUSH2 0x5405 JUMP JUMPDEST POP DUP1 PUSH1 0x0 MSTORE PUSH1 0x2 PUSH1 0x20 MSTORE PUSH2 0x2A7 PUSH1 0x1 PUSH1 0x1 PUSH1 0xA0 SHL SUB PUSH1 0x40 PUSH1 0x0 KECCAK256 SLOAD AND ISZERO ISZERO PUSH2 0x5275 JUMP JUMPDEST PUSH1 0x0 MSTORE PUSH1 0xE PUSH1 0x20 MSTORE PUSH1 0x40 PUSH1 0x0 KECCAK256 PUSH1 0x40 MLOAD PUSH2 0x2C0 DUP2 PUSH2 0x3F41 JUMP JUMPDEST PUSH2 0x2C9 DUP3 PUSH2 0x4209 JUMP JUMPDEST DUP2 MSTORE PUSH2 0x2D7 PUSH1 0x1 DUP4 ADD PUSH2 0x4209 JUMP JUMPDEST PUSH1 0x20 DUP3 ADD MSTORE PUSH2 0x2E8 PUSH1 0x2 DUP4 ADD PUSH2 0x4209 JUMP JUMPDEST PUSH1 0x40 DUP3 ADD MSTORE PUSH2 0x2F9 PUSH1 0x3 DUP4 ADD PUSH2 0x4209 JUMP JUMPDEST PUSH1 0x60 DUP3 ADD MSTORE PUSH2 0x30A PUSH1 0x4 DUP4 ADD PUSH2 0x4209 JUMP JUMPDEST PUSH1 0x80 DUP3 ADD MSTORE PUSH2 0x31B PUSH1 0x5 DUP4 ADD PUSH2 0x4209 JUMP JUMPDEST PUSH1 0xA0 DUP3 ADD MSTORE PUSH2 0x32C PUSH1 0x6 DUP4 ADD PUSH2 0x4209 JUMP JUMPDEST PUSH1 0xC0 DUP3 ADD MSTORE PUSH2 0x33D PUSH1 0x7 DUP4 ADD PUSH2 0x4209 JUMP JUMPDEST PUSH1 0xE0 DUP3 ADD MSTORE PUSH2 0x34E PUSH1 0x8 DUP4 ADD PUSH2 0x4209 JUMP JUMPDEST PUSH2 0x100 DUP3 ADD MSTORE PUSH1 0x9 DUP3 ADD DUP1 SLOAD PUSH2 0x363 DUP2 PUSH2 0x4099 JUMP JUMPDEST SWAP2 PUSH2 0x371 PUSH1 0x40 MLOAD SWAP4 DUP5 PUSH2 0x3F96 JUMP JUMPDEST DUP2 DUP4 MSTORE PUSH1 0x20 DUP4 ADD SWAP1 PUSH1 0x0 MSTORE PUSH1 0x20 PUSH1 0x0 KECCAK256 PUSH1 0x0 SWAP2 JUMPDEST DUP4 DUP4 LT PUSH2 0x405 JUMPI PUSH2 0x401 DUP7 PUSH1 0xFF PUSH1 0xE DUP11 DUP10 PUSH2 0x120 DUP6 ADD MSTORE PUSH1 0xA DUP2 ADD SLOAD PUSH2 0x140 DUP6 ADD MSTORE PUSH1 0xB DUP2 ADD SLOAD PUSH2 0x160 DUP6 ADD MSTORE PUSH2 0x3BE PUSH1 0xC DUP3 ADD PUSH2 0x4209 JUMP JUMPDEST PUSH2 0x180 DUP6 ADD MSTORE PUSH1 0xD DUP2 ADD SLOAD PUSH2 0x1A0 DUP6 ADD MSTORE ADD SLOAD PUSH1 0x1 PUSH1 0x1 PUSH1 0xA0 SHL SUB DUP2 AND PUSH2 0x1C0 DUP5 ADD MSTORE PUSH1 0xA0 SHR AND ISZERO ISZERO PUSH2 0x1E0 DUP3 ADD MSTORE PUSH1 0x40 MLOAD SWAP2 DUP3 SWAP2 PUSH1 0x20 DUP4 MSTORE PUSH1 0x20 DUP4 ADD SWAP1 PUSH2 0x42C7 JUMP JUMPDEST SUB SWAP1 RETURN JUMPDEST PUSH1 0x6 PUSH1 0x20 PUSH1 0x1 SWAP3 PUSH1 0x40 MLOAD PUSH2 0x418 DUP2 PUSH2 0x3F5E JUMP JUMPDEST PUSH2 0x421 DUP7 PUSH2 0x4209 JUMP JUMPDEST DUP2 MSTORE PUSH2 0x42E DUP6 DUP8 ADD PUSH2 0x4209 JUMP JUMPDEST DUP4 DUP3 ADD MSTORE PUSH2 0x43E PUSH1 0x2 DUP8 ADD PUSH2 0x4209 JUMP JUMPDEST PUSH1 0x40 DUP3 ADD MSTORE PUSH1 0x3 DUP7 ADD SLOAD PUSH1 0x60 DUP3 ADD MSTORE PUSH2 0x459 PUSH1 0x4 DUP8 ADD PUSH2 0x4209 JUMP JUMPDEST PUSH1 0x80 DUP3 ADD MSTORE PUSH1 0x5 DUP7 ADD SLOAD PUSH1 0xA0 DUP3 ADD MSTORE DUP2 MSTORE ADD SWAP3 ADD SWAP3 ADD SWAP2 SWAP1 PUSH2 0x385 JUMP JUMPDEST CALLVALUE PUSH2 0x263 JUMPI PUSH1 0x20 DUP1 PUSH1 0x3 NOT CALLDATASIZE ADD SLT PUSH2 0x263 JUMPI PUSH1 0x1 PUSH1 0x1 PUSH1 0xA0 SHL SUB PUSH2 0x498 PUSH2 0x3E65 JUMP JUMPDEST AND PUSH1 0x0 MSTORE PUSH1 0xC DUP2 MSTORE PUSH1 0x40 PUSH1 0x0 KECCAK256 SWAP1 PUSH1 0x40 MLOAD SWAP1 DUP2 DUP2 DUP5 SLOAD SWAP2 DUP3 DUP2 MSTORE ADD SWAP4 PUSH1 0x0 MSTORE DUP2 PUSH1 0x0 KECCAK256 SWAP2 PUSH1 0x0 SWAP1 JUMPDEST DUP3 DUP3 LT PUSH2 0x4E3 JUMPI PUSH2 0x401 DUP6 PUSH2 0x4D7 DUP2 DUP10 SUB DUP3 PUSH2 0x3F96 JUMP JUMPDEST PUSH1 0x40 MLOAD SWAP2 DUP3 SWAP2 DUP3 PUSH2 0x405E JUMP JUMPDEST DUP4 SLOAD DUP7 MSTORE SWAP5 DUP6 ADD SWAP5 PUSH1 0x1 SWAP4 DUP5 ADD SWAP4 SWAP1 SWAP2 ADD SWAP1 PUSH2 0x4C0 JUMP JUMPDEST CALLVALUE PUSH2 0x263 JUMPI PUSH1 0x40 CALLDATASIZE PUSH1 0x3 NOT ADD SLT PUSH2 0x263 JUMPI PUSH2 0x513 PUSH2 0x3E65 JUMP JUMPDEST PUSH2 0x51B PUSH2 0x3E7B JUMP JUMPDEST SWAP1 PUSH1 0x1 PUSH1 0x1 PUSH1 0xA0 SHL SUB DUP1 SWAP2 AND PUSH1 0x0 MSTORE PUSH1 0x5 PUSH1 0x20 MSTORE PUSH1 0x40 PUSH1 0x0 KECCAK256 SWAP2 AND PUSH1 0x0 MSTORE PUSH1 0x20 MSTORE PUSH1 0x20 PUSH1 0xFF PUSH1 0x40 PUSH1 0x0 KECCAK256 SLOAD AND PUSH1 0x40 MLOAD SWAP1 ISZERO ISZERO DUP2 MSTORE RETURN JUMPDEST CALLVALUE PUSH2 0x263 JUMPI PUSH1 0x20 CALLDATASIZE PUSH1 0x3 NOT ADD SLT PUSH2 0x263 JUMPI PUSH1 0x4 CALLDATALOAD PUSH8 0xFFFFFFFFFFFFFFFF DUP2 GT PUSH2 0x263 JUMPI PUSH1 0xFF PUSH2 0x59D PUSH1 0x20 PUSH2 0x58A DUP2 SWAP5 CALLDATASIZE SWAP1 PUSH1 0x4 ADD PUSH2 0x400B JUMP JUMPDEST DUP2 PUSH1 0x40 MLOAD SWAP4 DUP3 DUP6 DUP1 SWAP5 MLOAD SWAP4 DUP5 SWAP3 ADD PUSH2 0x3E1D JUMP JUMPDEST DUP2 ADD PUSH1 0x11 DUP2 MSTORE SUB ADD SWAP1 KECCAK256 SLOAD AND PUSH1 0x40 MLOAD SWAP1 ISZERO ISZERO DUP2 MSTORE RETURN JUMPDEST CALLVALUE PUSH2 0x263 JUMPI PUSH1 0x40 CALLDATASIZE PUSH1 0x3 NOT ADD SLT PUSH2 0x263 JUMPI PUSH2 0x5F2 PUSH1 0x4 CALLDATALOAD PUSH2 0x5D2 PUSH2 0x3E7B JUMP JUMPDEST SWAP1 DUP1 PUSH1 0x0 MSTORE PUSH1 0x7 PUSH1 0x20 MSTORE PUSH2 0x5ED PUSH1 0x1 PUSH1 0x40 PUSH1 0x0 KECCAK256 ADD SLOAD PUSH2 0x45A8 JUMP JUMPDEST PUSH2 0x464F JUMP JUMPDEST STOP JUMPDEST CALLVALUE PUSH2 0x263 JUMPI PUSH1 0x0 CALLDATASIZE PUSH1 0x3 NOT ADD SLT PUSH2 0x263 JUMPI PUSH1 0x20 PUSH1 0x40 MLOAD PUSH32 0x9F2DF0FED2C77648DE5860A4CC508CD0818C85B8B8A1AB4CEEEF8D981C8956A6 DUP2 MSTORE RETURN JUMPDEST CALLVALUE PUSH2 0x263 JUMPI PUSH1 0x20 CALLDATASIZE PUSH1 0x3 NOT ADD SLT PUSH2 0x263 JUMPI PUSH1 0x4 CALLDATALOAD PUSH2 0x64C DUP2 PUSH2 0x489C JUMP JUMPDEST POP PUSH1 0x0 MSTORE PUSH1 0x6 PUSH1 0x20 MSTORE PUSH2 0x401 PUSH2 0x665 PUSH1 0x40 PUSH1 0x0 KECCAK256 PUSH2 0x4209 JUMP JUMPDEST PUSH1 0x0 PUSH1 0x40 MLOAD PUSH2 0x673 DUP2 PUSH2 0x3F7A JUMP JUMPDEST MSTORE PUSH1 0x40 MLOAD SWAP2 DUP3 SWAP2 PUSH1 0x20 DUP4 MSTORE PUSH1 0x20 DUP4 ADD SWAP1 PUSH2 0x3E40 JUMP JUMPDEST CALLVALUE PUSH2 0x263 JUMPI PUSH1 0x40 CALLDATASIZE PUSH1 0x3 NOT ADD SLT PUSH2 0x263 JUMPI PUSH2 0x6A1 PUSH2 0x3E65 JUMP JUMPDEST PUSH1 0x1 PUSH1 0x1 PUSH1 0xA0 SHL SUB PUSH1 0x24 CALLDATALOAD SWAP2 AND PUSH1 0x0 MSTORE PUSH1 0xC PUSH1 0x20 MSTORE PUSH1 0x40 PUSH1 0x0 KECCAK256 DUP1 SLOAD DUP3 LT ISZERO PUSH2 0x263 JUMPI PUSH1 0x20 SWAP2 PUSH2 0x6D0 SWAP2 PUSH2 0x42AF JUMP JUMPDEST SWAP1 SLOAD PUSH1 0x40 MLOAD SWAP2 PUSH1 0x3 SHL SHR DUP2 MSTORE RETURN JUMPDEST CALLVALUE PUSH2 0x263 JUMPI PUSH1 0x20 CALLDATASIZE PUSH1 0x3 NOT ADD SLT PUSH2 0x263 JUMPI PUSH1 0x4 CALLDATALOAD PUSH8 0xFFFFFFFFFFFFFFFF DUP2 GT PUSH2 0x263 JUMPI PUSH1 0xFF PUSH2 0x717 PUSH1 0x20 PUSH2 0x58A DUP2 SWAP5 CALLDATASIZE SWAP1 PUSH1 0x4 ADD PUSH2 0x400B JUMP JUMPDEST DUP2 ADD PUSH1 0xD DUP2 MSTORE SUB ADD SWAP1 KECCAK256 SLOAD AND PUSH1 0x40 MLOAD SWAP1 ISZERO ISZERO DUP2 MSTORE RETURN JUMPDEST CALLVALUE PUSH2 0x263 JUMPI PUSH1 0x40 CALLDATASIZE PUSH1 0x3 NOT ADD SLT PUSH2 0x263 JUMPI PUSH2 0x746 PUSH2 0x3E65 JUMP JUMPDEST PUSH1 0x1 PUSH1 0x1 PUSH1 0xA0 SHL SUB PUSH1 0x24 CALLDATALOAD SWAP2 AND PUSH1 0x0 MSTORE PUSH1 0xF PUSH1 0x20 MSTORE PUSH1 0x40 PUSH1 0x0 KECCAK256 DUP1 SLOAD DUP3 LT ISZERO PUSH2 0x263 JUMPI PUSH1 0x20 SWAP2 PUSH2 0x6D0 SWAP2 PUSH2 0x42AF JUMP JUMPDEST CALLVALUE PUSH2 0x263 JUMPI PUSH1 0x80 CALLDATASIZE PUSH1 0x3 NOT ADD SLT PUSH2 0x263 JUMPI PUSH2 0x78E PUSH2 0x3E65 JUMP JUMPDEST PUSH2 0x796 PUSH2 0x3E7B JUMP JUMPDEST SWAP1 PUSH1 0x44 CALLDATALOAD PUSH1 0x64 CALLDATALOAD SWAP3 PUSH8 0xFFFFFFFFFFFFFFFF DUP5 GT PUSH2 0x263 JUMPI CALLDATASIZE PUSH1 0x23 DUP6 ADD SLT ISZERO PUSH2 0x263 JUMPI PUSH2 0x7CF PUSH2 0x5F2 SWAP5 CALLDATASIZE SWAP1 PUSH1 0x24 DUP2 PUSH1 0x4 ADD CALLDATALOAD SWAP2 ADD PUSH2 0x3FD4 JUMP JUMPDEST SWAP3 PUSH2 0x7DB DUP4 DUP4 DUP4 PUSH2 0x46C7 JUMP JUMPDEST PUSH2 0x48D7 JUMP JUMPDEST CALLVALUE PUSH2 0x263 JUMPI PUSH1 0x20 CALLDATASIZE PUSH1 0x3 NOT ADD SLT PUSH2 0x263 JUMPI PUSH1 0x4 CALLDATALOAD PUSH8 0xFFFFFFFFFFFFFFFF DUP2 GT PUSH2 0x263 JUMPI PUSH2 0x81B PUSH2 0x816 PUSH1 0x20 SWAP3 CALLDATASIZE SWAP1 PUSH1 0x4 ADD PUSH2 0x40B1 JUMP JUMPDEST PUSH2 0x52E1 JUMP JUMPDEST PUSH1 0x40 MLOAD SWAP1 DUP2 MSTORE RETURN JUMPDEST CALLVALUE PUSH2 0x263 JUMPI PUSH1 0x40 CALLDATASIZE PUSH1 0x3 NOT ADD SLT PUSH2 0x263 JUMPI PUSH2 0x83C PUSH2 0x3E65 JUMP JUMPDEST PUSH1 0x24 CALLDATALOAD SWAP1 DUP2 ISZERO ISZERO SWAP1 DUP2 DUP4 SUB PUSH2 0x263 JUMPI PUSH1 0x1 PUSH1 0x1 PUSH1 0xA0 SHL SUB AND SWAP2 DUP3 ISZERO PUSH2 0x8B8 JUMPI PUSH2 0x88A SWAP1 CALLER PUSH1 0x0 MSTORE PUSH1 0x5 PUSH1 0x20 MSTORE PUSH1 0x40 PUSH1 0x0 KECCAK256 DUP5 PUSH1 0x0 MSTORE PUSH1 0x20 MSTORE PUSH1 0x40 PUSH1 0x0 KECCAK256 SWAP1 PUSH1 0xFF DUP1 NOT DUP4 SLOAD AND SWAP2 ISZERO ISZERO AND OR SWAP1 SSTORE JUMP JUMPDEST PUSH1 0x40 MLOAD SWAP1 DUP2 MSTORE PUSH32 0x17307EAB39AB6107E8899845AD3D59BD9653F200F220920489CA2B5937696C31 PUSH1 0x20 CALLER SWAP3 LOG3 STOP JUMPDEST PUSH1 0x24 DUP4 PUSH1 0x40 MLOAD SWAP1 PUSH32 0x5B08BA1800000000000000000000000000000000000000000000000000000000 DUP3 MSTORE PUSH1 0x4 DUP3 ADD MSTORE REVERT JUMPDEST CALLVALUE PUSH2 0x263 JUMPI PUSH1 0x0 CALLDATASIZE PUSH1 0x3 NOT ADD SLT PUSH2 0x263 JUMPI PUSH1 0x20 PUSH1 0x40 MLOAD PUSH1 0x0 DUP2 MSTORE RETURN JUMPDEST CALLVALUE PUSH2 0x263 JUMPI PUSH1 0x60 CALLDATASIZE PUSH1 0x3 NOT ADD SLT PUSH2 0x263 JUMPI PUSH8 0xFFFFFFFFFFFFFFFF PUSH1 0x4 CALLDATALOAD PUSH1 0x24 CALLDATALOAD DUP3 DUP2 GT PUSH2 0x263 JUMPI PUSH2 0x93A SWAP1 CALLDATASIZE SWAP1 PUSH1 0x4 ADD PUSH2 0x400B JUMP JUMPDEST SWAP2 PUSH1 0x44 CALLDATALOAD DUP2 DUP2 GT PUSH2 0x263 JUMPI PUSH2 0x953 SWAP1 CALLDATASIZE SWAP1 PUSH1 0x4 ADD PUSH2 0x400B JUMP JUMPDEST SWAP3 PUSH2 0x95C PUSH2 0x44B9 JUMP JUMPDEST DUP3 PUSH1 0x0 MSTORE PUSH1 0x20 SWAP3 PUSH1 0x2 DUP5 MSTORE PUSH2 0x980 PUSH1 0x1 PUSH1 0x1 PUSH1 0xA0 SHL SUB PUSH1 0x40 PUSH1 0x0 KECCAK256 SLOAD AND ISZERO ISZERO PUSH2 0x50DB JUMP JUMPDEST DUP1 PUSH1 0x0 MSTORE PUSH1 0xB DUP5 MSTORE PUSH1 0x40 PUSH1 0x0 KECCAK256 DUP3 MLOAD DUP5 DUP2 GT PUSH2 0xAE3 JUMPI DUP1 PUSH2 0x9A1 DUP4 SLOAD PUSH2 0x41CF JUMP JUMPDEST SWAP5 PUSH1 0x1F SWAP6 DUP7 DUP2 GT PUSH2 0xB69 JUMPI JUMPDEST POP DUP8 SWAP1 DUP7 DUP4 GT PUSH1 0x1 EQ PUSH2 0xB04 JUMPI PUSH1 0x0 SWAP3 PUSH2 0xAF9 JUMPI JUMPDEST POP POP DUP2 PUSH1 0x1 SHL SWAP2 PUSH1 0x0 NOT SWAP1 PUSH1 0x3 SHL SHR NOT AND OR SWAP1 SSTORE JUMPDEST PUSH1 0x0 MSTORE PUSH1 0xB DUP4 MSTORE PUSH1 0x4 PUSH1 0x40 PUSH1 0x0 KECCAK256 ADD SWAP3 DUP5 MLOAD SWAP3 DUP4 GT PUSH2 0xAE3 JUMPI PUSH2 0x9FA DUP5 SLOAD PUSH2 0x41CF JUMP JUMPDEST DUP3 DUP2 GT PUSH2 0xAA0 JUMPI JUMPDEST POP DUP1 SWAP2 DUP4 GT PUSH1 0x1 EQ PUSH2 0xA3D JUMPI POP DUP2 SWAP3 SWAP4 PUSH1 0x0 SWAP3 PUSH2 0xA32 JUMPI JUMPDEST POP POP PUSH1 0x0 NOT PUSH1 0x3 DUP4 SWAP1 SHL SHR NOT AND PUSH1 0x1 SWAP2 SWAP1 SWAP2 SHL OR SWAP1 SSTORE STOP JUMPDEST ADD MLOAD SWAP1 POP DUP4 DUP1 PUSH2 0xA1A JUMP JUMPDEST SWAP1 PUSH1 0x1F NOT DUP4 AND SWAP5 DUP5 PUSH1 0x0 MSTORE DUP3 PUSH1 0x0 KECCAK256 SWAP3 PUSH1 0x0 SWAP1 JUMPDEST DUP8 DUP3 LT PUSH2 0xA88 JUMPI POP POP DUP4 PUSH1 0x1 SWAP6 SWAP7 LT PUSH2 0xA6F JUMPI JUMPDEST POP POP POP DUP2 SHL ADD SWAP1 SSTORE STOP JUMPDEST ADD MLOAD PUSH1 0x0 NOT PUSH1 0xF8 DUP5 PUSH1 0x3 SHL AND SHR NOT AND SWAP1 SSTORE DUP4 DUP1 DUP1 PUSH2 0xA65 JUMP JUMPDEST DUP1 PUSH1 0x1 DUP6 SWAP7 DUP3 SWAP5 SWAP7 DUP7 ADD MLOAD DUP2 SSTORE ADD SWAP6 ADD SWAP4 ADD SWAP1 PUSH2 0xA51 JUMP JUMPDEST DUP5 PUSH1 0x0 MSTORE DUP2 PUSH1 0x0 KECCAK256 DUP4 DUP1 DUP7 ADD PUSH1 0x5 SHR DUP3 ADD SWAP3 DUP5 DUP8 LT PUSH2 0xADA JUMPI JUMPDEST ADD PUSH1 0x5 SHR ADD SWAP1 JUMPDEST DUP2 DUP2 LT PUSH2 0xACE JUMPI POP PUSH2 0xA02 JUMP JUMPDEST PUSH1 0x0 DUP2 SSTORE PUSH1 0x1 ADD PUSH2 0xAC1 JUMP JUMPDEST SWAP3 POP DUP2 SWAP3 PUSH2 0xABA JUMP JUMPDEST PUSH4 0x4E487B71 PUSH1 0xE0 SHL PUSH1 0x0 MSTORE PUSH1 0x41 PUSH1 0x4 MSTORE PUSH1 0x24 PUSH1 0x0 REVERT JUMPDEST ADD MLOAD SWAP1 POP DUP9 DUP1 PUSH2 0x9C2 JUMP JUMPDEST PUSH1 0x0 DUP6 DUP2 MSTORE DUP10 DUP2 KECCAK256 SWAP4 POP PUSH1 0x1F NOT DUP6 AND SWAP1 JUMPDEST DUP11 DUP3 DUP3 LT PUSH2 0xB53 JUMPI POP POP SWAP1 DUP5 PUSH1 0x1 SWAP6 SWAP5 SWAP4 SWAP3 LT PUSH2 0xB3A JUMPI JUMPDEST POP POP POP DUP2 SHL ADD SWAP1 SSTORE PUSH2 0x9D7 JUMP JUMPDEST ADD MLOAD PUSH1 0x0 NOT PUSH1 0xF8 DUP5 PUSH1 0x3 SHL AND SHR NOT AND SWAP1 SSTORE DUP9 DUP1 DUP1 PUSH2 0xB2D JUMP JUMPDEST PUSH1 0x1 DUP6 SWAP7 DUP3 SWAP4 SWAP7 DUP7 ADD MLOAD DUP2 SSTORE ADD SWAP6 ADD SWAP4 ADD PUSH2 0xB15 JUMP JUMPDEST SWAP1 SWAP2 POP DUP4 PUSH1 0x0 MSTORE DUP8 PUSH1 0x0 KECCAK256 DUP7 DUP1 DUP6 ADD PUSH1 0x5 SHR DUP3 ADD SWAP3 DUP11 DUP7 LT PUSH2 0xBAF JUMPI JUMPDEST SWAP1 DUP6 SWAP5 SWAP4 SWAP3 SWAP2 ADD PUSH1 0x5 SHR ADD SWAP1 JUMPDEST DUP2 DUP2 LT PUSH2 0xBA0 JUMPI POP PUSH2 0x9AD JUMP JUMPDEST PUSH1 0x0 DUP2 SSTORE DUP5 SWAP4 POP PUSH1 0x1 ADD PUSH2 0xB93 JUMP JUMPDEST SWAP3 POP DUP2 SWAP3 PUSH2 0xB86 JUMP JUMPDEST CALLVALUE PUSH2 0x263 JUMPI PUSH1 0x0 CALLDATASIZE PUSH1 0x3 NOT ADD SLT PUSH2 0x263 JUMPI PUSH1 0x40 MLOAD PUSH1 0x0 PUSH1 0x1 DUP1 SLOAD SWAP1 PUSH2 0xBDC DUP3 PUSH2 0x41CF JUMP JUMPDEST DUP1 DUP6 MSTORE SWAP2 DUP2 DUP2 AND SWAP1 DUP2 ISZERO PUSH2 0xC70 JUMPI POP PUSH1 0x1 EQ PUSH2 0xC17 JUMPI JUMPDEST PUSH2 0x401 DUP5 PUSH2 0xC03 DUP2 DUP7 SUB DUP3 PUSH2 0x3F96 JUMP JUMPDEST PUSH1 0x40 MLOAD SWAP2 DUP3 SWAP2 PUSH1 0x20 DUP4 MSTORE PUSH1 0x20 DUP4 ADD SWAP1 PUSH2 0x3E40 JUMP JUMPDEST PUSH1 0x0 DUP2 DUP2 MSTORE SWAP3 POP PUSH32 0xB10E2D527612073B26EECDFD717E6A320CF44B4AFAC2B0732D9FCBE2B7FA0CF6 JUMPDEST DUP3 DUP5 LT PUSH2 0xC58 JUMPI POP POP POP DUP2 ADD PUSH1 0x20 ADD PUSH2 0xC03 DUP3 PUSH2 0xBF3 JUMP JUMPDEST DUP1 SLOAD PUSH1 0x20 DUP6 DUP8 ADD DUP2 ADD SWAP2 SWAP1 SWAP2 MSTORE SWAP1 SWAP4 ADD SWAP3 DUP2 ADD PUSH2 0xC40 JUMP JUMPDEST PUSH1 0xFF NOT AND PUSH1 0x20 DUP1 DUP8 ADD SWAP2 SWAP1 SWAP2 MSTORE SWAP3 ISZERO ISZERO PUSH1 0x5 SHL DUP6 ADD SWAP1 SWAP3 ADD SWAP3 POP PUSH2 0xC03 SWAP2 POP DUP4 SWAP1 POP PUSH2 0xBF3 JUMP JUMPDEST CALLVALUE PUSH2 0x263 JUMPI PUSH1 0x80 CALLDATASIZE PUSH1 0x3 NOT ADD SLT PUSH2 0x263 JUMPI PUSH2 0xCB0 PUSH2 0x3E65 JUMP JUMPDEST PUSH1 0x24 CALLDATALOAD PUSH8 0xFFFFFFFFFFFFFFFF DUP2 GT PUSH2 0x263 JUMPI PUSH2 0xCD0 SWAP1 CALLDATASIZE SWAP1 PUSH1 0x4 ADD PUSH2 0x400B JUMP JUMPDEST PUSH1 0x44 CALLDATALOAD PUSH8 0xFFFFFFFFFFFFFFFF DUP2 GT PUSH2 0x263 JUMPI PUSH2 0xCF0 SWAP1 CALLDATASIZE SWAP1 PUSH1 0x4 ADD PUSH2 0x400B JUMP JUMPDEST SWAP2 PUSH1 0x64 CALLDATALOAD PUSH8 0xFFFFFFFFFFFFFFFF DUP2 GT PUSH2 0x263 JUMPI PUSH2 0xD11 SWAP1 CALLDATASIZE SWAP1 PUSH1 0x4 ADD PUSH2 0x400B JUMP JUMPDEST SWAP1 PUSH2 0xD1A PUSH2 0x454C JUMP JUMPDEST PUSH2 0xD22 PUSH2 0x4F30 JUMP JUMPDEST PUSH2 0xD36 PUSH1 0x1 PUSH1 0x1 PUSH1 0xA0 SHL SUB DUP3 AND ISZERO ISZERO PUSH2 0x4A1C JUMP JUMPDEST DUP3 MLOAD ISZERO PUSH2 0x1668 JUMPI DUP4 MLOAD ISZERO PUSH2 0x1624 JUMPI DUP2 MLOAD ISZERO PUSH2 0x15E0 JUMPI PUSH1 0xFF PUSH1 0x40 MLOAD PUSH1 0x20 DUP2 DUP6 MLOAD PUSH2 0xD62 DUP2 DUP4 DUP6 DUP11 ADD PUSH2 0x3E1D JUMP JUMPDEST DUP2 ADD PUSH1 0xD DUP2 MSTORE SUB ADD SWAP1 KECCAK256 SLOAD AND PUSH2 0x159C JUMPI PUSH2 0xD7D PUSH1 0x9 SLOAD PUSH2 0x4A67 JUMP JUMPDEST SWAP3 DUP4 PUSH1 0x9 SSTORE PUSH1 0x40 MLOAD PUSH2 0xD8E DUP2 PUSH2 0x3F24 JUMP JUMPDEST PUSH1 0x40 MLOAD PUSH2 0xD9A DUP2 PUSH2 0x3F7A JUMP JUMPDEST PUSH1 0x0 DUP2 MSTORE DUP2 MSTORE DUP2 PUSH1 0x20 DUP3 ADD MSTORE DUP6 PUSH1 0x40 DUP3 ADD MSTORE DUP4 PUSH1 0x60 DUP3 ADD MSTORE PUSH1 0x40 MLOAD PUSH2 0xDBE DUP2 PUSH2 0x3F7A JUMP JUMPDEST PUSH1 0x0 DUP2 MSTORE PUSH1 0x80 DUP3 ADD MSTORE TIMESTAMP PUSH1 0xA0 DUP3 ADD MSTORE PUSH1 0x0 PUSH1 0xC0 DUP3 ADD MSTORE CALLER PUSH1 0xE0 DUP3 ADD MSTORE DUP5 PUSH1 0x0 MSTORE PUSH1 0xB PUSH1 0x20 MSTORE PUSH1 0x40 PUSH1 0x0 KECCAK256 DUP2 MLOAD DUP1 MLOAD SWAP1 PUSH8 0xFFFFFFFFFFFFFFFF DUP3 GT PUSH2 0xAE3 JUMPI DUP2 SWAP1 PUSH2 0xE08 DUP5 SLOAD PUSH2 0x41CF JUMP JUMPDEST PUSH1 0x1F DUP2 GT PUSH2 0x154C JUMPI JUMPDEST POP PUSH1 0x20 SWAP1 PUSH1 0x1F DUP4 GT PUSH1 0x1 EQ PUSH2 0x14E6 JUMPI PUSH1 0x0 SWAP3 PUSH2 0x14DB JUMPI JUMPDEST POP POP DUP2 PUSH1 0x1 SHL SWAP2 PUSH1 0x0 NOT SWAP1 PUSH1 0x3 SHL SHR NOT AND OR DUP2 SSTORE JUMPDEST PUSH1 0x20 DUP3 ADD MLOAD DUP1 MLOAD SWAP1 PUSH8 0xFFFFFFFFFFFFFFFF DUP3 GT PUSH2 0xAE3 JUMPI DUP2 SWAP1 PUSH2 0xE63 PUSH1 0x1 DUP6 ADD SLOAD PUSH2 0x41CF JUMP JUMPDEST PUSH1 0x1F DUP2 GT PUSH2 0x1488 JUMPI JUMPDEST POP PUSH1 0x20 SWAP1 PUSH1 0x1F DUP4 GT PUSH1 0x1 EQ PUSH2 0x1416 JUMPI PUSH1 0x0 SWAP3 PUSH2 0x140B JUMPI JUMPDEST POP POP DUP2 PUSH1 0x1 SHL SWAP2 PUSH1 0x0 NOT SWAP1 PUSH1 0x3 SHL SHR NOT AND OR PUSH1 0x1 DUP3 ADD SSTORE JUMPDEST PUSH1 0x40 DUP3 ADD MLOAD DUP1 MLOAD SWAP1 PUSH8 0xFFFFFFFFFFFFFFFF DUP3 GT PUSH2 0xAE3 JUMPI DUP2 SWAP1 PUSH2 0xEC1 PUSH1 0x2 DUP6 ADD SLOAD PUSH2 0x41CF JUMP JUMPDEST PUSH1 0x1F DUP2 GT PUSH2 0x13B8 JUMPI JUMPDEST POP PUSH1 0x20 SWAP1 PUSH1 0x1F DUP4 GT PUSH1 0x1 EQ PUSH2 0x1346 JUMPI PUSH1 0x0 SWAP3 PUSH2 0x133B JUMPI JUMPDEST POP POP DUP2 PUSH1 0x1 SHL SWAP2 PUSH1 0x0 NOT SWAP1 PUSH1 0x3 SHL SHR NOT AND OR PUSH1 0x2 DUP3 ADD SSTORE JUMPDEST PUSH1 0x60 DUP3 ADD MLOAD DUP1 MLOAD SWAP1 PUSH8 0xFFFFFFFFFFFFFFFF DUP3 GT PUSH2 0xAE3 JUMPI DUP2 SWAP1 PUSH2 0xF1F PUSH1 0x3 DUP6 ADD SLOAD PUSH2 0x41CF JUMP JUMPDEST PUSH1 0x1F DUP2 GT PUSH2 0x12E8 JUMPI JUMPDEST POP PUSH1 0x20 SWAP1 PUSH1 0x1F DUP4 GT PUSH1 0x1 EQ PUSH2 0x1276 JUMPI PUSH1 0x0 SWAP3 PUSH2 0x126B JUMPI JUMPDEST POP POP DUP2 PUSH1 0x1 SHL SWAP2 PUSH1 0x0 NOT SWAP1 PUSH1 0x3 SHL SHR NOT AND OR PUSH1 0x3 DUP3 ADD SSTORE JUMPDEST PUSH1 0x80 DUP3 ADD MLOAD DUP1 MLOAD SWAP1 PUSH8 0xFFFFFFFFFFFFFFFF DUP3 GT PUSH2 0xAE3 JUMPI PUSH2 0xF7B PUSH1 0x4 DUP5 ADD SLOAD PUSH2 0x41CF JUMP JUMPDEST PUSH1 0x1F DUP2 GT PUSH2 0x1224 JUMPI JUMPDEST POP SWAP2 PUSH1 0x20 SWAP9 SWAP4 SWAP2 DUP9 SWAP6 SWAP4 DUP11 SWAP1 PUSH1 0x1F DUP4 GT PUSH1 0x1 EQ PUSH2 0x1179 JUMPI SWAP5 PUSH32 0x2242ED4813396C04BEA58B1D1874B4EDB999B043D0B6A9DA1D585671D0802B38 SWAP7 SWAP5 PUSH1 0xE0 PUSH1 0x6 PUSH1 0x1 PUSH1 0x1 PUSH1 0xA0 SHL SUB SWAP7 DUP7 PUSH2 0x115A SWAP8 PUSH2 0x112A SWAP8 PUSH2 0x114C SWAP13 PUSH1 0x0 SWAP3 PUSH2 0x116E JUMPI JUMPDEST POP POP DUP2 PUSH1 0x1 SHL SWAP2 PUSH1 0x0 NOT SWAP1 PUSH1 0x3 SHL SHR NOT AND OR PUSH1 0x4 DUP3 ADD SSTORE JUMPDEST PUSH1 0xA0 DUP5 ADD MLOAD PUSH1 0x5 DUP3 ADD SSTORE ADD SWAP2 PUSH2 0x1021 PUSH1 0xC0 DUP3 ADD MLOAD ISZERO ISZERO DUP5 SWAP1 PUSH1 0xFF DUP1 NOT DUP4 SLOAD AND SWAP2 ISZERO ISZERO AND OR SWAP1 SSTORE JUMP JUMPDEST ADD MLOAD PUSH32 0xFFFFFFFFFFFFFFFFFFFFFF0000000000000000000000000000000000000000FF PUSH21 0xFFFFFFFFFFFFFFFFFFFFFFFFFFFFFFFFFFFFFFFF00 DUP4 SLOAD SWAP3 PUSH1 0x8 SHL AND SWAP2 AND OR SWAP1 SSTORE DUP4 DUP10 AND PUSH1 0x0 MSTORE PUSH1 0xC DUP13 MSTORE PUSH2 0x107E DUP9 PUSH1 0x40 PUSH1 0x0 KECCAK256 PUSH2 0x4A8C JUMP JUMPDEST PUSH2 0x1096 DUP13 DUP12 DUP2 PUSH1 0x40 MLOAD SWAP4 DUP3 DUP6 DUP1 SWAP5 MLOAD SWAP4 DUP5 SWAP3 ADD PUSH2 0x3E1D JUMP JUMPDEST DUP2 ADD PUSH1 0xD DUP2 MSTORE SUB ADD SWAP1 KECCAK256 PUSH1 0x1 PUSH1 0xFF NOT DUP3 SLOAD AND OR SWAP1 SSTORE PUSH2 0x10B5 DUP9 DUP11 PUSH2 0x4B75 JUMP JUMPDEST PUSH2 0x1125 PUSH2 0x10C1 DUP10 PUSH2 0x4F66 JUMP JUMPDEST PUSH2 0x111F PUSH1 0x1 PUSH1 0x40 MLOAD PUSH1 0x20 SWAP4 PUSH2 0x10D8 DUP3 SWAP6 DUP4 ADD PUSH2 0x4AC6 JUMP JUMPDEST PUSH32 0x2F00000000000000000000000000000000000000000000000000000000000000 DUP2 MSTORE PUSH2 0x110F DUP3 MLOAD PUSH1 0x20 SWAP4 DUP2 SWAP5 DUP8 DUP6 ADD SWAP2 ADD PUSH2 0x3E1D JUMP JUMPDEST ADD SUB PUSH1 0x1E NOT DUP2 ADD DUP5 MSTORE ADD DUP3 PUSH2 0x3F96 JUMP JUMPDEST DUP10 PUSH2 0x4DBA JUMP JUMPDEST PUSH2 0x4B55 JUMP JUMPDEST SWAP8 PUSH1 0x40 MLOAD SWAP5 DUP6 SWAP5 PUSH1 0x80 DUP7 MSTORE PUSH1 0x0 PUSH1 0x80 DUP8 ADD MSTORE PUSH1 0xA0 DUP14 DUP8 ADD MSTORE PUSH1 0xA0 DUP7 ADD SWAP1 PUSH2 0x3E40 JUMP JUMPDEST SWAP1 DUP5 DUP3 SUB PUSH1 0x40 DUP7 ADD MSTORE PUSH2 0x3E40 JUMP JUMPDEST SWAP6 TIMESTAMP PUSH1 0x60 DUP5 ADD MSTORE AND SWAP5 SUB SWAP1 LOG4 PUSH1 0x40 MLOAD SWAP1 DUP2 MSTORE RETURN JUMPDEST ADD MLOAD SWAP1 POP CODESIZE DUP1 PUSH2 0xFE1 JUMP JUMPDEST SWAP1 PUSH1 0x4 DUP5 ADD PUSH1 0x0 MSTORE DUP12 PUSH1 0x0 KECCAK256 SWAP2 PUSH1 0x0 JUMPDEST PUSH1 0x1F NOT DUP6 AND DUP2 LT PUSH2 0x120A JUMPI POP SWAP5 PUSH1 0xE0 PUSH1 0x6 PUSH1 0x1 PUSH1 0x1 PUSH1 0xA0 SHL SUB SWAP7 PUSH1 0x1 DUP8 PUSH2 0x112A SWAP8 PUSH2 0x114C SWAP13 SWAP8 PUSH32 0x2242ED4813396C04BEA58B1D1874B4EDB999B043D0B6A9DA1D585671D0802B38 SWAP15 SWAP13 PUSH2 0x115A SWAP12 PUSH1 0x1F NOT DUP2 AND LT PUSH2 0x11F1 JUMPI JUMPDEST POP POP POP DUP2 SHL ADD PUSH1 0x4 DUP3 ADD SSTORE PUSH2 0xFF9 JUMP JUMPDEST ADD MLOAD PUSH1 0x0 NOT PUSH1 0xF8 DUP5 PUSH1 0x3 SHL AND SHR NOT AND SWAP1 SSTORE CODESIZE DUP1 DUP1 PUSH2 0x11E1 JUMP JUMPDEST DUP2 DUP4 ADD MLOAD DUP5 SSTORE DUP13 SWAP10 POP PUSH1 0x1 SWAP1 SWAP4 ADD SWAP3 SWAP2 DUP14 ADD SWAP2 DUP14 ADD PUSH2 0x1189 JUMP JUMPDEST PUSH1 0x4 DUP5 ADD PUSH1 0x0 MSTORE PUSH1 0x20 PUSH1 0x0 KECCAK256 PUSH1 0x1F DUP5 ADD PUSH1 0x5 SHR DUP2 ADD PUSH1 0x20 DUP6 LT PUSH2 0x1264 JUMPI JUMPDEST PUSH1 0x1F DUP4 ADD PUSH1 0x5 SHR DUP3 ADD DUP2 LT PUSH2 0x1258 JUMPI POP POP PUSH2 0xF84 JUMP JUMPDEST PUSH1 0x0 DUP2 SSTORE PUSH1 0x1 ADD PUSH2 0x1242 JUMP JUMPDEST POP DUP1 PUSH2 0x1242 JUMP JUMPDEST ADD MLOAD SWAP1 POP DUP10 DUP1 PUSH2 0xF3F JUMP JUMPDEST SWAP3 POP PUSH1 0x3 DUP5 ADD PUSH1 0x0 MSTORE PUSH1 0x20 PUSH1 0x0 KECCAK256 SWAP1 PUSH1 0x0 SWAP4 JUMPDEST PUSH1 0x1F NOT DUP5 AND DUP6 LT PUSH2 0x12CD JUMPI PUSH1 0x1 SWAP5 POP DUP4 PUSH1 0x1F NOT DUP2 AND LT PUSH2 0x12B4 JUMPI JUMPDEST POP POP POP DUP2 SHL ADD PUSH1 0x3 DUP3 ADD SSTORE PUSH2 0xF57 JUMP JUMPDEST ADD MLOAD PUSH1 0x0 NOT PUSH1 0xF8 DUP5 PUSH1 0x3 SHL AND SHR NOT AND SWAP1 SSTORE DUP10 DUP1 DUP1 PUSH2 0x12A4 JUMP JUMPDEST DUP2 DUP2 ADD MLOAD DUP4 SSTORE PUSH1 0x20 SWAP5 DUP6 ADD SWAP5 PUSH1 0x1 SWAP1 SWAP4 ADD SWAP3 SWAP1 SWAP2 ADD SWAP1 PUSH2 0x1289 JUMP JUMPDEST SWAP1 SWAP2 POP PUSH1 0x3 DUP5 ADD PUSH1 0x0 MSTORE PUSH1 0x20 PUSH1 0x0 KECCAK256 PUSH1 0x1F DUP5 ADD PUSH1 0x5 SHR DUP2 ADD PUSH1 0x20 DUP6 LT PUSH2 0x1334 JUMPI JUMPDEST SWAP1 DUP5 SWAP4 SWAP3 SWAP2 JUMPDEST PUSH1 0x1F DUP4 ADD PUSH1 0x5 SHR DUP3 ADD DUP2 LT PUSH2 0x1325 JUMPI POP POP PUSH2 0xF28 JUMP JUMPDEST PUSH1 0x0 DUP2 SSTORE DUP6 SWAP5 POP PUSH1 0x1 ADD PUSH2 0x130F JUMP JUMPDEST POP DUP1 PUSH2 0x1309 JUMP JUMPDEST ADD MLOAD SWAP1 POP DUP10 DUP1 PUSH2 0xEE1 JUMP JUMPDEST SWAP3 POP PUSH1 0x2 DUP5 ADD PUSH1 0x0 MSTORE PUSH1 0x20 PUSH1 0x0 KECCAK256 SWAP1 PUSH1 0x0 SWAP4 JUMPDEST PUSH1 0x1F NOT DUP5 AND DUP6 LT PUSH2 0x139D JUMPI PUSH1 0x1 SWAP5 POP DUP4 PUSH1 0x1F NOT DUP2 AND LT PUSH2 0x1384 JUMPI JUMPDEST POP POP POP DUP2 SHL ADD PUSH1 0x2 DUP3 ADD SSTORE PUSH2 0xEF9 JUMP JUMPDEST ADD MLOAD PUSH1 0x0 NOT PUSH1 0xF8 DUP5 PUSH1 0x3 SHL AND SHR NOT AND SWAP1 SSTORE DUP10 DUP1 DUP1 PUSH2 0x1374 JUMP JUMPDEST DUP2 DUP2 ADD MLOAD DUP4 SSTORE PUSH1 0x20 SWAP5 DUP6 ADD SWAP5 PUSH1 0x1 SWAP1 SWAP4 ADD SWAP3 SWAP1 SWAP2 ADD SWAP1 PUSH2 0x1359 JUMP JUMPDEST SWAP1 SWAP2 POP PUSH1 0x2 DUP5 ADD PUSH1 0x0 MSTORE PUSH1 0x20 PUSH1 0x0 KECCAK256 PUSH1 0x1F DUP5 ADD PUSH1 0x5 SHR DUP2 ADD PUSH1 0x20 DUP6 LT PUSH2 0x1404 JUMPI JUMPDEST SWAP1 DUP5 SWAP4 SWAP3 SWAP2 JUMPDEST PUSH1 0x1F DUP4 ADD PUSH1 0x5 SHR DUP3 ADD DUP2 LT PUSH2 0x13F5 JUMPI POP POP PUSH2 0xECA JUMP JUMPDEST PUSH1 0x0 DUP2 SSTORE DUP6 SWAP5 POP PUSH1 0x1 ADD PUSH2 0x13DF JUMP JUMPDEST POP DUP1 PUSH2 0x13D9 JUMP JUMPDEST ADD MLOAD SWAP1 POP DUP10 DUP1 PUSH2 0xE83 JUMP JUMPDEST SWAP3 POP PUSH1 0x1 DUP5 ADD PUSH1 0x0 MSTORE PUSH1 0x20 PUSH1 0x0 KECCAK256 SWAP1 PUSH1 0x0 SWAP4 JUMPDEST PUSH1 0x1F NOT DUP5 AND DUP6 LT PUSH2 0x146D JUMPI PUSH1 0x1 SWAP5 POP DUP4 PUSH1 0x1F NOT DUP2 AND LT PUSH2 0x1454 JUMPI JUMPDEST POP POP POP DUP2 SHL ADD PUSH1 0x1 DUP3 ADD SSTORE PUSH2 0xE9B JUMP JUMPDEST ADD MLOAD PUSH1 0x0 NOT PUSH1 0xF8 DUP5 PUSH1 0x3 SHL AND SHR NOT AND SWAP1 SSTORE DUP10 DUP1 DUP1 PUSH2 0x1444 JUMP JUMPDEST DUP2 DUP2 ADD MLOAD DUP4 SSTORE PUSH1 0x20 SWAP5 DUP6 ADD SWAP5 PUSH1 0x1 SWAP1 SWAP4 ADD SWAP3 SWAP1 SWAP2 ADD SWAP1 PUSH2 0x1429 JUMP JUMPDEST SWAP1 SWAP2 POP PUSH1 0x1 DUP5 ADD PUSH1 0x0 MSTORE PUSH1 0x20 PUSH1 0x0 KECCAK256 PUSH1 0x1F DUP5 ADD PUSH1 0x5 SHR DUP2 ADD PUSH1 0x20 DUP6 LT PUSH2 0x14D4 JUMPI JUMPDEST SWAP1 DUP5 SWAP4 SWAP3 SWAP2 JUMPDEST PUSH1 0x1F DUP4 ADD PUSH1 0x5 SHR DUP3 ADD DUP2 LT PUSH2 0x14C5 JUMPI POP POP PUSH2 0xE6C JUMP JUMPDEST PUSH1 0x0 DUP2 SSTORE DUP6 SWAP5 POP PUSH1 0x1 ADD PUSH2 0x14AF JUMP JUMPDEST POP DUP1 PUSH2 0x14A9 JUMP JUMPDEST ADD MLOAD SWAP1 POP DUP10 DUP1 PUSH2 0xE28 JUMP JUMPDEST PUSH1 0x0 DUP6 DUP2 MSTORE PUSH1 0x20 DUP2 KECCAK256 SWAP4 POP PUSH1 0x1F NOT DUP6 AND SWAP1 JUMPDEST DUP2 DUP2 LT PUSH2 0x1534 JUMPI POP SWAP1 DUP5 PUSH1 0x1 SWAP6 SWAP5 SWAP4 SWAP3 LT PUSH2 0x151B JUMPI JUMPDEST POP POP POP DUP2 SHL ADD DUP2 SSTORE PUSH2 0xE3D JUMP JUMPDEST ADD MLOAD PUSH1 0x0 NOT PUSH1 0xF8 DUP5 PUSH1 0x3 SHL AND SHR NOT AND SWAP1 SSTORE DUP10 DUP1 DUP1 PUSH2 0x150E JUMP JUMPDEST SWAP3 SWAP4 PUSH1 0x20 PUSH1 0x1 DUP2 SWAP3 DUP8 DUP7 ADD MLOAD DUP2 SSTORE ADD SWAP6 ADD SWAP4 ADD PUSH2 0x14F8 JUMP JUMPDEST SWAP1 SWAP2 POP DUP4 PUSH1 0x0 MSTORE PUSH1 0x20 PUSH1 0x0 KECCAK256 PUSH1 0x1F DUP5 ADD PUSH1 0x5 SHR DUP2 ADD PUSH1 0x20 DUP6 LT PUSH2 0x1595 JUMPI JUMPDEST SWAP1 DUP5 SWAP4 SWAP3 SWAP2 JUMPDEST PUSH1 0x1F DUP4 ADD PUSH1 0x5 SHR DUP3 ADD DUP2 LT PUSH2 0x1586 JUMPI POP POP PUSH2 0xE11 JUMP JUMPDEST PUSH1 0x0 DUP2 SSTORE DUP6 SWAP5 POP PUSH1 0x1 ADD PUSH2 0x1570 JUMP JUMPDEST POP DUP1 PUSH2 0x156A JUMP JUMPDEST PUSH1 0x64 PUSH1 0x40 MLOAD PUSH3 0x461BCD PUSH1 0xE5 SHL DUP2 MSTORE PUSH1 0x20 PUSH1 0x4 DUP3 ADD MSTORE PUSH1 0x16 PUSH1 0x24 DUP3 ADD MSTORE PUSH32 0x49504653206861736820616C7265616479207573656400000000000000000000 PUSH1 0x44 DUP3 ADD MSTORE REVERT JUMPDEST PUSH1 0x64 PUSH1 0x40 MLOAD PUSH3 0x461BCD PUSH1 0xE5 SHL DUP2 MSTORE PUSH1 0x20 PUSH1 0x4 DUP3 ADD MSTORE PUSH1 0x19 PUSH1 0x24 DUP3 ADD MSTORE PUSH32 0x4950465320686173682063616E6E6F7420626520656D70747900000000000000 PUSH1 0x44 DUP3 ADD MSTORE REVERT JUMPDEST PUSH1 0x64 PUSH1 0x40 MLOAD PUSH3 0x461BCD PUSH1 0xE5 SHL DUP2 MSTORE PUSH1 0x20 PUSH1 0x4 DUP3 ADD MSTORE PUSH1 0x15 PUSH1 0x24 DUP3 ADD MSTORE PUSH32 0x47726164652063616E6E6F7420626520656D7074790000000000000000000000 PUSH1 0x44 DUP3 ADD MSTORE REVERT JUMPDEST PUSH1 0x64 PUSH1 0x40 MLOAD PUSH3 0x461BCD PUSH1 0xE5 SHL DUP2 MSTORE PUSH1 0x20 PUSH1 0x4 DUP3 ADD MSTORE PUSH1 0x1B PUSH1 0x24 DUP3 ADD MSTORE PUSH32 0x436F75727365206E616D652063616E6E6F7420626520656D7074790000000000 PUSH1 0x44 DUP3 ADD MSTORE REVERT JUMPDEST CALLVALUE PUSH2 0x263 JUMPI PUSH1 0x40 CALLDATASIZE PUSH1 0x3 NOT ADD SLT PUSH2 0x263 JUMPI PUSH2 0x16C5 PUSH2 0x3E7B JUMP JUMPDEST PUSH1 0x4 CALLDATALOAD PUSH1 0x0 MSTORE PUSH1 0x7 PUSH1 0x20 MSTORE PUSH1 0x1 PUSH1 0x1 PUSH1 0xA0 SHL SUB PUSH1 0x40 PUSH1 0x0 KECCAK256 SWAP2 AND PUSH1 0x0 MSTORE PUSH1 0x20 MSTORE PUSH1 0x20 PUSH1 0xFF PUSH1 0x40 PUSH1 0x0 KECCAK256 SLOAD AND PUSH1 0x40 MLOAD SWAP1 ISZERO ISZERO DUP2 MSTORE RETURN JUMPDEST CALLVALUE PUSH2 0x263 JUMPI PUSH1 0x0 CALLDATASIZE PUSH1 0x3 NOT ADD SLT PUSH2 0x263 JUMPI PUSH2 0x1713 PUSH2 0x44B9 JUMP JUMPDEST PUSH2 0x171B PUSH2 0x4F30 JUMP JUMPDEST PUSH1 0x1 PUSH1 0xFF NOT PUSH1 0x8 SLOAD AND OR PUSH1 0x8 SSTORE PUSH32 0x62E78CEA01BEE320CD4E420270B5EA74000D11B0C9F74754EBDBFC544B05A258 PUSH1 0x20 PUSH1 0x40 MLOAD CALLER DUP2 MSTORE LOG1 STOP JUMPDEST CALLVALUE PUSH2 0x263 JUMPI PUSH1 0x0 CALLDATASIZE PUSH1 0x3 NOT ADD SLT PUSH2 0x263 JUMPI PUSH1 0x20 PUSH1 0x40 MLOAD PUSH32 0xA49807205CE4D355092EF5A8A18F56E8913CF4A201FBE287825B095693C21775 DUP2 MSTORE RETURN JUMPDEST CALLVALUE PUSH2 0x263 JUMPI PUSH1 0x20 CALLDATASIZE PUSH1 0x3 NOT ADD SLT PUSH2 0x263 JUMPI PUSH1 0x1 PUSH1 0x1 PUSH1 0xA0 SHL SUB PUSH2 0x17B0 PUSH2 0x3E65 JUMP JUMPDEST AND DUP1 ISZERO PUSH2 0x17CF JUMPI PUSH1 0x0 MSTORE PUSH1 0x3 PUSH1 0x20 MSTORE PUSH1 0x20 PUSH1 0x40 PUSH1 0x0 KECCAK256 SLOAD PUSH1 0x40 MLOAD SWAP1 DUP2 MSTORE RETURN JUMPDEST PUSH1 0x24 PUSH1 0x40 MLOAD PUSH32 0x89C62B6400000000000000000000000000000000000000000000000000000000 DUP2 MSTORE PUSH1 0x0 PUSH1 0x4 DUP3 ADD MSTORE REVERT JUMPDEST CALLVALUE PUSH2 0x263 JUMPI PUSH1 0x20 CALLDATASIZE PUSH1 0x3 NOT ADD SLT PUSH2 0x263 JUMPI PUSH1 0x4 CALLDATALOAD PUSH1 0x0 MSTORE PUSH1 0xB PUSH1 0x20 MSTORE PUSH2 0x1893 PUSH1 0x40 PUSH1 0x0 KECCAK256 PUSH2 0x182D DUP2 PUSH2 0x4209 JUMP JUMPDEST SWAP1 PUSH1 0x1 PUSH1 0x1 PUSH1 0xA0 SHL SUB PUSH2 0x1842 PUSH1 0x1 DUP4 ADD PUSH2 0x4209 JUMP JUMPDEST PUSH2 0x18CB PUSH2 0x1851 PUSH1 0x2 DUP6 ADD PUSH2 0x4209 JUMP JUMPDEST PUSH2 0x18BD PUSH2 0x1860 PUSH1 0x3 DUP8 ADD PUSH2 0x4209 JUMP JUMPDEST PUSH2 0x18AF PUSH2 0x186F PUSH1 0x4 DUP10 ADD PUSH2 0x4209 JUMP JUMPDEST SWAP4 PUSH2 0x18A1 PUSH1 0x6 PUSH1 0x5 DUP12 ADD SLOAD SWAP11 ADD SLOAD SWAP8 PUSH1 0x40 MLOAD SWAP13 DUP14 SWAP13 DUP14 PUSH2 0x100 SWAP1 DUP2 DUP2 MSTORE ADD SWAP1 PUSH2 0x3E40 JUMP JUMPDEST DUP13 DUP2 SUB PUSH1 0x20 DUP15 ADD MSTORE SWAP1 PUSH2 0x3E40 JUMP JUMPDEST SWAP1 DUP11 DUP3 SUB PUSH1 0x40 DUP13 ADD MSTORE PUSH2 0x3E40 JUMP JUMPDEST SWAP1 DUP9 DUP3 SUB PUSH1 0x60 DUP11 ADD MSTORE PUSH2 0x3E40 JUMP JUMPDEST SWAP1 DUP7 DUP3 SUB PUSH1 0x80 DUP9 ADD MSTORE PUSH2 0x3E40 JUMP JUMPDEST SWAP3 PUSH1 0xA0 DUP6 ADD MSTORE PUSH1 0xFF DUP2 AND ISZERO ISZERO PUSH1 0xC0 DUP6 ADD MSTORE PUSH1 0x8 SHR AND PUSH1 0xE0 DUP4 ADD MSTORE SUB SWAP1 RETURN JUMPDEST CALLVALUE PUSH2 0x263 JUMPI PUSH1 0x20 CALLDATASIZE PUSH1 0x3 NOT ADD SLT PUSH2 0x263 JUMPI PUSH1 0x20 PUSH2 0x1907 PUSH1 0x4 CALLDATALOAD PUSH2 0x489C JUMP JUMPDEST PUSH1 0x1 PUSH1 0x1 PUSH1 0xA0 SHL SUB PUSH1 0x40 MLOAD SWAP2 AND DUP2 MSTORE RETURN JUMPDEST CALLVALUE PUSH2 0x263 JUMPI PUSH1 0x0 CALLDATASIZE PUSH1 0x3 NOT ADD SLT PUSH2 0x263 JUMPI PUSH1 0x20 PUSH1 0xFF PUSH1 0x8 SLOAD AND PUSH1 0x40 MLOAD SWAP1 ISZERO ISZERO DUP2 MSTORE RETURN JUMPDEST CALLVALUE PUSH2 0x263 JUMPI PUSH1 0x20 DUP1 PUSH1 0x3 NOT CALLDATASIZE ADD SLT PUSH2 0x263 JUMPI PUSH8 0xFFFFFFFFFFFFFFFF PUSH1 0x4 CALLDATALOAD DUP2 DUP2 GT PUSH2 0x263 JUMPI PUSH2 0x196E SWAP1 CALLDATASIZE SWAP1 PUSH1 0x4 ADD PUSH2 0x400B JUMP JUMPDEST SWAP2 PUSH2 0x1977 PUSH2 0x44B9 JUMP JUMPDEST DUP3 MLOAD SWAP2 DUP3 GT PUSH2 0xAE3 JUMPI PUSH2 0x198B PUSH1 0xA SLOAD PUSH2 0x41CF JUMP JUMPDEST PUSH1 0x1F DUP2 GT PUSH2 0x1A51 JUMPI JUMPDEST POP DUP1 PUSH1 0x1F DUP4 GT PUSH1 0x1 EQ PUSH2 0x19D0 JUMPI POP DUP2 SWAP3 PUSH1 0x0 SWAP3 PUSH2 0x19C5 JUMPI JUMPDEST POP POP PUSH1 0x0 NOT PUSH1 0x3 DUP4 SWAP1 SHL SHR NOT AND PUSH1 0x1 SWAP2 SWAP1 SWAP2 SHL OR PUSH1 0xA SSTORE STOP JUMPDEST ADD MLOAD SWAP1 POP DUP3 DUP1 PUSH2 0x19AC JUMP JUMPDEST SWAP1 PUSH1 0x1F NOT DUP4 AND SWAP4 PUSH1 0xA PUSH1 0x0 MSTORE PUSH32 0xC65A7BB8D6351C1CF70C95A316CC6A92839C986682D98BC35F958F4883F9D2A8 SWAP3 PUSH1 0x0 SWAP1 JUMPDEST DUP7 DUP3 LT PUSH2 0x1A39 JUMPI POP POP DUP4 PUSH1 0x1 SWAP6 LT PUSH2 0x1A20 JUMPI JUMPDEST POP POP POP DUP2 SHL ADD PUSH1 0xA SSTORE STOP JUMPDEST ADD MLOAD PUSH1 0x0 NOT PUSH1 0xF8 DUP5 PUSH1 0x3 SHL AND SHR NOT AND SWAP1 SSTORE DUP3 DUP1 DUP1 PUSH2 0x1A15 JUMP JUMPDEST DUP1 PUSH1 0x1 DUP6 SWAP7 DUP3 SWAP5 SWAP7 DUP7 ADD MLOAD DUP2 SSTORE ADD SWAP6 ADD SWAP4 ADD SWAP1 PUSH2 0x1A02 JUMP JUMPDEST PUSH1 0xA PUSH1 0x0 MSTORE PUSH32 0xC65A7BB8D6351C1CF70C95A316CC6A92839C986682D98BC35F958F4883F9D2A8 PUSH1 0x1F DUP5 ADD PUSH1 0x5 SHR DUP2 ADD SWAP2 DUP4 DUP6 LT PUSH2 0x1AAB JUMPI JUMPDEST PUSH1 0x1F ADD PUSH1 0x5 SHR ADD SWAP1 JUMPDEST DUP2 DUP2 LT PUSH2 0x1A9F JUMPI POP PUSH2 0x1994 JUMP JUMPDEST PUSH1 0x0 DUP2 SSTORE PUSH1 0x1 ADD PUSH2 0x1A92 JUMP JUMPDEST SWAP1 SWAP2 POP DUP2 SWAP1 PUSH2 0x1A89 JUMP JUMPDEST CALLVALUE PUSH2 0x263 JUMPI PUSH1 0x20 CALLDATASIZE PUSH1 0x3 NOT ADD SLT PUSH2 0x263 JUMPI PUSH1 0x4 CALLDATALOAD PUSH1 0x0 MSTORE PUSH1 0xE PUSH1 0x20 MSTORE PUSH1 0x40 PUSH1 0x0 KECCAK256 PUSH2 0x1ADF DUP2 PUSH2 0x4209 JUMP JUMPDEST PUSH2 0x1AEB PUSH1 0x1 DUP4 ADD PUSH2 0x4209 JUMP JUMPDEST SWAP2 PUSH2 0x1AF8 PUSH1 0x2 DUP3 ADD PUSH2 0x4209 JUMP JUMPDEST PUSH2 0x1B04 PUSH1 0x3 DUP4 ADD PUSH2 0x4209 JUMP JUMPDEST PUSH2 0x1B10 PUSH1 0x4 DUP5 ADD PUSH2 0x4209 JUMP JUMPDEST PUSH2 0x1B1C PUSH1 0x5 DUP6 ADD PUSH2 0x4209 JUMP JUMPDEST SWAP1 PUSH2 0x1B29 PUSH1 0x6 DUP7 ADD PUSH2 0x4209 JUMP JUMPDEST PUSH2 0x1B35 PUSH1 0x7 DUP8 ADD PUSH2 0x4209 JUMP JUMPDEST PUSH2 0x1B41 PUSH1 0x8 DUP9 ADD PUSH2 0x4209 JUMP JUMPDEST SWAP2 PUSH1 0xA DUP9 ADD SLOAD SWAP5 PUSH1 0xB DUP10 ADD SLOAD SWAP5 PUSH1 0xC DUP11 ADD PUSH2 0x1B5B SWAP1 PUSH2 0x4209 JUMP JUMPDEST SWAP8 PUSH1 0xD DUP12 ADD SLOAD SWAP11 PUSH1 0xE ADD SLOAD SWAP10 PUSH1 0x40 MLOAD SWAP14 DUP15 DUP1 SWAP15 PUSH2 0x1E0 DUP1 DUP4 MSTORE DUP3 ADD PUSH2 0x1B7F SWAP2 PUSH2 0x3E40 JUMP JUMPDEST SWAP1 DUP1 DUP3 SUB SWAP1 PUSH1 0x20 ADD MSTORE PUSH2 0x1B91 SWAP2 PUSH2 0x3E40 JUMP JUMPDEST DUP14 DUP2 SUB PUSH1 0x40 DUP16 ADD MSTORE PUSH2 0x1BA2 SWAP2 PUSH2 0x3E40 JUMP JUMPDEST DUP13 DUP2 SUB PUSH1 0x60 DUP15 ADD MSTORE PUSH2 0x1BB3 SWAP2 PUSH2 0x3E40 JUMP JUMPDEST DUP12 DUP2 SUB PUSH1 0x80 DUP14 ADD MSTORE PUSH2 0x1BC4 SWAP2 PUSH2 0x3E40 JUMP JUMPDEST DUP11 DUP2 SUB PUSH1 0xA0 DUP13 ADD MSTORE PUSH2 0x1BD5 SWAP2 PUSH2 0x3E40 JUMP JUMPDEST DUP10 DUP2 SUB PUSH1 0xC0 DUP12 ADD MSTORE PUSH2 0x1BE6 SWAP2 PUSH2 0x3E40 JUMP JUMPDEST DUP9 DUP2 SUB PUSH1 0xE0 DUP11 ADD MSTORE PUSH2 0x1BF7 SWAP2 PUSH2 0x3E40 JUMP JUMPDEST DUP8 DUP2 SUB PUSH2 0x100 DUP10 ADD MSTORE PUSH2 0x1C09 SWAP2 PUSH2 0x3E40 JUMP JUMPDEST SWAP2 PUSH2 0x120 DUP8 ADD MSTORE PUSH2 0x140 DUP7 ADD MSTORE DUP5 DUP2 SUB PUSH2 0x160 DUP7 ADD MSTORE PUSH2 0x1C28 SWAP2 PUSH2 0x3E40 JUMP JUMPDEST SWAP2 PUSH2 0x180 DUP5 ADD MSTORE PUSH1 0x1 PUSH1 0x1 PUSH1 0xA0 SHL SUB DUP2 AND PUSH2 0x1A0 DUP5 ADD MSTORE PUSH1 0xA0 SHR PUSH1 0xFF AND ISZERO ISZERO PUSH2 0x1C0 DUP4 ADD MSTORE SUB SWAP1 RETURN JUMPDEST CALLVALUE PUSH2 0x263 JUMPI PUSH2 0x5F2 PUSH2 0x1C62 CALLDATASIZE PUSH2 0x4029 JUMP JUMPDEST SWAP1 PUSH1 0x40 MLOAD SWAP3 PUSH2 0x1C70 DUP5 PUSH2 0x3F7A JUMP JUMPDEST PUSH1 0x0 DUP5 MSTORE PUSH2 0x7DB DUP4 DUP4 DUP4 PUSH2 0x46C7 JUMP JUMPDEST CALLVALUE PUSH2 0x263 JUMPI PUSH1 0x3 NOT PUSH1 0x80 CALLDATASIZE DUP3 ADD SLT PUSH2 0x263 JUMPI PUSH2 0x1C99 PUSH2 0x3E65 JUMP JUMPDEST PUSH1 0x24 CALLDATALOAD PUSH8 0xFFFFFFFFFFFFFFFF DUP2 GT PUSH2 0x263 JUMPI PUSH2 0x1CB9 SWAP1 CALLDATASIZE SWAP1 PUSH1 0x4 ADD PUSH2 0x400B JUMP JUMPDEST PUSH1 0x44 CALLDATALOAD PUSH8 0xFFFFFFFFFFFFFFFF DUP2 GT PUSH2 0x263 JUMPI PUSH2 0x1CD9 SWAP1 CALLDATASIZE SWAP1 PUSH1 0x4 ADD PUSH2 0x400B JUMP JUMPDEST SWAP3 PUSH1 0x64 SWAP1 PUSH8 0xFFFFFFFFFFFFFFFF DUP3 CALLDATALOAD GT PUSH2 0x263 JUMPI PUSH2 0x200 SWAP1 DUP3 CALLDATALOAD CALLDATASIZE SUB ADD SLT PUSH2 0x263 JUMPI PUSH1 0x40 MLOAD SWAP1 PUSH2 0x1D08 DUP3 PUSH2 0x3F41 JUMP JUMPDEST DUP1 CALLDATALOAD PUSH1 0x4 ADD CALLDATALOAD PUSH8 0xFFFFFFFFFFFFFFFF DUP2 GT PUSH2 0x263 JUMPI PUSH2 0x1D2E SWAP1 PUSH1 0x4 CALLDATASIZE SWAP2 DUP5 CALLDATALOAD ADD ADD PUSH2 0x400B JUMP JUMPDEST DUP3 MSTORE PUSH1 0x24 DUP2 CALLDATALOAD ADD CALLDATALOAD PUSH8 0xFFFFFFFFFFFFFFFF DUP2 GT PUSH2 0x263 JUMPI PUSH2 0x1D56 SWAP1 PUSH1 0x4 CALLDATASIZE SWAP2 DUP5 CALLDATALOAD ADD ADD PUSH2 0x400B JUMP JUMPDEST PUSH1 0x20 DUP4 ADD MSTORE PUSH1 0x44 DUP2 CALLDATALOAD ADD CALLDATALOAD PUSH8 0xFFFFFFFFFFFFFFFF DUP2 GT PUSH2 0x263 JUMPI PUSH2 0x1D81 SWAP1 PUSH1 0x4 CALLDATASIZE SWAP2 DUP5 CALLDATALOAD ADD ADD PUSH2 0x400B JUMP JUMPDEST PUSH1 0x40 DUP4 ADD MSTORE DUP1 DUP1 CALLDATALOAD ADD CALLDATALOAD PUSH8 0xFFFFFFFFFFFFFFFF DUP2 GT PUSH2 0x263 JUMPI PUSH2 0x1DAB SWAP1 PUSH1 0x4 CALLDATASIZE SWAP2 DUP5 CALLDATALOAD ADD ADD PUSH2 0x400B JUMP JUMPDEST PUSH1 0x60 DUP4 ADD MSTORE PUSH8 0xFFFFFFFFFFFFFFFF PUSH1 0x84 DUP3 CALLDATALOAD ADD CALLDATALOAD GT PUSH2 0x263 JUMPI PUSH2 0x1DD8 CALLDATASIZE DUP3 CALLDATALOAD PUSH1 0x84 DUP2 ADD CALLDATALOAD ADD PUSH1 0x4 ADD PUSH2 0x400B JUMP JUMPDEST PUSH1 0x80 DUP4 ADD MSTORE PUSH8 0xFFFFFFFFFFFFFFFF PUSH1 0xA4 DUP3 CALLDATALOAD ADD CALLDATALOAD GT PUSH2 0x263 JUMPI PUSH2 0x1E05 CALLDATASIZE DUP3 CALLDATALOAD PUSH1 0xA4 DUP2 ADD CALLDATALOAD ADD PUSH1 0x4 ADD PUSH2 0x400B JUMP JUMPDEST PUSH1 0xA0 DUP4 ADD MSTORE PUSH8 0xFFFFFFFFFFFFFFFF PUSH1 0xC4 DUP3 CALLDATALOAD ADD CALLDATALOAD GT PUSH2 0x263 JUMPI PUSH2 0x1E32 CALLDATASIZE DUP3 CALLDATALOAD PUSH1 0xC4 DUP2 ADD CALLDATALOAD ADD PUSH1 0x4 ADD PUSH2 0x400B JUMP JUMPDEST PUSH1 0xC0 DUP4 ADD MSTORE PUSH8 0xFFFFFFFFFFFFFFFF PUSH1 0xE4 DUP3 CALLDATALOAD ADD CALLDATALOAD GT PUSH2 0x263 JUMPI PUSH2 0x1E5F CALLDATASIZE DUP3 CALLDATALOAD PUSH1 0xE4 DUP2 ADD CALLDATALOAD ADD PUSH1 0x4 ADD PUSH2 0x400B JUMP JUMPDEST PUSH1 0xE0 DUP4 ADD MSTORE PUSH8 0xFFFFFFFFFFFFFFFF PUSH2 0x104 DUP3 CALLDATALOAD ADD CALLDATALOAD GT PUSH2 0x263 JUMPI PUSH2 0x1E8E CALLDATASIZE DUP3 CALLDATALOAD PUSH2 0x104 DUP2 ADD CALLDATALOAD ADD PUSH1 0x4 ADD PUSH2 0x400B JUMP JUMPDEST PUSH2 0x100 DUP4 ADD MSTORE PUSH8 0xFFFFFFFFFFFFFFFF PUSH2 0x124 DUP3 CALLDATALOAD ADD CALLDATALOAD GT PUSH2 0x263 JUMPI PUSH2 0x1EBE CALLDATASIZE DUP3 CALLDATALOAD PUSH2 0x124 DUP2 ADD CALLDATALOAD ADD PUSH1 0x4 ADD PUSH2 0x40B1 JUMP JUMPDEST PUSH2 0x120 DUP4 ADD MSTORE PUSH2 0x144 DUP2 CALLDATALOAD ADD CALLDATALOAD PUSH2 0x140 DUP4 ADD MSTORE PUSH2 0x164 DUP2 CALLDATALOAD ADD CALLDATALOAD PUSH2 0x160 DUP4 ADD MSTORE PUSH8 0xFFFFFFFFFFFFFFFF PUSH2 0x184 DUP3 CALLDATALOAD ADD CALLDATALOAD GT PUSH2 0x263 JUMPI PUSH2 0x1F08 CALLDATASIZE DUP3 CALLDATALOAD PUSH2 0x184 DUP2 ADD CALLDATALOAD ADD PUSH1 0x4 ADD PUSH2 0x400B JUMP JUMPDEST PUSH2 0x180 DUP4 ADD MSTORE DUP1 CALLDATALOAD PUSH2 0x1A4 DUP2 ADD CALLDATALOAD PUSH2 0x1A0 DUP5 ADD MSTORE PUSH2 0x1C4 ADD CALLDATALOAD PUSH1 0x1 PUSH1 0x1 PUSH1 0xA0 SHL SUB DUP2 AND SWAP1 SUB PUSH2 0x263 JUMPI DUP1 CALLDATALOAD PUSH2 0x1C4 DUP2 ADD CALLDATALOAD PUSH2 0x1C0 DUP5 ADD MSTORE PUSH2 0x1E4 ADD CALLDATALOAD DUP1 ISZERO ISZERO SWAP1 SUB PUSH2 0x263 JUMPI PUSH2 0x1E4 DUP2 CALLDATALOAD ADD CALLDATALOAD PUSH2 0x1E0 DUP4 ADD MSTORE PUSH2 0x1F62 PUSH2 0x454C JUMP JUMPDEST PUSH2 0x1F6A PUSH2 0x4F30 JUMP JUMPDEST PUSH2 0x1F7E PUSH1 0x1 PUSH1 0x1 PUSH1 0xA0 SHL SUB DUP6 AND ISZERO ISZERO PUSH2 0x4A1C JUMP JUMPDEST DUP3 MLOAD ISZERO PUSH2 0x34D8 JUMPI DUP5 MLOAD ISZERO PUSH2 0x3496 JUMPI PUSH1 0xFF PUSH1 0x40 MLOAD PUSH1 0x20 DUP2 DUP7 MLOAD PUSH2 0x1FA3 DUP2 DUP4 DUP6 DUP12 ADD PUSH2 0x3E1D JUMP JUMPDEST DUP2 ADD PUSH1 0x11 DUP2 MSTORE SUB ADD SWAP1 KECCAK256 SLOAD AND PUSH2 0x3454 JUMPI PUSH1 0xFF PUSH1 0x40 MLOAD PUSH1 0x20 DUP2 DUP9 MLOAD PUSH2 0x1FCA DUP2 DUP4 DUP6 DUP14 ADD PUSH2 0x3E1D JUMP JUMPDEST DUP2 ADD PUSH1 0x10 DUP2 MSTORE SUB ADD SWAP1 KECCAK256 SLOAD AND PUSH2 0x3412 JUMPI DUP2 MLOAD MLOAD ISZERO PUSH2 0x33D0 JUMPI PUSH1 0x60 DUP3 ADD MLOAD MLOAD ISZERO PUSH2 0x3366 JUMPI PUSH2 0x120 DUP3 ADD MLOAD MLOAD ISZERO PUSH2 0x3324 JUMPI POP PUSH2 0x2005 PUSH1 0x9 SLOAD PUSH2 0x4A67 JUMP JUMPDEST SWAP1 DUP2 PUSH1 0x9 SSTORE PUSH2 0x2018 PUSH2 0x120 DUP3 ADD MLOAD PUSH2 0x52E1 JUMP JUMPDEST DUP3 PUSH1 0x0 MSTORE PUSH1 0xE PUSH1 0x20 MSTORE PUSH1 0x40 PUSH1 0x0 KECCAK256 SWAP6 DUP3 MLOAD DUP1 MLOAD SWAP1 PUSH8 0xFFFFFFFFFFFFFFFF DUP3 GT PUSH2 0xAE3 JUMPI DUP2 SWAP1 PUSH2 0x2047 DUP11 SLOAD PUSH2 0x41CF JUMP JUMPDEST PUSH1 0x1F DUP2 GT PUSH2 0x32D4 JUMPI JUMPDEST POP PUSH1 0x20 SWAP1 PUSH1 0x1F DUP4 GT PUSH1 0x1 EQ PUSH2 0x3268 JUMPI PUSH1 0x0 SWAP3 PUSH2 0x325D JUMPI JUMPDEST POP POP DUP2 PUSH1 0x1 SHL SWAP2 PUSH1 0x0 NOT SWAP1 PUSH1 0x3 SHL SHR NOT AND OR DUP8 SSTORE JUMPDEST DUP5 MLOAD PUSH8 0xFFFFFFFFFFFFFFFF DUP2 GT PUSH2 0xAE3 JUMPI PUSH2 0x209A PUSH1 0x1 DUP10 ADD SLOAD PUSH2 0x41CF JUMP JUMPDEST PUSH1 0x1F DUP2 GT PUSH2 0x3216 JUMPI JUMPDEST POP DUP1 PUSH1 0x20 PUSH1 0x1F DUP3 GT PUSH1 0x1 EQ PUSH2 0x31A9 JUMPI PUSH1 0x0 SWAP2 PUSH2 0x319E JUMPI JUMPDEST POP DUP2 PUSH1 0x1 SHL SWAP2 PUSH1 0x0 NOT SWAP1 PUSH1 0x3 SHL SHR NOT AND OR PUSH1 0x1 DUP9 ADD SSTORE JUMPDEST DUP1 MLOAD PUSH8 0xFFFFFFFFFFFFFFFF DUP2 GT PUSH2 0xAE3 JUMPI PUSH2 0x20EF PUSH1 0x2 DUP10 ADD SLOAD PUSH2 0x41CF JUMP JUMPDEST PUSH1 0x1F DUP2 GT PUSH2 0x3157 JUMPI JUMPDEST POP DUP1 PUSH1 0x20 PUSH1 0x1F DUP3 GT PUSH1 0x1 EQ PUSH2 0x30EA JUMPI PUSH1 0x0 SWAP2 PUSH2 0x30DF JUMPI JUMPDEST POP DUP2 PUSH1 0x1 SHL SWAP2 PUSH1 0x0 NOT SWAP1 PUSH1 0x3 SHL SHR NOT AND OR PUSH1 0x2 DUP9 ADD SSTORE JUMPDEST PUSH1 0x60 DUP4 ADD MLOAD DUP1 MLOAD SWAP1 PUSH8 0xFFFFFFFFFFFFFFFF DUP3 GT PUSH2 0xAE3 JUMPI DUP2 SWAP1 PUSH2 0x214C PUSH1 0x3 DUP12 ADD SLOAD PUSH2 0x41CF JUMP JUMPDEST PUSH1 0x1F DUP2 GT PUSH2 0x308C JUMPI JUMPDEST POP PUSH1 0x20 SWAP1 PUSH1 0x1F DUP4 GT PUSH1 0x1 EQ PUSH2 0x301A JUMPI PUSH1 0x0 SWAP3 PUSH2 0x300F JUMPI JUMPDEST POP POP DUP2 PUSH1 0x1 SHL SWAP2 PUSH1 0x0 NOT SWAP1 PUSH1 0x3 SHL SHR NOT AND OR PUSH1 0x3 DUP9 ADD SSTORE JUMPDEST PUSH1 0x80 DUP4 ADD MLOAD DUP1 MLOAD SWAP1 PUSH8 0xFFFFFFFFFFFFFFFF DUP3 GT PUSH2 0xAE3 JUMPI DUP2 SWAP1 PUSH2 0x21AA PUSH1 0x4 DUP12 ADD SLOAD PUSH2 0x41CF JUMP JUMPDEST PUSH1 0x1F DUP2 GT PUSH2 0x2FBC JUMPI JUMPDEST POP PUSH1 0x20 SWAP1 PUSH1 0x1F DUP4 GT PUSH1 0x1 EQ PUSH2 0x2F4A JUMPI PUSH1 0x0 SWAP3 PUSH2 0x2F3F JUMPI JUMPDEST POP POP DUP2 PUSH1 0x1 SHL SWAP2 PUSH1 0x0 NOT SWAP1 PUSH1 0x3 SHL SHR NOT AND OR PUSH1 0x4 DUP9 ADD SSTORE JUMPDEST PUSH1 0xA0 DUP4 ADD MLOAD DUP1 MLOAD SWAP1 PUSH8 0xFFFFFFFFFFFFFFFF DUP3 GT PUSH2 0xAE3 JUMPI DUP2 SWAP1 PUSH2 0x2208 PUSH1 0x5 DUP12 ADD SLOAD PUSH2 0x41CF JUMP JUMPDEST PUSH1 0x1F DUP2 GT PUSH2 0x2EEC JUMPI JUMPDEST POP PUSH1 0x20 SWAP1 PUSH1 0x1F DUP4 GT PUSH1 0x1 EQ PUSH2 0x2E7A JUMPI PUSH1 0x0 SWAP3 PUSH2 0x2E6F JUMPI JUMPDEST POP POP DUP2 PUSH1 0x1 SHL SWAP2 PUSH1 0x0 NOT SWAP1 PUSH1 0x3 SHL SHR NOT AND OR PUSH1 0x5 DUP9 ADD SSTORE JUMPDEST PUSH1 0xC0 DUP4 ADD MLOAD DUP1 MLOAD SWAP1 PUSH8 0xFFFFFFFFFFFFFFFF DUP3 GT PUSH2 0xAE3 JUMPI DUP2 SWAP1 PUSH2 0x2266 PUSH1 0x6 DUP12 ADD SLOAD PUSH2 0x41CF JUMP JUMPDEST PUSH1 0x1F DUP2 GT PUSH2 0x2E1C JUMPI JUMPDEST POP PUSH1 0x20 SWAP1 PUSH1 0x1F DUP4 GT PUSH1 0x1 EQ PUSH2 0x2DAA JUMPI PUSH1 0x0 SWAP3 PUSH2 0x2D9F JUMPI JUMPDEST POP POP DUP2 PUSH1 0x1 SHL SWAP2 PUSH1 0x0 NOT SWAP1 PUSH1 0x3 SHL SHR NOT AND OR PUSH1 0x6 DUP9 ADD SSTORE JUMPDEST PUSH1 0xE0 DUP4 ADD MLOAD DUP1 MLOAD SWAP1 PUSH8 0xFFFFFFFFFFFFFFFF DUP3 GT PUSH2 0xAE3 JUMPI DUP2 SWAP1 PUSH2 0x22C4 PUSH1 0x7 DUP12 ADD SLOAD PUSH2 0x41CF JUMP JUMPDEST PUSH1 0x1F DUP2 GT PUSH2 0x2D4C JUMPI JUMPDEST POP PUSH1 0x20 SWAP1 PUSH1 0x1F DUP4 GT PUSH1 0x1 EQ PUSH2 0x2CDA JUMPI PUSH1 0x0 SWAP3 PUSH2 0x2CCF JUMPI JUMPDEST POP POP DUP2 PUSH1 0x1 SHL SWAP2 PUSH1 0x0 NOT SWAP1 PUSH1 0x3 SHL SHR NOT AND OR PUSH1 0x7 DUP9 ADD SSTORE JUMPDEST PUSH2 0x100 DUP4 ADD MLOAD DUP1 MLOAD SWAP1 PUSH8 0xFFFFFFFFFFFFFFFF DUP3 GT PUSH2 0xAE3 JUMPI DUP2 SWAP1 PUSH2 0x2323 PUSH1 0x8 DUP12 ADD SLOAD PUSH2 0x41CF JUMP JUMPDEST PUSH1 0x1F DUP2 GT PUSH2 0x2C7C JUMPI JUMPDEST POP PUSH1 0x20 SWAP1 PUSH1 0x1F DUP4 GT PUSH1 0x1 EQ PUSH2 0x2C0A JUMPI PUSH1 0x0 SWAP3 PUSH2 0x2BFF JUMPI JUMPDEST POP POP DUP2 PUSH1 0x1 SHL SWAP2 PUSH1 0x0 NOT SWAP1 PUSH1 0x3 SHL SHR NOT AND OR PUSH1 0x8 DUP9 ADD SSTORE JUMPDEST PUSH2 0x140 DUP4 ADD MLOAD PUSH1 0xA DUP9 ADD SSTORE DUP2 PUSH1 0xB DUP9 ADD SSTORE PUSH2 0x180 DUP4 ADD MLOAD DUP1 MLOAD SWAP1 PUSH8 0xFFFFFFFFFFFFFFFF DUP3 GT PUSH2 0xAE3 JUMPI DUP2 SWAP1 PUSH2 0x2393 PUSH1 0xC DUP12 ADD SLOAD PUSH2 0x41CF JUMP JUMPDEST PUSH1 0x1F DUP2 GT PUSH2 0x2BAC JUMPI JUMPDEST POP PUSH1 0x20 SWAP1 PUSH1 0x1F DUP4 GT PUSH1 0x1 EQ PUSH2 0x2B3A JUMPI PUSH1 0x0 SWAP3 PUSH2 0x2B2F JUMPI JUMPDEST POP POP DUP2 PUSH1 0x1 SHL SWAP2 PUSH1 0x0 NOT SWAP1 PUSH1 0x3 SHL SHR NOT AND OR PUSH1 0xC DUP9 ADD SSTORE JUMPDEST TIMESTAMP PUSH1 0xD DUP9 ADD SSTORE PUSH1 0xE DUP8 ADD DUP1 SLOAD PUSH32 0xFFFFFFFFFFFFFFFFFFFFFF000000000000000000000000000000000000000000 AND CALLER PUSH1 0xFF PUSH1 0xA0 SHL NOT AND OR SWAP1 SSTORE PUSH1 0x0 JUMPDEST PUSH2 0x120 DUP5 ADD MLOAD DUP1 MLOAD DUP3 LT ISZERO PUSH2 0x29A2 JUMPI DUP2 PUSH2 0x2420 SWAP2 PUSH2 0x52C0 JUMP JUMPDEST MLOAD PUSH1 0x9 DUP10 ADD SLOAD SWAP1 PUSH9 0x10000000000000000 DUP3 LT ISZERO PUSH2 0xAE3 JUMPI PUSH1 0x1 DUP3 ADD DUP1 PUSH1 0x9 DUP13 ADD SSTORE DUP3 LT ISZERO PUSH2 0x298C JUMPI PUSH1 0x9 DUP11 ADD PUSH1 0x0 MSTORE PUSH1 0x20 PUSH1 0x0 KECCAK256 SWAP1 DUP1 MLOAD DUP1 MLOAD SWAP1 PUSH8 0xFFFFFFFFFFFFFFFF DUP3 GT PUSH2 0xAE3 JUMPI DUP2 SWAP1 PUSH2 0x247B PUSH1 0x6 DUP8 MUL DUP7 ADD SLOAD PUSH2 0x41CF JUMP JUMPDEST PUSH1 0x1F DUP2 GT PUSH2 0x2937 JUMPI JUMPDEST POP PUSH1 0x20 SWAP1 PUSH1 0x1F DUP4 GT PUSH1 0x1 EQ PUSH2 0x28C1 JUMPI PUSH1 0x0 SWAP3 PUSH2 0x28B6 JUMPI JUMPDEST POP POP DUP2 PUSH1 0x1 SHL SWAP2 PUSH1 0x0 NOT SWAP1 PUSH1 0x3 SHL SHR NOT AND OR PUSH1 0x6 DUP5 MUL DUP4 ADD SSTORE JUMPDEST PUSH1 0x20 DUP2 ADD MLOAD DUP1 MLOAD SWAP1 PUSH8 0xFFFFFFFFFFFFFFFF DUP3 GT PUSH2 0xAE3 JUMPI DUP2 SWAP1 PUSH2 0x24E0 PUSH1 0x1 PUSH1 0x6 DUP9 MUL DUP8 ADD ADD SLOAD PUSH2 0x41CF JUMP JUMPDEST PUSH1 0x1F DUP2 GT PUSH2 0x285E JUMPI JUMPDEST POP PUSH1 0x20 SWAP1 PUSH1 0x1F DUP4 GT PUSH1 0x1 EQ PUSH2 0x27E2 JUMPI PUSH1 0x0 SWAP3 PUSH2 0x27D7 JUMPI JUMPDEST POP POP DUP2 PUSH1 0x1 SHL SWAP2 PUSH1 0x0 NOT SWAP1 PUSH1 0x3 SHL SHR NOT AND OR PUSH1 0x1 PUSH1 0x6 DUP6 MUL DUP5 ADD ADD SSTORE JUMPDEST PUSH1 0x40 DUP2 ADD MLOAD DUP1 MLOAD SWAP1 PUSH8 0xFFFFFFFFFFFFFFFF DUP3 GT PUSH2 0xAE3 JUMPI DUP2 SWAP1 PUSH2 0x2548 PUSH1 0x2 PUSH1 0x6 DUP9 MUL DUP8 ADD ADD SLOAD PUSH2 0x41CF JUMP JUMPDEST PUSH1 0x1F DUP2 GT PUSH2 0x277F JUMPI JUMPDEST POP PUSH1 0x20 SWAP1 PUSH1 0x1F DUP4 GT PUSH1 0x1 EQ PUSH2 0x2703 JUMPI PUSH1 0x0 SWAP3 PUSH2 0x26F8 JUMPI JUMPDEST POP POP DUP2 PUSH1 0x1 SHL SWAP2 PUSH1 0x0 NOT SWAP1 PUSH1 0x3 SHL SHR NOT AND OR PUSH1 0x2 PUSH1 0x6 DUP6 MUL DUP5 ADD ADD SSTORE JUMPDEST PUSH1 0x60 DUP2 ADD MLOAD PUSH1 0x3 PUSH1 0x6 DUP6 MUL DUP5 ADD ADD SSTORE PUSH1 0x80 DUP2 ADD MLOAD DUP1 MLOAD SWAP1 PUSH8 0xFFFFFFFFFFFFFFFF DUP3 GT PUSH2 0xAE3 JUMPI PUSH2 0x25BD PUSH1 0x4 PUSH1 0x6 DUP8 MUL DUP7 ADD ADD SLOAD PUSH2 0x41CF JUMP JUMPDEST PUSH1 0x1F DUP2 GT PUSH2 0x26AC JUMPI JUMPDEST POP PUSH1 0x20 SWAP1 PUSH1 0x1F DUP4 GT PUSH1 0x1 EQ PUSH2 0x2626 JUMPI PUSH1 0x5 SWAP4 DUP4 PUSH2 0x2616 SWAP9 SWAP8 SWAP7 SWAP5 PUSH1 0x6 SWAP5 PUSH1 0xA0 SWAP5 PUSH1 0x0 SWAP3 PUSH2 0x261B JUMPI JUMPDEST POP POP DUP2 PUSH1 0x1 SHL SWAP2 PUSH1 0x0 NOT SWAP1 PUSH1 0x3 SHL SHR NOT AND OR PUSH1 0x4 DUP5 DUP9 MUL DUP7 ADD ADD SSTORE JUMPDEST ADD MLOAD SWAP4 MUL ADD ADD SSTORE PUSH2 0x4A67 JUMP JUMPDEST PUSH2 0x2407 JUMP JUMPDEST ADD MLOAD SWAP1 POP CODESIZE DUP1 PUSH2 0x25EE JUMP JUMPDEST SWAP1 PUSH1 0x4 PUSH1 0x6 DUP8 MUL DUP7 ADD ADD PUSH1 0x0 MSTORE PUSH1 0x20 PUSH1 0x0 KECCAK256 SWAP2 PUSH1 0x0 JUMPDEST PUSH1 0x1F NOT DUP6 AND DUP2 LT PUSH2 0x2694 JUMPI POP SWAP4 PUSH1 0x1 DUP5 PUSH1 0x6 SWAP5 PUSH1 0xA0 SWAP5 PUSH1 0x5 SWAP9 PUSH2 0x2616 SWAP13 SWAP12 SWAP11 SWAP9 PUSH1 0x1F NOT DUP2 AND LT PUSH2 0x267B JUMPI JUMPDEST POP POP POP DUP2 SHL ADD PUSH1 0x4 DUP5 DUP9 MUL DUP7 ADD ADD SSTORE PUSH2 0x260A JUMP JUMPDEST ADD MLOAD PUSH1 0x0 NOT PUSH1 0xF8 DUP5 PUSH1 0x3 SHL AND SHR NOT AND SWAP1 SSTORE CODESIZE DUP1 DUP1 PUSH2 0x2667 JUMP JUMPDEST SWAP2 SWAP3 PUSH1 0x20 PUSH1 0x1 DUP2 SWAP3 DUP7 DUP6 ADD MLOAD DUP2 SSTORE ADD SWAP5 ADD SWAP3 ADD PUSH2 0x263C JUMP JUMPDEST PUSH1 0x4 PUSH1 0x6 DUP8 MUL DUP7 ADD ADD PUSH1 0x0 MSTORE PUSH1 0x20 PUSH1 0x0 KECCAK256 PUSH1 0x1F DUP5 ADD PUSH1 0x5 SHR DUP2 ADD PUSH1 0x20 DUP6 LT PUSH2 0x26F1 JUMPI JUMPDEST PUSH1 0x1F DUP4 ADD PUSH1 0x5 SHR DUP3 ADD DUP2 LT PUSH2 0x26E5 JUMPI POP POP PUSH2 0x25C6 JUMP JUMPDEST PUSH1 0x0 DUP2 SSTORE PUSH1 0x1 ADD PUSH2 0x26CF JUMP JUMPDEST POP DUP1 PUSH2 0x26CF JUMP JUMPDEST ADD MLOAD SWAP1 POP DUP14 DUP1 PUSH2 0x2568 JUMP JUMPDEST SWAP3 POP PUSH1 0x2 PUSH1 0x6 DUP8 MUL DUP7 ADD ADD PUSH1 0x0 MSTORE PUSH1 0x20 PUSH1 0x0 KECCAK256 SWAP1 PUSH1 0x0 SWAP4 JUMPDEST PUSH1 0x1F NOT DUP5 AND DUP6 LT PUSH2 0x2764 JUMPI PUSH1 0x1 SWAP5 POP DUP4 PUSH1 0x1F NOT DUP2 AND LT PUSH2 0x274B JUMPI JUMPDEST POP POP POP DUP2 SHL ADD PUSH1 0x2 PUSH1 0x6 DUP6 MUL DUP5 ADD ADD SSTORE PUSH2 0x2585 JUMP JUMPDEST ADD MLOAD PUSH1 0x0 NOT PUSH1 0xF8 DUP5 PUSH1 0x3 SHL AND SHR NOT AND SWAP1 SSTORE DUP14 DUP1 DUP1 PUSH2 0x2736 JUMP JUMPDEST DUP2 DUP2 ADD MLOAD DUP4 SSTORE PUSH1 0x20 SWAP5 DUP6 ADD SWAP5 PUSH1 0x1 SWAP1 SWAP4 ADD SWAP3 SWAP1 SWAP2 ADD SWAP1 PUSH2 0x271B JUMP JUMPDEST SWAP1 SWAP2 POP PUSH1 0x2 PUSH1 0x6 DUP8 MUL DUP7 ADD ADD PUSH1 0x0 MSTORE PUSH1 0x20 PUSH1 0x0 KECCAK256 PUSH1 0x1F DUP5 ADD PUSH1 0x5 SHR DUP2 ADD PUSH1 0x20 DUP6 LT PUSH2 0x27D0 JUMPI JUMPDEST SWAP1 DUP5 SWAP4 SWAP3 SWAP2 JUMPDEST PUSH1 0x1F DUP4 ADD PUSH1 0x5 SHR DUP3 ADD DUP2 LT PUSH2 0x27C1 JUMPI POP POP PUSH2 0x2551 JUMP JUMPDEST PUSH1 0x0 DUP2 SSTORE DUP6 SWAP5 POP PUSH1 0x1 ADD PUSH2 0x27AB JUMP JUMPDEST POP DUP1 PUSH2 0x27A5 JUMP JUMPDEST ADD MLOAD SWAP1 POP DUP14 DUP1 PUSH2 0x2500 JUMP JUMPDEST SWAP3 POP PUSH1 0x1 PUSH1 0x6 DUP8 MUL DUP7 ADD ADD PUSH1 0x0 MSTORE PUSH1 0x20 PUSH1 0x0 KECCAK256 SWAP1 PUSH1 0x0 SWAP4 JUMPDEST PUSH1 0x1F NOT DUP5 AND DUP6 LT PUSH2 0x2843 JUMPI PUSH1 0x1 SWAP5 POP DUP4 PUSH1 0x1F NOT DUP2 AND LT PUSH2 0x282A JUMPI JUMPDEST POP POP POP DUP2 SHL ADD PUSH1 0x1 PUSH1 0x6 DUP6 MUL DUP5 ADD ADD SSTORE PUSH2 0x251D JUMP JUMPDEST ADD MLOAD PUSH1 0x0 NOT PUSH1 0xF8 DUP5 PUSH1 0x3 SHL AND SHR NOT AND SWAP1 SSTORE DUP14 DUP1 DUP1 PUSH2 0x2815 JUMP JUMPDEST DUP2 DUP2 ADD MLOAD DUP4 SSTORE PUSH1 0x20 SWAP5 DUP6 ADD SWAP5 PUSH1 0x1 SWAP1 SWAP4 ADD SWAP3 SWAP1 SWAP2 ADD SWAP1 PUSH2 0x27FA JUMP JUMPDEST SWAP1 SWAP2 POP PUSH1 0x1 PUSH1 0x6 DUP8 MUL DUP7 ADD ADD PUSH1 0x0 MSTORE PUSH1 0x20 PUSH1 0x0 KECCAK256 PUSH1 0x1F DUP5 ADD PUSH1 0x5 SHR DUP2 ADD PUSH1 0x20 DUP6 LT PUSH2 0x28AF JUMPI JUMPDEST SWAP1 DUP5 SWAP4 SWAP3 SWAP2 JUMPDEST PUSH1 0x1F DUP4 ADD PUSH1 0x5 SHR DUP3 ADD DUP2 LT PUSH2 0x28A0 JUMPI POP POP PUSH2 0x24E9 JUMP JUMPDEST PUSH1 0x0 DUP2 SSTORE DUP6 SWAP5 POP PUSH1 0x1 ADD PUSH2 0x288A JUMP JUMPDEST POP DUP1 PUSH2 0x2884 JUMP JUMPDEST ADD MLOAD SWAP1 POP DUP14 DUP1 PUSH2 0x249B JUMP JUMPDEST SWAP3 POP PUSH1 0x6 DUP7 MUL DUP6 ADD PUSH1 0x0 MSTORE PUSH1 0x20 PUSH1 0x0 KECCAK256 SWAP1 PUSH1 0x0 SWAP4 JUMPDEST PUSH1 0x1F NOT DUP5 AND DUP6 LT PUSH2 0x291C JUMPI PUSH1 0x1 SWAP5 POP DUP4 PUSH1 0x1F NOT DUP2 AND LT PUSH2 0x2903 JUMPI JUMPDEST POP POP POP DUP2 SHL ADD PUSH1 0x6 DUP5 MUL DUP4 ADD SSTORE PUSH2 0x24B5 JUMP JUMPDEST ADD MLOAD PUSH1 0x0 NOT PUSH1 0xF8 DUP5 PUSH1 0x3 SHL AND SHR NOT AND SWAP1 SSTORE DUP14 DUP1 DUP1 PUSH2 0x28F1 JUMP JUMPDEST DUP2 DUP2 ADD MLOAD DUP4 SSTORE PUSH1 0x20 SWAP5 DUP6 ADD SWAP5 PUSH1 0x1 SWAP1 SWAP4 ADD SWAP3 SWAP1 SWAP2 ADD SWAP1 PUSH2 0x28D6 JUMP JUMPDEST SWAP1 SWAP2 POP PUSH1 0x6 DUP7 MUL DUP6 ADD PUSH1 0x0 MSTORE PUSH1 0x20 PUSH1 0x0 KECCAK256 PUSH1 0x1F DUP5 ADD PUSH1 0x5 SHR DUP2 ADD PUSH1 0x20 DUP6 LT PUSH2 0x2985 JUMPI JUMPDEST SWAP1 DUP5 SWAP4 SWAP3 SWAP2 JUMPDEST PUSH1 0x1F DUP4 ADD PUSH1 0x5 SHR DUP3 ADD DUP2 LT PUSH2 0x2976 JUMPI POP POP PUSH2 0x2484 JUMP JUMPDEST PUSH1 0x0 DUP2 SSTORE DUP6 SWAP5 POP PUSH1 0x1 ADD PUSH2 0x2960 JUMP JUMPDEST POP DUP1 PUSH2 0x295A JUMP JUMPDEST PUSH4 0x4E487B71 PUSH1 0xE0 SHL PUSH1 0x0 MSTORE PUSH1 0x32 PUSH1 0x4 MSTORE PUSH1 0x24 PUSH1 0x0 REVERT JUMPDEST POP POP PUSH31 0x6260462507CD85B27AB0F8B3EB749422A22E01F982F4DFA3FDB78B97F7E810 PUSH2 0x2AEC DUP6 SWAP3 PUSH1 0x1 PUSH1 0x1 PUSH1 0xA0 SHL SUB DUP10 PUSH2 0x2B16 PUSH1 0x20 SWAP11 DUP4 DUP4 AND PUSH1 0x0 MSTORE PUSH1 0xF DUP13 MSTORE PUSH2 0x29F0 DUP9 PUSH1 0x40 PUSH1 0x0 KECCAK256 PUSH2 0x4A8C JUMP JUMPDEST PUSH1 0x40 MLOAD DUP13 DUP2 DUP4 MLOAD PUSH2 0x2A04 DUP2 DUP4 DUP6 DUP9 ADD PUSH2 0x3E1D JUMP JUMPDEST DUP2 ADD PUSH1 0x11 DUP2 MSTORE SUB ADD SWAP1 KECCAK256 PUSH1 0xFF NOT SWAP1 PUSH1 0x1 DUP3 DUP3 SLOAD AND OR SWAP1 SSTORE PUSH1 0x1 PUSH1 0x40 MLOAD DUP15 DUP2 DUP2 PUSH2 0x2A33 DUP12 DUP4 DUP2 MLOAD SWAP4 DUP5 SWAP3 ADD PUSH2 0x3E1D JUMP JUMPDEST DUP2 ADD PUSH1 0x10 DUP2 MSTORE SUB ADD SWAP1 KECCAK256 SWAP2 DUP3 SLOAD AND OR SWAP1 SSTORE PUSH2 0x2A4E DUP9 DUP5 PUSH2 0x4B75 JUMP JUMPDEST PUSH2 0x2AB8 PUSH2 0x2A5A DUP10 PUSH2 0x4F66 JUMP JUMPDEST PUSH2 0x111F PUSH1 0xA PUSH1 0x40 MLOAD PUSH1 0x20 SWAP4 PUSH2 0x2A71 DUP3 SWAP6 DUP4 ADD PUSH2 0x4AC6 JUMP JUMPDEST PUSH32 0x2F73656D65737465722F00000000000000000000000000000000000000000000 DUP2 MSTORE PUSH2 0x2AA8 DUP3 MLOAD PUSH1 0x20 SWAP4 DUP2 SWAP5 DUP8 DUP6 ADD SWAP2 ADD PUSH2 0x3E1D JUMP JUMPDEST ADD SUB PUSH1 0x15 NOT DUP2 ADD DUP5 MSTORE ADD DUP3 PUSH2 0x3F96 JUMP JUMPDEST PUSH2 0x2B08 PUSH1 0x60 DUP12 ADD MLOAD SWAP11 PUSH2 0x2AFA PUSH2 0x2AD7 PUSH1 0xA0 PUSH1 0x80 DUP5 ADD MLOAD SWAP4 ADD MLOAD SWAP5 PUSH2 0x4B55 JUMP JUMPDEST SWAP13 PUSH1 0x40 MLOAD SWAP10 DUP11 SWAP10 PUSH1 0xC0 DUP12 MSTORE PUSH1 0xC0 DUP12 ADD SWAP1 PUSH2 0x3E40 JUMP JUMPDEST SWAP1 DUP10 DUP3 SUB PUSH1 0x20 DUP12 ADD MSTORE PUSH2 0x3E40 JUMP JUMPDEST SWAP1 DUP8 DUP3 SUB PUSH1 0x40 DUP10 ADD MSTORE PUSH2 0x3E40 JUMP JUMPDEST SWAP1 DUP6 DUP3 SUB PUSH1 0x60 DUP8 ADD MSTORE PUSH2 0x3E40 JUMP JUMPDEST SWAP7 PUSH1 0x80 DUP5 ADD MSTORE TIMESTAMP PUSH1 0xA0 DUP5 ADD MSTORE AND SWAP5 SUB SWAP1 LOG4 PUSH1 0x40 MLOAD SWAP1 DUP2 MSTORE RETURN JUMPDEST ADD MLOAD SWAP1 POP DUP10 DUP1 PUSH2 0x23B3 JUMP JUMPDEST SWAP3 POP PUSH1 0xC DUP11 ADD PUSH1 0x0 MSTORE PUSH1 0x20 PUSH1 0x0 KECCAK256 SWAP1 PUSH1 0x0 SWAP4 JUMPDEST PUSH1 0x1F NOT DUP5 AND DUP6 LT PUSH2 0x2B91 JUMPI PUSH1 0x1 SWAP5 POP DUP4 PUSH1 0x1F NOT DUP2 AND LT PUSH2 0x2B78 JUMPI JUMPDEST POP POP POP DUP2 SHL ADD PUSH1 0xC DUP9 ADD SSTORE PUSH2 0x23CB JUMP JUMPDEST ADD MLOAD PUSH1 0x0 NOT PUSH1 0xF8 DUP5 PUSH1 0x3 SHL AND SHR NOT AND SWAP1 SSTORE DUP10 DUP1 DUP1 PUSH2 0x2B68 JUMP JUMPDEST DUP2 DUP2 ADD MLOAD DUP4 SSTORE PUSH1 0x20 SWAP5 DUP6 ADD SWAP5 PUSH1 0x1 SWAP1 SWAP4 ADD SWAP3 SWAP1 SWAP2 ADD SWAP1 PUSH2 0x2B4D JUMP JUMPDEST SWAP1 SWAP2 POP PUSH1 0xC DUP11 ADD PUSH1 0x0 MSTORE PUSH1 0x20 PUSH1 0x0 KECCAK256 PUSH1 0x1F DUP5 ADD PUSH1 0x5 SHR DUP2 ADD PUSH1 0x20 DUP6 LT PUSH2 0x2BF8 JUMPI JUMPDEST SWAP1 DUP5 SWAP4 SWAP3 SWAP2 JUMPDEST PUSH1 0x1F DUP4 ADD PUSH1 0x5 SHR DUP3 ADD DUP2 LT PUSH2 0x2BE9 JUMPI POP POP PUSH2 0x239C JUMP JUMPDEST PUSH1 0x0 DUP2 SSTORE DUP6 SWAP5 POP PUSH1 0x1 ADD PUSH2 0x2BD3 JUMP JUMPDEST POP DUP1 PUSH2 0x2BCD JUMP JUMPDEST ADD MLOAD SWAP1 POP DUP10 DUP1 PUSH2 0x2343 JUMP JUMPDEST SWAP3 POP PUSH1 0x8 DUP11 ADD PUSH1 0x0 MSTORE PUSH1 0x20 PUSH1 0x0 KECCAK256 SWAP1 PUSH1 0x0 SWAP4 JUMPDEST PUSH1 0x1F NOT DUP5 AND DUP6 LT PUSH2 0x2C61 JUMPI PUSH1 0x1 SWAP5 POP DUP4 PUSH1 0x1F NOT DUP2 AND LT PUSH2 0x2C48 JUMPI JUMPDEST POP POP POP DUP2 SHL ADD PUSH1 0x8 DUP9 ADD SSTORE PUSH2 0x235B JUMP JUMPDEST ADD MLOAD PUSH1 0x0 NOT PUSH1 0xF8 DUP5 PUSH1 0x3 SHL AND SHR NOT AND SWAP1 SSTORE DUP10 DUP1 DUP1 PUSH2 0x2C38 JUMP JUMPDEST DUP2 DUP2 ADD MLOAD DUP4 SSTORE PUSH1 0x20 SWAP5 DUP6 ADD SWAP5 PUSH1 0x1 SWAP1 SWAP4 ADD SWAP3 SWAP1 SWAP2 ADD SWAP1 PUSH2 0x2C1D JUMP JUMPDEST SWAP1 SWAP2 POP PUSH1 0x8 DUP11 ADD PUSH1 0x0 MSTORE PUSH1 0x20 PUSH1 0x0 KECCAK256 PUSH1 0x1F DUP5 ADD PUSH1 0x5 SHR DUP2 ADD PUSH1 0x20 DUP6 LT PUSH2 0x2CC8 JUMPI JUMPDEST SWAP1 DUP5 SWAP4 SWAP3 SWAP2 JUMPDEST PUSH1 0x1F DUP4 ADD PUSH1 0x5 SHR DUP3 ADD DUP2 LT PUSH2 0x2CB9 JUMPI POP POP PUSH2 0x232C JUMP JUMPDEST PUSH1 0x0 DUP2 SSTORE DUP6 SWAP5 POP PUSH1 0x1 ADD PUSH2 0x2CA3 JUMP JUMPDEST POP DUP1 PUSH2 0x2C9D JUMP JUMPDEST ADD MLOAD SWAP1 POP DUP10 DUP1 PUSH2 0x22E4 JUMP JUMPDEST SWAP3 POP PUSH1 0x7 DUP11 ADD PUSH1 0x0 MSTORE PUSH1 0x20 PUSH1 0x0 KECCAK256 SWAP1 PUSH1 0x0 SWAP4 JUMPDEST PUSH1 0x1F NOT DUP5 AND DUP6 LT PUSH2 0x2D31 JUMPI PUSH1 0x1 SWAP5 POP DUP4 PUSH1 0x1F NOT DUP2 AND LT PUSH2 0x2D18 JUMPI JUMPDEST POP POP POP DUP2 SHL ADD PUSH1 0x7 DUP9 ADD SSTORE PUSH2 0x22FC JUMP JUMPDEST ADD MLOAD PUSH1 0x0 NOT PUSH1 0xF8 DUP5 PUSH1 0x3 SHL AND SHR NOT AND SWAP1 SSTORE DUP10 DUP1 DUP1 PUSH2 0x2D08 JUMP JUMPDEST DUP2 DUP2 ADD MLOAD DUP4 SSTORE PUSH1 0x20 SWAP5 DUP6 ADD SWAP5 PUSH1 0x1 SWAP1 SWAP4 ADD SWAP3 SWAP1 SWAP2 ADD SWAP1 PUSH2 0x2CED JUMP JUMPDEST SWAP1 SWAP2 POP PUSH1 0x7 DUP11 ADD PUSH1 0x0 MSTORE PUSH1 0x20 PUSH1 0x0 KECCAK256 PUSH1 0x1F DUP5 ADD PUSH1 0x5 SHR DUP2 ADD PUSH1 0x20 DUP6 LT PUSH2 0x2D98 JUMPI JUMPDEST SWAP1 DUP5 SWAP4 SWAP3 SWAP2 JUMPDEST PUSH1 0x1F DUP4 ADD PUSH1 0x5 SHR DUP3 ADD DUP2 LT PUSH2 0x2D89 JUMPI POP POP PUSH2 0x22CD JUMP JUMPDEST PUSH1 0x0 DUP2 SSTORE DUP6 SWAP5 POP PUSH1 0x1 ADD PUSH2 0x2D73 JUMP JUMPDEST POP DUP1 PUSH2 0x2D6D JUMP JUMPDEST ADD MLOAD SWAP1 POP DUP10 DUP1 PUSH2 0x2286 JUMP JUMPDEST SWAP3 POP PUSH1 0x6 DUP11 ADD PUSH1 0x0 MSTORE PUSH1 0x20 PUSH1 0x0 KECCAK256 SWAP1 PUSH1 0x0 SWAP4 JUMPDEST PUSH1 0x1F NOT DUP5 AND DUP6 LT PUSH2 0x2E01 JUMPI PUSH1 0x1 SWAP5 POP DUP4 PUSH1 0x1F NOT DUP2 AND LT PUSH2 0x2DE8 JUMPI JUMPDEST POP POP POP DUP2 SHL ADD PUSH1 0x6 DUP9 ADD SSTORE PUSH2 0x229E JUMP JUMPDEST ADD MLOAD PUSH1 0x0 NOT PUSH1 0xF8 DUP5 PUSH1 0x3 SHL AND SHR NOT AND SWAP1 SSTORE DUP10 DUP1 DUP1 PUSH2 0x2DD8 JUMP JUMPDEST DUP2 DUP2 ADD MLOAD DUP4 SSTORE PUSH1 0x20 SWAP5 DUP6 ADD SWAP5 PUSH1 0x1 SWAP1 SWAP4 ADD SWAP3 SWAP1 SWAP2 ADD SWAP1 PUSH2 0x2DBD JUMP JUMPDEST SWAP1 SWAP2 POP PUSH1 0x6 DUP11 ADD PUSH1 0x0 MSTORE PUSH1 0x20 PUSH1 0x0 KECCAK256 PUSH1 0x1F DUP5 ADD PUSH1 0x5 SHR DUP2 ADD PUSH1 0x20 DUP6 LT PUSH2 0x2E68 JUMPI JUMPDEST SWAP1 DUP5 SWAP4 SWAP3 SWAP2 JUMPDEST PUSH1 0x1F DUP4 ADD PUSH1 0x5 SHR DUP3 ADD DUP2 LT PUSH2 0x2E59 JUMPI POP POP PUSH2 0x226F JUMP JUMPDEST PUSH1 0x0 DUP2 SSTORE DUP6 SWAP5 POP PUSH1 0x1 ADD PUSH2 0x2E43 JUMP JUMPDEST POP DUP1 PUSH2 0x2E3D JUMP JUMPDEST ADD MLOAD SWAP1 POP DUP10 DUP1 PUSH2 0x2228 JUMP JUMPDEST SWAP3 POP PUSH1 0x5 DUP11 ADD PUSH1 0x0 MSTORE PUSH1 0x20 PUSH1 0x0 KECCAK256 SWAP1 PUSH1 0x0 SWAP4 JUMPDEST PUSH1 0x1F NOT DUP5 AND DUP6 LT PUSH2 0x2ED1 JUMPI PUSH1 0x1 SWAP5 POP DUP4 PUSH1 0x1F NOT DUP2 AND LT PUSH2 0x2EB8 JUMPI JUMPDEST POP POP POP DUP2 SHL ADD PUSH1 0x5 DUP9 ADD SSTORE PUSH2 0x2240 JUMP JUMPDEST ADD MLOAD PUSH1 0x0 NOT PUSH1 0xF8 DUP5 PUSH1 0x3 SHL AND SHR NOT AND SWAP1 SSTORE DUP10 DUP1 DUP1 PUSH2 0x2EA8 JUMP JUMPDEST DUP2 DUP2 ADD MLOAD DUP4 SSTORE PUSH1 0x20 SWAP5 DUP6 ADD SWAP5 PUSH1 0x1 SWAP1 SWAP4 ADD SWAP3 SWAP1 SWAP2 ADD SWAP1 PUSH2 0x2E8D JUMP JUMPDEST SWAP1 SWAP2 POP PUSH1 0x5 DUP11 ADD PUSH1 0x0 MSTORE PUSH1 0x20 PUSH1 0x0 KECCAK256 PUSH1 0x1F DUP5 ADD PUSH1 0x5 SHR DUP2 ADD PUSH1 0x20 DUP6 LT PUSH2 0x2F38 JUMPI JUMPDEST SWAP1 DUP5 SWAP4 SWAP3 SWAP2 JUMPDEST PUSH1 0x1F DUP4 ADD PUSH1 0x5 SHR DUP3 ADD DUP2 LT PUSH2 0x2F29 JUMPI POP POP PUSH2 0x2211 JUMP JUMPDEST PUSH1 0x0 DUP2 SSTORE DUP6 SWAP5 POP PUSH1 0x1 ADD PUSH2 0x2F13 JUMP JUMPDEST POP DUP1 PUSH2 0x2F0D JUMP JUMPDEST ADD MLOAD SWAP1 POP DUP10 DUP1 PUSH2 0x21CA JUMP JUMPDEST SWAP3 POP PUSH1 0x4 DUP11 ADD PUSH1 0x0 MSTORE PUSH1 0x20 PUSH1 0x0 KECCAK256 SWAP1 PUSH1 0x0 SWAP4 JUMPDEST PUSH1 0x1F NOT DUP5 AND DUP6 LT PUSH2 0x2FA1 JUMPI PUSH1 0x1 SWAP5 POP DUP4 PUSH1 0x1F NOT DUP2 AND LT PUSH2 0x2F88 JUMPI JUMPDEST POP POP POP DUP2 SHL ADD PUSH1 0x4 DUP9 ADD SSTORE PUSH2 0x21E2 JUMP JUMPDEST ADD MLOAD PUSH1 0x0 NOT PUSH1 0xF8 DUP5 PUSH1 0x3 SHL AND SHR NOT AND SWAP1 SSTORE DUP10 DUP1 DUP1 PUSH2 0x2F78 JUMP JUMPDEST DUP2 DUP2 ADD MLOAD DUP4 SSTORE PUSH1 0x20 SWAP5 DUP6 ADD SWAP5 PUSH1 0x1 SWAP1 SWAP4 ADD SWAP3 SWAP1 SWAP2 ADD SWAP1 PUSH2 0x2F5D JUMP JUMPDEST SWAP1 SWAP2 POP PUSH1 0x4 DUP11 ADD PUSH1 0x0 MSTORE PUSH1 0x20 PUSH1 0x0 KECCAK256 PUSH1 0x1F DUP5 ADD PUSH1 0x5 SHR DUP2 ADD PUSH1 0x20 DUP6 LT PUSH2 0x3008 JUMPI JUMPDEST SWAP1 DUP5 SWAP4 SWAP3 SWAP2 JUMPDEST PUSH1 0x1F DUP4 ADD PUSH1 0x5 SHR DUP3 ADD DUP2 LT PUSH2 0x2FF9 JUMPI POP POP PUSH2 0x21B3 JUMP JUMPDEST PUSH1 0x0 DUP2 SSTORE DUP6 SWAP5 POP PUSH1 0x1 ADD PUSH2 0x2FE3 JUMP JUMPDEST POP DUP1 PUSH2 0x2FDD JUMP JUMPDEST ADD MLOAD SWAP1 POP DUP10 DUP1 PUSH2 0x216C JUMP JUMPDEST SWAP3 POP PUSH1 0x3 DUP11 ADD PUSH1 0x0 MSTORE PUSH1 0x20 PUSH1 0x0 KECCAK256 SWAP1 PUSH1 0x0 SWAP4 JUMPDEST PUSH1 0x1F NOT DUP5 AND DUP6 LT PUSH2 0x3071 JUMPI PUSH1 0x1 SWAP5 POP DUP4 PUSH1 0x1F NOT DUP2 AND LT PUSH2 0x3058 JUMPI JUMPDEST POP POP POP DUP2 SHL ADD PUSH1 0x3 DUP9 ADD SSTORE PUSH2 0x2184 JUMP JUMPDEST ADD MLOAD PUSH1 0x0 NOT PUSH1 0xF8 DUP5 PUSH1 0x3 SHL AND SHR NOT AND SWAP1 SSTORE DUP10 DUP1 DUP1 PUSH2 0x3048 JUMP JUMPDEST DUP2 DUP2 ADD MLOAD DUP4 SSTORE PUSH1 0x20 SWAP5 DUP6 ADD SWAP5 PUSH1 0x1 SWAP1 SWAP4 ADD SWAP3 SWAP1 SWAP2 ADD SWAP1 PUSH2 0x302D JUMP JUMPDEST SWAP1 SWAP2 POP PUSH1 0x3 DUP11 ADD PUSH1 0x0 MSTORE PUSH1 0x20 PUSH1 0x0 KECCAK256 PUSH1 0x1F DUP5 ADD PUSH1 0x5 SHR DUP2 ADD PUSH1 0x20 DUP6 LT PUSH2 0x30D8 JUMPI JUMPDEST SWAP1 DUP5 SWAP4 SWAP3 SWAP2 JUMPDEST PUSH1 0x1F DUP4 ADD PUSH1 0x5 SHR DUP3 ADD DUP2 LT PUSH2 0x30C9 JUMPI POP POP PUSH2 0x2155 JUMP JUMPDEST PUSH1 0x0 DUP2 SSTORE DUP6 SWAP5 POP PUSH1 0x1 ADD PUSH2 0x30B3 JUMP JUMPDEST POP DUP1 PUSH2 0x30AD JUMP JUMPDEST SWAP1 POP DUP3 ADD MLOAD DUP10 PUSH2 0x210F JUMP JUMPDEST SWAP2 POP PUSH1 0x2 DUP10 ADD PUSH1 0x0 MSTORE PUSH1 0x20 PUSH1 0x0 KECCAK256 PUSH1 0x0 SWAP3 JUMPDEST PUSH1 0x1F NOT DUP4 AND DUP5 LT PUSH2 0x313F JUMPI PUSH1 0x1 SWAP4 POP DUP3 PUSH1 0x1F NOT DUP2 AND LT PUSH2 0x3126 JUMPI JUMPDEST POP POP DUP2 SHL ADD PUSH1 0x2 DUP9 ADD SSTORE PUSH2 0x2126 JUMP JUMPDEST DUP5 ADD MLOAD PUSH1 0x0 NOT PUSH1 0xF8 DUP5 PUSH1 0x3 SHL AND SHR NOT AND SWAP1 SSTORE DUP10 DUP1 PUSH2 0x3117 JUMP JUMPDEST DUP5 DUP2 ADD MLOAD DUP3 SSTORE PUSH1 0x20 SWAP4 DUP5 ADD SWAP4 PUSH1 0x1 SWAP1 SWAP3 ADD SWAP2 ADD PUSH2 0x30FC JUMP JUMPDEST PUSH1 0x2 DUP10 ADD PUSH1 0x0 MSTORE PUSH1 0x20 PUSH1 0x0 KECCAK256 PUSH1 0x1F DUP4 ADD PUSH1 0x5 SHR DUP2 ADD PUSH1 0x20 DUP5 LT PUSH2 0x3197 JUMPI JUMPDEST PUSH1 0x1F DUP4 ADD PUSH1 0x5 SHR DUP3 ADD DUP2 LT PUSH2 0x318B JUMPI POP POP PUSH2 0x20F8 JUMP JUMPDEST PUSH1 0x0 DUP2 SSTORE PUSH1 0x1 ADD PUSH2 0x3175 JUMP JUMPDEST POP DUP1 PUSH2 0x3175 JUMP JUMPDEST SWAP1 POP DUP7 ADD MLOAD DUP10 PUSH2 0x20BA JUMP JUMPDEST SWAP2 POP PUSH1 0x1 DUP10 ADD PUSH1 0x0 MSTORE PUSH1 0x20 PUSH1 0x0 KECCAK256 PUSH1 0x0 SWAP3 JUMPDEST PUSH1 0x1F NOT DUP4 AND DUP5 LT PUSH2 0x31FE JUMPI PUSH1 0x1 SWAP4 POP DUP3 PUSH1 0x1F NOT DUP2 AND LT PUSH2 0x31E5 JUMPI JUMPDEST POP POP DUP2 SHL ADD PUSH1 0x1 DUP9 ADD SSTORE PUSH2 0x20D1 JUMP JUMPDEST DUP9 ADD MLOAD PUSH1 0x0 NOT PUSH1 0xF8 DUP5 PUSH1 0x3 SHL AND SHR NOT AND SWAP1 SSTORE DUP10 DUP1 PUSH2 0x31D6 JUMP JUMPDEST DUP9 DUP2 ADD MLOAD DUP3 SSTORE PUSH1 0x20 SWAP4 DUP5 ADD SWAP4 PUSH1 0x1 SWAP1 SWAP3 ADD SWAP2 ADD PUSH2 0x31BB JUMP JUMPDEST PUSH1 0x1 DUP10 ADD PUSH1 0x0 MSTORE PUSH1 0x20 PUSH1 0x0 KECCAK256 PUSH1 0x1F DUP4 ADD PUSH1 0x5 SHR DUP2 ADD PUSH1 0x20 DUP5 LT PUSH2 0x3256 JUMPI JUMPDEST PUSH1 0x1F DUP4 ADD PUSH1 0x5 SHR DUP3 ADD DUP2 LT PUSH2 0x324A JUMPI POP POP PUSH2 0x20A3 JUMP JUMPDEST PUSH1 0x0 DUP2 SSTORE PUSH1 0x1 ADD PUSH2 0x3234 JUMP JUMPDEST POP DUP1 PUSH2 0x3234 JUMP JUMPDEST ADD MLOAD SWAP1 POP DUP10 DUP1 PUSH2 0x2067 JUMP JUMPDEST SWAP3 POP DUP10 PUSH1 0x0 MSTORE PUSH1 0x20 PUSH1 0x0 KECCAK256 SWAP1 PUSH1 0x0 SWAP4 JUMPDEST PUSH1 0x1F NOT DUP5 AND DUP6 LT PUSH2 0x32B9 JUMPI PUSH1 0x1 SWAP5 POP DUP4 PUSH1 0x1F NOT DUP2 AND LT PUSH2 0x32A0 JUMPI JUMPDEST POP POP POP DUP2 SHL ADD DUP8 SSTORE PUSH2 0x207C JUMP JUMPDEST ADD MLOAD PUSH1 0x0 NOT PUSH1 0xF8 DUP5 PUSH1 0x3 SHL AND SHR NOT AND SWAP1 SSTORE DUP10 DUP1 DUP1 PUSH2 0x3293 JUMP JUMPDEST DUP2 DUP2 ADD MLOAD DUP4 SSTORE PUSH1 0x20 SWAP5 DUP6 ADD SWAP5 PUSH1 0x1 SWAP1 SWAP4 ADD SWAP3 SWAP1 SWAP2 ADD SWAP1 PUSH2 0x3278 JUMP JUMPDEST SWAP1 SWAP2 POP DUP10 PUSH1 0x0 MSTORE PUSH1 0x20 PUSH1 0x0 KECCAK256 PUSH1 0x1F DUP5 ADD PUSH1 0x5 SHR DUP2 ADD PUSH1 0x20 DUP6 LT PUSH2 0x331D JUMPI JUMPDEST SWAP1 DUP5 SWAP4 SWAP3 SWAP2 JUMPDEST PUSH1 0x1F DUP4 ADD PUSH1 0x5 SHR DUP3 ADD DUP2 LT PUSH2 0x330E JUMPI POP POP PUSH2 0x2050 JUMP JUMPDEST PUSH1 0x0 DUP2 SSTORE DUP6 SWAP5 POP PUSH1 0x1 ADD PUSH2 0x32F8 JUMP JUMPDEST POP DUP1 PUSH2 0x32F2 JUMP JUMPDEST PUSH1 0x40 MLOAD PUSH3 0x461BCD PUSH1 0xE5 SHL DUP2 MSTORE PUSH1 0x20 PUSH1 0x4 DUP3 ADD MSTORE PUSH1 0x1C PUSH1 0x24 DUP3 ADD MSTORE PUSH32 0x4174206C65617374206F6E6520636F7572736520726571756972656400000000 PUSH1 0x44 DUP3 ADD MSTORE REVERT JUMPDEST PUSH1 0x84 SWAP1 PUSH32 0x7074790000000000000000000000000000000000000000000000000000000000 PUSH1 0x40 MLOAD SWAP2 PUSH3 0x461BCD PUSH1 0xE5 SHL DUP4 MSTORE PUSH1 0x20 PUSH1 0x4 DUP5 ADD MSTORE PUSH1 0x23 PUSH1 0x24 DUP5 ADD MSTORE PUSH32 0x526567697374726174696F6E206E756D6265722063616E6E6F7420626520656D PUSH1 0x44 DUP5 ADD MSTORE DUP3 ADD MSTORE REVERT JUMPDEST PUSH1 0x40 MLOAD PUSH3 0x461BCD PUSH1 0xE5 SHL DUP2 MSTORE PUSH1 0x20 PUSH1 0x4 DUP3 ADD MSTORE PUSH1 0x1C PUSH1 0x24 DUP3 ADD MSTORE PUSH32 0x53747564656E74206E616D652063616E6E6F7420626520656D70747900000000 PUSH1 0x44 DUP3 ADD MSTORE REVERT JUMPDEST PUSH1 0x40 MLOAD PUSH3 0x461BCD PUSH1 0xE5 SHL DUP2 MSTORE PUSH1 0x20 PUSH1 0x4 DUP3 ADD MSTORE PUSH1 0x18 PUSH1 0x24 DUP3 ADD MSTORE PUSH32 0x4D656D6F206E756D62657220616C726561647920757365640000000000000000 PUSH1 0x44 DUP3 ADD MSTORE REVERT JUMPDEST PUSH1 0x40 MLOAD PUSH3 0x461BCD PUSH1 0xE5 SHL DUP2 MSTORE PUSH1 0x20 PUSH1 0x4 DUP3 ADD MSTORE PUSH1 0x1A PUSH1 0x24 DUP3 ADD MSTORE PUSH32 0x53657269616C206E756D62657220616C72656164792075736564000000000000 PUSH1 0x44 DUP3 ADD MSTORE REVERT JUMPDEST PUSH1 0x40 MLOAD PUSH3 0x461BCD PUSH1 0xE5 SHL DUP2 MSTORE PUSH1 0x20 PUSH1 0x4 DUP3 ADD MSTORE PUSH1 0x1B PUSH1 0x24 DUP3 ADD MSTORE PUSH32 0x4D656D6F206E756D6265722063616E6E6F7420626520656D7074790000000000 PUSH1 0x44 DUP3 ADD MSTORE REVERT JUMPDEST PUSH1 0x40 MLOAD PUSH3 0x461BCD PUSH1 0xE5 SHL DUP2 MSTORE PUSH1 0x20 PUSH1 0x4 DUP3 ADD MSTORE PUSH1 0x1D PUSH1 0x24 DUP3 ADD MSTORE PUSH32 0x53657269616C206E756D6265722063616E6E6F7420626520656D707479000000 PUSH1 0x44 DUP3 ADD MSTORE REVERT JUMPDEST CALLVALUE PUSH2 0x263 JUMPI PUSH1 0x0 CALLDATASIZE PUSH1 0x3 NOT ADD SLT PUSH2 0x263 JUMPI PUSH2 0x3533 PUSH2 0x44B9 JUMP JUMPDEST PUSH1 0x8 SLOAD PUSH1 0xFF DUP2 AND ISZERO PUSH2 0x3572 JUMPI PUSH1 0xFF NOT AND PUSH1 0x8 SSTORE PUSH32 0x5DB9EE0A495BF2E6FF9C91A7834C1BA4FDD244A5E8AA4E537BD38AEAE4B073AA PUSH1 0x20 PUSH1 0x40 MLOAD CALLER DUP2 MSTORE LOG1 STOP JUMPDEST PUSH1 0x4 PUSH1 0x40 MLOAD PUSH32 0x8DFC202B00000000000000000000000000000000000000000000000000000000 DUP2 MSTORE REVERT JUMPDEST CALLVALUE PUSH2 0x263 JUMPI PUSH1 0x20 DUP1 PUSH1 0x3 NOT CALLDATASIZE ADD SLT PUSH2 0x263 JUMPI PUSH1 0x1 PUSH1 0x1 PUSH1 0xA0 SHL SUB PUSH2 0x35BE PUSH2 0x3E65 JUMP JUMPDEST AND PUSH1 0x0 MSTORE PUSH1 0xF DUP2 MSTORE PUSH1 0x40 PUSH1 0x0 KECCAK256 SWAP1 PUSH1 0x40 MLOAD SWAP1 DUP2 DUP2 DUP5 SLOAD SWAP2 DUP3 DUP2 MSTORE ADD SWAP4 PUSH1 0x0 MSTORE DUP2 PUSH1 0x0 KECCAK256 SWAP2 PUSH1 0x0 SWAP1 JUMPDEST DUP3 DUP3 LT PUSH2 0x35FD JUMPI PUSH2 0x401 DUP6 PUSH2 0x4D7 DUP2 DUP10 SUB DUP3 PUSH2 0x3F96 JUMP JUMPDEST DUP4 SLOAD DUP7 MSTORE SWAP5 DUP6 ADD SWAP5 PUSH1 0x1 SWAP4 DUP5 ADD SWAP4 SWAP1 SWAP2 ADD SWAP1 PUSH2 0x35E6 JUMP JUMPDEST CALLVALUE PUSH2 0x263 JUMPI PUSH1 0x40 CALLDATASIZE PUSH1 0x3 NOT ADD SLT PUSH2 0x263 JUMPI PUSH2 0x362D PUSH2 0x3E7B JUMP JUMPDEST CALLER PUSH1 0x1 PUSH1 0x1 PUSH1 0xA0 SHL SUB DUP3 AND SUB PUSH2 0x3649 JUMPI PUSH2 0x5F2 SWAP1 PUSH1 0x4 CALLDATALOAD PUSH2 0x464F JUMP JUMPDEST PUSH1 0x4 PUSH1 0x40 MLOAD PUSH32 0x6697B23200000000000000000000000000000000000000000000000000000000 DUP2 MSTORE REVERT JUMPDEST CALLVALUE PUSH2 0x263 JUMPI PUSH1 0x20 DUP1 PUSH1 0x3 NOT CALLDATASIZE ADD SLT PUSH2 0x263 JUMPI PUSH1 0x4 CALLDATALOAD SWAP1 PUSH2 0x3691 PUSH2 0x5171 JUMP JUMPDEST POP DUP2 PUSH1 0x0 MSTORE PUSH1 0x2 DUP2 MSTORE PUSH1 0x1 PUSH1 0x1 PUSH1 0xA0 SHL SUB SWAP2 PUSH2 0x36B5 DUP4 PUSH1 0x40 PUSH1 0x0 KECCAK256 SLOAD AND ISZERO ISZERO PUSH2 0x5275 JUMP JUMPDEST PUSH1 0x0 MSTORE PUSH1 0xB DUP2 MSTORE PUSH1 0x40 PUSH1 0x0 KECCAK256 SWAP2 PUSH1 0x6 PUSH1 0x40 MLOAD SWAP4 PUSH2 0x36D1 DUP6 PUSH2 0x3F24 JUMP JUMPDEST PUSH2 0x36DA DUP2 PUSH2 0x4209 JUMP JUMPDEST DUP6 MSTORE PUSH2 0x36E8 PUSH1 0x1 DUP3 ADD PUSH2 0x4209 JUMP JUMPDEST DUP5 DUP7 ADD MSTORE PUSH2 0x36F8 PUSH1 0x2 DUP3 ADD PUSH2 0x4209 JUMP JUMPDEST PUSH1 0x40 DUP7 ADD MSTORE PUSH2 0x3709 PUSH1 0x3 DUP3 ADD PUSH2 0x4209 JUMP JUMPDEST PUSH1 0x60 DUP7 ADD MSTORE PUSH2 0x371A PUSH1 0x4 DUP3 ADD PUSH2 0x4209 JUMP JUMPDEST PUSH1 0x80 DUP7 ADD MSTORE PUSH1 0x5 DUP2 ADD SLOAD PUSH1 0xA0 DUP7 ADD MSTORE ADD SLOAD PUSH1 0xFF DUP2 AND ISZERO ISZERO PUSH1 0xC0 DUP6 ADD MSTORE PUSH1 0x8 SHR AND PUSH1 0xE0 DUP4 ADD MSTORE PUSH2 0x401 PUSH1 0x40 MLOAD SWAP3 DUP3 DUP5 SWAP4 DUP5 MSTORE DUP4 ADD SWAP1 PUSH2 0x3E91 JUMP JUMPDEST CALLVALUE PUSH2 0x263 JUMPI PUSH1 0x40 CALLDATASIZE PUSH1 0x3 NOT ADD SLT PUSH2 0x263 JUMPI PUSH2 0x5F2 PUSH1 0x4 CALLDATALOAD PUSH2 0x3772 PUSH2 0x3E7B JUMP JUMPDEST SWAP1 DUP1 PUSH1 0x0 MSTORE PUSH1 0x7 PUSH1 0x20 MSTORE PUSH2 0x378D PUSH1 0x1 PUSH1 0x40 PUSH1 0x0 KECCAK256 ADD SLOAD PUSH2 0x45A8 JUMP JUMPDEST PUSH2 0x45CE JUMP JUMPDEST CALLVALUE PUSH2 0x263 JUMPI PUSH1 0x20 CALLDATASIZE PUSH1 0x3 NOT ADD SLT PUSH2 0x263 JUMPI PUSH1 0x4 CALLDATALOAD PUSH2 0x37AE PUSH2 0x44B9 JUMP JUMPDEST DUP1 PUSH1 0x0 MSTORE PUSH1 0x2 PUSH1 0x20 MSTORE PUSH1 0x1 PUSH1 0x1 PUSH1 0xA0 SHL SUB SWAP1 PUSH2 0x37D2 DUP3 PUSH1 0x40 PUSH1 0x0 KECCAK256 SLOAD AND ISZERO ISZERO PUSH2 0x50DB JUMP JUMPDEST DUP1 PUSH1 0x0 MSTORE PUSH1 0xE PUSH1 0x20 MSTORE PUSH2 0x37F3 PUSH1 0xFF PUSH1 0xE PUSH1 0x40 PUSH1 0x0 KECCAK256 ADD SLOAD PUSH1 0xA0 SHR AND ISZERO PUSH2 0x5126 JUMP JUMPDEST DUP1 PUSH1 0x0 MSTORE PUSH1 0xE PUSH1 0x20 MSTORE PUSH1 0xE PUSH1 0x40 PUSH1 0x0 KECCAK256 ADD PUSH21 0x10000000000000000000000000000000000000000 PUSH1 0xFF PUSH1 0xA0 SHL NOT DUP3 SLOAD AND OR SWAP1 SSTORE PUSH2 0x382F DUP2 PUSH2 0x489C JUMP JUMPDEST CALLER SWAP3 AND SWAP1 PUSH32 0x852D5D4A823318018CABC1F51B12EF417CEFAA75696231006C99935C2B990150 PUSH1 0x0 DUP1 LOG4 STOP JUMPDEST CALLVALUE PUSH2 0x263 JUMPI PUSH1 0x20 CALLDATASIZE PUSH1 0x3 NOT ADD SLT PUSH2 0x263 JUMPI PUSH1 0x4 CALLDATALOAD PUSH8 0xFFFFFFFFFFFFFFFF DUP2 GT PUSH2 0x263 JUMPI PUSH1 0xFF PUSH2 0x3893 PUSH1 0x20 PUSH2 0x58A DUP2 SWAP5 CALLDATASIZE SWAP1 PUSH1 0x4 ADD PUSH2 0x400B JUMP JUMPDEST DUP2 ADD PUSH1 0x10 DUP2 MSTORE SUB ADD SWAP1 KECCAK256 SLOAD AND PUSH1 0x40 MLOAD SWAP1 ISZERO ISZERO DUP2 MSTORE RETURN JUMPDEST CALLVALUE PUSH2 0x263 JUMPI PUSH1 0x20 CALLDATASIZE PUSH1 0x3 NOT ADD SLT PUSH2 0x263 JUMPI PUSH1 0x4 CALLDATALOAD PUSH1 0x0 MSTORE PUSH1 0x7 PUSH1 0x20 MSTORE PUSH1 0x20 PUSH1 0x1 PUSH1 0x40 PUSH1 0x0 KECCAK256 ADD SLOAD PUSH1 0x40 MLOAD SWAP1 DUP2 MSTORE RETURN JUMPDEST CALLVALUE PUSH2 0x263 JUMPI PUSH2 0x5F2 PUSH2 0x38E9 CALLDATASIZE PUSH2 0x4029 JUMP JUMPDEST SWAP2 PUSH2 0x46C7 JUMP JUMPDEST CALLVALUE PUSH2 0x263 JUMPI PUSH1 0x40 CALLDATASIZE PUSH1 0x3 NOT ADD SLT PUSH2 0x263 JUMPI PUSH8 0xFFFFFFFFFFFFFFFF PUSH1 0x4 CALLDATALOAD PUSH1 0x24 CALLDATALOAD DUP3 DUP2 GT PUSH2 0x263 JUMPI PUSH2 0x3924 SWAP1 CALLDATASIZE SWAP1 PUSH1 0x4 ADD PUSH2 0x400B JUMP JUMPDEST SWAP2 PUSH2 0x392D PUSH2 0x44B9 JUMP JUMPDEST DUP2 PUSH1 0x0 MSTORE PUSH1 0x20 SWAP2 PUSH1 0x2 DUP4 MSTORE PUSH2 0x3951 PUSH1 0x1 PUSH1 0x1 PUSH1 0xA0 SHL SUB PUSH1 0x40 PUSH1 0x0 KECCAK256 SLOAD AND ISZERO ISZERO PUSH2 0x50DB JUMP JUMPDEST PUSH1 0x0 MSTORE PUSH1 0xE DUP3 MSTORE PUSH1 0x8 PUSH1 0x40 PUSH1 0x0 KECCAK256 ADD SWAP2 DUP4 MLOAD SWAP2 DUP3 GT PUSH2 0xAE3 JUMPI PUSH2 0x3974 DUP4 SLOAD PUSH2 0x41CF JUMP JUMPDEST PUSH1 0x1F DUP2 GT PUSH2 0x39F6 JUMPI JUMPDEST POP DUP1 PUSH1 0x1F DUP4 GT PUSH1 0x1 EQ PUSH2 0x39AD JUMPI POP DUP2 SWAP3 SWAP4 PUSH1 0x0 SWAP3 PUSH2 0xA32 JUMPI POP POP PUSH1 0x0 NOT PUSH1 0x3 DUP4 SWAP1 SHL SHR NOT AND PUSH1 0x1 SWAP2 SWAP1 SWAP2 SHL OR SWAP1 SSTORE STOP JUMPDEST SWAP1 PUSH1 0x1F NOT DUP4 AND SWAP5 DUP5 PUSH1 0x0 MSTORE DUP3 PUSH1 0x0 KECCAK256 SWAP3 PUSH1 0x0 SWAP1 JUMPDEST DUP8 DUP3 LT PUSH2 0x39DE JUMPI POP POP DUP4 PUSH1 0x1 SWAP6 SWAP7 LT PUSH2 0xA6F JUMPI POP POP POP DUP2 SHL ADD SWAP1 SSTORE STOP JUMPDEST DUP1 PUSH1 0x1 DUP6 SWAP7 DUP3 SWAP5 SWAP7 DUP7 ADD MLOAD DUP2 SSTORE ADD SWAP6 ADD SWAP4 ADD SWAP1 PUSH2 0x39C1 JUMP JUMPDEST DUP4 PUSH1 0x0 MSTORE DUP2 PUSH1 0x0 KECCAK256 PUSH1 0x1F DUP5 ADD PUSH1 0x5 SHR DUP2 ADD SWAP2 DUP4 DUP6 LT PUSH2 0x3A32 JUMPI JUMPDEST PUSH1 0x1F ADD PUSH1 0x5 SHR ADD SWAP1 JUMPDEST DUP2 DUP2 LT PUSH2 0x3A26 JUMPI POP PUSH2 0x397D JUMP JUMPDEST PUSH1 0x0 DUP2 SSTORE PUSH1 0x1 ADD PUSH2 0x3A19 JUMP JUMPDEST SWAP1 SWAP2 POP DUP2 SWAP1 PUSH2 0x3A10 JUMP JUMPDEST CALLVALUE PUSH2 0x263 JUMPI PUSH1 0x20 CALLDATASIZE PUSH1 0x3 NOT ADD SLT PUSH2 0x263 JUMPI PUSH2 0x257 PUSH2 0x3A5B PUSH1 0x4 CALLDATALOAD PUSH2 0x51AE JUMP JUMPDEST PUSH1 0x40 MLOAD SWAP3 DUP4 SWAP3 PUSH1 0x40 DUP5 MSTORE PUSH1 0x40 DUP5 ADD SWAP1 PUSH2 0x3E91 JUMP JUMPDEST CALLVALUE PUSH2 0x263 JUMPI PUSH1 0x40 CALLDATASIZE PUSH1 0x3 NOT ADD SLT PUSH2 0x263 JUMPI PUSH2 0x3A88 PUSH2 0x3E65 JUMP JUMPDEST PUSH1 0x24 CALLDATALOAD PUSH2 0x3A94 DUP2 PUSH2 0x489C JUMP JUMPDEST CALLER ISZERO ISZERO DUP1 PUSH2 0x3B5D JUMPI JUMPDEST DUP1 PUSH2 0x3B2F JUMPI JUMPDEST PUSH2 0x3AFF JUMPI DUP2 SWAP1 PUSH1 0x1 PUSH1 0x1 PUSH1 0xA0 SHL SUB DUP1 SWAP5 AND SWAP4 DUP5 SWAP2 AND PUSH32 0x8C5BE1E5EBEC7D5BD14F71427D1E84F3DD0314C0F7B2291E5B200AC8C7C3B925 PUSH1 0x0 DUP1 LOG4 PUSH1 0x0 MSTORE PUSH1 0x4 PUSH1 0x20 MSTORE PUSH1 0x40 PUSH1 0x0 KECCAK256 SWAP1 PUSH1 0x1 PUSH1 0x1 PUSH1 0xA0 SHL SUB NOT DUP3 SLOAD AND OR SWAP1 SSTORE PUSH1 0x0 DUP1 RETURN JUMPDEST PUSH1 0x24 PUSH1 0x40 MLOAD PUSH32 0xA9FBF51F00000000000000000000000000000000000000000000000000000000 DUP2 MSTORE CALLER PUSH1 0x4 DUP3 ADD MSTORE REVERT JUMPDEST POP PUSH1 0x1 PUSH1 0x1 PUSH1 0xA0 SHL SUB DUP2 AND PUSH1 0x0 MSTORE PUSH1 0x5 PUSH1 0x20 MSTORE PUSH1 0x40 PUSH1 0x0 KECCAK256 CALLER PUSH1 0x0 MSTORE PUSH1 0x20 MSTORE PUSH1 0xFF PUSH1 0x40 PUSH1 0x0 KECCAK256 SLOAD AND ISZERO PUSH2 0x3AA3 JUMP JUMPDEST POP CALLER PUSH1 0x1 PUSH1 0x1 PUSH1 0xA0 SHL SUB DUP3 AND EQ ISZERO PUSH2 0x3A9D JUMP JUMPDEST CALLVALUE PUSH2 0x263 JUMPI PUSH1 0x20 CALLDATASIZE PUSH1 0x3 NOT ADD SLT PUSH2 0x263 JUMPI PUSH1 0x4 CALLDATALOAD PUSH2 0x3B8D DUP2 PUSH2 0x489C JUMP JUMPDEST POP PUSH1 0x0 MSTORE PUSH1 0x4 PUSH1 0x20 MSTORE PUSH1 0x20 PUSH1 0x1 PUSH1 0x1 PUSH1 0xA0 SHL SUB PUSH1 0x40 PUSH1 0x0 KECCAK256 SLOAD AND PUSH1 0x40 MLOAD SWAP1 DUP2 MSTORE RETURN JUMPDEST CALLVALUE PUSH2 0x263 JUMPI PUSH1 0x0 CALLDATASIZE PUSH1 0x3 NOT ADD SLT PUSH2 0x263 JUMPI PUSH1 0x40 MLOAD PUSH1 0x0 DUP1 SLOAD PUSH2 0x3BD0 DUP2 PUSH2 0x41CF JUMP JUMPDEST DUP1 DUP5 MSTORE SWAP1 PUSH1 0x1 SWAP1 DUP2 DUP2 AND SWAP1 DUP2 ISZERO PUSH2 0xC70 JUMPI POP PUSH1 0x1 EQ PUSH2 0x3BF9 JUMPI PUSH2 0x401 DUP5 PUSH2 0xC03 DUP2 DUP7 SUB DUP3 PUSH2 0x3F96 JUMP JUMPDEST PUSH1 0x0 DUP1 DUP1 MSTORE SWAP3 POP PUSH32 0x290DECD9548B62A8D60345A988386FC84BA6BC95484008F6362F93160EF3E563 JUMPDEST DUP3 DUP5 LT PUSH2 0x3C3A JUMPI POP POP POP DUP2 ADD PUSH1 0x20 ADD PUSH2 0xC03 DUP3 PUSH2 0xBF3 JUMP JUMPDEST DUP1 SLOAD PUSH1 0x20 DUP6 DUP8 ADD DUP2 ADD SWAP2 SWAP1 SWAP2 MSTORE SWAP1 SWAP4 ADD SWAP3 DUP2 ADD PUSH2 0x3C22 JUMP JUMPDEST CALLVALUE PUSH2 0x263 JUMPI PUSH1 0x20 CALLDATASIZE PUSH1 0x3 NOT ADD SLT PUSH2 0x263 JUMPI PUSH1 0x4 CALLDATALOAD PUSH2 0x3C6E PUSH2 0x44B9 JUMP JUMPDEST DUP1 PUSH1 0x0 MSTORE PUSH1 0x2 PUSH1 0x20 MSTORE PUSH1 0x1 PUSH1 0x1 PUSH1 0xA0 SHL SUB SWAP1 PUSH2 0x3C92 DUP3 PUSH1 0x40 PUSH1 0x0 KECCAK256 SLOAD AND ISZERO ISZERO PUSH2 0x50DB JUMP JUMPDEST DUP1 PUSH1 0x0 MSTORE PUSH1 0xB PUSH1 0x20 MSTORE PUSH2 0x3CB0 PUSH1 0xFF PUSH1 0x6 PUSH1 0x40 PUSH1 0x0 KECCAK256 ADD SLOAD AND ISZERO PUSH2 0x5126 JUMP JUMPDEST DUP1 PUSH1 0x0 MSTORE PUSH1 0xB PUSH1 0x20 MSTORE PUSH1 0x6 PUSH1 0x40 PUSH1 0x0 KECCAK256 ADD PUSH1 0x1 PUSH1 0xFF NOT DUP3 SLOAD AND OR SWAP1 SSTORE PUSH2 0x3CD5 DUP2 PUSH2 0x489C JUMP JUMPDEST CALLER SWAP3 AND SWAP1 PUSH32 0x39858852DFEB2731909C1E5B973698DD12A5E54AB07CF24F5BB3ED593B31450A PUSH1 0x0 DUP1 LOG4 STOP JUMPDEST CALLVALUE PUSH2 0x263 JUMPI PUSH1 0x20 CALLDATASIZE PUSH1 0x3 NOT ADD SLT PUSH2 0x263 JUMPI PUSH1 0x4 CALLDATALOAD SWAP1 PUSH1 0x1 PUSH1 0x1 PUSH1 0xE0 SHL SUB NOT DUP3 AND DUP1 SWAP3 SUB PUSH2 0x263 JUMPI DUP2 PUSH32 0x7965DB0B00000000000000000000000000000000000000000000000000000000 PUSH1 0x20 SWAP4 EQ SWAP1 DUP2 ISZERO PUSH2 0x3D5C JUMPI JUMPDEST POP ISZERO ISZERO DUP2 MSTORE RETURN JUMPDEST PUSH32 0x4906490600000000000000000000000000000000000000000000000000000000 DUP2 EQ SWAP2 POP DUP2 ISZERO PUSH2 0x3D8F JUMPI JUMPDEST POP DUP4 PUSH2 0x3D55 JUMP JUMPDEST PUSH32 0x80AC58CD00000000000000000000000000000000000000000000000000000000 DUP2 EQ SWAP2 POP DUP2 ISZERO PUSH2 0x3DF3 JUMPI JUMPDEST DUP2 ISZERO PUSH2 0x3DC9 JUMPI JUMPDEST POP DUP4 PUSH2 0x3D88 JUMP JUMPDEST PUSH32 0x1FFC9A700000000000000000000000000000000000000000000000000000000 SWAP2 POP EQ DUP4 PUSH2 0x3DC2 JUMP JUMPDEST PUSH32 0x5B5E139F00000000000000000000000000000000000000000000000000000000 DUP2 EQ SWAP2 POP PUSH2 0x3DBB JUMP JUMPDEST PUSH1 0x0 JUMPDEST DUP4 DUP2 LT PUSH2 0x3E30 JUMPI POP POP PUSH1 0x0 SWAP2 ADD MSTORE JUMP JUMPDEST DUP2 DUP2 ADD MLOAD DUP4 DUP3 ADD MSTORE PUSH1 0x20 ADD PUSH2 0x3E20 JUMP JUMPDEST SWAP1 PUSH1 0x20 SWAP2 PUSH2 0x3E59 DUP2 MLOAD DUP1 SWAP3 DUP2 DUP6 MSTORE DUP6 DUP1 DUP7 ADD SWAP2 ADD PUSH2 0x3E1D JUMP JUMPDEST PUSH1 0x1F ADD PUSH1 0x1F NOT AND ADD ADD SWAP1 JUMP JUMPDEST PUSH1 0x4 CALLDATALOAD SWAP1 PUSH1 0x1 PUSH1 0x1 PUSH1 0xA0 SHL SUB DUP3 AND DUP3 SUB PUSH2 0x263 JUMPI JUMP JUMPDEST PUSH1 0x24 CALLDATALOAD SWAP1 PUSH1 0x1 PUSH1 0x1 PUSH1 0xA0 SHL SUB DUP3 AND DUP3 SUB PUSH2 0x263 JUMPI JUMP JUMPDEST SWAP1 PUSH1 0xE0 PUSH1 0x1 PUSH1 0x1 PUSH1 0xA0 SHL SUB DUP2 PUSH2 0x3F04 PUSH2 0x3EF2 PUSH2 0x3EE0 PUSH2 0x3ECE PUSH2 0x3EBC DUP10 MLOAD PUSH2 0x100 DUP1 DUP12 MSTORE DUP11 ADD SWAP1 PUSH2 0x3E40 JUMP JUMPDEST PUSH1 0x20 DUP11 ADD MLOAD DUP10 DUP3 SUB PUSH1 0x20 DUP12 ADD MSTORE PUSH2 0x3E40 JUMP JUMPDEST PUSH1 0x40 DUP10 ADD MLOAD DUP9 DUP3 SUB PUSH1 0x40 DUP11 ADD MSTORE PUSH2 0x3E40 JUMP JUMPDEST PUSH1 0x60 DUP9 ADD MLOAD DUP8 DUP3 SUB PUSH1 0x60 DUP10 ADD MSTORE PUSH2 0x3E40 JUMP JUMPDEST PUSH1 0x80 DUP8 ADD MLOAD DUP7 DUP3 SUB PUSH1 0x80 DUP9 ADD MSTORE PUSH2 0x3E40 JUMP JUMPDEST SWAP5 PUSH1 0xA0 DUP2 ADD MLOAD PUSH1 0xA0 DUP7 ADD MSTORE PUSH1 0xC0 DUP2 ADD MLOAD ISZERO ISZERO PUSH1 0xC0 DUP7 ADD MSTORE ADD MLOAD AND SWAP2 ADD MSTORE SWAP1 JUMP JUMPDEST PUSH2 0x100 DUP2 ADD SWAP1 DUP2 LT PUSH8 0xFFFFFFFFFFFFFFFF DUP3 GT OR PUSH2 0xAE3 JUMPI PUSH1 0x40 MSTORE JUMP JUMPDEST PUSH2 0x200 DUP2 ADD SWAP1 DUP2 LT PUSH8 0xFFFFFFFFFFFFFFFF DUP3 GT OR PUSH2 0xAE3 JUMPI PUSH1 0x40 MSTORE JUMP JUMPDEST PUSH1 0xC0 DUP2 ADD SWAP1 DUP2 LT PUSH8 0xFFFFFFFFFFFFFFFF DUP3 GT OR PUSH2 0xAE3 JUMPI PUSH1 0x40 MSTORE JUMP JUMPDEST PUSH1 0x20 DUP2 ADD SWAP1 DUP2 LT PUSH8 0xFFFFFFFFFFFFFFFF DUP3 GT OR PUSH2 0xAE3 JUMPI PUSH1 0x40 MSTORE JUMP JUMPDEST SWAP1 PUSH1 0x1F DUP1 NOT SWAP2 ADD AND DUP2 ADD SWAP1 DUP2 LT PUSH8 0xFFFFFFFFFFFFFFFF DUP3 GT OR PUSH2 0xAE3 JUMPI PUSH1 0x40 MSTORE JUMP JUMPDEST PUSH8 0xFFFFFFFFFFFFFFFF DUP2 GT PUSH2 0xAE3 JUMPI PUSH1 0x1F ADD PUSH1 0x1F NOT AND PUSH1 0x20 ADD SWAP1 JUMP JUMPDEST SWAP3 SWAP2 SWAP3 PUSH2 0x3FE0 DUP3 PUSH2 0x3FB8 JUMP JUMPDEST SWAP2 PUSH2 0x3FEE PUSH1 0x40 MLOAD SWAP4 DUP5 PUSH2 0x3F96 JUMP JUMPDEST DUP3 SWAP5 DUP2 DUP5 MSTORE DUP2 DUP4 ADD GT PUSH2 0x263 JUMPI DUP3 DUP2 PUSH1 0x20 SWAP4 DUP5 PUSH1 0x0 SWAP7 ADD CALLDATACOPY ADD ADD MSTORE JUMP JUMPDEST SWAP1 DUP1 PUSH1 0x1F DUP4 ADD SLT ISZERO PUSH2 0x263 JUMPI DUP2 PUSH1 0x20 PUSH2 0x4026 SWAP4 CALLDATALOAD SWAP2 ADD PUSH2 0x3FD4 JUMP JUMPDEST SWAP1 JUMP JUMPDEST PUSH1 0x60 SWAP1 PUSH1 0x3 NOT ADD SLT PUSH2 0x263 JUMPI PUSH1 0x1 PUSH1 0x1 PUSH1 0xA0 SHL SUB SWAP1 PUSH1 0x4 CALLDATALOAD DUP3 DUP2 AND DUP2 SUB PUSH2 0x263 JUMPI SWAP2 PUSH1 0x24 CALLDATALOAD SWAP1 DUP2 AND DUP2 SUB PUSH2 0x263 JUMPI SWAP1 PUSH1 0x44 CALLDATALOAD SWAP1 JUMP JUMPDEST PUSH1 0x20 SWAP1 DUP2 PUSH1 0x40 DUP2 DUP4 ADD SWAP3 DUP3 DUP2 MSTORE DUP6 MLOAD DUP1 SWAP5 MSTORE ADD SWAP4 ADD SWAP2 PUSH1 0x0 JUMPDEST DUP3 DUP2 LT PUSH2 0x4085 JUMPI POP POP POP POP SWAP1 JUMP JUMPDEST DUP4 MLOAD DUP6 MSTORE SWAP4 DUP2 ADD SWAP4 SWAP3 DUP2 ADD SWAP3 PUSH1 0x1 ADD PUSH2 0x4077 JUMP JUMPDEST PUSH8 0xFFFFFFFFFFFFFFFF DUP2 GT PUSH2 0xAE3 JUMPI PUSH1 0x5 SHL PUSH1 0x20 ADD SWAP1 JUMP JUMPDEST DUP2 PUSH1 0x1F DUP3 ADD SLT ISZERO PUSH2 0x263 JUMPI DUP1 CALLDATALOAD SWAP1 PUSH2 0x40C8 DUP3 PUSH2 0x4099 JUMP JUMPDEST SWAP3 PUSH1 0x40 SWAP3 PUSH2 0x40D8 DUP5 MLOAD SWAP6 DUP7 PUSH2 0x3F96 JUMP JUMPDEST DUP1 DUP6 MSTORE PUSH1 0x20 SWAP4 DUP5 DUP1 DUP8 ADD SWAP3 PUSH1 0x5 SHL DUP6 ADD ADD SWAP4 DUP4 DUP6 GT PUSH2 0x263 JUMPI DUP6 DUP2 ADD SWAP3 JUMPDEST DUP6 DUP5 LT PUSH2 0x4107 JUMPI POP POP POP POP POP POP POP SWAP1 JUMP JUMPDEST PUSH8 0xFFFFFFFFFFFFFFFF DUP5 CALLDATALOAD DUP2 DUP2 GT PUSH2 0x263 JUMPI DUP4 ADD SWAP2 PUSH1 0xC0 SWAP3 DUP4 PUSH1 0x1F NOT DUP3 DUP11 SUB ADD SLT PUSH2 0x263 JUMPI DUP6 MLOAD SWAP1 PUSH2 0x4138 DUP3 PUSH2 0x3F5E JUMP JUMPDEST DUP11 DUP2 ADD CALLDATALOAD DUP5 DUP2 GT PUSH2 0x263 JUMPI DUP10 DUP13 PUSH2 0x4151 SWAP3 DUP5 ADD ADD PUSH2 0x400B JUMP JUMPDEST DUP3 MSTORE DUP7 DUP2 ADD CALLDATALOAD DUP5 DUP2 GT PUSH2 0x263 JUMPI DUP10 DUP13 PUSH2 0x416C SWAP3 DUP5 ADD ADD PUSH2 0x400B JUMP JUMPDEST DUP12 DUP4 ADD MSTORE PUSH1 0x60 SWAP5 DUP6 DUP3 ADD CALLDATALOAD DUP6 DUP2 GT PUSH2 0x263 JUMPI DUP11 DUP14 PUSH2 0x418C SWAP3 DUP6 ADD ADD PUSH2 0x400B JUMP JUMPDEST DUP9 DUP5 ADD MSTORE PUSH1 0x80 SWAP6 DUP7 DUP4 ADD CALLDATALOAD SWAP1 DUP5 ADD MSTORE PUSH1 0xA0 SWAP2 DUP3 DUP2 ADD CALLDATALOAD SWAP6 DUP7 GT PUSH2 0x263 JUMPI DUP13 SWAP7 PUSH2 0x41BA DUP13 DUP10 DUP1 SWAP10 DUP6 ADD ADD PUSH2 0x400B JUMP JUMPDEST SWAP1 DUP6 ADD MSTORE ADD CALLDATALOAD SWAP1 DUP3 ADD MSTORE DUP2 MSTORE ADD SWAP4 ADD SWAP3 PUSH2 0x40F6 JUMP JUMPDEST SWAP1 PUSH1 0x1 DUP3 DUP2 SHR SWAP3 AND DUP1 ISZERO PUSH2 0x41FF JUMPI JUMPDEST PUSH1 0x20 DUP4 LT EQ PUSH2 0x41E9 JUMPI JUMP JUMPDEST PUSH4 0x4E487B71 PUSH1 0xE0 SHL PUSH1 0x0 MSTORE PUSH1 0x22 PUSH1 0x4 MSTORE PUSH1 0x24 PUSH1 0x0 REVERT JUMPDEST SWAP2 PUSH1 0x7F AND SWAP2 PUSH2 0x41DE JUMP JUMPDEST SWAP1 PUSH1 0x40 MLOAD SWAP2 DUP3 PUSH1 0x0 DUP3 SLOAD SWAP3 PUSH2 0x421D DUP5 PUSH2 0x41CF JUMP JUMPDEST SWAP1 DUP2 DUP5 MSTORE PUSH1 0x1 SWAP5 DUP6 DUP2 AND SWAP1 DUP2 PUSH1 0x0 EQ PUSH2 0x428C JUMPI POP PUSH1 0x1 EQ PUSH2 0x4249 JUMPI JUMPDEST POP POP PUSH2 0x4247 SWAP3 POP SUB DUP4 PUSH2 0x3F96 JUMP JUMPDEST JUMP JUMPDEST SWAP1 SWAP4 SWAP2 POP PUSH1 0x0 MSTORE PUSH1 0x20 SWAP1 DUP2 PUSH1 0x0 KECCAK256 SWAP4 PUSH1 0x0 SWAP2 JUMPDEST DUP2 DUP4 LT PUSH2 0x4274 JUMPI POP POP PUSH2 0x4247 SWAP4 POP DUP3 ADD ADD CODESIZE DUP1 PUSH2 0x4239 JUMP JUMPDEST DUP6 SLOAD DUP9 DUP5 ADD DUP6 ADD MSTORE SWAP5 DUP6 ADD SWAP5 DUP8 SWAP5 POP SWAP2 DUP4 ADD SWAP2 PUSH2 0x425C JUMP JUMPDEST SWAP2 POP POP PUSH2 0x4247 SWAP5 POP PUSH1 0x20 SWAP3 POP PUSH1 0xFF NOT AND DUP3 DUP5 ADD MSTORE ISZERO ISZERO PUSH1 0x5 SHL DUP3 ADD ADD CODESIZE DUP1 PUSH2 0x4239 JUMP JUMPDEST DUP1 SLOAD DUP3 LT ISZERO PUSH2 0x298C JUMPI PUSH1 0x0 MSTORE PUSH1 0x20 PUSH1 0x0 KECCAK256 ADD SWAP1 PUSH1 0x0 SWAP1 JUMP JUMPDEST SWAP1 PUSH2 0x42DB DUP3 MLOAD PUSH2 0x200 DUP1 DUP5 MSTORE DUP4 ADD SWAP1 PUSH2 0x3E40 JUMP JUMPDEST PUSH2 0x42F1 PUSH1 0x20 SWAP2 DUP3 DUP6 ADD MLOAD DUP5 DUP3 SUB DUP5 DUP7 ADD MSTORE PUSH2 0x3E40 JUMP JUMPDEST SWAP1 PUSH2 0x4308 PUSH1 0x40 SWAP3 DUP4 DUP7 ADD MLOAD DUP6 DUP3 SUB DUP6 DUP8 ADD MSTORE PUSH2 0x3E40 JUMP JUMPDEST PUSH2 0x431E PUSH1 0x60 SWAP2 DUP3 DUP8 ADD MLOAD DUP7 DUP3 SUB DUP5 DUP9 ADD MSTORE PUSH2 0x3E40 JUMP JUMPDEST SWAP2 PUSH2 0x4335 PUSH1 0x80 SWAP4 DUP5 DUP9 ADD MLOAD DUP8 DUP3 SUB DUP7 DUP10 ADD MSTORE PUSH2 0x3E40 JUMP JUMPDEST SWAP3 PUSH2 0x434C PUSH1 0xA0 SWAP5 DUP6 DUP10 ADD MLOAD DUP9 DUP3 SUB DUP8 DUP11 ADD MSTORE PUSH2 0x3E40 JUMP JUMPDEST SWAP1 PUSH2 0x438F PUSH2 0x437B PUSH2 0x4369 PUSH1 0xC0 SWAP5 DUP6 DUP13 ADD MLOAD DUP12 DUP3 SUB DUP8 DUP14 ADD MSTORE PUSH2 0x3E40 JUMP JUMPDEST PUSH1 0xE0 DUP12 ADD MLOAD DUP11 DUP3 SUB PUSH1 0xE0 DUP13 ADD MSTORE PUSH2 0x3E40 JUMP JUMPDEST PUSH2 0x100 DUP1 DUP12 ADD MLOAD SWAP1 DUP11 DUP4 SUB SWAP1 DUP12 ADD MSTORE PUSH2 0x3E40 JUMP JUMPDEST SWAP2 PUSH2 0x120 SWAP6 DUP7 DUP11 ADD MLOAD SWAP7 DUP10 DUP6 SUB SWAP1 DUP11 ADD MSTORE DUP7 MLOAD SWAP6 DUP7 DUP6 MSTORE DUP6 DUP6 ADD SWAP4 DUP7 DUP1 DUP10 PUSH1 0x5 SHL DUP9 ADD ADD SWAP10 ADD SWAP10 PUSH1 0x0 SWAP7 JUMPDEST DUP10 DUP9 LT PUSH2 0x4429 JUMPI POP POP POP POP POP POP POP POP POP POP PUSH2 0x43FA SWAP2 POP PUSH2 0x140 DUP1 DUP6 ADD MLOAD SWAP1 DUP5 ADD MSTORE PUSH2 0x160 DUP1 DUP6 ADD MLOAD SWAP1 DUP5 ADD MSTORE PUSH2 0x180 DUP1 DUP6 ADD MLOAD SWAP1 DUP5 DUP4 SUB SWAP1 DUP6 ADD MSTORE PUSH2 0x3E40 JUMP JUMPDEST SWAP2 PUSH2 0x1A0 DUP1 DUP3 ADD MLOAD SWAP1 DUP4 ADD MSTORE PUSH2 0x1C0 PUSH1 0x1 PUSH1 0x1 PUSH1 0xA0 SHL SUB DUP2 DUP4 ADD MLOAD AND SWAP1 DUP4 ADD MSTORE PUSH2 0x1E0 DUP1 SWAP2 ADD MLOAD ISZERO ISZERO SWAP2 ADD MSTORE SWAP1 JUMP JUMPDEST SWAP1 SWAP2 SWAP3 SWAP4 SWAP5 SWAP6 SWAP7 SWAP8 SWAP9 SWAP10 DUP10 DUP1 DUP9 PUSH1 0x1 SWAP4 DUP16 DUP11 PUSH2 0x449D PUSH2 0x4485 DUP16 PUSH2 0x4465 DUP5 SWAP6 PUSH2 0x4475 SWAP3 DUP14 PUSH1 0x1F NOT SWAP1 DUP11 SUB ADD SWAP1 MSTORE MLOAD SWAP8 DUP9 MLOAD SWAP1 DUP1 DUP10 MSTORE DUP9 ADD SWAP1 PUSH2 0x3E40 JUMP JUMPDEST DUP9 DUP9 ADD MLOAD DUP8 DUP3 SUB DUP11 DUP10 ADD MSTORE PUSH2 0x3E40 JUMP JUMPDEST DUP12 DUP8 ADD MLOAD DUP7 DUP3 SUB DUP14 DUP9 ADD MSTORE PUSH2 0x3E40 JUMP JUMPDEST DUP13 DUP7 ADD MLOAD DUP14 DUP7 ADD MSTORE DUP12 DUP7 ADD MLOAD DUP6 DUP3 SUB DUP14 DUP8 ADD MSTORE PUSH2 0x3E40 JUMP JUMPDEST SWAP4 ADD MLOAD SWAP2 ADD MSTORE SWAP14 ADD SWAP9 ADD SWAP9 ADD SWAP7 SWAP11 SWAP10 SWAP9 SWAP8 SWAP6 SWAP5 SWAP4 SWAP3 SWAP2 SWAP1 PUSH2 0x43BA JUMP JUMPDEST CALLER PUSH1 0x0 SWAP1 DUP2 MSTORE PUSH32 0xA70365933F78520EF41D6645BA61E509916296603327302D41466C063E8E2608 PUSH1 0x20 MSTORE PUSH1 0x40 SWAP1 KECCAK256 SLOAD PUSH32 0xA49807205CE4D355092EF5A8A18F56E8913CF4A201FBE287825B095693C21775 SWAP1 PUSH1 0xFF AND ISZERO PUSH2 0x4515 JUMPI POP JUMP JUMPDEST PUSH1 0x44 SWAP1 PUSH1 0x40 MLOAD SWAP1 PUSH32 0xE2517D3F00000000000000000000000000000000000000000000000000000000 DUP3 MSTORE CALLER PUSH1 0x4 DUP4 ADD MSTORE PUSH1 0x24 DUP3 ADD MSTORE REVERT JUMPDEST CALLER PUSH1 0x0 SWAP1 DUP2 MSTORE PUSH32 0xA4BFD7AFE708E2E87E7F0E2AD9B4D545417E0F795F57B5C5AB5D799C565A04F4 PUSH1 0x20 MSTORE PUSH1 0x40 SWAP1 KECCAK256 SLOAD PUSH32 0x9F2DF0FED2C77648DE5860A4CC508CD0818C85B8B8A1AB4CEEEF8D981C8956A6 SWAP1 PUSH1 0xFF AND ISZERO PUSH2 0x4515 JUMPI POP JUMP JUMPDEST DUP1 PUSH1 0x0 MSTORE PUSH1 0x7 PUSH1 0x20 MSTORE PUSH1 0x40 PUSH1 0x0 KECCAK256 CALLER PUSH1 0x0 MSTORE PUSH1 0x20 MSTORE PUSH1 0xFF PUSH1 0x40 PUSH1 0x0 KECCAK256 SLOAD AND ISZERO PUSH2 0x4515 JUMPI POP JUMP JUMPDEST SWAP1 PUSH1 0x0 SWAP2 DUP1 DUP4 MSTORE PUSH1 0x7 PUSH1 0x20 MSTORE PUSH1 0x1 PUSH1 0x1 PUSH1 0xA0 SHL SUB PUSH1 0x40 DUP5 KECCAK256 SWAP3 AND SWAP2 DUP3 DUP5 MSTORE PUSH1 0x20 MSTORE PUSH1 0xFF PUSH1 0x40 DUP5 KECCAK256 SLOAD AND ISZERO PUSH1 0x0 EQ PUSH2 0x464A JUMPI DUP1 DUP4 MSTORE PUSH1 0x7 PUSH1 0x20 MSTORE PUSH1 0x40 DUP4 KECCAK256 DUP3 DUP5 MSTORE PUSH1 0x20 MSTORE PUSH1 0x40 DUP4 KECCAK256 PUSH1 0x1 PUSH1 0xFF NOT DUP3 SLOAD AND OR SWAP1 SSTORE PUSH32 0x2F8788117E7EFF1D82E926EC794901D17C78024A50270940304540A733656F0D CALLER SWAP4 DUP1 LOG4 PUSH1 0x1 SWAP1 JUMP JUMPDEST POP POP SWAP1 JUMP JUMPDEST SWAP1 PUSH1 0x0 SWAP2 DUP1 DUP4 MSTORE PUSH1 0x7 PUSH1 0x20 MSTORE PUSH1 0x1 PUSH1 0x1 PUSH1 0xA0 SHL SUB PUSH1 0x40 DUP5 KECCAK256 SWAP3 AND SWAP2 DUP3 DUP5 MSTORE PUSH1 0x20 MSTORE PUSH1 0xFF PUSH1 0x40 DUP5 KECCAK256 SLOAD AND PUSH1 0x0 EQ PUSH2 0x464A JUMPI DUP1 DUP4 MSTORE PUSH1 0x7 PUSH1 0x20 MSTORE PUSH1 0x40 DUP4 KECCAK256 DUP3 DUP5 MSTORE PUSH1 0x20 MSTORE PUSH1 0x40 DUP4 KECCAK256 PUSH1 0xFF NOT DUP2 SLOAD AND SWAP1 SSTORE PUSH32 0xF6391F5C32D9C69D2A47EA670B442974B53935D1EDC7FD64EB21E047A839171B CALLER SWAP4 DUP1 LOG4 PUSH1 0x1 SWAP1 JUMP JUMPDEST SWAP1 SWAP2 PUSH1 0x1 PUSH1 0x1 PUSH1 0xA0 SHL SUB DUP1 SWAP4 AND SWAP3 DUP4 ISZERO PUSH2 0x4884 JUMPI PUSH1 0x0 SWAP3 DUP3 DUP5 MSTORE DUP3 PUSH1 0x20 SWAP6 PUSH1 0x2 DUP8 MSTORE PUSH1 0x40 SWAP7 DUP5 DUP9 DUP9 KECCAK256 SLOAD AND SWAP7 DUP8 SWAP2 CALLER ISZERO ISZERO DUP1 PUSH2 0x47D5 JUMPI JUMPDEST POP SWAP1 PUSH1 0x2 PUSH32 0xDDF252AD1BE2C89B69C2B068FC378DAA952BA7F163C4A11628F55A4DF523B3EF SWAP3 DUP5 PUSH2 0x479D JUMPI JUMPDEST DUP6 DUP4 MSTORE PUSH1 0x3 DUP2 MSTORE DUP12 DUP4 KECCAK256 PUSH1 0x1 DUP2 SLOAD ADD SWAP1 SSTORE DUP7 DUP4 MSTORE MSTORE DUP10 DUP2 KECCAK256 DUP5 PUSH1 0x1 PUSH1 0x1 PUSH1 0xA0 SHL SUB NOT DUP3 SLOAD AND OR SWAP1 SSTORE DUP1 LOG4 AND SWAP3 DUP4 DUP4 SUB PUSH2 0x4763 JUMPI POP POP POP POP JUMP JUMPDEST PUSH1 0x64 SWAP5 POP MLOAD SWAP3 PUSH32 0x64283D7B00000000000000000000000000000000000000000000000000000000 DUP5 MSTORE PUSH1 0x4 DUP5 ADD MSTORE PUSH1 0x24 DUP4 ADD MSTORE PUSH1 0x44 DUP3 ADD MSTORE REVERT JUMPDEST PUSH2 0x47BE DUP8 PUSH1 0x0 MSTORE PUSH1 0x4 PUSH1 0x20 MSTORE PUSH1 0x40 PUSH1 0x0 KECCAK256 PUSH1 0x1 PUSH1 0x1 PUSH1 0xA0 SHL SUB NOT DUP2 SLOAD AND SWAP1 SSTORE JUMP JUMPDEST DUP5 DUP4 MSTORE PUSH1 0x3 DUP2 MSTORE DUP12 DUP4 KECCAK256 DUP1 SLOAD PUSH1 0x0 NOT ADD SWAP1 SSTORE PUSH2 0x472A JUMP JUMPDEST SWAP2 SWAP4 SWAP5 POP SWAP2 POP DUP1 PUSH2 0x4843 JUMPI JUMPDEST ISZERO PUSH2 0x47F1 JUMPI DUP6 SWAP3 SWAP2 DUP8 SWAP2 CODESIZE PUSH2 0x46FE JUMP JUMPDEST DUP8 DUP7 DUP9 PUSH2 0x480E JUMPI PUSH1 0x24 SWAP2 MLOAD SWAP1 PUSH4 0x7E273289 PUSH1 0xE0 SHL DUP3 MSTORE PUSH1 0x4 DUP3 ADD MSTORE REVERT JUMPDEST PUSH1 0x44 SWAP2 MLOAD SWAP1 PUSH32 0x177E802F00000000000000000000000000000000000000000000000000000000 DUP3 MSTORE CALLER PUSH1 0x4 DUP4 ADD MSTORE PUSH1 0x24 DUP3 ADD MSTORE REVERT JUMPDEST POP CALLER DUP8 EQ DUP1 ISZERO PUSH2 0x4868 JUMPI JUMPDEST DUP1 PUSH2 0x47E1 JUMPI POP DUP6 DUP3 MSTORE PUSH1 0x4 DUP2 MSTORE CALLER DUP6 DUP10 DUP5 KECCAK256 SLOAD AND EQ PUSH2 0x47E1 JUMP JUMPDEST POP DUP7 DUP3 MSTORE PUSH1 0x5 DUP2 MSTORE DUP8 DUP3 KECCAK256 CALLER DUP4 MSTORE DUP2 MSTORE PUSH1 0xFF DUP9 DUP4 KECCAK256 SLOAD AND PUSH2 0x484E JUMP JUMPDEST PUSH1 0x24 PUSH1 0x40 MLOAD PUSH4 0x32505749 PUSH1 0xE1 SHL DUP2 MSTORE PUSH1 0x0 PUSH1 0x4 DUP3 ADD MSTORE REVERT JUMPDEST DUP1 PUSH1 0x0 MSTORE PUSH1 0x2 PUSH1 0x20 MSTORE PUSH1 0x1 PUSH1 0x1 PUSH1 0xA0 SHL SUB PUSH1 0x40 PUSH1 0x0 KECCAK256 SLOAD AND SWAP1 DUP2 ISZERO PUSH2 0x48BF JUMPI POP SWAP1 JUMP JUMPDEST PUSH1 0x24 SWAP1 PUSH1 0x40 MLOAD SWAP1 PUSH4 0x7E273289 PUSH1 0xE0 SHL DUP3 MSTORE PUSH1 0x4 DUP3 ADD MSTORE REVERT JUMPDEST DUP2 EXTCODESIZE PUSH2 0x48E4 JUMPI JUMPDEST POP POP POP POP JUMP JUMPDEST PUSH1 0x1 PUSH1 0x1 PUSH1 0xA0 SHL SUB SWAP5 SWAP2 SWAP3 SWAP4 SWAP5 DUP1 SWAP4 AND SWAP4 PUSH1 0x40 MLOAD SWAP4 PUSH4 0xA85BD01 PUSH1 0xE1 SHL SWAP3 DUP4 DUP7 MSTORE CALLER PUSH1 0x4 DUP8 ADD MSTORE AND PUSH1 0x24 DUP6 ADD MSTORE PUSH1 0x44 DUP5 ADD MSTORE PUSH1 0x80 PUSH1 0x64 DUP5 ADD MSTORE DUP3 PUSH2 0x492E PUSH1 0x20 SWAP7 PUSH1 0x84 DUP4 ADD SWAP1 PUSH2 0x3E40 JUMP JUMPDEST SUB SWAP3 DUP6 DUP2 PUSH1 0x0 SWAP6 DUP2 DUP8 DUP10 GAS CALL DUP5 SWAP2 DUP2 PUSH2 0x49D8 JUMPI JUMPDEST POP PUSH2 0x49A1 JUMPI POP POP POP RETURNDATASIZE PUSH1 0x0 EQ PUSH2 0x4999 JUMPI RETURNDATASIZE PUSH2 0x495C DUP2 PUSH2 0x3FB8 JUMP JUMPDEST SWAP1 PUSH2 0x496A PUSH1 0x40 MLOAD SWAP3 DUP4 PUSH2 0x3F96 JUMP JUMPDEST DUP2 MSTORE DUP1 SWAP2 DUP5 RETURNDATASIZE SWAP3 ADD RETURNDATACOPY JUMPDEST DUP1 MLOAD SWAP3 DUP4 PUSH2 0x4994 JUMPI PUSH1 0x24 DUP4 PUSH1 0x40 MLOAD SWAP1 PUSH4 0x32505749 PUSH1 0xE1 SHL DUP3 MSTORE PUSH1 0x4 DUP3 ADD MSTORE REVERT JUMPDEST ADD SWAP1 POP REVERT JUMPDEST POP PUSH1 0x60 PUSH2 0x4974 JUMP JUMPDEST SWAP1 SWAP3 POP PUSH1 0x1 PUSH1 0x1 PUSH1 0xE0 SHL SUB NOT SWAP2 SWAP5 POP AND SUB PUSH2 0x49C0 JUMPI POP CODESIZE DUP1 DUP1 DUP1 PUSH2 0x48DE JUMP JUMPDEST PUSH1 0x24 SWAP1 PUSH1 0x40 MLOAD SWAP1 PUSH4 0x32505749 PUSH1 0xE1 SHL DUP3 MSTORE PUSH1 0x4 DUP3 ADD MSTORE REVERT JUMPDEST SWAP1 SWAP2 POP DUP7 DUP2 DUP2 RETURNDATASIZE DUP4 GT PUSH2 0x4A15 JUMPI JUMPDEST PUSH2 0x49F0 DUP2 DUP4 PUSH2 0x3F96 JUMP JUMPDEST DUP2 ADD SUB SLT PUSH2 0x4A11 JUMPI MLOAD PUSH1 0x1 PUSH1 0x1 PUSH1 0xE0 SHL SUB NOT DUP2 AND DUP2 SUB PUSH2 0x4A11 JUMPI SWAP1 CODESIZE PUSH2 0x4942 JUMP JUMPDEST DUP5 DUP1 REVERT JUMPDEST POP RETURNDATASIZE PUSH2 0x49E6 JUMP JUMPDEST ISZERO PUSH2 0x4A23 JUMPI JUMP JUMPDEST PUSH1 0x64 PUSH1 0x40 MLOAD PUSH3 0x461BCD PUSH1 0xE5 SHL DUP2 MSTORE PUSH1 0x20 PUSH1 0x4 DUP3 ADD MSTORE PUSH1 0x17 PUSH1 0x24 DUP3 ADD MSTORE PUSH32 0x496E76616C69642073747564656E742061646472657373000000000000000000 PUSH1 0x44 DUP3 ADD MSTORE REVERT JUMPDEST PUSH1 0x0 NOT DUP2 EQ PUSH2 0x4A76 JUMPI PUSH1 0x1 ADD SWAP1 JUMP JUMPDEST PUSH4 0x4E487B71 PUSH1 0xE0 SHL PUSH1 0x0 MSTORE PUSH1 0x11 PUSH1 0x4 MSTORE PUSH1 0x24 PUSH1 0x0 REVERT JUMPDEST DUP1 SLOAD PUSH9 0x10000000000000000 DUP2 LT ISZERO PUSH2 0xAE3 JUMPI PUSH2 0x4AAE SWAP2 PUSH1 0x1 DUP3 ADD DUP2 SSTORE PUSH2 0x42AF JUMP JUMPDEST DUP2 SWAP3 SWAP2 SLOAD SWAP1 PUSH1 0x3 SHL SWAP2 DUP3 SHL SWAP2 PUSH1 0x0 NOT SWAP1 SHL NOT AND OR SWAP1 SSTORE JUMP JUMPDEST PUSH1 0xA SLOAD PUSH1 0x0 SWAP3 SWAP2 PUSH2 0x4AD6 DUP3 PUSH2 0x41CF JUMP JUMPDEST SWAP2 PUSH1 0x1 SWAP1 DUP2 DUP2 AND SWAP1 DUP2 ISZERO PUSH2 0x4B42 JUMPI POP PUSH1 0x1 EQ PUSH2 0x4AF1 JUMPI POP POP POP JUMP JUMPDEST SWAP1 SWAP2 SWAP3 SWAP4 POP PUSH1 0xA PUSH1 0x0 MSTORE PUSH32 0xC65A7BB8D6351C1CF70C95A316CC6A92839C986682D98BC35F958F4883F9D2A8 SWAP1 PUSH1 0x0 SWAP2 JUMPDEST DUP5 DUP4 LT PUSH2 0x4B2F JUMPI POP POP POP ADD SWAP1 JUMP JUMPDEST DUP2 DUP2 PUSH1 0x20 SWAP3 SLOAD DUP6 DUP8 ADD MSTORE ADD SWAP3 ADD SWAP2 PUSH2 0x4B21 JUMP JUMPDEST PUSH1 0xFF NOT AND DUP4 MSTORE POP POP DUP2 ISZERO ISZERO SWAP1 SWAP2 MUL ADD SWAP2 POP JUMP JUMPDEST PUSH2 0x4B6D SWAP1 PUSH1 0x20 PUSH1 0x40 MLOAD SWAP3 DUP3 DUP5 DUP1 SWAP5 MLOAD SWAP4 DUP5 SWAP3 ADD PUSH2 0x3E1D JUMP JUMPDEST DUP2 ADD SUB SWAP1 KECCAK256 SWAP1 JUMP JUMPDEST PUSH1 0x40 DUP1 MLOAD SWAP3 PUSH2 0x4B83 DUP5 PUSH2 0x3F7A JUMP JUMPDEST PUSH1 0x0 SWAP1 DUP2 DUP6 MSTORE PUSH1 0x1 PUSH1 0x1 PUSH1 0xA0 SHL SUB SWAP5 DUP6 DUP6 AND SWAP5 DUP6 ISZERO PUSH2 0x4DA3 JUMPI DUP3 DUP5 MSTORE PUSH1 0x20 SWAP7 PUSH1 0x2 DUP9 MSTORE DUP6 DUP6 KECCAK256 SLOAD AND DUP4 DUP8 DUP3 ISZERO ISZERO SWAP3 DUP4 PUSH2 0x4D6B JUMPI JUMPDEST DUP2 DUP9 MSTORE PUSH1 0x3 DUP12 MSTORE DUP9 DUP9 KECCAK256 PUSH1 0x1 DUP2 SLOAD ADD SWAP1 SSTORE DUP3 DUP9 MSTORE PUSH1 0x2 DUP12 MSTORE DUP9 DUP9 KECCAK256 DUP3 PUSH1 0x1 PUSH1 0x1 PUSH1 0xA0 SHL SUB NOT DUP3 SLOAD AND OR SWAP1 SSTORE PUSH32 0xDDF252AD1BE2C89B69C2B068FC378DAA952BA7F163C4A11628F55A4DF523B3EF DUP9 DUP1 LOG4 PUSH2 0x4D3B JUMPI EXTCODESIZE PUSH2 0x4C18 JUMPI JUMPDEST POP POP POP POP POP POP JUMP JUMPDEST DUP6 PUSH2 0x4C56 SWAP2 DUP6 SWAP7 SWAP8 SWAP9 SWAP5 SWAP6 MLOAD DUP1 SWAP4 DUP2 SWAP3 PUSH4 0xA85BD01 PUSH1 0xE1 SHL SWAP7 DUP8 DUP5 MSTORE CALLER PUSH1 0x4 DUP6 ADD MSTORE DUP10 PUSH1 0x24 DUP6 ADD MSTORE PUSH1 0x44 DUP5 ADD MSTORE PUSH1 0x80 PUSH1 0x64 DUP5 ADD MSTORE PUSH1 0x84 DUP4 ADD SWAP1 PUSH2 0x3E40 JUMP JUMPDEST SUB DUP2 DUP8 DUP11 GAS CALL DUP5 SWAP2 DUP2 PUSH2 0x4CFB JUMPI JUMPDEST POP PUSH2 0x4CC2 JUMPI POP POP POP RETURNDATASIZE PUSH1 0x0 EQ PUSH2 0x4CBA JUMPI RETURNDATASIZE PUSH2 0x4C7E DUP2 PUSH2 0x3FB8 JUMP JUMPDEST SWAP1 PUSH2 0x4C8B DUP5 MLOAD SWAP3 DUP4 PUSH2 0x3F96 JUMP JUMPDEST DUP2 MSTORE DUP1 SWAP2 DUP6 RETURNDATASIZE SWAP3 ADD RETURNDATACOPY JUMPDEST DUP1 MLOAD SWAP4 DUP5 PUSH2 0x4CB4 JUMPI PUSH1 0x24 DUP5 DUP5 MLOAD SWAP1 PUSH4 0x32505749 PUSH1 0xE1 SHL DUP3 MSTORE PUSH1 0x4 DUP3 ADD MSTORE REVERT JUMPDEST DUP5 SWAP3 POP ADD REVERT JUMPDEST POP PUSH1 0x60 PUSH2 0x4C95 JUMP JUMPDEST SWAP1 SWAP3 POP PUSH1 0x1 PUSH1 0x1 PUSH1 0xE0 SHL SUB NOT SWAP2 SWAP6 POP AND SUB PUSH2 0x4CE4 JUMPI POP POP CODESIZE DUP1 DUP1 DUP1 DUP1 DUP1 PUSH2 0x4C10 JUMP JUMPDEST PUSH1 0x24 SWAP3 POP MLOAD SWAP1 PUSH4 0x32505749 PUSH1 0xE1 SHL DUP3 MSTORE PUSH1 0x4 DUP3 ADD MSTORE REVERT JUMPDEST SWAP1 SWAP2 POP DUP8 DUP2 DUP2 RETURNDATASIZE DUP4 GT PUSH2 0x4D34 JUMPI JUMPDEST PUSH2 0x4D13 DUP2 DUP4 PUSH2 0x3F96 JUMP JUMPDEST DUP2 ADD SUB SLT PUSH2 0x4A11 JUMPI MLOAD PUSH1 0x1 PUSH1 0x1 PUSH1 0xE0 SHL SUB NOT DUP2 AND DUP2 SUB PUSH2 0x4A11 JUMPI SWAP1 CODESIZE PUSH2 0x4C64 JUMP JUMPDEST POP RETURNDATASIZE PUSH2 0x4D09 JUMP JUMPDEST PUSH1 0x24 DUP5 DUP7 MLOAD SWAP1 PUSH32 0x73C6AC6E00000000000000000000000000000000000000000000000000000000 DUP3 MSTORE PUSH1 0x4 DUP3 ADD MSTORE REVERT JUMPDEST PUSH2 0x4D8C DUP4 PUSH1 0x0 MSTORE PUSH1 0x4 PUSH1 0x20 MSTORE PUSH1 0x40 PUSH1 0x0 KECCAK256 PUSH1 0x1 PUSH1 0x1 PUSH1 0xA0 SHL SUB NOT DUP2 SLOAD AND SWAP1 SSTORE JUMP JUMPDEST DUP1 DUP9 MSTORE PUSH1 0x3 DUP12 MSTORE DUP9 DUP9 KECCAK256 DUP1 SLOAD PUSH1 0x0 NOT ADD SWAP1 SSTORE PUSH2 0x4BB7 JUMP JUMPDEST PUSH1 0x24 DUP5 DUP7 MLOAD SWAP1 PUSH4 0x32505749 PUSH1 0xE1 SHL DUP3 MSTORE PUSH1 0x4 DUP3 ADD MSTORE REVERT JUMPDEST SWAP2 SWAP1 SWAP2 PUSH1 0x0 SWAP1 DUP1 DUP3 MSTORE PUSH1 0x20 SWAP2 PUSH1 0x6 DUP4 MSTORE PUSH1 0x40 DUP2 KECCAK256 SWAP1 DUP6 MLOAD SWAP1 PUSH8 0xFFFFFFFFFFFFFFFF DUP3 GT PUSH2 0x4F1C JUMPI PUSH2 0x4DEB DUP4 SLOAD PUSH2 0x41CF JUMP JUMPDEST PUSH1 0x1F DUP2 GT PUSH2 0x4ED9 JUMPI JUMPDEST POP DUP5 SWAP1 PUSH1 0x1F DUP4 GT PUSH1 0x1 EQ PUSH2 0x4E55 JUMPI SWAP1 PUSH32 0xF8E1A15ABA9398E019F0B49DF1A4FDE98EE17AE345CB5F6B5E2C27F5033E8CE7 SWAP7 SWAP8 DUP4 PUSH2 0x4E4A JUMPI JUMPDEST POP POP DUP2 PUSH1 0x1 SHL SWAP2 PUSH1 0x0 NOT SWAP1 PUSH1 0x3 SHL SHR NOT AND OR SWAP1 SSTORE JUMPDEST PUSH1 0x40 MLOAD SWAP1 DUP2 MSTORE LOG1 JUMP JUMPDEST ADD MLOAD SWAP1 POP CODESIZE DUP1 PUSH2 0x4E2C JUMP JUMPDEST SWAP2 SWAP7 PUSH1 0x1F NOT DUP9 AND DUP5 DUP5 MSTORE DUP7 DUP5 KECCAK256 SWAP4 JUMPDEST DUP2 DUP2 LT PUSH2 0x4EC2 JUMPI POP SWAP2 PUSH1 0x1 SWAP4 SWAP2 DUP10 PUSH32 0xF8E1A15ABA9398E019F0B49DF1A4FDE98EE17AE345CB5F6B5E2C27F5033E8CE7 SWAP10 SWAP11 SWAP5 LT PUSH2 0x4EA9 JUMPI JUMPDEST POP POP POP DUP2 SHL ADD SWAP1 SSTORE PUSH2 0x4E41 JUMP JUMPDEST ADD MLOAD PUSH1 0x0 NOT PUSH1 0xF8 DUP5 PUSH1 0x3 SHL AND SHR NOT AND SWAP1 SSTORE CODESIZE DUP1 DUP1 PUSH2 0x4E9C JUMP JUMPDEST SWAP3 SWAP4 DUP8 PUSH1 0x1 DUP2 SWAP3 DUP8 DUP7 ADD MLOAD DUP2 SSTORE ADD SWAP6 ADD SWAP4 ADD PUSH2 0x4E64 JUMP JUMPDEST DUP4 DUP3 MSTORE DUP6 DUP3 KECCAK256 PUSH1 0x1F DUP5 ADD PUSH1 0x5 SHR DUP2 ADD SWAP2 DUP8 DUP6 LT PUSH2 0x4F12 JUMPI JUMPDEST PUSH1 0x1F ADD PUSH1 0x5 SHR ADD SWAP1 JUMPDEST DUP2 DUP2 LT PUSH2 0x4F07 JUMPI POP PUSH2 0x4DF4 JUMP JUMPDEST DUP3 DUP2 SSTORE PUSH1 0x1 ADD PUSH2 0x4EFA JUMP JUMPDEST SWAP1 SWAP2 POP DUP2 SWAP1 PUSH2 0x4EF1 JUMP JUMPDEST DUP1 PUSH4 0x4E487B71 PUSH1 0xE0 SHL PUSH1 0x24 SWAP3 MSTORE PUSH1 0x41 PUSH1 0x4 MSTORE REVERT JUMPDEST PUSH1 0xFF PUSH1 0x8 SLOAD AND PUSH2 0x4F3C JUMPI JUMP JUMPDEST PUSH1 0x4 PUSH1 0x40 MLOAD PUSH32 0xD93C066500000000000000000000000000000000000000000000000000000000 DUP2 MSTORE REVERT JUMPDEST DUP1 PUSH1 0x0 SWAP2 PUSH27 0x184F03E93FF9F4DAA797ED6E38ED64BF6A1F010000000000000000 DUP1 DUP3 LT ISZERO PUSH2 0x50CD JUMPI JUMPDEST POP PUSH14 0x4EE2D6D415B85ACEF8100000000 DUP1 DUP4 LT ISZERO PUSH2 0x50BE JUMPI JUMPDEST POP PUSH7 0x2386F26FC10000 DUP1 DUP4 LT ISZERO PUSH2 0x50AF JUMPI JUMPDEST POP PUSH4 0x5F5E100 DUP1 DUP4 LT ISZERO PUSH2 0x50A0 JUMPI JUMPDEST POP PUSH2 0x2710 DUP1 DUP4 LT ISZERO PUSH2 0x5091 JUMPI JUMPDEST POP PUSH1 0x64 DUP3 LT ISZERO PUSH2 0x5081 JUMPI JUMPDEST PUSH1 0xA DUP1 SWAP3 LT ISZERO PUSH2 0x5077 JUMPI JUMPDEST PUSH1 0x1 SWAP1 DUP2 PUSH1 0x21 DUP2 DUP7 ADD SWAP6 PUSH2 0x4FFF DUP8 PUSH2 0x3FB8 JUMP JUMPDEST SWAP7 PUSH2 0x500D PUSH1 0x40 MLOAD SWAP9 DUP10 PUSH2 0x3F96 JUMP JUMPDEST DUP1 DUP9 MSTORE PUSH2 0x501C PUSH1 0x1F NOT SWAP2 PUSH2 0x3FB8 JUMP JUMPDEST ADD CALLDATASIZE PUSH1 0x20 DUP10 ADD CALLDATACOPY DUP7 ADD ADD SWAP1 JUMPDEST PUSH2 0x5034 JUMPI JUMPDEST POP POP POP POP SWAP1 JUMP JUMPDEST PUSH1 0x0 NOT ADD SWAP1 DUP4 SWAP1 PUSH32 0x3031323334353637383961626364656600000000000000000000000000000000 DUP3 DUP3 MOD BYTE DUP4 MSTORE8 DIV SWAP2 DUP3 ISZERO PUSH2 0x5072 JUMPI SWAP2 SWAP1 DUP3 PUSH2 0x5028 JUMP JUMPDEST PUSH2 0x502D JUMP JUMPDEST SWAP2 PUSH1 0x1 ADD SWAP2 PUSH2 0x4FEC JUMP JUMPDEST SWAP2 SWAP1 PUSH1 0x64 PUSH1 0x2 SWAP2 DIV SWAP2 ADD SWAP2 PUSH2 0x4FE1 JUMP JUMPDEST PUSH1 0x4 SWAP2 SWAP4 SWAP3 DIV SWAP2 ADD SWAP2 CODESIZE PUSH2 0x4FD6 JUMP JUMPDEST PUSH1 0x8 SWAP2 SWAP4 SWAP3 DIV SWAP2 ADD SWAP2 CODESIZE PUSH2 0x4FC9 JUMP JUMPDEST PUSH1 0x10 SWAP2 SWAP4 SWAP3 DIV SWAP2 ADD SWAP2 CODESIZE PUSH2 0x4FBA JUMP JUMPDEST PUSH1 0x20 SWAP2 SWAP4 SWAP3 DIV SWAP2 ADD SWAP2 CODESIZE PUSH2 0x4FA8 JUMP JUMPDEST PUSH1 0x40 SWAP4 POP DUP2 DIV SWAP2 POP CODESIZE PUSH2 0x4F8F JUMP JUMPDEST ISZERO PUSH2 0x50E2 JUMPI JUMP JUMPDEST PUSH1 0x64 PUSH1 0x40 MLOAD PUSH3 0x461BCD PUSH1 0xE5 SHL DUP2 MSTORE PUSH1 0x20 PUSH1 0x4 DUP3 ADD MSTORE PUSH1 0x1A PUSH1 0x24 DUP3 ADD MSTORE PUSH32 0x436572746966696361746520646F6573206E6F74206578697374000000000000 PUSH1 0x44 DUP3 ADD MSTORE REVERT JUMPDEST ISZERO PUSH2 0x512D JUMPI JUMP JUMPDEST PUSH1 0x64 PUSH1 0x40 MLOAD PUSH3 0x461BCD PUSH1 0xE5 SHL DUP2 MSTORE PUSH1 0x20 PUSH1 0x4 DUP3 ADD MSTORE PUSH1 0x1B PUSH1 0x24 DUP3 ADD MSTORE PUSH32 0x436572746966696361746520616C7265616479207265766F6B65640000000000 PUSH1 0x44 DUP3 ADD MSTORE REVERT JUMPDEST PUSH1 0x40 MLOAD SWAP1 PUSH2 0x517E DUP3 PUSH2 0x3F24 JUMP JUMPDEST PUSH1 0x0 PUSH1 0xE0 DUP4 PUSH1 0x60 DUP1 DUP3 MSTORE DUP1 PUSH1 0x20 DUP4 ADD MSTORE DUP1 PUSH1 0x40 DUP4 ADD MSTORE DUP1 DUP1 DUP4 ADD MSTORE PUSH1 0x80 DUP3 ADD MSTORE DUP3 PUSH1 0xA0 DUP3 ADD MSTORE DUP3 PUSH1 0xC0 DUP3 ADD MSTORE ADD MSTORE JUMP JUMPDEST PUSH2 0x51B6 PUSH2 0x5171 JUMP JUMPDEST SWAP1 PUSH1 0x0 MSTORE PUSH1 0x2 PUSH1 0x20 MSTORE PUSH1 0x1 PUSH1 0x1 PUSH1 0xA0 SHL SUB SWAP1 DUP2 PUSH1 0x40 PUSH1 0x0 KECCAK256 SLOAD AND ISZERO PUSH2 0x526E JUMPI POP PUSH1 0xB PUSH1 0x20 MSTORE PUSH1 0x40 PUSH1 0x0 KECCAK256 PUSH1 0x6 PUSH1 0x40 MLOAD SWAP2 PUSH2 0x51EF DUP4 PUSH2 0x3F24 JUMP JUMPDEST PUSH2 0x51F8 DUP2 PUSH2 0x4209 JUMP JUMPDEST DUP4 MSTORE PUSH2 0x5206 PUSH1 0x1 DUP3 ADD PUSH2 0x4209 JUMP JUMPDEST PUSH1 0x20 DUP5 ADD MSTORE PUSH2 0x5217 PUSH1 0x2 DUP3 ADD PUSH2 0x4209 JUMP JUMPDEST PUSH1 0x40 DUP5 ADD MSTORE PUSH2 0x5228 PUSH1 0x3 DUP3 ADD PUSH2 0x4209 JUMP JUMPDEST PUSH1 0x60 DUP5 ADD MSTORE PUSH2 0x5239 PUSH1 0x4 DUP3 ADD PUSH2 0x4209 JUMP JUMPDEST PUSH1 0x80 DUP5 ADD MSTORE PUSH1 0x5 DUP2 ADD SLOAD PUSH1 0xA0 DUP5 ADD MSTORE ADD SLOAD SWAP2 PUSH1 0xFF DUP4 AND ISZERO ISZERO SWAP3 DUP4 PUSH1 0xC0 DUP5 ADD MSTORE PUSH1 0x8 SHR AND PUSH1 0xE0 DUP3 ADD MSTORE DUP1 SWAP2 PUSH2 0x526E JUMPI POP SWAP1 PUSH1 0x1 SWAP1 JUMP JUMPDEST SWAP2 PUSH1 0x0 SWAP2 POP JUMP JUMPDEST ISZERO PUSH2 0x527C JUMPI JUMP JUMPDEST PUSH1 0x64 PUSH1 0x40 MLOAD PUSH3 0x461BCD PUSH1 0xE5 SHL DUP2 MSTORE PUSH1 0x20 PUSH1 0x4 DUP3 ADD MSTORE PUSH1 0x14 PUSH1 0x24 DUP3 ADD MSTORE PUSH32 0x546F6B656E20646F6573206E6F74206578697374000000000000000000000000 PUSH1 0x44 DUP3 ADD MSTORE REVERT JUMPDEST DUP1 MLOAD DUP3 LT ISZERO PUSH2 0x298C JUMPI PUSH1 0x20 SWAP2 PUSH1 0x5 SHL ADD ADD SWAP1 JUMP JUMPDEST SWAP2 SWAP1 DUP3 ADD DUP1 SWAP3 GT PUSH2 0x4A76 JUMPI JUMP JUMPDEST SWAP1 DUP2 MLOAD ISZERO PUSH2 0x53FF JUMPI PUSH1 0x0 SWAP2 DUP3 DUP4 JUMPDEST DUP3 MLOAD DUP2 LT ISZERO PUSH2 0x53E9 JUMPI PUSH1 0x80 PUSH2 0x5304 DUP3 DUP6 PUSH2 0x52C0 JUMP JUMPDEST MLOAD ADD MLOAD DUP1 MLOAD PUSH1 0x20 DUP1 SWAP3 ADD KECCAK256 PUSH1 0x40 DUP1 MLOAD SWAP3 DUP2 DUP5 ADD SWAP4 DUP1 DUP6 LT PUSH8 0xFFFFFFFFFFFFFFFF DUP7 GT OR PUSH2 0xAE3 JUMPI PUSH32 0x7B2AB94BB7D45041581AA3757AE020084674CCAD6F75DC3750EB2EA8A92C4E9A SWAP5 PUSH32 0x5000000000000000000000000000000000000000000000000000000000000000 SWAP4 MSTORE PUSH1 0x1 DUP2 MSTORE ADD MSTORE EQ PUSH2 0x538A JUMPI JUMPDEST PUSH2 0x5385 SWAP1 PUSH2 0x4A67 JUMP JUMPDEST PUSH2 0x52EF JUMP JUMPDEST SWAP1 SWAP4 PUSH1 0x60 PUSH2 0x5398 DUP4 DUP6 PUSH2 0x52C0 JUMP JUMPDEST MLOAD ADD MLOAD PUSH1 0xA0 SWAP6 DUP7 PUSH2 0x53A9 DUP6 DUP8 PUSH2 0x52C0 JUMP JUMPDEST MLOAD ADD MLOAD SWAP2 DUP3 DUP2 MUL SWAP3 DUP2 DUP5 DIV EQ SWAP1 ISZERO OR ISZERO PUSH2 0x4A76 JUMPI PUSH2 0x53CD PUSH2 0x53E1 SWAP3 PUSH2 0x5385 SWAP5 PUSH2 0x52D4 JUMP JUMPDEST SWAP7 PUSH2 0x53D8 DUP6 DUP8 PUSH2 0x52C0 JUMP JUMPDEST MLOAD ADD MLOAD SWAP1 PUSH2 0x52D4 JUMP JUMPDEST SWAP2 SWAP1 POP PUSH2 0x537C JUMP JUMPDEST POP SWAP2 SWAP3 SWAP1 POP DUP2 ISZERO PUSH2 0x53F8 JUMPI DIV SWAP1 JUMP JUMPDEST POP POP PUSH1 0x0 SWAP1 JUMP JUMPDEST PUSH1 0x0 SWAP2 POP JUMP JUMPDEST PUSH1 0x40 MLOAD SWAP1 PUSH2 0x5412 DUP3 PUSH2 0x3F41 JUMP JUMPDEST PUSH1 0x0 PUSH2 0x1E0 DUP4 PUSH1 0x60 DUP1 DUP3 MSTORE DUP1 PUSH1 0x20 DUP4 ADD MSTORE DUP1 PUSH1 0x40 DUP4 ADD MSTORE DUP1 DUP1 DUP4 ADD MSTORE DUP1 PUSH1 0x80 DUP4 ADD MSTORE DUP1 PUSH1 0xA0 DUP4 ADD MSTORE DUP1 PUSH1 0xC0 DUP4 ADD MSTORE DUP1 PUSH1 0xE0 DUP4 ADD MSTORE DUP1 PUSH2 0x100 DUP4 ADD MSTORE DUP1 PUSH2 0x120 DUP4 ADD MSTORE DUP4 PUSH2 0x140 DUP4 ADD MSTORE DUP4 PUSH2 0x160 DUP4 ADD MSTORE PUSH2 0x180 DUP3 ADD MSTORE DUP3 PUSH2 0x1A0 DUP3 ADD MSTORE DUP3 PUSH2 0x1C0 DUP3 ADD MSTORE ADD MSTORE JUMP JUMPDEST PUSH2 0x5482 PUSH2 0x5405 JUMP JUMPDEST SWAP1 PUSH1 0x0 MSTORE PUSH1 0x2 PUSH1 0x20 MSTORE PUSH1 0x1 PUSH1 0x1 PUSH1 0xA0 SHL SUB PUSH1 0x40 PUSH1 0x0 KECCAK256 SLOAD AND ISZERO PUSH2 0x5664 JUMPI POP PUSH1 0xE PUSH1 0x20 MSTORE PUSH1 0x40 PUSH1 0x0 KECCAK256 PUSH1 0x40 MLOAD SWAP1 PUSH2 0x54B7 DUP3 PUSH2 0x3F41 JUMP JUMPDEST PUSH2 0x54C0 DUP2 PUSH2 0x4209 JUMP JUMPDEST DUP3 MSTORE PUSH2 0x54CE PUSH1 0x1 DUP3 ADD PUSH2 0x4209 JUMP JUMPDEST PUSH1 0x20 DUP4 ADD MSTORE PUSH2 0x54DF PUSH1 0x2 DUP3 ADD PUSH2 0x4209 JUMP JUMPDEST PUSH1 0x40 DUP4 ADD MSTORE PUSH2 0x54F0 PUSH1 0x3 DUP3 ADD PUSH2 0x4209 JUMP JUMPDEST PUSH1 0x60 DUP4 ADD MSTORE PUSH2 0x5501 PUSH1 0x4 DUP3 ADD PUSH2 0x4209 JUMP JUMPDEST PUSH1 0x80 DUP4 ADD MSTORE PUSH2 0x5512 PUSH1 0x5 DUP3 ADD PUSH2 0x4209 JUMP JUMPDEST PUSH1 0xA0 DUP4 ADD MSTORE PUSH2 0x5523 PUSH1 0x6 DUP3 ADD PUSH2 0x4209 JUMP JUMPDEST PUSH1 0xC0 DUP4 ADD MSTORE PUSH2 0x5534 PUSH1 0x7 DUP3 ADD PUSH2 0x4209 JUMP JUMPDEST PUSH1 0xE0 DUP4 ADD MSTORE PUSH2 0x5545 PUSH1 0x8 DUP3 ADD PUSH2 0x4209 JUMP JUMPDEST PUSH2 0x100 DUP4 ADD MSTORE PUSH1 0x9 DUP2 ADD DUP1 SLOAD PUSH2 0x555A DUP2 PUSH2 0x4099 JUMP JUMPDEST SWAP2 PUSH2 0x5568 PUSH1 0x40 MLOAD SWAP4 DUP5 PUSH2 0x3F96 JUMP JUMPDEST DUP2 DUP4 MSTORE PUSH1 0x20 DUP4 ADD SWAP1 PUSH1 0x0 MSTORE PUSH1 0x20 PUSH1 0x0 KECCAK256 PUSH1 0x0 SWAP2 JUMPDEST DUP4 DUP4 LT PUSH2 0x55F3 JUMPI POP POP POP POP PUSH1 0xFF SWAP2 PUSH1 0xE SWAP2 PUSH2 0x120 DUP6 ADD MSTORE PUSH1 0xA DUP2 ADD SLOAD PUSH2 0x140 DUP6 ADD MSTORE PUSH1 0xB DUP2 ADD SLOAD PUSH2 0x160 DUP6 ADD MSTORE PUSH2 0x55B5 PUSH1 0xC DUP3 ADD PUSH2 0x4209 JUMP JUMPDEST PUSH2 0x180 DUP6 ADD MSTORE PUSH1 0xD DUP2 ADD SLOAD PUSH2 0x1A0 DUP6 ADD MSTORE ADD SLOAD PUSH1 0x1 PUSH1 0x1 PUSH1 0xA0 SHL SUB DUP2 AND PUSH2 0x1C0 DUP5 ADD MSTORE PUSH1 0xA0 SHR AND ISZERO ISZERO SWAP1 DUP2 PUSH2 0x1E0 DUP3 ADD MSTORE DUP1 SWAP2 PUSH2 0x526E JUMPI POP SWAP1 PUSH1 0x1 SWAP1 JUMP JUMPDEST PUSH1 0x6 PUSH1 0x20 PUSH1 0x1 SWAP3 PUSH1 0x40 MLOAD PUSH2 0x5606 DUP2 PUSH2 0x3F5E JUMP JUMPDEST PUSH2 0x560F DUP7 PUSH2 0x4209 JUMP JUMPDEST DUP2 MSTORE PUSH2 0x561C DUP6 DUP8 ADD PUSH2 0x4209 JUMP JUMPDEST DUP4 DUP3 ADD MSTORE PUSH2 0x562C PUSH1 0x2 DUP8 ADD PUSH2 0x4209 JUMP JUMPDEST PUSH1 0x40 DUP3 ADD MSTORE PUSH1 0x3 DUP7 ADD SLOAD PUSH1 0x60 DUP3 ADD MSTORE PUSH2 0x5647 PUSH1 0x4 DUP8 ADD PUSH2 0x4209 JUMP JUMPDEST PUSH1 0x80 DUP3 ADD MSTORE PUSH1 0x5 DUP7 ADD SLOAD PUSH1 0xA0 DUP3 ADD MSTORE DUP2 MSTORE ADD SWAP3 ADD SWAP3 ADD SWAP2 SWAP1 PUSH2 0x557C JUMP JUMPDEST SWAP1 PUSH1 0x0 SWAP1 JUMP INVALID LOG2 PUSH5 0x6970667358 0x22 SLT KECCAK256 0xB2 CODESIZE 0x1F INVALID SWAP8 EQ 0xCF BLOCKHASH 0x1E BLOCKHASH EXP SGT 0x4E 0xAE SUB 0xD7 0x21 0x2A PUSH12 0x2612DB03456D4E9D8DFF435B 0xD1 PUSH5 0x736F6C6343 STOP ADDMOD EQ STOP CALLER 0x2F DUP8 DUP9 GT PUSH31 0x7EFF1D82E926EC794901D17C78024A50270940304540A733656F0D00000000 "},"methodIdentifiers":{"ADMIN_ROLE()":"75b238fc","DEFAULT_ADMIN_ROLE()":"a217fddf","MINTER_ROLE()":"d5391393","approve(address,uint256)":"095ea7b3","balanceOf(address)":"70a08231","calculateSGPA((string,string,string,uint256,string,uint256)[])":"a6f569fc","certificates(uint256)":"663b3e22","getApproved(uint256)":"081812fc","getCertificateData(uint256)":"31494bbb","getRoleAdmin(bytes32)":"248a9ca3","getSemesterCertificate(uint256)":"f31a9d17","getStudentCertificates(address)":"ebc63bc0","getStudentSemesterCertificates(address)":"3b01aa48","grantRole(bytes32,address)":"2f2ff15d","hasRole(bytes32,address)":"91d14854","isApprovedForAll(address,address)":"e985e9c5","isMemoNumberUsed(string)":"2b0ec45e","isSerialNumberUsed(string)":"de7c3a39","mintCertificate(address,string,string,string)":"929c01fd","mintSemesterCertificate(address,string,string,(string,string,string,string,string,string,string,string,string,(string,string,string,uint256,string,uint256)[],uint256,uint256,string,uint256,address,bool))":"4055e0e1","name()":"06fdde03","ownerOf(uint256)":"6352211e","pause()":"8456cb59","paused()":"5c975abb","renounceRole(bytes32,address)":"36568abe","revokeCertificate(uint256)":"06f5497e","revokeRole(bytes32,address)":"d547741f","revokeSemesterCertificate(uint256)":"2b62a74c","safeTransferFrom(address,address,uint256)":"42842e0e","safeTransferFrom(address,address,uint256,bytes)":"b88d4fde","semesterCertificates(uint256)":"5153a7d2","setApprovalForAll(address,bool)":"a22cb465","setBaseURI(string)":"55f804b3","studentCertificates(address,uint256)":"c3934f0e","studentSemesterCerts(address,uint256)":"b8dcf6c8","supportsInterface(bytes4)":"01ffc9a7","symbol()":"95d89b41","tokenURI(uint256)":"c87b56dd","transferFrom(address,address,uint256)":"23b872dd","unpause()":"3f4ba83a","updateCertificateDetails(uint256,string,string)":"9d093afa","updateSemesterCertificatePhoto(uint256,string)":"20d993b7","usedHashes(string)":"bd1f5f31","usedMemoNumbers(string)":"234f8d67","usedSerialNumbers(string)":"1f7ca144","verifyCertificate(uint256)":"1692a942","verifySemesterCertificate(uint256)":"fe8aa2c5"}}}}}