{
  "_format": "hh-sol-artifact-1",
  "contractName": "ScholarshipEscrow",
  "sourceName": "contracts/ScholarshipEscrow.sol",
  "abi": [
    {
      "inputs": [
        {
          "internalType": "address",
          "name": "_certificateNFT",
          "type": "address"
        }
      ],
      "stateMutability": "nonpayable",
      "type": "constructor"
    },
    {
      "inputs": [],
      "name": "AccessControlBadConfirmation",
      "type": "error"
    },
    {
      "inputs": [
        {
          "internalType": "address",
          "name": "account",
          "type": "address"
        },
        {
          "internalType": "bytes32",
          "name": "neededRole",
          "type": "bytes32"
        }
      ],
      "name": "AccessControlUnauthorizedAccount",
      "type": "error"
    },
    {
      "inputs": [],
      "name": "EnforcedPause",
      "type": "error"
    },
    {
      "inputs": [],
      "name": "ExpectedPause",
      "type": "error"
    },
    {
      "inputs": [],
      "name": "ReentrancyGuardReentrantCall",
      "type": "error"
    },
    {
      "anonymous": false,
      "inputs": [
        {
          "indexed": true,
          "internalType": "address",
          "name": "depositor",
          "type": "address"
        },
        {
          "indexed": false,
          "internalType": "uint256",
          "name": "amount",
          "type": "uint256"
        },
        {
          "indexed": false,
          "internalType": "uint256",
          "name": "timestamp",
          "type": "uint256"
        }
      ],
      "name": "FundsDeposited",
      "type": "event"
    },
    {
      "anonymous": false,
      "inputs": [
        {
          "indexed": true,
          "internalType": "address",
          "name": "admin",
          "type": "address"
        },
        {
          "indexed": false,
          "internalType": "uint256",
          "name": "amount",
          "type": "uint256"
        },
        {
          "indexed": false,
          "internalType": "uint256",
          "name": "timestamp",
          "type": "uint256"
        }
      ],
      "name": "FundsWithdrawn",
      "type": "event"
    },
    {
      "anonymous": false,
      "inputs": [
        {
          "indexed": false,
          "internalType": "address",
          "name": "account",
          "type": "address"
        }
      ],
      "name": "Paused",
      "type": "event"
    },
    {
      "anonymous": false,
      "inputs": [
        {
          "indexed": true,
          "internalType": "bytes32",
          "name": "role",
          "type": "bytes32"
        },
        {
          "indexed": true,
          "internalType": "bytes32",
          "name": "previousAdminRole",
          "type": "bytes32"
        },
        {
          "indexed": true,
          "internalType": "bytes32",
          "name": "newAdminRole",
          "type": "bytes32"
        }
      ],
      "name": "RoleAdminChanged",
      "type": "event"
    },
    {
      "anonymous": false,
      "inputs": [
        {
          "indexed": true,
          "internalType": "bytes32",
          "name": "role",
          "type": "bytes32"
        },
        {
          "indexed": true,
          "internalType": "address",
          "name": "account",
          "type": "address"
        },
        {
          "indexed": true,
          "internalType": "address",
          "name": "sender",
          "type": "address"
        }
      ],
      "name": "RoleGranted",
      "type": "event"
    },
    {
      "anonymous": false,
      "inputs": [
        {
          "indexed": true,
          "internalType": "bytes32",
          "name": "role",
          "type": "bytes32"
        },
        {
          "indexed": true,
          "internalType": "address",
          "name": "account",
          "type": "address"
        },
        {
          "indexed": true,
          "internalType": "address",
          "name": "sender",
          "type": "address"
        }
      ],
      "name": "RoleRevoked",
      "type": "event"
    },
    {
      "anonymous": false,
      "inputs": [
        {
          "indexed": true,
          "internalType": "uint256",
          "name": "scholarshipId",
          "type": "uint256"
        },
        {
          "indexed": true,
          "internalType": "address",
          "name": "student",
          "type": "address"
        },
        {
          "indexed": false,
          "internalType": "uint256",
          "name": "amount",
          "type": "uint256"
        },
        {
          "indexed": false,
          "internalType": "uint256",
          "name": "timestamp",
          "type": "uint256"
        }
      ],
      "name": "ScholarshipClaimed",
      "type": "event"
    },
    {
      "anonymous": false,
      "inputs": [
        {
          "indexed": true,
          "internalType": "uint256",
          "name": "scholarshipId",
          "type": "uint256"
        },
        {
          "indexed": false,
          "internalType": "string",
          "name": "name",
          "type": "string"
        },
        {
          "indexed": false,
          "internalType": "uint256",
          "name": "totalAmount",
          "type": "uint256"
        },
        {
          "indexed": false,
          "internalType": "uint256",
          "name": "maxRecipients",
          "type": "uint256"
        },
        {
          "indexed": false,
          "internalType": "uint256",
          "name": "deadline",
          "type": "uint256"
        },
        {
          "indexed": false,
          "internalType": "uint256",
          "name": "timestamp",
          "type": "uint256"
        }
      ],
      "name": "ScholarshipCreated",
      "type": "event"
    },
    {
      "anonymous": false,
      "inputs": [
        {
          "indexed": true,
          "internalType": "uint256",
          "name": "scholarshipId",
          "type": "uint256"
        },
        {
          "indexed": true,
          "internalType": "address",
          "name": "admin",
          "type": "address"
        },
        {
          "indexed": false,
          "internalType": "uint256",
          "name": "timestamp",
          "type": "uint256"
        }
      ],
      "name": "ScholarshipRevoked",
      "type": "event"
    },
    {
      "anonymous": false,
      "inputs": [
        {
          "indexed": false,
          "internalType": "address",
          "name": "account",
          "type": "address"
        }
      ],
      "name": "Unpaused",
      "type": "event"
    },
    {
      "inputs": [],
      "name": "ADMIN_ROLE",
      "outputs": [
        {
          "internalType": "bytes32",
          "name": "",
          "type": "bytes32"
        }
      ],
      "stateMutability": "view",
      "type": "function"
    },
    {
      "inputs": [],
      "name": "DEFAULT_ADMIN_ROLE",
      "outputs": [
        {
          "internalType": "bytes32",
          "name": "",
          "type": "bytes32"
        }
      ],
      "stateMutability": "view",
      "type": "function"
    },
    {
      "inputs": [],
      "name": "SCHOLARSHIP_MANAGER_ROLE",
      "outputs": [
        {
          "internalType": "bytes32",
          "name": "",
          "type": "bytes32"
        }
      ],
      "stateMutability": "view",
      "type": "function"
    },
    {
      "inputs": [],
      "name": "certificateNFT",
      "outputs": [
        {
          "internalType": "contract CertificateNFT",
          "name": "",
          "type": "address"
        }
      ],
      "stateMutability": "view",
      "type": "function"
    },
    {
      "inputs": [
        {
          "internalType": "address",
          "name": "student",
          "type": "address"
        },
        {
          "internalType": "string[]",
          "name": "requiredCourses",
          "type": "string[]"
        },
        {
          "internalType": "bool",
          "name": "requiresAll",
          "type": "bool"
        }
      ],
      "name": "checkCourseRequirements",
      "outputs": [
        {
          "internalType": "bool",
          "name": "",
          "type": "bool"
        }
      ],
      "stateMutability": "view",
      "type": "function"
    },
    {
      "inputs": [
        {
          "internalType": "address",
          "name": "student",
          "type": "address"
        },
        {
          "internalType": "string[]",
          "name": "allowedDepartments",
          "type": "string[]"
        }
      ],
      "name": "checkDepartmentRequirement",
      "outputs": [
        {
          "internalType": "bool",
          "name": "",
          "type": "bool"
        }
      ],
      "stateMutability": "view",
      "type": "function"
    },
    {
      "inputs": [
        {
          "internalType": "address",
          "name": "student",
          "type": "address"
        },
        {
          "internalType": "uint256",
          "name": "enrollmentAfter",
          "type": "uint256"
        },
        {
          "internalType": "uint256",
          "name": "enrollmentBefore",
          "type": "uint256"
        }
      ],
      "name": "checkEnrollmentRequirement",
      "outputs": [
        {
          "internalType": "bool",
          "name": "",
          "type": "bool"
        }
      ],
      "stateMutability": "view",
      "type": "function"
    },
    {
      "inputs": [
        {
          "internalType": "uint256",
          "name": "scholarshipId",
          "type": "uint256"
        }
      ],
      "name": "claimScholarship",
      "outputs": [],
      "stateMutability": "nonpayable",
      "type": "function"
    },
    {
      "inputs": [
        {
          "internalType": "string",
          "name": "name",
          "type": "string"
        },
        {
          "internalType": "string",
          "name": "description",
          "type": "string"
        },
        {
          "internalType": "uint256",
          "name": "totalAmount",
          "type": "uint256"
        },
        {
          "internalType": "uint256",
          "name": "maxRecipients",
          "type": "uint256"
        },
        {
          "internalType": "uint256",
          "name": "deadline",
          "type": "uint256"
        },
        {
          "internalType": "address",
          "name": "tokenAddress",
          "type": "address"
        },
        {
          "internalType": "string",
          "name": "tokenSymbol",
          "type": "string"
        },
        {
          "components": [
            {
              "internalType": "uint256",
              "name": "minGPA",
              "type": "uint256"
            },
            {
              "internalType": "string[]",
              "name": "requiredCourses",
              "type": "string[]"
            },
            {
              "internalType": "string[]",
              "name": "allowedDepartments",
              "type": "string[]"
            },
            {
              "internalType": "uint256",
              "name": "minCertificates",
              "type": "uint256"
            },
            {
              "internalType": "uint256",
              "name": "enrollmentAfter",
              "type": "uint256"
            },
            {
              "internalType": "uint256",
              "name": "enrollmentBefore",
              "type": "uint256"
            },
            {
              "internalType": "bool",
              "name": "requiresAllCourses",
              "type": "bool"
            }
          ],
          "internalType": "struct ScholarshipEscrow.EligibilityCriteria",
          "name": "criteria",
          "type": "tuple"
        }
      ],
      "name": "createScholarship",
      "outputs": [
        {
          "internalType": "uint256",
          "name": "",
          "type": "uint256"
        }
      ],
      "stateMutability": "payable",
      "type": "function"
    },
    {
      "inputs": [],
      "name": "depositFunds",
      "outputs": [],
      "stateMutability": "payable",
      "type": "function"
    },
    {
      "inputs": [],
      "name": "getContractBalance",
      "outputs": [
        {
          "internalType": "uint256",
          "name": "",
          "type": "uint256"
        }
      ],
      "stateMutability": "view",
      "type": "function"
    },
    {
      "inputs": [
        {
          "internalType": "bytes32",
          "name": "role",
          "type": "bytes32"
        }
      ],
      "name": "getRoleAdmin",
      "outputs": [
        {
          "internalType": "bytes32",
          "name": "",
          "type": "bytes32"
        }
      ],
      "stateMutability": "view",
      "type": "function"
    },
    {
      "inputs": [
        {
          "internalType": "uint256",
          "name": "scholarshipId",
          "type": "uint256"
        }
      ],
      "name": "getScholarship",
      "outputs": [
        {
          "components": [
            {
              "internalType": "string",
              "name": "name",
              "type": "string"
            },
            {
              "internalType": "string",
              "name": "description",
              "type": "string"
            },
            {
              "internalType": "uint256",
              "name": "totalAmount",
              "type": "uint256"
            },
            {
              "internalType": "uint256",
              "name": "claimedAmount",
              "type": "uint256"
            },
            {
              "internalType": "uint256",
              "name": "remainingAmount",
              "type": "uint256"
            },
            {
              "internalType": "uint256",
              "name": "maxRecipients",
              "type": "uint256"
            },
            {
              "internalType": "uint256",
              "name": "amountPerRecipient",
              "type": "uint256"
            },
            {
              "internalType": "uint256",
              "name": "createdAt",
              "type": "uint256"
            },
            {
              "internalType": "uint256",
              "name": "deadline",
              "type": "uint256"
            },
            {
              "internalType": "bool",
              "name": "isActive",
              "type": "bool"
            },
            {
              "internalType": "address",
              "name": "createdBy",
              "type": "address"
            },
            {
              "internalType": "address",
              "name": "tokenAddress",
              "type": "address"
            },
            {
              "internalType": "string",
              "name": "tokenSymbol",
              "type": "string"
            }
          ],
          "internalType": "struct ScholarshipEscrow.Scholarship",
          "name": "",
          "type": "tuple"
        }
      ],
      "stateMutability": "view",
      "type": "function"
    },
    {
      "inputs": [
        {
          "internalType": "address",
          "name": "student",
          "type": "address"
        }
      ],
      "name": "getStudentScholarships",
      "outputs": [
        {
          "internalType": "uint256[]",
          "name": "",
          "type": "uint256[]"
        }
      ],
      "stateMutability": "view",
      "type": "function"
    },
    {
      "inputs": [
        {
          "internalType": "address",
          "name": "student",
          "type": "address"
        }
      ],
      "name": "getTotalClaimed",
      "outputs": [
        {
          "internalType": "uint256",
          "name": "",
          "type": "uint256"
        }
      ],
      "stateMutability": "view",
      "type": "function"
    },
    {
      "inputs": [
        {
          "internalType": "bytes32",
          "name": "role",
          "type": "bytes32"
        },
        {
          "internalType": "address",
          "name": "account",
          "type": "address"
        }
      ],
      "name": "grantRole",
      "outputs": [],
      "stateMutability": "nonpayable",
      "type": "function"
    },
    {
      "inputs": [
        {
          "internalType": "bytes32",
          "name": "role",
          "type": "bytes32"
        },
        {
          "internalType": "address",
          "name": "account",
          "type": "address"
        }
      ],
      "name": "hasRole",
      "outputs": [
        {
          "internalType": "bool",
          "name": "",
          "type": "bool"
        }
      ],
      "stateMutability": "view",
      "type": "function"
    },
    {
      "inputs": [
        {
          "internalType": "uint256",
          "name": "scholarshipId",
          "type": "uint256"
        },
        {
          "internalType": "address",
          "name": "student",
          "type": "address"
        }
      ],
      "name": "isEligibleForScholarship",
      "outputs": [
        {
          "internalType": "bool",
          "name": "",
          "type": "bool"
        }
      ],
      "stateMutability": "view",
      "type": "function"
    },
    {
      "inputs": [],
      "name": "pause",
      "outputs": [],
      "stateMutability": "nonpayable",
      "type": "function"
    },
    {
      "inputs": [],
      "name": "paused",
      "outputs": [
        {
          "internalType": "bool",
          "name": "",
          "type": "bool"
        }
      ],
      "stateMutability": "view",
      "type": "function"
    },
    {
      "inputs": [
        {
          "internalType": "bytes32",
          "name": "role",
          "type": "bytes32"
        },
        {
          "internalType": "address",
          "name": "callerConfirmation",
          "type": "address"
        }
      ],
      "name": "renounceRole",
      "outputs": [],
      "stateMutability": "nonpayable",
      "type": "function"
    },
    {
      "inputs": [
        {
          "internalType": "bytes32",
          "name": "role",
          "type": "bytes32"
        },
        {
          "internalType": "address",
          "name": "account",
          "type": "address"
        }
      ],
      "name": "revokeRole",
      "outputs": [],
      "stateMutability": "nonpayable",
      "type": "function"
    },
    {
      "inputs": [
        {
          "internalType": "uint256",
          "name": "scholarshipId",
          "type": "uint256"
        }
      ],
      "name": "revokeScholarship",
      "outputs": [],
      "stateMutability": "nonpayable",
      "type": "function"
    },
    {
      "inputs": [
        {
          "internalType": "uint256",
          "name": "",
          "type": "uint256"
        },
        {
          "internalType": "address",
          "name": "",
          "type": "address"
        }
      ],
      "name": "scholarshipClaims",
      "outputs": [
        {
          "internalType": "bool",
          "name": "",
          "type": "bool"
        }
      ],
      "stateMutability": "view",
      "type": "function"
    },
    {
      "inputs": [
        {
          "internalType": "uint256",
          "name": "",
          "type": "uint256"
        }
      ],
      "name": "scholarshipCriteria",
      "outputs": [
        {
          "internalType": "uint256",
          "name": "minGPA",
          "type": "uint256"
        },
        {
          "internalType": "uint256",
          "name": "minCertificates",
          "type": "uint256"
        },
        {
          "internalType": "uint256",
          "name": "enrollmentAfter",
          "type": "uint256"
        },
        {
          "internalType": "uint256",
          "name": "enrollmentBefore",
          "type": "uint256"
        },
        {
          "internalType": "bool",
          "name": "requiresAllCourses",
          "type": "bool"
        }
      ],
      "stateMutability": "view",
      "type": "function"
    },
    {
      "inputs": [
        {
          "internalType": "uint256",
          "name": "",
          "type": "uint256"
        }
      ],
      "name": "scholarships",
      "outputs": [
        {
          "internalType": "string",
          "name": "name",
          "type": "string"
        },
        {
          "internalType": "string",
          "name": "description",
          "type": "string"
        },
        {
          "internalType": "uint256",
          "name": "totalAmount",
          "type": "uint256"
        },
        {
          "internalType": "uint256",
          "name": "claimedAmount",
          "type": "uint256"
        },
        {
          "internalType": "uint256",
          "name": "remainingAmount",
          "type": "uint256"
        },
        {
          "internalType": "uint256",
          "name": "maxRecipients",
          "type": "uint256"
        },
        {
          "internalType": "uint256",
          "name": "amountPerRecipient",
          "type": "uint256"
        },
        {
          "internalType": "uint256",
          "name": "createdAt",
          "type": "uint256"
        },
        {
          "internalType": "uint256",
          "name": "deadline",
          "type": "uint256"
        },
        {
          "internalType": "bool",
          "name": "isActive",
          "type": "bool"
        },
        {
          "internalType": "address",
          "name": "createdBy",
          "type": "address"
        },
        {
          "internalType": "address",
          "name": "tokenAddress",
          "type": "address"
        },
        {
          "internalType": "string",
          "name": "tokenSymbol",
          "type": "string"
        }
      ],
      "stateMutability": "view",
      "type": "function"
    },
    {
      "inputs": [
        {
          "internalType": "address",
          "name": "",
          "type": "address"
        },
        {
          "internalType": "uint256",
          "name": "",
          "type": "uint256"
        }
      ],
      "name": "studentScholarships",
      "outputs": [
        {
          "internalType": "uint256",
          "name": "",
          "type": "uint256"
        }
      ],
      "stateMutability": "view",
      "type": "function"
    },
    {
      "inputs": [
        {
          "internalType": "bytes4",
          "name": "interfaceId",
          "type": "bytes4"
        }
      ],
      "name": "supportsInterface",
      "outputs": [
        {
          "internalType": "bool",
          "name": "",
          "type": "bool"
        }
      ],
      "stateMutability": "view",
      "type": "function"
    },
    {
      "inputs": [
        {
          "internalType": "address",
          "name": "",
          "type": "address"
        }
      ],
      "name": "totalClaimed",
      "outputs": [
        {
          "internalType": "uint256",
          "name": "",
          "type": "uint256"
        }
      ],
      "stateMutability": "view",
      "type": "function"
    },
    {
      "inputs": [],
      "name": "unpause",
      "outputs": [],
      "stateMutability": "nonpayable",
      "type": "function"
    },
    {
      "inputs": [
        {
          "internalType": "uint256",
          "name": "amount",
          "type": "uint256"
        }
      ],
      "name": "withdrawFunds",
      "outputs": [],
      "stateMutability": "nonpayable",
      "type": "function"
    },
    {
      "stateMutability": "payable",
      "type": "receive"
    }
  ],
  "bytecode": "0x608034620000ab57601f62002f3d38819003918201601f19168301916001600160401b03831184841017620000b057808492602094604052833981010312620000ab57516001600160a01b03811690819003620000ab576001805460ff191681556002556200006e33620000c6565b506200007a3362000146565b506200008633620001e8565b50600980546001600160a01b031916919091179055604051612c979081620002868239f35b600080fd5b634e487b7160e01b600052604160045260246000fd5b6001600160a01b031660008181527fad3228b676f7d3cd4284a5443f17f1962b36e491b30a40b2405849e597ba5fb5602052604081205490919060ff166200014257818052816020526040822081835260205260408220600160ff19825416179055339160008051602062002f1d8339815191528180a4600190565b5090565b6001600160a01b031660008181527f7d7ffb7a348e1c6a02869081a26547b49160dd3df72d1d75a570eb9b698292ec60205260408120549091907fa49807205ce4d355092ef5a8a18f56e8913cf4a201fbe287825b095693c217759060ff16620001e357808352826020526040832082845260205260408320600160ff1982541617905560008051602062002f1d833981519152339380a4600190565b505090565b6001600160a01b031660008181527f2be4733a403b4fa43fe419b79f643ea84b696c2296fa963fa7ae1e04f197984460205260408120549091907f10611feacf75d15e8cdab75bab566e5fa2cfa0efaea1e2ce4eddab65ac96f5a29060ff16620001e357808352826020526040832082845260205260408320600160ff1982541617905560008051602062002f1d833981519152339380a460019056fe608080604052600436101561004f575b50361561001b57600080fd5b6040513481524260208201527fbee4fe3675934fca827426c793623996a3079255089bda3a717019ffc5db276560403392a2005b60003560e01c90816301ffc9a714611da0575080630d7bd1d814611d7a578063155dd5ee14611c6c578063248a9ca314611c3d5780632f2ff15d14611bfe57806334e617a11461175857806336568abe146116f957806339dc58c6146115fd5780633b71498a146115c25780633f4ba83a14611540578063522bf1d4146101b15780635243a69e146108bc5780635c975abb146108995780636f9fb98a1461087d5780637322333c1461082757806375b238fc146107ec57806381336d0c146107385780638456cb59146106df5780638a8642161461069a57806391aec72a1461067357806391d14854146106255780639e1d1d02146105d7578063a217fddf146105bb578063a3bf4f4c146103a4578063a703178f14610347578063d547741f14610306578063dd51875014610296578063e2c41dbc14610277578063e51735911461024c578063ebd347ec146101f05763ef5d9ae8146101b1573861000f565b346101eb5760203660031901126101eb576001600160a01b036101d2611e54565b1660005260066020526020604060002054604051908152f35b600080fd5b346101eb5760603660031901126101eb57610209611e54565b60243567ffffffffffffffff81116101eb57610229903690600401612068565b9060443580151581036101eb576020926102429261275d565b6040519015158152f35b346101eb5760603660031901126101eb57602061024261026a611e54565b6044359060243590612b5f565b60003660031901126101eb5761028b6122ff565b61001b34151561228e565b346101eb5760203660031901126101eb576004356102b2612117565b806000526004602052600960406000200180546102d160ff8216612335565b60ff19169055604051904282527ff26427fe718f7a208b96aa3006e1f4bfb0ae8ab9934ec808c98fd863ff47d99560203393a3005b346101eb5760403660031901126101eb57610345600435610325611e3e565b90806000526000602052610340600160406000200154612173565b612218565b005b346101eb5760203660031901126101eb57600435600052600860205260a06040600020805490600381015490600481015460ff60066005840154930154169260405194855260208501526040840152606083015215156080820152f35b346101eb5760203660031901126101eb5760606101806040516103c681611ec0565b8281528260208201526000604082015260008382015260006080820152600060a0820152600060c0820152600060e08201526000610100820152600061012082015260006101408201526000610160820152015260043560005260046020526105b760406000206104df600b6040519261043f84611ec0565b61044881611eff565b845261045660018201611eff565b6020850152600281015460408501526003810154606085015260048101546080850152600581015460a0850152600681015460c0850152600781015460e085015260088101546101008501526001600160a01b03600982015460ff8116151561012087015260081c166101408501526001600160a01b03600a8201541661016085015201611eff565b6101808201526040519182916020835261018061052361050d83516101a060208801526101c0870190611fc8565b6020840151868203601f19016040880152611fc8565b916040810151606086015260608101516080860152608081015160a086015260a081015160c086015260c081015160e086015260e081015161010086015261010081015161012086015261012081015115156101408601526001600160a01b03610140820151166101608601526001600160a01b0361016082015116828601520151601f19848303016101a0850152611fc8565b0390f35b346101eb5760003660031901126101eb57602060405160008152f35b346101eb5760403660031901126101eb576105f0611e3e565b60043560005260076020526001600160a01b0360406000209116600052602052602060ff604060002054166040519015158152f35b346101eb5760403660031901126101eb5761063e611e3e565b60043560005260006020526001600160a01b0360406000209116600052602052602060ff604060002054166040519015158152f35b346101eb5760003660031901126101eb5760206001600160a01b0360095416604051908152f35b346101eb5760403660031901126101eb576106b3611e54565b60243567ffffffffffffffff81116101eb576020916106d9610242923690600401612068565b906129f9565b346101eb5760003660031901126101eb576106f8612117565b6107006122ff565b600160ff19815416176001557f62e78cea01bee320cd4e420270b5ea74000d11b0c9f74754ebdbfc544b05a2586020604051338152a1005b346101eb576020806003193601126101eb576001600160a01b0361075a611e54565b1660005260058152604060002060405190818382549182815201908192600052846000209060005b868282106107d857868661079882880383611edd565b604051928392818401908285525180915260408401929160005b8281106107c157505050500390f35b8351855286955093810193928101926001016107b2565b835485529093019260019283019201610782565b346101eb5760003660031901126101eb5760206040517fa49807205ce4d355092ef5a8a18f56e8913cf4a201fbe287825b095693c217758152f35b346101eb5760403660031901126101eb57610840611e54565b6001600160a01b0360243591166000526005602052604060002080548210156101eb5760209161086f916120e9565b90546040519160031b1c8152f35b346101eb5760003660031901126101eb57602047604051908152f35b346101eb5760003660031901126101eb57602060ff600154166040519015158152f35b600319610100368201126101eb5760043567ffffffffffffffff81116101eb576108ea903690600401612009565b9060243567ffffffffffffffff81116101eb5761090b903690600401612009565b9060a435916001600160a01b03831683036101eb5760c43567ffffffffffffffff81116101eb57610940903690600401612009565b9167ffffffffffffffff60e435116101eb5760e09060e435360301126101eb576040519161096d83611ea4565b60e435600401358352602460e435013567ffffffffffffffff81116101eb5761099e906004369160e4350101612068565b602084015267ffffffffffffffff604460e4350135116101eb576109cd3660e435604481013501600401612068565b604084015260e435606481013560608501526084810135608085015260a481013560a085015260c4013580151590036101eb5760e43560c4013560c08401523360009081527f2be4733a403b4fa43fe419b79f643ea84b696c2296fa963fa7ae1e04f197984460205260409020547f10611feacf75d15e8cdab75bab566e5fa2cfa0efaea1e2ce4eddab65ac96f5a29060ff16156115095750610a6e6122ff565b610a7b604435151561228e565b6064351561149f5742608435111561145b57845115611417576001600160a01b038416156113c9575b6001600160a01b03610ab76003546122d9565b948560035560405193610ac985611ec0565b8785526020850152604435604085015260006060850152604435608085015260643560a08501526064356044350460c08501524260e085015260843561010085015260016101208501523361014085015216610160830152610180820152826000526004602052604060002090805180519067ffffffffffffffff8211610fa0578190610b568554611e6a565b601f8111611397575b50602090601f831160011461132b57600092611320575b50508160011b916000199060031b1c19161782555b602081015180519067ffffffffffffffff8211610fa057610baf6001850154611e6a565b601f81116112eb575b50602090601f8311600114611277576101809392916000918361126c575b50508160011b916000199060031b1c19161760018401555b60408101516002840155606081015160038401556080810151600484015560a0810151600584015560c0810151600684015560e08101516007840155610100810151600884015560098301610c566101208301511515829060ff801983541691151516179055565b6101408201517fffffffffffffffffffffff0000000000000000000000000000000000000000ff74ffffffffffffffffffffffffffffffffffffffff0083549260081b169116179055600a83016001600160a01b03610160830151167fffffffffffffffffffffffff0000000000000000000000000000000000000000825416179055015180519067ffffffffffffffff8211610fa057610cfa600b840154611e6a565b601f8111611237575b50602090601f83116001146111c757600b9291600091836111bc575b50508160011b916000199060031b1c1916179101555b816000526008602052604060002090805182556020810151805190680100000000000000008211610fa0576001840154826001860155808310611144575b5060200190600184016000526020600020916000905b82821061102e57505050506040810151805190680100000000000000008211610fa0576002840154826002860155808310610fb6575b5060200190600284016000526020600020916000905b828210610e7f57602087807ffb7d30f4038456fa76a49e3e268621c565e0e045b6e0f73e0b82d5914f82115a610e578c610e438c600660c08e606081015160038501556080810151600485015560a081015160058501550151151591019060ff801983541691151516179055565b60405191829160a0835260a0830190611fc8565b60443587830152606435604083015260843560608301524260808301520390a2604051908152f35b805180519067ffffffffffffffff8211610fa057610e9d8654611e6a565b601f8111610f63575b50602090601f8311600114610ef3579282600194936020938695600092610ee8575b5050600019600383901b1c191690841b1787555b01940191019092610dd5565b015190508d80610ec8565b908660005260206000209160005b601f1985168110610f4b575083602093600196938796938794601f19811610610f32575b505050811b018755610edc565b015160001960f88460031b161c191690558d8080610f25565b91926020600181928685015181550194019201610f01565b610f9090876000526020600020601f850160051c81019160208610610f96575b601f0160051c01906122e8565b8a610ea6565b9091508190610f83565b634e487b7160e01b600052604160045260246000fd5b600285016000526020600020908382015b8183018110610fd7575050610dbf565b80610fe460019254611e6a565b80610ff1575b5001610fc7565b601f811183146110075750600081555b8a610fea565b600090828252611025601f60208420920160051c82018583016122e8565b81835555611001565b805180519067ffffffffffffffff8211610fa05761104c8654611e6a565b601f8111611112575b50602090601f83116001146110a2579282600194936020938695600092611097575b5050600019600383901b1c191690841b1787555b01940191019092610d89565b015190508d80611077565b908660005260206000209160005b601f19851681106110fa575083602093600196938796938794601f198116106110e1575b505050811b01875561108b565b015160001960f88460031b161c191690558d80806110d4565b919260206001819286850151815501940192016110b0565b61113e90876000526020600020601f850160051c81019160208610610f9657601f0160051c01906122e8565b8a611055565b600185016000526020600020908382015b8183018110611165575050610d73565b8061117260019254611e6a565b8061117f575b5001611155565b601f811183146111955750600081555b8a611178565b6000908282526111b3601f60208420920160051c82018583016122e8565b8183555561118f565b015190508780610d1f565b90600b840160005260206000209160005b601f198516811061121f5750918391600193600b95601f19811610611206575b505050811b01910155610d35565b015160001960f88460031b161c191690558780806111f8565b919260206001819286850151815501940192016111d8565b61126690600b85016000526020600020601f850160051c81019160208610610f9657601f0160051c01906122e8565b86610d03565b015190508880610bd6565b906001850160005260206000209160005b601f19851681106112d357509183916001936101809695601f198116106112ba575b505050811b016001840155610bee565b015160001960f88460031b161c191690558880806112aa565b91926020600181928685015181550194019201611288565b61131a90600186016000526020600020601f850160051c81019160208610610f9657601f0160051c01906122e8565b87610bb8565b015190508780610b76565b9250846000526020600020906000935b601f198416851061137c576001945083601f19811610611363575b505050811b018255610b8b565b015160001960f88460031b161c19169055878080611356565b8181015183556020948501946001909301929091019061133b565b6113c390866000526020600020601f850160051c81019160208610610f9657601f0160051c01906122e8565b88610b5f565b604435341015610aa457606460405162461bcd60e51b815260206004820152601560248201527f496e73756666696369656e74204554482073656e7400000000000000000000006044820152fd5b606460405162461bcd60e51b815260206004820152601460248201527f4e616d652063616e6e6f7420626520656d7074790000000000000000000000006044820152fd5b606460405162461bcd60e51b815260206004820152601e60248201527f446561646c696e65206d75737420626520696e207468652066757475726500006044820152fd5b608460405162461bcd60e51b815260206004820152602560248201527f4d617820726563697069656e7473206d7573742062652067726561746572207460448201527f68616e20300000000000000000000000000000000000000000000000000000006064820152fd5b604490604051907fe2517d3f0000000000000000000000000000000000000000000000000000000082523360048301526024820152fd5b346101eb5760003660031901126101eb57611559612117565b60015460ff8116156115985760ff19166001557f5db9ee0a495bf2e6ff9c91a7834c1ba4fdd244a5e8aa4e537bd38aeae4b073aa6020604051338152a1005b60046040517f8dfc202b000000000000000000000000000000000000000000000000000000008152fd5b346101eb5760003660031901126101eb5760206040517f10611feacf75d15e8cdab75bab566e5fa2cfa0efaea1e2ce4eddab65ac96f5a28152f35b346101eb5760203660031901126101eb576004356000526004602052604060002061162781611eff565b61163360018301611eff565b91600281015460038201549160048101546005820154600683015460078401546008850154916009860154936001600160a01b039586600a8901541697600b0161167c90611eff565b996040519c8d9c8d6101a0908181520161169591611fc8565b8d810360208f01526116a691611fc8565b9960408d015260608c015260808b015260a08a015260c089015260e088015261010087015260ff8116151561012087015260081c166101408501526101608401528281036101808401526105b791611fc8565b346101eb5760403660031901126101eb57611712611e3e565b336001600160a01b0382160361172e5761034590600435612218565b60046040517f6697b232000000000000000000000000000000000000000000000000000000008152fd5b346101eb576020806003193601126101eb576004356117756122ff565b61177d6123bd565b80600052600482526040600020916009830161179c60ff825416612335565b60088401544211611bba578260005260078252604060002033600052825260ff60406000205416611b7757600484018054948515611b335760038101928354600283019081541115611aef576117f233886124c5565b15611a85576006830154978811611a41578660005260078652604060002033600052865260406000209060ff1991600183825416179055611834898754612380565b80965584549589870395878711611a2b576001600160a01b0397600a978c925514918215611a1f575b5050611a13575b50500154166119a95782471061196557600080808086335af161188561238d565b501561192157336000526006815260406000206118a3848254612380565b905533600052600581526040600020805468010000000000000000811015610fa0576118d4916001820181556120e9565b81549060031b9084821b91600019901b191617905560405192835242908301527fe42aa83ab8ca2f75461639b0a68d5ff14dfc3af23e4bc1a67a945c7c16b620dd60403393a36001600255005b6064906040519062461bcd60e51b82526004820152601360248201527f455448207472616e73666572206661696c6564000000000000000000000000006044820152fd5b6064906040519062461bcd60e51b82526004820152601d60248201527f496e73756666696369656e7420636f6e74726163742062616c616e63650000006044820152fd5b6084906040519062461bcd60e51b82526004820152602360248201527f4552433230207472616e7366657273206e6f742079657420696d706c656d656e60448201527f74656400000000000000000000000000000000000000000000000000000000006064820152fd5b81541690558680611864565b5411159050898061185d565b634e487b7160e01b600052601160045260246000fd5b6064866040519062461bcd60e51b82526004820152601c60248201527f496e73756666696369656e742066756e647320666f7220636c61696d000000006044820152fd5b6084866040519062461bcd60e51b82526004820152602960248201527f53747564656e74206e6f7420656c696769626c6520666f72207468697320736360448201527f686f6c61727368697000000000000000000000000000000000000000000000006064820152fd5b6064866040519062461bcd60e51b82526004820152601960248201527f5363686f6c6172736869702066756c6c7920636c61696d6564000000000000006044820152fd5b6064846040519062461bcd60e51b82526004820152601260248201527f4e6f2066756e64732072656d61696e696e6700000000000000000000000000006044820152fd5b6064826040519062461bcd60e51b825280600483015260248201527f416c726561647920636c61696d65642074686973207363686f6c6172736869706044820152fd5b6064826040519062461bcd60e51b82526004820152601f60248201527f5363686f6c61727368697020646561646c696e652068617320706173736564006044820152fd5b346101eb5760403660031901126101eb57610345600435611c1d611e3e565b90806000526000602052611c38600160406000200154612173565b612199565b346101eb5760203660031901126101eb5760043560005260006020526020600160406000200154604051908152f35b346101eb5760203660031901126101eb57600435611c88612117565b611c906123bd565b478111611d3657611ca281151561228e565b600080808084335af1611cb361238d565b5015611cf2576040519081524260208201527ffbc3a599b784fe88772fc5abcc07223f64ca0b13acc341f4fb1e46bef0510eb460403392a26001600255005b606460405162461bcd60e51b815260206004820152600f60248201527f5472616e73666572206661696c656400000000000000000000000000000000006044820152fd5b606460405162461bcd60e51b815260206004820152601460248201527f496e73756666696369656e742062616c616e63650000000000000000000000006044820152fd5b346101eb5760403660031901126101eb576020610242611d98611e3e565b6004356124c5565b346101eb5760203660031901126101eb57600435907fffffffff0000000000000000000000000000000000000000000000000000000082168092036101eb57817f7965db0b0000000000000000000000000000000000000000000000000000000060209314908115611e14575b5015158152f35b7f01ffc9a70000000000000000000000000000000000000000000000000000000091501483611e0d565b602435906001600160a01b03821682036101eb57565b600435906001600160a01b03821682036101eb57565b90600182811c92168015611e9a575b6020831014611e8457565b634e487b7160e01b600052602260045260246000fd5b91607f1691611e79565b60e0810190811067ffffffffffffffff821117610fa057604052565b6101a0810190811067ffffffffffffffff821117610fa057604052565b90601f8019910116810190811067ffffffffffffffff821117610fa057604052565b9060405191826000825492611f1384611e6a565b908184526001948581169081600014611f825750600114611f3f575b5050611f3d92500383611edd565b565b9093915060005260209081600020936000915b818310611f6a575050611f3d93508201013880611f2f565b85548884018501529485019487945091830191611f52565b915050611f3d94506020925060ff191682840152151560051b8201013880611f2f565b60005b838110611fb85750506000910152565b8181015183820152602001611fa8565b90602091611fe181518092818552858086019101611fa5565b601f01601f1916010190565b67ffffffffffffffff8111610fa057601f01601f191660200190565b81601f820112156101eb5780359061202082611fed565b9261202e6040519485611edd565b828452602083830101116101eb57816000926020809301838601378301015290565b67ffffffffffffffff8111610fa05760051b60200190565b9080601f830112156101eb5781359061208082612050565b9261208e6040519485611edd565b828452602092838086019160051b830101928084116101eb57848301915b8483106120bc5750505050505090565b823567ffffffffffffffff81116101eb5786916120de84848094890101612009565b8152019201916120ac565b80548210156121015760005260206000200190600090565b634e487b7160e01b600052603260045260246000fd5b3360009081527f7d7ffb7a348e1c6a02869081a26547b49160dd3df72d1d75a570eb9b698292ec60205260409020547fa49807205ce4d355092ef5a8a18f56e8913cf4a201fbe287825b095693c217759060ff16156115095750565b80600052600060205260406000203360005260205260ff60406000205416156115095750565b90600091808352826020526001600160a01b036040842092169182845260205260ff6040842054161560001461221357808352826020526040832082845260205260408320600160ff198254161790557f2f8788117e7eff1d82e926ec794901d17c78024a50270940304540a733656f0d339380a4600190565b505090565b90600091808352826020526001600160a01b036040842092169182845260205260ff6040842054166000146122135780835282602052604083208284526020526040832060ff1981541690557ff6391f5c32d9c69d2a47ea670b442974b53935d1edc7fd64eb21e047a839171b339380a4600190565b1561229557565b606460405162461bcd60e51b815260206004820152601d60248201527f416d6f756e74206d7573742062652067726561746572207468616e20300000006044820152fd5b6000198114611a2b5760010190565b8181106122f3575050565b600081556001016122e8565b60ff6001541661230b57565b60046040517fd93c0665000000000000000000000000000000000000000000000000000000008152fd5b1561233c57565b606460405162461bcd60e51b815260206004820152601960248201527f5363686f6c617273686970206973206e6f7420616374697665000000000000006044820152fd5b91908201809211611a2b57565b3d156123b8573d9061239e82611fed565b916123ac6040519384611edd565b82523d6000602084013e565b606090565b60028054146123cc5760028055565b60046040517f3ee5aeb5000000000000000000000000000000000000000000000000000000008152fd5b90815461240281612050565b926124106040519485611edd565b818452600090815260208082208186015b84841061242f575050505050565b600183819261243d85611eff565b815201920193019290612421565b60209081818403126101eb5780519067ffffffffffffffff82116101eb57019180601f840112156101eb57825161248181612050565b9361248f6040519586611edd565b818552838086019260051b8201019283116101eb578301905b8282106124b6575050505090565b815181529083019083016124a8565b906000918252600860205260408220906040516124e181611ea4565b825481526124f1600184016123f6565b9060208101918252612505600285016123f6565b9060408101918252600385015492606082019384526004860154936080830194855260c060ff600660058a01549960a087019a8b52015416930192151583526001600160a01b03888160095416916024604051809481936303af18ef60e61b83528c1660048301525afa90811561263e57899161261c575b5051905111612613575180516125f2575b50505180516125d7575b505180158015906125cd575b6125b2575b50505050600190565b6125bd925191612b5f565b156125ca578080806125a9565b90565b50825115156125a4565b6125e190836129f9565b156125ec5738612598565b50505090565b61260091511515908561275d565b1561260c57388061258e565b5050505090565b50505050505090565b61263891503d808b833e6126308183611edd565b81019061244b565b3861257d565b6040513d8b823e3d90fd5b80518210156121015760209160051b010190565b81601f820112156101eb57805161267381611fed565b926126816040519485611edd565b818452602082840101116101eb576125ca9160208085019101611fa5565b9190610100838203126101eb5782519067ffffffffffffffff918281116101eb57816126cc91860161265d565b9360208101518381116101eb57826126e591830161265d565b9360408201518481116101eb57836126fe91840161265d565b9360608301518181116101eb578461271791850161265d565b9360808401519182116101eb5761272f91840161265d565b9160a08101519160c082015180151581036101eb5760e0909201516001600160a01b03811681036101eb5790565b9190916001600160a01b039283600954166040908151956303af18ef60e61b8752600494168487015260009360249585888881865afa9788156129ef5786986129d3575b50156128d05784955b84518710156128c3578597865b81518110156128b9576127ca8183612649565b5186519063331d9f1160e11b82528582015288818581895afa9081156128af578991612885575b5086519060209161281e8382816128118183019687815193849201611fa5565b8101038084520182611edd565b5190209061282c8b8a612649565b519061284989519182816128118183019687815193849201611fa5565b5190201461285f5761285a906122d9565b6127b7565b5097509560015b1561287a57612874906122d9565b956127aa565b505050505091505090565b6128a191503d808b833e6128998183611edd565b81019061269f565b5050505050509050386127f1565b87513d8b823e3d90fd5b5097969096612866565b5050505050505050600190565b8493959294925b86518410156129c857845b88518110156129b7576128f5818a612649565b5187519063331d9f1160e11b82528482015286818481885afa9081156129ad57879161298b575b5087519060209161293c8382816128118183019687815193849201611fa5565b5190209061294a878b612649565b51906129678a519182816128118183019687815193849201611fa5565b5190201461297d57612978906122d9565b6128e2565b505050505050505050600190565b61299f91503d8089833e6128998183611edd565b50505050505090503861291c565b88513d89823e3d90fd5b50926129c2906122d9565b926128d7565b505050509250505090565b6129e89198503d8088833e6126308183611edd565b96386127a1565b84513d88823e3d90fd5b906001600160a01b0380600954166040918251946303af18ef60e61b86521660048501526000938481602481855afa908115612b55578591612b3b575b508051908115612b33576000198201918211612b1f578591612a5791612649565b51602484518094819363331d9f1160e11b835260048301525afa908115612b15578491612af3575b50835b835181101561260c57825160209081810190612aa8838287516128118187858c01611fa5565b51902090612ab68387612649565b5190612ad386519182816128118183019687815193849201611fa5565b51902014612ae957612ae4906122d9565b612a82565b5050505050600190565b612b0791503d8086833e6128998183611edd565b505050935050505038612a7f565b82513d86823e3d90fd5b602486634e487b7160e01b81526011600452fd5b505050505090565b612b4f91503d8087833e6126308183611edd565b38612a36565b83513d87823e3d90fd5b916001600160a01b0391826009541692604051946303af18ef60e61b86521660048501526000938481602481875afa908115612c56579085918291612c3c575b50805115612b33576020015160246040518096819363331d9f1160e11b835260048301525afa928315612c31578493612c0d575b508015159081612c03575b50612213578015159182612bf9575b50506125ca5750600190565b1190503880612bed565b9050821038612bde565b612c229193503d8086833e6128998183611edd565b50509450505050509138612bd3565b6040513d86823e3d90fd5b612c5091503d8084833e6126308183611edd565b38612b9f565b6040513d87823e3d90fdfea26469706673582212200d9d85a8431291e30d4398fc523d1c5b68f1ec26e7739a91c68fa50598a4a87764736f6c634300081400332f8788117e7eff1d82e926ec794901d17c78024a50270940304540a733656f0d",
  "linkReferences": {},
  "deployedLinkReferences": {}
}